{
	"contracts/4_CrowdFunding.sol": {
		"CrowdFunding": {
			"abi": [
				{
					"inputs": [],
					"stateMutability": "nonpayable",
					"type": "constructor"
				},
				{
					"inputs": [
						{
							"internalType": "string",
							"name": "name",
							"type": "string"
						},
						{
							"internalType": "string",
							"name": "description",
							"type": "string"
						},
						{
							"internalType": "uint256",
							"name": "startDate",
							"type": "uint256"
						},
						{
							"internalType": "uint256",
							"name": "endDate",
							"type": "uint256"
						},
						{
							"internalType": "uint256",
							"name": "goalAmount",
							"type": "uint256"
						},
						{
							"internalType": "address payable",
							"name": "receiverAddress",
							"type": "address"
						}
					],
					"name": "createFund",
					"outputs": [],
					"stateMutability": "nonpayable",
					"type": "function"
				},
				{
					"inputs": [
						{
							"internalType": "uint256",
							"name": "fundId",
							"type": "uint256"
						},
						{
							"internalType": "uint256",
							"name": "amount",
							"type": "uint256"
						}
					],
					"name": "createInvestment",
					"outputs": [],
					"stateMutability": "nonpayable",
					"type": "function"
				},
				{
					"inputs": [],
					"name": "getAllFunds",
					"outputs": [
						{
							"components": [
								{
									"internalType": "uint256",
									"name": "id",
									"type": "uint256"
								},
								{
									"internalType": "string",
									"name": "name",
									"type": "string"
								},
								{
									"internalType": "string",
									"name": "description",
									"type": "string"
								},
								{
									"internalType": "uint256",
									"name": "startDate",
									"type": "uint256"
								},
								{
									"internalType": "uint256",
									"name": "endDate",
									"type": "uint256"
								},
								{
									"internalType": "uint256",
									"name": "goalAmount",
									"type": "uint256"
								},
								{
									"internalType": "uint256",
									"name": "currentAmount",
									"type": "uint256"
								},
								{
									"internalType": "bool",
									"name": "isActive",
									"type": "bool"
								},
								{
									"internalType": "address payable",
									"name": "receiverAddress",
									"type": "address"
								}
							],
							"internalType": "struct CrowdFunding.Fund[]",
							"name": "",
							"type": "tuple[]"
						}
					],
					"stateMutability": "view",
					"type": "function"
				},
				{
					"inputs": [
						{
							"internalType": "uint256",
							"name": "fundId",
							"type": "uint256"
						}
					],
					"name": "getAllInvestmentsForFund",
					"outputs": [
						{
							"components": [
								{
									"internalType": "uint256",
									"name": "id",
									"type": "uint256"
								},
								{
									"internalType": "uint256",
									"name": "fundId",
									"type": "uint256"
								},
								{
									"internalType": "address",
									"name": "investorAddress",
									"type": "address"
								},
								{
									"internalType": "uint256",
									"name": "investorAmount",
									"type": "uint256"
								},
								{
									"internalType": "uint256",
									"name": "investmentDate",
									"type": "uint256"
								}
							],
							"internalType": "struct CrowdFunding.Investment[]",
							"name": "",
							"type": "tuple[]"
						}
					],
					"stateMutability": "view",
					"type": "function"
				},
				{
					"inputs": [
						{
							"internalType": "uint256",
							"name": "fundId",
							"type": "uint256"
						}
					],
					"name": "getFundById",
					"outputs": [
						{
							"components": [
								{
									"internalType": "uint256",
									"name": "id",
									"type": "uint256"
								},
								{
									"internalType": "string",
									"name": "name",
									"type": "string"
								},
								{
									"internalType": "string",
									"name": "description",
									"type": "string"
								},
								{
									"internalType": "uint256",
									"name": "startDate",
									"type": "uint256"
								},
								{
									"internalType": "uint256",
									"name": "endDate",
									"type": "uint256"
								},
								{
									"internalType": "uint256",
									"name": "goalAmount",
									"type": "uint256"
								},
								{
									"internalType": "uint256",
									"name": "currentAmount",
									"type": "uint256"
								},
								{
									"internalType": "bool",
									"name": "isActive",
									"type": "bool"
								},
								{
									"internalType": "address payable",
									"name": "receiverAddress",
									"type": "address"
								}
							],
							"internalType": "struct CrowdFunding.Fund",
							"name": "",
							"type": "tuple"
						}
					],
					"stateMutability": "view",
					"type": "function"
				},
				{
					"inputs": [],
					"name": "makePayment",
					"outputs": [],
					"stateMutability": "nonpayable",
					"type": "function"
				},
				{
					"inputs": [],
					"name": "manager",
					"outputs": [
						{
							"internalType": "address",
							"name": "",
							"type": "address"
						}
					],
					"stateMutability": "view",
					"type": "function"
				}
			],
			"devdoc": {
				"kind": "dev",
				"methods": {},
				"version": 1
			},
			"evm": {
				"assembly": "    /* \"contracts/4_CrowdFunding.sol\":69:3317  contract CrowdFunding {\r... */\n  mstore(0x40, 0x80)\n    /* \"contracts/4_CrowdFunding.sol\":710:763  constructor() {\r... */\n  callvalue\n  dup1\n  iszero\n  tag_1\n  jumpi\n  0x00\n  dup1\n  revert\ntag_1:\n  pop\n    /* \"contracts/4_CrowdFunding.sol\":745:755  msg.sender */\n  caller\n    /* \"contracts/4_CrowdFunding.sol\":735:742  manager */\n  0x00\n  dup1\n    /* \"contracts/4_CrowdFunding.sol\":735:755  manager = msg.sender */\n  0x0100\n  exp\n  dup2\n  sload\n  dup2\n  0xffffffffffffffffffffffffffffffffffffffff\n  mul\n  not\n  and\n  swap1\n  dup4\n  0xffffffffffffffffffffffffffffffffffffffff\n  and\n  mul\n  or\n  swap1\n  sstore\n  pop\n    /* \"contracts/4_CrowdFunding.sol\":69:3317  contract CrowdFunding {\r... */\n  dataSize(sub_0)\n  dup1\n  dataOffset(sub_0)\n  0x00\n  codecopy\n  0x00\n  return\nstop\n\nsub_0: assembly {\n        /* \"contracts/4_CrowdFunding.sol\":69:3317  contract CrowdFunding {\r... */\n      mstore(0x40, 0x80)\n      callvalue\n      dup1\n      iszero\n      tag_1\n      jumpi\n      0x00\n      dup1\n      revert\n    tag_1:\n      pop\n      jumpi(tag_2, lt(calldatasize, 0x04))\n      shr(0xe0, calldataload(0x00))\n      dup1\n      0x26ef2adf\n      gt\n      tag_10\n      jumpi\n      dup1\n      0x26ef2adf\n      eq\n      tag_6\n      jumpi\n      dup1\n      0x481c6a75\n      eq\n      tag_7\n      jumpi\n      dup1\n      0x526ed285\n      eq\n      tag_8\n      jumpi\n      dup1\n      0xd8d79700\n      eq\n      tag_9\n      jumpi\n      jump(tag_2)\n    tag_10:\n      dup1\n      0x135a34a2\n      eq\n      tag_3\n      jumpi\n      dup1\n      0x149e685a\n      eq\n      tag_4\n      jumpi\n      dup1\n      0x1c69b464\n      eq\n      tag_5\n      jumpi\n    tag_2:\n      0x00\n      dup1\n      revert\n        /* \"contracts/4_CrowdFunding.sol\":2280:2704  function createInvestment(uint256 fundId, uint256 amount) public {\r... */\n    tag_3:\n      tag_11\n      0x04\n      dup1\n      calldatasize\n      sub\n      dup2\n      add\n      swap1\n      tag_12\n      swap2\n      swap1\n      tag_13\n      jump\t// in\n    tag_12:\n      tag_14\n      jump\t// in\n    tag_11:\n      stop\n        /* \"contracts/4_CrowdFunding.sol\":2162:2272  function getFundById(uint256 fundId) public view returns (Fund memory) {\r... */\n    tag_4:\n      tag_15\n      0x04\n      dup1\n      calldatasize\n      sub\n      dup2\n      add\n      swap1\n      tag_16\n      swap2\n      swap1\n      tag_17\n      jump\t// in\n    tag_16:\n      tag_18\n      jump\t// in\n    tag_15:\n      mload(0x40)\n      tag_19\n      swap2\n      swap1\n      tag_20\n      jump\t// in\n    tag_19:\n      mload(0x40)\n      dup1\n      swap2\n      sub\n      swap1\n      return\n        /* \"contracts/4_CrowdFunding.sol\":1901:2154  function getAllFunds() public view returns (Fund[] memory) {\r... */\n    tag_5:\n      tag_21\n      tag_22\n      jump\t// in\n    tag_21:\n      mload(0x40)\n      tag_23\n      swap2\n      swap1\n      tag_24\n      jump\t// in\n    tag_23:\n      mload(0x40)\n      dup1\n      swap2\n      sub\n      swap1\n      return\n        /* \"contracts/4_CrowdFunding.sol\":2712:3262  function getAllInvestmentsForFund(uint256 fundId)\r... */\n    tag_6:\n      tag_25\n      0x04\n      dup1\n      calldatasize\n      sub\n      dup2\n      add\n      swap1\n      tag_26\n      swap2\n      swap1\n      tag_17\n      jump\t// in\n    tag_26:\n      tag_27\n      jump\t// in\n    tag_25:\n      mload(0x40)\n      tag_28\n      swap2\n      swap1\n      tag_29\n      jump\t// in\n    tag_28:\n      mload(0x40)\n      dup1\n      swap2\n      sub\n      swap1\n      return\n        /* \"contracts/4_CrowdFunding.sol\":98:120  address public manager */\n    tag_7:\n      tag_30\n      tag_31\n      jump\t// in\n    tag_30:\n      mload(0x40)\n      tag_32\n      swap2\n      swap1\n      tag_33\n      jump\t// in\n    tag_32:\n      mload(0x40)\n      dup1\n      swap2\n      sub\n      swap1\n      return\n        /* \"contracts/4_CrowdFunding.sol\":950:1893  function createFund(\r... */\n    tag_8:\n      tag_34\n      0x04\n      dup1\n      calldatasize\n      sub\n      dup2\n      add\n      swap1\n      tag_35\n      swap2\n      swap1\n      tag_36\n      jump\t// in\n    tag_35:\n      tag_37\n      jump\t// in\n    tag_34:\n      stop\n        /* \"contracts/4_CrowdFunding.sol\":3270:3314  function makePayment() public onlyManager {} */\n    tag_9:\n      tag_38\n      tag_39\n      jump\t// in\n    tag_38:\n      stop\n        /* \"contracts/4_CrowdFunding.sol\":2280:2704  function createInvestment(uint256 fundId, uint256 amount) public {\r... */\n    tag_14:\n        /* \"contracts/4_CrowdFunding.sol\":2356:2373  Fund storage fund */\n      0x00\n        /* \"contracts/4_CrowdFunding.sol\":2376:2381  funds */\n      0x01\n        /* \"contracts/4_CrowdFunding.sol\":2376:2389  funds[fundId] */\n      0x00\n        /* \"contracts/4_CrowdFunding.sol\":2382:2388  fundId */\n      dup5\n        /* \"contracts/4_CrowdFunding.sol\":2376:2389  funds[fundId] */\n      dup2\n      mstore\n      0x20\n      add\n      swap1\n      dup2\n      mstore\n      0x20\n      add\n      0x00\n      keccak256\n        /* \"contracts/4_CrowdFunding.sol\":2356:2389  Fund storage fund = funds[fundId] */\n      swap1\n      pop\n        /* \"contracts/4_CrowdFunding.sol\":2408:2412  fund */\n      dup1\n        /* \"contracts/4_CrowdFunding.sol\":2408:2421  fund.isActive */\n      0x07\n      add\n      0x00\n      swap1\n      sload\n      swap1\n      0x0100\n      exp\n      swap1\n      div\n      0xff\n      and\n        /* \"contracts/4_CrowdFunding.sol\":2400:2441  require(fund.isActive, \"Fund is closed.\") */\n      tag_41\n      jumpi\n      mload(0x40)\n      0x08c379a000000000000000000000000000000000000000000000000000000000\n      dup2\n      mstore\n      0x04\n      add\n      tag_42\n      swap1\n      tag_43\n      jump\t// in\n    tag_42:\n      mload(0x40)\n      dup1\n      swap2\n      sub\n      swap1\n      revert\n    tag_41:\n        /* \"contracts/4_CrowdFunding.sol\":2454:2465  investments */\n      0x02\n        /* \"contracts/4_CrowdFunding.sol\":2485:2657  Investment(\r... */\n      mload(0x40)\n      dup1\n      0xa0\n      add\n      0x40\n      mstore\n      dup1\n        /* \"contracts/4_CrowdFunding.sol\":2514:2529  investmentCount */\n      sload(0x04)\n        /* \"contracts/4_CrowdFunding.sol\":2485:2657  Investment(\r... */\n      dup2\n      mstore\n      0x20\n      add\n        /* \"contracts/4_CrowdFunding.sol\":2548:2554  fundId */\n      dup6\n        /* \"contracts/4_CrowdFunding.sol\":2485:2657  Investment(\r... */\n      dup2\n      mstore\n      0x20\n      add\n        /* \"contracts/4_CrowdFunding.sol\":2573:2583  msg.sender */\n      caller\n        /* \"contracts/4_CrowdFunding.sol\":2485:2657  Investment(\r... */\n      0xffffffffffffffffffffffffffffffffffffffff\n      and\n      dup2\n      mstore\n      0x20\n      add\n        /* \"contracts/4_CrowdFunding.sol\":2602:2608  amount */\n      dup5\n        /* \"contracts/4_CrowdFunding.sol\":2485:2657  Investment(\r... */\n      dup2\n      mstore\n      0x20\n      add\n        /* \"contracts/4_CrowdFunding.sol\":2627:2642  block.timestamp */\n      timestamp\n        /* \"contracts/4_CrowdFunding.sol\":2485:2657  Investment(\r... */\n      dup2\n      mstore\n      pop\n        /* \"contracts/4_CrowdFunding.sol\":2454:2668  investments.push(\r... */\n      swap1\n      dup1\n      0x01\n      dup2\n      sload\n      add\n      dup1\n      dup3\n      sstore\n      dup1\n      swap2\n      pop\n      pop\n      0x01\n      swap1\n      sub\n      swap1\n      0x00\n      mstore\n      keccak256(0x00, 0x20)\n      swap1\n      0x05\n      mul\n      add\n      0x00\n      swap1\n      swap2\n      swap1\n      swap2\n      swap1\n      swap2\n      pop\n      0x00\n      dup3\n      add\n      mload\n      dup2\n      0x00\n      add\n      sstore\n      0x20\n      dup3\n      add\n      mload\n      dup2\n      0x01\n      add\n      sstore\n      0x40\n      dup3\n      add\n      mload\n      dup2\n      0x02\n      add\n      exp(0x0100, 0x00)\n      dup2\n      sload\n      dup2\n      0xffffffffffffffffffffffffffffffffffffffff\n      mul\n      not\n      and\n      swap1\n      dup4\n      0xffffffffffffffffffffffffffffffffffffffff\n      and\n      mul\n      or\n      swap1\n      sstore\n      pop\n      0x60\n      dup3\n      add\n      mload\n      dup2\n      0x03\n      add\n      sstore\n      0x80\n      dup3\n      add\n      mload\n      dup2\n      0x04\n      add\n      sstore\n      pop\n      pop\n        /* \"contracts/4_CrowdFunding.sol\":2679:2694  investmentCount */\n      0x04\n      0x00\n        /* \"contracts/4_CrowdFunding.sol\":2679:2696  investmentCount++ */\n      dup2\n      sload\n      dup1\n      swap3\n      swap2\n      swap1\n      tag_45\n      swap1\n      tag_46\n      jump\t// in\n    tag_45:\n      swap2\n      swap1\n      pop\n      sstore\n      pop\n        /* \"contracts/4_CrowdFunding.sol\":2345:2704  {\r... */\n      pop\n        /* \"contracts/4_CrowdFunding.sol\":2280:2704  function createInvestment(uint256 fundId, uint256 amount) public {\r... */\n      pop\n      pop\n      jump\t// out\n        /* \"contracts/4_CrowdFunding.sol\":2162:2272  function getFundById(uint256 fundId) public view returns (Fund memory) {\r... */\n    tag_18:\n        /* \"contracts/4_CrowdFunding.sol\":2220:2231  Fund memory */\n      tag_47\n      tag_48\n      jump\t// in\n    tag_47:\n        /* \"contracts/4_CrowdFunding.sol\":2251:2256  funds */\n      0x01\n        /* \"contracts/4_CrowdFunding.sol\":2251:2264  funds[fundId] */\n      0x00\n        /* \"contracts/4_CrowdFunding.sol\":2257:2263  fundId */\n      dup4\n        /* \"contracts/4_CrowdFunding.sol\":2251:2264  funds[fundId] */\n      dup2\n      mstore\n      0x20\n      add\n      swap1\n      dup2\n      mstore\n      0x20\n      add\n      0x00\n      keccak256\n        /* \"contracts/4_CrowdFunding.sol\":2244:2264  return funds[fundId] */\n      mload(0x40)\n      dup1\n      0x0120\n      add\n      0x40\n      mstore\n      swap1\n      dup2\n      0x00\n      dup3\n      add\n      sload\n      dup2\n      mstore\n      0x20\n      add\n      0x01\n      dup3\n      add\n      dup1\n      sload\n      tag_50\n      swap1\n      tag_51\n      jump\t// in\n    tag_50:\n      dup1\n      0x1f\n      add\n      0x20\n      dup1\n      swap2\n      div\n      mul\n      0x20\n      add\n      mload(0x40)\n      swap1\n      dup2\n      add\n      0x40\n      mstore\n      dup1\n      swap3\n      swap2\n      swap1\n      dup2\n      dup2\n      mstore\n      0x20\n      add\n      dup3\n      dup1\n      sload\n      tag_52\n      swap1\n      tag_51\n      jump\t// in\n    tag_52:\n      dup1\n      iszero\n      tag_53\n      jumpi\n      dup1\n      0x1f\n      lt\n      tag_54\n      jumpi\n      0x0100\n      dup1\n      dup4\n      sload\n      div\n      mul\n      dup4\n      mstore\n      swap2\n      0x20\n      add\n      swap2\n      jump(tag_53)\n    tag_54:\n      dup3\n      add\n      swap2\n      swap1\n      0x00\n      mstore\n      keccak256(0x00, 0x20)\n      swap1\n    tag_55:\n      dup2\n      sload\n      dup2\n      mstore\n      swap1\n      0x01\n      add\n      swap1\n      0x20\n      add\n      dup1\n      dup4\n      gt\n      tag_55\n      jumpi\n      dup3\n      swap1\n      sub\n      0x1f\n      and\n      dup3\n      add\n      swap2\n    tag_53:\n      pop\n      pop\n      pop\n      pop\n      pop\n      dup2\n      mstore\n      0x20\n      add\n      0x02\n      dup3\n      add\n      dup1\n      sload\n      tag_56\n      swap1\n      tag_51\n      jump\t// in\n    tag_56:\n      dup1\n      0x1f\n      add\n      0x20\n      dup1\n      swap2\n      div\n      mul\n      0x20\n      add\n      mload(0x40)\n      swap1\n      dup2\n      add\n      0x40\n      mstore\n      dup1\n      swap3\n      swap2\n      swap1\n      dup2\n      dup2\n      mstore\n      0x20\n      add\n      dup3\n      dup1\n      sload\n      tag_57\n      swap1\n      tag_51\n      jump\t// in\n    tag_57:\n      dup1\n      iszero\n      tag_58\n      jumpi\n      dup1\n      0x1f\n      lt\n      tag_59\n      jumpi\n      0x0100\n      dup1\n      dup4\n      sload\n      div\n      mul\n      dup4\n      mstore\n      swap2\n      0x20\n      add\n      swap2\n      jump(tag_58)\n    tag_59:\n      dup3\n      add\n      swap2\n      swap1\n      0x00\n      mstore\n      keccak256(0x00, 0x20)\n      swap1\n    tag_60:\n      dup2\n      sload\n      dup2\n      mstore\n      swap1\n      0x01\n      add\n      swap1\n      0x20\n      add\n      dup1\n      dup4\n      gt\n      tag_60\n      jumpi\n      dup3\n      swap1\n      sub\n      0x1f\n      and\n      dup3\n      add\n      swap2\n    tag_58:\n      pop\n      pop\n      pop\n      pop\n      pop\n      dup2\n      mstore\n      0x20\n      add\n      0x03\n      dup3\n      add\n      sload\n      dup2\n      mstore\n      0x20\n      add\n      0x04\n      dup3\n      add\n      sload\n      dup2\n      mstore\n      0x20\n      add\n      0x05\n      dup3\n      add\n      sload\n      dup2\n      mstore\n      0x20\n      add\n      0x06\n      dup3\n      add\n      sload\n      dup2\n      mstore\n      0x20\n      add\n      0x07\n      dup3\n      add\n      0x00\n      swap1\n      sload\n      swap1\n      0x0100\n      exp\n      swap1\n      div\n      0xff\n      and\n      iszero\n      iszero\n      iszero\n      iszero\n      dup2\n      mstore\n      0x20\n      add\n      0x07\n      dup3\n      add\n      0x01\n      swap1\n      sload\n      swap1\n      0x0100\n      exp\n      swap1\n      div\n      0xffffffffffffffffffffffffffffffffffffffff\n      and\n      0xffffffffffffffffffffffffffffffffffffffff\n      and\n      0xffffffffffffffffffffffffffffffffffffffff\n      and\n      dup2\n      mstore\n      pop\n      pop\n      swap1\n      pop\n        /* \"contracts/4_CrowdFunding.sol\":2162:2272  function getFundById(uint256 fundId) public view returns (Fund memory) {\r... */\n      swap2\n      swap1\n      pop\n      jump\t// out\n        /* \"contracts/4_CrowdFunding.sol\":1901:2154  function getAllFunds() public view returns (Fund[] memory) {\r... */\n    tag_22:\n        /* \"contracts/4_CrowdFunding.sol\":1945:1958  Fund[] memory */\n      0x60\n        /* \"contracts/4_CrowdFunding.sol\":1971:1993  Fund[] memory fundList */\n      0x00\n        /* \"contracts/4_CrowdFunding.sol\":2007:2016  fundCount */\n      sload(0x03)\n        /* \"contracts/4_CrowdFunding.sol\":1996:2017  new Fund[](fundCount) */\n      0xffffffffffffffff\n      dup2\n      gt\n      iszero\n      tag_62\n      jumpi\n      tag_63\n      tag_64\n      jump\t// in\n    tag_63:\n    tag_62:\n      mload(0x40)\n      swap1\n      dup1\n      dup3\n      mstore\n      dup1\n      0x20\n      mul\n      0x20\n      add\n      dup3\n      add\n      0x40\n      mstore\n      dup1\n      iszero\n      tag_65\n      jumpi\n      dup2\n      0x20\n      add\n    tag_66:\n      tag_67\n      tag_48\n      jump\t// in\n    tag_67:\n      dup2\n      mstore\n      0x20\n      add\n      swap1\n      0x01\n      swap1\n      sub\n      swap1\n      dup2\n      tag_66\n      jumpi\n      swap1\n      pop\n    tag_65:\n      pop\n        /* \"contracts/4_CrowdFunding.sol\":1971:2017  Fund[] memory fundList = new Fund[](fundCount) */\n      swap1\n      pop\n        /* \"contracts/4_CrowdFunding.sol\":2035:2044  uint256 i */\n      0x00\n        /* \"contracts/4_CrowdFunding.sol\":2030:2119  for (uint256 i = 0; i < fundCount; i++) {\r... */\n    tag_68:\n        /* \"contracts/4_CrowdFunding.sol\":2054:2063  fundCount */\n      sload(0x03)\n        /* \"contracts/4_CrowdFunding.sol\":2050:2051  i */\n      dup2\n        /* \"contracts/4_CrowdFunding.sol\":2050:2063  i < fundCount */\n      lt\n        /* \"contracts/4_CrowdFunding.sol\":2030:2119  for (uint256 i = 0; i < fundCount; i++) {\r... */\n      iszero\n      tag_69\n      jumpi\n        /* \"contracts/4_CrowdFunding.sol\":2099:2104  funds */\n      0x01\n        /* \"contracts/4_CrowdFunding.sol\":2099:2107  funds[i] */\n      0x00\n        /* \"contracts/4_CrowdFunding.sol\":2105:2106  i */\n      dup3\n        /* \"contracts/4_CrowdFunding.sol\":2099:2107  funds[i] */\n      dup2\n      mstore\n      0x20\n      add\n      swap1\n      dup2\n      mstore\n      0x20\n      add\n      0x00\n      keccak256\n        /* \"contracts/4_CrowdFunding.sol\":2085:2107  fundList[i] = funds[i] */\n      mload(0x40)\n      dup1\n      0x0120\n      add\n      0x40\n      mstore\n      swap1\n      dup2\n      0x00\n      dup3\n      add\n      sload\n      dup2\n      mstore\n      0x20\n      add\n      0x01\n      dup3\n      add\n      dup1\n      sload\n      tag_71\n      swap1\n      tag_51\n      jump\t// in\n    tag_71:\n      dup1\n      0x1f\n      add\n      0x20\n      dup1\n      swap2\n      div\n      mul\n      0x20\n      add\n      mload(0x40)\n      swap1\n      dup2\n      add\n      0x40\n      mstore\n      dup1\n      swap3\n      swap2\n      swap1\n      dup2\n      dup2\n      mstore\n      0x20\n      add\n      dup3\n      dup1\n      sload\n      tag_72\n      swap1\n      tag_51\n      jump\t// in\n    tag_72:\n      dup1\n      iszero\n      tag_73\n      jumpi\n      dup1\n      0x1f\n      lt\n      tag_74\n      jumpi\n      0x0100\n      dup1\n      dup4\n      sload\n      div\n      mul\n      dup4\n      mstore\n      swap2\n      0x20\n      add\n      swap2\n      jump(tag_73)\n    tag_74:\n      dup3\n      add\n      swap2\n      swap1\n      0x00\n      mstore\n      keccak256(0x00, 0x20)\n      swap1\n    tag_75:\n      dup2\n      sload\n      dup2\n      mstore\n      swap1\n      0x01\n      add\n      swap1\n      0x20\n      add\n      dup1\n      dup4\n      gt\n      tag_75\n      jumpi\n      dup3\n      swap1\n      sub\n      0x1f\n      and\n      dup3\n      add\n      swap2\n    tag_73:\n      pop\n      pop\n      pop\n      pop\n      pop\n      dup2\n      mstore\n      0x20\n      add\n      0x02\n      dup3\n      add\n      dup1\n      sload\n      tag_76\n      swap1\n      tag_51\n      jump\t// in\n    tag_76:\n      dup1\n      0x1f\n      add\n      0x20\n      dup1\n      swap2\n      div\n      mul\n      0x20\n      add\n      mload(0x40)\n      swap1\n      dup2\n      add\n      0x40\n      mstore\n      dup1\n      swap3\n      swap2\n      swap1\n      dup2\n      dup2\n      mstore\n      0x20\n      add\n      dup3\n      dup1\n      sload\n      tag_77\n      swap1\n      tag_51\n      jump\t// in\n    tag_77:\n      dup1\n      iszero\n      tag_78\n      jumpi\n      dup1\n      0x1f\n      lt\n      tag_79\n      jumpi\n      0x0100\n      dup1\n      dup4\n      sload\n      div\n      mul\n      dup4\n      mstore\n      swap2\n      0x20\n      add\n      swap2\n      jump(tag_78)\n    tag_79:\n      dup3\n      add\n      swap2\n      swap1\n      0x00\n      mstore\n      keccak256(0x00, 0x20)\n      swap1\n    tag_80:\n      dup2\n      sload\n      dup2\n      mstore\n      swap1\n      0x01\n      add\n      swap1\n      0x20\n      add\n      dup1\n      dup4\n      gt\n      tag_80\n      jumpi\n      dup3\n      swap1\n      sub\n      0x1f\n      and\n      dup3\n      add\n      swap2\n    tag_78:\n      pop\n      pop\n      pop\n      pop\n      pop\n      dup2\n      mstore\n      0x20\n      add\n      0x03\n      dup3\n      add\n      sload\n      dup2\n      mstore\n      0x20\n      add\n      0x04\n      dup3\n      add\n      sload\n      dup2\n      mstore\n      0x20\n      add\n      0x05\n      dup3\n      add\n      sload\n      dup2\n      mstore\n      0x20\n      add\n      0x06\n      dup3\n      add\n      sload\n      dup2\n      mstore\n      0x20\n      add\n      0x07\n      dup3\n      add\n      0x00\n      swap1\n      sload\n      swap1\n      0x0100\n      exp\n      swap1\n      div\n      0xff\n      and\n      iszero\n      iszero\n      iszero\n      iszero\n      dup2\n      mstore\n      0x20\n      add\n      0x07\n      dup3\n      add\n      0x01\n      swap1\n      sload\n      swap1\n      0x0100\n      exp\n      swap1\n      div\n      0xffffffffffffffffffffffffffffffffffffffff\n      and\n      0xffffffffffffffffffffffffffffffffffffffff\n      and\n      0xffffffffffffffffffffffffffffffffffffffff\n      and\n      dup2\n      mstore\n      pop\n      pop\n        /* \"contracts/4_CrowdFunding.sol\":2085:2093  fundList */\n      dup3\n        /* \"contracts/4_CrowdFunding.sol\":2094:2095  i */\n      dup3\n        /* \"contracts/4_CrowdFunding.sol\":2085:2096  fundList[i] */\n      dup2\n      mload\n      dup2\n      lt\n      tag_81\n      jumpi\n      tag_82\n      tag_83\n      jump\t// in\n    tag_82:\n    tag_81:\n      0x20\n      mul\n      0x20\n      add\n      add\n        /* \"contracts/4_CrowdFunding.sol\":2085:2107  fundList[i] = funds[i] */\n      dup2\n      swap1\n      mstore\n      pop\n        /* \"contracts/4_CrowdFunding.sol\":2065:2068  i++ */\n      dup1\n      dup1\n      tag_84\n      swap1\n      tag_46\n      jump\t// in\n    tag_84:\n      swap2\n      pop\n      pop\n        /* \"contracts/4_CrowdFunding.sol\":2030:2119  for (uint256 i = 0; i < fundCount; i++) {\r... */\n      jump(tag_68)\n    tag_69:\n      pop\n        /* \"contracts/4_CrowdFunding.sol\":2138:2146  fundList */\n      dup1\n        /* \"contracts/4_CrowdFunding.sol\":2131:2146  return fundList */\n      swap2\n      pop\n      pop\n        /* \"contracts/4_CrowdFunding.sol\":1901:2154  function getAllFunds() public view returns (Fund[] memory) {\r... */\n      swap1\n      jump\t// out\n        /* \"contracts/4_CrowdFunding.sol\":2712:3262  function getAllInvestmentsForFund(uint256 fundId)\r... */\n    tag_27:\n        /* \"contracts/4_CrowdFunding.sol\":2810:2829  Investment[] memory */\n      0x60\n        /* \"contracts/4_CrowdFunding.sol\":2847:2881  Investment[] memory investmentList */\n      0x00\n        /* \"contracts/4_CrowdFunding.sol\":2901:2916  investmentCount */\n      sload(0x04)\n        /* \"contracts/4_CrowdFunding.sol\":2884:2917  new Investment[](investmentCount) */\n      0xffffffffffffffff\n      dup2\n      gt\n      iszero\n      tag_86\n      jumpi\n      tag_87\n      tag_64\n      jump\t// in\n    tag_87:\n    tag_86:\n      mload(0x40)\n      swap1\n      dup1\n      dup3\n      mstore\n      dup1\n      0x20\n      mul\n      0x20\n      add\n      dup3\n      add\n      0x40\n      mstore\n      dup1\n      iszero\n      tag_88\n      jumpi\n      dup2\n      0x20\n      add\n    tag_89:\n      tag_90\n      tag_91\n      jump\t// in\n    tag_90:\n      dup2\n      mstore\n      0x20\n      add\n      swap1\n      0x01\n      swap1\n      sub\n      swap1\n      dup2\n      tag_89\n      jumpi\n      swap1\n      pop\n    tag_88:\n      pop\n        /* \"contracts/4_CrowdFunding.sol\":2847:2917  Investment[] memory investmentList = new Investment[](investmentCount) */\n      swap1\n      pop\n        /* \"contracts/4_CrowdFunding.sol\":2928:2941  uint256 count */\n      0x00\n        /* \"contracts/4_CrowdFunding.sol\":2963:2972  uint256 i */\n      dup1\n        /* \"contracts/4_CrowdFunding.sol\":2958:3221  for (uint256 i = 0; i < investmentCount; i++) {\r... */\n    tag_92:\n        /* \"contracts/4_CrowdFunding.sol\":2982:2997  investmentCount */\n      sload(0x04)\n        /* \"contracts/4_CrowdFunding.sol\":2978:2979  i */\n      dup2\n        /* \"contracts/4_CrowdFunding.sol\":2978:2997  i < investmentCount */\n      lt\n        /* \"contracts/4_CrowdFunding.sol\":2958:3221  for (uint256 i = 0; i < investmentCount; i++) {\r... */\n      iszero\n      tag_93\n      jumpi\n        /* \"contracts/4_CrowdFunding.sol\":3019:3048  Investment storage investment */\n      0x00\n        /* \"contracts/4_CrowdFunding.sol\":3051:3062  investments */\n      0x02\n        /* \"contracts/4_CrowdFunding.sol\":3063:3064  i */\n      dup3\n        /* \"contracts/4_CrowdFunding.sol\":3051:3065  investments[i] */\n      dup2\n      sload\n      dup2\n      lt\n      tag_95\n      jumpi\n      tag_96\n      tag_83\n      jump\t// in\n    tag_96:\n    tag_95:\n      swap1\n      0x00\n      mstore\n      keccak256(0x00, 0x20)\n      swap1\n      0x05\n      mul\n      add\n        /* \"contracts/4_CrowdFunding.sol\":3019:3065  Investment storage investment = investments[i] */\n      swap1\n      pop\n        /* \"contracts/4_CrowdFunding.sol\":3107:3113  fundId */\n      dup6\n        /* \"contracts/4_CrowdFunding.sol\":3086:3096  investment */\n      dup2\n        /* \"contracts/4_CrowdFunding.sol\":3086:3103  investment.fundId */\n      0x01\n      add\n      sload\n        /* \"contracts/4_CrowdFunding.sol\":3086:3113  investment.fundId == fundId */\n      eq\n        /* \"contracts/4_CrowdFunding.sol\":3082:3210  if (investment.fundId == fundId) {\r... */\n      iszero\n      tag_98\n      jumpi\n        /* \"contracts/4_CrowdFunding.sol\":3158:3168  investment */\n      dup1\n        /* \"contracts/4_CrowdFunding.sol\":3134:3168  investmentList[count] = investment */\n      mload(0x40)\n      dup1\n      0xa0\n      add\n      0x40\n      mstore\n      swap1\n      dup2\n      0x00\n      dup3\n      add\n      sload\n      dup2\n      mstore\n      0x20\n      add\n      0x01\n      dup3\n      add\n      sload\n      dup2\n      mstore\n      0x20\n      add\n      0x02\n      dup3\n      add\n      0x00\n      swap1\n      sload\n      swap1\n      0x0100\n      exp\n      swap1\n      div\n      0xffffffffffffffffffffffffffffffffffffffff\n      and\n      0xffffffffffffffffffffffffffffffffffffffff\n      and\n      0xffffffffffffffffffffffffffffffffffffffff\n      and\n      dup2\n      mstore\n      0x20\n      add\n      0x03\n      dup3\n      add\n      sload\n      dup2\n      mstore\n      0x20\n      add\n      0x04\n      dup3\n      add\n      sload\n      dup2\n      mstore\n      pop\n      pop\n        /* \"contracts/4_CrowdFunding.sol\":3134:3148  investmentList */\n      dup5\n        /* \"contracts/4_CrowdFunding.sol\":3149:3154  count */\n      dup5\n        /* \"contracts/4_CrowdFunding.sol\":3134:3155  investmentList[count] */\n      dup2\n      mload\n      dup2\n      lt\n      tag_99\n      jumpi\n      tag_100\n      tag_83\n      jump\t// in\n    tag_100:\n    tag_99:\n      0x20\n      mul\n      0x20\n      add\n      add\n        /* \"contracts/4_CrowdFunding.sol\":3134:3168  investmentList[count] = investment */\n      dup2\n      swap1\n      mstore\n      pop\n        /* \"contracts/4_CrowdFunding.sol\":3187:3194  count++ */\n      dup3\n      dup1\n      tag_101\n      swap1\n      tag_46\n      jump\t// in\n    tag_101:\n      swap4\n      pop\n      pop\n        /* \"contracts/4_CrowdFunding.sol\":3082:3210  if (investment.fundId == fundId) {\r... */\n    tag_98:\n        /* \"contracts/4_CrowdFunding.sol\":3004:3221  {\r... */\n      pop\n        /* \"contracts/4_CrowdFunding.sol\":2999:3002  i++ */\n      dup1\n      dup1\n      tag_102\n      swap1\n      tag_46\n      jump\t// in\n    tag_102:\n      swap2\n      pop\n      pop\n        /* \"contracts/4_CrowdFunding.sol\":2958:3221  for (uint256 i = 0; i < investmentCount; i++) {\r... */\n      jump(tag_92)\n    tag_93:\n      pop\n        /* \"contracts/4_CrowdFunding.sol\":3240:3254  investmentList */\n      dup2\n        /* \"contracts/4_CrowdFunding.sol\":3233:3254  return investmentList */\n      swap3\n      pop\n      pop\n      pop\n        /* \"contracts/4_CrowdFunding.sol\":2712:3262  function getAllInvestmentsForFund(uint256 fundId)\r... */\n      swap2\n      swap1\n      pop\n      jump\t// out\n        /* \"contracts/4_CrowdFunding.sol\":98:120  address public manager */\n    tag_31:\n      0x00\n      dup1\n      sload\n      swap1\n      0x0100\n      exp\n      swap1\n      div\n      0xffffffffffffffffffffffffffffffffffffffff\n      and\n      dup2\n      jump\t// out\n        /* \"contracts/4_CrowdFunding.sol\":950:1893  function createFund(\r... */\n    tag_37:\n        /* \"contracts/4_CrowdFunding.sol\":838:848  msg.sender */\n      caller\n        /* \"contracts/4_CrowdFunding.sol\":827:848  manager == msg.sender */\n      0xffffffffffffffffffffffffffffffffffffffff\n      and\n        /* \"contracts/4_CrowdFunding.sol\":827:834  manager */\n      0x00\n      dup1\n      sload\n      swap1\n      0x0100\n      exp\n      swap1\n      div\n      0xffffffffffffffffffffffffffffffffffffffff\n      and\n        /* \"contracts/4_CrowdFunding.sol\":827:848  manager == msg.sender */\n      0xffffffffffffffffffffffffffffffffffffffff\n      and\n      eq\n        /* \"contracts/4_CrowdFunding.sol\":805:922  require(\r... */\n      tag_104\n      jumpi\n      mload(0x40)\n      0x08c379a000000000000000000000000000000000000000000000000000000000\n      dup2\n      mstore\n      0x04\n      add\n      tag_105\n      swap1\n      tag_106\n      jump\t// in\n    tag_105:\n      mload(0x40)\n      dup1\n      swap2\n      sub\n      swap1\n      revert\n    tag_104:\n        /* \"contracts/4_CrowdFunding.sol\":1231:1246  block.timestamp */\n      timestamp\n        /* \"contracts/4_CrowdFunding.sol\":1219:1228  startDate */\n      dup5\n        /* \"contracts/4_CrowdFunding.sol\":1219:1246  startDate > block.timestamp */\n      gt\n        /* \"contracts/4_CrowdFunding.sol\":1197:1331  require(\r... */\n      tag_108\n      jumpi\n      mload(0x40)\n      0x08c379a000000000000000000000000000000000000000000000000000000000\n      dup2\n      mstore\n      0x04\n      add\n      tag_109\n      swap1\n      tag_110\n      jump\t// in\n    tag_109:\n      mload(0x40)\n      dup1\n      swap2\n      sub\n      swap1\n      revert\n    tag_108:\n        /* \"contracts/4_CrowdFunding.sol\":1374:1383  startDate */\n      dup4\n        /* \"contracts/4_CrowdFunding.sol\":1364:1371  endDate */\n      dup4\n        /* \"contracts/4_CrowdFunding.sol\":1364:1383  endDate > startDate */\n      gt\n        /* \"contracts/4_CrowdFunding.sol\":1342:1464  require(\r... */\n      tag_111\n      jumpi\n      mload(0x40)\n      0x08c379a000000000000000000000000000000000000000000000000000000000\n      dup2\n      mstore\n      0x04\n      add\n      tag_112\n      swap1\n      tag_113\n      jump\t// in\n    tag_112:\n      mload(0x40)\n      dup1\n      swap2\n      sub\n      swap1\n      revert\n    tag_111:\n        /* \"contracts/4_CrowdFunding.sol\":1477:1497  Fund storage newFund */\n      0x00\n        /* \"contracts/4_CrowdFunding.sol\":1500:1505  funds */\n      0x01\n        /* \"contracts/4_CrowdFunding.sol\":1500:1516  funds[fundCount] */\n      0x00\n        /* \"contracts/4_CrowdFunding.sol\":1506:1515  fundCount */\n      sload(0x03)\n        /* \"contracts/4_CrowdFunding.sol\":1500:1516  funds[fundCount] */\n      dup2\n      mstore\n      0x20\n      add\n      swap1\n      dup2\n      mstore\n      0x20\n      add\n      0x00\n      keccak256\n        /* \"contracts/4_CrowdFunding.sol\":1477:1516  Fund storage newFund = funds[fundCount] */\n      swap1\n      pop\n        /* \"contracts/4_CrowdFunding.sol\":1540:1549  fundCount */\n      sload(0x03)\n        /* \"contracts/4_CrowdFunding.sol\":1527:1534  newFund */\n      dup2\n        /* \"contracts/4_CrowdFunding.sol\":1527:1537  newFund.id */\n      0x00\n      add\n        /* \"contracts/4_CrowdFunding.sol\":1527:1549  newFund.id = fundCount */\n      dup2\n      swap1\n      sstore\n      pop\n        /* \"contracts/4_CrowdFunding.sol\":1575:1579  name */\n      dup7\n        /* \"contracts/4_CrowdFunding.sol\":1560:1567  newFund */\n      dup2\n        /* \"contracts/4_CrowdFunding.sol\":1560:1572  newFund.name */\n      0x01\n      add\n        /* \"contracts/4_CrowdFunding.sol\":1560:1579  newFund.name = name */\n      swap1\n      dup1\n      mload\n      swap1\n      0x20\n      add\n      swap1\n      tag_114\n      swap3\n      swap2\n      swap1\n      tag_115\n      jump\t// in\n    tag_114:\n      pop\n        /* \"contracts/4_CrowdFunding.sol\":1612:1623  description */\n      dup6\n        /* \"contracts/4_CrowdFunding.sol\":1590:1597  newFund */\n      dup2\n        /* \"contracts/4_CrowdFunding.sol\":1590:1609  newFund.description */\n      0x02\n      add\n        /* \"contracts/4_CrowdFunding.sol\":1590:1623  newFund.description = description */\n      swap1\n      dup1\n      mload\n      swap1\n      0x20\n      add\n      swap1\n      tag_116\n      swap3\n      swap2\n      swap1\n      tag_115\n      jump\t// in\n    tag_116:\n      pop\n        /* \"contracts/4_CrowdFunding.sol\":1654:1663  startDate */\n      dup5\n        /* \"contracts/4_CrowdFunding.sol\":1634:1641  newFund */\n      dup2\n        /* \"contracts/4_CrowdFunding.sol\":1634:1651  newFund.startDate */\n      0x03\n      add\n        /* \"contracts/4_CrowdFunding.sol\":1634:1663  newFund.startDate = startDate */\n      dup2\n      swap1\n      sstore\n      pop\n        /* \"contracts/4_CrowdFunding.sol\":1692:1699  endDate */\n      dup4\n        /* \"contracts/4_CrowdFunding.sol\":1674:1681  newFund */\n      dup2\n        /* \"contracts/4_CrowdFunding.sol\":1674:1689  newFund.endDate */\n      0x04\n      add\n        /* \"contracts/4_CrowdFunding.sol\":1674:1699  newFund.endDate = endDate */\n      dup2\n      swap1\n      sstore\n      pop\n        /* \"contracts/4_CrowdFunding.sol\":1731:1741  goalAmount */\n      dup3\n        /* \"contracts/4_CrowdFunding.sol\":1710:1717  newFund */\n      dup2\n        /* \"contracts/4_CrowdFunding.sol\":1710:1728  newFund.goalAmount */\n      0x05\n      add\n        /* \"contracts/4_CrowdFunding.sol\":1710:1741  newFund.goalAmount = goalAmount */\n      dup2\n      swap1\n      sstore\n      pop\n        /* \"contracts/4_CrowdFunding.sol\":1776:1777  0 */\n      0x00\n        /* \"contracts/4_CrowdFunding.sol\":1752:1759  newFund */\n      dup2\n        /* \"contracts/4_CrowdFunding.sol\":1752:1773  newFund.currentAmount */\n      0x06\n      add\n        /* \"contracts/4_CrowdFunding.sol\":1752:1777  newFund.currentAmount = 0 */\n      dup2\n      swap1\n      sstore\n      pop\n        /* \"contracts/4_CrowdFunding.sol\":1814:1829  receiverAddress */\n      dup2\n        /* \"contracts/4_CrowdFunding.sol\":1788:1795  newFund */\n      dup2\n        /* \"contracts/4_CrowdFunding.sol\":1788:1811  newFund.receiverAddress */\n      0x07\n      add\n      0x01\n        /* \"contracts/4_CrowdFunding.sol\":1788:1829  newFund.receiverAddress = receiverAddress */\n      0x0100\n      exp\n      dup2\n      sload\n      dup2\n      0xffffffffffffffffffffffffffffffffffffffff\n      mul\n      not\n      and\n      swap1\n      dup4\n      0xffffffffffffffffffffffffffffffffffffffff\n      and\n      mul\n      or\n      swap1\n      sstore\n      pop\n        /* \"contracts/4_CrowdFunding.sol\":1859:1863  true */\n      0x01\n        /* \"contracts/4_CrowdFunding.sol\":1840:1847  newFund */\n      dup2\n        /* \"contracts/4_CrowdFunding.sol\":1840:1856  newFund.isActive */\n      0x07\n      add\n      0x00\n        /* \"contracts/4_CrowdFunding.sol\":1840:1863  newFund.isActive = true */\n      0x0100\n      exp\n      dup2\n      sload\n      dup2\n      0xff\n      mul\n      not\n      and\n      swap1\n      dup4\n      iszero\n      iszero\n      mul\n      or\n      swap1\n      sstore\n      pop\n        /* \"contracts/4_CrowdFunding.sol\":1874:1883  fundCount */\n      0x03\n      0x00\n        /* \"contracts/4_CrowdFunding.sol\":1874:1885  fundCount++ */\n      dup2\n      sload\n      dup1\n      swap3\n      swap2\n      swap1\n      tag_117\n      swap1\n      tag_46\n      jump\t// in\n    tag_117:\n      swap2\n      swap1\n      pop\n      sstore\n      pop\n        /* \"contracts/4_CrowdFunding.sol\":1186:1893  {\r... */\n      pop\n        /* \"contracts/4_CrowdFunding.sol\":950:1893  function createFund(\r... */\n      pop\n      pop\n      pop\n      pop\n      pop\n      pop\n      jump\t// out\n        /* \"contracts/4_CrowdFunding.sol\":3270:3314  function makePayment() public onlyManager {} */\n    tag_39:\n        /* \"contracts/4_CrowdFunding.sol\":838:848  msg.sender */\n      caller\n        /* \"contracts/4_CrowdFunding.sol\":827:848  manager == msg.sender */\n      0xffffffffffffffffffffffffffffffffffffffff\n      and\n        /* \"contracts/4_CrowdFunding.sol\":827:834  manager */\n      0x00\n      dup1\n      sload\n      swap1\n      0x0100\n      exp\n      swap1\n      div\n      0xffffffffffffffffffffffffffffffffffffffff\n      and\n        /* \"contracts/4_CrowdFunding.sol\":827:848  manager == msg.sender */\n      0xffffffffffffffffffffffffffffffffffffffff\n      and\n      eq\n        /* \"contracts/4_CrowdFunding.sol\":805:922  require(\r... */\n      tag_119\n      jumpi\n      mload(0x40)\n      0x08c379a000000000000000000000000000000000000000000000000000000000\n      dup2\n      mstore\n      0x04\n      add\n      tag_120\n      swap1\n      tag_106\n      jump\t// in\n    tag_120:\n      mload(0x40)\n      dup1\n      swap2\n      sub\n      swap1\n      revert\n    tag_119:\n        /* \"contracts/4_CrowdFunding.sol\":3270:3314  function makePayment() public onlyManager {} */\n      jump\t// out\n    tag_48:\n      mload(0x40)\n      dup1\n      0x0120\n      add\n      0x40\n      mstore\n      dup1\n      0x00\n      dup2\n      mstore\n      0x20\n      add\n      0x60\n      dup2\n      mstore\n      0x20\n      add\n      0x60\n      dup2\n      mstore\n      0x20\n      add\n      0x00\n      dup2\n      mstore\n      0x20\n      add\n      0x00\n      dup2\n      mstore\n      0x20\n      add\n      0x00\n      dup2\n      mstore\n      0x20\n      add\n      0x00\n      dup2\n      mstore\n      0x20\n      add\n      iszero(iszero(0x00))\n      dup2\n      mstore\n      0x20\n      add\n      and(0xffffffffffffffffffffffffffffffffffffffff, 0x00)\n      dup2\n      mstore\n      pop\n      swap1\n      jump\t// out\n    tag_91:\n      mload(0x40)\n      dup1\n      0xa0\n      add\n      0x40\n      mstore\n      dup1\n      0x00\n      dup2\n      mstore\n      0x20\n      add\n      0x00\n      dup2\n      mstore\n      0x20\n      add\n      and(0xffffffffffffffffffffffffffffffffffffffff, 0x00)\n      dup2\n      mstore\n      0x20\n      add\n      0x00\n      dup2\n      mstore\n      0x20\n      add\n      0x00\n      dup2\n      mstore\n      pop\n      swap1\n      jump\t// out\n    tag_115:\n      dup3\n      dup1\n      sload\n      tag_122\n      swap1\n      tag_51\n      jump\t// in\n    tag_122:\n      swap1\n      0x00\n      mstore\n      keccak256(0x00, 0x20)\n      swap1\n      0x1f\n      add\n      0x20\n      swap1\n      div\n      dup2\n      add\n      swap3\n      dup3\n      tag_124\n      jumpi\n      0x00\n      dup6\n      sstore\n      jump(tag_123)\n    tag_124:\n      dup3\n      0x1f\n      lt\n      tag_125\n      jumpi\n      dup1\n      mload\n      not(0xff)\n      and\n      dup4\n      dup1\n      add\n      or\n      dup6\n      sstore\n      jump(tag_123)\n    tag_125:\n      dup3\n      dup1\n      add\n      0x01\n      add\n      dup6\n      sstore\n      dup3\n      iszero\n      tag_123\n      jumpi\n      swap2\n      dup3\n      add\n    tag_126:\n      dup3\n      dup2\n      gt\n      iszero\n      tag_127\n      jumpi\n      dup3\n      mload\n      dup3\n      sstore\n      swap2\n      0x20\n      add\n      swap2\n      swap1\n      0x01\n      add\n      swap1\n      jump(tag_126)\n    tag_127:\n    tag_123:\n      pop\n      swap1\n      pop\n      tag_128\n      swap2\n      swap1\n      tag_129\n      jump\t// in\n    tag_128:\n      pop\n      swap1\n      jump\t// out\n    tag_129:\n    tag_130:\n      dup1\n      dup3\n      gt\n      iszero\n      tag_131\n      jumpi\n      0x00\n      dup2\n      0x00\n      swap1\n      sstore\n      pop\n      0x01\n      add\n      jump(tag_130)\n    tag_131:\n      pop\n      swap1\n      jump\t// out\n        /* \"#utility.yul\":7:419   */\n    tag_133:\n        /* \"#utility.yul\":85:90   */\n      0x00\n        /* \"#utility.yul\":110:176   */\n      tag_135\n        /* \"#utility.yul\":126:175   */\n      tag_136\n        /* \"#utility.yul\":168:174   */\n      dup5\n        /* \"#utility.yul\":126:175   */\n      tag_137\n      jump\t// in\n    tag_136:\n        /* \"#utility.yul\":110:176   */\n      tag_138\n      jump\t// in\n    tag_135:\n        /* \"#utility.yul\":101:176   */\n      swap1\n      pop\n        /* \"#utility.yul\":199:205   */\n      dup3\n        /* \"#utility.yul\":192:197   */\n      dup2\n        /* \"#utility.yul\":185:206   */\n      mstore\n        /* \"#utility.yul\":237:241   */\n      0x20\n        /* \"#utility.yul\":230:235   */\n      dup2\n        /* \"#utility.yul\":226:242   */\n      add\n        /* \"#utility.yul\":275:278   */\n      dup5\n        /* \"#utility.yul\":266:272   */\n      dup5\n        /* \"#utility.yul\":261:264   */\n      dup5\n        /* \"#utility.yul\":257:273   */\n      add\n        /* \"#utility.yul\":254:279   */\n      gt\n        /* \"#utility.yul\":251:363   */\n      iszero\n      tag_139\n      jumpi\n        /* \"#utility.yul\":282:361   */\n      tag_140\n      tag_141\n      jump\t// in\n    tag_140:\n        /* \"#utility.yul\":251:363   */\n    tag_139:\n        /* \"#utility.yul\":372:413   */\n      tag_142\n        /* \"#utility.yul\":406:412   */\n      dup5\n        /* \"#utility.yul\":401:404   */\n      dup3\n        /* \"#utility.yul\":396:399   */\n      dup6\n        /* \"#utility.yul\":372:413   */\n      tag_143\n      jump\t// in\n    tag_142:\n        /* \"#utility.yul\":91:419   */\n      pop\n        /* \"#utility.yul\":7:419   */\n      swap4\n      swap3\n      pop\n      pop\n      pop\n      jump\t// out\n        /* \"#utility.yul\":425:580   */\n    tag_144:\n        /* \"#utility.yul\":479:484   */\n      0x00\n        /* \"#utility.yul\":517:523   */\n      dup2\n        /* \"#utility.yul\":504:524   */\n      calldataload\n        /* \"#utility.yul\":495:524   */\n      swap1\n      pop\n        /* \"#utility.yul\":533:574   */\n      tag_146\n        /* \"#utility.yul\":568:573   */\n      dup2\n        /* \"#utility.yul\":533:574   */\n      tag_147\n      jump\t// in\n    tag_146:\n        /* \"#utility.yul\":425:580   */\n      swap3\n      swap2\n      pop\n      pop\n      jump\t// out\n        /* \"#utility.yul\":600:940   */\n    tag_148:\n        /* \"#utility.yul\":656:661   */\n      0x00\n        /* \"#utility.yul\":705:708   */\n      dup3\n        /* \"#utility.yul\":698:702   */\n      0x1f\n        /* \"#utility.yul\":690:696   */\n      dup4\n        /* \"#utility.yul\":686:703   */\n      add\n        /* \"#utility.yul\":682:709   */\n      slt\n        /* \"#utility.yul\":672:794   */\n      tag_150\n      jumpi\n        /* \"#utility.yul\":713:792   */\n      tag_151\n      tag_152\n      jump\t// in\n    tag_151:\n        /* \"#utility.yul\":672:794   */\n    tag_150:\n        /* \"#utility.yul\":830:836   */\n      dup2\n        /* \"#utility.yul\":817:837   */\n      calldataload\n        /* \"#utility.yul\":855:934   */\n      tag_153\n        /* \"#utility.yul\":930:933   */\n      dup5\n        /* \"#utility.yul\":922:928   */\n      dup3\n        /* \"#utility.yul\":915:919   */\n      0x20\n        /* \"#utility.yul\":907:913   */\n      dup7\n        /* \"#utility.yul\":903:920   */\n      add\n        /* \"#utility.yul\":855:934   */\n      tag_133\n      jump\t// in\n    tag_153:\n        /* \"#utility.yul\":846:934   */\n      swap2\n      pop\n        /* \"#utility.yul\":662:940   */\n      pop\n        /* \"#utility.yul\":600:940   */\n      swap3\n      swap2\n      pop\n      pop\n      jump\t// out\n        /* \"#utility.yul\":946:1085   */\n    tag_154:\n        /* \"#utility.yul\":992:997   */\n      0x00\n        /* \"#utility.yul\":1030:1036   */\n      dup2\n        /* \"#utility.yul\":1017:1037   */\n      calldataload\n        /* \"#utility.yul\":1008:1037   */\n      swap1\n      pop\n        /* \"#utility.yul\":1046:1079   */\n      tag_156\n        /* \"#utility.yul\":1073:1078   */\n      dup2\n        /* \"#utility.yul\":1046:1079   */\n      tag_157\n      jump\t// in\n    tag_156:\n        /* \"#utility.yul\":946:1085   */\n      swap3\n      swap2\n      pop\n      pop\n      jump\t// out\n        /* \"#utility.yul\":1091:2524   */\n    tag_36:\n        /* \"#utility.yul\":1223:1229   */\n      0x00\n        /* \"#utility.yul\":1231:1237   */\n      dup1\n        /* \"#utility.yul\":1239:1245   */\n      0x00\n        /* \"#utility.yul\":1247:1253   */\n      dup1\n        /* \"#utility.yul\":1255:1261   */\n      0x00\n        /* \"#utility.yul\":1263:1269   */\n      dup1\n        /* \"#utility.yul\":1312:1315   */\n      0xc0\n        /* \"#utility.yul\":1300:1309   */\n      dup8\n        /* \"#utility.yul\":1291:1298   */\n      dup10\n        /* \"#utility.yul\":1287:1310   */\n      sub\n        /* \"#utility.yul\":1283:1316   */\n      slt\n        /* \"#utility.yul\":1280:1400   */\n      iszero\n      tag_159\n      jumpi\n        /* \"#utility.yul\":1319:1398   */\n      tag_160\n      tag_161\n      jump\t// in\n    tag_160:\n        /* \"#utility.yul\":1280:1400   */\n    tag_159:\n        /* \"#utility.yul\":1467:1468   */\n      0x00\n        /* \"#utility.yul\":1456:1465   */\n      dup8\n        /* \"#utility.yul\":1452:1469   */\n      add\n        /* \"#utility.yul\":1439:1470   */\n      calldataload\n        /* \"#utility.yul\":1497:1515   */\n      0xffffffffffffffff\n        /* \"#utility.yul\":1489:1495   */\n      dup2\n        /* \"#utility.yul\":1486:1516   */\n      gt\n        /* \"#utility.yul\":1483:1600   */\n      iszero\n      tag_162\n      jumpi\n        /* \"#utility.yul\":1519:1598   */\n      tag_163\n      tag_164\n      jump\t// in\n    tag_163:\n        /* \"#utility.yul\":1483:1600   */\n    tag_162:\n        /* \"#utility.yul\":1624:1687   */\n      tag_165\n        /* \"#utility.yul\":1679:1686   */\n      dup10\n        /* \"#utility.yul\":1670:1676   */\n      dup3\n        /* \"#utility.yul\":1659:1668   */\n      dup11\n        /* \"#utility.yul\":1655:1677   */\n      add\n        /* \"#utility.yul\":1624:1687   */\n      tag_148\n      jump\t// in\n    tag_165:\n        /* \"#utility.yul\":1614:1687   */\n      swap7\n      pop\n        /* \"#utility.yul\":1410:1697   */\n      pop\n        /* \"#utility.yul\":1764:1766   */\n      0x20\n        /* \"#utility.yul\":1753:1762   */\n      dup8\n        /* \"#utility.yul\":1749:1767   */\n      add\n        /* \"#utility.yul\":1736:1768   */\n      calldataload\n        /* \"#utility.yul\":1795:1813   */\n      0xffffffffffffffff\n        /* \"#utility.yul\":1787:1793   */\n      dup2\n        /* \"#utility.yul\":1784:1814   */\n      gt\n        /* \"#utility.yul\":1781:1898   */\n      iszero\n      tag_166\n      jumpi\n        /* \"#utility.yul\":1817:1896   */\n      tag_167\n      tag_164\n      jump\t// in\n    tag_167:\n        /* \"#utility.yul\":1781:1898   */\n    tag_166:\n        /* \"#utility.yul\":1922:1985   */\n      tag_168\n        /* \"#utility.yul\":1977:1984   */\n      dup10\n        /* \"#utility.yul\":1968:1974   */\n      dup3\n        /* \"#utility.yul\":1957:1966   */\n      dup11\n        /* \"#utility.yul\":1953:1975   */\n      add\n        /* \"#utility.yul\":1922:1985   */\n      tag_148\n      jump\t// in\n    tag_168:\n        /* \"#utility.yul\":1912:1985   */\n      swap6\n      pop\n        /* \"#utility.yul\":1707:1995   */\n      pop\n        /* \"#utility.yul\":2034:2036   */\n      0x40\n        /* \"#utility.yul\":2060:2113   */\n      tag_169\n        /* \"#utility.yul\":2105:2112   */\n      dup10\n        /* \"#utility.yul\":2096:2102   */\n      dup3\n        /* \"#utility.yul\":2085:2094   */\n      dup11\n        /* \"#utility.yul\":2081:2103   */\n      add\n        /* \"#utility.yul\":2060:2113   */\n      tag_154\n      jump\t// in\n    tag_169:\n        /* \"#utility.yul\":2050:2113   */\n      swap5\n      pop\n        /* \"#utility.yul\":2005:2123   */\n      pop\n        /* \"#utility.yul\":2162:2164   */\n      0x60\n        /* \"#utility.yul\":2188:2241   */\n      tag_170\n        /* \"#utility.yul\":2233:2240   */\n      dup10\n        /* \"#utility.yul\":2224:2230   */\n      dup3\n        /* \"#utility.yul\":2213:2222   */\n      dup11\n        /* \"#utility.yul\":2209:2231   */\n      add\n        /* \"#utility.yul\":2188:2241   */\n      tag_154\n      jump\t// in\n    tag_170:\n        /* \"#utility.yul\":2178:2241   */\n      swap4\n      pop\n        /* \"#utility.yul\":2133:2251   */\n      pop\n        /* \"#utility.yul\":2290:2293   */\n      0x80\n        /* \"#utility.yul\":2317:2370   */\n      tag_171\n        /* \"#utility.yul\":2362:2369   */\n      dup10\n        /* \"#utility.yul\":2353:2359   */\n      dup3\n        /* \"#utility.yul\":2342:2351   */\n      dup11\n        /* \"#utility.yul\":2338:2360   */\n      add\n        /* \"#utility.yul\":2317:2370   */\n      tag_154\n      jump\t// in\n    tag_171:\n        /* \"#utility.yul\":2307:2370   */\n      swap3\n      pop\n        /* \"#utility.yul\":2261:2380   */\n      pop\n        /* \"#utility.yul\":2419:2422   */\n      0xa0\n        /* \"#utility.yul\":2446:2507   */\n      tag_172\n        /* \"#utility.yul\":2499:2506   */\n      dup10\n        /* \"#utility.yul\":2490:2496   */\n      dup3\n        /* \"#utility.yul\":2479:2488   */\n      dup11\n        /* \"#utility.yul\":2475:2497   */\n      add\n        /* \"#utility.yul\":2446:2507   */\n      tag_144\n      jump\t// in\n    tag_172:\n        /* \"#utility.yul\":2436:2507   */\n      swap2\n      pop\n        /* \"#utility.yul\":2390:2517   */\n      pop\n        /* \"#utility.yul\":1091:2524   */\n      swap3\n      swap6\n      pop\n      swap3\n      swap6\n      pop\n      swap3\n      swap6\n      jump\t// out\n        /* \"#utility.yul\":2530:2859   */\n    tag_17:\n        /* \"#utility.yul\":2589:2595   */\n      0x00\n        /* \"#utility.yul\":2638:2640   */\n      0x20\n        /* \"#utility.yul\":2626:2635   */\n      dup3\n        /* \"#utility.yul\":2617:2624   */\n      dup5\n        /* \"#utility.yul\":2613:2636   */\n      sub\n        /* \"#utility.yul\":2609:2641   */\n      slt\n        /* \"#utility.yul\":2606:2725   */\n      iszero\n      tag_174\n      jumpi\n        /* \"#utility.yul\":2644:2723   */\n      tag_175\n      tag_161\n      jump\t// in\n    tag_175:\n        /* \"#utility.yul\":2606:2725   */\n    tag_174:\n        /* \"#utility.yul\":2764:2765   */\n      0x00\n        /* \"#utility.yul\":2789:2842   */\n      tag_176\n        /* \"#utility.yul\":2834:2841   */\n      dup5\n        /* \"#utility.yul\":2825:2831   */\n      dup3\n        /* \"#utility.yul\":2814:2823   */\n      dup6\n        /* \"#utility.yul\":2810:2832   */\n      add\n        /* \"#utility.yul\":2789:2842   */\n      tag_154\n      jump\t// in\n    tag_176:\n        /* \"#utility.yul\":2779:2842   */\n      swap2\n      pop\n        /* \"#utility.yul\":2735:2852   */\n      pop\n        /* \"#utility.yul\":2530:2859   */\n      swap3\n      swap2\n      pop\n      pop\n      jump\t// out\n        /* \"#utility.yul\":2865:3339   */\n    tag_13:\n        /* \"#utility.yul\":2933:2939   */\n      0x00\n        /* \"#utility.yul\":2941:2947   */\n      dup1\n        /* \"#utility.yul\":2990:2992   */\n      0x40\n        /* \"#utility.yul\":2978:2987   */\n      dup4\n        /* \"#utility.yul\":2969:2976   */\n      dup6\n        /* \"#utility.yul\":2965:2988   */\n      sub\n        /* \"#utility.yul\":2961:2993   */\n      slt\n        /* \"#utility.yul\":2958:3077   */\n      iszero\n      tag_178\n      jumpi\n        /* \"#utility.yul\":2996:3075   */\n      tag_179\n      tag_161\n      jump\t// in\n    tag_179:\n        /* \"#utility.yul\":2958:3077   */\n    tag_178:\n        /* \"#utility.yul\":3116:3117   */\n      0x00\n        /* \"#utility.yul\":3141:3194   */\n      tag_180\n        /* \"#utility.yul\":3186:3193   */\n      dup6\n        /* \"#utility.yul\":3177:3183   */\n      dup3\n        /* \"#utility.yul\":3166:3175   */\n      dup7\n        /* \"#utility.yul\":3162:3184   */\n      add\n        /* \"#utility.yul\":3141:3194   */\n      tag_154\n      jump\t// in\n    tag_180:\n        /* \"#utility.yul\":3131:3194   */\n      swap3\n      pop\n        /* \"#utility.yul\":3087:3204   */\n      pop\n        /* \"#utility.yul\":3243:3245   */\n      0x20\n        /* \"#utility.yul\":3269:3322   */\n      tag_181\n        /* \"#utility.yul\":3314:3321   */\n      dup6\n        /* \"#utility.yul\":3305:3311   */\n      dup3\n        /* \"#utility.yul\":3294:3303   */\n      dup7\n        /* \"#utility.yul\":3290:3312   */\n      add\n        /* \"#utility.yul\":3269:3322   */\n      tag_154\n      jump\t// in\n    tag_181:\n        /* \"#utility.yul\":3259:3322   */\n      swap2\n      pop\n        /* \"#utility.yul\":3214:3332   */\n      pop\n        /* \"#utility.yul\":2865:3339   */\n      swap3\n      pop\n      swap3\n      swap1\n      pop\n      jump\t// out\n        /* \"#utility.yul\":3345:3581   */\n    tag_182:\n        /* \"#utility.yul\":3454:3464   */\n      0x00\n        /* \"#utility.yul\":3489:3575   */\n      tag_184\n        /* \"#utility.yul\":3571:3574   */\n      dup4\n        /* \"#utility.yul\":3563:3569   */\n      dup4\n        /* \"#utility.yul\":3489:3575   */\n      tag_185\n      jump\t// in\n    tag_184:\n        /* \"#utility.yul\":3475:3575   */\n      swap1\n      pop\n        /* \"#utility.yul\":3345:3581   */\n      swap3\n      swap2\n      pop\n      pop\n      jump\t// out\n        /* \"#utility.yul\":3587:3870   */\n    tag_186:\n        /* \"#utility.yul\":3708:3718   */\n      0x00\n        /* \"#utility.yul\":3729:3827   */\n      tag_188\n        /* \"#utility.yul\":3823:3826   */\n      dup4\n        /* \"#utility.yul\":3815:3821   */\n      dup4\n        /* \"#utility.yul\":3729:3827   */\n      tag_189\n      jump\t// in\n    tag_188:\n        /* \"#utility.yul\":3859:3863   */\n      0xa0\n        /* \"#utility.yul\":3854:3857   */\n      dup4\n        /* \"#utility.yul\":3850:3864   */\n      add\n        /* \"#utility.yul\":3836:3864   */\n      swap1\n      pop\n        /* \"#utility.yul\":3587:3870   */\n      swap3\n      swap2\n      pop\n      pop\n      jump\t// out\n        /* \"#utility.yul\":3876:4008   */\n    tag_190:\n        /* \"#utility.yul\":3969:4001   */\n      tag_192\n        /* \"#utility.yul\":3995:4000   */\n      dup2\n        /* \"#utility.yul\":3969:4001   */\n      tag_193\n      jump\t// in\n    tag_192:\n        /* \"#utility.yul\":3964:3967   */\n      dup3\n        /* \"#utility.yul\":3957:4002   */\n      mstore\n        /* \"#utility.yul\":3876:4008   */\n      pop\n      pop\n      jump\t// out\n        /* \"#utility.yul\":4014:4122   */\n    tag_194:\n        /* \"#utility.yul\":4091:4115   */\n      tag_196\n        /* \"#utility.yul\":4109:4114   */\n      dup2\n        /* \"#utility.yul\":4091:4115   */\n      tag_197\n      jump\t// in\n    tag_196:\n        /* \"#utility.yul\":4086:4089   */\n      dup3\n        /* \"#utility.yul\":4079:4116   */\n      mstore\n        /* \"#utility.yul\":4014:4122   */\n      pop\n      pop\n      jump\t// out\n        /* \"#utility.yul\":4128:4246   */\n    tag_198:\n        /* \"#utility.yul\":4215:4239   */\n      tag_200\n        /* \"#utility.yul\":4233:4238   */\n      dup2\n        /* \"#utility.yul\":4215:4239   */\n      tag_197\n      jump\t// in\n    tag_200:\n        /* \"#utility.yul\":4210:4213   */\n      dup3\n        /* \"#utility.yul\":4203:4240   */\n      mstore\n        /* \"#utility.yul\":4128:4246   */\n      pop\n      pop\n      jump\t// out\n        /* \"#utility.yul\":4316:5387   */\n    tag_201:\n        /* \"#utility.yul\":4475:4478   */\n      0x00\n        /* \"#utility.yul\":4504:4578   */\n      tag_203\n        /* \"#utility.yul\":4572:4577   */\n      dup3\n        /* \"#utility.yul\":4504:4578   */\n      tag_204\n      jump\t// in\n    tag_203:\n        /* \"#utility.yul\":4594:4700   */\n      tag_205\n        /* \"#utility.yul\":4693:4699   */\n      dup2\n        /* \"#utility.yul\":4688:4691   */\n      dup6\n        /* \"#utility.yul\":4594:4700   */\n      tag_206\n      jump\t// in\n    tag_205:\n        /* \"#utility.yul\":4587:4700   */\n      swap4\n      pop\n        /* \"#utility.yul\":4726:4729   */\n      dup4\n        /* \"#utility.yul\":4771:4775   */\n      0x20\n        /* \"#utility.yul\":4763:4769   */\n      dup3\n        /* \"#utility.yul\":4759:4776   */\n      mul\n        /* \"#utility.yul\":4754:4757   */\n      dup6\n        /* \"#utility.yul\":4750:4777   */\n      add\n        /* \"#utility.yul\":4801:4877   */\n      tag_207\n        /* \"#utility.yul\":4871:4876   */\n      dup6\n        /* \"#utility.yul\":4801:4877   */\n      tag_208\n      jump\t// in\n    tag_207:\n        /* \"#utility.yul\":4900:4907   */\n      dup1\n        /* \"#utility.yul\":4931:4932   */\n      0x00\n        /* \"#utility.yul\":4916:5342   */\n    tag_209:\n        /* \"#utility.yul\":4941:4947   */\n      dup6\n        /* \"#utility.yul\":4938:4939   */\n      dup2\n        /* \"#utility.yul\":4935:4948   */\n      lt\n        /* \"#utility.yul\":4916:5342   */\n      iszero\n      tag_211\n      jumpi\n        /* \"#utility.yul\":5012:5021   */\n      dup5\n        /* \"#utility.yul\":5006:5010   */\n      dup5\n        /* \"#utility.yul\":5002:5022   */\n      sub\n        /* \"#utility.yul\":4997:5000   */\n      dup10\n        /* \"#utility.yul\":4990:5023   */\n      mstore\n        /* \"#utility.yul\":5063:5069   */\n      dup2\n        /* \"#utility.yul\":5057:5070   */\n      mload\n        /* \"#utility.yul\":5091:5195   */\n      tag_212\n        /* \"#utility.yul\":5190:5194   */\n      dup6\n        /* \"#utility.yul\":5175:5188   */\n      dup3\n        /* \"#utility.yul\":5091:5195   */\n      tag_182\n      jump\t// in\n    tag_212:\n        /* \"#utility.yul\":5083:5195   */\n      swap5\n      pop\n        /* \"#utility.yul\":5218:5298   */\n      tag_213\n        /* \"#utility.yul\":5291:5297   */\n      dup4\n        /* \"#utility.yul\":5218:5298   */\n      tag_214\n      jump\t// in\n    tag_213:\n        /* \"#utility.yul\":5208:5298   */\n      swap3\n      pop\n        /* \"#utility.yul\":5327:5331   */\n      0x20\n        /* \"#utility.yul\":5322:5325   */\n      dup11\n        /* \"#utility.yul\":5318:5332   */\n      add\n        /* \"#utility.yul\":5311:5332   */\n      swap10\n      pop\n        /* \"#utility.yul\":4976:5342   */\n      pop\n        /* \"#utility.yul\":4963:4964   */\n      0x01\n        /* \"#utility.yul\":4960:4961   */\n      dup2\n        /* \"#utility.yul\":4956:4965   */\n      add\n        /* \"#utility.yul\":4951:4965   */\n      swap1\n      pop\n        /* \"#utility.yul\":4916:5342   */\n      jump(tag_209)\n    tag_211:\n        /* \"#utility.yul\":4920:4934   */\n      pop\n        /* \"#utility.yul\":5358:5362   */\n      dup3\n        /* \"#utility.yul\":5351:5362   */\n      swap8\n      pop\n        /* \"#utility.yul\":5378:5381   */\n      dup8\n        /* \"#utility.yul\":5371:5381   */\n      swap6\n      pop\n        /* \"#utility.yul\":4480:5387   */\n      pop\n      pop\n      pop\n      pop\n      pop\n        /* \"#utility.yul\":4316:5387   */\n      swap3\n      swap2\n      pop\n      pop\n      jump\t// out\n        /* \"#utility.yul\":5469:6409   */\n    tag_215:\n        /* \"#utility.yul\":5640:5643   */\n      0x00\n        /* \"#utility.yul\":5669:5749   */\n      tag_217\n        /* \"#utility.yul\":5743:5748   */\n      dup3\n        /* \"#utility.yul\":5669:5749   */\n      tag_218\n      jump\t// in\n    tag_217:\n        /* \"#utility.yul\":5765:5877   */\n      tag_219\n        /* \"#utility.yul\":5870:5876   */\n      dup2\n        /* \"#utility.yul\":5865:5868   */\n      dup6\n        /* \"#utility.yul\":5765:5877   */\n      tag_220\n      jump\t// in\n    tag_219:\n        /* \"#utility.yul\":5758:5877   */\n      swap4\n      pop\n        /* \"#utility.yul\":5901:5983   */\n      tag_221\n        /* \"#utility.yul\":5977:5982   */\n      dup4\n        /* \"#utility.yul\":5901:5983   */\n      tag_222\n      jump\t// in\n    tag_221:\n        /* \"#utility.yul\":6006:6013   */\n      dup1\n        /* \"#utility.yul\":6037:6038   */\n      0x00\n        /* \"#utility.yul\":6022:6384   */\n    tag_223:\n        /* \"#utility.yul\":6047:6053   */\n      dup4\n        /* \"#utility.yul\":6044:6045   */\n      dup2\n        /* \"#utility.yul\":6041:6054   */\n      lt\n        /* \"#utility.yul\":6022:6384   */\n      iszero\n      tag_225\n      jumpi\n        /* \"#utility.yul\":6123:6129   */\n      dup2\n        /* \"#utility.yul\":6117:6130   */\n      mload\n        /* \"#utility.yul\":6150:6265   */\n      tag_226\n        /* \"#utility.yul\":6261:6264   */\n      dup9\n        /* \"#utility.yul\":6246:6259   */\n      dup3\n        /* \"#utility.yul\":6150:6265   */\n      tag_186\n      jump\t// in\n    tag_226:\n        /* \"#utility.yul\":6143:6265   */\n      swap8\n      pop\n        /* \"#utility.yul\":6288:6374   */\n      tag_227\n        /* \"#utility.yul\":6367:6373   */\n      dup4\n        /* \"#utility.yul\":6288:6374   */\n      tag_228\n      jump\t// in\n    tag_227:\n        /* \"#utility.yul\":6278:6374   */\n      swap3\n      pop\n        /* \"#utility.yul\":6082:6384   */\n      pop\n        /* \"#utility.yul\":6069:6070   */\n      0x01\n        /* \"#utility.yul\":6066:6067   */\n      dup2\n        /* \"#utility.yul\":6062:6071   */\n      add\n        /* \"#utility.yul\":6057:6071   */\n      swap1\n      pop\n        /* \"#utility.yul\":6022:6384   */\n      jump(tag_223)\n    tag_225:\n        /* \"#utility.yul\":6026:6040   */\n      pop\n        /* \"#utility.yul\":6400:6403   */\n      dup6\n        /* \"#utility.yul\":6393:6403   */\n      swap4\n      pop\n        /* \"#utility.yul\":5645:6409   */\n      pop\n      pop\n      pop\n        /* \"#utility.yul\":5469:6409   */\n      swap3\n      swap2\n      pop\n      pop\n      jump\t// out\n        /* \"#utility.yul\":6415:6514   */\n    tag_229:\n        /* \"#utility.yul\":6486:6507   */\n      tag_231\n        /* \"#utility.yul\":6501:6506   */\n      dup2\n        /* \"#utility.yul\":6486:6507   */\n      tag_232\n      jump\t// in\n    tag_231:\n        /* \"#utility.yul\":6481:6484   */\n      dup3\n        /* \"#utility.yul\":6474:6508   */\n      mstore\n        /* \"#utility.yul\":6415:6514   */\n      pop\n      pop\n      jump\t// out\n        /* \"#utility.yul\":6520:6864   */\n    tag_233:\n        /* \"#utility.yul\":6598:6601   */\n      0x00\n        /* \"#utility.yul\":6626:6665   */\n      tag_235\n        /* \"#utility.yul\":6659:6664   */\n      dup3\n        /* \"#utility.yul\":6626:6665   */\n      tag_236\n      jump\t// in\n    tag_235:\n        /* \"#utility.yul\":6681:6742   */\n      tag_237\n        /* \"#utility.yul\":6735:6741   */\n      dup2\n        /* \"#utility.yul\":6730:6733   */\n      dup6\n        /* \"#utility.yul\":6681:6742   */\n      tag_238\n      jump\t// in\n    tag_237:\n        /* \"#utility.yul\":6674:6742   */\n      swap4\n      pop\n        /* \"#utility.yul\":6751:6803   */\n      tag_239\n        /* \"#utility.yul\":6796:6802   */\n      dup2\n        /* \"#utility.yul\":6791:6794   */\n      dup6\n        /* \"#utility.yul\":6784:6788   */\n      0x20\n        /* \"#utility.yul\":6777:6782   */\n      dup7\n        /* \"#utility.yul\":6773:6789   */\n      add\n        /* \"#utility.yul\":6751:6803   */\n      tag_240\n      jump\t// in\n    tag_239:\n        /* \"#utility.yul\":6828:6857   */\n      tag_241\n        /* \"#utility.yul\":6850:6856   */\n      dup2\n        /* \"#utility.yul\":6828:6857   */\n      tag_242\n      jump\t// in\n    tag_241:\n        /* \"#utility.yul\":6823:6826   */\n      dup5\n        /* \"#utility.yul\":6819:6858   */\n      add\n        /* \"#utility.yul\":6812:6858   */\n      swap2\n      pop\n        /* \"#utility.yul\":6602:6864   */\n      pop\n        /* \"#utility.yul\":6520:6864   */\n      swap3\n      swap2\n      pop\n      pop\n      jump\t// out\n        /* \"#utility.yul\":6870:7236   */\n    tag_243:\n        /* \"#utility.yul\":7012:7015   */\n      0x00\n        /* \"#utility.yul\":7033:7100   */\n      tag_245\n        /* \"#utility.yul\":7097:7099   */\n      0x35\n        /* \"#utility.yul\":7092:7095   */\n      dup4\n        /* \"#utility.yul\":7033:7100   */\n      tag_246\n      jump\t// in\n    tag_245:\n        /* \"#utility.yul\":7026:7100   */\n      swap2\n      pop\n        /* \"#utility.yul\":7109:7202   */\n      tag_247\n        /* \"#utility.yul\":7198:7201   */\n      dup3\n        /* \"#utility.yul\":7109:7202   */\n      tag_248\n      jump\t// in\n    tag_247:\n        /* \"#utility.yul\":7227:7229   */\n      0x40\n        /* \"#utility.yul\":7222:7225   */\n      dup3\n        /* \"#utility.yul\":7218:7230   */\n      add\n        /* \"#utility.yul\":7211:7230   */\n      swap1\n      pop\n        /* \"#utility.yul\":6870:7236   */\n      swap2\n      swap1\n      pop\n      jump\t// out\n        /* \"#utility.yul\":7242:7608   */\n    tag_249:\n        /* \"#utility.yul\":7384:7387   */\n      0x00\n        /* \"#utility.yul\":7405:7472   */\n      tag_251\n        /* \"#utility.yul\":7469:7471   */\n      0x39\n        /* \"#utility.yul\":7464:7467   */\n      dup4\n        /* \"#utility.yul\":7405:7472   */\n      tag_246\n      jump\t// in\n    tag_251:\n        /* \"#utility.yul\":7398:7472   */\n      swap2\n      pop\n        /* \"#utility.yul\":7481:7574   */\n      tag_252\n        /* \"#utility.yul\":7570:7573   */\n      dup3\n        /* \"#utility.yul\":7481:7574   */\n      tag_253\n      jump\t// in\n    tag_252:\n        /* \"#utility.yul\":7599:7601   */\n      0x40\n        /* \"#utility.yul\":7594:7597   */\n      dup3\n        /* \"#utility.yul\":7590:7602   */\n      add\n        /* \"#utility.yul\":7583:7602   */\n      swap1\n      pop\n        /* \"#utility.yul\":7242:7608   */\n      swap2\n      swap1\n      pop\n      jump\t// out\n        /* \"#utility.yul\":7614:7980   */\n    tag_254:\n        /* \"#utility.yul\":7756:7759   */\n      0x00\n        /* \"#utility.yul\":7777:7844   */\n      tag_256\n        /* \"#utility.yul\":7841:7843   */\n      0x0f\n        /* \"#utility.yul\":7836:7839   */\n      dup4\n        /* \"#utility.yul\":7777:7844   */\n      tag_246\n      jump\t// in\n    tag_256:\n        /* \"#utility.yul\":7770:7844   */\n      swap2\n      pop\n        /* \"#utility.yul\":7853:7946   */\n      tag_257\n        /* \"#utility.yul\":7942:7945   */\n      dup3\n        /* \"#utility.yul\":7853:7946   */\n      tag_258\n      jump\t// in\n    tag_257:\n        /* \"#utility.yul\":7971:7973   */\n      0x20\n        /* \"#utility.yul\":7966:7969   */\n      dup3\n        /* \"#utility.yul\":7962:7974   */\n      add\n        /* \"#utility.yul\":7955:7974   */\n      swap1\n      pop\n        /* \"#utility.yul\":7614:7980   */\n      swap2\n      swap1\n      pop\n      jump\t// out\n        /* \"#utility.yul\":7986:8352   */\n    tag_259:\n        /* \"#utility.yul\":8128:8131   */\n      0x00\n        /* \"#utility.yul\":8149:8216   */\n      tag_261\n        /* \"#utility.yul\":8213:8215   */\n      0x2e\n        /* \"#utility.yul\":8208:8211   */\n      dup4\n        /* \"#utility.yul\":8149:8216   */\n      tag_246\n      jump\t// in\n    tag_261:\n        /* \"#utility.yul\":8142:8216   */\n      swap2\n      pop\n        /* \"#utility.yul\":8225:8318   */\n      tag_262\n        /* \"#utility.yul\":8314:8317   */\n      dup3\n        /* \"#utility.yul\":8225:8318   */\n      tag_263\n      jump\t// in\n    tag_262:\n        /* \"#utility.yul\":8343:8345   */\n      0x40\n        /* \"#utility.yul\":8338:8341   */\n      dup3\n        /* \"#utility.yul\":8334:8346   */\n      add\n        /* \"#utility.yul\":8327:8346   */\n      swap1\n      pop\n        /* \"#utility.yul\":7986:8352   */\n      swap2\n      swap1\n      pop\n      jump\t// out\n        /* \"#utility.yul\":8418:10352   */\n    tag_185:\n        /* \"#utility.yul\":8517:8520   */\n      0x00\n        /* \"#utility.yul\":8553:8559   */\n      0x0120\n        /* \"#utility.yul\":8548:8551   */\n      dup4\n        /* \"#utility.yul\":8544:8560   */\n      add\n        /* \"#utility.yul\":8640:8644   */\n      0x00\n        /* \"#utility.yul\":8633:8638   */\n      dup4\n        /* \"#utility.yul\":8629:8645   */\n      add\n        /* \"#utility.yul\":8623:8646   */\n      mload\n        /* \"#utility.yul\":8659:8722   */\n      tag_265\n        /* \"#utility.yul\":8716:8720   */\n      0x00\n        /* \"#utility.yul\":8711:8714   */\n      dup7\n        /* \"#utility.yul\":8707:8721   */\n      add\n        /* \"#utility.yul\":8693:8705   */\n      dup3\n        /* \"#utility.yul\":8659:8722   */\n      tag_266\n      jump\t// in\n    tag_265:\n        /* \"#utility.yul\":8570:8732   */\n      pop\n        /* \"#utility.yul\":8814:8818   */\n      0x20\n        /* \"#utility.yul\":8807:8812   */\n      dup4\n        /* \"#utility.yul\":8803:8819   */\n      add\n        /* \"#utility.yul\":8797:8820   */\n      mload\n        /* \"#utility.yul\":8867:8870   */\n      dup5\n        /* \"#utility.yul\":8861:8865   */\n      dup3\n        /* \"#utility.yul\":8857:8871   */\n      sub\n        /* \"#utility.yul\":8850:8854   */\n      0x20\n        /* \"#utility.yul\":8845:8848   */\n      dup7\n        /* \"#utility.yul\":8841:8855   */\n      add\n        /* \"#utility.yul\":8834:8872   */\n      mstore\n        /* \"#utility.yul\":8893:8966   */\n      tag_267\n        /* \"#utility.yul\":8961:8965   */\n      dup3\n        /* \"#utility.yul\":8947:8959   */\n      dup3\n        /* \"#utility.yul\":8893:8966   */\n      tag_233\n      jump\t// in\n    tag_267:\n        /* \"#utility.yul\":8885:8966   */\n      swap2\n      pop\n        /* \"#utility.yul\":8742:8977   */\n      pop\n        /* \"#utility.yul\":9066:9070   */\n      0x40\n        /* \"#utility.yul\":9059:9064   */\n      dup4\n        /* \"#utility.yul\":9055:9071   */\n      add\n        /* \"#utility.yul\":9049:9072   */\n      mload\n        /* \"#utility.yul\":9119:9122   */\n      dup5\n        /* \"#utility.yul\":9113:9117   */\n      dup3\n        /* \"#utility.yul\":9109:9123   */\n      sub\n        /* \"#utility.yul\":9102:9106   */\n      0x40\n        /* \"#utility.yul\":9097:9100   */\n      dup7\n        /* \"#utility.yul\":9093:9107   */\n      add\n        /* \"#utility.yul\":9086:9124   */\n      mstore\n        /* \"#utility.yul\":9145:9218   */\n      tag_268\n        /* \"#utility.yul\":9213:9217   */\n      dup3\n        /* \"#utility.yul\":9199:9211   */\n      dup3\n        /* \"#utility.yul\":9145:9218   */\n      tag_233\n      jump\t// in\n    tag_268:\n        /* \"#utility.yul\":9137:9218   */\n      swap2\n      pop\n        /* \"#utility.yul\":8987:9229   */\n      pop\n        /* \"#utility.yul\":9316:9320   */\n      0x60\n        /* \"#utility.yul\":9309:9314   */\n      dup4\n        /* \"#utility.yul\":9305:9321   */\n      add\n        /* \"#utility.yul\":9299:9322   */\n      mload\n        /* \"#utility.yul\":9335:9398   */\n      tag_269\n        /* \"#utility.yul\":9392:9396   */\n      0x60\n        /* \"#utility.yul\":9387:9390   */\n      dup7\n        /* \"#utility.yul\":9383:9397   */\n      add\n        /* \"#utility.yul\":9369:9381   */\n      dup3\n        /* \"#utility.yul\":9335:9398   */\n      tag_266\n      jump\t// in\n    tag_269:\n        /* \"#utility.yul\":9239:9408   */\n      pop\n        /* \"#utility.yul\":9493:9497   */\n      0x80\n        /* \"#utility.yul\":9486:9491   */\n      dup4\n        /* \"#utility.yul\":9482:9498   */\n      add\n        /* \"#utility.yul\":9476:9499   */\n      mload\n        /* \"#utility.yul\":9512:9575   */\n      tag_270\n        /* \"#utility.yul\":9569:9573   */\n      0x80\n        /* \"#utility.yul\":9564:9567   */\n      dup7\n        /* \"#utility.yul\":9560:9574   */\n      add\n        /* \"#utility.yul\":9546:9558   */\n      dup3\n        /* \"#utility.yul\":9512:9575   */\n      tag_266\n      jump\t// in\n    tag_270:\n        /* \"#utility.yul\":9418:9585   */\n      pop\n        /* \"#utility.yul\":9673:9677   */\n      0xa0\n        /* \"#utility.yul\":9666:9671   */\n      dup4\n        /* \"#utility.yul\":9662:9678   */\n      add\n        /* \"#utility.yul\":9656:9679   */\n      mload\n        /* \"#utility.yul\":9692:9755   */\n      tag_271\n        /* \"#utility.yul\":9749:9753   */\n      0xa0\n        /* \"#utility.yul\":9744:9747   */\n      dup7\n        /* \"#utility.yul\":9740:9754   */\n      add\n        /* \"#utility.yul\":9726:9738   */\n      dup3\n        /* \"#utility.yul\":9692:9755   */\n      tag_266\n      jump\t// in\n    tag_271:\n        /* \"#utility.yul\":9595:9765   */\n      pop\n        /* \"#utility.yul\":9856:9860   */\n      0xc0\n        /* \"#utility.yul\":9849:9854   */\n      dup4\n        /* \"#utility.yul\":9845:9861   */\n      add\n        /* \"#utility.yul\":9839:9862   */\n      mload\n        /* \"#utility.yul\":9875:9938   */\n      tag_272\n        /* \"#utility.yul\":9932:9936   */\n      0xc0\n        /* \"#utility.yul\":9927:9930   */\n      dup7\n        /* \"#utility.yul\":9923:9937   */\n      add\n        /* \"#utility.yul\":9909:9921   */\n      dup3\n        /* \"#utility.yul\":9875:9938   */\n      tag_266\n      jump\t// in\n    tag_272:\n        /* \"#utility.yul\":9775:9948   */\n      pop\n        /* \"#utility.yul\":10034:10038   */\n      0xe0\n        /* \"#utility.yul\":10027:10032   */\n      dup4\n        /* \"#utility.yul\":10023:10039   */\n      add\n        /* \"#utility.yul\":10017:10040   */\n      mload\n        /* \"#utility.yul\":10053:10110   */\n      tag_273\n        /* \"#utility.yul\":10104:10108   */\n      0xe0\n        /* \"#utility.yul\":10099:10102   */\n      dup7\n        /* \"#utility.yul\":10095:10109   */\n      add\n        /* \"#utility.yul\":10081:10093   */\n      dup3\n        /* \"#utility.yul\":10053:10110   */\n      tag_229\n      jump\t// in\n    tag_273:\n        /* \"#utility.yul\":9958:10120   */\n      pop\n        /* \"#utility.yul\":10213:10219   */\n      0x0100\n        /* \"#utility.yul\":10206:10211   */\n      dup4\n        /* \"#utility.yul\":10202:10220   */\n      add\n        /* \"#utility.yul\":10196:10221   */\n      mload\n        /* \"#utility.yul\":10234:10315   */\n      tag_274\n        /* \"#utility.yul\":10307:10313   */\n      0x0100\n        /* \"#utility.yul\":10302:10305   */\n      dup7\n        /* \"#utility.yul\":10298:10314   */\n      add\n        /* \"#utility.yul\":10284:10296   */\n      dup3\n        /* \"#utility.yul\":10234:10315   */\n      tag_190\n      jump\t// in\n    tag_274:\n        /* \"#utility.yul\":10130:10325   */\n      pop\n        /* \"#utility.yul\":10342:10346   */\n      dup1\n        /* \"#utility.yul\":10335:10346   */\n      swap2\n      pop\n        /* \"#utility.yul\":8522:10352   */\n      pop\n        /* \"#utility.yul\":8418:10352   */\n      swap3\n      swap2\n      pop\n      pop\n      jump\t// out\n        /* \"#utility.yul\":10418:12362   */\n    tag_275:\n        /* \"#utility.yul\":10527:10530   */\n      0x00\n        /* \"#utility.yul\":10563:10569   */\n      0x0120\n        /* \"#utility.yul\":10558:10561   */\n      dup4\n        /* \"#utility.yul\":10554:10570   */\n      add\n        /* \"#utility.yul\":10650:10654   */\n      0x00\n        /* \"#utility.yul\":10643:10648   */\n      dup4\n        /* \"#utility.yul\":10639:10655   */\n      add\n        /* \"#utility.yul\":10633:10656   */\n      mload\n        /* \"#utility.yul\":10669:10732   */\n      tag_277\n        /* \"#utility.yul\":10726:10730   */\n      0x00\n        /* \"#utility.yul\":10721:10724   */\n      dup7\n        /* \"#utility.yul\":10717:10731   */\n      add\n        /* \"#utility.yul\":10703:10715   */\n      dup3\n        /* \"#utility.yul\":10669:10732   */\n      tag_266\n      jump\t// in\n    tag_277:\n        /* \"#utility.yul\":10580:10742   */\n      pop\n        /* \"#utility.yul\":10824:10828   */\n      0x20\n        /* \"#utility.yul\":10817:10822   */\n      dup4\n        /* \"#utility.yul\":10813:10829   */\n      add\n        /* \"#utility.yul\":10807:10830   */\n      mload\n        /* \"#utility.yul\":10877:10880   */\n      dup5\n        /* \"#utility.yul\":10871:10875   */\n      dup3\n        /* \"#utility.yul\":10867:10881   */\n      sub\n        /* \"#utility.yul\":10860:10864   */\n      0x20\n        /* \"#utility.yul\":10855:10858   */\n      dup7\n        /* \"#utility.yul\":10851:10865   */\n      add\n        /* \"#utility.yul\":10844:10882   */\n      mstore\n        /* \"#utility.yul\":10903:10976   */\n      tag_278\n        /* \"#utility.yul\":10971:10975   */\n      dup3\n        /* \"#utility.yul\":10957:10969   */\n      dup3\n        /* \"#utility.yul\":10903:10976   */\n      tag_233\n      jump\t// in\n    tag_278:\n        /* \"#utility.yul\":10895:10976   */\n      swap2\n      pop\n        /* \"#utility.yul\":10752:10987   */\n      pop\n        /* \"#utility.yul\":11076:11080   */\n      0x40\n        /* \"#utility.yul\":11069:11074   */\n      dup4\n        /* \"#utility.yul\":11065:11081   */\n      add\n        /* \"#utility.yul\":11059:11082   */\n      mload\n        /* \"#utility.yul\":11129:11132   */\n      dup5\n        /* \"#utility.yul\":11123:11127   */\n      dup3\n        /* \"#utility.yul\":11119:11133   */\n      sub\n        /* \"#utility.yul\":11112:11116   */\n      0x40\n        /* \"#utility.yul\":11107:11110   */\n      dup7\n        /* \"#utility.yul\":11103:11117   */\n      add\n        /* \"#utility.yul\":11096:11134   */\n      mstore\n        /* \"#utility.yul\":11155:11228   */\n      tag_279\n        /* \"#utility.yul\":11223:11227   */\n      dup3\n        /* \"#utility.yul\":11209:11221   */\n      dup3\n        /* \"#utility.yul\":11155:11228   */\n      tag_233\n      jump\t// in\n    tag_279:\n        /* \"#utility.yul\":11147:11228   */\n      swap2\n      pop\n        /* \"#utility.yul\":10997:11239   */\n      pop\n        /* \"#utility.yul\":11326:11330   */\n      0x60\n        /* \"#utility.yul\":11319:11324   */\n      dup4\n        /* \"#utility.yul\":11315:11331   */\n      add\n        /* \"#utility.yul\":11309:11332   */\n      mload\n        /* \"#utility.yul\":11345:11408   */\n      tag_280\n        /* \"#utility.yul\":11402:11406   */\n      0x60\n        /* \"#utility.yul\":11397:11400   */\n      dup7\n        /* \"#utility.yul\":11393:11407   */\n      add\n        /* \"#utility.yul\":11379:11391   */\n      dup3\n        /* \"#utility.yul\":11345:11408   */\n      tag_266\n      jump\t// in\n    tag_280:\n        /* \"#utility.yul\":11249:11418   */\n      pop\n        /* \"#utility.yul\":11503:11507   */\n      0x80\n        /* \"#utility.yul\":11496:11501   */\n      dup4\n        /* \"#utility.yul\":11492:11508   */\n      add\n        /* \"#utility.yul\":11486:11509   */\n      mload\n        /* \"#utility.yul\":11522:11585   */\n      tag_281\n        /* \"#utility.yul\":11579:11583   */\n      0x80\n        /* \"#utility.yul\":11574:11577   */\n      dup7\n        /* \"#utility.yul\":11570:11584   */\n      add\n        /* \"#utility.yul\":11556:11568   */\n      dup3\n        /* \"#utility.yul\":11522:11585   */\n      tag_266\n      jump\t// in\n    tag_281:\n        /* \"#utility.yul\":11428:11595   */\n      pop\n        /* \"#utility.yul\":11683:11687   */\n      0xa0\n        /* \"#utility.yul\":11676:11681   */\n      dup4\n        /* \"#utility.yul\":11672:11688   */\n      add\n        /* \"#utility.yul\":11666:11689   */\n      mload\n        /* \"#utility.yul\":11702:11765   */\n      tag_282\n        /* \"#utility.yul\":11759:11763   */\n      0xa0\n        /* \"#utility.yul\":11754:11757   */\n      dup7\n        /* \"#utility.yul\":11750:11764   */\n      add\n        /* \"#utility.yul\":11736:11748   */\n      dup3\n        /* \"#utility.yul\":11702:11765   */\n      tag_266\n      jump\t// in\n    tag_282:\n        /* \"#utility.yul\":11605:11775   */\n      pop\n        /* \"#utility.yul\":11866:11870   */\n      0xc0\n        /* \"#utility.yul\":11859:11864   */\n      dup4\n        /* \"#utility.yul\":11855:11871   */\n      add\n        /* \"#utility.yul\":11849:11872   */\n      mload\n        /* \"#utility.yul\":11885:11948   */\n      tag_283\n        /* \"#utility.yul\":11942:11946   */\n      0xc0\n        /* \"#utility.yul\":11937:11940   */\n      dup7\n        /* \"#utility.yul\":11933:11947   */\n      add\n        /* \"#utility.yul\":11919:11931   */\n      dup3\n        /* \"#utility.yul\":11885:11948   */\n      tag_266\n      jump\t// in\n    tag_283:\n        /* \"#utility.yul\":11785:11958   */\n      pop\n        /* \"#utility.yul\":12044:12048   */\n      0xe0\n        /* \"#utility.yul\":12037:12042   */\n      dup4\n        /* \"#utility.yul\":12033:12049   */\n      add\n        /* \"#utility.yul\":12027:12050   */\n      mload\n        /* \"#utility.yul\":12063:12120   */\n      tag_284\n        /* \"#utility.yul\":12114:12118   */\n      0xe0\n        /* \"#utility.yul\":12109:12112   */\n      dup7\n        /* \"#utility.yul\":12105:12119   */\n      add\n        /* \"#utility.yul\":12091:12103   */\n      dup3\n        /* \"#utility.yul\":12063:12120   */\n      tag_229\n      jump\t// in\n    tag_284:\n        /* \"#utility.yul\":11968:12130   */\n      pop\n        /* \"#utility.yul\":12223:12229   */\n      0x0100\n        /* \"#utility.yul\":12216:12221   */\n      dup4\n        /* \"#utility.yul\":12212:12230   */\n      add\n        /* \"#utility.yul\":12206:12231   */\n      mload\n        /* \"#utility.yul\":12244:12325   */\n      tag_285\n        /* \"#utility.yul\":12317:12323   */\n      0x0100\n        /* \"#utility.yul\":12312:12315   */\n      dup7\n        /* \"#utility.yul\":12308:12324   */\n      add\n        /* \"#utility.yul\":12294:12306   */\n      dup3\n        /* \"#utility.yul\":12244:12325   */\n      tag_190\n      jump\t// in\n    tag_285:\n        /* \"#utility.yul\":12140:12335   */\n      pop\n        /* \"#utility.yul\":12352:12356   */\n      dup1\n        /* \"#utility.yul\":12345:12356   */\n      swap2\n      pop\n        /* \"#utility.yul\":10532:12362   */\n      pop\n        /* \"#utility.yul\":10418:12362   */\n      swap3\n      swap2\n      pop\n      pop\n      jump\t// out\n        /* \"#utility.yul\":12440:13492   */\n    tag_189:\n        /* \"#utility.yul\":12579:12583   */\n      0xa0\n        /* \"#utility.yul\":12574:12577   */\n      dup3\n        /* \"#utility.yul\":12570:12584   */\n      add\n        /* \"#utility.yul\":12664:12668   */\n      0x00\n        /* \"#utility.yul\":12657:12662   */\n      dup3\n        /* \"#utility.yul\":12653:12669   */\n      add\n        /* \"#utility.yul\":12647:12670   */\n      mload\n        /* \"#utility.yul\":12683:12746   */\n      tag_287\n        /* \"#utility.yul\":12740:12744   */\n      0x00\n        /* \"#utility.yul\":12735:12738   */\n      dup6\n        /* \"#utility.yul\":12731:12745   */\n      add\n        /* \"#utility.yul\":12717:12729   */\n      dup3\n        /* \"#utility.yul\":12683:12746   */\n      tag_266\n      jump\t// in\n    tag_287:\n        /* \"#utility.yul\":12594:12756   */\n      pop\n        /* \"#utility.yul\":12840:12844   */\n      0x20\n        /* \"#utility.yul\":12833:12838   */\n      dup3\n        /* \"#utility.yul\":12829:12845   */\n      add\n        /* \"#utility.yul\":12823:12846   */\n      mload\n        /* \"#utility.yul\":12859:12922   */\n      tag_288\n        /* \"#utility.yul\":12916:12920   */\n      0x20\n        /* \"#utility.yul\":12911:12914   */\n      dup6\n        /* \"#utility.yul\":12907:12921   */\n      add\n        /* \"#utility.yul\":12893:12905   */\n      dup3\n        /* \"#utility.yul\":12859:12922   */\n      tag_266\n      jump\t// in\n    tag_288:\n        /* \"#utility.yul\":12766:12932   */\n      pop\n        /* \"#utility.yul\":13025:13029   */\n      0x40\n        /* \"#utility.yul\":13018:13023   */\n      dup3\n        /* \"#utility.yul\":13014:13030   */\n      add\n        /* \"#utility.yul\":13008:13031   */\n      mload\n        /* \"#utility.yul\":13044:13107   */\n      tag_289\n        /* \"#utility.yul\":13101:13105   */\n      0x40\n        /* \"#utility.yul\":13096:13099   */\n      dup6\n        /* \"#utility.yul\":13092:13106   */\n      add\n        /* \"#utility.yul\":13078:13090   */\n      dup3\n        /* \"#utility.yul\":13044:13107   */\n      tag_194\n      jump\t// in\n    tag_289:\n        /* \"#utility.yul\":12942:13117   */\n      pop\n        /* \"#utility.yul\":13209:13213   */\n      0x60\n        /* \"#utility.yul\":13202:13207   */\n      dup3\n        /* \"#utility.yul\":13198:13214   */\n      add\n        /* \"#utility.yul\":13192:13215   */\n      mload\n        /* \"#utility.yul\":13228:13291   */\n      tag_290\n        /* \"#utility.yul\":13285:13289   */\n      0x60\n        /* \"#utility.yul\":13280:13283   */\n      dup6\n        /* \"#utility.yul\":13276:13290   */\n      add\n        /* \"#utility.yul\":13262:13274   */\n      dup3\n        /* \"#utility.yul\":13228:13291   */\n      tag_266\n      jump\t// in\n    tag_290:\n        /* \"#utility.yul\":13127:13301   */\n      pop\n        /* \"#utility.yul\":13393:13397   */\n      0x80\n        /* \"#utility.yul\":13386:13391   */\n      dup3\n        /* \"#utility.yul\":13382:13398   */\n      add\n        /* \"#utility.yul\":13376:13399   */\n      mload\n        /* \"#utility.yul\":13412:13475   */\n      tag_291\n        /* \"#utility.yul\":13469:13473   */\n      0x80\n        /* \"#utility.yul\":13464:13467   */\n      dup6\n        /* \"#utility.yul\":13460:13474   */\n      add\n        /* \"#utility.yul\":13446:13458   */\n      dup3\n        /* \"#utility.yul\":13412:13475   */\n      tag_266\n      jump\t// in\n    tag_291:\n        /* \"#utility.yul\":13311:13485   */\n      pop\n        /* \"#utility.yul\":12548:13492   */\n      pop\n        /* \"#utility.yul\":12440:13492   */\n      pop\n      pop\n      jump\t// out\n        /* \"#utility.yul\":13498:13606   */\n    tag_266:\n        /* \"#utility.yul\":13575:13599   */\n      tag_293\n        /* \"#utility.yul\":13593:13598   */\n      dup2\n        /* \"#utility.yul\":13575:13599   */\n      tag_294\n      jump\t// in\n    tag_293:\n        /* \"#utility.yul\":13570:13573   */\n      dup3\n        /* \"#utility.yul\":13563:13600   */\n      mstore\n        /* \"#utility.yul\":13498:13606   */\n      pop\n      pop\n      jump\t// out\n        /* \"#utility.yul\":13612:13834   */\n    tag_33:\n        /* \"#utility.yul\":13705:13709   */\n      0x00\n        /* \"#utility.yul\":13743:13745   */\n      0x20\n        /* \"#utility.yul\":13732:13741   */\n      dup3\n        /* \"#utility.yul\":13728:13746   */\n      add\n        /* \"#utility.yul\":13720:13746   */\n      swap1\n      pop\n        /* \"#utility.yul\":13756:13827   */\n      tag_296\n        /* \"#utility.yul\":13824:13825   */\n      0x00\n        /* \"#utility.yul\":13813:13822   */\n      dup4\n        /* \"#utility.yul\":13809:13826   */\n      add\n        /* \"#utility.yul\":13800:13806   */\n      dup5\n        /* \"#utility.yul\":13756:13827   */\n      tag_198\n      jump\t// in\n    tag_296:\n        /* \"#utility.yul\":13612:13834   */\n      swap3\n      swap2\n      pop\n      pop\n      jump\t// out\n        /* \"#utility.yul\":13840:14293   */\n    tag_24:\n        /* \"#utility.yul\":14023:14027   */\n      0x00\n        /* \"#utility.yul\":14061:14063   */\n      0x20\n        /* \"#utility.yul\":14050:14059   */\n      dup3\n        /* \"#utility.yul\":14046:14064   */\n      add\n        /* \"#utility.yul\":14038:14064   */\n      swap1\n      pop\n        /* \"#utility.yul\":14110:14119   */\n      dup2\n        /* \"#utility.yul\":14104:14108   */\n      dup2\n        /* \"#utility.yul\":14100:14120   */\n      sub\n        /* \"#utility.yul\":14096:14097   */\n      0x00\n        /* \"#utility.yul\":14085:14094   */\n      dup4\n        /* \"#utility.yul\":14081:14098   */\n      add\n        /* \"#utility.yul\":14074:14121   */\n      mstore\n        /* \"#utility.yul\":14138:14286   */\n      tag_298\n        /* \"#utility.yul\":14281:14285   */\n      dup2\n        /* \"#utility.yul\":14272:14278   */\n      dup5\n        /* \"#utility.yul\":14138:14286   */\n      tag_201\n      jump\t// in\n    tag_298:\n        /* \"#utility.yul\":14130:14286   */\n      swap1\n      pop\n        /* \"#utility.yul\":13840:14293   */\n      swap3\n      swap2\n      pop\n      pop\n      jump\t// out\n        /* \"#utility.yul\":14299:14776   */\n    tag_29:\n        /* \"#utility.yul\":14494:14498   */\n      0x00\n        /* \"#utility.yul\":14532:14534   */\n      0x20\n        /* \"#utility.yul\":14521:14530   */\n      dup3\n        /* \"#utility.yul\":14517:14535   */\n      add\n        /* \"#utility.yul\":14509:14535   */\n      swap1\n      pop\n        /* \"#utility.yul\":14581:14590   */\n      dup2\n        /* \"#utility.yul\":14575:14579   */\n      dup2\n        /* \"#utility.yul\":14571:14591   */\n      sub\n        /* \"#utility.yul\":14567:14568   */\n      0x00\n        /* \"#utility.yul\":14556:14565   */\n      dup4\n        /* \"#utility.yul\":14552:14569   */\n      add\n        /* \"#utility.yul\":14545:14592   */\n      mstore\n        /* \"#utility.yul\":14609:14769   */\n      tag_300\n        /* \"#utility.yul\":14764:14768   */\n      dup2\n        /* \"#utility.yul\":14755:14761   */\n      dup5\n        /* \"#utility.yul\":14609:14769   */\n      tag_215\n      jump\t// in\n    tag_300:\n        /* \"#utility.yul\":14601:14769   */\n      swap1\n      pop\n        /* \"#utility.yul\":14299:14776   */\n      swap3\n      swap2\n      pop\n      pop\n      jump\t// out\n        /* \"#utility.yul\":14782:15201   */\n    tag_113:\n        /* \"#utility.yul\":14948:14952   */\n      0x00\n        /* \"#utility.yul\":14986:14988   */\n      0x20\n        /* \"#utility.yul\":14975:14984   */\n      dup3\n        /* \"#utility.yul\":14971:14989   */\n      add\n        /* \"#utility.yul\":14963:14989   */\n      swap1\n      pop\n        /* \"#utility.yul\":15035:15044   */\n      dup2\n        /* \"#utility.yul\":15029:15033   */\n      dup2\n        /* \"#utility.yul\":15025:15045   */\n      sub\n        /* \"#utility.yul\":15021:15022   */\n      0x00\n        /* \"#utility.yul\":15010:15019   */\n      dup4\n        /* \"#utility.yul\":15006:15023   */\n      add\n        /* \"#utility.yul\":14999:15046   */\n      mstore\n        /* \"#utility.yul\":15063:15194   */\n      tag_302\n        /* \"#utility.yul\":15189:15193   */\n      dup2\n        /* \"#utility.yul\":15063:15194   */\n      tag_243\n      jump\t// in\n    tag_302:\n        /* \"#utility.yul\":15055:15194   */\n      swap1\n      pop\n        /* \"#utility.yul\":14782:15201   */\n      swap2\n      swap1\n      pop\n      jump\t// out\n        /* \"#utility.yul\":15207:15626   */\n    tag_110:\n        /* \"#utility.yul\":15373:15377   */\n      0x00\n        /* \"#utility.yul\":15411:15413   */\n      0x20\n        /* \"#utility.yul\":15400:15409   */\n      dup3\n        /* \"#utility.yul\":15396:15414   */\n      add\n        /* \"#utility.yul\":15388:15414   */\n      swap1\n      pop\n        /* \"#utility.yul\":15460:15469   */\n      dup2\n        /* \"#utility.yul\":15454:15458   */\n      dup2\n        /* \"#utility.yul\":15450:15470   */\n      sub\n        /* \"#utility.yul\":15446:15447   */\n      0x00\n        /* \"#utility.yul\":15435:15444   */\n      dup4\n        /* \"#utility.yul\":15431:15448   */\n      add\n        /* \"#utility.yul\":15424:15471   */\n      mstore\n        /* \"#utility.yul\":15488:15619   */\n      tag_304\n        /* \"#utility.yul\":15614:15618   */\n      dup2\n        /* \"#utility.yul\":15488:15619   */\n      tag_249\n      jump\t// in\n    tag_304:\n        /* \"#utility.yul\":15480:15619   */\n      swap1\n      pop\n        /* \"#utility.yul\":15207:15626   */\n      swap2\n      swap1\n      pop\n      jump\t// out\n        /* \"#utility.yul\":15632:16051   */\n    tag_43:\n        /* \"#utility.yul\":15798:15802   */\n      0x00\n        /* \"#utility.yul\":15836:15838   */\n      0x20\n        /* \"#utility.yul\":15825:15834   */\n      dup3\n        /* \"#utility.yul\":15821:15839   */\n      add\n        /* \"#utility.yul\":15813:15839   */\n      swap1\n      pop\n        /* \"#utility.yul\":15885:15894   */\n      dup2\n        /* \"#utility.yul\":15879:15883   */\n      dup2\n        /* \"#utility.yul\":15875:15895   */\n      sub\n        /* \"#utility.yul\":15871:15872   */\n      0x00\n        /* \"#utility.yul\":15860:15869   */\n      dup4\n        /* \"#utility.yul\":15856:15873   */\n      add\n        /* \"#utility.yul\":15849:15896   */\n      mstore\n        /* \"#utility.yul\":15913:16044   */\n      tag_306\n        /* \"#utility.yul\":16039:16043   */\n      dup2\n        /* \"#utility.yul\":15913:16044   */\n      tag_254\n      jump\t// in\n    tag_306:\n        /* \"#utility.yul\":15905:16044   */\n      swap1\n      pop\n        /* \"#utility.yul\":15632:16051   */\n      swap2\n      swap1\n      pop\n      jump\t// out\n        /* \"#utility.yul\":16057:16476   */\n    tag_106:\n        /* \"#utility.yul\":16223:16227   */\n      0x00\n        /* \"#utility.yul\":16261:16263   */\n      0x20\n        /* \"#utility.yul\":16250:16259   */\n      dup3\n        /* \"#utility.yul\":16246:16264   */\n      add\n        /* \"#utility.yul\":16238:16264   */\n      swap1\n      pop\n        /* \"#utility.yul\":16310:16319   */\n      dup2\n        /* \"#utility.yul\":16304:16308   */\n      dup2\n        /* \"#utility.yul\":16300:16320   */\n      sub\n        /* \"#utility.yul\":16296:16297   */\n      0x00\n        /* \"#utility.yul\":16285:16294   */\n      dup4\n        /* \"#utility.yul\":16281:16298   */\n      add\n        /* \"#utility.yul\":16274:16321   */\n      mstore\n        /* \"#utility.yul\":16338:16469   */\n      tag_308\n        /* \"#utility.yul\":16464:16468   */\n      dup2\n        /* \"#utility.yul\":16338:16469   */\n      tag_259\n      jump\t// in\n    tag_308:\n        /* \"#utility.yul\":16330:16469   */\n      swap1\n      pop\n        /* \"#utility.yul\":16057:16476   */\n      swap2\n      swap1\n      pop\n      jump\t// out\n        /* \"#utility.yul\":16482:16835   */\n    tag_20:\n        /* \"#utility.yul\":16615:16619   */\n      0x00\n        /* \"#utility.yul\":16653:16655   */\n      0x20\n        /* \"#utility.yul\":16642:16651   */\n      dup3\n        /* \"#utility.yul\":16638:16656   */\n      add\n        /* \"#utility.yul\":16630:16656   */\n      swap1\n      pop\n        /* \"#utility.yul\":16702:16711   */\n      dup2\n        /* \"#utility.yul\":16696:16700   */\n      dup2\n        /* \"#utility.yul\":16692:16712   */\n      sub\n        /* \"#utility.yul\":16688:16689   */\n      0x00\n        /* \"#utility.yul\":16677:16686   */\n      dup4\n        /* \"#utility.yul\":16673:16690   */\n      add\n        /* \"#utility.yul\":16666:16713   */\n      mstore\n        /* \"#utility.yul\":16730:16828   */\n      tag_310\n        /* \"#utility.yul\":16823:16827   */\n      dup2\n        /* \"#utility.yul\":16814:16820   */\n      dup5\n        /* \"#utility.yul\":16730:16828   */\n      tag_275\n      jump\t// in\n    tag_310:\n        /* \"#utility.yul\":16722:16828   */\n      swap1\n      pop\n        /* \"#utility.yul\":16482:16835   */\n      swap3\n      swap2\n      pop\n      pop\n      jump\t// out\n        /* \"#utility.yul\":16841:16970   */\n    tag_138:\n        /* \"#utility.yul\":16875:16881   */\n      0x00\n        /* \"#utility.yul\":16902:16922   */\n      tag_312\n      tag_313\n      jump\t// in\n    tag_312:\n        /* \"#utility.yul\":16892:16922   */\n      swap1\n      pop\n        /* \"#utility.yul\":16931:16964   */\n      tag_314\n        /* \"#utility.yul\":16959:16963   */\n      dup3\n        /* \"#utility.yul\":16951:16957   */\n      dup3\n        /* \"#utility.yul\":16931:16964   */\n      tag_315\n      jump\t// in\n    tag_314:\n        /* \"#utility.yul\":16841:16970   */\n      swap2\n      swap1\n      pop\n      jump\t// out\n        /* \"#utility.yul\":16976:17051   */\n    tag_313:\n        /* \"#utility.yul\":17009:17015   */\n      0x00\n        /* \"#utility.yul\":17042:17044   */\n      0x40\n        /* \"#utility.yul\":17036:17045   */\n      mload\n        /* \"#utility.yul\":17026:17045   */\n      swap1\n      pop\n        /* \"#utility.yul\":16976:17051   */\n      swap1\n      jump\t// out\n        /* \"#utility.yul\":17057:17365   */\n    tag_137:\n        /* \"#utility.yul\":17119:17123   */\n      0x00\n        /* \"#utility.yul\":17209:17227   */\n      0xffffffffffffffff\n        /* \"#utility.yul\":17201:17207   */\n      dup3\n        /* \"#utility.yul\":17198:17228   */\n      gt\n        /* \"#utility.yul\":17195:17251   */\n      iszero\n      tag_318\n      jumpi\n        /* \"#utility.yul\":17231:17249   */\n      tag_319\n      tag_64\n      jump\t// in\n    tag_319:\n        /* \"#utility.yul\":17195:17251   */\n    tag_318:\n        /* \"#utility.yul\":17269:17298   */\n      tag_320\n        /* \"#utility.yul\":17291:17297   */\n      dup3\n        /* \"#utility.yul\":17269:17298   */\n      tag_242\n      jump\t// in\n    tag_320:\n        /* \"#utility.yul\":17261:17298   */\n      swap1\n      pop\n        /* \"#utility.yul\":17353:17357   */\n      0x20\n        /* \"#utility.yul\":17347:17351   */\n      dup2\n        /* \"#utility.yul\":17343:17358   */\n      add\n        /* \"#utility.yul\":17335:17358   */\n      swap1\n      pop\n        /* \"#utility.yul\":17057:17365   */\n      swap2\n      swap1\n      pop\n      jump\t// out\n        /* \"#utility.yul\":17371:17523   */\n    tag_208:\n        /* \"#utility.yul\":17458:17462   */\n      0x00\n        /* \"#utility.yul\":17481:17484   */\n      dup2\n        /* \"#utility.yul\":17473:17484   */\n      swap1\n      pop\n        /* \"#utility.yul\":17511:17515   */\n      0x20\n        /* \"#utility.yul\":17506:17509   */\n      dup3\n        /* \"#utility.yul\":17502:17516   */\n      add\n        /* \"#utility.yul\":17494:17516   */\n      swap1\n      pop\n        /* \"#utility.yul\":17371:17523   */\n      swap2\n      swap1\n      pop\n      jump\t// out\n        /* \"#utility.yul\":17529:17687   */\n    tag_222:\n        /* \"#utility.yul\":17622:17626   */\n      0x00\n        /* \"#utility.yul\":17645:17648   */\n      dup2\n        /* \"#utility.yul\":17637:17648   */\n      swap1\n      pop\n        /* \"#utility.yul\":17675:17679   */\n      0x20\n        /* \"#utility.yul\":17670:17673   */\n      dup3\n        /* \"#utility.yul\":17666:17680   */\n      add\n        /* \"#utility.yul\":17658:17680   */\n      swap1\n      pop\n        /* \"#utility.yul\":17529:17687   */\n      swap2\n      swap1\n      pop\n      jump\t// out\n        /* \"#utility.yul\":17693:17827   */\n    tag_204:\n        /* \"#utility.yul\":17780:17786   */\n      0x00\n        /* \"#utility.yul\":17814:17819   */\n      dup2\n        /* \"#utility.yul\":17808:17820   */\n      mload\n        /* \"#utility.yul\":17798:17820   */\n      swap1\n      pop\n        /* \"#utility.yul\":17693:17827   */\n      swap2\n      swap1\n      pop\n      jump\t// out\n        /* \"#utility.yul\":17833:17973   */\n    tag_218:\n        /* \"#utility.yul\":17926:17932   */\n      0x00\n        /* \"#utility.yul\":17960:17965   */\n      dup2\n        /* \"#utility.yul\":17954:17966   */\n      mload\n        /* \"#utility.yul\":17944:17966   */\n      swap1\n      pop\n        /* \"#utility.yul\":17833:17973   */\n      swap2\n      swap1\n      pop\n      jump\t// out\n        /* \"#utility.yul\":17979:18078   */\n    tag_236:\n        /* \"#utility.yul\":18031:18037   */\n      0x00\n        /* \"#utility.yul\":18065:18070   */\n      dup2\n        /* \"#utility.yul\":18059:18071   */\n      mload\n        /* \"#utility.yul\":18049:18071   */\n      swap1\n      pop\n        /* \"#utility.yul\":17979:18078   */\n      swap2\n      swap1\n      pop\n      jump\t// out\n        /* \"#utility.yul\":18084:18217   */\n    tag_214:\n        /* \"#utility.yul\":18174:18178   */\n      0x00\n        /* \"#utility.yul\":18206:18210   */\n      0x20\n        /* \"#utility.yul\":18201:18204   */\n      dup3\n        /* \"#utility.yul\":18197:18211   */\n      add\n        /* \"#utility.yul\":18189:18211   */\n      swap1\n      pop\n        /* \"#utility.yul\":18084:18217   */\n      swap2\n      swap1\n      pop\n      jump\t// out\n        /* \"#utility.yul\":18223:18362   */\n    tag_228:\n        /* \"#utility.yul\":18319:18323   */\n      0x00\n        /* \"#utility.yul\":18351:18355   */\n      0x20\n        /* \"#utility.yul\":18346:18349   */\n      dup3\n        /* \"#utility.yul\":18342:18356   */\n      add\n        /* \"#utility.yul\":18334:18356   */\n      swap1\n      pop\n        /* \"#utility.yul\":18223:18362   */\n      swap2\n      swap1\n      pop\n      jump\t// out\n        /* \"#utility.yul\":18368:18572   */\n    tag_206:\n        /* \"#utility.yul\":18487:18498   */\n      0x00\n        /* \"#utility.yul\":18521:18527   */\n      dup3\n        /* \"#utility.yul\":18516:18519   */\n      dup3\n        /* \"#utility.yul\":18509:18528   */\n      mstore\n        /* \"#utility.yul\":18561:18565   */\n      0x20\n        /* \"#utility.yul\":18556:18559   */\n      dup3\n        /* \"#utility.yul\":18552:18566   */\n      add\n        /* \"#utility.yul\":18537:18566   */\n      swap1\n      pop\n        /* \"#utility.yul\":18368:18572   */\n      swap3\n      swap2\n      pop\n      pop\n      jump\t// out\n        /* \"#utility.yul\":18578:18788   */\n    tag_220:\n        /* \"#utility.yul\":18703:18714   */\n      0x00\n        /* \"#utility.yul\":18737:18743   */\n      dup3\n        /* \"#utility.yul\":18732:18735   */\n      dup3\n        /* \"#utility.yul\":18725:18744   */\n      mstore\n        /* \"#utility.yul\":18777:18781   */\n      0x20\n        /* \"#utility.yul\":18772:18775   */\n      dup3\n        /* \"#utility.yul\":18768:18782   */\n      add\n        /* \"#utility.yul\":18753:18782   */\n      swap1\n      pop\n        /* \"#utility.yul\":18578:18788   */\n      swap3\n      swap2\n      pop\n      pop\n      jump\t// out\n        /* \"#utility.yul\":18794:18953   */\n    tag_238:\n        /* \"#utility.yul\":18868:18879   */\n      0x00\n        /* \"#utility.yul\":18902:18908   */\n      dup3\n        /* \"#utility.yul\":18897:18900   */\n      dup3\n        /* \"#utility.yul\":18890:18909   */\n      mstore\n        /* \"#utility.yul\":18942:18946   */\n      0x20\n        /* \"#utility.yul\":18937:18940   */\n      dup3\n        /* \"#utility.yul\":18933:18947   */\n      add\n        /* \"#utility.yul\":18918:18947   */\n      swap1\n      pop\n        /* \"#utility.yul\":18794:18953   */\n      swap3\n      swap2\n      pop\n      pop\n      jump\t// out\n        /* \"#utility.yul\":18959:19128   */\n    tag_246:\n        /* \"#utility.yul\":19043:19054   */\n      0x00\n        /* \"#utility.yul\":19077:19083   */\n      dup3\n        /* \"#utility.yul\":19072:19075   */\n      dup3\n        /* \"#utility.yul\":19065:19084   */\n      mstore\n        /* \"#utility.yul\":19117:19121   */\n      0x20\n        /* \"#utility.yul\":19112:19115   */\n      dup3\n        /* \"#utility.yul\":19108:19122   */\n      add\n        /* \"#utility.yul\":19093:19122   */\n      swap1\n      pop\n        /* \"#utility.yul\":18959:19128   */\n      swap3\n      swap2\n      pop\n      pop\n      jump\t// out\n        /* \"#utility.yul\":19134:19230   */\n    tag_197:\n        /* \"#utility.yul\":19171:19178   */\n      0x00\n        /* \"#utility.yul\":19200:19224   */\n      tag_333\n        /* \"#utility.yul\":19218:19223   */\n      dup3\n        /* \"#utility.yul\":19200:19224   */\n      tag_334\n      jump\t// in\n    tag_333:\n        /* \"#utility.yul\":19189:19224   */\n      swap1\n      pop\n        /* \"#utility.yul\":19134:19230   */\n      swap2\n      swap1\n      pop\n      jump\t// out\n        /* \"#utility.yul\":19236:19340   */\n    tag_193:\n        /* \"#utility.yul\":19281:19288   */\n      0x00\n        /* \"#utility.yul\":19310:19334   */\n      tag_336\n        /* \"#utility.yul\":19328:19333   */\n      dup3\n        /* \"#utility.yul\":19310:19334   */\n      tag_334\n      jump\t// in\n    tag_336:\n        /* \"#utility.yul\":19299:19334   */\n      swap1\n      pop\n        /* \"#utility.yul\":19236:19340   */\n      swap2\n      swap1\n      pop\n      jump\t// out\n        /* \"#utility.yul\":19346:19436   */\n    tag_232:\n        /* \"#utility.yul\":19380:19387   */\n      0x00\n        /* \"#utility.yul\":19423:19428   */\n      dup2\n        /* \"#utility.yul\":19416:19429   */\n      iszero\n        /* \"#utility.yul\":19409:19430   */\n      iszero\n        /* \"#utility.yul\":19398:19430   */\n      swap1\n      pop\n        /* \"#utility.yul\":19346:19436   */\n      swap2\n      swap1\n      pop\n      jump\t// out\n        /* \"#utility.yul\":19442:19568   */\n    tag_334:\n        /* \"#utility.yul\":19479:19486   */\n      0x00\n        /* \"#utility.yul\":19519:19561   */\n      0xffffffffffffffffffffffffffffffffffffffff\n        /* \"#utility.yul\":19512:19517   */\n      dup3\n        /* \"#utility.yul\":19508:19562   */\n      and\n        /* \"#utility.yul\":19497:19562   */\n      swap1\n      pop\n        /* \"#utility.yul\":19442:19568   */\n      swap2\n      swap1\n      pop\n      jump\t// out\n        /* \"#utility.yul\":19574:19651   */\n    tag_294:\n        /* \"#utility.yul\":19611:19618   */\n      0x00\n        /* \"#utility.yul\":19640:19645   */\n      dup2\n        /* \"#utility.yul\":19629:19645   */\n      swap1\n      pop\n        /* \"#utility.yul\":19574:19651   */\n      swap2\n      swap1\n      pop\n      jump\t// out\n        /* \"#utility.yul\":19657:19811   */\n    tag_143:\n        /* \"#utility.yul\":19741:19747   */\n      dup3\n        /* \"#utility.yul\":19736:19739   */\n      dup2\n        /* \"#utility.yul\":19731:19734   */\n      dup4\n        /* \"#utility.yul\":19718:19748   */\n      calldatacopy\n        /* \"#utility.yul\":19803:19804   */\n      0x00\n        /* \"#utility.yul\":19794:19800   */\n      dup4\n        /* \"#utility.yul\":19789:19792   */\n      dup4\n        /* \"#utility.yul\":19785:19801   */\n      add\n        /* \"#utility.yul\":19778:19805   */\n      mstore\n        /* \"#utility.yul\":19657:19811   */\n      pop\n      pop\n      pop\n      jump\t// out\n        /* \"#utility.yul\":19817:20124   */\n    tag_240:\n        /* \"#utility.yul\":19885:19886   */\n      0x00\n        /* \"#utility.yul\":19895:20008   */\n    tag_342:\n        /* \"#utility.yul\":19909:19915   */\n      dup4\n        /* \"#utility.yul\":19906:19907   */\n      dup2\n        /* \"#utility.yul\":19903:19916   */\n      lt\n        /* \"#utility.yul\":19895:20008   */\n      iszero\n      tag_344\n      jumpi\n        /* \"#utility.yul\":19994:19995   */\n      dup1\n        /* \"#utility.yul\":19989:19992   */\n      dup3\n        /* \"#utility.yul\":19985:19996   */\n      add\n        /* \"#utility.yul\":19979:19997   */\n      mload\n        /* \"#utility.yul\":19975:19976   */\n      dup2\n        /* \"#utility.yul\":19970:19973   */\n      dup5\n        /* \"#utility.yul\":19966:19977   */\n      add\n        /* \"#utility.yul\":19959:19998   */\n      mstore\n        /* \"#utility.yul\":19931:19933   */\n      0x20\n        /* \"#utility.yul\":19928:19929   */\n      dup2\n        /* \"#utility.yul\":19924:19934   */\n      add\n        /* \"#utility.yul\":19919:19934   */\n      swap1\n      pop\n        /* \"#utility.yul\":19895:20008   */\n      jump(tag_342)\n    tag_344:\n        /* \"#utility.yul\":20026:20032   */\n      dup4\n        /* \"#utility.yul\":20023:20024   */\n      dup2\n        /* \"#utility.yul\":20020:20033   */\n      gt\n        /* \"#utility.yul\":20017:20118   */\n      iszero\n      tag_345\n      jumpi\n        /* \"#utility.yul\":20106:20107   */\n      0x00\n        /* \"#utility.yul\":20097:20103   */\n      dup5\n        /* \"#utility.yul\":20092:20095   */\n      dup5\n        /* \"#utility.yul\":20088:20104   */\n      add\n        /* \"#utility.yul\":20081:20108   */\n      mstore\n        /* \"#utility.yul\":20017:20118   */\n    tag_345:\n        /* \"#utility.yul\":19866:20124   */\n      pop\n        /* \"#utility.yul\":19817:20124   */\n      pop\n      pop\n      pop\n      jump\t// out\n        /* \"#utility.yul\":20130:20450   */\n    tag_51:\n        /* \"#utility.yul\":20174:20180   */\n      0x00\n        /* \"#utility.yul\":20211:20212   */\n      0x02\n        /* \"#utility.yul\":20205:20209   */\n      dup3\n        /* \"#utility.yul\":20201:20213   */\n      div\n        /* \"#utility.yul\":20191:20213   */\n      swap1\n      pop\n        /* \"#utility.yul\":20258:20259   */\n      0x01\n        /* \"#utility.yul\":20252:20256   */\n      dup3\n        /* \"#utility.yul\":20248:20260   */\n      and\n        /* \"#utility.yul\":20279:20297   */\n      dup1\n        /* \"#utility.yul\":20269:20350   */\n      tag_347\n      jumpi\n        /* \"#utility.yul\":20335:20339   */\n      0x7f\n        /* \"#utility.yul\":20327:20333   */\n      dup3\n        /* \"#utility.yul\":20323:20340   */\n      and\n        /* \"#utility.yul\":20313:20340   */\n      swap2\n      pop\n        /* \"#utility.yul\":20269:20350   */\n    tag_347:\n        /* \"#utility.yul\":20397:20399   */\n      0x20\n        /* \"#utility.yul\":20389:20395   */\n      dup3\n        /* \"#utility.yul\":20386:20400   */\n      lt\n        /* \"#utility.yul\":20366:20384   */\n      dup2\n        /* \"#utility.yul\":20363:20401   */\n      eq\n        /* \"#utility.yul\":20360:20444   */\n      iszero\n      tag_348\n      jumpi\n        /* \"#utility.yul\":20416:20434   */\n      tag_349\n      tag_350\n      jump\t// in\n    tag_349:\n        /* \"#utility.yul\":20360:20444   */\n    tag_348:\n        /* \"#utility.yul\":20181:20450   */\n      pop\n        /* \"#utility.yul\":20130:20450   */\n      swap2\n      swap1\n      pop\n      jump\t// out\n        /* \"#utility.yul\":20456:20737   */\n    tag_315:\n        /* \"#utility.yul\":20539:20566   */\n      tag_352\n        /* \"#utility.yul\":20561:20565   */\n      dup3\n        /* \"#utility.yul\":20539:20566   */\n      tag_242\n      jump\t// in\n    tag_352:\n        /* \"#utility.yul\":20531:20537   */\n      dup2\n        /* \"#utility.yul\":20527:20567   */\n      add\n        /* \"#utility.yul\":20669:20675   */\n      dup2\n        /* \"#utility.yul\":20657:20667   */\n      dup2\n        /* \"#utility.yul\":20654:20676   */\n      lt\n        /* \"#utility.yul\":20633:20651   */\n      0xffffffffffffffff\n        /* \"#utility.yul\":20621:20631   */\n      dup3\n        /* \"#utility.yul\":20618:20652   */\n      gt\n        /* \"#utility.yul\":20615:20677   */\n      or\n        /* \"#utility.yul\":20612:20700   */\n      iszero\n      tag_353\n      jumpi\n        /* \"#utility.yul\":20680:20698   */\n      tag_354\n      tag_64\n      jump\t// in\n    tag_354:\n        /* \"#utility.yul\":20612:20700   */\n    tag_353:\n        /* \"#utility.yul\":20720:20730   */\n      dup1\n        /* \"#utility.yul\":20716:20718   */\n      0x40\n        /* \"#utility.yul\":20709:20731   */\n      mstore\n        /* \"#utility.yul\":20499:20737   */\n      pop\n        /* \"#utility.yul\":20456:20737   */\n      pop\n      pop\n      jump\t// out\n        /* \"#utility.yul\":20743:20976   */\n    tag_46:\n        /* \"#utility.yul\":20782:20785   */\n      0x00\n        /* \"#utility.yul\":20805:20829   */\n      tag_356\n        /* \"#utility.yul\":20823:20828   */\n      dup3\n        /* \"#utility.yul\":20805:20829   */\n      tag_294\n      jump\t// in\n    tag_356:\n        /* \"#utility.yul\":20796:20829   */\n      swap2\n      pop\n        /* \"#utility.yul\":20851:20917   */\n      0xffffffffffffffffffffffffffffffffffffffffffffffffffffffffffffffff\n        /* \"#utility.yul\":20844:20849   */\n      dup3\n        /* \"#utility.yul\":20841:20918   */\n      eq\n        /* \"#utility.yul\":20838:20941   */\n      iszero\n      tag_357\n      jumpi\n        /* \"#utility.yul\":20921:20939   */\n      tag_358\n      tag_359\n      jump\t// in\n    tag_358:\n        /* \"#utility.yul\":20838:20941   */\n    tag_357:\n        /* \"#utility.yul\":20968:20969   */\n      0x01\n        /* \"#utility.yul\":20961:20966   */\n      dup3\n        /* \"#utility.yul\":20957:20970   */\n      add\n        /* \"#utility.yul\":20950:20970   */\n      swap1\n      pop\n        /* \"#utility.yul\":20743:20976   */\n      swap2\n      swap1\n      pop\n      jump\t// out\n        /* \"#utility.yul\":20982:21162   */\n    tag_359:\n        /* \"#utility.yul\":21030:21107   */\n      0x4e487b7100000000000000000000000000000000000000000000000000000000\n        /* \"#utility.yul\":21027:21028   */\n      0x00\n        /* \"#utility.yul\":21020:21108   */\n      mstore\n        /* \"#utility.yul\":21127:21131   */\n      0x11\n        /* \"#utility.yul\":21124:21125   */\n      0x04\n        /* \"#utility.yul\":21117:21132   */\n      mstore\n        /* \"#utility.yul\":21151:21155   */\n      0x24\n        /* \"#utility.yul\":21148:21149   */\n      0x00\n        /* \"#utility.yul\":21141:21156   */\n      revert\n        /* \"#utility.yul\":21168:21348   */\n    tag_350:\n        /* \"#utility.yul\":21216:21293   */\n      0x4e487b7100000000000000000000000000000000000000000000000000000000\n        /* \"#utility.yul\":21213:21214   */\n      0x00\n        /* \"#utility.yul\":21206:21294   */\n      mstore\n        /* \"#utility.yul\":21313:21317   */\n      0x22\n        /* \"#utility.yul\":21310:21311   */\n      0x04\n        /* \"#utility.yul\":21303:21318   */\n      mstore\n        /* \"#utility.yul\":21337:21341   */\n      0x24\n        /* \"#utility.yul\":21334:21335   */\n      0x00\n        /* \"#utility.yul\":21327:21342   */\n      revert\n        /* \"#utility.yul\":21354:21534   */\n    tag_83:\n        /* \"#utility.yul\":21402:21479   */\n      0x4e487b7100000000000000000000000000000000000000000000000000000000\n        /* \"#utility.yul\":21399:21400   */\n      0x00\n        /* \"#utility.yul\":21392:21480   */\n      mstore\n        /* \"#utility.yul\":21499:21503   */\n      0x32\n        /* \"#utility.yul\":21496:21497   */\n      0x04\n        /* \"#utility.yul\":21489:21504   */\n      mstore\n        /* \"#utility.yul\":21523:21527   */\n      0x24\n        /* \"#utility.yul\":21520:21521   */\n      0x00\n        /* \"#utility.yul\":21513:21528   */\n      revert\n        /* \"#utility.yul\":21540:21720   */\n    tag_64:\n        /* \"#utility.yul\":21588:21665   */\n      0x4e487b7100000000000000000000000000000000000000000000000000000000\n        /* \"#utility.yul\":21585:21586   */\n      0x00\n        /* \"#utility.yul\":21578:21666   */\n      mstore\n        /* \"#utility.yul\":21685:21689   */\n      0x41\n        /* \"#utility.yul\":21682:21683   */\n      0x04\n        /* \"#utility.yul\":21675:21690   */\n      mstore\n        /* \"#utility.yul\":21709:21713   */\n      0x24\n        /* \"#utility.yul\":21706:21707   */\n      0x00\n        /* \"#utility.yul\":21699:21714   */\n      revert\n        /* \"#utility.yul\":21726:21843   */\n    tag_152:\n        /* \"#utility.yul\":21835:21836   */\n      0x00\n        /* \"#utility.yul\":21832:21833   */\n      dup1\n        /* \"#utility.yul\":21825:21837   */\n      revert\n        /* \"#utility.yul\":21849:21966   */\n    tag_141:\n        /* \"#utility.yul\":21958:21959   */\n      0x00\n        /* \"#utility.yul\":21955:21956   */\n      dup1\n        /* \"#utility.yul\":21948:21960   */\n      revert\n        /* \"#utility.yul\":21972:22089   */\n    tag_164:\n        /* \"#utility.yul\":22081:22082   */\n      0x00\n        /* \"#utility.yul\":22078:22079   */\n      dup1\n        /* \"#utility.yul\":22071:22083   */\n      revert\n        /* \"#utility.yul\":22095:22212   */\n    tag_161:\n        /* \"#utility.yul\":22204:22205   */\n      0x00\n        /* \"#utility.yul\":22201:22202   */\n      dup1\n        /* \"#utility.yul\":22194:22206   */\n      revert\n        /* \"#utility.yul\":22218:22320   */\n    tag_242:\n        /* \"#utility.yul\":22259:22265   */\n      0x00\n        /* \"#utility.yul\":22310:22312   */\n      0x1f\n        /* \"#utility.yul\":22306:22313   */\n      not\n        /* \"#utility.yul\":22301:22303   */\n      0x1f\n        /* \"#utility.yul\":22294:22299   */\n      dup4\n        /* \"#utility.yul\":22290:22304   */\n      add\n        /* \"#utility.yul\":22286:22314   */\n      and\n        /* \"#utility.yul\":22276:22314   */\n      swap1\n      pop\n        /* \"#utility.yul\":22218:22320   */\n      swap2\n      swap1\n      pop\n      jump\t// out\n        /* \"#utility.yul\":22326:22566   */\n    tag_248:\n        /* \"#utility.yul\":22466:22500   */\n      0x456e6420646174652d74696d652073686f756c64206265206772656174657220\n        /* \"#utility.yul\":22462:22463   */\n      0x00\n        /* \"#utility.yul\":22454:22460   */\n      dup3\n        /* \"#utility.yul\":22450:22464   */\n      add\n        /* \"#utility.yul\":22443:22501   */\n      mstore\n        /* \"#utility.yul\":22535:22558   */\n      0x7468616e20737461727420646174652d74696d652e0000000000000000000000\n        /* \"#utility.yul\":22530:22532   */\n      0x20\n        /* \"#utility.yul\":22522:22528   */\n      dup3\n        /* \"#utility.yul\":22518:22533   */\n      add\n        /* \"#utility.yul\":22511:22559   */\n      mstore\n        /* \"#utility.yul\":22326:22566   */\n      pop\n      jump\t// out\n        /* \"#utility.yul\":22572:22816   */\n    tag_253:\n        /* \"#utility.yul\":22712:22746   */\n      0x537461727420646174652d74696d652073686f756c6420626520677265617465\n        /* \"#utility.yul\":22708:22709   */\n      0x00\n        /* \"#utility.yul\":22700:22706   */\n      dup3\n        /* \"#utility.yul\":22696:22710   */\n      add\n        /* \"#utility.yul\":22689:22747   */\n      mstore\n        /* \"#utility.yul\":22781:22808   */\n      0x72207468616e2063757272656e7420646174652d74696d652e00000000000000\n        /* \"#utility.yul\":22776:22778   */\n      0x20\n        /* \"#utility.yul\":22768:22774   */\n      dup3\n        /* \"#utility.yul\":22764:22779   */\n      add\n        /* \"#utility.yul\":22757:22809   */\n      mstore\n        /* \"#utility.yul\":22572:22816   */\n      pop\n      jump\t// out\n        /* \"#utility.yul\":22822:22987   */\n    tag_258:\n        /* \"#utility.yul\":22962:22979   */\n      0x46756e6420697320636c6f7365642e0000000000000000000000000000000000\n        /* \"#utility.yul\":22958:22959   */\n      0x00\n        /* \"#utility.yul\":22950:22956   */\n      dup3\n        /* \"#utility.yul\":22946:22960   */\n      add\n        /* \"#utility.yul\":22939:22980   */\n      mstore\n        /* \"#utility.yul\":22822:22987   */\n      pop\n      jump\t// out\n        /* \"#utility.yul\":22993:23226   */\n    tag_263:\n        /* \"#utility.yul\":23133:23167   */\n      0x4f6e6c79206d616e6167657220697320616c6c6f77656420746f20616c6c6f77\n        /* \"#utility.yul\":23129:23130   */\n      0x00\n        /* \"#utility.yul\":23121:23127   */\n      dup3\n        /* \"#utility.yul\":23117:23131   */\n      add\n        /* \"#utility.yul\":23110:23168   */\n      mstore\n        /* \"#utility.yul\":23202:23218   */\n      0x656420746f206578656375746520000000000000000000000000000000000000\n        /* \"#utility.yul\":23197:23199   */\n      0x20\n        /* \"#utility.yul\":23189:23195   */\n      dup3\n        /* \"#utility.yul\":23185:23200   */\n      add\n        /* \"#utility.yul\":23178:23219   */\n      mstore\n        /* \"#utility.yul\":22993:23226   */\n      pop\n      jump\t// out\n        /* \"#utility.yul\":23232:23370   */\n    tag_147:\n        /* \"#utility.yul\":23313:23345   */\n      tag_374\n        /* \"#utility.yul\":23339:23344   */\n      dup2\n        /* \"#utility.yul\":23313:23345   */\n      tag_193\n      jump\t// in\n    tag_374:\n        /* \"#utility.yul\":23306:23311   */\n      dup2\n        /* \"#utility.yul\":23303:23346   */\n      eq\n        /* \"#utility.yul\":23293:23364   */\n      tag_375\n      jumpi\n        /* \"#utility.yul\":23360:23361   */\n      0x00\n        /* \"#utility.yul\":23357:23358   */\n      dup1\n        /* \"#utility.yul\":23350:23362   */\n      revert\n        /* \"#utility.yul\":23293:23364   */\n    tag_375:\n        /* \"#utility.yul\":23232:23370   */\n      pop\n      jump\t// out\n        /* \"#utility.yul\":23376:23498   */\n    tag_157:\n        /* \"#utility.yul\":23449:23473   */\n      tag_377\n        /* \"#utility.yul\":23467:23472   */\n      dup2\n        /* \"#utility.yul\":23449:23473   */\n      tag_294\n      jump\t// in\n    tag_377:\n        /* \"#utility.yul\":23442:23447   */\n      dup2\n        /* \"#utility.yul\":23439:23474   */\n      eq\n        /* \"#utility.yul\":23429:23492   */\n      tag_378\n      jumpi\n        /* \"#utility.yul\":23488:23489   */\n      0x00\n        /* \"#utility.yul\":23485:23486   */\n      dup1\n        /* \"#utility.yul\":23478:23490   */\n      revert\n        /* \"#utility.yul\":23429:23492   */\n    tag_378:\n        /* \"#utility.yul\":23376:23498   */\n      pop\n      jump\t// out\n\n    auxdata: 0xa26469706673582212204b517bc5cb03f917ec2cdc6b5f2e7aa66ddd55e08c29e0a20c109d06da9dc8f264736f6c63430008070033\n}\n",
				"bytecode": {
					"linkReferences": {},
					"object": "608060405234801561001057600080fd5b50336000806101000a81548173ffffffffffffffffffffffffffffffffffffffff021916908373ffffffffffffffffffffffffffffffffffffffff160217905550611831806100606000396000f3fe608060405234801561001057600080fd5b506004361061007d5760003560e01c806326ef2adf1161005b57806326ef2adf146100ec578063481c6a751461011c578063526ed2851461013a578063d8d79700146101565761007d565b8063135a34a214610082578063149e685a1461009e5780631c69b464146100ce575b600080fd5b61009c60048036038101906100979190610e49565b610160565b005b6100b860048036038101906100b39190610e1c565b6102c0565b6040516100c59190611377565b60405180910390f35b6100d66104b5565b6040516100e391906112b3565b60405180910390f35b61010660048036038101906101019190610e1c565b61073d565b60405161011391906112d5565b60405180910390f35b6101246108af565b6040516101319190611298565b60405180910390f35b610154600480360381019061014f9190610d57565b6108d3565b005b61015e610ae1565b005b60006001600084815260200190815260200160002090508060070160009054906101000a900460ff166101c8576040517f08c379a00000000000000000000000000000000000000000000000000000000081526004016101bf90611337565b60405180910390fd5b60026040518060a0016040528060045481526020018581526020013373ffffffffffffffffffffffffffffffffffffffff168152602001848152602001428152509080600181540180825580915050600190039060005260206000209060050201600090919091909150600082015181600001556020820151816001015560408201518160020160006101000a81548173ffffffffffffffffffffffffffffffffffffffff021916908373ffffffffffffffffffffffffffffffffffffffff16021790555060608201518160030155608082015181600401555050600460008154809291906102b69061158d565b9190505550505050565b6102c8610b71565b6001600083815260200190815260200160002060405180610120016040529081600082015481526020016001820180546103019061152a565b80601f016020809104026020016040519081016040528092919081815260200182805461032d9061152a565b801561037a5780601f1061034f5761010080835404028352916020019161037a565b820191906000526020600020905b81548152906001019060200180831161035d57829003601f168201915b505050505081526020016002820180546103939061152a565b80601f01602080910402602001604051908101604052809291908181526020018280546103bf9061152a565b801561040c5780601f106103e15761010080835404028352916020019161040c565b820191906000526020600020905b8154815290600101906020018083116103ef57829003601f168201915b50505050508152602001600382015481526020016004820154815260200160058201548152602001600682015481526020016007820160009054906101000a900460ff161515151581526020016007820160019054906101000a900473ffffffffffffffffffffffffffffffffffffffff1673ffffffffffffffffffffffffffffffffffffffff1673ffffffffffffffffffffffffffffffffffffffff16815250509050919050565b6060600060035467ffffffffffffffff8111156104d5576104d4611663565b5b60405190808252806020026020018201604052801561050e57816020015b6104fb610b71565b8152602001906001900390816104f35790505b50905060005b600354811015610735576001600082815260200190815260200160002060405180610120016040529081600082015481526020016001820180546105579061152a565b80601f01602080910402602001604051908101604052809291908181526020018280546105839061152a565b80156105d05780601f106105a5576101008083540402835291602001916105d0565b820191906000526020600020905b8154815290600101906020018083116105b357829003601f168201915b505050505081526020016002820180546105e99061152a565b80601f01602080910402602001604051908101604052809291908181526020018280546106159061152a565b80156106625780601f1061063757610100808354040283529160200191610662565b820191906000526020600020905b81548152906001019060200180831161064557829003601f168201915b50505050508152602001600382015481526020016004820154815260200160058201548152602001600682015481526020016007820160009054906101000a900460ff161515151581526020016007820160019054906101000a900473ffffffffffffffffffffffffffffffffffffffff1673ffffffffffffffffffffffffffffffffffffffff1673ffffffffffffffffffffffffffffffffffffffff168152505082828151811061071757610716611634565b5b6020026020010181905250808061072d9061158d565b915050610514565b508091505090565b6060600060045467ffffffffffffffff81111561075d5761075c611663565b5b60405190808252806020026020018201604052801561079657816020015b610783610bd5565b81526020019060019003908161077b5790505b5090506000805b6004548110156108a4576000600282815481106107bd576107bc611634565b5b90600052602060002090600502019050858160010154141561089057806040518060a001604052908160008201548152602001600182015481526020016002820160009054906101000a900473ffffffffffffffffffffffffffffffffffffffff1673ffffffffffffffffffffffffffffffffffffffff1673ffffffffffffffffffffffffffffffffffffffff1681526020016003820154815260200160048201548152505084848151811061087657610875611634565b5b6020026020010181905250828061088c9061158d565b9350505b50808061089c9061158d565b91505061079d565b508192505050919050565b60008054906101000a900473ffffffffffffffffffffffffffffffffffffffff1681565b3373ffffffffffffffffffffffffffffffffffffffff1660008054906101000a900473ffffffffffffffffffffffffffffffffffffffff1673ffffffffffffffffffffffffffffffffffffffff1614610961576040517f08c379a000000000000000000000000000000000000000000000000000000000815260040161095890611357565b60405180910390fd5b4284116109a3576040517f08c379a000000000000000000000000000000000000000000000000000000000815260040161099a90611317565b60405180910390fd5b8383116109e5576040517f08c379a00000000000000000000000000000000000000000000000000000000081526004016109dc906112f7565b60405180910390fd5b60006001600060035481526020019081526020016000209050600354816000018190555086816001019080519060200190610a21929190610c1a565b5085816002019080519060200190610a3a929190610c1a565b5084816003018190555083816004018190555082816005018190555060008160060181905550818160070160016101000a81548173ffffffffffffffffffffffffffffffffffffffff021916908373ffffffffffffffffffffffffffffffffffffffff16021790555060018160070160006101000a81548160ff02191690831515021790555060036000815480929190610ad39061158d565b919050555050505050505050565b3373ffffffffffffffffffffffffffffffffffffffff1660008054906101000a900473ffffffffffffffffffffffffffffffffffffffff1673ffffffffffffffffffffffffffffffffffffffff1614610b6f576040517f08c379a0000000000000000000000000000000000000000000000000000000008152600401610b6690611357565b60405180910390fd5b565b60405180610120016040528060008152602001606081526020016060815260200160008152602001600081526020016000815260200160008152602001600015158152602001600073ffffffffffffffffffffffffffffffffffffffff1681525090565b6040518060a001604052806000815260200160008152602001600073ffffffffffffffffffffffffffffffffffffffff16815260200160008152602001600081525090565b828054610c269061152a565b90600052602060002090601f016020900481019282610c485760008555610c8f565b82601f10610c6157805160ff1916838001178555610c8f565b82800160010185558215610c8f579182015b82811115610c8e578251825591602001919060010190610c73565b5b509050610c9c9190610ca0565b5090565b5b80821115610cb9576000816000905550600101610ca1565b5090565b6000610cd0610ccb846113be565b611399565b905082815260208101848484011115610cec57610ceb611697565b5b610cf78482856114e8565b509392505050565b600081359050610d0e816117cd565b92915050565b600082601f830112610d2957610d28611692565b5b8135610d39848260208601610cbd565b91505092915050565b600081359050610d51816117e4565b92915050565b60008060008060008060c08789031215610d7457610d736116a1565b5b600087013567ffffffffffffffff811115610d9257610d9161169c565b5b610d9e89828a01610d14565b965050602087013567ffffffffffffffff811115610dbf57610dbe61169c565b5b610dcb89828a01610d14565b9550506040610ddc89828a01610d42565b9450506060610ded89828a01610d42565b9350506080610dfe89828a01610d42565b92505060a0610e0f89828a01610cff565b9150509295509295509295565b600060208284031215610e3257610e316116a1565b5b6000610e4084828501610d42565b91505092915050565b60008060408385031215610e6057610e5f6116a1565b5b6000610e6e85828601610d42565b9250506020610e7f85828601610d42565b9150509250929050565b6000610e958383611089565b905092915050565b6000610ea98383611221565b60a08301905092915050565b610ebe816114a0565b82525050565b610ecd8161148e565b82525050565b610edc8161148e565b82525050565b6000610eed8261140f565b610ef7818561144a565b935083602082028501610f09856113ef565b8060005b85811015610f455784840389528151610f268582610e89565b9450610f3183611430565b925060208a01995050600181019050610f0d565b50829750879550505050505092915050565b6000610f628261141a565b610f6c818561145b565b9350610f77836113ff565b8060005b83811015610fa8578151610f8f8882610e9d565b9750610f9a8361143d565b925050600181019050610f7b565b5085935050505092915050565b610fbe816114b2565b82525050565b6000610fcf82611425565b610fd9818561146c565b9350610fe98185602086016114f7565b610ff2816116a6565b840191505092915050565b600061100a60358361147d565b9150611015826116b7565b604082019050919050565b600061102d60398361147d565b915061103882611706565b604082019050919050565b6000611050600f8361147d565b915061105b82611755565b602082019050919050565b6000611073602e8361147d565b915061107e8261177e565b604082019050919050565b6000610120830160008301516110a26000860182611289565b50602083015184820360208601526110ba8282610fc4565b915050604083015184820360408601526110d48282610fc4565b91505060608301516110e96060860182611289565b5060808301516110fc6080860182611289565b5060a083015161110f60a0860182611289565b5060c083015161112260c0860182611289565b5060e083015161113560e0860182610fb5565b5061010083015161114a610100860182610eb5565b508091505092915050565b60006101208301600083015161116e6000860182611289565b50602083015184820360208601526111868282610fc4565b915050604083015184820360408601526111a08282610fc4565b91505060608301516111b56060860182611289565b5060808301516111c86080860182611289565b5060a08301516111db60a0860182611289565b5060c08301516111ee60c0860182611289565b5060e083015161120160e0860182610fb5565b50610100830151611216610100860182610eb5565b508091505092915050565b60a0820160008201516112376000850182611289565b50602082015161124a6020850182611289565b50604082015161125d6040850182610ec4565b5060608201516112706060850182611289565b5060808201516112836080850182611289565b50505050565b611292816114de565b82525050565b60006020820190506112ad6000830184610ed3565b92915050565b600060208201905081810360008301526112cd8184610ee2565b905092915050565b600060208201905081810360008301526112ef8184610f57565b905092915050565b6000602082019050818103600083015261131081610ffd565b9050919050565b6000602082019050818103600083015261133081611020565b9050919050565b6000602082019050818103600083015261135081611043565b9050919050565b6000602082019050818103600083015261137081611066565b9050919050565b600060208201905081810360008301526113918184611155565b905092915050565b60006113a36113b4565b90506113af828261155c565b919050565b6000604051905090565b600067ffffffffffffffff8211156113d9576113d8611663565b5b6113e2826116a6565b9050602081019050919050565b6000819050602082019050919050565b6000819050602082019050919050565b600081519050919050565b600081519050919050565b600081519050919050565b6000602082019050919050565b6000602082019050919050565b600082825260208201905092915050565b600082825260208201905092915050565b600082825260208201905092915050565b600082825260208201905092915050565b6000611499826114be565b9050919050565b60006114ab826114be565b9050919050565b60008115159050919050565b600073ffffffffffffffffffffffffffffffffffffffff82169050919050565b6000819050919050565b82818337600083830152505050565b60005b838110156115155780820151818401526020810190506114fa565b83811115611524576000848401525b50505050565b6000600282049050600182168061154257607f821691505b6020821081141561155657611555611605565b5b50919050565b611565826116a6565b810181811067ffffffffffffffff8211171561158457611583611663565b5b80604052505050565b6000611598826114de565b91507fffffffffffffffffffffffffffffffffffffffffffffffffffffffffffffffff8214156115cb576115ca6115d6565b5b600182019050919050565b7f4e487b7100000000000000000000000000000000000000000000000000000000600052601160045260246000fd5b7f4e487b7100000000000000000000000000000000000000000000000000000000600052602260045260246000fd5b7f4e487b7100000000000000000000000000000000000000000000000000000000600052603260045260246000fd5b7f4e487b7100000000000000000000000000000000000000000000000000000000600052604160045260246000fd5b600080fd5b600080fd5b600080fd5b600080fd5b6000601f19601f8301169050919050565b7f456e6420646174652d74696d652073686f756c6420626520677265617465722060008201527f7468616e20737461727420646174652d74696d652e0000000000000000000000602082015250565b7f537461727420646174652d74696d652073686f756c642062652067726561746560008201527f72207468616e2063757272656e7420646174652d74696d652e00000000000000602082015250565b7f46756e6420697320636c6f7365642e0000000000000000000000000000000000600082015250565b7f4f6e6c79206d616e6167657220697320616c6c6f77656420746f20616c6c6f7760008201527f656420746f206578656375746520000000000000000000000000000000000000602082015250565b6117d6816114a0565b81146117e157600080fd5b50565b6117ed816114de565b81146117f857600080fd5b5056fea26469706673582212204b517bc5cb03f917ec2cdc6b5f2e7aa66ddd55e08c29e0a20c109d06da9dc8f264736f6c63430008070033",
					"opcodes": "PUSH1 0x80 PUSH1 0x40 MSTORE CALLVALUE DUP1 ISZERO PUSH2 0x10 JUMPI PUSH1 0x0 DUP1 REVERT JUMPDEST POP CALLER PUSH1 0x0 DUP1 PUSH2 0x100 EXP DUP2 SLOAD DUP2 PUSH20 0xFFFFFFFFFFFFFFFFFFFFFFFFFFFFFFFFFFFFFFFF MUL NOT AND SWAP1 DUP4 PUSH20 0xFFFFFFFFFFFFFFFFFFFFFFFFFFFFFFFFFFFFFFFF AND MUL OR SWAP1 SSTORE POP PUSH2 0x1831 DUP1 PUSH2 0x60 PUSH1 0x0 CODECOPY PUSH1 0x0 RETURN INVALID PUSH1 0x80 PUSH1 0x40 MSTORE CALLVALUE DUP1 ISZERO PUSH2 0x10 JUMPI PUSH1 0x0 DUP1 REVERT JUMPDEST POP PUSH1 0x4 CALLDATASIZE LT PUSH2 0x7D JUMPI PUSH1 0x0 CALLDATALOAD PUSH1 0xE0 SHR DUP1 PUSH4 0x26EF2ADF GT PUSH2 0x5B JUMPI DUP1 PUSH4 0x26EF2ADF EQ PUSH2 0xEC JUMPI DUP1 PUSH4 0x481C6A75 EQ PUSH2 0x11C JUMPI DUP1 PUSH4 0x526ED285 EQ PUSH2 0x13A JUMPI DUP1 PUSH4 0xD8D79700 EQ PUSH2 0x156 JUMPI PUSH2 0x7D JUMP JUMPDEST DUP1 PUSH4 0x135A34A2 EQ PUSH2 0x82 JUMPI DUP1 PUSH4 0x149E685A EQ PUSH2 0x9E JUMPI DUP1 PUSH4 0x1C69B464 EQ PUSH2 0xCE JUMPI JUMPDEST PUSH1 0x0 DUP1 REVERT JUMPDEST PUSH2 0x9C PUSH1 0x4 DUP1 CALLDATASIZE SUB DUP2 ADD SWAP1 PUSH2 0x97 SWAP2 SWAP1 PUSH2 0xE49 JUMP JUMPDEST PUSH2 0x160 JUMP JUMPDEST STOP JUMPDEST PUSH2 0xB8 PUSH1 0x4 DUP1 CALLDATASIZE SUB DUP2 ADD SWAP1 PUSH2 0xB3 SWAP2 SWAP1 PUSH2 0xE1C JUMP JUMPDEST PUSH2 0x2C0 JUMP JUMPDEST PUSH1 0x40 MLOAD PUSH2 0xC5 SWAP2 SWAP1 PUSH2 0x1377 JUMP JUMPDEST PUSH1 0x40 MLOAD DUP1 SWAP2 SUB SWAP1 RETURN JUMPDEST PUSH2 0xD6 PUSH2 0x4B5 JUMP JUMPDEST PUSH1 0x40 MLOAD PUSH2 0xE3 SWAP2 SWAP1 PUSH2 0x12B3 JUMP JUMPDEST PUSH1 0x40 MLOAD DUP1 SWAP2 SUB SWAP1 RETURN JUMPDEST PUSH2 0x106 PUSH1 0x4 DUP1 CALLDATASIZE SUB DUP2 ADD SWAP1 PUSH2 0x101 SWAP2 SWAP1 PUSH2 0xE1C JUMP JUMPDEST PUSH2 0x73D JUMP JUMPDEST PUSH1 0x40 MLOAD PUSH2 0x113 SWAP2 SWAP1 PUSH2 0x12D5 JUMP JUMPDEST PUSH1 0x40 MLOAD DUP1 SWAP2 SUB SWAP1 RETURN JUMPDEST PUSH2 0x124 PUSH2 0x8AF JUMP JUMPDEST PUSH1 0x40 MLOAD PUSH2 0x131 SWAP2 SWAP1 PUSH2 0x1298 JUMP JUMPDEST PUSH1 0x40 MLOAD DUP1 SWAP2 SUB SWAP1 RETURN JUMPDEST PUSH2 0x154 PUSH1 0x4 DUP1 CALLDATASIZE SUB DUP2 ADD SWAP1 PUSH2 0x14F SWAP2 SWAP1 PUSH2 0xD57 JUMP JUMPDEST PUSH2 0x8D3 JUMP JUMPDEST STOP JUMPDEST PUSH2 0x15E PUSH2 0xAE1 JUMP JUMPDEST STOP JUMPDEST PUSH1 0x0 PUSH1 0x1 PUSH1 0x0 DUP5 DUP2 MSTORE PUSH1 0x20 ADD SWAP1 DUP2 MSTORE PUSH1 0x20 ADD PUSH1 0x0 KECCAK256 SWAP1 POP DUP1 PUSH1 0x7 ADD PUSH1 0x0 SWAP1 SLOAD SWAP1 PUSH2 0x100 EXP SWAP1 DIV PUSH1 0xFF AND PUSH2 0x1C8 JUMPI PUSH1 0x40 MLOAD PUSH32 0x8C379A000000000000000000000000000000000000000000000000000000000 DUP2 MSTORE PUSH1 0x4 ADD PUSH2 0x1BF SWAP1 PUSH2 0x1337 JUMP JUMPDEST PUSH1 0x40 MLOAD DUP1 SWAP2 SUB SWAP1 REVERT JUMPDEST PUSH1 0x2 PUSH1 0x40 MLOAD DUP1 PUSH1 0xA0 ADD PUSH1 0x40 MSTORE DUP1 PUSH1 0x4 SLOAD DUP2 MSTORE PUSH1 0x20 ADD DUP6 DUP2 MSTORE PUSH1 0x20 ADD CALLER PUSH20 0xFFFFFFFFFFFFFFFFFFFFFFFFFFFFFFFFFFFFFFFF AND DUP2 MSTORE PUSH1 0x20 ADD DUP5 DUP2 MSTORE PUSH1 0x20 ADD TIMESTAMP DUP2 MSTORE POP SWAP1 DUP1 PUSH1 0x1 DUP2 SLOAD ADD DUP1 DUP3 SSTORE DUP1 SWAP2 POP POP PUSH1 0x1 SWAP1 SUB SWAP1 PUSH1 0x0 MSTORE PUSH1 0x20 PUSH1 0x0 KECCAK256 SWAP1 PUSH1 0x5 MUL ADD PUSH1 0x0 SWAP1 SWAP2 SWAP1 SWAP2 SWAP1 SWAP2 POP PUSH1 0x0 DUP3 ADD MLOAD DUP2 PUSH1 0x0 ADD SSTORE PUSH1 0x20 DUP3 ADD MLOAD DUP2 PUSH1 0x1 ADD SSTORE PUSH1 0x40 DUP3 ADD MLOAD DUP2 PUSH1 0x2 ADD PUSH1 0x0 PUSH2 0x100 EXP DUP2 SLOAD DUP2 PUSH20 0xFFFFFFFFFFFFFFFFFFFFFFFFFFFFFFFFFFFFFFFF MUL NOT AND SWAP1 DUP4 PUSH20 0xFFFFFFFFFFFFFFFFFFFFFFFFFFFFFFFFFFFFFFFF AND MUL OR SWAP1 SSTORE POP PUSH1 0x60 DUP3 ADD MLOAD DUP2 PUSH1 0x3 ADD SSTORE PUSH1 0x80 DUP3 ADD MLOAD DUP2 PUSH1 0x4 ADD SSTORE POP POP PUSH1 0x4 PUSH1 0x0 DUP2 SLOAD DUP1 SWAP3 SWAP2 SWAP1 PUSH2 0x2B6 SWAP1 PUSH2 0x158D JUMP JUMPDEST SWAP2 SWAP1 POP SSTORE POP POP POP POP JUMP JUMPDEST PUSH2 0x2C8 PUSH2 0xB71 JUMP JUMPDEST PUSH1 0x1 PUSH1 0x0 DUP4 DUP2 MSTORE PUSH1 0x20 ADD SWAP1 DUP2 MSTORE PUSH1 0x20 ADD PUSH1 0x0 KECCAK256 PUSH1 0x40 MLOAD DUP1 PUSH2 0x120 ADD PUSH1 0x40 MSTORE SWAP1 DUP2 PUSH1 0x0 DUP3 ADD SLOAD DUP2 MSTORE PUSH1 0x20 ADD PUSH1 0x1 DUP3 ADD DUP1 SLOAD PUSH2 0x301 SWAP1 PUSH2 0x152A JUMP JUMPDEST DUP1 PUSH1 0x1F ADD PUSH1 0x20 DUP1 SWAP2 DIV MUL PUSH1 0x20 ADD PUSH1 0x40 MLOAD SWAP1 DUP2 ADD PUSH1 0x40 MSTORE DUP1 SWAP3 SWAP2 SWAP1 DUP2 DUP2 MSTORE PUSH1 0x20 ADD DUP3 DUP1 SLOAD PUSH2 0x32D SWAP1 PUSH2 0x152A JUMP JUMPDEST DUP1 ISZERO PUSH2 0x37A JUMPI DUP1 PUSH1 0x1F LT PUSH2 0x34F JUMPI PUSH2 0x100 DUP1 DUP4 SLOAD DIV MUL DUP4 MSTORE SWAP2 PUSH1 0x20 ADD SWAP2 PUSH2 0x37A JUMP JUMPDEST DUP3 ADD SWAP2 SWAP1 PUSH1 0x0 MSTORE PUSH1 0x20 PUSH1 0x0 KECCAK256 SWAP1 JUMPDEST DUP2 SLOAD DUP2 MSTORE SWAP1 PUSH1 0x1 ADD SWAP1 PUSH1 0x20 ADD DUP1 DUP4 GT PUSH2 0x35D JUMPI DUP3 SWAP1 SUB PUSH1 0x1F AND DUP3 ADD SWAP2 JUMPDEST POP POP POP POP POP DUP2 MSTORE PUSH1 0x20 ADD PUSH1 0x2 DUP3 ADD DUP1 SLOAD PUSH2 0x393 SWAP1 PUSH2 0x152A JUMP JUMPDEST DUP1 PUSH1 0x1F ADD PUSH1 0x20 DUP1 SWAP2 DIV MUL PUSH1 0x20 ADD PUSH1 0x40 MLOAD SWAP1 DUP2 ADD PUSH1 0x40 MSTORE DUP1 SWAP3 SWAP2 SWAP1 DUP2 DUP2 MSTORE PUSH1 0x20 ADD DUP3 DUP1 SLOAD PUSH2 0x3BF SWAP1 PUSH2 0x152A JUMP JUMPDEST DUP1 ISZERO PUSH2 0x40C JUMPI DUP1 PUSH1 0x1F LT PUSH2 0x3E1 JUMPI PUSH2 0x100 DUP1 DUP4 SLOAD DIV MUL DUP4 MSTORE SWAP2 PUSH1 0x20 ADD SWAP2 PUSH2 0x40C JUMP JUMPDEST DUP3 ADD SWAP2 SWAP1 PUSH1 0x0 MSTORE PUSH1 0x20 PUSH1 0x0 KECCAK256 SWAP1 JUMPDEST DUP2 SLOAD DUP2 MSTORE SWAP1 PUSH1 0x1 ADD SWAP1 PUSH1 0x20 ADD DUP1 DUP4 GT PUSH2 0x3EF JUMPI DUP3 SWAP1 SUB PUSH1 0x1F AND DUP3 ADD SWAP2 JUMPDEST POP POP POP POP POP DUP2 MSTORE PUSH1 0x20 ADD PUSH1 0x3 DUP3 ADD SLOAD DUP2 MSTORE PUSH1 0x20 ADD PUSH1 0x4 DUP3 ADD SLOAD DUP2 MSTORE PUSH1 0x20 ADD PUSH1 0x5 DUP3 ADD SLOAD DUP2 MSTORE PUSH1 0x20 ADD PUSH1 0x6 DUP3 ADD SLOAD DUP2 MSTORE PUSH1 0x20 ADD PUSH1 0x7 DUP3 ADD PUSH1 0x0 SWAP1 SLOAD SWAP1 PUSH2 0x100 EXP SWAP1 DIV PUSH1 0xFF AND ISZERO ISZERO ISZERO ISZERO DUP2 MSTORE PUSH1 0x20 ADD PUSH1 0x7 DUP3 ADD PUSH1 0x1 SWAP1 SLOAD SWAP1 PUSH2 0x100 EXP SWAP1 DIV PUSH20 0xFFFFFFFFFFFFFFFFFFFFFFFFFFFFFFFFFFFFFFFF AND PUSH20 0xFFFFFFFFFFFFFFFFFFFFFFFFFFFFFFFFFFFFFFFF AND PUSH20 0xFFFFFFFFFFFFFFFFFFFFFFFFFFFFFFFFFFFFFFFF AND DUP2 MSTORE POP POP SWAP1 POP SWAP2 SWAP1 POP JUMP JUMPDEST PUSH1 0x60 PUSH1 0x0 PUSH1 0x3 SLOAD PUSH8 0xFFFFFFFFFFFFFFFF DUP2 GT ISZERO PUSH2 0x4D5 JUMPI PUSH2 0x4D4 PUSH2 0x1663 JUMP JUMPDEST JUMPDEST PUSH1 0x40 MLOAD SWAP1 DUP1 DUP3 MSTORE DUP1 PUSH1 0x20 MUL PUSH1 0x20 ADD DUP3 ADD PUSH1 0x40 MSTORE DUP1 ISZERO PUSH2 0x50E JUMPI DUP2 PUSH1 0x20 ADD JUMPDEST PUSH2 0x4FB PUSH2 0xB71 JUMP JUMPDEST DUP2 MSTORE PUSH1 0x20 ADD SWAP1 PUSH1 0x1 SWAP1 SUB SWAP1 DUP2 PUSH2 0x4F3 JUMPI SWAP1 POP JUMPDEST POP SWAP1 POP PUSH1 0x0 JUMPDEST PUSH1 0x3 SLOAD DUP2 LT ISZERO PUSH2 0x735 JUMPI PUSH1 0x1 PUSH1 0x0 DUP3 DUP2 MSTORE PUSH1 0x20 ADD SWAP1 DUP2 MSTORE PUSH1 0x20 ADD PUSH1 0x0 KECCAK256 PUSH1 0x40 MLOAD DUP1 PUSH2 0x120 ADD PUSH1 0x40 MSTORE SWAP1 DUP2 PUSH1 0x0 DUP3 ADD SLOAD DUP2 MSTORE PUSH1 0x20 ADD PUSH1 0x1 DUP3 ADD DUP1 SLOAD PUSH2 0x557 SWAP1 PUSH2 0x152A JUMP JUMPDEST DUP1 PUSH1 0x1F ADD PUSH1 0x20 DUP1 SWAP2 DIV MUL PUSH1 0x20 ADD PUSH1 0x40 MLOAD SWAP1 DUP2 ADD PUSH1 0x40 MSTORE DUP1 SWAP3 SWAP2 SWAP1 DUP2 DUP2 MSTORE PUSH1 0x20 ADD DUP3 DUP1 SLOAD PUSH2 0x583 SWAP1 PUSH2 0x152A JUMP JUMPDEST DUP1 ISZERO PUSH2 0x5D0 JUMPI DUP1 PUSH1 0x1F LT PUSH2 0x5A5 JUMPI PUSH2 0x100 DUP1 DUP4 SLOAD DIV MUL DUP4 MSTORE SWAP2 PUSH1 0x20 ADD SWAP2 PUSH2 0x5D0 JUMP JUMPDEST DUP3 ADD SWAP2 SWAP1 PUSH1 0x0 MSTORE PUSH1 0x20 PUSH1 0x0 KECCAK256 SWAP1 JUMPDEST DUP2 SLOAD DUP2 MSTORE SWAP1 PUSH1 0x1 ADD SWAP1 PUSH1 0x20 ADD DUP1 DUP4 GT PUSH2 0x5B3 JUMPI DUP3 SWAP1 SUB PUSH1 0x1F AND DUP3 ADD SWAP2 JUMPDEST POP POP POP POP POP DUP2 MSTORE PUSH1 0x20 ADD PUSH1 0x2 DUP3 ADD DUP1 SLOAD PUSH2 0x5E9 SWAP1 PUSH2 0x152A JUMP JUMPDEST DUP1 PUSH1 0x1F ADD PUSH1 0x20 DUP1 SWAP2 DIV MUL PUSH1 0x20 ADD PUSH1 0x40 MLOAD SWAP1 DUP2 ADD PUSH1 0x40 MSTORE DUP1 SWAP3 SWAP2 SWAP1 DUP2 DUP2 MSTORE PUSH1 0x20 ADD DUP3 DUP1 SLOAD PUSH2 0x615 SWAP1 PUSH2 0x152A JUMP JUMPDEST DUP1 ISZERO PUSH2 0x662 JUMPI DUP1 PUSH1 0x1F LT PUSH2 0x637 JUMPI PUSH2 0x100 DUP1 DUP4 SLOAD DIV MUL DUP4 MSTORE SWAP2 PUSH1 0x20 ADD SWAP2 PUSH2 0x662 JUMP JUMPDEST DUP3 ADD SWAP2 SWAP1 PUSH1 0x0 MSTORE PUSH1 0x20 PUSH1 0x0 KECCAK256 SWAP1 JUMPDEST DUP2 SLOAD DUP2 MSTORE SWAP1 PUSH1 0x1 ADD SWAP1 PUSH1 0x20 ADD DUP1 DUP4 GT PUSH2 0x645 JUMPI DUP3 SWAP1 SUB PUSH1 0x1F AND DUP3 ADD SWAP2 JUMPDEST POP POP POP POP POP DUP2 MSTORE PUSH1 0x20 ADD PUSH1 0x3 DUP3 ADD SLOAD DUP2 MSTORE PUSH1 0x20 ADD PUSH1 0x4 DUP3 ADD SLOAD DUP2 MSTORE PUSH1 0x20 ADD PUSH1 0x5 DUP3 ADD SLOAD DUP2 MSTORE PUSH1 0x20 ADD PUSH1 0x6 DUP3 ADD SLOAD DUP2 MSTORE PUSH1 0x20 ADD PUSH1 0x7 DUP3 ADD PUSH1 0x0 SWAP1 SLOAD SWAP1 PUSH2 0x100 EXP SWAP1 DIV PUSH1 0xFF AND ISZERO ISZERO ISZERO ISZERO DUP2 MSTORE PUSH1 0x20 ADD PUSH1 0x7 DUP3 ADD PUSH1 0x1 SWAP1 SLOAD SWAP1 PUSH2 0x100 EXP SWAP1 DIV PUSH20 0xFFFFFFFFFFFFFFFFFFFFFFFFFFFFFFFFFFFFFFFF AND PUSH20 0xFFFFFFFFFFFFFFFFFFFFFFFFFFFFFFFFFFFFFFFF AND PUSH20 0xFFFFFFFFFFFFFFFFFFFFFFFFFFFFFFFFFFFFFFFF AND DUP2 MSTORE POP POP DUP3 DUP3 DUP2 MLOAD DUP2 LT PUSH2 0x717 JUMPI PUSH2 0x716 PUSH2 0x1634 JUMP JUMPDEST JUMPDEST PUSH1 0x20 MUL PUSH1 0x20 ADD ADD DUP2 SWAP1 MSTORE POP DUP1 DUP1 PUSH2 0x72D SWAP1 PUSH2 0x158D JUMP JUMPDEST SWAP2 POP POP PUSH2 0x514 JUMP JUMPDEST POP DUP1 SWAP2 POP POP SWAP1 JUMP JUMPDEST PUSH1 0x60 PUSH1 0x0 PUSH1 0x4 SLOAD PUSH8 0xFFFFFFFFFFFFFFFF DUP2 GT ISZERO PUSH2 0x75D JUMPI PUSH2 0x75C PUSH2 0x1663 JUMP JUMPDEST JUMPDEST PUSH1 0x40 MLOAD SWAP1 DUP1 DUP3 MSTORE DUP1 PUSH1 0x20 MUL PUSH1 0x20 ADD DUP3 ADD PUSH1 0x40 MSTORE DUP1 ISZERO PUSH2 0x796 JUMPI DUP2 PUSH1 0x20 ADD JUMPDEST PUSH2 0x783 PUSH2 0xBD5 JUMP JUMPDEST DUP2 MSTORE PUSH1 0x20 ADD SWAP1 PUSH1 0x1 SWAP1 SUB SWAP1 DUP2 PUSH2 0x77B JUMPI SWAP1 POP JUMPDEST POP SWAP1 POP PUSH1 0x0 DUP1 JUMPDEST PUSH1 0x4 SLOAD DUP2 LT ISZERO PUSH2 0x8A4 JUMPI PUSH1 0x0 PUSH1 0x2 DUP3 DUP2 SLOAD DUP2 LT PUSH2 0x7BD JUMPI PUSH2 0x7BC PUSH2 0x1634 JUMP JUMPDEST JUMPDEST SWAP1 PUSH1 0x0 MSTORE PUSH1 0x20 PUSH1 0x0 KECCAK256 SWAP1 PUSH1 0x5 MUL ADD SWAP1 POP DUP6 DUP2 PUSH1 0x1 ADD SLOAD EQ ISZERO PUSH2 0x890 JUMPI DUP1 PUSH1 0x40 MLOAD DUP1 PUSH1 0xA0 ADD PUSH1 0x40 MSTORE SWAP1 DUP2 PUSH1 0x0 DUP3 ADD SLOAD DUP2 MSTORE PUSH1 0x20 ADD PUSH1 0x1 DUP3 ADD SLOAD DUP2 MSTORE PUSH1 0x20 ADD PUSH1 0x2 DUP3 ADD PUSH1 0x0 SWAP1 SLOAD SWAP1 PUSH2 0x100 EXP SWAP1 DIV PUSH20 0xFFFFFFFFFFFFFFFFFFFFFFFFFFFFFFFFFFFFFFFF AND PUSH20 0xFFFFFFFFFFFFFFFFFFFFFFFFFFFFFFFFFFFFFFFF AND PUSH20 0xFFFFFFFFFFFFFFFFFFFFFFFFFFFFFFFFFFFFFFFF AND DUP2 MSTORE PUSH1 0x20 ADD PUSH1 0x3 DUP3 ADD SLOAD DUP2 MSTORE PUSH1 0x20 ADD PUSH1 0x4 DUP3 ADD SLOAD DUP2 MSTORE POP POP DUP5 DUP5 DUP2 MLOAD DUP2 LT PUSH2 0x876 JUMPI PUSH2 0x875 PUSH2 0x1634 JUMP JUMPDEST JUMPDEST PUSH1 0x20 MUL PUSH1 0x20 ADD ADD DUP2 SWAP1 MSTORE POP DUP3 DUP1 PUSH2 0x88C SWAP1 PUSH2 0x158D JUMP JUMPDEST SWAP4 POP POP JUMPDEST POP DUP1 DUP1 PUSH2 0x89C SWAP1 PUSH2 0x158D JUMP JUMPDEST SWAP2 POP POP PUSH2 0x79D JUMP JUMPDEST POP DUP2 SWAP3 POP POP POP SWAP2 SWAP1 POP JUMP JUMPDEST PUSH1 0x0 DUP1 SLOAD SWAP1 PUSH2 0x100 EXP SWAP1 DIV PUSH20 0xFFFFFFFFFFFFFFFFFFFFFFFFFFFFFFFFFFFFFFFF AND DUP2 JUMP JUMPDEST CALLER PUSH20 0xFFFFFFFFFFFFFFFFFFFFFFFFFFFFFFFFFFFFFFFF AND PUSH1 0x0 DUP1 SLOAD SWAP1 PUSH2 0x100 EXP SWAP1 DIV PUSH20 0xFFFFFFFFFFFFFFFFFFFFFFFFFFFFFFFFFFFFFFFF AND PUSH20 0xFFFFFFFFFFFFFFFFFFFFFFFFFFFFFFFFFFFFFFFF AND EQ PUSH2 0x961 JUMPI PUSH1 0x40 MLOAD PUSH32 0x8C379A000000000000000000000000000000000000000000000000000000000 DUP2 MSTORE PUSH1 0x4 ADD PUSH2 0x958 SWAP1 PUSH2 0x1357 JUMP JUMPDEST PUSH1 0x40 MLOAD DUP1 SWAP2 SUB SWAP1 REVERT JUMPDEST TIMESTAMP DUP5 GT PUSH2 0x9A3 JUMPI PUSH1 0x40 MLOAD PUSH32 0x8C379A000000000000000000000000000000000000000000000000000000000 DUP2 MSTORE PUSH1 0x4 ADD PUSH2 0x99A SWAP1 PUSH2 0x1317 JUMP JUMPDEST PUSH1 0x40 MLOAD DUP1 SWAP2 SUB SWAP1 REVERT JUMPDEST DUP4 DUP4 GT PUSH2 0x9E5 JUMPI PUSH1 0x40 MLOAD PUSH32 0x8C379A000000000000000000000000000000000000000000000000000000000 DUP2 MSTORE PUSH1 0x4 ADD PUSH2 0x9DC SWAP1 PUSH2 0x12F7 JUMP JUMPDEST PUSH1 0x40 MLOAD DUP1 SWAP2 SUB SWAP1 REVERT JUMPDEST PUSH1 0x0 PUSH1 0x1 PUSH1 0x0 PUSH1 0x3 SLOAD DUP2 MSTORE PUSH1 0x20 ADD SWAP1 DUP2 MSTORE PUSH1 0x20 ADD PUSH1 0x0 KECCAK256 SWAP1 POP PUSH1 0x3 SLOAD DUP2 PUSH1 0x0 ADD DUP2 SWAP1 SSTORE POP DUP7 DUP2 PUSH1 0x1 ADD SWAP1 DUP1 MLOAD SWAP1 PUSH1 0x20 ADD SWAP1 PUSH2 0xA21 SWAP3 SWAP2 SWAP1 PUSH2 0xC1A JUMP JUMPDEST POP DUP6 DUP2 PUSH1 0x2 ADD SWAP1 DUP1 MLOAD SWAP1 PUSH1 0x20 ADD SWAP1 PUSH2 0xA3A SWAP3 SWAP2 SWAP1 PUSH2 0xC1A JUMP JUMPDEST POP DUP5 DUP2 PUSH1 0x3 ADD DUP2 SWAP1 SSTORE POP DUP4 DUP2 PUSH1 0x4 ADD DUP2 SWAP1 SSTORE POP DUP3 DUP2 PUSH1 0x5 ADD DUP2 SWAP1 SSTORE POP PUSH1 0x0 DUP2 PUSH1 0x6 ADD DUP2 SWAP1 SSTORE POP DUP2 DUP2 PUSH1 0x7 ADD PUSH1 0x1 PUSH2 0x100 EXP DUP2 SLOAD DUP2 PUSH20 0xFFFFFFFFFFFFFFFFFFFFFFFFFFFFFFFFFFFFFFFF MUL NOT AND SWAP1 DUP4 PUSH20 0xFFFFFFFFFFFFFFFFFFFFFFFFFFFFFFFFFFFFFFFF AND MUL OR SWAP1 SSTORE POP PUSH1 0x1 DUP2 PUSH1 0x7 ADD PUSH1 0x0 PUSH2 0x100 EXP DUP2 SLOAD DUP2 PUSH1 0xFF MUL NOT AND SWAP1 DUP4 ISZERO ISZERO MUL OR SWAP1 SSTORE POP PUSH1 0x3 PUSH1 0x0 DUP2 SLOAD DUP1 SWAP3 SWAP2 SWAP1 PUSH2 0xAD3 SWAP1 PUSH2 0x158D JUMP JUMPDEST SWAP2 SWAP1 POP SSTORE POP POP POP POP POP POP POP POP JUMP JUMPDEST CALLER PUSH20 0xFFFFFFFFFFFFFFFFFFFFFFFFFFFFFFFFFFFFFFFF AND PUSH1 0x0 DUP1 SLOAD SWAP1 PUSH2 0x100 EXP SWAP1 DIV PUSH20 0xFFFFFFFFFFFFFFFFFFFFFFFFFFFFFFFFFFFFFFFF AND PUSH20 0xFFFFFFFFFFFFFFFFFFFFFFFFFFFFFFFFFFFFFFFF AND EQ PUSH2 0xB6F JUMPI PUSH1 0x40 MLOAD PUSH32 0x8C379A000000000000000000000000000000000000000000000000000000000 DUP2 MSTORE PUSH1 0x4 ADD PUSH2 0xB66 SWAP1 PUSH2 0x1357 JUMP JUMPDEST PUSH1 0x40 MLOAD DUP1 SWAP2 SUB SWAP1 REVERT JUMPDEST JUMP JUMPDEST PUSH1 0x40 MLOAD DUP1 PUSH2 0x120 ADD PUSH1 0x40 MSTORE DUP1 PUSH1 0x0 DUP2 MSTORE PUSH1 0x20 ADD PUSH1 0x60 DUP2 MSTORE PUSH1 0x20 ADD PUSH1 0x60 DUP2 MSTORE PUSH1 0x20 ADD PUSH1 0x0 DUP2 MSTORE PUSH1 0x20 ADD PUSH1 0x0 DUP2 MSTORE PUSH1 0x20 ADD PUSH1 0x0 DUP2 MSTORE PUSH1 0x20 ADD PUSH1 0x0 DUP2 MSTORE PUSH1 0x20 ADD PUSH1 0x0 ISZERO ISZERO DUP2 MSTORE PUSH1 0x20 ADD PUSH1 0x0 PUSH20 0xFFFFFFFFFFFFFFFFFFFFFFFFFFFFFFFFFFFFFFFF AND DUP2 MSTORE POP SWAP1 JUMP JUMPDEST PUSH1 0x40 MLOAD DUP1 PUSH1 0xA0 ADD PUSH1 0x40 MSTORE DUP1 PUSH1 0x0 DUP2 MSTORE PUSH1 0x20 ADD PUSH1 0x0 DUP2 MSTORE PUSH1 0x20 ADD PUSH1 0x0 PUSH20 0xFFFFFFFFFFFFFFFFFFFFFFFFFFFFFFFFFFFFFFFF AND DUP2 MSTORE PUSH1 0x20 ADD PUSH1 0x0 DUP2 MSTORE PUSH1 0x20 ADD PUSH1 0x0 DUP2 MSTORE POP SWAP1 JUMP JUMPDEST DUP3 DUP1 SLOAD PUSH2 0xC26 SWAP1 PUSH2 0x152A JUMP JUMPDEST SWAP1 PUSH1 0x0 MSTORE PUSH1 0x20 PUSH1 0x0 KECCAK256 SWAP1 PUSH1 0x1F ADD PUSH1 0x20 SWAP1 DIV DUP2 ADD SWAP3 DUP3 PUSH2 0xC48 JUMPI PUSH1 0x0 DUP6 SSTORE PUSH2 0xC8F JUMP JUMPDEST DUP3 PUSH1 0x1F LT PUSH2 0xC61 JUMPI DUP1 MLOAD PUSH1 0xFF NOT AND DUP4 DUP1 ADD OR DUP6 SSTORE PUSH2 0xC8F JUMP JUMPDEST DUP3 DUP1 ADD PUSH1 0x1 ADD DUP6 SSTORE DUP3 ISZERO PUSH2 0xC8F JUMPI SWAP2 DUP3 ADD JUMPDEST DUP3 DUP2 GT ISZERO PUSH2 0xC8E JUMPI DUP3 MLOAD DUP3 SSTORE SWAP2 PUSH1 0x20 ADD SWAP2 SWAP1 PUSH1 0x1 ADD SWAP1 PUSH2 0xC73 JUMP JUMPDEST JUMPDEST POP SWAP1 POP PUSH2 0xC9C SWAP2 SWAP1 PUSH2 0xCA0 JUMP JUMPDEST POP SWAP1 JUMP JUMPDEST JUMPDEST DUP1 DUP3 GT ISZERO PUSH2 0xCB9 JUMPI PUSH1 0x0 DUP2 PUSH1 0x0 SWAP1 SSTORE POP PUSH1 0x1 ADD PUSH2 0xCA1 JUMP JUMPDEST POP SWAP1 JUMP JUMPDEST PUSH1 0x0 PUSH2 0xCD0 PUSH2 0xCCB DUP5 PUSH2 0x13BE JUMP JUMPDEST PUSH2 0x1399 JUMP JUMPDEST SWAP1 POP DUP3 DUP2 MSTORE PUSH1 0x20 DUP2 ADD DUP5 DUP5 DUP5 ADD GT ISZERO PUSH2 0xCEC JUMPI PUSH2 0xCEB PUSH2 0x1697 JUMP JUMPDEST JUMPDEST PUSH2 0xCF7 DUP5 DUP3 DUP6 PUSH2 0x14E8 JUMP JUMPDEST POP SWAP4 SWAP3 POP POP POP JUMP JUMPDEST PUSH1 0x0 DUP2 CALLDATALOAD SWAP1 POP PUSH2 0xD0E DUP2 PUSH2 0x17CD JUMP JUMPDEST SWAP3 SWAP2 POP POP JUMP JUMPDEST PUSH1 0x0 DUP3 PUSH1 0x1F DUP4 ADD SLT PUSH2 0xD29 JUMPI PUSH2 0xD28 PUSH2 0x1692 JUMP JUMPDEST JUMPDEST DUP2 CALLDATALOAD PUSH2 0xD39 DUP5 DUP3 PUSH1 0x20 DUP7 ADD PUSH2 0xCBD JUMP JUMPDEST SWAP2 POP POP SWAP3 SWAP2 POP POP JUMP JUMPDEST PUSH1 0x0 DUP2 CALLDATALOAD SWAP1 POP PUSH2 0xD51 DUP2 PUSH2 0x17E4 JUMP JUMPDEST SWAP3 SWAP2 POP POP JUMP JUMPDEST PUSH1 0x0 DUP1 PUSH1 0x0 DUP1 PUSH1 0x0 DUP1 PUSH1 0xC0 DUP8 DUP10 SUB SLT ISZERO PUSH2 0xD74 JUMPI PUSH2 0xD73 PUSH2 0x16A1 JUMP JUMPDEST JUMPDEST PUSH1 0x0 DUP8 ADD CALLDATALOAD PUSH8 0xFFFFFFFFFFFFFFFF DUP2 GT ISZERO PUSH2 0xD92 JUMPI PUSH2 0xD91 PUSH2 0x169C JUMP JUMPDEST JUMPDEST PUSH2 0xD9E DUP10 DUP3 DUP11 ADD PUSH2 0xD14 JUMP JUMPDEST SWAP7 POP POP PUSH1 0x20 DUP8 ADD CALLDATALOAD PUSH8 0xFFFFFFFFFFFFFFFF DUP2 GT ISZERO PUSH2 0xDBF JUMPI PUSH2 0xDBE PUSH2 0x169C JUMP JUMPDEST JUMPDEST PUSH2 0xDCB DUP10 DUP3 DUP11 ADD PUSH2 0xD14 JUMP JUMPDEST SWAP6 POP POP PUSH1 0x40 PUSH2 0xDDC DUP10 DUP3 DUP11 ADD PUSH2 0xD42 JUMP JUMPDEST SWAP5 POP POP PUSH1 0x60 PUSH2 0xDED DUP10 DUP3 DUP11 ADD PUSH2 0xD42 JUMP JUMPDEST SWAP4 POP POP PUSH1 0x80 PUSH2 0xDFE DUP10 DUP3 DUP11 ADD PUSH2 0xD42 JUMP JUMPDEST SWAP3 POP POP PUSH1 0xA0 PUSH2 0xE0F DUP10 DUP3 DUP11 ADD PUSH2 0xCFF JUMP JUMPDEST SWAP2 POP POP SWAP3 SWAP6 POP SWAP3 SWAP6 POP SWAP3 SWAP6 JUMP JUMPDEST PUSH1 0x0 PUSH1 0x20 DUP3 DUP5 SUB SLT ISZERO PUSH2 0xE32 JUMPI PUSH2 0xE31 PUSH2 0x16A1 JUMP JUMPDEST JUMPDEST PUSH1 0x0 PUSH2 0xE40 DUP5 DUP3 DUP6 ADD PUSH2 0xD42 JUMP JUMPDEST SWAP2 POP POP SWAP3 SWAP2 POP POP JUMP JUMPDEST PUSH1 0x0 DUP1 PUSH1 0x40 DUP4 DUP6 SUB SLT ISZERO PUSH2 0xE60 JUMPI PUSH2 0xE5F PUSH2 0x16A1 JUMP JUMPDEST JUMPDEST PUSH1 0x0 PUSH2 0xE6E DUP6 DUP3 DUP7 ADD PUSH2 0xD42 JUMP JUMPDEST SWAP3 POP POP PUSH1 0x20 PUSH2 0xE7F DUP6 DUP3 DUP7 ADD PUSH2 0xD42 JUMP JUMPDEST SWAP2 POP POP SWAP3 POP SWAP3 SWAP1 POP JUMP JUMPDEST PUSH1 0x0 PUSH2 0xE95 DUP4 DUP4 PUSH2 0x1089 JUMP JUMPDEST SWAP1 POP SWAP3 SWAP2 POP POP JUMP JUMPDEST PUSH1 0x0 PUSH2 0xEA9 DUP4 DUP4 PUSH2 0x1221 JUMP JUMPDEST PUSH1 0xA0 DUP4 ADD SWAP1 POP SWAP3 SWAP2 POP POP JUMP JUMPDEST PUSH2 0xEBE DUP2 PUSH2 0x14A0 JUMP JUMPDEST DUP3 MSTORE POP POP JUMP JUMPDEST PUSH2 0xECD DUP2 PUSH2 0x148E JUMP JUMPDEST DUP3 MSTORE POP POP JUMP JUMPDEST PUSH2 0xEDC DUP2 PUSH2 0x148E JUMP JUMPDEST DUP3 MSTORE POP POP JUMP JUMPDEST PUSH1 0x0 PUSH2 0xEED DUP3 PUSH2 0x140F JUMP JUMPDEST PUSH2 0xEF7 DUP2 DUP6 PUSH2 0x144A JUMP JUMPDEST SWAP4 POP DUP4 PUSH1 0x20 DUP3 MUL DUP6 ADD PUSH2 0xF09 DUP6 PUSH2 0x13EF JUMP JUMPDEST DUP1 PUSH1 0x0 JUMPDEST DUP6 DUP2 LT ISZERO PUSH2 0xF45 JUMPI DUP5 DUP5 SUB DUP10 MSTORE DUP2 MLOAD PUSH2 0xF26 DUP6 DUP3 PUSH2 0xE89 JUMP JUMPDEST SWAP5 POP PUSH2 0xF31 DUP4 PUSH2 0x1430 JUMP JUMPDEST SWAP3 POP PUSH1 0x20 DUP11 ADD SWAP10 POP POP PUSH1 0x1 DUP2 ADD SWAP1 POP PUSH2 0xF0D JUMP JUMPDEST POP DUP3 SWAP8 POP DUP8 SWAP6 POP POP POP POP POP POP SWAP3 SWAP2 POP POP JUMP JUMPDEST PUSH1 0x0 PUSH2 0xF62 DUP3 PUSH2 0x141A JUMP JUMPDEST PUSH2 0xF6C DUP2 DUP6 PUSH2 0x145B JUMP JUMPDEST SWAP4 POP PUSH2 0xF77 DUP4 PUSH2 0x13FF JUMP JUMPDEST DUP1 PUSH1 0x0 JUMPDEST DUP4 DUP2 LT ISZERO PUSH2 0xFA8 JUMPI DUP2 MLOAD PUSH2 0xF8F DUP9 DUP3 PUSH2 0xE9D JUMP JUMPDEST SWAP8 POP PUSH2 0xF9A DUP4 PUSH2 0x143D JUMP JUMPDEST SWAP3 POP POP PUSH1 0x1 DUP2 ADD SWAP1 POP PUSH2 0xF7B JUMP JUMPDEST POP DUP6 SWAP4 POP POP POP POP SWAP3 SWAP2 POP POP JUMP JUMPDEST PUSH2 0xFBE DUP2 PUSH2 0x14B2 JUMP JUMPDEST DUP3 MSTORE POP POP JUMP JUMPDEST PUSH1 0x0 PUSH2 0xFCF DUP3 PUSH2 0x1425 JUMP JUMPDEST PUSH2 0xFD9 DUP2 DUP6 PUSH2 0x146C JUMP JUMPDEST SWAP4 POP PUSH2 0xFE9 DUP2 DUP6 PUSH1 0x20 DUP7 ADD PUSH2 0x14F7 JUMP JUMPDEST PUSH2 0xFF2 DUP2 PUSH2 0x16A6 JUMP JUMPDEST DUP5 ADD SWAP2 POP POP SWAP3 SWAP2 POP POP JUMP JUMPDEST PUSH1 0x0 PUSH2 0x100A PUSH1 0x35 DUP4 PUSH2 0x147D JUMP JUMPDEST SWAP2 POP PUSH2 0x1015 DUP3 PUSH2 0x16B7 JUMP JUMPDEST PUSH1 0x40 DUP3 ADD SWAP1 POP SWAP2 SWAP1 POP JUMP JUMPDEST PUSH1 0x0 PUSH2 0x102D PUSH1 0x39 DUP4 PUSH2 0x147D JUMP JUMPDEST SWAP2 POP PUSH2 0x1038 DUP3 PUSH2 0x1706 JUMP JUMPDEST PUSH1 0x40 DUP3 ADD SWAP1 POP SWAP2 SWAP1 POP JUMP JUMPDEST PUSH1 0x0 PUSH2 0x1050 PUSH1 0xF DUP4 PUSH2 0x147D JUMP JUMPDEST SWAP2 POP PUSH2 0x105B DUP3 PUSH2 0x1755 JUMP JUMPDEST PUSH1 0x20 DUP3 ADD SWAP1 POP SWAP2 SWAP1 POP JUMP JUMPDEST PUSH1 0x0 PUSH2 0x1073 PUSH1 0x2E DUP4 PUSH2 0x147D JUMP JUMPDEST SWAP2 POP PUSH2 0x107E DUP3 PUSH2 0x177E JUMP JUMPDEST PUSH1 0x40 DUP3 ADD SWAP1 POP SWAP2 SWAP1 POP JUMP JUMPDEST PUSH1 0x0 PUSH2 0x120 DUP4 ADD PUSH1 0x0 DUP4 ADD MLOAD PUSH2 0x10A2 PUSH1 0x0 DUP7 ADD DUP3 PUSH2 0x1289 JUMP JUMPDEST POP PUSH1 0x20 DUP4 ADD MLOAD DUP5 DUP3 SUB PUSH1 0x20 DUP7 ADD MSTORE PUSH2 0x10BA DUP3 DUP3 PUSH2 0xFC4 JUMP JUMPDEST SWAP2 POP POP PUSH1 0x40 DUP4 ADD MLOAD DUP5 DUP3 SUB PUSH1 0x40 DUP7 ADD MSTORE PUSH2 0x10D4 DUP3 DUP3 PUSH2 0xFC4 JUMP JUMPDEST SWAP2 POP POP PUSH1 0x60 DUP4 ADD MLOAD PUSH2 0x10E9 PUSH1 0x60 DUP7 ADD DUP3 PUSH2 0x1289 JUMP JUMPDEST POP PUSH1 0x80 DUP4 ADD MLOAD PUSH2 0x10FC PUSH1 0x80 DUP7 ADD DUP3 PUSH2 0x1289 JUMP JUMPDEST POP PUSH1 0xA0 DUP4 ADD MLOAD PUSH2 0x110F PUSH1 0xA0 DUP7 ADD DUP3 PUSH2 0x1289 JUMP JUMPDEST POP PUSH1 0xC0 DUP4 ADD MLOAD PUSH2 0x1122 PUSH1 0xC0 DUP7 ADD DUP3 PUSH2 0x1289 JUMP JUMPDEST POP PUSH1 0xE0 DUP4 ADD MLOAD PUSH2 0x1135 PUSH1 0xE0 DUP7 ADD DUP3 PUSH2 0xFB5 JUMP JUMPDEST POP PUSH2 0x100 DUP4 ADD MLOAD PUSH2 0x114A PUSH2 0x100 DUP7 ADD DUP3 PUSH2 0xEB5 JUMP JUMPDEST POP DUP1 SWAP2 POP POP SWAP3 SWAP2 POP POP JUMP JUMPDEST PUSH1 0x0 PUSH2 0x120 DUP4 ADD PUSH1 0x0 DUP4 ADD MLOAD PUSH2 0x116E PUSH1 0x0 DUP7 ADD DUP3 PUSH2 0x1289 JUMP JUMPDEST POP PUSH1 0x20 DUP4 ADD MLOAD DUP5 DUP3 SUB PUSH1 0x20 DUP7 ADD MSTORE PUSH2 0x1186 DUP3 DUP3 PUSH2 0xFC4 JUMP JUMPDEST SWAP2 POP POP PUSH1 0x40 DUP4 ADD MLOAD DUP5 DUP3 SUB PUSH1 0x40 DUP7 ADD MSTORE PUSH2 0x11A0 DUP3 DUP3 PUSH2 0xFC4 JUMP JUMPDEST SWAP2 POP POP PUSH1 0x60 DUP4 ADD MLOAD PUSH2 0x11B5 PUSH1 0x60 DUP7 ADD DUP3 PUSH2 0x1289 JUMP JUMPDEST POP PUSH1 0x80 DUP4 ADD MLOAD PUSH2 0x11C8 PUSH1 0x80 DUP7 ADD DUP3 PUSH2 0x1289 JUMP JUMPDEST POP PUSH1 0xA0 DUP4 ADD MLOAD PUSH2 0x11DB PUSH1 0xA0 DUP7 ADD DUP3 PUSH2 0x1289 JUMP JUMPDEST POP PUSH1 0xC0 DUP4 ADD MLOAD PUSH2 0x11EE PUSH1 0xC0 DUP7 ADD DUP3 PUSH2 0x1289 JUMP JUMPDEST POP PUSH1 0xE0 DUP4 ADD MLOAD PUSH2 0x1201 PUSH1 0xE0 DUP7 ADD DUP3 PUSH2 0xFB5 JUMP JUMPDEST POP PUSH2 0x100 DUP4 ADD MLOAD PUSH2 0x1216 PUSH2 0x100 DUP7 ADD DUP3 PUSH2 0xEB5 JUMP JUMPDEST POP DUP1 SWAP2 POP POP SWAP3 SWAP2 POP POP JUMP JUMPDEST PUSH1 0xA0 DUP3 ADD PUSH1 0x0 DUP3 ADD MLOAD PUSH2 0x1237 PUSH1 0x0 DUP6 ADD DUP3 PUSH2 0x1289 JUMP JUMPDEST POP PUSH1 0x20 DUP3 ADD MLOAD PUSH2 0x124A PUSH1 0x20 DUP6 ADD DUP3 PUSH2 0x1289 JUMP JUMPDEST POP PUSH1 0x40 DUP3 ADD MLOAD PUSH2 0x125D PUSH1 0x40 DUP6 ADD DUP3 PUSH2 0xEC4 JUMP JUMPDEST POP PUSH1 0x60 DUP3 ADD MLOAD PUSH2 0x1270 PUSH1 0x60 DUP6 ADD DUP3 PUSH2 0x1289 JUMP JUMPDEST POP PUSH1 0x80 DUP3 ADD MLOAD PUSH2 0x1283 PUSH1 0x80 DUP6 ADD DUP3 PUSH2 0x1289 JUMP JUMPDEST POP POP POP POP JUMP JUMPDEST PUSH2 0x1292 DUP2 PUSH2 0x14DE JUMP JUMPDEST DUP3 MSTORE POP POP JUMP JUMPDEST PUSH1 0x0 PUSH1 0x20 DUP3 ADD SWAP1 POP PUSH2 0x12AD PUSH1 0x0 DUP4 ADD DUP5 PUSH2 0xED3 JUMP JUMPDEST SWAP3 SWAP2 POP POP JUMP JUMPDEST PUSH1 0x0 PUSH1 0x20 DUP3 ADD SWAP1 POP DUP2 DUP2 SUB PUSH1 0x0 DUP4 ADD MSTORE PUSH2 0x12CD DUP2 DUP5 PUSH2 0xEE2 JUMP JUMPDEST SWAP1 POP SWAP3 SWAP2 POP POP JUMP JUMPDEST PUSH1 0x0 PUSH1 0x20 DUP3 ADD SWAP1 POP DUP2 DUP2 SUB PUSH1 0x0 DUP4 ADD MSTORE PUSH2 0x12EF DUP2 DUP5 PUSH2 0xF57 JUMP JUMPDEST SWAP1 POP SWAP3 SWAP2 POP POP JUMP JUMPDEST PUSH1 0x0 PUSH1 0x20 DUP3 ADD SWAP1 POP DUP2 DUP2 SUB PUSH1 0x0 DUP4 ADD MSTORE PUSH2 0x1310 DUP2 PUSH2 0xFFD JUMP JUMPDEST SWAP1 POP SWAP2 SWAP1 POP JUMP JUMPDEST PUSH1 0x0 PUSH1 0x20 DUP3 ADD SWAP1 POP DUP2 DUP2 SUB PUSH1 0x0 DUP4 ADD MSTORE PUSH2 0x1330 DUP2 PUSH2 0x1020 JUMP JUMPDEST SWAP1 POP SWAP2 SWAP1 POP JUMP JUMPDEST PUSH1 0x0 PUSH1 0x20 DUP3 ADD SWAP1 POP DUP2 DUP2 SUB PUSH1 0x0 DUP4 ADD MSTORE PUSH2 0x1350 DUP2 PUSH2 0x1043 JUMP JUMPDEST SWAP1 POP SWAP2 SWAP1 POP JUMP JUMPDEST PUSH1 0x0 PUSH1 0x20 DUP3 ADD SWAP1 POP DUP2 DUP2 SUB PUSH1 0x0 DUP4 ADD MSTORE PUSH2 0x1370 DUP2 PUSH2 0x1066 JUMP JUMPDEST SWAP1 POP SWAP2 SWAP1 POP JUMP JUMPDEST PUSH1 0x0 PUSH1 0x20 DUP3 ADD SWAP1 POP DUP2 DUP2 SUB PUSH1 0x0 DUP4 ADD MSTORE PUSH2 0x1391 DUP2 DUP5 PUSH2 0x1155 JUMP JUMPDEST SWAP1 POP SWAP3 SWAP2 POP POP JUMP JUMPDEST PUSH1 0x0 PUSH2 0x13A3 PUSH2 0x13B4 JUMP JUMPDEST SWAP1 POP PUSH2 0x13AF DUP3 DUP3 PUSH2 0x155C JUMP JUMPDEST SWAP2 SWAP1 POP JUMP JUMPDEST PUSH1 0x0 PUSH1 0x40 MLOAD SWAP1 POP SWAP1 JUMP JUMPDEST PUSH1 0x0 PUSH8 0xFFFFFFFFFFFFFFFF DUP3 GT ISZERO PUSH2 0x13D9 JUMPI PUSH2 0x13D8 PUSH2 0x1663 JUMP JUMPDEST JUMPDEST PUSH2 0x13E2 DUP3 PUSH2 0x16A6 JUMP JUMPDEST SWAP1 POP PUSH1 0x20 DUP2 ADD SWAP1 POP SWAP2 SWAP1 POP JUMP JUMPDEST PUSH1 0x0 DUP2 SWAP1 POP PUSH1 0x20 DUP3 ADD SWAP1 POP SWAP2 SWAP1 POP JUMP JUMPDEST PUSH1 0x0 DUP2 SWAP1 POP PUSH1 0x20 DUP3 ADD SWAP1 POP SWAP2 SWAP1 POP JUMP JUMPDEST PUSH1 0x0 DUP2 MLOAD SWAP1 POP SWAP2 SWAP1 POP JUMP JUMPDEST PUSH1 0x0 DUP2 MLOAD SWAP1 POP SWAP2 SWAP1 POP JUMP JUMPDEST PUSH1 0x0 DUP2 MLOAD SWAP1 POP SWAP2 SWAP1 POP JUMP JUMPDEST PUSH1 0x0 PUSH1 0x20 DUP3 ADD SWAP1 POP SWAP2 SWAP1 POP JUMP JUMPDEST PUSH1 0x0 PUSH1 0x20 DUP3 ADD SWAP1 POP SWAP2 SWAP1 POP JUMP JUMPDEST PUSH1 0x0 DUP3 DUP3 MSTORE PUSH1 0x20 DUP3 ADD SWAP1 POP SWAP3 SWAP2 POP POP JUMP JUMPDEST PUSH1 0x0 DUP3 DUP3 MSTORE PUSH1 0x20 DUP3 ADD SWAP1 POP SWAP3 SWAP2 POP POP JUMP JUMPDEST PUSH1 0x0 DUP3 DUP3 MSTORE PUSH1 0x20 DUP3 ADD SWAP1 POP SWAP3 SWAP2 POP POP JUMP JUMPDEST PUSH1 0x0 DUP3 DUP3 MSTORE PUSH1 0x20 DUP3 ADD SWAP1 POP SWAP3 SWAP2 POP POP JUMP JUMPDEST PUSH1 0x0 PUSH2 0x1499 DUP3 PUSH2 0x14BE JUMP JUMPDEST SWAP1 POP SWAP2 SWAP1 POP JUMP JUMPDEST PUSH1 0x0 PUSH2 0x14AB DUP3 PUSH2 0x14BE JUMP JUMPDEST SWAP1 POP SWAP2 SWAP1 POP JUMP JUMPDEST PUSH1 0x0 DUP2 ISZERO ISZERO SWAP1 POP SWAP2 SWAP1 POP JUMP JUMPDEST PUSH1 0x0 PUSH20 0xFFFFFFFFFFFFFFFFFFFFFFFFFFFFFFFFFFFFFFFF DUP3 AND SWAP1 POP SWAP2 SWAP1 POP JUMP JUMPDEST PUSH1 0x0 DUP2 SWAP1 POP SWAP2 SWAP1 POP JUMP JUMPDEST DUP3 DUP2 DUP4 CALLDATACOPY PUSH1 0x0 DUP4 DUP4 ADD MSTORE POP POP POP JUMP JUMPDEST PUSH1 0x0 JUMPDEST DUP4 DUP2 LT ISZERO PUSH2 0x1515 JUMPI DUP1 DUP3 ADD MLOAD DUP2 DUP5 ADD MSTORE PUSH1 0x20 DUP2 ADD SWAP1 POP PUSH2 0x14FA JUMP JUMPDEST DUP4 DUP2 GT ISZERO PUSH2 0x1524 JUMPI PUSH1 0x0 DUP5 DUP5 ADD MSTORE JUMPDEST POP POP POP POP JUMP JUMPDEST PUSH1 0x0 PUSH1 0x2 DUP3 DIV SWAP1 POP PUSH1 0x1 DUP3 AND DUP1 PUSH2 0x1542 JUMPI PUSH1 0x7F DUP3 AND SWAP2 POP JUMPDEST PUSH1 0x20 DUP3 LT DUP2 EQ ISZERO PUSH2 0x1556 JUMPI PUSH2 0x1555 PUSH2 0x1605 JUMP JUMPDEST JUMPDEST POP SWAP2 SWAP1 POP JUMP JUMPDEST PUSH2 0x1565 DUP3 PUSH2 0x16A6 JUMP JUMPDEST DUP2 ADD DUP2 DUP2 LT PUSH8 0xFFFFFFFFFFFFFFFF DUP3 GT OR ISZERO PUSH2 0x1584 JUMPI PUSH2 0x1583 PUSH2 0x1663 JUMP JUMPDEST JUMPDEST DUP1 PUSH1 0x40 MSTORE POP POP POP JUMP JUMPDEST PUSH1 0x0 PUSH2 0x1598 DUP3 PUSH2 0x14DE JUMP JUMPDEST SWAP2 POP PUSH32 0xFFFFFFFFFFFFFFFFFFFFFFFFFFFFFFFFFFFFFFFFFFFFFFFFFFFFFFFFFFFFFFFF DUP3 EQ ISZERO PUSH2 0x15CB JUMPI PUSH2 0x15CA PUSH2 0x15D6 JUMP JUMPDEST JUMPDEST PUSH1 0x1 DUP3 ADD SWAP1 POP SWAP2 SWAP1 POP JUMP JUMPDEST PUSH32 0x4E487B7100000000000000000000000000000000000000000000000000000000 PUSH1 0x0 MSTORE PUSH1 0x11 PUSH1 0x4 MSTORE PUSH1 0x24 PUSH1 0x0 REVERT JUMPDEST PUSH32 0x4E487B7100000000000000000000000000000000000000000000000000000000 PUSH1 0x0 MSTORE PUSH1 0x22 PUSH1 0x4 MSTORE PUSH1 0x24 PUSH1 0x0 REVERT JUMPDEST PUSH32 0x4E487B7100000000000000000000000000000000000000000000000000000000 PUSH1 0x0 MSTORE PUSH1 0x32 PUSH1 0x4 MSTORE PUSH1 0x24 PUSH1 0x0 REVERT JUMPDEST PUSH32 0x4E487B7100000000000000000000000000000000000000000000000000000000 PUSH1 0x0 MSTORE PUSH1 0x41 PUSH1 0x4 MSTORE PUSH1 0x24 PUSH1 0x0 REVERT JUMPDEST PUSH1 0x0 DUP1 REVERT JUMPDEST PUSH1 0x0 DUP1 REVERT JUMPDEST PUSH1 0x0 DUP1 REVERT JUMPDEST PUSH1 0x0 DUP1 REVERT JUMPDEST PUSH1 0x0 PUSH1 0x1F NOT PUSH1 0x1F DUP4 ADD AND SWAP1 POP SWAP2 SWAP1 POP JUMP JUMPDEST PUSH32 0x456E6420646174652D74696D652073686F756C64206265206772656174657220 PUSH1 0x0 DUP3 ADD MSTORE PUSH32 0x7468616E20737461727420646174652D74696D652E0000000000000000000000 PUSH1 0x20 DUP3 ADD MSTORE POP JUMP JUMPDEST PUSH32 0x537461727420646174652D74696D652073686F756C6420626520677265617465 PUSH1 0x0 DUP3 ADD MSTORE PUSH32 0x72207468616E2063757272656E7420646174652D74696D652E00000000000000 PUSH1 0x20 DUP3 ADD MSTORE POP JUMP JUMPDEST PUSH32 0x46756E6420697320636C6F7365642E0000000000000000000000000000000000 PUSH1 0x0 DUP3 ADD MSTORE POP JUMP JUMPDEST PUSH32 0x4F6E6C79206D616E6167657220697320616C6C6F77656420746F20616C6C6F77 PUSH1 0x0 DUP3 ADD MSTORE PUSH32 0x656420746F206578656375746520000000000000000000000000000000000000 PUSH1 0x20 DUP3 ADD MSTORE POP JUMP JUMPDEST PUSH2 0x17D6 DUP2 PUSH2 0x14A0 JUMP JUMPDEST DUP2 EQ PUSH2 0x17E1 JUMPI PUSH1 0x0 DUP1 REVERT JUMPDEST POP JUMP JUMPDEST PUSH2 0x17ED DUP2 PUSH2 0x14DE JUMP JUMPDEST DUP2 EQ PUSH2 0x17F8 JUMPI PUSH1 0x0 DUP1 REVERT JUMPDEST POP JUMP INVALID LOG2 PUSH5 0x6970667358 0x22 SLT KECCAK256 0x4B MLOAD PUSH28 0xC5CB03F917EC2CDC6B5F2E7AA66DDD55E08C29E0A20C109D06DA9DC8 CALLCODE PUSH5 0x736F6C6343 STOP ADDMOD SMOD STOP CALLER "
				},
				"gasEstimates": {
					"creation": {
						"codeDepositCost": "1238600",
						"executionCost": "25554",
						"totalCost": "1264154"
					},
					"external": {
						"createFund(string,string,uint256,uint256,uint256,address)": "infinite",
						"createInvestment(uint256,uint256)": "infinite",
						"getAllFunds()": "infinite",
						"getAllInvestmentsForFund(uint256)": "infinite",
						"getFundById(uint256)": "infinite",
						"makePayment()": "2684",
						"manager()": "2533"
					}
				},
				"methodIdentifiers": {
					"createFund(string,string,uint256,uint256,uint256,address)": "526ed285",
					"createInvestment(uint256,uint256)": "135a34a2",
					"getAllFunds()": "1c69b464",
					"getAllInvestmentsForFund(uint256)": "26ef2adf",
					"getFundById(uint256)": "149e685a",
					"makePayment()": "d8d79700",
					"manager()": "481c6a75"
				}
			},
			"storageLayout": {
				"storage": [
					{
						"astId": 3,
						"contract": "contracts/4_CrowdFunding.sol:CrowdFunding",
						"label": "manager",
						"offset": 0,
						"slot": "0",
						"type": "t_address"
					},
					{
						"astId": 38,
						"contract": "contracts/4_CrowdFunding.sol:CrowdFunding",
						"label": "funds",
						"offset": 0,
						"slot": "1",
						"type": "t_mapping(t_uint256,t_struct(Fund)22_storage)"
					},
					{
						"astId": 42,
						"contract": "contracts/4_CrowdFunding.sol:CrowdFunding",
						"label": "investments",
						"offset": 0,
						"slot": "2",
						"type": "t_array(t_struct(Investment)33_storage)dyn_storage"
					},
					{
						"astId": 44,
						"contract": "contracts/4_CrowdFunding.sol:CrowdFunding",
						"label": "fundCount",
						"offset": 0,
						"slot": "3",
						"type": "t_uint256"
					},
					{
						"astId": 46,
						"contract": "contracts/4_CrowdFunding.sol:CrowdFunding",
						"label": "investmentCount",
						"offset": 0,
						"slot": "4",
						"type": "t_uint256"
					}
				],
				"types": {
					"t_address": {
						"encoding": "inplace",
						"label": "address",
						"numberOfBytes": "20"
					},
					"t_address_payable": {
						"encoding": "inplace",
						"label": "address payable",
						"numberOfBytes": "20"
					},
					"t_array(t_struct(Investment)33_storage)dyn_storage": {
						"base": "t_struct(Investment)33_storage",
						"encoding": "dynamic_array",
						"label": "struct CrowdFunding.Investment[]",
						"numberOfBytes": "32"
					},
					"t_bool": {
						"encoding": "inplace",
						"label": "bool",
						"numberOfBytes": "1"
					},
					"t_mapping(t_uint256,t_struct(Fund)22_storage)": {
						"encoding": "mapping",
						"key": "t_uint256",
						"label": "mapping(uint256 => struct CrowdFunding.Fund)",
						"numberOfBytes": "32",
						"value": "t_struct(Fund)22_storage"
					},
					"t_string_storage": {
						"encoding": "bytes",
						"label": "string",
						"numberOfBytes": "32"
					},
					"t_struct(Fund)22_storage": {
						"encoding": "inplace",
						"label": "struct CrowdFunding.Fund",
						"members": [
							{
								"astId": 5,
								"contract": "contracts/4_CrowdFunding.sol:CrowdFunding",
								"label": "id",
								"offset": 0,
								"slot": "0",
								"type": "t_uint256"
							},
							{
								"astId": 7,
								"contract": "contracts/4_CrowdFunding.sol:CrowdFunding",
								"label": "name",
								"offset": 0,
								"slot": "1",
								"type": "t_string_storage"
							},
							{
								"astId": 9,
								"contract": "contracts/4_CrowdFunding.sol:CrowdFunding",
								"label": "description",
								"offset": 0,
								"slot": "2",
								"type": "t_string_storage"
							},
							{
								"astId": 11,
								"contract": "contracts/4_CrowdFunding.sol:CrowdFunding",
								"label": "startDate",
								"offset": 0,
								"slot": "3",
								"type": "t_uint256"
							},
							{
								"astId": 13,
								"contract": "contracts/4_CrowdFunding.sol:CrowdFunding",
								"label": "endDate",
								"offset": 0,
								"slot": "4",
								"type": "t_uint256"
							},
							{
								"astId": 15,
								"contract": "contracts/4_CrowdFunding.sol:CrowdFunding",
								"label": "goalAmount",
								"offset": 0,
								"slot": "5",
								"type": "t_uint256"
							},
							{
								"astId": 17,
								"contract": "contracts/4_CrowdFunding.sol:CrowdFunding",
								"label": "currentAmount",
								"offset": 0,
								"slot": "6",
								"type": "t_uint256"
							},
							{
								"astId": 19,
								"contract": "contracts/4_CrowdFunding.sol:CrowdFunding",
								"label": "isActive",
								"offset": 0,
								"slot": "7",
								"type": "t_bool"
							},
							{
								"astId": 21,
								"contract": "contracts/4_CrowdFunding.sol:CrowdFunding",
								"label": "receiverAddress",
								"offset": 1,
								"slot": "7",
								"type": "t_address_payable"
							}
						],
						"numberOfBytes": "256"
					},
					"t_struct(Investment)33_storage": {
						"encoding": "inplace",
						"label": "struct CrowdFunding.Investment",
						"members": [
							{
								"astId": 24,
								"contract": "contracts/4_CrowdFunding.sol:CrowdFunding",
								"label": "id",
								"offset": 0,
								"slot": "0",
								"type": "t_uint256"
							},
							{
								"astId": 26,
								"contract": "contracts/4_CrowdFunding.sol:CrowdFunding",
								"label": "fundId",
								"offset": 0,
								"slot": "1",
								"type": "t_uint256"
							},
							{
								"astId": 28,
								"contract": "contracts/4_CrowdFunding.sol:CrowdFunding",
								"label": "investorAddress",
								"offset": 0,
								"slot": "2",
								"type": "t_address"
							},
							{
								"astId": 30,
								"contract": "contracts/4_CrowdFunding.sol:CrowdFunding",
								"label": "investorAmount",
								"offset": 0,
								"slot": "3",
								"type": "t_uint256"
							},
							{
								"astId": 32,
								"contract": "contracts/4_CrowdFunding.sol:CrowdFunding",
								"label": "investmentDate",
								"offset": 0,
								"slot": "4",
								"type": "t_uint256"
							}
						],
						"numberOfBytes": "160"
					},
					"t_uint256": {
						"encoding": "inplace",
						"label": "uint256",
						"numberOfBytes": "32"
					}
				}
			},
			"userdoc": {
				"kind": "user",
				"methods": {},
				"version": 1
			}
		}
	}
}