{
	"contracts/4_CrowdFunding.sol": {
		"CrowdFunding": {
			"abi": [
				{
					"inputs": [],
					"stateMutability": "nonpayable",
					"type": "constructor"
				},
				{
					"inputs": [
						{
							"internalType": "string",
							"name": "name",
							"type": "string"
						},
						{
							"internalType": "string",
							"name": "description",
							"type": "string"
						},
						{
							"internalType": "uint256",
							"name": "startDate",
							"type": "uint256"
						},
						{
							"internalType": "uint256",
							"name": "endDate",
							"type": "uint256"
						},
						{
							"internalType": "uint256",
							"name": "goalAmount",
							"type": "uint256"
						},
						{
							"internalType": "address payable",
							"name": "receiverAddress",
							"type": "address"
						}
					],
					"name": "createFund",
					"outputs": [],
					"stateMutability": "nonpayable",
					"type": "function"
				},
				{
					"inputs": [
						{
							"internalType": "uint256",
							"name": "fundId",
							"type": "uint256"
						},
						{
							"internalType": "uint256",
							"name": "amount",
							"type": "uint256"
						}
					],
					"name": "createInvestment",
					"outputs": [],
					"stateMutability": "nonpayable",
					"type": "function"
				},
				{
					"inputs": [],
					"name": "getAllFunds",
					"outputs": [
						{
							"components": [
								{
									"internalType": "uint256",
									"name": "id",
									"type": "uint256"
								},
								{
									"internalType": "string",
									"name": "name",
									"type": "string"
								},
								{
									"internalType": "string",
									"name": "description",
									"type": "string"
								},
								{
									"internalType": "uint256",
									"name": "startDate",
									"type": "uint256"
								},
								{
									"internalType": "uint256",
									"name": "endDate",
									"type": "uint256"
								},
								{
									"internalType": "uint256",
									"name": "goalAmount",
									"type": "uint256"
								},
								{
									"internalType": "uint256",
									"name": "currentAmount",
									"type": "uint256"
								},
								{
									"internalType": "address payable",
									"name": "receiverAddress",
									"type": "address"
								}
							],
							"internalType": "struct CrowdFunding.Fund[]",
							"name": "",
							"type": "tuple[]"
						}
					],
					"stateMutability": "view",
					"type": "function"
				},
				{
					"inputs": [
						{
							"internalType": "uint256",
							"name": "fundId",
							"type": "uint256"
						}
					],
					"name": "getAllInvestmentsForFund",
					"outputs": [
						{
							"components": [
								{
									"internalType": "uint256",
									"name": "id",
									"type": "uint256"
								},
								{
									"internalType": "uint256",
									"name": "fundId",
									"type": "uint256"
								},
								{
									"internalType": "address",
									"name": "investorAddress",
									"type": "address"
								},
								{
									"internalType": "uint256",
									"name": "investorAmount",
									"type": "uint256"
								},
								{
									"internalType": "uint256",
									"name": "investmentDate",
									"type": "uint256"
								}
							],
							"internalType": "struct CrowdFunding.Investment[]",
							"name": "",
							"type": "tuple[]"
						}
					],
					"stateMutability": "view",
					"type": "function"
				},
				{
					"inputs": [
						{
							"internalType": "uint256",
							"name": "fundId",
							"type": "uint256"
						}
					],
					"name": "getFundById",
					"outputs": [
						{
							"components": [
								{
									"internalType": "uint256",
									"name": "id",
									"type": "uint256"
								},
								{
									"internalType": "string",
									"name": "name",
									"type": "string"
								},
								{
									"internalType": "string",
									"name": "description",
									"type": "string"
								},
								{
									"internalType": "uint256",
									"name": "startDate",
									"type": "uint256"
								},
								{
									"internalType": "uint256",
									"name": "endDate",
									"type": "uint256"
								},
								{
									"internalType": "uint256",
									"name": "goalAmount",
									"type": "uint256"
								},
								{
									"internalType": "uint256",
									"name": "currentAmount",
									"type": "uint256"
								},
								{
									"internalType": "address payable",
									"name": "receiverAddress",
									"type": "address"
								}
							],
							"internalType": "struct CrowdFunding.Fund",
							"name": "",
							"type": "tuple"
						}
					],
					"stateMutability": "view",
					"type": "function"
				},
				{
					"inputs": [
						{
							"internalType": "uint256",
							"name": "fundId",
							"type": "uint256"
						}
					],
					"name": "makePayment",
					"outputs": [],
					"stateMutability": "nonpayable",
					"type": "function"
				},
				{
					"inputs": [],
					"name": "manager",
					"outputs": [
						{
							"internalType": "address",
							"name": "",
							"type": "address"
						}
					],
					"stateMutability": "view",
					"type": "function"
				}
			],
			"devdoc": {
				"kind": "dev",
				"methods": {},
				"version": 1
			},
			"evm": {
				"assembly": "    /* \"contracts/4_CrowdFunding.sol\":69:3501  contract CrowdFunding {\r... */\n  mstore(0x40, 0x80)\n    /* \"contracts/4_CrowdFunding.sol\":686:739  constructor() {\r... */\n  callvalue\n  dup1\n  iszero\n  tag_1\n  jumpi\n  0x00\n  dup1\n  revert\ntag_1:\n  pop\n    /* \"contracts/4_CrowdFunding.sol\":721:731  msg.sender */\n  caller\n    /* \"contracts/4_CrowdFunding.sol\":711:718  manager */\n  0x00\n  dup1\n    /* \"contracts/4_CrowdFunding.sol\":711:731  manager = msg.sender */\n  0x0100\n  exp\n  dup2\n  sload\n  dup2\n  0xffffffffffffffffffffffffffffffffffffffff\n  mul\n  not\n  and\n  swap1\n  dup4\n  0xffffffffffffffffffffffffffffffffffffffff\n  and\n  mul\n  or\n  swap1\n  sstore\n  pop\n    /* \"contracts/4_CrowdFunding.sol\":69:3501  contract CrowdFunding {\r... */\n  dataSize(sub_0)\n  dup1\n  dataOffset(sub_0)\n  0x00\n  codecopy\n  0x00\n  return\nstop\n\nsub_0: assembly {\n        /* \"contracts/4_CrowdFunding.sol\":69:3501  contract CrowdFunding {\r... */\n      mstore(0x40, 0x80)\n      callvalue\n      dup1\n      iszero\n      tag_1\n      jumpi\n      0x00\n      dup1\n      revert\n    tag_1:\n      pop\n      jumpi(tag_2, lt(calldatasize, 0x04))\n      shr(0xe0, calldataload(0x00))\n      dup1\n      0x26ef2adf\n      gt\n      tag_10\n      jumpi\n      dup1\n      0x26ef2adf\n      eq\n      tag_6\n      jumpi\n      dup1\n      0x481c6a75\n      eq\n      tag_7\n      jumpi\n      dup1\n      0x5114cb52\n      eq\n      tag_8\n      jumpi\n      dup1\n      0x526ed285\n      eq\n      tag_9\n      jumpi\n      jump(tag_2)\n    tag_10:\n      dup1\n      0x135a34a2\n      eq\n      tag_3\n      jumpi\n      dup1\n      0x149e685a\n      eq\n      tag_4\n      jumpi\n      dup1\n      0x1c69b464\n      eq\n      tag_5\n      jumpi\n    tag_2:\n      0x00\n      dup1\n      revert\n        /* \"contracts/4_CrowdFunding.sol\":2233:2734  function createInvestment(uint256 fundId, uint256 amount) public {\r... */\n    tag_3:\n      tag_11\n      0x04\n      dup1\n      calldatasize\n      sub\n      dup2\n      add\n      swap1\n      tag_12\n      swap2\n      swap1\n      tag_13\n      jump\t// in\n    tag_12:\n      tag_14\n      jump\t// in\n    tag_11:\n      stop\n        /* \"contracts/4_CrowdFunding.sol\":2115:2225  function getFundById(uint256 fundId) public view returns (Fund memory) {\r... */\n    tag_4:\n      tag_15\n      0x04\n      dup1\n      calldatasize\n      sub\n      dup2\n      add\n      swap1\n      tag_16\n      swap2\n      swap1\n      tag_17\n      jump\t// in\n    tag_16:\n      tag_18\n      jump\t// in\n    tag_15:\n      mload(0x40)\n      tag_19\n      swap2\n      swap1\n      tag_20\n      jump\t// in\n    tag_19:\n      mload(0x40)\n      dup1\n      swap2\n      sub\n      swap1\n      return\n        /* \"contracts/4_CrowdFunding.sol\":1854:2107  function getAllFunds() public view returns (Fund[] memory) {\r... */\n    tag_5:\n      tag_21\n      tag_22\n      jump\t// in\n    tag_21:\n      mload(0x40)\n      tag_23\n      swap2\n      swap1\n      tag_24\n      jump\t// in\n    tag_23:\n      mload(0x40)\n      dup1\n      swap2\n      sub\n      swap1\n      return\n        /* \"contracts/4_CrowdFunding.sol\":2742:3237  function getAllInvestmentsForFund(uint256 fundId)\r... */\n    tag_6:\n      tag_25\n      0x04\n      dup1\n      calldatasize\n      sub\n      dup2\n      add\n      swap1\n      tag_26\n      swap2\n      swap1\n      tag_17\n      jump\t// in\n    tag_26:\n      tag_27\n      jump\t// in\n    tag_25:\n      mload(0x40)\n      tag_28\n      swap2\n      swap1\n      tag_29\n      jump\t// in\n    tag_28:\n      mload(0x40)\n      dup1\n      swap2\n      sub\n      swap1\n      return\n        /* \"contracts/4_CrowdFunding.sol\":98:120  address public manager */\n    tag_7:\n      tag_30\n      tag_31\n      jump\t// in\n    tag_30:\n      mload(0x40)\n      tag_32\n      swap2\n      swap1\n      tag_33\n      jump\t// in\n    tag_32:\n      mload(0x40)\n      dup1\n      swap2\n      sub\n      swap1\n      return\n        /* \"contracts/4_CrowdFunding.sol\":3245:3498  function makePayment(uint fundId) public onlyManager {\r... */\n    tag_8:\n      tag_34\n      0x04\n      dup1\n      calldatasize\n      sub\n      dup2\n      add\n      swap1\n      tag_35\n      swap2\n      swap1\n      tag_17\n      jump\t// in\n    tag_35:\n      tag_36\n      jump\t// in\n    tag_34:\n      stop\n        /* \"contracts/4_CrowdFunding.sol\":937:1846  function createFund(\r... */\n    tag_9:\n      tag_37\n      0x04\n      dup1\n      calldatasize\n      sub\n      dup2\n      add\n      swap1\n      tag_38\n      swap2\n      swap1\n      tag_39\n      jump\t// in\n    tag_38:\n      tag_40\n      jump\t// in\n    tag_37:\n      stop\n        /* \"contracts/4_CrowdFunding.sol\":2233:2734  function createInvestment(uint256 fundId, uint256 amount) public {\r... */\n    tag_14:\n        /* \"contracts/4_CrowdFunding.sol\":2309:2326  Fund storage fund */\n      0x00\n        /* \"contracts/4_CrowdFunding.sol\":2329:2334  funds */\n      0x01\n        /* \"contracts/4_CrowdFunding.sol\":2329:2342  funds[fundId] */\n      0x00\n        /* \"contracts/4_CrowdFunding.sol\":2335:2341  fundId */\n      dup5\n        /* \"contracts/4_CrowdFunding.sol\":2329:2342  funds[fundId] */\n      dup2\n      mstore\n      0x20\n      add\n      swap1\n      dup2\n      mstore\n      0x20\n      add\n      0x00\n      keccak256\n        /* \"contracts/4_CrowdFunding.sol\":2309:2342  Fund storage fund = funds[fundId] */\n      swap1\n      pop\n        /* \"contracts/4_CrowdFunding.sol\":2378:2393  block.timestamp */\n      timestamp\n        /* \"contracts/4_CrowdFunding.sol\":2361:2365  fund */\n      dup2\n        /* \"contracts/4_CrowdFunding.sol\":2361:2375  fund.startDate */\n      0x03\n      add\n      sload\n        /* \"contracts/4_CrowdFunding.sol\":2361:2393  fund.startDate < block.timestamp */\n      lt\n        /* \"contracts/4_CrowdFunding.sol\":2353:2432  require(fund.startDate < block.timestamp, \"Fund end-date has not reached yet.\") */\n      tag_42\n      jumpi\n      mload(0x40)\n      0x08c379a000000000000000000000000000000000000000000000000000000000\n      dup2\n      mstore\n      0x04\n      add\n      tag_43\n      swap1\n      tag_44\n      jump\t// in\n    tag_43:\n      mload(0x40)\n      dup1\n      swap2\n      sub\n      swap1\n      revert\n    tag_42:\n        /* \"contracts/4_CrowdFunding.sol\":2445:2456  investments */\n      0x02\n        /* \"contracts/4_CrowdFunding.sol\":2476:2648  Investment(\r... */\n      mload(0x40)\n      dup1\n      0xa0\n      add\n      0x40\n      mstore\n      dup1\n        /* \"contracts/4_CrowdFunding.sol\":2505:2520  investmentCount */\n      sload(0x04)\n        /* \"contracts/4_CrowdFunding.sol\":2476:2648  Investment(\r... */\n      dup2\n      mstore\n      0x20\n      add\n        /* \"contracts/4_CrowdFunding.sol\":2539:2545  fundId */\n      dup6\n        /* \"contracts/4_CrowdFunding.sol\":2476:2648  Investment(\r... */\n      dup2\n      mstore\n      0x20\n      add\n        /* \"contracts/4_CrowdFunding.sol\":2564:2574  msg.sender */\n      caller\n        /* \"contracts/4_CrowdFunding.sol\":2476:2648  Investment(\r... */\n      0xffffffffffffffffffffffffffffffffffffffff\n      and\n      dup2\n      mstore\n      0x20\n      add\n        /* \"contracts/4_CrowdFunding.sol\":2593:2599  amount */\n      dup5\n        /* \"contracts/4_CrowdFunding.sol\":2476:2648  Investment(\r... */\n      dup2\n      mstore\n      0x20\n      add\n        /* \"contracts/4_CrowdFunding.sol\":2618:2633  block.timestamp */\n      timestamp\n        /* \"contracts/4_CrowdFunding.sol\":2476:2648  Investment(\r... */\n      dup2\n      mstore\n      pop\n        /* \"contracts/4_CrowdFunding.sol\":2445:2659  investments.push(\r... */\n      swap1\n      dup1\n      0x01\n      dup2\n      sload\n      add\n      dup1\n      dup3\n      sstore\n      dup1\n      swap2\n      pop\n      pop\n      0x01\n      swap1\n      sub\n      swap1\n      0x00\n      mstore\n      keccak256(0x00, 0x20)\n      swap1\n      0x05\n      mul\n      add\n      0x00\n      swap1\n      swap2\n      swap1\n      swap2\n      swap1\n      swap2\n      pop\n      0x00\n      dup3\n      add\n      mload\n      dup2\n      0x00\n      add\n      sstore\n      0x20\n      dup3\n      add\n      mload\n      dup2\n      0x01\n      add\n      sstore\n      0x40\n      dup3\n      add\n      mload\n      dup2\n      0x02\n      add\n      exp(0x0100, 0x00)\n      dup2\n      sload\n      dup2\n      0xffffffffffffffffffffffffffffffffffffffff\n      mul\n      not\n      and\n      swap1\n      dup4\n      0xffffffffffffffffffffffffffffffffffffffff\n      and\n      mul\n      or\n      swap1\n      sstore\n      pop\n      0x60\n      dup3\n      add\n      mload\n      dup2\n      0x03\n      add\n      sstore\n      0x80\n      dup3\n      add\n      mload\n      dup2\n      0x04\n      add\n      sstore\n      pop\n      pop\n        /* \"contracts/4_CrowdFunding.sol\":2670:2685  investmentCount */\n      0x04\n      0x00\n        /* \"contracts/4_CrowdFunding.sol\":2670:2687  investmentCount++ */\n      dup2\n      sload\n      dup1\n      swap3\n      swap2\n      swap1\n      tag_46\n      swap1\n      tag_47\n      jump\t// in\n    tag_46:\n      swap2\n      swap1\n      pop\n      sstore\n      pop\n        /* \"contracts/4_CrowdFunding.sol\":2720:2726  amount */\n      dup2\n        /* \"contracts/4_CrowdFunding.sol\":2698:2702  fund */\n      dup2\n        /* \"contracts/4_CrowdFunding.sol\":2698:2716  fund.currentAmount */\n      0x06\n      add\n      0x00\n        /* \"contracts/4_CrowdFunding.sol\":2698:2726  fund.currentAmount += amount */\n      dup3\n      dup3\n      sload\n      tag_48\n      swap2\n      swap1\n      tag_49\n      jump\t// in\n    tag_48:\n      swap3\n      pop\n      pop\n      dup2\n      swap1\n      sstore\n      pop\n        /* \"contracts/4_CrowdFunding.sol\":2298:2734  {\r... */\n      pop\n        /* \"contracts/4_CrowdFunding.sol\":2233:2734  function createInvestment(uint256 fundId, uint256 amount) public {\r... */\n      pop\n      pop\n      jump\t// out\n        /* \"contracts/4_CrowdFunding.sol\":2115:2225  function getFundById(uint256 fundId) public view returns (Fund memory) {\r... */\n    tag_18:\n        /* \"contracts/4_CrowdFunding.sol\":2173:2184  Fund memory */\n      tag_50\n      tag_51\n      jump\t// in\n    tag_50:\n        /* \"contracts/4_CrowdFunding.sol\":2204:2209  funds */\n      0x01\n        /* \"contracts/4_CrowdFunding.sol\":2204:2217  funds[fundId] */\n      0x00\n        /* \"contracts/4_CrowdFunding.sol\":2210:2216  fundId */\n      dup4\n        /* \"contracts/4_CrowdFunding.sol\":2204:2217  funds[fundId] */\n      dup2\n      mstore\n      0x20\n      add\n      swap1\n      dup2\n      mstore\n      0x20\n      add\n      0x00\n      keccak256\n        /* \"contracts/4_CrowdFunding.sol\":2197:2217  return funds[fundId] */\n      mload(0x40)\n      dup1\n      0x0100\n      add\n      0x40\n      mstore\n      swap1\n      dup2\n      0x00\n      dup3\n      add\n      sload\n      dup2\n      mstore\n      0x20\n      add\n      0x01\n      dup3\n      add\n      dup1\n      sload\n      tag_53\n      swap1\n      tag_54\n      jump\t// in\n    tag_53:\n      dup1\n      0x1f\n      add\n      0x20\n      dup1\n      swap2\n      div\n      mul\n      0x20\n      add\n      mload(0x40)\n      swap1\n      dup2\n      add\n      0x40\n      mstore\n      dup1\n      swap3\n      swap2\n      swap1\n      dup2\n      dup2\n      mstore\n      0x20\n      add\n      dup3\n      dup1\n      sload\n      tag_55\n      swap1\n      tag_54\n      jump\t// in\n    tag_55:\n      dup1\n      iszero\n      tag_56\n      jumpi\n      dup1\n      0x1f\n      lt\n      tag_57\n      jumpi\n      0x0100\n      dup1\n      dup4\n      sload\n      div\n      mul\n      dup4\n      mstore\n      swap2\n      0x20\n      add\n      swap2\n      jump(tag_56)\n    tag_57:\n      dup3\n      add\n      swap2\n      swap1\n      0x00\n      mstore\n      keccak256(0x00, 0x20)\n      swap1\n    tag_58:\n      dup2\n      sload\n      dup2\n      mstore\n      swap1\n      0x01\n      add\n      swap1\n      0x20\n      add\n      dup1\n      dup4\n      gt\n      tag_58\n      jumpi\n      dup3\n      swap1\n      sub\n      0x1f\n      and\n      dup3\n      add\n      swap2\n    tag_56:\n      pop\n      pop\n      pop\n      pop\n      pop\n      dup2\n      mstore\n      0x20\n      add\n      0x02\n      dup3\n      add\n      dup1\n      sload\n      tag_59\n      swap1\n      tag_54\n      jump\t// in\n    tag_59:\n      dup1\n      0x1f\n      add\n      0x20\n      dup1\n      swap2\n      div\n      mul\n      0x20\n      add\n      mload(0x40)\n      swap1\n      dup2\n      add\n      0x40\n      mstore\n      dup1\n      swap3\n      swap2\n      swap1\n      dup2\n      dup2\n      mstore\n      0x20\n      add\n      dup3\n      dup1\n      sload\n      tag_60\n      swap1\n      tag_54\n      jump\t// in\n    tag_60:\n      dup1\n      iszero\n      tag_61\n      jumpi\n      dup1\n      0x1f\n      lt\n      tag_62\n      jumpi\n      0x0100\n      dup1\n      dup4\n      sload\n      div\n      mul\n      dup4\n      mstore\n      swap2\n      0x20\n      add\n      swap2\n      jump(tag_61)\n    tag_62:\n      dup3\n      add\n      swap2\n      swap1\n      0x00\n      mstore\n      keccak256(0x00, 0x20)\n      swap1\n    tag_63:\n      dup2\n      sload\n      dup2\n      mstore\n      swap1\n      0x01\n      add\n      swap1\n      0x20\n      add\n      dup1\n      dup4\n      gt\n      tag_63\n      jumpi\n      dup3\n      swap1\n      sub\n      0x1f\n      and\n      dup3\n      add\n      swap2\n    tag_61:\n      pop\n      pop\n      pop\n      pop\n      pop\n      dup2\n      mstore\n      0x20\n      add\n      0x03\n      dup3\n      add\n      sload\n      dup2\n      mstore\n      0x20\n      add\n      0x04\n      dup3\n      add\n      sload\n      dup2\n      mstore\n      0x20\n      add\n      0x05\n      dup3\n      add\n      sload\n      dup2\n      mstore\n      0x20\n      add\n      0x06\n      dup3\n      add\n      sload\n      dup2\n      mstore\n      0x20\n      add\n      0x07\n      dup3\n      add\n      0x00\n      swap1\n      sload\n      swap1\n      0x0100\n      exp\n      swap1\n      div\n      0xffffffffffffffffffffffffffffffffffffffff\n      and\n      0xffffffffffffffffffffffffffffffffffffffff\n      and\n      0xffffffffffffffffffffffffffffffffffffffff\n      and\n      dup2\n      mstore\n      pop\n      pop\n      swap1\n      pop\n        /* \"contracts/4_CrowdFunding.sol\":2115:2225  function getFundById(uint256 fundId) public view returns (Fund memory) {\r... */\n      swap2\n      swap1\n      pop\n      jump\t// out\n        /* \"contracts/4_CrowdFunding.sol\":1854:2107  function getAllFunds() public view returns (Fund[] memory) {\r... */\n    tag_22:\n        /* \"contracts/4_CrowdFunding.sol\":1898:1911  Fund[] memory */\n      0x60\n        /* \"contracts/4_CrowdFunding.sol\":1924:1946  Fund[] memory fundList */\n      0x00\n        /* \"contracts/4_CrowdFunding.sol\":1960:1969  fundCount */\n      sload(0x03)\n        /* \"contracts/4_CrowdFunding.sol\":1949:1970  new Fund[](fundCount) */\n      0xffffffffffffffff\n      dup2\n      gt\n      iszero\n      tag_65\n      jumpi\n      tag_66\n      tag_67\n      jump\t// in\n    tag_66:\n    tag_65:\n      mload(0x40)\n      swap1\n      dup1\n      dup3\n      mstore\n      dup1\n      0x20\n      mul\n      0x20\n      add\n      dup3\n      add\n      0x40\n      mstore\n      dup1\n      iszero\n      tag_68\n      jumpi\n      dup2\n      0x20\n      add\n    tag_69:\n      tag_70\n      tag_51\n      jump\t// in\n    tag_70:\n      dup2\n      mstore\n      0x20\n      add\n      swap1\n      0x01\n      swap1\n      sub\n      swap1\n      dup2\n      tag_69\n      jumpi\n      swap1\n      pop\n    tag_68:\n      pop\n        /* \"contracts/4_CrowdFunding.sol\":1924:1970  Fund[] memory fundList = new Fund[](fundCount) */\n      swap1\n      pop\n        /* \"contracts/4_CrowdFunding.sol\":1988:1997  uint256 i */\n      0x00\n        /* \"contracts/4_CrowdFunding.sol\":1983:2072  for (uint256 i = 0; i < fundCount; i++) {\r... */\n    tag_71:\n        /* \"contracts/4_CrowdFunding.sol\":2007:2016  fundCount */\n      sload(0x03)\n        /* \"contracts/4_CrowdFunding.sol\":2003:2004  i */\n      dup2\n        /* \"contracts/4_CrowdFunding.sol\":2003:2016  i < fundCount */\n      lt\n        /* \"contracts/4_CrowdFunding.sol\":1983:2072  for (uint256 i = 0; i < fundCount; i++) {\r... */\n      iszero\n      tag_72\n      jumpi\n        /* \"contracts/4_CrowdFunding.sol\":2052:2057  funds */\n      0x01\n        /* \"contracts/4_CrowdFunding.sol\":2052:2060  funds[i] */\n      0x00\n        /* \"contracts/4_CrowdFunding.sol\":2058:2059  i */\n      dup3\n        /* \"contracts/4_CrowdFunding.sol\":2052:2060  funds[i] */\n      dup2\n      mstore\n      0x20\n      add\n      swap1\n      dup2\n      mstore\n      0x20\n      add\n      0x00\n      keccak256\n        /* \"contracts/4_CrowdFunding.sol\":2038:2060  fundList[i] = funds[i] */\n      mload(0x40)\n      dup1\n      0x0100\n      add\n      0x40\n      mstore\n      swap1\n      dup2\n      0x00\n      dup3\n      add\n      sload\n      dup2\n      mstore\n      0x20\n      add\n      0x01\n      dup3\n      add\n      dup1\n      sload\n      tag_74\n      swap1\n      tag_54\n      jump\t// in\n    tag_74:\n      dup1\n      0x1f\n      add\n      0x20\n      dup1\n      swap2\n      div\n      mul\n      0x20\n      add\n      mload(0x40)\n      swap1\n      dup2\n      add\n      0x40\n      mstore\n      dup1\n      swap3\n      swap2\n      swap1\n      dup2\n      dup2\n      mstore\n      0x20\n      add\n      dup3\n      dup1\n      sload\n      tag_75\n      swap1\n      tag_54\n      jump\t// in\n    tag_75:\n      dup1\n      iszero\n      tag_76\n      jumpi\n      dup1\n      0x1f\n      lt\n      tag_77\n      jumpi\n      0x0100\n      dup1\n      dup4\n      sload\n      div\n      mul\n      dup4\n      mstore\n      swap2\n      0x20\n      add\n      swap2\n      jump(tag_76)\n    tag_77:\n      dup3\n      add\n      swap2\n      swap1\n      0x00\n      mstore\n      keccak256(0x00, 0x20)\n      swap1\n    tag_78:\n      dup2\n      sload\n      dup2\n      mstore\n      swap1\n      0x01\n      add\n      swap1\n      0x20\n      add\n      dup1\n      dup4\n      gt\n      tag_78\n      jumpi\n      dup3\n      swap1\n      sub\n      0x1f\n      and\n      dup3\n      add\n      swap2\n    tag_76:\n      pop\n      pop\n      pop\n      pop\n      pop\n      dup2\n      mstore\n      0x20\n      add\n      0x02\n      dup3\n      add\n      dup1\n      sload\n      tag_79\n      swap1\n      tag_54\n      jump\t// in\n    tag_79:\n      dup1\n      0x1f\n      add\n      0x20\n      dup1\n      swap2\n      div\n      mul\n      0x20\n      add\n      mload(0x40)\n      swap1\n      dup2\n      add\n      0x40\n      mstore\n      dup1\n      swap3\n      swap2\n      swap1\n      dup2\n      dup2\n      mstore\n      0x20\n      add\n      dup3\n      dup1\n      sload\n      tag_80\n      swap1\n      tag_54\n      jump\t// in\n    tag_80:\n      dup1\n      iszero\n      tag_81\n      jumpi\n      dup1\n      0x1f\n      lt\n      tag_82\n      jumpi\n      0x0100\n      dup1\n      dup4\n      sload\n      div\n      mul\n      dup4\n      mstore\n      swap2\n      0x20\n      add\n      swap2\n      jump(tag_81)\n    tag_82:\n      dup3\n      add\n      swap2\n      swap1\n      0x00\n      mstore\n      keccak256(0x00, 0x20)\n      swap1\n    tag_83:\n      dup2\n      sload\n      dup2\n      mstore\n      swap1\n      0x01\n      add\n      swap1\n      0x20\n      add\n      dup1\n      dup4\n      gt\n      tag_83\n      jumpi\n      dup3\n      swap1\n      sub\n      0x1f\n      and\n      dup3\n      add\n      swap2\n    tag_81:\n      pop\n      pop\n      pop\n      pop\n      pop\n      dup2\n      mstore\n      0x20\n      add\n      0x03\n      dup3\n      add\n      sload\n      dup2\n      mstore\n      0x20\n      add\n      0x04\n      dup3\n      add\n      sload\n      dup2\n      mstore\n      0x20\n      add\n      0x05\n      dup3\n      add\n      sload\n      dup2\n      mstore\n      0x20\n      add\n      0x06\n      dup3\n      add\n      sload\n      dup2\n      mstore\n      0x20\n      add\n      0x07\n      dup3\n      add\n      0x00\n      swap1\n      sload\n      swap1\n      0x0100\n      exp\n      swap1\n      div\n      0xffffffffffffffffffffffffffffffffffffffff\n      and\n      0xffffffffffffffffffffffffffffffffffffffff\n      and\n      0xffffffffffffffffffffffffffffffffffffffff\n      and\n      dup2\n      mstore\n      pop\n      pop\n        /* \"contracts/4_CrowdFunding.sol\":2038:2046  fundList */\n      dup3\n        /* \"contracts/4_CrowdFunding.sol\":2047:2048  i */\n      dup3\n        /* \"contracts/4_CrowdFunding.sol\":2038:2049  fundList[i] */\n      dup2\n      mload\n      dup2\n      lt\n      tag_84\n      jumpi\n      tag_85\n      tag_86\n      jump\t// in\n    tag_85:\n    tag_84:\n      0x20\n      mul\n      0x20\n      add\n      add\n        /* \"contracts/4_CrowdFunding.sol\":2038:2060  fundList[i] = funds[i] */\n      dup2\n      swap1\n      mstore\n      pop\n        /* \"contracts/4_CrowdFunding.sol\":2018:2021  i++ */\n      dup1\n      dup1\n      tag_87\n      swap1\n      tag_47\n      jump\t// in\n    tag_87:\n      swap2\n      pop\n      pop\n        /* \"contracts/4_CrowdFunding.sol\":1983:2072  for (uint256 i = 0; i < fundCount; i++) {\r... */\n      jump(tag_71)\n    tag_72:\n      pop\n        /* \"contracts/4_CrowdFunding.sol\":2091:2099  fundList */\n      dup1\n        /* \"contracts/4_CrowdFunding.sol\":2084:2099  return fundList */\n      swap2\n      pop\n      pop\n        /* \"contracts/4_CrowdFunding.sol\":1854:2107  function getAllFunds() public view returns (Fund[] memory) {\r... */\n      swap1\n      jump\t// out\n        /* \"contracts/4_CrowdFunding.sol\":2742:3237  function getAllInvestmentsForFund(uint256 fundId)\r... */\n    tag_27:\n        /* \"contracts/4_CrowdFunding.sol\":2840:2859  Investment[] memory */\n      0x60\n        /* \"contracts/4_CrowdFunding.sol\":2877:2911  Investment[] memory investmentList */\n      0x00\n        /* \"contracts/4_CrowdFunding.sol\":2931:2946  investmentCount */\n      sload(0x04)\n        /* \"contracts/4_CrowdFunding.sol\":2914:2947  new Investment[](investmentCount) */\n      0xffffffffffffffff\n      dup2\n      gt\n      iszero\n      tag_89\n      jumpi\n      tag_90\n      tag_67\n      jump\t// in\n    tag_90:\n    tag_89:\n      mload(0x40)\n      swap1\n      dup1\n      dup3\n      mstore\n      dup1\n      0x20\n      mul\n      0x20\n      add\n      dup3\n      add\n      0x40\n      mstore\n      dup1\n      iszero\n      tag_91\n      jumpi\n      dup2\n      0x20\n      add\n    tag_92:\n      tag_93\n      tag_94\n      jump\t// in\n    tag_93:\n      dup2\n      mstore\n      0x20\n      add\n      swap1\n      0x01\n      swap1\n      sub\n      swap1\n      dup2\n      tag_92\n      jumpi\n      swap1\n      pop\n    tag_91:\n      pop\n        /* \"contracts/4_CrowdFunding.sol\":2877:2947  Investment[] memory investmentList = new Investment[](investmentCount) */\n      swap1\n      pop\n        /* \"contracts/4_CrowdFunding.sol\":2958:2971  uint256 count */\n      0x00\n        /* \"contracts/4_CrowdFunding.sol\":2993:3002  uint256 i */\n      dup1\n        /* \"contracts/4_CrowdFunding.sol\":2988:3196  for (uint256 i = 0; i < investmentCount; i++) {\r... */\n    tag_95:\n        /* \"contracts/4_CrowdFunding.sol\":3012:3027  investmentCount */\n      sload(0x04)\n        /* \"contracts/4_CrowdFunding.sol\":3008:3009  i */\n      dup2\n        /* \"contracts/4_CrowdFunding.sol\":3008:3027  i < investmentCount */\n      lt\n        /* \"contracts/4_CrowdFunding.sol\":2988:3196  for (uint256 i = 0; i < investmentCount; i++) {\r... */\n      iszero\n      tag_96\n      jumpi\n        /* \"contracts/4_CrowdFunding.sol\":3078:3084  fundId */\n      dup5\n        /* \"contracts/4_CrowdFunding.sol\":3053:3064  investments */\n      0x02\n        /* \"contracts/4_CrowdFunding.sol\":3065:3066  i */\n      dup3\n        /* \"contracts/4_CrowdFunding.sol\":3053:3067  investments[i] */\n      dup2\n      sload\n      dup2\n      lt\n      tag_98\n      jumpi\n      tag_99\n      tag_86\n      jump\t// in\n    tag_99:\n    tag_98:\n      swap1\n      0x00\n      mstore\n      keccak256(0x00, 0x20)\n      swap1\n      0x05\n      mul\n      add\n        /* \"contracts/4_CrowdFunding.sol\":3053:3074  investments[i].fundId */\n      0x01\n      add\n      sload\n        /* \"contracts/4_CrowdFunding.sol\":3053:3084  investments[i].fundId == fundId */\n      eq\n        /* \"contracts/4_CrowdFunding.sol\":3049:3185  if (investments[i].fundId == fundId) {\r... */\n      iszero\n      tag_101\n      jumpi\n        /* \"contracts/4_CrowdFunding.sol\":3129:3140  investments */\n      0x02\n        /* \"contracts/4_CrowdFunding.sol\":3141:3142  i */\n      dup2\n        /* \"contracts/4_CrowdFunding.sol\":3129:3143  investments[i] */\n      dup2\n      sload\n      dup2\n      lt\n      tag_102\n      jumpi\n      tag_103\n      tag_86\n      jump\t// in\n    tag_103:\n    tag_102:\n      swap1\n      0x00\n      mstore\n      keccak256(0x00, 0x20)\n      swap1\n      0x05\n      mul\n      add\n        /* \"contracts/4_CrowdFunding.sol\":3105:3143  investmentList[count] = investments[i] */\n      mload(0x40)\n      dup1\n      0xa0\n      add\n      0x40\n      mstore\n      swap1\n      dup2\n      0x00\n      dup3\n      add\n      sload\n      dup2\n      mstore\n      0x20\n      add\n      0x01\n      dup3\n      add\n      sload\n      dup2\n      mstore\n      0x20\n      add\n      0x02\n      dup3\n      add\n      0x00\n      swap1\n      sload\n      swap1\n      0x0100\n      exp\n      swap1\n      div\n      0xffffffffffffffffffffffffffffffffffffffff\n      and\n      0xffffffffffffffffffffffffffffffffffffffff\n      and\n      0xffffffffffffffffffffffffffffffffffffffff\n      and\n      dup2\n      mstore\n      0x20\n      add\n      0x03\n      dup3\n      add\n      sload\n      dup2\n      mstore\n      0x20\n      add\n      0x04\n      dup3\n      add\n      sload\n      dup2\n      mstore\n      pop\n      pop\n        /* \"contracts/4_CrowdFunding.sol\":3105:3119  investmentList */\n      dup4\n        /* \"contracts/4_CrowdFunding.sol\":3120:3125  count */\n      dup4\n        /* \"contracts/4_CrowdFunding.sol\":3105:3126  investmentList[count] */\n      dup2\n      mload\n      dup2\n      lt\n      tag_105\n      jumpi\n      tag_106\n      tag_86\n      jump\t// in\n    tag_106:\n    tag_105:\n      0x20\n      mul\n      0x20\n      add\n      add\n        /* \"contracts/4_CrowdFunding.sol\":3105:3143  investmentList[count] = investments[i] */\n      dup2\n      swap1\n      mstore\n      pop\n        /* \"contracts/4_CrowdFunding.sol\":3162:3169  count++ */\n      dup2\n      dup1\n      tag_107\n      swap1\n      tag_47\n      jump\t// in\n    tag_107:\n      swap3\n      pop\n      pop\n        /* \"contracts/4_CrowdFunding.sol\":3049:3185  if (investments[i].fundId == fundId) {\r... */\n    tag_101:\n        /* \"contracts/4_CrowdFunding.sol\":3029:3032  i++ */\n      dup1\n      dup1\n      tag_108\n      swap1\n      tag_47\n      jump\t// in\n    tag_108:\n      swap2\n      pop\n      pop\n        /* \"contracts/4_CrowdFunding.sol\":2988:3196  for (uint256 i = 0; i < investmentCount; i++) {\r... */\n      jump(tag_95)\n    tag_96:\n      pop\n        /* \"contracts/4_CrowdFunding.sol\":3215:3229  investmentList */\n      dup2\n        /* \"contracts/4_CrowdFunding.sol\":3208:3229  return investmentList */\n      swap3\n      pop\n      pop\n      pop\n        /* \"contracts/4_CrowdFunding.sol\":2742:3237  function getAllInvestmentsForFund(uint256 fundId)\r... */\n      swap2\n      swap1\n      pop\n      jump\t// out\n        /* \"contracts/4_CrowdFunding.sol\":98:120  address public manager */\n    tag_31:\n      0x00\n      dup1\n      sload\n      swap1\n      0x0100\n      exp\n      swap1\n      div\n      0xffffffffffffffffffffffffffffffffffffffff\n      and\n      dup2\n      jump\t// out\n        /* \"contracts/4_CrowdFunding.sol\":3245:3498  function makePayment(uint fundId) public onlyManager {\r... */\n    tag_36:\n        /* \"contracts/4_CrowdFunding.sol\":814:824  msg.sender */\n      caller\n        /* \"contracts/4_CrowdFunding.sol\":803:824  manager == msg.sender */\n      0xffffffffffffffffffffffffffffffffffffffff\n      and\n        /* \"contracts/4_CrowdFunding.sol\":803:810  manager */\n      0x00\n      dup1\n      sload\n      swap1\n      0x0100\n      exp\n      swap1\n      div\n      0xffffffffffffffffffffffffffffffffffffffff\n      and\n        /* \"contracts/4_CrowdFunding.sol\":803:824  manager == msg.sender */\n      0xffffffffffffffffffffffffffffffffffffffff\n      and\n      eq\n        /* \"contracts/4_CrowdFunding.sol\":781:909  require(\r... */\n      tag_110\n      jumpi\n      mload(0x40)\n      0x08c379a000000000000000000000000000000000000000000000000000000000\n      dup2\n      mstore\n      0x04\n      add\n      tag_111\n      swap1\n      tag_112\n      jump\t// in\n    tag_111:\n      mload(0x40)\n      dup1\n      swap2\n      sub\n      swap1\n      revert\n    tag_110:\n        /* \"contracts/4_CrowdFunding.sol\":3309:3326  Fund storage fund */\n      0x00\n        /* \"contracts/4_CrowdFunding.sol\":3329:3334  funds */\n      0x01\n        /* \"contracts/4_CrowdFunding.sol\":3329:3342  funds[fundId] */\n      0x00\n        /* \"contracts/4_CrowdFunding.sol\":3335:3341  fundId */\n      dup4\n        /* \"contracts/4_CrowdFunding.sol\":3329:3342  funds[fundId] */\n      dup2\n      mstore\n      0x20\n      add\n      swap1\n      dup2\n      mstore\n      0x20\n      add\n      0x00\n      keccak256\n        /* \"contracts/4_CrowdFunding.sol\":3309:3342  Fund storage fund = funds[fundId] */\n      swap1\n      pop\n        /* \"contracts/4_CrowdFunding.sol\":3376:3391  block.timestamp */\n      timestamp\n        /* \"contracts/4_CrowdFunding.sol\":3361:3365  fund */\n      dup2\n        /* \"contracts/4_CrowdFunding.sol\":3361:3373  fund.endDate */\n      0x04\n      add\n      sload\n        /* \"contracts/4_CrowdFunding.sol\":3361:3391  fund.endDate < block.timestamp */\n      lt\n        /* \"contracts/4_CrowdFunding.sol\":3353:3430  require(fund.endDate < block.timestamp, \"Fund end-date has not reached yet.\") */\n      tag_114\n      jumpi\n      mload(0x40)\n      0x08c379a000000000000000000000000000000000000000000000000000000000\n      dup2\n      mstore\n      0x04\n      add\n      tag_115\n      swap1\n      tag_44\n      jump\t// in\n    tag_115:\n      mload(0x40)\n      dup1\n      swap2\n      sub\n      swap1\n      revert\n    tag_114:\n        /* \"contracts/4_CrowdFunding.sol\":3441:3445  fund */\n      dup1\n        /* \"contracts/4_CrowdFunding.sol\":3441:3461  fund.receiverAddress */\n      0x07\n      add\n      0x00\n      swap1\n      sload\n      swap1\n      0x0100\n      exp\n      swap1\n      div\n      0xffffffffffffffffffffffffffffffffffffffff\n      and\n        /* \"contracts/4_CrowdFunding.sol\":3441:3470  fund.receiverAddress.transfer */\n      0xffffffffffffffffffffffffffffffffffffffff\n      and\n        /* \"contracts/4_CrowdFunding.sol\":3441:3490  fund.receiverAddress.transfer(fund.currentAmount) */\n      0x08fc\n        /* \"contracts/4_CrowdFunding.sol\":3471:3475  fund */\n      dup3\n        /* \"contracts/4_CrowdFunding.sol\":3471:3489  fund.currentAmount */\n      0x06\n      add\n      sload\n        /* \"contracts/4_CrowdFunding.sol\":3441:3490  fund.receiverAddress.transfer(fund.currentAmount) */\n      swap1\n      dup2\n      iszero\n      mul\n      swap1\n      mload(0x40)\n      0x00\n      mload(0x40)\n      dup1\n      dup4\n      sub\n      dup2\n      dup6\n      dup9\n      dup9\n      call\n      swap4\n      pop\n      pop\n      pop\n      pop\n      iszero\n      dup1\n      iszero\n      tag_117\n      jumpi\n      returndatasize\n      0x00\n      dup1\n      returndatacopy\n      revert(0x00, returndatasize)\n    tag_117:\n      pop\n        /* \"contracts/4_CrowdFunding.sol\":3298:3498  {\r... */\n      pop\n        /* \"contracts/4_CrowdFunding.sol\":3245:3498  function makePayment(uint fundId) public onlyManager {\r... */\n      pop\n      jump\t// out\n        /* \"contracts/4_CrowdFunding.sol\":937:1846  function createFund(\r... */\n    tag_40:\n        /* \"contracts/4_CrowdFunding.sol\":814:824  msg.sender */\n      caller\n        /* \"contracts/4_CrowdFunding.sol\":803:824  manager == msg.sender */\n      0xffffffffffffffffffffffffffffffffffffffff\n      and\n        /* \"contracts/4_CrowdFunding.sol\":803:810  manager */\n      0x00\n      dup1\n      sload\n      swap1\n      0x0100\n      exp\n      swap1\n      div\n      0xffffffffffffffffffffffffffffffffffffffff\n      and\n        /* \"contracts/4_CrowdFunding.sol\":803:824  manager == msg.sender */\n      0xffffffffffffffffffffffffffffffffffffffff\n      and\n      eq\n        /* \"contracts/4_CrowdFunding.sol\":781:909  require(\r... */\n      tag_119\n      jumpi\n      mload(0x40)\n      0x08c379a000000000000000000000000000000000000000000000000000000000\n      dup2\n      mstore\n      0x04\n      add\n      tag_120\n      swap1\n      tag_112\n      jump\t// in\n    tag_120:\n      mload(0x40)\n      dup1\n      swap2\n      sub\n      swap1\n      revert\n    tag_119:\n        /* \"contracts/4_CrowdFunding.sol\":1218:1233  block.timestamp */\n      timestamp\n        /* \"contracts/4_CrowdFunding.sol\":1206:1215  startDate */\n      dup5\n        /* \"contracts/4_CrowdFunding.sol\":1206:1233  startDate > block.timestamp */\n      gt\n        /* \"contracts/4_CrowdFunding.sol\":1184:1318  require(\r... */\n      tag_122\n      jumpi\n      mload(0x40)\n      0x08c379a000000000000000000000000000000000000000000000000000000000\n      dup2\n      mstore\n      0x04\n      add\n      tag_123\n      swap1\n      tag_124\n      jump\t// in\n    tag_123:\n      mload(0x40)\n      dup1\n      swap2\n      sub\n      swap1\n      revert\n    tag_122:\n        /* \"contracts/4_CrowdFunding.sol\":1361:1370  startDate */\n      dup4\n        /* \"contracts/4_CrowdFunding.sol\":1351:1358  endDate */\n      dup4\n        /* \"contracts/4_CrowdFunding.sol\":1351:1370  endDate > startDate */\n      gt\n        /* \"contracts/4_CrowdFunding.sol\":1329:1451  require(\r... */\n      tag_125\n      jumpi\n      mload(0x40)\n      0x08c379a000000000000000000000000000000000000000000000000000000000\n      dup2\n      mstore\n      0x04\n      add\n      tag_126\n      swap1\n      tag_127\n      jump\t// in\n    tag_126:\n      mload(0x40)\n      dup1\n      swap2\n      sub\n      swap1\n      revert\n    tag_125:\n        /* \"contracts/4_CrowdFunding.sol\":1464:1484  Fund storage newFund */\n      0x00\n        /* \"contracts/4_CrowdFunding.sol\":1487:1492  funds */\n      0x01\n        /* \"contracts/4_CrowdFunding.sol\":1487:1503  funds[fundCount] */\n      0x00\n        /* \"contracts/4_CrowdFunding.sol\":1493:1502  fundCount */\n      sload(0x03)\n        /* \"contracts/4_CrowdFunding.sol\":1487:1503  funds[fundCount] */\n      dup2\n      mstore\n      0x20\n      add\n      swap1\n      dup2\n      mstore\n      0x20\n      add\n      0x00\n      keccak256\n        /* \"contracts/4_CrowdFunding.sol\":1464:1503  Fund storage newFund = funds[fundCount] */\n      swap1\n      pop\n        /* \"contracts/4_CrowdFunding.sol\":1527:1536  fundCount */\n      sload(0x03)\n        /* \"contracts/4_CrowdFunding.sol\":1514:1521  newFund */\n      dup2\n        /* \"contracts/4_CrowdFunding.sol\":1514:1524  newFund.id */\n      0x00\n      add\n        /* \"contracts/4_CrowdFunding.sol\":1514:1536  newFund.id = fundCount */\n      dup2\n      swap1\n      sstore\n      pop\n        /* \"contracts/4_CrowdFunding.sol\":1562:1566  name */\n      dup7\n        /* \"contracts/4_CrowdFunding.sol\":1547:1554  newFund */\n      dup2\n        /* \"contracts/4_CrowdFunding.sol\":1547:1559  newFund.name */\n      0x01\n      add\n        /* \"contracts/4_CrowdFunding.sol\":1547:1566  newFund.name = name */\n      swap1\n      dup1\n      mload\n      swap1\n      0x20\n      add\n      swap1\n      tag_128\n      swap3\n      swap2\n      swap1\n      tag_129\n      jump\t// in\n    tag_128:\n      pop\n        /* \"contracts/4_CrowdFunding.sol\":1599:1610  description */\n      dup6\n        /* \"contracts/4_CrowdFunding.sol\":1577:1584  newFund */\n      dup2\n        /* \"contracts/4_CrowdFunding.sol\":1577:1596  newFund.description */\n      0x02\n      add\n        /* \"contracts/4_CrowdFunding.sol\":1577:1610  newFund.description = description */\n      swap1\n      dup1\n      mload\n      swap1\n      0x20\n      add\n      swap1\n      tag_130\n      swap3\n      swap2\n      swap1\n      tag_129\n      jump\t// in\n    tag_130:\n      pop\n        /* \"contracts/4_CrowdFunding.sol\":1641:1650  startDate */\n      dup5\n        /* \"contracts/4_CrowdFunding.sol\":1621:1628  newFund */\n      dup2\n        /* \"contracts/4_CrowdFunding.sol\":1621:1638  newFund.startDate */\n      0x03\n      add\n        /* \"contracts/4_CrowdFunding.sol\":1621:1650  newFund.startDate = startDate */\n      dup2\n      swap1\n      sstore\n      pop\n        /* \"contracts/4_CrowdFunding.sol\":1679:1686  endDate */\n      dup4\n        /* \"contracts/4_CrowdFunding.sol\":1661:1668  newFund */\n      dup2\n        /* \"contracts/4_CrowdFunding.sol\":1661:1676  newFund.endDate */\n      0x04\n      add\n        /* \"contracts/4_CrowdFunding.sol\":1661:1686  newFund.endDate = endDate */\n      dup2\n      swap1\n      sstore\n      pop\n        /* \"contracts/4_CrowdFunding.sol\":1718:1728  goalAmount */\n      dup3\n        /* \"contracts/4_CrowdFunding.sol\":1697:1704  newFund */\n      dup2\n        /* \"contracts/4_CrowdFunding.sol\":1697:1715  newFund.goalAmount */\n      0x05\n      add\n        /* \"contracts/4_CrowdFunding.sol\":1697:1728  newFund.goalAmount = goalAmount */\n      dup2\n      swap1\n      sstore\n      pop\n        /* \"contracts/4_CrowdFunding.sol\":1763:1764  0 */\n      0x00\n        /* \"contracts/4_CrowdFunding.sol\":1739:1746  newFund */\n      dup2\n        /* \"contracts/4_CrowdFunding.sol\":1739:1760  newFund.currentAmount */\n      0x06\n      add\n        /* \"contracts/4_CrowdFunding.sol\":1739:1764  newFund.currentAmount = 0 */\n      dup2\n      swap1\n      sstore\n      pop\n        /* \"contracts/4_CrowdFunding.sol\":1801:1816  receiverAddress */\n      dup2\n        /* \"contracts/4_CrowdFunding.sol\":1775:1782  newFund */\n      dup2\n        /* \"contracts/4_CrowdFunding.sol\":1775:1798  newFund.receiverAddress */\n      0x07\n      add\n      0x00\n        /* \"contracts/4_CrowdFunding.sol\":1775:1816  newFund.receiverAddress = receiverAddress */\n      0x0100\n      exp\n      dup2\n      sload\n      dup2\n      0xffffffffffffffffffffffffffffffffffffffff\n      mul\n      not\n      and\n      swap1\n      dup4\n      0xffffffffffffffffffffffffffffffffffffffff\n      and\n      mul\n      or\n      swap1\n      sstore\n      pop\n        /* \"contracts/4_CrowdFunding.sol\":1827:1836  fundCount */\n      0x03\n      0x00\n        /* \"contracts/4_CrowdFunding.sol\":1827:1838  fundCount++ */\n      dup2\n      sload\n      dup1\n      swap3\n      swap2\n      swap1\n      tag_131\n      swap1\n      tag_47\n      jump\t// in\n    tag_131:\n      swap2\n      swap1\n      pop\n      sstore\n      pop\n        /* \"contracts/4_CrowdFunding.sol\":1173:1846  {\r... */\n      pop\n        /* \"contracts/4_CrowdFunding.sol\":937:1846  function createFund(\r... */\n      pop\n      pop\n      pop\n      pop\n      pop\n      pop\n      jump\t// out\n    tag_51:\n      mload(0x40)\n      dup1\n      0x0100\n      add\n      0x40\n      mstore\n      dup1\n      0x00\n      dup2\n      mstore\n      0x20\n      add\n      0x60\n      dup2\n      mstore\n      0x20\n      add\n      0x60\n      dup2\n      mstore\n      0x20\n      add\n      0x00\n      dup2\n      mstore\n      0x20\n      add\n      0x00\n      dup2\n      mstore\n      0x20\n      add\n      0x00\n      dup2\n      mstore\n      0x20\n      add\n      0x00\n      dup2\n      mstore\n      0x20\n      add\n      and(0xffffffffffffffffffffffffffffffffffffffff, 0x00)\n      dup2\n      mstore\n      pop\n      swap1\n      jump\t// out\n    tag_94:\n      mload(0x40)\n      dup1\n      0xa0\n      add\n      0x40\n      mstore\n      dup1\n      0x00\n      dup2\n      mstore\n      0x20\n      add\n      0x00\n      dup2\n      mstore\n      0x20\n      add\n      and(0xffffffffffffffffffffffffffffffffffffffff, 0x00)\n      dup2\n      mstore\n      0x20\n      add\n      0x00\n      dup2\n      mstore\n      0x20\n      add\n      0x00\n      dup2\n      mstore\n      pop\n      swap1\n      jump\t// out\n    tag_129:\n      dup3\n      dup1\n      sload\n      tag_132\n      swap1\n      tag_54\n      jump\t// in\n    tag_132:\n      swap1\n      0x00\n      mstore\n      keccak256(0x00, 0x20)\n      swap1\n      0x1f\n      add\n      0x20\n      swap1\n      div\n      dup2\n      add\n      swap3\n      dup3\n      tag_134\n      jumpi\n      0x00\n      dup6\n      sstore\n      jump(tag_133)\n    tag_134:\n      dup3\n      0x1f\n      lt\n      tag_135\n      jumpi\n      dup1\n      mload\n      not(0xff)\n      and\n      dup4\n      dup1\n      add\n      or\n      dup6\n      sstore\n      jump(tag_133)\n    tag_135:\n      dup3\n      dup1\n      add\n      0x01\n      add\n      dup6\n      sstore\n      dup3\n      iszero\n      tag_133\n      jumpi\n      swap2\n      dup3\n      add\n    tag_136:\n      dup3\n      dup2\n      gt\n      iszero\n      tag_137\n      jumpi\n      dup3\n      mload\n      dup3\n      sstore\n      swap2\n      0x20\n      add\n      swap2\n      swap1\n      0x01\n      add\n      swap1\n      jump(tag_136)\n    tag_137:\n    tag_133:\n      pop\n      swap1\n      pop\n      tag_138\n      swap2\n      swap1\n      tag_139\n      jump\t// in\n    tag_138:\n      pop\n      swap1\n      jump\t// out\n    tag_139:\n    tag_140:\n      dup1\n      dup3\n      gt\n      iszero\n      tag_141\n      jumpi\n      0x00\n      dup2\n      0x00\n      swap1\n      sstore\n      pop\n      0x01\n      add\n      jump(tag_140)\n    tag_141:\n      pop\n      swap1\n      jump\t// out\n        /* \"#utility.yul\":7:419   */\n    tag_143:\n        /* \"#utility.yul\":85:90   */\n      0x00\n        /* \"#utility.yul\":110:176   */\n      tag_145\n        /* \"#utility.yul\":126:175   */\n      tag_146\n        /* \"#utility.yul\":168:174   */\n      dup5\n        /* \"#utility.yul\":126:175   */\n      tag_147\n      jump\t// in\n    tag_146:\n        /* \"#utility.yul\":110:176   */\n      tag_148\n      jump\t// in\n    tag_145:\n        /* \"#utility.yul\":101:176   */\n      swap1\n      pop\n        /* \"#utility.yul\":199:205   */\n      dup3\n        /* \"#utility.yul\":192:197   */\n      dup2\n        /* \"#utility.yul\":185:206   */\n      mstore\n        /* \"#utility.yul\":237:241   */\n      0x20\n        /* \"#utility.yul\":230:235   */\n      dup2\n        /* \"#utility.yul\":226:242   */\n      add\n        /* \"#utility.yul\":275:278   */\n      dup5\n        /* \"#utility.yul\":266:272   */\n      dup5\n        /* \"#utility.yul\":261:264   */\n      dup5\n        /* \"#utility.yul\":257:273   */\n      add\n        /* \"#utility.yul\":254:279   */\n      gt\n        /* \"#utility.yul\":251:363   */\n      iszero\n      tag_149\n      jumpi\n        /* \"#utility.yul\":282:361   */\n      tag_150\n      tag_151\n      jump\t// in\n    tag_150:\n        /* \"#utility.yul\":251:363   */\n    tag_149:\n        /* \"#utility.yul\":372:413   */\n      tag_152\n        /* \"#utility.yul\":406:412   */\n      dup5\n        /* \"#utility.yul\":401:404   */\n      dup3\n        /* \"#utility.yul\":396:399   */\n      dup6\n        /* \"#utility.yul\":372:413   */\n      tag_153\n      jump\t// in\n    tag_152:\n        /* \"#utility.yul\":91:419   */\n      pop\n        /* \"#utility.yul\":7:419   */\n      swap4\n      swap3\n      pop\n      pop\n      pop\n      jump\t// out\n        /* \"#utility.yul\":425:580   */\n    tag_154:\n        /* \"#utility.yul\":479:484   */\n      0x00\n        /* \"#utility.yul\":517:523   */\n      dup2\n        /* \"#utility.yul\":504:524   */\n      calldataload\n        /* \"#utility.yul\":495:524   */\n      swap1\n      pop\n        /* \"#utility.yul\":533:574   */\n      tag_156\n        /* \"#utility.yul\":568:573   */\n      dup2\n        /* \"#utility.yul\":533:574   */\n      tag_157\n      jump\t// in\n    tag_156:\n        /* \"#utility.yul\":425:580   */\n      swap3\n      swap2\n      pop\n      pop\n      jump\t// out\n        /* \"#utility.yul\":600:940   */\n    tag_158:\n        /* \"#utility.yul\":656:661   */\n      0x00\n        /* \"#utility.yul\":705:708   */\n      dup3\n        /* \"#utility.yul\":698:702   */\n      0x1f\n        /* \"#utility.yul\":690:696   */\n      dup4\n        /* \"#utility.yul\":686:703   */\n      add\n        /* \"#utility.yul\":682:709   */\n      slt\n        /* \"#utility.yul\":672:794   */\n      tag_160\n      jumpi\n        /* \"#utility.yul\":713:792   */\n      tag_161\n      tag_162\n      jump\t// in\n    tag_161:\n        /* \"#utility.yul\":672:794   */\n    tag_160:\n        /* \"#utility.yul\":830:836   */\n      dup2\n        /* \"#utility.yul\":817:837   */\n      calldataload\n        /* \"#utility.yul\":855:934   */\n      tag_163\n        /* \"#utility.yul\":930:933   */\n      dup5\n        /* \"#utility.yul\":922:928   */\n      dup3\n        /* \"#utility.yul\":915:919   */\n      0x20\n        /* \"#utility.yul\":907:913   */\n      dup7\n        /* \"#utility.yul\":903:920   */\n      add\n        /* \"#utility.yul\":855:934   */\n      tag_143\n      jump\t// in\n    tag_163:\n        /* \"#utility.yul\":846:934   */\n      swap2\n      pop\n        /* \"#utility.yul\":662:940   */\n      pop\n        /* \"#utility.yul\":600:940   */\n      swap3\n      swap2\n      pop\n      pop\n      jump\t// out\n        /* \"#utility.yul\":946:1085   */\n    tag_164:\n        /* \"#utility.yul\":992:997   */\n      0x00\n        /* \"#utility.yul\":1030:1036   */\n      dup2\n        /* \"#utility.yul\":1017:1037   */\n      calldataload\n        /* \"#utility.yul\":1008:1037   */\n      swap1\n      pop\n        /* \"#utility.yul\":1046:1079   */\n      tag_166\n        /* \"#utility.yul\":1073:1078   */\n      dup2\n        /* \"#utility.yul\":1046:1079   */\n      tag_167\n      jump\t// in\n    tag_166:\n        /* \"#utility.yul\":946:1085   */\n      swap3\n      swap2\n      pop\n      pop\n      jump\t// out\n        /* \"#utility.yul\":1091:2524   */\n    tag_39:\n        /* \"#utility.yul\":1223:1229   */\n      0x00\n        /* \"#utility.yul\":1231:1237   */\n      dup1\n        /* \"#utility.yul\":1239:1245   */\n      0x00\n        /* \"#utility.yul\":1247:1253   */\n      dup1\n        /* \"#utility.yul\":1255:1261   */\n      0x00\n        /* \"#utility.yul\":1263:1269   */\n      dup1\n        /* \"#utility.yul\":1312:1315   */\n      0xc0\n        /* \"#utility.yul\":1300:1309   */\n      dup8\n        /* \"#utility.yul\":1291:1298   */\n      dup10\n        /* \"#utility.yul\":1287:1310   */\n      sub\n        /* \"#utility.yul\":1283:1316   */\n      slt\n        /* \"#utility.yul\":1280:1400   */\n      iszero\n      tag_169\n      jumpi\n        /* \"#utility.yul\":1319:1398   */\n      tag_170\n      tag_171\n      jump\t// in\n    tag_170:\n        /* \"#utility.yul\":1280:1400   */\n    tag_169:\n        /* \"#utility.yul\":1467:1468   */\n      0x00\n        /* \"#utility.yul\":1456:1465   */\n      dup8\n        /* \"#utility.yul\":1452:1469   */\n      add\n        /* \"#utility.yul\":1439:1470   */\n      calldataload\n        /* \"#utility.yul\":1497:1515   */\n      0xffffffffffffffff\n        /* \"#utility.yul\":1489:1495   */\n      dup2\n        /* \"#utility.yul\":1486:1516   */\n      gt\n        /* \"#utility.yul\":1483:1600   */\n      iszero\n      tag_172\n      jumpi\n        /* \"#utility.yul\":1519:1598   */\n      tag_173\n      tag_174\n      jump\t// in\n    tag_173:\n        /* \"#utility.yul\":1483:1600   */\n    tag_172:\n        /* \"#utility.yul\":1624:1687   */\n      tag_175\n        /* \"#utility.yul\":1679:1686   */\n      dup10\n        /* \"#utility.yul\":1670:1676   */\n      dup3\n        /* \"#utility.yul\":1659:1668   */\n      dup11\n        /* \"#utility.yul\":1655:1677   */\n      add\n        /* \"#utility.yul\":1624:1687   */\n      tag_158\n      jump\t// in\n    tag_175:\n        /* \"#utility.yul\":1614:1687   */\n      swap7\n      pop\n        /* \"#utility.yul\":1410:1697   */\n      pop\n        /* \"#utility.yul\":1764:1766   */\n      0x20\n        /* \"#utility.yul\":1753:1762   */\n      dup8\n        /* \"#utility.yul\":1749:1767   */\n      add\n        /* \"#utility.yul\":1736:1768   */\n      calldataload\n        /* \"#utility.yul\":1795:1813   */\n      0xffffffffffffffff\n        /* \"#utility.yul\":1787:1793   */\n      dup2\n        /* \"#utility.yul\":1784:1814   */\n      gt\n        /* \"#utility.yul\":1781:1898   */\n      iszero\n      tag_176\n      jumpi\n        /* \"#utility.yul\":1817:1896   */\n      tag_177\n      tag_174\n      jump\t// in\n    tag_177:\n        /* \"#utility.yul\":1781:1898   */\n    tag_176:\n        /* \"#utility.yul\":1922:1985   */\n      tag_178\n        /* \"#utility.yul\":1977:1984   */\n      dup10\n        /* \"#utility.yul\":1968:1974   */\n      dup3\n        /* \"#utility.yul\":1957:1966   */\n      dup11\n        /* \"#utility.yul\":1953:1975   */\n      add\n        /* \"#utility.yul\":1922:1985   */\n      tag_158\n      jump\t// in\n    tag_178:\n        /* \"#utility.yul\":1912:1985   */\n      swap6\n      pop\n        /* \"#utility.yul\":1707:1995   */\n      pop\n        /* \"#utility.yul\":2034:2036   */\n      0x40\n        /* \"#utility.yul\":2060:2113   */\n      tag_179\n        /* \"#utility.yul\":2105:2112   */\n      dup10\n        /* \"#utility.yul\":2096:2102   */\n      dup3\n        /* \"#utility.yul\":2085:2094   */\n      dup11\n        /* \"#utility.yul\":2081:2103   */\n      add\n        /* \"#utility.yul\":2060:2113   */\n      tag_164\n      jump\t// in\n    tag_179:\n        /* \"#utility.yul\":2050:2113   */\n      swap5\n      pop\n        /* \"#utility.yul\":2005:2123   */\n      pop\n        /* \"#utility.yul\":2162:2164   */\n      0x60\n        /* \"#utility.yul\":2188:2241   */\n      tag_180\n        /* \"#utility.yul\":2233:2240   */\n      dup10\n        /* \"#utility.yul\":2224:2230   */\n      dup3\n        /* \"#utility.yul\":2213:2222   */\n      dup11\n        /* \"#utility.yul\":2209:2231   */\n      add\n        /* \"#utility.yul\":2188:2241   */\n      tag_164\n      jump\t// in\n    tag_180:\n        /* \"#utility.yul\":2178:2241   */\n      swap4\n      pop\n        /* \"#utility.yul\":2133:2251   */\n      pop\n        /* \"#utility.yul\":2290:2293   */\n      0x80\n        /* \"#utility.yul\":2317:2370   */\n      tag_181\n        /* \"#utility.yul\":2362:2369   */\n      dup10\n        /* \"#utility.yul\":2353:2359   */\n      dup3\n        /* \"#utility.yul\":2342:2351   */\n      dup11\n        /* \"#utility.yul\":2338:2360   */\n      add\n        /* \"#utility.yul\":2317:2370   */\n      tag_164\n      jump\t// in\n    tag_181:\n        /* \"#utility.yul\":2307:2370   */\n      swap3\n      pop\n        /* \"#utility.yul\":2261:2380   */\n      pop\n        /* \"#utility.yul\":2419:2422   */\n      0xa0\n        /* \"#utility.yul\":2446:2507   */\n      tag_182\n        /* \"#utility.yul\":2499:2506   */\n      dup10\n        /* \"#utility.yul\":2490:2496   */\n      dup3\n        /* \"#utility.yul\":2479:2488   */\n      dup11\n        /* \"#utility.yul\":2475:2497   */\n      add\n        /* \"#utility.yul\":2446:2507   */\n      tag_154\n      jump\t// in\n    tag_182:\n        /* \"#utility.yul\":2436:2507   */\n      swap2\n      pop\n        /* \"#utility.yul\":2390:2517   */\n      pop\n        /* \"#utility.yul\":1091:2524   */\n      swap3\n      swap6\n      pop\n      swap3\n      swap6\n      pop\n      swap3\n      swap6\n      jump\t// out\n        /* \"#utility.yul\":2530:2859   */\n    tag_17:\n        /* \"#utility.yul\":2589:2595   */\n      0x00\n        /* \"#utility.yul\":2638:2640   */\n      0x20\n        /* \"#utility.yul\":2626:2635   */\n      dup3\n        /* \"#utility.yul\":2617:2624   */\n      dup5\n        /* \"#utility.yul\":2613:2636   */\n      sub\n        /* \"#utility.yul\":2609:2641   */\n      slt\n        /* \"#utility.yul\":2606:2725   */\n      iszero\n      tag_184\n      jumpi\n        /* \"#utility.yul\":2644:2723   */\n      tag_185\n      tag_171\n      jump\t// in\n    tag_185:\n        /* \"#utility.yul\":2606:2725   */\n    tag_184:\n        /* \"#utility.yul\":2764:2765   */\n      0x00\n        /* \"#utility.yul\":2789:2842   */\n      tag_186\n        /* \"#utility.yul\":2834:2841   */\n      dup5\n        /* \"#utility.yul\":2825:2831   */\n      dup3\n        /* \"#utility.yul\":2814:2823   */\n      dup6\n        /* \"#utility.yul\":2810:2832   */\n      add\n        /* \"#utility.yul\":2789:2842   */\n      tag_164\n      jump\t// in\n    tag_186:\n        /* \"#utility.yul\":2779:2842   */\n      swap2\n      pop\n        /* \"#utility.yul\":2735:2852   */\n      pop\n        /* \"#utility.yul\":2530:2859   */\n      swap3\n      swap2\n      pop\n      pop\n      jump\t// out\n        /* \"#utility.yul\":2865:3339   */\n    tag_13:\n        /* \"#utility.yul\":2933:2939   */\n      0x00\n        /* \"#utility.yul\":2941:2947   */\n      dup1\n        /* \"#utility.yul\":2990:2992   */\n      0x40\n        /* \"#utility.yul\":2978:2987   */\n      dup4\n        /* \"#utility.yul\":2969:2976   */\n      dup6\n        /* \"#utility.yul\":2965:2988   */\n      sub\n        /* \"#utility.yul\":2961:2993   */\n      slt\n        /* \"#utility.yul\":2958:3077   */\n      iszero\n      tag_188\n      jumpi\n        /* \"#utility.yul\":2996:3075   */\n      tag_189\n      tag_171\n      jump\t// in\n    tag_189:\n        /* \"#utility.yul\":2958:3077   */\n    tag_188:\n        /* \"#utility.yul\":3116:3117   */\n      0x00\n        /* \"#utility.yul\":3141:3194   */\n      tag_190\n        /* \"#utility.yul\":3186:3193   */\n      dup6\n        /* \"#utility.yul\":3177:3183   */\n      dup3\n        /* \"#utility.yul\":3166:3175   */\n      dup7\n        /* \"#utility.yul\":3162:3184   */\n      add\n        /* \"#utility.yul\":3141:3194   */\n      tag_164\n      jump\t// in\n    tag_190:\n        /* \"#utility.yul\":3131:3194   */\n      swap3\n      pop\n        /* \"#utility.yul\":3087:3204   */\n      pop\n        /* \"#utility.yul\":3243:3245   */\n      0x20\n        /* \"#utility.yul\":3269:3322   */\n      tag_191\n        /* \"#utility.yul\":3314:3321   */\n      dup6\n        /* \"#utility.yul\":3305:3311   */\n      dup3\n        /* \"#utility.yul\":3294:3303   */\n      dup7\n        /* \"#utility.yul\":3290:3312   */\n      add\n        /* \"#utility.yul\":3269:3322   */\n      tag_164\n      jump\t// in\n    tag_191:\n        /* \"#utility.yul\":3259:3322   */\n      swap2\n      pop\n        /* \"#utility.yul\":3214:3332   */\n      pop\n        /* \"#utility.yul\":2865:3339   */\n      swap3\n      pop\n      swap3\n      swap1\n      pop\n      jump\t// out\n        /* \"#utility.yul\":3345:3581   */\n    tag_192:\n        /* \"#utility.yul\":3454:3464   */\n      0x00\n        /* \"#utility.yul\":3489:3575   */\n      tag_194\n        /* \"#utility.yul\":3571:3574   */\n      dup4\n        /* \"#utility.yul\":3563:3569   */\n      dup4\n        /* \"#utility.yul\":3489:3575   */\n      tag_195\n      jump\t// in\n    tag_194:\n        /* \"#utility.yul\":3475:3575   */\n      swap1\n      pop\n        /* \"#utility.yul\":3345:3581   */\n      swap3\n      swap2\n      pop\n      pop\n      jump\t// out\n        /* \"#utility.yul\":3587:3870   */\n    tag_196:\n        /* \"#utility.yul\":3708:3718   */\n      0x00\n        /* \"#utility.yul\":3729:3827   */\n      tag_198\n        /* \"#utility.yul\":3823:3826   */\n      dup4\n        /* \"#utility.yul\":3815:3821   */\n      dup4\n        /* \"#utility.yul\":3729:3827   */\n      tag_199\n      jump\t// in\n    tag_198:\n        /* \"#utility.yul\":3859:3863   */\n      0xa0\n        /* \"#utility.yul\":3854:3857   */\n      dup4\n        /* \"#utility.yul\":3850:3864   */\n      add\n        /* \"#utility.yul\":3836:3864   */\n      swap1\n      pop\n        /* \"#utility.yul\":3587:3870   */\n      swap3\n      swap2\n      pop\n      pop\n      jump\t// out\n        /* \"#utility.yul\":3876:4008   */\n    tag_200:\n        /* \"#utility.yul\":3969:4001   */\n      tag_202\n        /* \"#utility.yul\":3995:4000   */\n      dup2\n        /* \"#utility.yul\":3969:4001   */\n      tag_203\n      jump\t// in\n    tag_202:\n        /* \"#utility.yul\":3964:3967   */\n      dup3\n        /* \"#utility.yul\":3957:4002   */\n      mstore\n        /* \"#utility.yul\":3876:4008   */\n      pop\n      pop\n      jump\t// out\n        /* \"#utility.yul\":4014:4122   */\n    tag_204:\n        /* \"#utility.yul\":4091:4115   */\n      tag_206\n        /* \"#utility.yul\":4109:4114   */\n      dup2\n        /* \"#utility.yul\":4091:4115   */\n      tag_207\n      jump\t// in\n    tag_206:\n        /* \"#utility.yul\":4086:4089   */\n      dup3\n        /* \"#utility.yul\":4079:4116   */\n      mstore\n        /* \"#utility.yul\":4014:4122   */\n      pop\n      pop\n      jump\t// out\n        /* \"#utility.yul\":4128:4246   */\n    tag_208:\n        /* \"#utility.yul\":4215:4239   */\n      tag_210\n        /* \"#utility.yul\":4233:4238   */\n      dup2\n        /* \"#utility.yul\":4215:4239   */\n      tag_207\n      jump\t// in\n    tag_210:\n        /* \"#utility.yul\":4210:4213   */\n      dup3\n        /* \"#utility.yul\":4203:4240   */\n      mstore\n        /* \"#utility.yul\":4128:4246   */\n      pop\n      pop\n      jump\t// out\n        /* \"#utility.yul\":4316:5387   */\n    tag_211:\n        /* \"#utility.yul\":4475:4478   */\n      0x00\n        /* \"#utility.yul\":4504:4578   */\n      tag_213\n        /* \"#utility.yul\":4572:4577   */\n      dup3\n        /* \"#utility.yul\":4504:4578   */\n      tag_214\n      jump\t// in\n    tag_213:\n        /* \"#utility.yul\":4594:4700   */\n      tag_215\n        /* \"#utility.yul\":4693:4699   */\n      dup2\n        /* \"#utility.yul\":4688:4691   */\n      dup6\n        /* \"#utility.yul\":4594:4700   */\n      tag_216\n      jump\t// in\n    tag_215:\n        /* \"#utility.yul\":4587:4700   */\n      swap4\n      pop\n        /* \"#utility.yul\":4726:4729   */\n      dup4\n        /* \"#utility.yul\":4771:4775   */\n      0x20\n        /* \"#utility.yul\":4763:4769   */\n      dup3\n        /* \"#utility.yul\":4759:4776   */\n      mul\n        /* \"#utility.yul\":4754:4757   */\n      dup6\n        /* \"#utility.yul\":4750:4777   */\n      add\n        /* \"#utility.yul\":4801:4877   */\n      tag_217\n        /* \"#utility.yul\":4871:4876   */\n      dup6\n        /* \"#utility.yul\":4801:4877   */\n      tag_218\n      jump\t// in\n    tag_217:\n        /* \"#utility.yul\":4900:4907   */\n      dup1\n        /* \"#utility.yul\":4931:4932   */\n      0x00\n        /* \"#utility.yul\":4916:5342   */\n    tag_219:\n        /* \"#utility.yul\":4941:4947   */\n      dup6\n        /* \"#utility.yul\":4938:4939   */\n      dup2\n        /* \"#utility.yul\":4935:4948   */\n      lt\n        /* \"#utility.yul\":4916:5342   */\n      iszero\n      tag_221\n      jumpi\n        /* \"#utility.yul\":5012:5021   */\n      dup5\n        /* \"#utility.yul\":5006:5010   */\n      dup5\n        /* \"#utility.yul\":5002:5022   */\n      sub\n        /* \"#utility.yul\":4997:5000   */\n      dup10\n        /* \"#utility.yul\":4990:5023   */\n      mstore\n        /* \"#utility.yul\":5063:5069   */\n      dup2\n        /* \"#utility.yul\":5057:5070   */\n      mload\n        /* \"#utility.yul\":5091:5195   */\n      tag_222\n        /* \"#utility.yul\":5190:5194   */\n      dup6\n        /* \"#utility.yul\":5175:5188   */\n      dup3\n        /* \"#utility.yul\":5091:5195   */\n      tag_192\n      jump\t// in\n    tag_222:\n        /* \"#utility.yul\":5083:5195   */\n      swap5\n      pop\n        /* \"#utility.yul\":5218:5298   */\n      tag_223\n        /* \"#utility.yul\":5291:5297   */\n      dup4\n        /* \"#utility.yul\":5218:5298   */\n      tag_224\n      jump\t// in\n    tag_223:\n        /* \"#utility.yul\":5208:5298   */\n      swap3\n      pop\n        /* \"#utility.yul\":5327:5331   */\n      0x20\n        /* \"#utility.yul\":5322:5325   */\n      dup11\n        /* \"#utility.yul\":5318:5332   */\n      add\n        /* \"#utility.yul\":5311:5332   */\n      swap10\n      pop\n        /* \"#utility.yul\":4976:5342   */\n      pop\n        /* \"#utility.yul\":4963:4964   */\n      0x01\n        /* \"#utility.yul\":4960:4961   */\n      dup2\n        /* \"#utility.yul\":4956:4965   */\n      add\n        /* \"#utility.yul\":4951:4965   */\n      swap1\n      pop\n        /* \"#utility.yul\":4916:5342   */\n      jump(tag_219)\n    tag_221:\n        /* \"#utility.yul\":4920:4934   */\n      pop\n        /* \"#utility.yul\":5358:5362   */\n      dup3\n        /* \"#utility.yul\":5351:5362   */\n      swap8\n      pop\n        /* \"#utility.yul\":5378:5381   */\n      dup8\n        /* \"#utility.yul\":5371:5381   */\n      swap6\n      pop\n        /* \"#utility.yul\":4480:5387   */\n      pop\n      pop\n      pop\n      pop\n      pop\n        /* \"#utility.yul\":4316:5387   */\n      swap3\n      swap2\n      pop\n      pop\n      jump\t// out\n        /* \"#utility.yul\":5469:6409   */\n    tag_225:\n        /* \"#utility.yul\":5640:5643   */\n      0x00\n        /* \"#utility.yul\":5669:5749   */\n      tag_227\n        /* \"#utility.yul\":5743:5748   */\n      dup3\n        /* \"#utility.yul\":5669:5749   */\n      tag_228\n      jump\t// in\n    tag_227:\n        /* \"#utility.yul\":5765:5877   */\n      tag_229\n        /* \"#utility.yul\":5870:5876   */\n      dup2\n        /* \"#utility.yul\":5865:5868   */\n      dup6\n        /* \"#utility.yul\":5765:5877   */\n      tag_230\n      jump\t// in\n    tag_229:\n        /* \"#utility.yul\":5758:5877   */\n      swap4\n      pop\n        /* \"#utility.yul\":5901:5983   */\n      tag_231\n        /* \"#utility.yul\":5977:5982   */\n      dup4\n        /* \"#utility.yul\":5901:5983   */\n      tag_232\n      jump\t// in\n    tag_231:\n        /* \"#utility.yul\":6006:6013   */\n      dup1\n        /* \"#utility.yul\":6037:6038   */\n      0x00\n        /* \"#utility.yul\":6022:6384   */\n    tag_233:\n        /* \"#utility.yul\":6047:6053   */\n      dup4\n        /* \"#utility.yul\":6044:6045   */\n      dup2\n        /* \"#utility.yul\":6041:6054   */\n      lt\n        /* \"#utility.yul\":6022:6384   */\n      iszero\n      tag_235\n      jumpi\n        /* \"#utility.yul\":6123:6129   */\n      dup2\n        /* \"#utility.yul\":6117:6130   */\n      mload\n        /* \"#utility.yul\":6150:6265   */\n      tag_236\n        /* \"#utility.yul\":6261:6264   */\n      dup9\n        /* \"#utility.yul\":6246:6259   */\n      dup3\n        /* \"#utility.yul\":6150:6265   */\n      tag_196\n      jump\t// in\n    tag_236:\n        /* \"#utility.yul\":6143:6265   */\n      swap8\n      pop\n        /* \"#utility.yul\":6288:6374   */\n      tag_237\n        /* \"#utility.yul\":6367:6373   */\n      dup4\n        /* \"#utility.yul\":6288:6374   */\n      tag_238\n      jump\t// in\n    tag_237:\n        /* \"#utility.yul\":6278:6374   */\n      swap3\n      pop\n        /* \"#utility.yul\":6082:6384   */\n      pop\n        /* \"#utility.yul\":6069:6070   */\n      0x01\n        /* \"#utility.yul\":6066:6067   */\n      dup2\n        /* \"#utility.yul\":6062:6071   */\n      add\n        /* \"#utility.yul\":6057:6071   */\n      swap1\n      pop\n        /* \"#utility.yul\":6022:6384   */\n      jump(tag_233)\n    tag_235:\n        /* \"#utility.yul\":6026:6040   */\n      pop\n        /* \"#utility.yul\":6400:6403   */\n      dup6\n        /* \"#utility.yul\":6393:6403   */\n      swap4\n      pop\n        /* \"#utility.yul\":5645:6409   */\n      pop\n      pop\n      pop\n        /* \"#utility.yul\":5469:6409   */\n      swap3\n      swap2\n      pop\n      pop\n      jump\t// out\n        /* \"#utility.yul\":6415:6759   */\n    tag_239:\n        /* \"#utility.yul\":6493:6496   */\n      0x00\n        /* \"#utility.yul\":6521:6560   */\n      tag_241\n        /* \"#utility.yul\":6554:6559   */\n      dup3\n        /* \"#utility.yul\":6521:6560   */\n      tag_242\n      jump\t// in\n    tag_241:\n        /* \"#utility.yul\":6576:6637   */\n      tag_243\n        /* \"#utility.yul\":6630:6636   */\n      dup2\n        /* \"#utility.yul\":6625:6628   */\n      dup6\n        /* \"#utility.yul\":6576:6637   */\n      tag_244\n      jump\t// in\n    tag_243:\n        /* \"#utility.yul\":6569:6637   */\n      swap4\n      pop\n        /* \"#utility.yul\":6646:6698   */\n      tag_245\n        /* \"#utility.yul\":6691:6697   */\n      dup2\n        /* \"#utility.yul\":6686:6689   */\n      dup6\n        /* \"#utility.yul\":6679:6683   */\n      0x20\n        /* \"#utility.yul\":6672:6677   */\n      dup7\n        /* \"#utility.yul\":6668:6684   */\n      add\n        /* \"#utility.yul\":6646:6698   */\n      tag_246\n      jump\t// in\n    tag_245:\n        /* \"#utility.yul\":6723:6752   */\n      tag_247\n        /* \"#utility.yul\":6745:6751   */\n      dup2\n        /* \"#utility.yul\":6723:6752   */\n      tag_248\n      jump\t// in\n    tag_247:\n        /* \"#utility.yul\":6718:6721   */\n      dup5\n        /* \"#utility.yul\":6714:6753   */\n      add\n        /* \"#utility.yul\":6707:6753   */\n      swap2\n      pop\n        /* \"#utility.yul\":6497:6759   */\n      pop\n        /* \"#utility.yul\":6415:6759   */\n      swap3\n      swap2\n      pop\n      pop\n      jump\t// out\n        /* \"#utility.yul\":6765:7131   */\n    tag_249:\n        /* \"#utility.yul\":6907:6910   */\n      0x00\n        /* \"#utility.yul\":6928:6995   */\n      tag_251\n        /* \"#utility.yul\":6992:6994   */\n      0x35\n        /* \"#utility.yul\":6987:6990   */\n      dup4\n        /* \"#utility.yul\":6928:6995   */\n      tag_252\n      jump\t// in\n    tag_251:\n        /* \"#utility.yul\":6921:6995   */\n      swap2\n      pop\n        /* \"#utility.yul\":7004:7097   */\n      tag_253\n        /* \"#utility.yul\":7093:7096   */\n      dup3\n        /* \"#utility.yul\":7004:7097   */\n      tag_254\n      jump\t// in\n    tag_253:\n        /* \"#utility.yul\":7122:7124   */\n      0x40\n        /* \"#utility.yul\":7117:7120   */\n      dup3\n        /* \"#utility.yul\":7113:7125   */\n      add\n        /* \"#utility.yul\":7106:7125   */\n      swap1\n      pop\n        /* \"#utility.yul\":6765:7131   */\n      swap2\n      swap1\n      pop\n      jump\t// out\n        /* \"#utility.yul\":7137:7503   */\n    tag_255:\n        /* \"#utility.yul\":7279:7282   */\n      0x00\n        /* \"#utility.yul\":7300:7367   */\n      tag_257\n        /* \"#utility.yul\":7364:7366   */\n      0x39\n        /* \"#utility.yul\":7359:7362   */\n      dup4\n        /* \"#utility.yul\":7300:7367   */\n      tag_252\n      jump\t// in\n    tag_257:\n        /* \"#utility.yul\":7293:7367   */\n      swap2\n      pop\n        /* \"#utility.yul\":7376:7469   */\n      tag_258\n        /* \"#utility.yul\":7465:7468   */\n      dup3\n        /* \"#utility.yul\":7376:7469   */\n      tag_259\n      jump\t// in\n    tag_258:\n        /* \"#utility.yul\":7494:7496   */\n      0x40\n        /* \"#utility.yul\":7489:7492   */\n      dup3\n        /* \"#utility.yul\":7485:7497   */\n      add\n        /* \"#utility.yul\":7478:7497   */\n      swap1\n      pop\n        /* \"#utility.yul\":7137:7503   */\n      swap2\n      swap1\n      pop\n      jump\t// out\n        /* \"#utility.yul\":7509:7875   */\n    tag_260:\n        /* \"#utility.yul\":7651:7654   */\n      0x00\n        /* \"#utility.yul\":7672:7739   */\n      tag_262\n        /* \"#utility.yul\":7736:7738   */\n      0x39\n        /* \"#utility.yul\":7731:7734   */\n      dup4\n        /* \"#utility.yul\":7672:7739   */\n      tag_252\n      jump\t// in\n    tag_262:\n        /* \"#utility.yul\":7665:7739   */\n      swap2\n      pop\n        /* \"#utility.yul\":7748:7841   */\n      tag_263\n        /* \"#utility.yul\":7837:7840   */\n      dup3\n        /* \"#utility.yul\":7748:7841   */\n      tag_264\n      jump\t// in\n    tag_263:\n        /* \"#utility.yul\":7866:7868   */\n      0x40\n        /* \"#utility.yul\":7861:7864   */\n      dup3\n        /* \"#utility.yul\":7857:7869   */\n      add\n        /* \"#utility.yul\":7850:7869   */\n      swap1\n      pop\n        /* \"#utility.yul\":7509:7875   */\n      swap2\n      swap1\n      pop\n      jump\t// out\n        /* \"#utility.yul\":7881:8247   */\n    tag_265:\n        /* \"#utility.yul\":8023:8026   */\n      0x00\n        /* \"#utility.yul\":8044:8111   */\n      tag_267\n        /* \"#utility.yul\":8108:8110   */\n      0x22\n        /* \"#utility.yul\":8103:8106   */\n      dup4\n        /* \"#utility.yul\":8044:8111   */\n      tag_252\n      jump\t// in\n    tag_267:\n        /* \"#utility.yul\":8037:8111   */\n      swap2\n      pop\n        /* \"#utility.yul\":8120:8213   */\n      tag_268\n        /* \"#utility.yul\":8209:8212   */\n      dup3\n        /* \"#utility.yul\":8120:8213   */\n      tag_269\n      jump\t// in\n    tag_268:\n        /* \"#utility.yul\":8238:8240   */\n      0x40\n        /* \"#utility.yul\":8233:8236   */\n      dup3\n        /* \"#utility.yul\":8229:8241   */\n      add\n        /* \"#utility.yul\":8222:8241   */\n      swap1\n      pop\n        /* \"#utility.yul\":7881:8247   */\n      swap2\n      swap1\n      pop\n      jump\t// out\n        /* \"#utility.yul\":8313:10071   */\n    tag_195:\n        /* \"#utility.yul\":8412:8415   */\n      0x00\n        /* \"#utility.yul\":8448:8454   */\n      0x0100\n        /* \"#utility.yul\":8443:8446   */\n      dup4\n        /* \"#utility.yul\":8439:8455   */\n      add\n        /* \"#utility.yul\":8535:8539   */\n      0x00\n        /* \"#utility.yul\":8528:8533   */\n      dup4\n        /* \"#utility.yul\":8524:8540   */\n      add\n        /* \"#utility.yul\":8518:8541   */\n      mload\n        /* \"#utility.yul\":8554:8617   */\n      tag_271\n        /* \"#utility.yul\":8611:8615   */\n      0x00\n        /* \"#utility.yul\":8606:8609   */\n      dup7\n        /* \"#utility.yul\":8602:8616   */\n      add\n        /* \"#utility.yul\":8588:8600   */\n      dup3\n        /* \"#utility.yul\":8554:8617   */\n      tag_272\n      jump\t// in\n    tag_271:\n        /* \"#utility.yul\":8465:8627   */\n      pop\n        /* \"#utility.yul\":8709:8713   */\n      0x20\n        /* \"#utility.yul\":8702:8707   */\n      dup4\n        /* \"#utility.yul\":8698:8714   */\n      add\n        /* \"#utility.yul\":8692:8715   */\n      mload\n        /* \"#utility.yul\":8762:8765   */\n      dup5\n        /* \"#utility.yul\":8756:8760   */\n      dup3\n        /* \"#utility.yul\":8752:8766   */\n      sub\n        /* \"#utility.yul\":8745:8749   */\n      0x20\n        /* \"#utility.yul\":8740:8743   */\n      dup7\n        /* \"#utility.yul\":8736:8750   */\n      add\n        /* \"#utility.yul\":8729:8767   */\n      mstore\n        /* \"#utility.yul\":8788:8861   */\n      tag_273\n        /* \"#utility.yul\":8856:8860   */\n      dup3\n        /* \"#utility.yul\":8842:8854   */\n      dup3\n        /* \"#utility.yul\":8788:8861   */\n      tag_239\n      jump\t// in\n    tag_273:\n        /* \"#utility.yul\":8780:8861   */\n      swap2\n      pop\n        /* \"#utility.yul\":8637:8872   */\n      pop\n        /* \"#utility.yul\":8961:8965   */\n      0x40\n        /* \"#utility.yul\":8954:8959   */\n      dup4\n        /* \"#utility.yul\":8950:8966   */\n      add\n        /* \"#utility.yul\":8944:8967   */\n      mload\n        /* \"#utility.yul\":9014:9017   */\n      dup5\n        /* \"#utility.yul\":9008:9012   */\n      dup3\n        /* \"#utility.yul\":9004:9018   */\n      sub\n        /* \"#utility.yul\":8997:9001   */\n      0x40\n        /* \"#utility.yul\":8992:8995   */\n      dup7\n        /* \"#utility.yul\":8988:9002   */\n      add\n        /* \"#utility.yul\":8981:9019   */\n      mstore\n        /* \"#utility.yul\":9040:9113   */\n      tag_274\n        /* \"#utility.yul\":9108:9112   */\n      dup3\n        /* \"#utility.yul\":9094:9106   */\n      dup3\n        /* \"#utility.yul\":9040:9113   */\n      tag_239\n      jump\t// in\n    tag_274:\n        /* \"#utility.yul\":9032:9113   */\n      swap2\n      pop\n        /* \"#utility.yul\":8882:9124   */\n      pop\n        /* \"#utility.yul\":9211:9215   */\n      0x60\n        /* \"#utility.yul\":9204:9209   */\n      dup4\n        /* \"#utility.yul\":9200:9216   */\n      add\n        /* \"#utility.yul\":9194:9217   */\n      mload\n        /* \"#utility.yul\":9230:9293   */\n      tag_275\n        /* \"#utility.yul\":9287:9291   */\n      0x60\n        /* \"#utility.yul\":9282:9285   */\n      dup7\n        /* \"#utility.yul\":9278:9292   */\n      add\n        /* \"#utility.yul\":9264:9276   */\n      dup3\n        /* \"#utility.yul\":9230:9293   */\n      tag_272\n      jump\t// in\n    tag_275:\n        /* \"#utility.yul\":9134:9303   */\n      pop\n        /* \"#utility.yul\":9388:9392   */\n      0x80\n        /* \"#utility.yul\":9381:9386   */\n      dup4\n        /* \"#utility.yul\":9377:9393   */\n      add\n        /* \"#utility.yul\":9371:9394   */\n      mload\n        /* \"#utility.yul\":9407:9470   */\n      tag_276\n        /* \"#utility.yul\":9464:9468   */\n      0x80\n        /* \"#utility.yul\":9459:9462   */\n      dup7\n        /* \"#utility.yul\":9455:9469   */\n      add\n        /* \"#utility.yul\":9441:9453   */\n      dup3\n        /* \"#utility.yul\":9407:9470   */\n      tag_272\n      jump\t// in\n    tag_276:\n        /* \"#utility.yul\":9313:9480   */\n      pop\n        /* \"#utility.yul\":9568:9572   */\n      0xa0\n        /* \"#utility.yul\":9561:9566   */\n      dup4\n        /* \"#utility.yul\":9557:9573   */\n      add\n        /* \"#utility.yul\":9551:9574   */\n      mload\n        /* \"#utility.yul\":9587:9650   */\n      tag_277\n        /* \"#utility.yul\":9644:9648   */\n      0xa0\n        /* \"#utility.yul\":9639:9642   */\n      dup7\n        /* \"#utility.yul\":9635:9649   */\n      add\n        /* \"#utility.yul\":9621:9633   */\n      dup3\n        /* \"#utility.yul\":9587:9650   */\n      tag_272\n      jump\t// in\n    tag_277:\n        /* \"#utility.yul\":9490:9660   */\n      pop\n        /* \"#utility.yul\":9751:9755   */\n      0xc0\n        /* \"#utility.yul\":9744:9749   */\n      dup4\n        /* \"#utility.yul\":9740:9756   */\n      add\n        /* \"#utility.yul\":9734:9757   */\n      mload\n        /* \"#utility.yul\":9770:9833   */\n      tag_278\n        /* \"#utility.yul\":9827:9831   */\n      0xc0\n        /* \"#utility.yul\":9822:9825   */\n      dup7\n        /* \"#utility.yul\":9818:9832   */\n      add\n        /* \"#utility.yul\":9804:9816   */\n      dup3\n        /* \"#utility.yul\":9770:9833   */\n      tag_272\n      jump\t// in\n    tag_278:\n        /* \"#utility.yul\":9670:9843   */\n      pop\n        /* \"#utility.yul\":9936:9940   */\n      0xe0\n        /* \"#utility.yul\":9929:9934   */\n      dup4\n        /* \"#utility.yul\":9925:9941   */\n      add\n        /* \"#utility.yul\":9919:9942   */\n      mload\n        /* \"#utility.yul\":9955:10034   */\n      tag_279\n        /* \"#utility.yul\":10028:10032   */\n      0xe0\n        /* \"#utility.yul\":10023:10026   */\n      dup7\n        /* \"#utility.yul\":10019:10033   */\n      add\n        /* \"#utility.yul\":10005:10017   */\n      dup3\n        /* \"#utility.yul\":9955:10034   */\n      tag_200\n      jump\t// in\n    tag_279:\n        /* \"#utility.yul\":9853:10044   */\n      pop\n        /* \"#utility.yul\":10061:10065   */\n      dup1\n        /* \"#utility.yul\":10054:10065   */\n      swap2\n      pop\n        /* \"#utility.yul\":8417:10071   */\n      pop\n        /* \"#utility.yul\":8313:10071   */\n      swap3\n      swap2\n      pop\n      pop\n      jump\t// out\n        /* \"#utility.yul\":10137:11905   */\n    tag_280:\n        /* \"#utility.yul\":10246:10249   */\n      0x00\n        /* \"#utility.yul\":10282:10288   */\n      0x0100\n        /* \"#utility.yul\":10277:10280   */\n      dup4\n        /* \"#utility.yul\":10273:10289   */\n      add\n        /* \"#utility.yul\":10369:10373   */\n      0x00\n        /* \"#utility.yul\":10362:10367   */\n      dup4\n        /* \"#utility.yul\":10358:10374   */\n      add\n        /* \"#utility.yul\":10352:10375   */\n      mload\n        /* \"#utility.yul\":10388:10451   */\n      tag_282\n        /* \"#utility.yul\":10445:10449   */\n      0x00\n        /* \"#utility.yul\":10440:10443   */\n      dup7\n        /* \"#utility.yul\":10436:10450   */\n      add\n        /* \"#utility.yul\":10422:10434   */\n      dup3\n        /* \"#utility.yul\":10388:10451   */\n      tag_272\n      jump\t// in\n    tag_282:\n        /* \"#utility.yul\":10299:10461   */\n      pop\n        /* \"#utility.yul\":10543:10547   */\n      0x20\n        /* \"#utility.yul\":10536:10541   */\n      dup4\n        /* \"#utility.yul\":10532:10548   */\n      add\n        /* \"#utility.yul\":10526:10549   */\n      mload\n        /* \"#utility.yul\":10596:10599   */\n      dup5\n        /* \"#utility.yul\":10590:10594   */\n      dup3\n        /* \"#utility.yul\":10586:10600   */\n      sub\n        /* \"#utility.yul\":10579:10583   */\n      0x20\n        /* \"#utility.yul\":10574:10577   */\n      dup7\n        /* \"#utility.yul\":10570:10584   */\n      add\n        /* \"#utility.yul\":10563:10601   */\n      mstore\n        /* \"#utility.yul\":10622:10695   */\n      tag_283\n        /* \"#utility.yul\":10690:10694   */\n      dup3\n        /* \"#utility.yul\":10676:10688   */\n      dup3\n        /* \"#utility.yul\":10622:10695   */\n      tag_239\n      jump\t// in\n    tag_283:\n        /* \"#utility.yul\":10614:10695   */\n      swap2\n      pop\n        /* \"#utility.yul\":10471:10706   */\n      pop\n        /* \"#utility.yul\":10795:10799   */\n      0x40\n        /* \"#utility.yul\":10788:10793   */\n      dup4\n        /* \"#utility.yul\":10784:10800   */\n      add\n        /* \"#utility.yul\":10778:10801   */\n      mload\n        /* \"#utility.yul\":10848:10851   */\n      dup5\n        /* \"#utility.yul\":10842:10846   */\n      dup3\n        /* \"#utility.yul\":10838:10852   */\n      sub\n        /* \"#utility.yul\":10831:10835   */\n      0x40\n        /* \"#utility.yul\":10826:10829   */\n      dup7\n        /* \"#utility.yul\":10822:10836   */\n      add\n        /* \"#utility.yul\":10815:10853   */\n      mstore\n        /* \"#utility.yul\":10874:10947   */\n      tag_284\n        /* \"#utility.yul\":10942:10946   */\n      dup3\n        /* \"#utility.yul\":10928:10940   */\n      dup3\n        /* \"#utility.yul\":10874:10947   */\n      tag_239\n      jump\t// in\n    tag_284:\n        /* \"#utility.yul\":10866:10947   */\n      swap2\n      pop\n        /* \"#utility.yul\":10716:10958   */\n      pop\n        /* \"#utility.yul\":11045:11049   */\n      0x60\n        /* \"#utility.yul\":11038:11043   */\n      dup4\n        /* \"#utility.yul\":11034:11050   */\n      add\n        /* \"#utility.yul\":11028:11051   */\n      mload\n        /* \"#utility.yul\":11064:11127   */\n      tag_285\n        /* \"#utility.yul\":11121:11125   */\n      0x60\n        /* \"#utility.yul\":11116:11119   */\n      dup7\n        /* \"#utility.yul\":11112:11126   */\n      add\n        /* \"#utility.yul\":11098:11110   */\n      dup3\n        /* \"#utility.yul\":11064:11127   */\n      tag_272\n      jump\t// in\n    tag_285:\n        /* \"#utility.yul\":10968:11137   */\n      pop\n        /* \"#utility.yul\":11222:11226   */\n      0x80\n        /* \"#utility.yul\":11215:11220   */\n      dup4\n        /* \"#utility.yul\":11211:11227   */\n      add\n        /* \"#utility.yul\":11205:11228   */\n      mload\n        /* \"#utility.yul\":11241:11304   */\n      tag_286\n        /* \"#utility.yul\":11298:11302   */\n      0x80\n        /* \"#utility.yul\":11293:11296   */\n      dup7\n        /* \"#utility.yul\":11289:11303   */\n      add\n        /* \"#utility.yul\":11275:11287   */\n      dup3\n        /* \"#utility.yul\":11241:11304   */\n      tag_272\n      jump\t// in\n    tag_286:\n        /* \"#utility.yul\":11147:11314   */\n      pop\n        /* \"#utility.yul\":11402:11406   */\n      0xa0\n        /* \"#utility.yul\":11395:11400   */\n      dup4\n        /* \"#utility.yul\":11391:11407   */\n      add\n        /* \"#utility.yul\":11385:11408   */\n      mload\n        /* \"#utility.yul\":11421:11484   */\n      tag_287\n        /* \"#utility.yul\":11478:11482   */\n      0xa0\n        /* \"#utility.yul\":11473:11476   */\n      dup7\n        /* \"#utility.yul\":11469:11483   */\n      add\n        /* \"#utility.yul\":11455:11467   */\n      dup3\n        /* \"#utility.yul\":11421:11484   */\n      tag_272\n      jump\t// in\n    tag_287:\n        /* \"#utility.yul\":11324:11494   */\n      pop\n        /* \"#utility.yul\":11585:11589   */\n      0xc0\n        /* \"#utility.yul\":11578:11583   */\n      dup4\n        /* \"#utility.yul\":11574:11590   */\n      add\n        /* \"#utility.yul\":11568:11591   */\n      mload\n        /* \"#utility.yul\":11604:11667   */\n      tag_288\n        /* \"#utility.yul\":11661:11665   */\n      0xc0\n        /* \"#utility.yul\":11656:11659   */\n      dup7\n        /* \"#utility.yul\":11652:11666   */\n      add\n        /* \"#utility.yul\":11638:11650   */\n      dup3\n        /* \"#utility.yul\":11604:11667   */\n      tag_272\n      jump\t// in\n    tag_288:\n        /* \"#utility.yul\":11504:11677   */\n      pop\n        /* \"#utility.yul\":11770:11774   */\n      0xe0\n        /* \"#utility.yul\":11763:11768   */\n      dup4\n        /* \"#utility.yul\":11759:11775   */\n      add\n        /* \"#utility.yul\":11753:11776   */\n      mload\n        /* \"#utility.yul\":11789:11868   */\n      tag_289\n        /* \"#utility.yul\":11862:11866   */\n      0xe0\n        /* \"#utility.yul\":11857:11860   */\n      dup7\n        /* \"#utility.yul\":11853:11867   */\n      add\n        /* \"#utility.yul\":11839:11851   */\n      dup3\n        /* \"#utility.yul\":11789:11868   */\n      tag_200\n      jump\t// in\n    tag_289:\n        /* \"#utility.yul\":11687:11878   */\n      pop\n        /* \"#utility.yul\":11895:11899   */\n      dup1\n        /* \"#utility.yul\":11888:11899   */\n      swap2\n      pop\n        /* \"#utility.yul\":10251:11905   */\n      pop\n        /* \"#utility.yul\":10137:11905   */\n      swap3\n      swap2\n      pop\n      pop\n      jump\t// out\n        /* \"#utility.yul\":11983:13035   */\n    tag_199:\n        /* \"#utility.yul\":12122:12126   */\n      0xa0\n        /* \"#utility.yul\":12117:12120   */\n      dup3\n        /* \"#utility.yul\":12113:12127   */\n      add\n        /* \"#utility.yul\":12207:12211   */\n      0x00\n        /* \"#utility.yul\":12200:12205   */\n      dup3\n        /* \"#utility.yul\":12196:12212   */\n      add\n        /* \"#utility.yul\":12190:12213   */\n      mload\n        /* \"#utility.yul\":12226:12289   */\n      tag_291\n        /* \"#utility.yul\":12283:12287   */\n      0x00\n        /* \"#utility.yul\":12278:12281   */\n      dup6\n        /* \"#utility.yul\":12274:12288   */\n      add\n        /* \"#utility.yul\":12260:12272   */\n      dup3\n        /* \"#utility.yul\":12226:12289   */\n      tag_272\n      jump\t// in\n    tag_291:\n        /* \"#utility.yul\":12137:12299   */\n      pop\n        /* \"#utility.yul\":12383:12387   */\n      0x20\n        /* \"#utility.yul\":12376:12381   */\n      dup3\n        /* \"#utility.yul\":12372:12388   */\n      add\n        /* \"#utility.yul\":12366:12389   */\n      mload\n        /* \"#utility.yul\":12402:12465   */\n      tag_292\n        /* \"#utility.yul\":12459:12463   */\n      0x20\n        /* \"#utility.yul\":12454:12457   */\n      dup6\n        /* \"#utility.yul\":12450:12464   */\n      add\n        /* \"#utility.yul\":12436:12448   */\n      dup3\n        /* \"#utility.yul\":12402:12465   */\n      tag_272\n      jump\t// in\n    tag_292:\n        /* \"#utility.yul\":12309:12475   */\n      pop\n        /* \"#utility.yul\":12568:12572   */\n      0x40\n        /* \"#utility.yul\":12561:12566   */\n      dup3\n        /* \"#utility.yul\":12557:12573   */\n      add\n        /* \"#utility.yul\":12551:12574   */\n      mload\n        /* \"#utility.yul\":12587:12650   */\n      tag_293\n        /* \"#utility.yul\":12644:12648   */\n      0x40\n        /* \"#utility.yul\":12639:12642   */\n      dup6\n        /* \"#utility.yul\":12635:12649   */\n      add\n        /* \"#utility.yul\":12621:12633   */\n      dup3\n        /* \"#utility.yul\":12587:12650   */\n      tag_204\n      jump\t// in\n    tag_293:\n        /* \"#utility.yul\":12485:12660   */\n      pop\n        /* \"#utility.yul\":12752:12756   */\n      0x60\n        /* \"#utility.yul\":12745:12750   */\n      dup3\n        /* \"#utility.yul\":12741:12757   */\n      add\n        /* \"#utility.yul\":12735:12758   */\n      mload\n        /* \"#utility.yul\":12771:12834   */\n      tag_294\n        /* \"#utility.yul\":12828:12832   */\n      0x60\n        /* \"#utility.yul\":12823:12826   */\n      dup6\n        /* \"#utility.yul\":12819:12833   */\n      add\n        /* \"#utility.yul\":12805:12817   */\n      dup3\n        /* \"#utility.yul\":12771:12834   */\n      tag_272\n      jump\t// in\n    tag_294:\n        /* \"#utility.yul\":12670:12844   */\n      pop\n        /* \"#utility.yul\":12936:12940   */\n      0x80\n        /* \"#utility.yul\":12929:12934   */\n      dup3\n        /* \"#utility.yul\":12925:12941   */\n      add\n        /* \"#utility.yul\":12919:12942   */\n      mload\n        /* \"#utility.yul\":12955:13018   */\n      tag_295\n        /* \"#utility.yul\":13012:13016   */\n      0x80\n        /* \"#utility.yul\":13007:13010   */\n      dup6\n        /* \"#utility.yul\":13003:13017   */\n      add\n        /* \"#utility.yul\":12989:13001   */\n      dup3\n        /* \"#utility.yul\":12955:13018   */\n      tag_272\n      jump\t// in\n    tag_295:\n        /* \"#utility.yul\":12854:13028   */\n      pop\n        /* \"#utility.yul\":12091:13035   */\n      pop\n        /* \"#utility.yul\":11983:13035   */\n      pop\n      pop\n      jump\t// out\n        /* \"#utility.yul\":13041:13149   */\n    tag_272:\n        /* \"#utility.yul\":13118:13142   */\n      tag_297\n        /* \"#utility.yul\":13136:13141   */\n      dup2\n        /* \"#utility.yul\":13118:13142   */\n      tag_298\n      jump\t// in\n    tag_297:\n        /* \"#utility.yul\":13113:13116   */\n      dup3\n        /* \"#utility.yul\":13106:13143   */\n      mstore\n        /* \"#utility.yul\":13041:13149   */\n      pop\n      pop\n      jump\t// out\n        /* \"#utility.yul\":13155:13377   */\n    tag_33:\n        /* \"#utility.yul\":13248:13252   */\n      0x00\n        /* \"#utility.yul\":13286:13288   */\n      0x20\n        /* \"#utility.yul\":13275:13284   */\n      dup3\n        /* \"#utility.yul\":13271:13289   */\n      add\n        /* \"#utility.yul\":13263:13289   */\n      swap1\n      pop\n        /* \"#utility.yul\":13299:13370   */\n      tag_300\n        /* \"#utility.yul\":13367:13368   */\n      0x00\n        /* \"#utility.yul\":13356:13365   */\n      dup4\n        /* \"#utility.yul\":13352:13369   */\n      add\n        /* \"#utility.yul\":13343:13349   */\n      dup5\n        /* \"#utility.yul\":13299:13370   */\n      tag_208\n      jump\t// in\n    tag_300:\n        /* \"#utility.yul\":13155:13377   */\n      swap3\n      swap2\n      pop\n      pop\n      jump\t// out\n        /* \"#utility.yul\":13383:13836   */\n    tag_24:\n        /* \"#utility.yul\":13566:13570   */\n      0x00\n        /* \"#utility.yul\":13604:13606   */\n      0x20\n        /* \"#utility.yul\":13593:13602   */\n      dup3\n        /* \"#utility.yul\":13589:13607   */\n      add\n        /* \"#utility.yul\":13581:13607   */\n      swap1\n      pop\n        /* \"#utility.yul\":13653:13662   */\n      dup2\n        /* \"#utility.yul\":13647:13651   */\n      dup2\n        /* \"#utility.yul\":13643:13663   */\n      sub\n        /* \"#utility.yul\":13639:13640   */\n      0x00\n        /* \"#utility.yul\":13628:13637   */\n      dup4\n        /* \"#utility.yul\":13624:13641   */\n      add\n        /* \"#utility.yul\":13617:13664   */\n      mstore\n        /* \"#utility.yul\":13681:13829   */\n      tag_302\n        /* \"#utility.yul\":13824:13828   */\n      dup2\n        /* \"#utility.yul\":13815:13821   */\n      dup5\n        /* \"#utility.yul\":13681:13829   */\n      tag_211\n      jump\t// in\n    tag_302:\n        /* \"#utility.yul\":13673:13829   */\n      swap1\n      pop\n        /* \"#utility.yul\":13383:13836   */\n      swap3\n      swap2\n      pop\n      pop\n      jump\t// out\n        /* \"#utility.yul\":13842:14319   */\n    tag_29:\n        /* \"#utility.yul\":14037:14041   */\n      0x00\n        /* \"#utility.yul\":14075:14077   */\n      0x20\n        /* \"#utility.yul\":14064:14073   */\n      dup3\n        /* \"#utility.yul\":14060:14078   */\n      add\n        /* \"#utility.yul\":14052:14078   */\n      swap1\n      pop\n        /* \"#utility.yul\":14124:14133   */\n      dup2\n        /* \"#utility.yul\":14118:14122   */\n      dup2\n        /* \"#utility.yul\":14114:14134   */\n      sub\n        /* \"#utility.yul\":14110:14111   */\n      0x00\n        /* \"#utility.yul\":14099:14108   */\n      dup4\n        /* \"#utility.yul\":14095:14112   */\n      add\n        /* \"#utility.yul\":14088:14135   */\n      mstore\n        /* \"#utility.yul\":14152:14312   */\n      tag_304\n        /* \"#utility.yul\":14307:14311   */\n      dup2\n        /* \"#utility.yul\":14298:14304   */\n      dup5\n        /* \"#utility.yul\":14152:14312   */\n      tag_225\n      jump\t// in\n    tag_304:\n        /* \"#utility.yul\":14144:14312   */\n      swap1\n      pop\n        /* \"#utility.yul\":13842:14319   */\n      swap3\n      swap2\n      pop\n      pop\n      jump\t// out\n        /* \"#utility.yul\":14325:14744   */\n    tag_127:\n        /* \"#utility.yul\":14491:14495   */\n      0x00\n        /* \"#utility.yul\":14529:14531   */\n      0x20\n        /* \"#utility.yul\":14518:14527   */\n      dup3\n        /* \"#utility.yul\":14514:14532   */\n      add\n        /* \"#utility.yul\":14506:14532   */\n      swap1\n      pop\n        /* \"#utility.yul\":14578:14587   */\n      dup2\n        /* \"#utility.yul\":14572:14576   */\n      dup2\n        /* \"#utility.yul\":14568:14588   */\n      sub\n        /* \"#utility.yul\":14564:14565   */\n      0x00\n        /* \"#utility.yul\":14553:14562   */\n      dup4\n        /* \"#utility.yul\":14549:14566   */\n      add\n        /* \"#utility.yul\":14542:14589   */\n      mstore\n        /* \"#utility.yul\":14606:14737   */\n      tag_306\n        /* \"#utility.yul\":14732:14736   */\n      dup2\n        /* \"#utility.yul\":14606:14737   */\n      tag_249\n      jump\t// in\n    tag_306:\n        /* \"#utility.yul\":14598:14737   */\n      swap1\n      pop\n        /* \"#utility.yul\":14325:14744   */\n      swap2\n      swap1\n      pop\n      jump\t// out\n        /* \"#utility.yul\":14750:15169   */\n    tag_124:\n        /* \"#utility.yul\":14916:14920   */\n      0x00\n        /* \"#utility.yul\":14954:14956   */\n      0x20\n        /* \"#utility.yul\":14943:14952   */\n      dup3\n        /* \"#utility.yul\":14939:14957   */\n      add\n        /* \"#utility.yul\":14931:14957   */\n      swap1\n      pop\n        /* \"#utility.yul\":15003:15012   */\n      dup2\n        /* \"#utility.yul\":14997:15001   */\n      dup2\n        /* \"#utility.yul\":14993:15013   */\n      sub\n        /* \"#utility.yul\":14989:14990   */\n      0x00\n        /* \"#utility.yul\":14978:14987   */\n      dup4\n        /* \"#utility.yul\":14974:14991   */\n      add\n        /* \"#utility.yul\":14967:15014   */\n      mstore\n        /* \"#utility.yul\":15031:15162   */\n      tag_308\n        /* \"#utility.yul\":15157:15161   */\n      dup2\n        /* \"#utility.yul\":15031:15162   */\n      tag_255\n      jump\t// in\n    tag_308:\n        /* \"#utility.yul\":15023:15162   */\n      swap1\n      pop\n        /* \"#utility.yul\":14750:15169   */\n      swap2\n      swap1\n      pop\n      jump\t// out\n        /* \"#utility.yul\":15175:15594   */\n    tag_112:\n        /* \"#utility.yul\":15341:15345   */\n      0x00\n        /* \"#utility.yul\":15379:15381   */\n      0x20\n        /* \"#utility.yul\":15368:15377   */\n      dup3\n        /* \"#utility.yul\":15364:15382   */\n      add\n        /* \"#utility.yul\":15356:15382   */\n      swap1\n      pop\n        /* \"#utility.yul\":15428:15437   */\n      dup2\n        /* \"#utility.yul\":15422:15426   */\n      dup2\n        /* \"#utility.yul\":15418:15438   */\n      sub\n        /* \"#utility.yul\":15414:15415   */\n      0x00\n        /* \"#utility.yul\":15403:15412   */\n      dup4\n        /* \"#utility.yul\":15399:15416   */\n      add\n        /* \"#utility.yul\":15392:15439   */\n      mstore\n        /* \"#utility.yul\":15456:15587   */\n      tag_310\n        /* \"#utility.yul\":15582:15586   */\n      dup2\n        /* \"#utility.yul\":15456:15587   */\n      tag_260\n      jump\t// in\n    tag_310:\n        /* \"#utility.yul\":15448:15587   */\n      swap1\n      pop\n        /* \"#utility.yul\":15175:15594   */\n      swap2\n      swap1\n      pop\n      jump\t// out\n        /* \"#utility.yul\":15600:16019   */\n    tag_44:\n        /* \"#utility.yul\":15766:15770   */\n      0x00\n        /* \"#utility.yul\":15804:15806   */\n      0x20\n        /* \"#utility.yul\":15793:15802   */\n      dup3\n        /* \"#utility.yul\":15789:15807   */\n      add\n        /* \"#utility.yul\":15781:15807   */\n      swap1\n      pop\n        /* \"#utility.yul\":15853:15862   */\n      dup2\n        /* \"#utility.yul\":15847:15851   */\n      dup2\n        /* \"#utility.yul\":15843:15863   */\n      sub\n        /* \"#utility.yul\":15839:15840   */\n      0x00\n        /* \"#utility.yul\":15828:15837   */\n      dup4\n        /* \"#utility.yul\":15824:15841   */\n      add\n        /* \"#utility.yul\":15817:15864   */\n      mstore\n        /* \"#utility.yul\":15881:16012   */\n      tag_312\n        /* \"#utility.yul\":16007:16011   */\n      dup2\n        /* \"#utility.yul\":15881:16012   */\n      tag_265\n      jump\t// in\n    tag_312:\n        /* \"#utility.yul\":15873:16012   */\n      swap1\n      pop\n        /* \"#utility.yul\":15600:16019   */\n      swap2\n      swap1\n      pop\n      jump\t// out\n        /* \"#utility.yul\":16025:16378   */\n    tag_20:\n        /* \"#utility.yul\":16158:16162   */\n      0x00\n        /* \"#utility.yul\":16196:16198   */\n      0x20\n        /* \"#utility.yul\":16185:16194   */\n      dup3\n        /* \"#utility.yul\":16181:16199   */\n      add\n        /* \"#utility.yul\":16173:16199   */\n      swap1\n      pop\n        /* \"#utility.yul\":16245:16254   */\n      dup2\n        /* \"#utility.yul\":16239:16243   */\n      dup2\n        /* \"#utility.yul\":16235:16255   */\n      sub\n        /* \"#utility.yul\":16231:16232   */\n      0x00\n        /* \"#utility.yul\":16220:16229   */\n      dup4\n        /* \"#utility.yul\":16216:16233   */\n      add\n        /* \"#utility.yul\":16209:16256   */\n      mstore\n        /* \"#utility.yul\":16273:16371   */\n      tag_314\n        /* \"#utility.yul\":16366:16370   */\n      dup2\n        /* \"#utility.yul\":16357:16363   */\n      dup5\n        /* \"#utility.yul\":16273:16371   */\n      tag_280\n      jump\t// in\n    tag_314:\n        /* \"#utility.yul\":16265:16371   */\n      swap1\n      pop\n        /* \"#utility.yul\":16025:16378   */\n      swap3\n      swap2\n      pop\n      pop\n      jump\t// out\n        /* \"#utility.yul\":16384:16513   */\n    tag_148:\n        /* \"#utility.yul\":16418:16424   */\n      0x00\n        /* \"#utility.yul\":16445:16465   */\n      tag_316\n      tag_317\n      jump\t// in\n    tag_316:\n        /* \"#utility.yul\":16435:16465   */\n      swap1\n      pop\n        /* \"#utility.yul\":16474:16507   */\n      tag_318\n        /* \"#utility.yul\":16502:16506   */\n      dup3\n        /* \"#utility.yul\":16494:16500   */\n      dup3\n        /* \"#utility.yul\":16474:16507   */\n      tag_319\n      jump\t// in\n    tag_318:\n        /* \"#utility.yul\":16384:16513   */\n      swap2\n      swap1\n      pop\n      jump\t// out\n        /* \"#utility.yul\":16519:16594   */\n    tag_317:\n        /* \"#utility.yul\":16552:16558   */\n      0x00\n        /* \"#utility.yul\":16585:16587   */\n      0x40\n        /* \"#utility.yul\":16579:16588   */\n      mload\n        /* \"#utility.yul\":16569:16588   */\n      swap1\n      pop\n        /* \"#utility.yul\":16519:16594   */\n      swap1\n      jump\t// out\n        /* \"#utility.yul\":16600:16908   */\n    tag_147:\n        /* \"#utility.yul\":16662:16666   */\n      0x00\n        /* \"#utility.yul\":16752:16770   */\n      0xffffffffffffffff\n        /* \"#utility.yul\":16744:16750   */\n      dup3\n        /* \"#utility.yul\":16741:16771   */\n      gt\n        /* \"#utility.yul\":16738:16794   */\n      iszero\n      tag_322\n      jumpi\n        /* \"#utility.yul\":16774:16792   */\n      tag_323\n      tag_67\n      jump\t// in\n    tag_323:\n        /* \"#utility.yul\":16738:16794   */\n    tag_322:\n        /* \"#utility.yul\":16812:16841   */\n      tag_324\n        /* \"#utility.yul\":16834:16840   */\n      dup3\n        /* \"#utility.yul\":16812:16841   */\n      tag_248\n      jump\t// in\n    tag_324:\n        /* \"#utility.yul\":16804:16841   */\n      swap1\n      pop\n        /* \"#utility.yul\":16896:16900   */\n      0x20\n        /* \"#utility.yul\":16890:16894   */\n      dup2\n        /* \"#utility.yul\":16886:16901   */\n      add\n        /* \"#utility.yul\":16878:16901   */\n      swap1\n      pop\n        /* \"#utility.yul\":16600:16908   */\n      swap2\n      swap1\n      pop\n      jump\t// out\n        /* \"#utility.yul\":16914:17066   */\n    tag_218:\n        /* \"#utility.yul\":17001:17005   */\n      0x00\n        /* \"#utility.yul\":17024:17027   */\n      dup2\n        /* \"#utility.yul\":17016:17027   */\n      swap1\n      pop\n        /* \"#utility.yul\":17054:17058   */\n      0x20\n        /* \"#utility.yul\":17049:17052   */\n      dup3\n        /* \"#utility.yul\":17045:17059   */\n      add\n        /* \"#utility.yul\":17037:17059   */\n      swap1\n      pop\n        /* \"#utility.yul\":16914:17066   */\n      swap2\n      swap1\n      pop\n      jump\t// out\n        /* \"#utility.yul\":17072:17230   */\n    tag_232:\n        /* \"#utility.yul\":17165:17169   */\n      0x00\n        /* \"#utility.yul\":17188:17191   */\n      dup2\n        /* \"#utility.yul\":17180:17191   */\n      swap1\n      pop\n        /* \"#utility.yul\":17218:17222   */\n      0x20\n        /* \"#utility.yul\":17213:17216   */\n      dup3\n        /* \"#utility.yul\":17209:17223   */\n      add\n        /* \"#utility.yul\":17201:17223   */\n      swap1\n      pop\n        /* \"#utility.yul\":17072:17230   */\n      swap2\n      swap1\n      pop\n      jump\t// out\n        /* \"#utility.yul\":17236:17370   */\n    tag_214:\n        /* \"#utility.yul\":17323:17329   */\n      0x00\n        /* \"#utility.yul\":17357:17362   */\n      dup2\n        /* \"#utility.yul\":17351:17363   */\n      mload\n        /* \"#utility.yul\":17341:17363   */\n      swap1\n      pop\n        /* \"#utility.yul\":17236:17370   */\n      swap2\n      swap1\n      pop\n      jump\t// out\n        /* \"#utility.yul\":17376:17516   */\n    tag_228:\n        /* \"#utility.yul\":17469:17475   */\n      0x00\n        /* \"#utility.yul\":17503:17508   */\n      dup2\n        /* \"#utility.yul\":17497:17509   */\n      mload\n        /* \"#utility.yul\":17487:17509   */\n      swap1\n      pop\n        /* \"#utility.yul\":17376:17516   */\n      swap2\n      swap1\n      pop\n      jump\t// out\n        /* \"#utility.yul\":17522:17621   */\n    tag_242:\n        /* \"#utility.yul\":17574:17580   */\n      0x00\n        /* \"#utility.yul\":17608:17613   */\n      dup2\n        /* \"#utility.yul\":17602:17614   */\n      mload\n        /* \"#utility.yul\":17592:17614   */\n      swap1\n      pop\n        /* \"#utility.yul\":17522:17621   */\n      swap2\n      swap1\n      pop\n      jump\t// out\n        /* \"#utility.yul\":17627:17760   */\n    tag_224:\n        /* \"#utility.yul\":17717:17721   */\n      0x00\n        /* \"#utility.yul\":17749:17753   */\n      0x20\n        /* \"#utility.yul\":17744:17747   */\n      dup3\n        /* \"#utility.yul\":17740:17754   */\n      add\n        /* \"#utility.yul\":17732:17754   */\n      swap1\n      pop\n        /* \"#utility.yul\":17627:17760   */\n      swap2\n      swap1\n      pop\n      jump\t// out\n        /* \"#utility.yul\":17766:17905   */\n    tag_238:\n        /* \"#utility.yul\":17862:17866   */\n      0x00\n        /* \"#utility.yul\":17894:17898   */\n      0x20\n        /* \"#utility.yul\":17889:17892   */\n      dup3\n        /* \"#utility.yul\":17885:17899   */\n      add\n        /* \"#utility.yul\":17877:17899   */\n      swap1\n      pop\n        /* \"#utility.yul\":17766:17905   */\n      swap2\n      swap1\n      pop\n      jump\t// out\n        /* \"#utility.yul\":17911:18115   */\n    tag_216:\n        /* \"#utility.yul\":18030:18041   */\n      0x00\n        /* \"#utility.yul\":18064:18070   */\n      dup3\n        /* \"#utility.yul\":18059:18062   */\n      dup3\n        /* \"#utility.yul\":18052:18071   */\n      mstore\n        /* \"#utility.yul\":18104:18108   */\n      0x20\n        /* \"#utility.yul\":18099:18102   */\n      dup3\n        /* \"#utility.yul\":18095:18109   */\n      add\n        /* \"#utility.yul\":18080:18109   */\n      swap1\n      pop\n        /* \"#utility.yul\":17911:18115   */\n      swap3\n      swap2\n      pop\n      pop\n      jump\t// out\n        /* \"#utility.yul\":18121:18331   */\n    tag_230:\n        /* \"#utility.yul\":18246:18257   */\n      0x00\n        /* \"#utility.yul\":18280:18286   */\n      dup3\n        /* \"#utility.yul\":18275:18278   */\n      dup3\n        /* \"#utility.yul\":18268:18287   */\n      mstore\n        /* \"#utility.yul\":18320:18324   */\n      0x20\n        /* \"#utility.yul\":18315:18318   */\n      dup3\n        /* \"#utility.yul\":18311:18325   */\n      add\n        /* \"#utility.yul\":18296:18325   */\n      swap1\n      pop\n        /* \"#utility.yul\":18121:18331   */\n      swap3\n      swap2\n      pop\n      pop\n      jump\t// out\n        /* \"#utility.yul\":18337:18496   */\n    tag_244:\n        /* \"#utility.yul\":18411:18422   */\n      0x00\n        /* \"#utility.yul\":18445:18451   */\n      dup3\n        /* \"#utility.yul\":18440:18443   */\n      dup3\n        /* \"#utility.yul\":18433:18452   */\n      mstore\n        /* \"#utility.yul\":18485:18489   */\n      0x20\n        /* \"#utility.yul\":18480:18483   */\n      dup3\n        /* \"#utility.yul\":18476:18490   */\n      add\n        /* \"#utility.yul\":18461:18490   */\n      swap1\n      pop\n        /* \"#utility.yul\":18337:18496   */\n      swap3\n      swap2\n      pop\n      pop\n      jump\t// out\n        /* \"#utility.yul\":18502:18671   */\n    tag_252:\n        /* \"#utility.yul\":18586:18597   */\n      0x00\n        /* \"#utility.yul\":18620:18626   */\n      dup3\n        /* \"#utility.yul\":18615:18618   */\n      dup3\n        /* \"#utility.yul\":18608:18627   */\n      mstore\n        /* \"#utility.yul\":18660:18664   */\n      0x20\n        /* \"#utility.yul\":18655:18658   */\n      dup3\n        /* \"#utility.yul\":18651:18665   */\n      add\n        /* \"#utility.yul\":18636:18665   */\n      swap1\n      pop\n        /* \"#utility.yul\":18502:18671   */\n      swap3\n      swap2\n      pop\n      pop\n      jump\t// out\n        /* \"#utility.yul\":18677:18982   */\n    tag_49:\n        /* \"#utility.yul\":18717:18720   */\n      0x00\n        /* \"#utility.yul\":18736:18756   */\n      tag_337\n        /* \"#utility.yul\":18754:18755   */\n      dup3\n        /* \"#utility.yul\":18736:18756   */\n      tag_298\n      jump\t// in\n    tag_337:\n        /* \"#utility.yul\":18731:18756   */\n      swap2\n      pop\n        /* \"#utility.yul\":18770:18790   */\n      tag_338\n        /* \"#utility.yul\":18788:18789   */\n      dup4\n        /* \"#utility.yul\":18770:18790   */\n      tag_298\n      jump\t// in\n    tag_338:\n        /* \"#utility.yul\":18765:18790   */\n      swap3\n      pop\n        /* \"#utility.yul\":18924:18925   */\n      dup3\n        /* \"#utility.yul\":18856:18922   */\n      0xffffffffffffffffffffffffffffffffffffffffffffffffffffffffffffffff\n        /* \"#utility.yul\":18852:18926   */\n      sub\n        /* \"#utility.yul\":18849:18850   */\n      dup3\n        /* \"#utility.yul\":18846:18927   */\n      gt\n        /* \"#utility.yul\":18843:18950   */\n      iszero\n      tag_339\n      jumpi\n        /* \"#utility.yul\":18930:18948   */\n      tag_340\n      tag_341\n      jump\t// in\n    tag_340:\n        /* \"#utility.yul\":18843:18950   */\n    tag_339:\n        /* \"#utility.yul\":18974:18975   */\n      dup3\n        /* \"#utility.yul\":18971:18972   */\n      dup3\n        /* \"#utility.yul\":18967:18976   */\n      add\n        /* \"#utility.yul\":18960:18976   */\n      swap1\n      pop\n        /* \"#utility.yul\":18677:18982   */\n      swap3\n      swap2\n      pop\n      pop\n      jump\t// out\n        /* \"#utility.yul\":18988:19084   */\n    tag_207:\n        /* \"#utility.yul\":19025:19032   */\n      0x00\n        /* \"#utility.yul\":19054:19078   */\n      tag_343\n        /* \"#utility.yul\":19072:19077   */\n      dup3\n        /* \"#utility.yul\":19054:19078   */\n      tag_344\n      jump\t// in\n    tag_343:\n        /* \"#utility.yul\":19043:19078   */\n      swap1\n      pop\n        /* \"#utility.yul\":18988:19084   */\n      swap2\n      swap1\n      pop\n      jump\t// out\n        /* \"#utility.yul\":19090:19194   */\n    tag_203:\n        /* \"#utility.yul\":19135:19142   */\n      0x00\n        /* \"#utility.yul\":19164:19188   */\n      tag_346\n        /* \"#utility.yul\":19182:19187   */\n      dup3\n        /* \"#utility.yul\":19164:19188   */\n      tag_344\n      jump\t// in\n    tag_346:\n        /* \"#utility.yul\":19153:19188   */\n      swap1\n      pop\n        /* \"#utility.yul\":19090:19194   */\n      swap2\n      swap1\n      pop\n      jump\t// out\n        /* \"#utility.yul\":19200:19326   */\n    tag_344:\n        /* \"#utility.yul\":19237:19244   */\n      0x00\n        /* \"#utility.yul\":19277:19319   */\n      0xffffffffffffffffffffffffffffffffffffffff\n        /* \"#utility.yul\":19270:19275   */\n      dup3\n        /* \"#utility.yul\":19266:19320   */\n      and\n        /* \"#utility.yul\":19255:19320   */\n      swap1\n      pop\n        /* \"#utility.yul\":19200:19326   */\n      swap2\n      swap1\n      pop\n      jump\t// out\n        /* \"#utility.yul\":19332:19409   */\n    tag_298:\n        /* \"#utility.yul\":19369:19376   */\n      0x00\n        /* \"#utility.yul\":19398:19403   */\n      dup2\n        /* \"#utility.yul\":19387:19403   */\n      swap1\n      pop\n        /* \"#utility.yul\":19332:19409   */\n      swap2\n      swap1\n      pop\n      jump\t// out\n        /* \"#utility.yul\":19415:19569   */\n    tag_153:\n        /* \"#utility.yul\":19499:19505   */\n      dup3\n        /* \"#utility.yul\":19494:19497   */\n      dup2\n        /* \"#utility.yul\":19489:19492   */\n      dup4\n        /* \"#utility.yul\":19476:19506   */\n      calldatacopy\n        /* \"#utility.yul\":19561:19562   */\n      0x00\n        /* \"#utility.yul\":19552:19558   */\n      dup4\n        /* \"#utility.yul\":19547:19550   */\n      dup4\n        /* \"#utility.yul\":19543:19559   */\n      add\n        /* \"#utility.yul\":19536:19563   */\n      mstore\n        /* \"#utility.yul\":19415:19569   */\n      pop\n      pop\n      pop\n      jump\t// out\n        /* \"#utility.yul\":19575:19882   */\n    tag_246:\n        /* \"#utility.yul\":19643:19644   */\n      0x00\n        /* \"#utility.yul\":19653:19766   */\n    tag_351:\n        /* \"#utility.yul\":19667:19673   */\n      dup4\n        /* \"#utility.yul\":19664:19665   */\n      dup2\n        /* \"#utility.yul\":19661:19674   */\n      lt\n        /* \"#utility.yul\":19653:19766   */\n      iszero\n      tag_353\n      jumpi\n        /* \"#utility.yul\":19752:19753   */\n      dup1\n        /* \"#utility.yul\":19747:19750   */\n      dup3\n        /* \"#utility.yul\":19743:19754   */\n      add\n        /* \"#utility.yul\":19737:19755   */\n      mload\n        /* \"#utility.yul\":19733:19734   */\n      dup2\n        /* \"#utility.yul\":19728:19731   */\n      dup5\n        /* \"#utility.yul\":19724:19735   */\n      add\n        /* \"#utility.yul\":19717:19756   */\n      mstore\n        /* \"#utility.yul\":19689:19691   */\n      0x20\n        /* \"#utility.yul\":19686:19687   */\n      dup2\n        /* \"#utility.yul\":19682:19692   */\n      add\n        /* \"#utility.yul\":19677:19692   */\n      swap1\n      pop\n        /* \"#utility.yul\":19653:19766   */\n      jump(tag_351)\n    tag_353:\n        /* \"#utility.yul\":19784:19790   */\n      dup4\n        /* \"#utility.yul\":19781:19782   */\n      dup2\n        /* \"#utility.yul\":19778:19791   */\n      gt\n        /* \"#utility.yul\":19775:19876   */\n      iszero\n      tag_354\n      jumpi\n        /* \"#utility.yul\":19864:19865   */\n      0x00\n        /* \"#utility.yul\":19855:19861   */\n      dup5\n        /* \"#utility.yul\":19850:19853   */\n      dup5\n        /* \"#utility.yul\":19846:19862   */\n      add\n        /* \"#utility.yul\":19839:19866   */\n      mstore\n        /* \"#utility.yul\":19775:19876   */\n    tag_354:\n        /* \"#utility.yul\":19624:19882   */\n      pop\n        /* \"#utility.yul\":19575:19882   */\n      pop\n      pop\n      pop\n      jump\t// out\n        /* \"#utility.yul\":19888:20208   */\n    tag_54:\n        /* \"#utility.yul\":19932:19938   */\n      0x00\n        /* \"#utility.yul\":19969:19970   */\n      0x02\n        /* \"#utility.yul\":19963:19967   */\n      dup3\n        /* \"#utility.yul\":19959:19971   */\n      div\n        /* \"#utility.yul\":19949:19971   */\n      swap1\n      pop\n        /* \"#utility.yul\":20016:20017   */\n      0x01\n        /* \"#utility.yul\":20010:20014   */\n      dup3\n        /* \"#utility.yul\":20006:20018   */\n      and\n        /* \"#utility.yul\":20037:20055   */\n      dup1\n        /* \"#utility.yul\":20027:20108   */\n      tag_356\n      jumpi\n        /* \"#utility.yul\":20093:20097   */\n      0x7f\n        /* \"#utility.yul\":20085:20091   */\n      dup3\n        /* \"#utility.yul\":20081:20098   */\n      and\n        /* \"#utility.yul\":20071:20098   */\n      swap2\n      pop\n        /* \"#utility.yul\":20027:20108   */\n    tag_356:\n        /* \"#utility.yul\":20155:20157   */\n      0x20\n        /* \"#utility.yul\":20147:20153   */\n      dup3\n        /* \"#utility.yul\":20144:20158   */\n      lt\n        /* \"#utility.yul\":20124:20142   */\n      dup2\n        /* \"#utility.yul\":20121:20159   */\n      eq\n        /* \"#utility.yul\":20118:20202   */\n      iszero\n      tag_357\n      jumpi\n        /* \"#utility.yul\":20174:20192   */\n      tag_358\n      tag_359\n      jump\t// in\n    tag_358:\n        /* \"#utility.yul\":20118:20202   */\n    tag_357:\n        /* \"#utility.yul\":19939:20208   */\n      pop\n        /* \"#utility.yul\":19888:20208   */\n      swap2\n      swap1\n      pop\n      jump\t// out\n        /* \"#utility.yul\":20214:20495   */\n    tag_319:\n        /* \"#utility.yul\":20297:20324   */\n      tag_361\n        /* \"#utility.yul\":20319:20323   */\n      dup3\n        /* \"#utility.yul\":20297:20324   */\n      tag_248\n      jump\t// in\n    tag_361:\n        /* \"#utility.yul\":20289:20295   */\n      dup2\n        /* \"#utility.yul\":20285:20325   */\n      add\n        /* \"#utility.yul\":20427:20433   */\n      dup2\n        /* \"#utility.yul\":20415:20425   */\n      dup2\n        /* \"#utility.yul\":20412:20434   */\n      lt\n        /* \"#utility.yul\":20391:20409   */\n      0xffffffffffffffff\n        /* \"#utility.yul\":20379:20389   */\n      dup3\n        /* \"#utility.yul\":20376:20410   */\n      gt\n        /* \"#utility.yul\":20373:20435   */\n      or\n        /* \"#utility.yul\":20370:20458   */\n      iszero\n      tag_362\n      jumpi\n        /* \"#utility.yul\":20438:20456   */\n      tag_363\n      tag_67\n      jump\t// in\n    tag_363:\n        /* \"#utility.yul\":20370:20458   */\n    tag_362:\n        /* \"#utility.yul\":20478:20488   */\n      dup1\n        /* \"#utility.yul\":20474:20476   */\n      0x40\n        /* \"#utility.yul\":20467:20489   */\n      mstore\n        /* \"#utility.yul\":20257:20495   */\n      pop\n        /* \"#utility.yul\":20214:20495   */\n      pop\n      pop\n      jump\t// out\n        /* \"#utility.yul\":20501:20734   */\n    tag_47:\n        /* \"#utility.yul\":20540:20543   */\n      0x00\n        /* \"#utility.yul\":20563:20587   */\n      tag_365\n        /* \"#utility.yul\":20581:20586   */\n      dup3\n        /* \"#utility.yul\":20563:20587   */\n      tag_298\n      jump\t// in\n    tag_365:\n        /* \"#utility.yul\":20554:20587   */\n      swap2\n      pop\n        /* \"#utility.yul\":20609:20675   */\n      0xffffffffffffffffffffffffffffffffffffffffffffffffffffffffffffffff\n        /* \"#utility.yul\":20602:20607   */\n      dup3\n        /* \"#utility.yul\":20599:20676   */\n      eq\n        /* \"#utility.yul\":20596:20699   */\n      iszero\n      tag_366\n      jumpi\n        /* \"#utility.yul\":20679:20697   */\n      tag_367\n      tag_341\n      jump\t// in\n    tag_367:\n        /* \"#utility.yul\":20596:20699   */\n    tag_366:\n        /* \"#utility.yul\":20726:20727   */\n      0x01\n        /* \"#utility.yul\":20719:20724   */\n      dup3\n        /* \"#utility.yul\":20715:20728   */\n      add\n        /* \"#utility.yul\":20708:20728   */\n      swap1\n      pop\n        /* \"#utility.yul\":20501:20734   */\n      swap2\n      swap1\n      pop\n      jump\t// out\n        /* \"#utility.yul\":20740:20920   */\n    tag_341:\n        /* \"#utility.yul\":20788:20865   */\n      0x4e487b7100000000000000000000000000000000000000000000000000000000\n        /* \"#utility.yul\":20785:20786   */\n      0x00\n        /* \"#utility.yul\":20778:20866   */\n      mstore\n        /* \"#utility.yul\":20885:20889   */\n      0x11\n        /* \"#utility.yul\":20882:20883   */\n      0x04\n        /* \"#utility.yul\":20875:20890   */\n      mstore\n        /* \"#utility.yul\":20909:20913   */\n      0x24\n        /* \"#utility.yul\":20906:20907   */\n      0x00\n        /* \"#utility.yul\":20899:20914   */\n      revert\n        /* \"#utility.yul\":20926:21106   */\n    tag_359:\n        /* \"#utility.yul\":20974:21051   */\n      0x4e487b7100000000000000000000000000000000000000000000000000000000\n        /* \"#utility.yul\":20971:20972   */\n      0x00\n        /* \"#utility.yul\":20964:21052   */\n      mstore\n        /* \"#utility.yul\":21071:21075   */\n      0x22\n        /* \"#utility.yul\":21068:21069   */\n      0x04\n        /* \"#utility.yul\":21061:21076   */\n      mstore\n        /* \"#utility.yul\":21095:21099   */\n      0x24\n        /* \"#utility.yul\":21092:21093   */\n      0x00\n        /* \"#utility.yul\":21085:21100   */\n      revert\n        /* \"#utility.yul\":21112:21292   */\n    tag_86:\n        /* \"#utility.yul\":21160:21237   */\n      0x4e487b7100000000000000000000000000000000000000000000000000000000\n        /* \"#utility.yul\":21157:21158   */\n      0x00\n        /* \"#utility.yul\":21150:21238   */\n      mstore\n        /* \"#utility.yul\":21257:21261   */\n      0x32\n        /* \"#utility.yul\":21254:21255   */\n      0x04\n        /* \"#utility.yul\":21247:21262   */\n      mstore\n        /* \"#utility.yul\":21281:21285   */\n      0x24\n        /* \"#utility.yul\":21278:21279   */\n      0x00\n        /* \"#utility.yul\":21271:21286   */\n      revert\n        /* \"#utility.yul\":21298:21478   */\n    tag_67:\n        /* \"#utility.yul\":21346:21423   */\n      0x4e487b7100000000000000000000000000000000000000000000000000000000\n        /* \"#utility.yul\":21343:21344   */\n      0x00\n        /* \"#utility.yul\":21336:21424   */\n      mstore\n        /* \"#utility.yul\":21443:21447   */\n      0x41\n        /* \"#utility.yul\":21440:21441   */\n      0x04\n        /* \"#utility.yul\":21433:21448   */\n      mstore\n        /* \"#utility.yul\":21467:21471   */\n      0x24\n        /* \"#utility.yul\":21464:21465   */\n      0x00\n        /* \"#utility.yul\":21457:21472   */\n      revert\n        /* \"#utility.yul\":21484:21601   */\n    tag_162:\n        /* \"#utility.yul\":21593:21594   */\n      0x00\n        /* \"#utility.yul\":21590:21591   */\n      dup1\n        /* \"#utility.yul\":21583:21595   */\n      revert\n        /* \"#utility.yul\":21607:21724   */\n    tag_151:\n        /* \"#utility.yul\":21716:21717   */\n      0x00\n        /* \"#utility.yul\":21713:21714   */\n      dup1\n        /* \"#utility.yul\":21706:21718   */\n      revert\n        /* \"#utility.yul\":21730:21847   */\n    tag_174:\n        /* \"#utility.yul\":21839:21840   */\n      0x00\n        /* \"#utility.yul\":21836:21837   */\n      dup1\n        /* \"#utility.yul\":21829:21841   */\n      revert\n        /* \"#utility.yul\":21853:21970   */\n    tag_171:\n        /* \"#utility.yul\":21962:21963   */\n      0x00\n        /* \"#utility.yul\":21959:21960   */\n      dup1\n        /* \"#utility.yul\":21952:21964   */\n      revert\n        /* \"#utility.yul\":21976:22078   */\n    tag_248:\n        /* \"#utility.yul\":22017:22023   */\n      0x00\n        /* \"#utility.yul\":22068:22070   */\n      0x1f\n        /* \"#utility.yul\":22064:22071   */\n      not\n        /* \"#utility.yul\":22059:22061   */\n      0x1f\n        /* \"#utility.yul\":22052:22057   */\n      dup4\n        /* \"#utility.yul\":22048:22062   */\n      add\n        /* \"#utility.yul\":22044:22072   */\n      and\n        /* \"#utility.yul\":22034:22072   */\n      swap1\n      pop\n        /* \"#utility.yul\":21976:22078   */\n      swap2\n      swap1\n      pop\n      jump\t// out\n        /* \"#utility.yul\":22084:22324   */\n    tag_254:\n        /* \"#utility.yul\":22224:22258   */\n      0x456e6420646174652d74696d652073686f756c64206265206772656174657220\n        /* \"#utility.yul\":22220:22221   */\n      0x00\n        /* \"#utility.yul\":22212:22218   */\n      dup3\n        /* \"#utility.yul\":22208:22222   */\n      add\n        /* \"#utility.yul\":22201:22259   */\n      mstore\n        /* \"#utility.yul\":22293:22316   */\n      0x7468616e20737461727420646174652d74696d652e0000000000000000000000\n        /* \"#utility.yul\":22288:22290   */\n      0x20\n        /* \"#utility.yul\":22280:22286   */\n      dup3\n        /* \"#utility.yul\":22276:22291   */\n      add\n        /* \"#utility.yul\":22269:22317   */\n      mstore\n        /* \"#utility.yul\":22084:22324   */\n      pop\n      jump\t// out\n        /* \"#utility.yul\":22330:22574   */\n    tag_259:\n        /* \"#utility.yul\":22470:22504   */\n      0x537461727420646174652d74696d652073686f756c6420626520677265617465\n        /* \"#utility.yul\":22466:22467   */\n      0x00\n        /* \"#utility.yul\":22458:22464   */\n      dup3\n        /* \"#utility.yul\":22454:22468   */\n      add\n        /* \"#utility.yul\":22447:22505   */\n      mstore\n        /* \"#utility.yul\":22539:22566   */\n      0x72207468616e2063757272656e7420646174652d74696d652e00000000000000\n        /* \"#utility.yul\":22534:22536   */\n      0x20\n        /* \"#utility.yul\":22526:22532   */\n      dup3\n        /* \"#utility.yul\":22522:22537   */\n      add\n        /* \"#utility.yul\":22515:22567   */\n      mstore\n        /* \"#utility.yul\":22330:22574   */\n      pop\n      jump\t// out\n        /* \"#utility.yul\":22580:22824   */\n    tag_264:\n        /* \"#utility.yul\":22720:22754   */\n      0x4f6e6c79206d616e6167657220697320616c6c6f77656420746f20616c6c6f77\n        /* \"#utility.yul\":22716:22717   */\n      0x00\n        /* \"#utility.yul\":22708:22714   */\n      dup3\n        /* \"#utility.yul\":22704:22718   */\n      add\n        /* \"#utility.yul\":22697:22755   */\n      mstore\n        /* \"#utility.yul\":22789:22816   */\n      0x656420746f2063616c6c20746869732066756e6374696f6e2e00000000000000\n        /* \"#utility.yul\":22784:22786   */\n      0x20\n        /* \"#utility.yul\":22776:22782   */\n      dup3\n        /* \"#utility.yul\":22772:22787   */\n      add\n        /* \"#utility.yul\":22765:22817   */\n      mstore\n        /* \"#utility.yul\":22580:22824   */\n      pop\n      jump\t// out\n        /* \"#utility.yul\":22830:23051   */\n    tag_269:\n        /* \"#utility.yul\":22970:23004   */\n      0x46756e6420656e642d6461746520686173206e6f742072656163686564207965\n        /* \"#utility.yul\":22966:22967   */\n      0x00\n        /* \"#utility.yul\":22958:22964   */\n      dup3\n        /* \"#utility.yul\":22954:22968   */\n      add\n        /* \"#utility.yul\":22947:23005   */\n      mstore\n        /* \"#utility.yul\":23039:23043   */\n      0x742e000000000000000000000000000000000000000000000000000000000000\n        /* \"#utility.yul\":23034:23036   */\n      0x20\n        /* \"#utility.yul\":23026:23032   */\n      dup3\n        /* \"#utility.yul\":23022:23037   */\n      add\n        /* \"#utility.yul\":23015:23044   */\n      mstore\n        /* \"#utility.yul\":22830:23051   */\n      pop\n      jump\t// out\n        /* \"#utility.yul\":23057:23195   */\n    tag_157:\n        /* \"#utility.yul\":23138:23170   */\n      tag_382\n        /* \"#utility.yul\":23164:23169   */\n      dup2\n        /* \"#utility.yul\":23138:23170   */\n      tag_203\n      jump\t// in\n    tag_382:\n        /* \"#utility.yul\":23131:23136   */\n      dup2\n        /* \"#utility.yul\":23128:23171   */\n      eq\n        /* \"#utility.yul\":23118:23189   */\n      tag_383\n      jumpi\n        /* \"#utility.yul\":23185:23186   */\n      0x00\n        /* \"#utility.yul\":23182:23183   */\n      dup1\n        /* \"#utility.yul\":23175:23187   */\n      revert\n        /* \"#utility.yul\":23118:23189   */\n    tag_383:\n        /* \"#utility.yul\":23057:23195   */\n      pop\n      jump\t// out\n        /* \"#utility.yul\":23201:23323   */\n    tag_167:\n        /* \"#utility.yul\":23274:23298   */\n      tag_385\n        /* \"#utility.yul\":23292:23297   */\n      dup2\n        /* \"#utility.yul\":23274:23298   */\n      tag_298\n      jump\t// in\n    tag_385:\n        /* \"#utility.yul\":23267:23272   */\n      dup2\n        /* \"#utility.yul\":23264:23299   */\n      eq\n        /* \"#utility.yul\":23254:23317   */\n      tag_386\n      jumpi\n        /* \"#utility.yul\":23313:23314   */\n      0x00\n        /* \"#utility.yul\":23310:23311   */\n      dup1\n        /* \"#utility.yul\":23303:23315   */\n      revert\n        /* \"#utility.yul\":23254:23317   */\n    tag_386:\n        /* \"#utility.yul\":23201:23323   */\n      pop\n      jump\t// out\n\n    auxdata: 0xa2646970667358221220fb038f918b0623d57748f6915d5f8d86d25f31ee33254da232fc63cb5c7316dc64736f6c63430008070033\n}\n",
				"bytecode": {
					"linkReferences": {},
					"object": "608060405234801561001057600080fd5b50336000806101000a81548173ffffffffffffffffffffffffffffffffffffffff021916908373ffffffffffffffffffffffffffffffffffffffff160217905550611917806100606000396000f3fe608060405234801561001057600080fd5b506004361061007d5760003560e01c806326ef2adf1161005b57806326ef2adf146100ec578063481c6a751461011c5780635114cb521461013a578063526ed285146101565761007d565b8063135a34a214610082578063149e685a1461009e5780631c69b464146100ce575b600080fd5b61009c60048036038101906100979190610ef8565b610172565b005b6100b860048036038101906100b39190610ecb565b6102e2565b6040516100c591906113ed565b60405180910390f35b6100d66104bc565b6040516100e39190611329565b60405180910390f35b61010660048036038101906101019190610ecb565b610729565b604051610113919061134b565b60405180910390f35b6101246108b6565b604051610131919061130e565b60405180910390f35b610154600480360381019061014f9190610ecb565b6108da565b005b610170600480360381019061016b9190610e06565b610a38565b005b6000600160008481526020019081526020016000209050428160030154106101cf576040517f08c379a00000000000000000000000000000000000000000000000000000000081526004016101c6906113cd565b60405180910390fd5b60026040518060a0016040528060045481526020018581526020013373ffffffffffffffffffffffffffffffffffffffff168152602001848152602001428152509080600181540180825580915050600190039060005260206000209060050201600090919091909150600082015181600001556020820151816001015560408201518160020160006101000a81548173ffffffffffffffffffffffffffffffffffffffff021916908373ffffffffffffffffffffffffffffffffffffffff16021790555060608201518160030155608082015181600401555050600460008154809291906102bd9061164d565b9190505550818160060160008282546102d69190611504565b92505081905550505050565b6102ea610c29565b600160008381526020019081526020016000206040518061010001604052908160008201548152602001600182018054610323906115ea565b80601f016020809104026020016040519081016040528092919081815260200182805461034f906115ea565b801561039c5780601f106103715761010080835404028352916020019161039c565b820191906000526020600020905b81548152906001019060200180831161037f57829003601f168201915b505050505081526020016002820180546103b5906115ea565b80601f01602080910402602001604051908101604052809291908181526020018280546103e1906115ea565b801561042e5780601f106104035761010080835404028352916020019161042e565b820191906000526020600020905b81548152906001019060200180831161041157829003601f168201915b50505050508152602001600382015481526020016004820154815260200160058201548152602001600682015481526020016007820160009054906101000a900473ffffffffffffffffffffffffffffffffffffffff1673ffffffffffffffffffffffffffffffffffffffff1673ffffffffffffffffffffffffffffffffffffffff16815250509050919050565b6060600060035467ffffffffffffffff8111156104dc576104db611723565b5b60405190808252806020026020018201604052801561051557816020015b610502610c29565b8152602001906001900390816104fa5790505b50905060005b6003548110156107215760016000828152602001908152602001600020604051806101000160405290816000820154815260200160018201805461055e906115ea565b80601f016020809104026020016040519081016040528092919081815260200182805461058a906115ea565b80156105d75780601f106105ac576101008083540402835291602001916105d7565b820191906000526020600020905b8154815290600101906020018083116105ba57829003601f168201915b505050505081526020016002820180546105f0906115ea565b80601f016020809104026020016040519081016040528092919081815260200182805461061c906115ea565b80156106695780601f1061063e57610100808354040283529160200191610669565b820191906000526020600020905b81548152906001019060200180831161064c57829003601f168201915b50505050508152602001600382015481526020016004820154815260200160058201548152602001600682015481526020016007820160009054906101000a900473ffffffffffffffffffffffffffffffffffffffff1673ffffffffffffffffffffffffffffffffffffffff1673ffffffffffffffffffffffffffffffffffffffff1681525050828281518110610703576107026116f4565b5b602002602001018190525080806107199061164d565b91505061051b565b508091505090565b6060600060045467ffffffffffffffff81111561074957610748611723565b5b60405190808252806020026020018201604052801561078257816020015b61076f610c84565b8152602001906001900390816107675790505b5090506000805b6004548110156108ab5784600282815481106107a8576107a76116f4565b5b906000526020600020906005020160010154141561089857600281815481106107d4576107d36116f4565b5b90600052602060002090600502016040518060a001604052908160008201548152602001600182015481526020016002820160009054906101000a900473ffffffffffffffffffffffffffffffffffffffff1673ffffffffffffffffffffffffffffffffffffffff1673ffffffffffffffffffffffffffffffffffffffff1681526020016003820154815260200160048201548152505083838151811061087e5761087d6116f4565b5b602002602001018190525081806108949061164d565b9250505b80806108a39061164d565b915050610789565b508192505050919050565b60008054906101000a900473ffffffffffffffffffffffffffffffffffffffff1681565b3373ffffffffffffffffffffffffffffffffffffffff1660008054906101000a900473ffffffffffffffffffffffffffffffffffffffff1673ffffffffffffffffffffffffffffffffffffffff1614610968576040517f08c379a000000000000000000000000000000000000000000000000000000000815260040161095f906113ad565b60405180910390fd5b6000600160008381526020019081526020016000209050428160040154106109c5576040517f08c379a00000000000000000000000000000000000000000000000000000000081526004016109bc906113cd565b60405180910390fd5b8060070160009054906101000a900473ffffffffffffffffffffffffffffffffffffffff1673ffffffffffffffffffffffffffffffffffffffff166108fc82600601549081150290604051600060405180830381858888f19350505050158015610a33573d6000803e3d6000fd5b505050565b3373ffffffffffffffffffffffffffffffffffffffff1660008054906101000a900473ffffffffffffffffffffffffffffffffffffffff1673ffffffffffffffffffffffffffffffffffffffff1614610ac6576040517f08c379a0000000000000000000000000000000000000000000000000000000008152600401610abd906113ad565b60405180910390fd5b428411610b08576040517f08c379a0000000000000000000000000000000000000000000000000000000008152600401610aff9061138d565b60405180910390fd5b838311610b4a576040517f08c379a0000000000000000000000000000000000000000000000000000000008152600401610b419061136d565b60405180910390fd5b60006001600060035481526020019081526020016000209050600354816000018190555086816001019080519060200190610b86929190610cc9565b5085816002019080519060200190610b9f929190610cc9565b5084816003018190555083816004018190555082816005018190555060008160060181905550818160070160006101000a81548173ffffffffffffffffffffffffffffffffffffffff021916908373ffffffffffffffffffffffffffffffffffffffff16021790555060036000815480929190610c1b9061164d565b919050555050505050505050565b60405180610100016040528060008152602001606081526020016060815260200160008152602001600081526020016000815260200160008152602001600073ffffffffffffffffffffffffffffffffffffffff1681525090565b6040518060a001604052806000815260200160008152602001600073ffffffffffffffffffffffffffffffffffffffff16815260200160008152602001600081525090565b828054610cd5906115ea565b90600052602060002090601f016020900481019282610cf75760008555610d3e565b82601f10610d1057805160ff1916838001178555610d3e565b82800160010185558215610d3e579182015b82811115610d3d578251825591602001919060010190610d22565b5b509050610d4b9190610d4f565b5090565b5b80821115610d68576000816000905550600101610d50565b5090565b6000610d7f610d7a84611434565b61140f565b905082815260208101848484011115610d9b57610d9a611757565b5b610da68482856115a8565b509392505050565b600081359050610dbd816118b3565b92915050565b600082601f830112610dd857610dd7611752565b5b8135610de8848260208601610d6c565b91505092915050565b600081359050610e00816118ca565b92915050565b60008060008060008060c08789031215610e2357610e22611761565b5b600087013567ffffffffffffffff811115610e4157610e4061175c565b5b610e4d89828a01610dc3565b965050602087013567ffffffffffffffff811115610e6e57610e6d61175c565b5b610e7a89828a01610dc3565b9550506040610e8b89828a01610df1565b9450506060610e9c89828a01610df1565b9350506080610ead89828a01610df1565b92505060a0610ebe89828a01610dae565b9150509295509295509295565b600060208284031215610ee157610ee0611761565b5b6000610eef84828501610df1565b91505092915050565b60008060408385031215610f0f57610f0e611761565b5b6000610f1d85828601610df1565b9250506020610f2e85828601610df1565b9150509250929050565b6000610f448383611129565b905092915050565b6000610f588383611297565b60a08301905092915050565b610f6d8161156c565b82525050565b610f7c8161155a565b82525050565b610f8b8161155a565b82525050565b6000610f9c82611485565b610fa681856114c0565b935083602082028501610fb885611465565b8060005b85811015610ff45784840389528151610fd58582610f38565b9450610fe0836114a6565b925060208a01995050600181019050610fbc565b50829750879550505050505092915050565b600061101182611490565b61101b81856114d1565b935061102683611475565b8060005b8381101561105757815161103e8882610f4c565b9750611049836114b3565b92505060018101905061102a565b5085935050505092915050565b600061106f8261149b565b61107981856114e2565b93506110898185602086016115b7565b61109281611766565b840191505092915050565b60006110aa6035836114f3565b91506110b582611777565b604082019050919050565b60006110cd6039836114f3565b91506110d8826117c6565b604082019050919050565b60006110f06039836114f3565b91506110fb82611815565b604082019050919050565b60006111136022836114f3565b915061111e82611864565b604082019050919050565b60006101008301600083015161114260008601826112ff565b506020830151848203602086015261115a8282611064565b915050604083015184820360408601526111748282611064565b915050606083015161118960608601826112ff565b50608083015161119c60808601826112ff565b5060a08301516111af60a08601826112ff565b5060c08301516111c260c08601826112ff565b5060e08301516111d560e0860182610f64565b508091505092915050565b6000610100830160008301516111f960008601826112ff565b50602083015184820360208601526112118282611064565b9150506040830151848203604086015261122b8282611064565b915050606083015161124060608601826112ff565b50608083015161125360808601826112ff565b5060a083015161126660a08601826112ff565b5060c083015161127960c08601826112ff565b5060e083015161128c60e0860182610f64565b508091505092915050565b60a0820160008201516112ad60008501826112ff565b5060208201516112c060208501826112ff565b5060408201516112d36040850182610f73565b5060608201516112e660608501826112ff565b5060808201516112f960808501826112ff565b50505050565b6113088161159e565b82525050565b60006020820190506113236000830184610f82565b92915050565b600060208201905081810360008301526113438184610f91565b905092915050565b600060208201905081810360008301526113658184611006565b905092915050565b600060208201905081810360008301526113868161109d565b9050919050565b600060208201905081810360008301526113a6816110c0565b9050919050565b600060208201905081810360008301526113c6816110e3565b9050919050565b600060208201905081810360008301526113e681611106565b9050919050565b6000602082019050818103600083015261140781846111e0565b905092915050565b600061141961142a565b9050611425828261161c565b919050565b6000604051905090565b600067ffffffffffffffff82111561144f5761144e611723565b5b61145882611766565b9050602081019050919050565b6000819050602082019050919050565b6000819050602082019050919050565b600081519050919050565b600081519050919050565b600081519050919050565b6000602082019050919050565b6000602082019050919050565b600082825260208201905092915050565b600082825260208201905092915050565b600082825260208201905092915050565b600082825260208201905092915050565b600061150f8261159e565b915061151a8361159e565b9250827fffffffffffffffffffffffffffffffffffffffffffffffffffffffffffffffff0382111561154f5761154e611696565b5b828201905092915050565b60006115658261157e565b9050919050565b60006115778261157e565b9050919050565b600073ffffffffffffffffffffffffffffffffffffffff82169050919050565b6000819050919050565b82818337600083830152505050565b60005b838110156115d55780820151818401526020810190506115ba565b838111156115e4576000848401525b50505050565b6000600282049050600182168061160257607f821691505b60208210811415611616576116156116c5565b5b50919050565b61162582611766565b810181811067ffffffffffffffff8211171561164457611643611723565b5b80604052505050565b60006116588261159e565b91507fffffffffffffffffffffffffffffffffffffffffffffffffffffffffffffffff82141561168b5761168a611696565b5b600182019050919050565b7f4e487b7100000000000000000000000000000000000000000000000000000000600052601160045260246000fd5b7f4e487b7100000000000000000000000000000000000000000000000000000000600052602260045260246000fd5b7f4e487b7100000000000000000000000000000000000000000000000000000000600052603260045260246000fd5b7f4e487b7100000000000000000000000000000000000000000000000000000000600052604160045260246000fd5b600080fd5b600080fd5b600080fd5b600080fd5b6000601f19601f8301169050919050565b7f456e6420646174652d74696d652073686f756c6420626520677265617465722060008201527f7468616e20737461727420646174652d74696d652e0000000000000000000000602082015250565b7f537461727420646174652d74696d652073686f756c642062652067726561746560008201527f72207468616e2063757272656e7420646174652d74696d652e00000000000000602082015250565b7f4f6e6c79206d616e6167657220697320616c6c6f77656420746f20616c6c6f7760008201527f656420746f2063616c6c20746869732066756e6374696f6e2e00000000000000602082015250565b7f46756e6420656e642d6461746520686173206e6f74207265616368656420796560008201527f742e000000000000000000000000000000000000000000000000000000000000602082015250565b6118bc8161156c565b81146118c757600080fd5b50565b6118d38161159e565b81146118de57600080fd5b5056fea2646970667358221220fb038f918b0623d57748f6915d5f8d86d25f31ee33254da232fc63cb5c7316dc64736f6c63430008070033",
					"opcodes": "PUSH1 0x80 PUSH1 0x40 MSTORE CALLVALUE DUP1 ISZERO PUSH2 0x10 JUMPI PUSH1 0x0 DUP1 REVERT JUMPDEST POP CALLER PUSH1 0x0 DUP1 PUSH2 0x100 EXP DUP2 SLOAD DUP2 PUSH20 0xFFFFFFFFFFFFFFFFFFFFFFFFFFFFFFFFFFFFFFFF MUL NOT AND SWAP1 DUP4 PUSH20 0xFFFFFFFFFFFFFFFFFFFFFFFFFFFFFFFFFFFFFFFF AND MUL OR SWAP1 SSTORE POP PUSH2 0x1917 DUP1 PUSH2 0x60 PUSH1 0x0 CODECOPY PUSH1 0x0 RETURN INVALID PUSH1 0x80 PUSH1 0x40 MSTORE CALLVALUE DUP1 ISZERO PUSH2 0x10 JUMPI PUSH1 0x0 DUP1 REVERT JUMPDEST POP PUSH1 0x4 CALLDATASIZE LT PUSH2 0x7D JUMPI PUSH1 0x0 CALLDATALOAD PUSH1 0xE0 SHR DUP1 PUSH4 0x26EF2ADF GT PUSH2 0x5B JUMPI DUP1 PUSH4 0x26EF2ADF EQ PUSH2 0xEC JUMPI DUP1 PUSH4 0x481C6A75 EQ PUSH2 0x11C JUMPI DUP1 PUSH4 0x5114CB52 EQ PUSH2 0x13A JUMPI DUP1 PUSH4 0x526ED285 EQ PUSH2 0x156 JUMPI PUSH2 0x7D JUMP JUMPDEST DUP1 PUSH4 0x135A34A2 EQ PUSH2 0x82 JUMPI DUP1 PUSH4 0x149E685A EQ PUSH2 0x9E JUMPI DUP1 PUSH4 0x1C69B464 EQ PUSH2 0xCE JUMPI JUMPDEST PUSH1 0x0 DUP1 REVERT JUMPDEST PUSH2 0x9C PUSH1 0x4 DUP1 CALLDATASIZE SUB DUP2 ADD SWAP1 PUSH2 0x97 SWAP2 SWAP1 PUSH2 0xEF8 JUMP JUMPDEST PUSH2 0x172 JUMP JUMPDEST STOP JUMPDEST PUSH2 0xB8 PUSH1 0x4 DUP1 CALLDATASIZE SUB DUP2 ADD SWAP1 PUSH2 0xB3 SWAP2 SWAP1 PUSH2 0xECB JUMP JUMPDEST PUSH2 0x2E2 JUMP JUMPDEST PUSH1 0x40 MLOAD PUSH2 0xC5 SWAP2 SWAP1 PUSH2 0x13ED JUMP JUMPDEST PUSH1 0x40 MLOAD DUP1 SWAP2 SUB SWAP1 RETURN JUMPDEST PUSH2 0xD6 PUSH2 0x4BC JUMP JUMPDEST PUSH1 0x40 MLOAD PUSH2 0xE3 SWAP2 SWAP1 PUSH2 0x1329 JUMP JUMPDEST PUSH1 0x40 MLOAD DUP1 SWAP2 SUB SWAP1 RETURN JUMPDEST PUSH2 0x106 PUSH1 0x4 DUP1 CALLDATASIZE SUB DUP2 ADD SWAP1 PUSH2 0x101 SWAP2 SWAP1 PUSH2 0xECB JUMP JUMPDEST PUSH2 0x729 JUMP JUMPDEST PUSH1 0x40 MLOAD PUSH2 0x113 SWAP2 SWAP1 PUSH2 0x134B JUMP JUMPDEST PUSH1 0x40 MLOAD DUP1 SWAP2 SUB SWAP1 RETURN JUMPDEST PUSH2 0x124 PUSH2 0x8B6 JUMP JUMPDEST PUSH1 0x40 MLOAD PUSH2 0x131 SWAP2 SWAP1 PUSH2 0x130E JUMP JUMPDEST PUSH1 0x40 MLOAD DUP1 SWAP2 SUB SWAP1 RETURN JUMPDEST PUSH2 0x154 PUSH1 0x4 DUP1 CALLDATASIZE SUB DUP2 ADD SWAP1 PUSH2 0x14F SWAP2 SWAP1 PUSH2 0xECB JUMP JUMPDEST PUSH2 0x8DA JUMP JUMPDEST STOP JUMPDEST PUSH2 0x170 PUSH1 0x4 DUP1 CALLDATASIZE SUB DUP2 ADD SWAP1 PUSH2 0x16B SWAP2 SWAP1 PUSH2 0xE06 JUMP JUMPDEST PUSH2 0xA38 JUMP JUMPDEST STOP JUMPDEST PUSH1 0x0 PUSH1 0x1 PUSH1 0x0 DUP5 DUP2 MSTORE PUSH1 0x20 ADD SWAP1 DUP2 MSTORE PUSH1 0x20 ADD PUSH1 0x0 KECCAK256 SWAP1 POP TIMESTAMP DUP2 PUSH1 0x3 ADD SLOAD LT PUSH2 0x1CF JUMPI PUSH1 0x40 MLOAD PUSH32 0x8C379A000000000000000000000000000000000000000000000000000000000 DUP2 MSTORE PUSH1 0x4 ADD PUSH2 0x1C6 SWAP1 PUSH2 0x13CD JUMP JUMPDEST PUSH1 0x40 MLOAD DUP1 SWAP2 SUB SWAP1 REVERT JUMPDEST PUSH1 0x2 PUSH1 0x40 MLOAD DUP1 PUSH1 0xA0 ADD PUSH1 0x40 MSTORE DUP1 PUSH1 0x4 SLOAD DUP2 MSTORE PUSH1 0x20 ADD DUP6 DUP2 MSTORE PUSH1 0x20 ADD CALLER PUSH20 0xFFFFFFFFFFFFFFFFFFFFFFFFFFFFFFFFFFFFFFFF AND DUP2 MSTORE PUSH1 0x20 ADD DUP5 DUP2 MSTORE PUSH1 0x20 ADD TIMESTAMP DUP2 MSTORE POP SWAP1 DUP1 PUSH1 0x1 DUP2 SLOAD ADD DUP1 DUP3 SSTORE DUP1 SWAP2 POP POP PUSH1 0x1 SWAP1 SUB SWAP1 PUSH1 0x0 MSTORE PUSH1 0x20 PUSH1 0x0 KECCAK256 SWAP1 PUSH1 0x5 MUL ADD PUSH1 0x0 SWAP1 SWAP2 SWAP1 SWAP2 SWAP1 SWAP2 POP PUSH1 0x0 DUP3 ADD MLOAD DUP2 PUSH1 0x0 ADD SSTORE PUSH1 0x20 DUP3 ADD MLOAD DUP2 PUSH1 0x1 ADD SSTORE PUSH1 0x40 DUP3 ADD MLOAD DUP2 PUSH1 0x2 ADD PUSH1 0x0 PUSH2 0x100 EXP DUP2 SLOAD DUP2 PUSH20 0xFFFFFFFFFFFFFFFFFFFFFFFFFFFFFFFFFFFFFFFF MUL NOT AND SWAP1 DUP4 PUSH20 0xFFFFFFFFFFFFFFFFFFFFFFFFFFFFFFFFFFFFFFFF AND MUL OR SWAP1 SSTORE POP PUSH1 0x60 DUP3 ADD MLOAD DUP2 PUSH1 0x3 ADD SSTORE PUSH1 0x80 DUP3 ADD MLOAD DUP2 PUSH1 0x4 ADD SSTORE POP POP PUSH1 0x4 PUSH1 0x0 DUP2 SLOAD DUP1 SWAP3 SWAP2 SWAP1 PUSH2 0x2BD SWAP1 PUSH2 0x164D JUMP JUMPDEST SWAP2 SWAP1 POP SSTORE POP DUP2 DUP2 PUSH1 0x6 ADD PUSH1 0x0 DUP3 DUP3 SLOAD PUSH2 0x2D6 SWAP2 SWAP1 PUSH2 0x1504 JUMP JUMPDEST SWAP3 POP POP DUP2 SWAP1 SSTORE POP POP POP POP JUMP JUMPDEST PUSH2 0x2EA PUSH2 0xC29 JUMP JUMPDEST PUSH1 0x1 PUSH1 0x0 DUP4 DUP2 MSTORE PUSH1 0x20 ADD SWAP1 DUP2 MSTORE PUSH1 0x20 ADD PUSH1 0x0 KECCAK256 PUSH1 0x40 MLOAD DUP1 PUSH2 0x100 ADD PUSH1 0x40 MSTORE SWAP1 DUP2 PUSH1 0x0 DUP3 ADD SLOAD DUP2 MSTORE PUSH1 0x20 ADD PUSH1 0x1 DUP3 ADD DUP1 SLOAD PUSH2 0x323 SWAP1 PUSH2 0x15EA JUMP JUMPDEST DUP1 PUSH1 0x1F ADD PUSH1 0x20 DUP1 SWAP2 DIV MUL PUSH1 0x20 ADD PUSH1 0x40 MLOAD SWAP1 DUP2 ADD PUSH1 0x40 MSTORE DUP1 SWAP3 SWAP2 SWAP1 DUP2 DUP2 MSTORE PUSH1 0x20 ADD DUP3 DUP1 SLOAD PUSH2 0x34F SWAP1 PUSH2 0x15EA JUMP JUMPDEST DUP1 ISZERO PUSH2 0x39C JUMPI DUP1 PUSH1 0x1F LT PUSH2 0x371 JUMPI PUSH2 0x100 DUP1 DUP4 SLOAD DIV MUL DUP4 MSTORE SWAP2 PUSH1 0x20 ADD SWAP2 PUSH2 0x39C JUMP JUMPDEST DUP3 ADD SWAP2 SWAP1 PUSH1 0x0 MSTORE PUSH1 0x20 PUSH1 0x0 KECCAK256 SWAP1 JUMPDEST DUP2 SLOAD DUP2 MSTORE SWAP1 PUSH1 0x1 ADD SWAP1 PUSH1 0x20 ADD DUP1 DUP4 GT PUSH2 0x37F JUMPI DUP3 SWAP1 SUB PUSH1 0x1F AND DUP3 ADD SWAP2 JUMPDEST POP POP POP POP POP DUP2 MSTORE PUSH1 0x20 ADD PUSH1 0x2 DUP3 ADD DUP1 SLOAD PUSH2 0x3B5 SWAP1 PUSH2 0x15EA JUMP JUMPDEST DUP1 PUSH1 0x1F ADD PUSH1 0x20 DUP1 SWAP2 DIV MUL PUSH1 0x20 ADD PUSH1 0x40 MLOAD SWAP1 DUP2 ADD PUSH1 0x40 MSTORE DUP1 SWAP3 SWAP2 SWAP1 DUP2 DUP2 MSTORE PUSH1 0x20 ADD DUP3 DUP1 SLOAD PUSH2 0x3E1 SWAP1 PUSH2 0x15EA JUMP JUMPDEST DUP1 ISZERO PUSH2 0x42E JUMPI DUP1 PUSH1 0x1F LT PUSH2 0x403 JUMPI PUSH2 0x100 DUP1 DUP4 SLOAD DIV MUL DUP4 MSTORE SWAP2 PUSH1 0x20 ADD SWAP2 PUSH2 0x42E JUMP JUMPDEST DUP3 ADD SWAP2 SWAP1 PUSH1 0x0 MSTORE PUSH1 0x20 PUSH1 0x0 KECCAK256 SWAP1 JUMPDEST DUP2 SLOAD DUP2 MSTORE SWAP1 PUSH1 0x1 ADD SWAP1 PUSH1 0x20 ADD DUP1 DUP4 GT PUSH2 0x411 JUMPI DUP3 SWAP1 SUB PUSH1 0x1F AND DUP3 ADD SWAP2 JUMPDEST POP POP POP POP POP DUP2 MSTORE PUSH1 0x20 ADD PUSH1 0x3 DUP3 ADD SLOAD DUP2 MSTORE PUSH1 0x20 ADD PUSH1 0x4 DUP3 ADD SLOAD DUP2 MSTORE PUSH1 0x20 ADD PUSH1 0x5 DUP3 ADD SLOAD DUP2 MSTORE PUSH1 0x20 ADD PUSH1 0x6 DUP3 ADD SLOAD DUP2 MSTORE PUSH1 0x20 ADD PUSH1 0x7 DUP3 ADD PUSH1 0x0 SWAP1 SLOAD SWAP1 PUSH2 0x100 EXP SWAP1 DIV PUSH20 0xFFFFFFFFFFFFFFFFFFFFFFFFFFFFFFFFFFFFFFFF AND PUSH20 0xFFFFFFFFFFFFFFFFFFFFFFFFFFFFFFFFFFFFFFFF AND PUSH20 0xFFFFFFFFFFFFFFFFFFFFFFFFFFFFFFFFFFFFFFFF AND DUP2 MSTORE POP POP SWAP1 POP SWAP2 SWAP1 POP JUMP JUMPDEST PUSH1 0x60 PUSH1 0x0 PUSH1 0x3 SLOAD PUSH8 0xFFFFFFFFFFFFFFFF DUP2 GT ISZERO PUSH2 0x4DC JUMPI PUSH2 0x4DB PUSH2 0x1723 JUMP JUMPDEST JUMPDEST PUSH1 0x40 MLOAD SWAP1 DUP1 DUP3 MSTORE DUP1 PUSH1 0x20 MUL PUSH1 0x20 ADD DUP3 ADD PUSH1 0x40 MSTORE DUP1 ISZERO PUSH2 0x515 JUMPI DUP2 PUSH1 0x20 ADD JUMPDEST PUSH2 0x502 PUSH2 0xC29 JUMP JUMPDEST DUP2 MSTORE PUSH1 0x20 ADD SWAP1 PUSH1 0x1 SWAP1 SUB SWAP1 DUP2 PUSH2 0x4FA JUMPI SWAP1 POP JUMPDEST POP SWAP1 POP PUSH1 0x0 JUMPDEST PUSH1 0x3 SLOAD DUP2 LT ISZERO PUSH2 0x721 JUMPI PUSH1 0x1 PUSH1 0x0 DUP3 DUP2 MSTORE PUSH1 0x20 ADD SWAP1 DUP2 MSTORE PUSH1 0x20 ADD PUSH1 0x0 KECCAK256 PUSH1 0x40 MLOAD DUP1 PUSH2 0x100 ADD PUSH1 0x40 MSTORE SWAP1 DUP2 PUSH1 0x0 DUP3 ADD SLOAD DUP2 MSTORE PUSH1 0x20 ADD PUSH1 0x1 DUP3 ADD DUP1 SLOAD PUSH2 0x55E SWAP1 PUSH2 0x15EA JUMP JUMPDEST DUP1 PUSH1 0x1F ADD PUSH1 0x20 DUP1 SWAP2 DIV MUL PUSH1 0x20 ADD PUSH1 0x40 MLOAD SWAP1 DUP2 ADD PUSH1 0x40 MSTORE DUP1 SWAP3 SWAP2 SWAP1 DUP2 DUP2 MSTORE PUSH1 0x20 ADD DUP3 DUP1 SLOAD PUSH2 0x58A SWAP1 PUSH2 0x15EA JUMP JUMPDEST DUP1 ISZERO PUSH2 0x5D7 JUMPI DUP1 PUSH1 0x1F LT PUSH2 0x5AC JUMPI PUSH2 0x100 DUP1 DUP4 SLOAD DIV MUL DUP4 MSTORE SWAP2 PUSH1 0x20 ADD SWAP2 PUSH2 0x5D7 JUMP JUMPDEST DUP3 ADD SWAP2 SWAP1 PUSH1 0x0 MSTORE PUSH1 0x20 PUSH1 0x0 KECCAK256 SWAP1 JUMPDEST DUP2 SLOAD DUP2 MSTORE SWAP1 PUSH1 0x1 ADD SWAP1 PUSH1 0x20 ADD DUP1 DUP4 GT PUSH2 0x5BA JUMPI DUP3 SWAP1 SUB PUSH1 0x1F AND DUP3 ADD SWAP2 JUMPDEST POP POP POP POP POP DUP2 MSTORE PUSH1 0x20 ADD PUSH1 0x2 DUP3 ADD DUP1 SLOAD PUSH2 0x5F0 SWAP1 PUSH2 0x15EA JUMP JUMPDEST DUP1 PUSH1 0x1F ADD PUSH1 0x20 DUP1 SWAP2 DIV MUL PUSH1 0x20 ADD PUSH1 0x40 MLOAD SWAP1 DUP2 ADD PUSH1 0x40 MSTORE DUP1 SWAP3 SWAP2 SWAP1 DUP2 DUP2 MSTORE PUSH1 0x20 ADD DUP3 DUP1 SLOAD PUSH2 0x61C SWAP1 PUSH2 0x15EA JUMP JUMPDEST DUP1 ISZERO PUSH2 0x669 JUMPI DUP1 PUSH1 0x1F LT PUSH2 0x63E JUMPI PUSH2 0x100 DUP1 DUP4 SLOAD DIV MUL DUP4 MSTORE SWAP2 PUSH1 0x20 ADD SWAP2 PUSH2 0x669 JUMP JUMPDEST DUP3 ADD SWAP2 SWAP1 PUSH1 0x0 MSTORE PUSH1 0x20 PUSH1 0x0 KECCAK256 SWAP1 JUMPDEST DUP2 SLOAD DUP2 MSTORE SWAP1 PUSH1 0x1 ADD SWAP1 PUSH1 0x20 ADD DUP1 DUP4 GT PUSH2 0x64C JUMPI DUP3 SWAP1 SUB PUSH1 0x1F AND DUP3 ADD SWAP2 JUMPDEST POP POP POP POP POP DUP2 MSTORE PUSH1 0x20 ADD PUSH1 0x3 DUP3 ADD SLOAD DUP2 MSTORE PUSH1 0x20 ADD PUSH1 0x4 DUP3 ADD SLOAD DUP2 MSTORE PUSH1 0x20 ADD PUSH1 0x5 DUP3 ADD SLOAD DUP2 MSTORE PUSH1 0x20 ADD PUSH1 0x6 DUP3 ADD SLOAD DUP2 MSTORE PUSH1 0x20 ADD PUSH1 0x7 DUP3 ADD PUSH1 0x0 SWAP1 SLOAD SWAP1 PUSH2 0x100 EXP SWAP1 DIV PUSH20 0xFFFFFFFFFFFFFFFFFFFFFFFFFFFFFFFFFFFFFFFF AND PUSH20 0xFFFFFFFFFFFFFFFFFFFFFFFFFFFFFFFFFFFFFFFF AND PUSH20 0xFFFFFFFFFFFFFFFFFFFFFFFFFFFFFFFFFFFFFFFF AND DUP2 MSTORE POP POP DUP3 DUP3 DUP2 MLOAD DUP2 LT PUSH2 0x703 JUMPI PUSH2 0x702 PUSH2 0x16F4 JUMP JUMPDEST JUMPDEST PUSH1 0x20 MUL PUSH1 0x20 ADD ADD DUP2 SWAP1 MSTORE POP DUP1 DUP1 PUSH2 0x719 SWAP1 PUSH2 0x164D JUMP JUMPDEST SWAP2 POP POP PUSH2 0x51B JUMP JUMPDEST POP DUP1 SWAP2 POP POP SWAP1 JUMP JUMPDEST PUSH1 0x60 PUSH1 0x0 PUSH1 0x4 SLOAD PUSH8 0xFFFFFFFFFFFFFFFF DUP2 GT ISZERO PUSH2 0x749 JUMPI PUSH2 0x748 PUSH2 0x1723 JUMP JUMPDEST JUMPDEST PUSH1 0x40 MLOAD SWAP1 DUP1 DUP3 MSTORE DUP1 PUSH1 0x20 MUL PUSH1 0x20 ADD DUP3 ADD PUSH1 0x40 MSTORE DUP1 ISZERO PUSH2 0x782 JUMPI DUP2 PUSH1 0x20 ADD JUMPDEST PUSH2 0x76F PUSH2 0xC84 JUMP JUMPDEST DUP2 MSTORE PUSH1 0x20 ADD SWAP1 PUSH1 0x1 SWAP1 SUB SWAP1 DUP2 PUSH2 0x767 JUMPI SWAP1 POP JUMPDEST POP SWAP1 POP PUSH1 0x0 DUP1 JUMPDEST PUSH1 0x4 SLOAD DUP2 LT ISZERO PUSH2 0x8AB JUMPI DUP5 PUSH1 0x2 DUP3 DUP2 SLOAD DUP2 LT PUSH2 0x7A8 JUMPI PUSH2 0x7A7 PUSH2 0x16F4 JUMP JUMPDEST JUMPDEST SWAP1 PUSH1 0x0 MSTORE PUSH1 0x20 PUSH1 0x0 KECCAK256 SWAP1 PUSH1 0x5 MUL ADD PUSH1 0x1 ADD SLOAD EQ ISZERO PUSH2 0x898 JUMPI PUSH1 0x2 DUP2 DUP2 SLOAD DUP2 LT PUSH2 0x7D4 JUMPI PUSH2 0x7D3 PUSH2 0x16F4 JUMP JUMPDEST JUMPDEST SWAP1 PUSH1 0x0 MSTORE PUSH1 0x20 PUSH1 0x0 KECCAK256 SWAP1 PUSH1 0x5 MUL ADD PUSH1 0x40 MLOAD DUP1 PUSH1 0xA0 ADD PUSH1 0x40 MSTORE SWAP1 DUP2 PUSH1 0x0 DUP3 ADD SLOAD DUP2 MSTORE PUSH1 0x20 ADD PUSH1 0x1 DUP3 ADD SLOAD DUP2 MSTORE PUSH1 0x20 ADD PUSH1 0x2 DUP3 ADD PUSH1 0x0 SWAP1 SLOAD SWAP1 PUSH2 0x100 EXP SWAP1 DIV PUSH20 0xFFFFFFFFFFFFFFFFFFFFFFFFFFFFFFFFFFFFFFFF AND PUSH20 0xFFFFFFFFFFFFFFFFFFFFFFFFFFFFFFFFFFFFFFFF AND PUSH20 0xFFFFFFFFFFFFFFFFFFFFFFFFFFFFFFFFFFFFFFFF AND DUP2 MSTORE PUSH1 0x20 ADD PUSH1 0x3 DUP3 ADD SLOAD DUP2 MSTORE PUSH1 0x20 ADD PUSH1 0x4 DUP3 ADD SLOAD DUP2 MSTORE POP POP DUP4 DUP4 DUP2 MLOAD DUP2 LT PUSH2 0x87E JUMPI PUSH2 0x87D PUSH2 0x16F4 JUMP JUMPDEST JUMPDEST PUSH1 0x20 MUL PUSH1 0x20 ADD ADD DUP2 SWAP1 MSTORE POP DUP2 DUP1 PUSH2 0x894 SWAP1 PUSH2 0x164D JUMP JUMPDEST SWAP3 POP POP JUMPDEST DUP1 DUP1 PUSH2 0x8A3 SWAP1 PUSH2 0x164D JUMP JUMPDEST SWAP2 POP POP PUSH2 0x789 JUMP JUMPDEST POP DUP2 SWAP3 POP POP POP SWAP2 SWAP1 POP JUMP JUMPDEST PUSH1 0x0 DUP1 SLOAD SWAP1 PUSH2 0x100 EXP SWAP1 DIV PUSH20 0xFFFFFFFFFFFFFFFFFFFFFFFFFFFFFFFFFFFFFFFF AND DUP2 JUMP JUMPDEST CALLER PUSH20 0xFFFFFFFFFFFFFFFFFFFFFFFFFFFFFFFFFFFFFFFF AND PUSH1 0x0 DUP1 SLOAD SWAP1 PUSH2 0x100 EXP SWAP1 DIV PUSH20 0xFFFFFFFFFFFFFFFFFFFFFFFFFFFFFFFFFFFFFFFF AND PUSH20 0xFFFFFFFFFFFFFFFFFFFFFFFFFFFFFFFFFFFFFFFF AND EQ PUSH2 0x968 JUMPI PUSH1 0x40 MLOAD PUSH32 0x8C379A000000000000000000000000000000000000000000000000000000000 DUP2 MSTORE PUSH1 0x4 ADD PUSH2 0x95F SWAP1 PUSH2 0x13AD JUMP JUMPDEST PUSH1 0x40 MLOAD DUP1 SWAP2 SUB SWAP1 REVERT JUMPDEST PUSH1 0x0 PUSH1 0x1 PUSH1 0x0 DUP4 DUP2 MSTORE PUSH1 0x20 ADD SWAP1 DUP2 MSTORE PUSH1 0x20 ADD PUSH1 0x0 KECCAK256 SWAP1 POP TIMESTAMP DUP2 PUSH1 0x4 ADD SLOAD LT PUSH2 0x9C5 JUMPI PUSH1 0x40 MLOAD PUSH32 0x8C379A000000000000000000000000000000000000000000000000000000000 DUP2 MSTORE PUSH1 0x4 ADD PUSH2 0x9BC SWAP1 PUSH2 0x13CD JUMP JUMPDEST PUSH1 0x40 MLOAD DUP1 SWAP2 SUB SWAP1 REVERT JUMPDEST DUP1 PUSH1 0x7 ADD PUSH1 0x0 SWAP1 SLOAD SWAP1 PUSH2 0x100 EXP SWAP1 DIV PUSH20 0xFFFFFFFFFFFFFFFFFFFFFFFFFFFFFFFFFFFFFFFF AND PUSH20 0xFFFFFFFFFFFFFFFFFFFFFFFFFFFFFFFFFFFFFFFF AND PUSH2 0x8FC DUP3 PUSH1 0x6 ADD SLOAD SWAP1 DUP2 ISZERO MUL SWAP1 PUSH1 0x40 MLOAD PUSH1 0x0 PUSH1 0x40 MLOAD DUP1 DUP4 SUB DUP2 DUP6 DUP9 DUP9 CALL SWAP4 POP POP POP POP ISZERO DUP1 ISZERO PUSH2 0xA33 JUMPI RETURNDATASIZE PUSH1 0x0 DUP1 RETURNDATACOPY RETURNDATASIZE PUSH1 0x0 REVERT JUMPDEST POP POP POP JUMP JUMPDEST CALLER PUSH20 0xFFFFFFFFFFFFFFFFFFFFFFFFFFFFFFFFFFFFFFFF AND PUSH1 0x0 DUP1 SLOAD SWAP1 PUSH2 0x100 EXP SWAP1 DIV PUSH20 0xFFFFFFFFFFFFFFFFFFFFFFFFFFFFFFFFFFFFFFFF AND PUSH20 0xFFFFFFFFFFFFFFFFFFFFFFFFFFFFFFFFFFFFFFFF AND EQ PUSH2 0xAC6 JUMPI PUSH1 0x40 MLOAD PUSH32 0x8C379A000000000000000000000000000000000000000000000000000000000 DUP2 MSTORE PUSH1 0x4 ADD PUSH2 0xABD SWAP1 PUSH2 0x13AD JUMP JUMPDEST PUSH1 0x40 MLOAD DUP1 SWAP2 SUB SWAP1 REVERT JUMPDEST TIMESTAMP DUP5 GT PUSH2 0xB08 JUMPI PUSH1 0x40 MLOAD PUSH32 0x8C379A000000000000000000000000000000000000000000000000000000000 DUP2 MSTORE PUSH1 0x4 ADD PUSH2 0xAFF SWAP1 PUSH2 0x138D JUMP JUMPDEST PUSH1 0x40 MLOAD DUP1 SWAP2 SUB SWAP1 REVERT JUMPDEST DUP4 DUP4 GT PUSH2 0xB4A JUMPI PUSH1 0x40 MLOAD PUSH32 0x8C379A000000000000000000000000000000000000000000000000000000000 DUP2 MSTORE PUSH1 0x4 ADD PUSH2 0xB41 SWAP1 PUSH2 0x136D JUMP JUMPDEST PUSH1 0x40 MLOAD DUP1 SWAP2 SUB SWAP1 REVERT JUMPDEST PUSH1 0x0 PUSH1 0x1 PUSH1 0x0 PUSH1 0x3 SLOAD DUP2 MSTORE PUSH1 0x20 ADD SWAP1 DUP2 MSTORE PUSH1 0x20 ADD PUSH1 0x0 KECCAK256 SWAP1 POP PUSH1 0x3 SLOAD DUP2 PUSH1 0x0 ADD DUP2 SWAP1 SSTORE POP DUP7 DUP2 PUSH1 0x1 ADD SWAP1 DUP1 MLOAD SWAP1 PUSH1 0x20 ADD SWAP1 PUSH2 0xB86 SWAP3 SWAP2 SWAP1 PUSH2 0xCC9 JUMP JUMPDEST POP DUP6 DUP2 PUSH1 0x2 ADD SWAP1 DUP1 MLOAD SWAP1 PUSH1 0x20 ADD SWAP1 PUSH2 0xB9F SWAP3 SWAP2 SWAP1 PUSH2 0xCC9 JUMP JUMPDEST POP DUP5 DUP2 PUSH1 0x3 ADD DUP2 SWAP1 SSTORE POP DUP4 DUP2 PUSH1 0x4 ADD DUP2 SWAP1 SSTORE POP DUP3 DUP2 PUSH1 0x5 ADD DUP2 SWAP1 SSTORE POP PUSH1 0x0 DUP2 PUSH1 0x6 ADD DUP2 SWAP1 SSTORE POP DUP2 DUP2 PUSH1 0x7 ADD PUSH1 0x0 PUSH2 0x100 EXP DUP2 SLOAD DUP2 PUSH20 0xFFFFFFFFFFFFFFFFFFFFFFFFFFFFFFFFFFFFFFFF MUL NOT AND SWAP1 DUP4 PUSH20 0xFFFFFFFFFFFFFFFFFFFFFFFFFFFFFFFFFFFFFFFF AND MUL OR SWAP1 SSTORE POP PUSH1 0x3 PUSH1 0x0 DUP2 SLOAD DUP1 SWAP3 SWAP2 SWAP1 PUSH2 0xC1B SWAP1 PUSH2 0x164D JUMP JUMPDEST SWAP2 SWAP1 POP SSTORE POP POP POP POP POP POP POP POP JUMP JUMPDEST PUSH1 0x40 MLOAD DUP1 PUSH2 0x100 ADD PUSH1 0x40 MSTORE DUP1 PUSH1 0x0 DUP2 MSTORE PUSH1 0x20 ADD PUSH1 0x60 DUP2 MSTORE PUSH1 0x20 ADD PUSH1 0x60 DUP2 MSTORE PUSH1 0x20 ADD PUSH1 0x0 DUP2 MSTORE PUSH1 0x20 ADD PUSH1 0x0 DUP2 MSTORE PUSH1 0x20 ADD PUSH1 0x0 DUP2 MSTORE PUSH1 0x20 ADD PUSH1 0x0 DUP2 MSTORE PUSH1 0x20 ADD PUSH1 0x0 PUSH20 0xFFFFFFFFFFFFFFFFFFFFFFFFFFFFFFFFFFFFFFFF AND DUP2 MSTORE POP SWAP1 JUMP JUMPDEST PUSH1 0x40 MLOAD DUP1 PUSH1 0xA0 ADD PUSH1 0x40 MSTORE DUP1 PUSH1 0x0 DUP2 MSTORE PUSH1 0x20 ADD PUSH1 0x0 DUP2 MSTORE PUSH1 0x20 ADD PUSH1 0x0 PUSH20 0xFFFFFFFFFFFFFFFFFFFFFFFFFFFFFFFFFFFFFFFF AND DUP2 MSTORE PUSH1 0x20 ADD PUSH1 0x0 DUP2 MSTORE PUSH1 0x20 ADD PUSH1 0x0 DUP2 MSTORE POP SWAP1 JUMP JUMPDEST DUP3 DUP1 SLOAD PUSH2 0xCD5 SWAP1 PUSH2 0x15EA JUMP JUMPDEST SWAP1 PUSH1 0x0 MSTORE PUSH1 0x20 PUSH1 0x0 KECCAK256 SWAP1 PUSH1 0x1F ADD PUSH1 0x20 SWAP1 DIV DUP2 ADD SWAP3 DUP3 PUSH2 0xCF7 JUMPI PUSH1 0x0 DUP6 SSTORE PUSH2 0xD3E JUMP JUMPDEST DUP3 PUSH1 0x1F LT PUSH2 0xD10 JUMPI DUP1 MLOAD PUSH1 0xFF NOT AND DUP4 DUP1 ADD OR DUP6 SSTORE PUSH2 0xD3E JUMP JUMPDEST DUP3 DUP1 ADD PUSH1 0x1 ADD DUP6 SSTORE DUP3 ISZERO PUSH2 0xD3E JUMPI SWAP2 DUP3 ADD JUMPDEST DUP3 DUP2 GT ISZERO PUSH2 0xD3D JUMPI DUP3 MLOAD DUP3 SSTORE SWAP2 PUSH1 0x20 ADD SWAP2 SWAP1 PUSH1 0x1 ADD SWAP1 PUSH2 0xD22 JUMP JUMPDEST JUMPDEST POP SWAP1 POP PUSH2 0xD4B SWAP2 SWAP1 PUSH2 0xD4F JUMP JUMPDEST POP SWAP1 JUMP JUMPDEST JUMPDEST DUP1 DUP3 GT ISZERO PUSH2 0xD68 JUMPI PUSH1 0x0 DUP2 PUSH1 0x0 SWAP1 SSTORE POP PUSH1 0x1 ADD PUSH2 0xD50 JUMP JUMPDEST POP SWAP1 JUMP JUMPDEST PUSH1 0x0 PUSH2 0xD7F PUSH2 0xD7A DUP5 PUSH2 0x1434 JUMP JUMPDEST PUSH2 0x140F JUMP JUMPDEST SWAP1 POP DUP3 DUP2 MSTORE PUSH1 0x20 DUP2 ADD DUP5 DUP5 DUP5 ADD GT ISZERO PUSH2 0xD9B JUMPI PUSH2 0xD9A PUSH2 0x1757 JUMP JUMPDEST JUMPDEST PUSH2 0xDA6 DUP5 DUP3 DUP6 PUSH2 0x15A8 JUMP JUMPDEST POP SWAP4 SWAP3 POP POP POP JUMP JUMPDEST PUSH1 0x0 DUP2 CALLDATALOAD SWAP1 POP PUSH2 0xDBD DUP2 PUSH2 0x18B3 JUMP JUMPDEST SWAP3 SWAP2 POP POP JUMP JUMPDEST PUSH1 0x0 DUP3 PUSH1 0x1F DUP4 ADD SLT PUSH2 0xDD8 JUMPI PUSH2 0xDD7 PUSH2 0x1752 JUMP JUMPDEST JUMPDEST DUP2 CALLDATALOAD PUSH2 0xDE8 DUP5 DUP3 PUSH1 0x20 DUP7 ADD PUSH2 0xD6C JUMP JUMPDEST SWAP2 POP POP SWAP3 SWAP2 POP POP JUMP JUMPDEST PUSH1 0x0 DUP2 CALLDATALOAD SWAP1 POP PUSH2 0xE00 DUP2 PUSH2 0x18CA JUMP JUMPDEST SWAP3 SWAP2 POP POP JUMP JUMPDEST PUSH1 0x0 DUP1 PUSH1 0x0 DUP1 PUSH1 0x0 DUP1 PUSH1 0xC0 DUP8 DUP10 SUB SLT ISZERO PUSH2 0xE23 JUMPI PUSH2 0xE22 PUSH2 0x1761 JUMP JUMPDEST JUMPDEST PUSH1 0x0 DUP8 ADD CALLDATALOAD PUSH8 0xFFFFFFFFFFFFFFFF DUP2 GT ISZERO PUSH2 0xE41 JUMPI PUSH2 0xE40 PUSH2 0x175C JUMP JUMPDEST JUMPDEST PUSH2 0xE4D DUP10 DUP3 DUP11 ADD PUSH2 0xDC3 JUMP JUMPDEST SWAP7 POP POP PUSH1 0x20 DUP8 ADD CALLDATALOAD PUSH8 0xFFFFFFFFFFFFFFFF DUP2 GT ISZERO PUSH2 0xE6E JUMPI PUSH2 0xE6D PUSH2 0x175C JUMP JUMPDEST JUMPDEST PUSH2 0xE7A DUP10 DUP3 DUP11 ADD PUSH2 0xDC3 JUMP JUMPDEST SWAP6 POP POP PUSH1 0x40 PUSH2 0xE8B DUP10 DUP3 DUP11 ADD PUSH2 0xDF1 JUMP JUMPDEST SWAP5 POP POP PUSH1 0x60 PUSH2 0xE9C DUP10 DUP3 DUP11 ADD PUSH2 0xDF1 JUMP JUMPDEST SWAP4 POP POP PUSH1 0x80 PUSH2 0xEAD DUP10 DUP3 DUP11 ADD PUSH2 0xDF1 JUMP JUMPDEST SWAP3 POP POP PUSH1 0xA0 PUSH2 0xEBE DUP10 DUP3 DUP11 ADD PUSH2 0xDAE JUMP JUMPDEST SWAP2 POP POP SWAP3 SWAP6 POP SWAP3 SWAP6 POP SWAP3 SWAP6 JUMP JUMPDEST PUSH1 0x0 PUSH1 0x20 DUP3 DUP5 SUB SLT ISZERO PUSH2 0xEE1 JUMPI PUSH2 0xEE0 PUSH2 0x1761 JUMP JUMPDEST JUMPDEST PUSH1 0x0 PUSH2 0xEEF DUP5 DUP3 DUP6 ADD PUSH2 0xDF1 JUMP JUMPDEST SWAP2 POP POP SWAP3 SWAP2 POP POP JUMP JUMPDEST PUSH1 0x0 DUP1 PUSH1 0x40 DUP4 DUP6 SUB SLT ISZERO PUSH2 0xF0F JUMPI PUSH2 0xF0E PUSH2 0x1761 JUMP JUMPDEST JUMPDEST PUSH1 0x0 PUSH2 0xF1D DUP6 DUP3 DUP7 ADD PUSH2 0xDF1 JUMP JUMPDEST SWAP3 POP POP PUSH1 0x20 PUSH2 0xF2E DUP6 DUP3 DUP7 ADD PUSH2 0xDF1 JUMP JUMPDEST SWAP2 POP POP SWAP3 POP SWAP3 SWAP1 POP JUMP JUMPDEST PUSH1 0x0 PUSH2 0xF44 DUP4 DUP4 PUSH2 0x1129 JUMP JUMPDEST SWAP1 POP SWAP3 SWAP2 POP POP JUMP JUMPDEST PUSH1 0x0 PUSH2 0xF58 DUP4 DUP4 PUSH2 0x1297 JUMP JUMPDEST PUSH1 0xA0 DUP4 ADD SWAP1 POP SWAP3 SWAP2 POP POP JUMP JUMPDEST PUSH2 0xF6D DUP2 PUSH2 0x156C JUMP JUMPDEST DUP3 MSTORE POP POP JUMP JUMPDEST PUSH2 0xF7C DUP2 PUSH2 0x155A JUMP JUMPDEST DUP3 MSTORE POP POP JUMP JUMPDEST PUSH2 0xF8B DUP2 PUSH2 0x155A JUMP JUMPDEST DUP3 MSTORE POP POP JUMP JUMPDEST PUSH1 0x0 PUSH2 0xF9C DUP3 PUSH2 0x1485 JUMP JUMPDEST PUSH2 0xFA6 DUP2 DUP6 PUSH2 0x14C0 JUMP JUMPDEST SWAP4 POP DUP4 PUSH1 0x20 DUP3 MUL DUP6 ADD PUSH2 0xFB8 DUP6 PUSH2 0x1465 JUMP JUMPDEST DUP1 PUSH1 0x0 JUMPDEST DUP6 DUP2 LT ISZERO PUSH2 0xFF4 JUMPI DUP5 DUP5 SUB DUP10 MSTORE DUP2 MLOAD PUSH2 0xFD5 DUP6 DUP3 PUSH2 0xF38 JUMP JUMPDEST SWAP5 POP PUSH2 0xFE0 DUP4 PUSH2 0x14A6 JUMP JUMPDEST SWAP3 POP PUSH1 0x20 DUP11 ADD SWAP10 POP POP PUSH1 0x1 DUP2 ADD SWAP1 POP PUSH2 0xFBC JUMP JUMPDEST POP DUP3 SWAP8 POP DUP8 SWAP6 POP POP POP POP POP POP SWAP3 SWAP2 POP POP JUMP JUMPDEST PUSH1 0x0 PUSH2 0x1011 DUP3 PUSH2 0x1490 JUMP JUMPDEST PUSH2 0x101B DUP2 DUP6 PUSH2 0x14D1 JUMP JUMPDEST SWAP4 POP PUSH2 0x1026 DUP4 PUSH2 0x1475 JUMP JUMPDEST DUP1 PUSH1 0x0 JUMPDEST DUP4 DUP2 LT ISZERO PUSH2 0x1057 JUMPI DUP2 MLOAD PUSH2 0x103E DUP9 DUP3 PUSH2 0xF4C JUMP JUMPDEST SWAP8 POP PUSH2 0x1049 DUP4 PUSH2 0x14B3 JUMP JUMPDEST SWAP3 POP POP PUSH1 0x1 DUP2 ADD SWAP1 POP PUSH2 0x102A JUMP JUMPDEST POP DUP6 SWAP4 POP POP POP POP SWAP3 SWAP2 POP POP JUMP JUMPDEST PUSH1 0x0 PUSH2 0x106F DUP3 PUSH2 0x149B JUMP JUMPDEST PUSH2 0x1079 DUP2 DUP6 PUSH2 0x14E2 JUMP JUMPDEST SWAP4 POP PUSH2 0x1089 DUP2 DUP6 PUSH1 0x20 DUP7 ADD PUSH2 0x15B7 JUMP JUMPDEST PUSH2 0x1092 DUP2 PUSH2 0x1766 JUMP JUMPDEST DUP5 ADD SWAP2 POP POP SWAP3 SWAP2 POP POP JUMP JUMPDEST PUSH1 0x0 PUSH2 0x10AA PUSH1 0x35 DUP4 PUSH2 0x14F3 JUMP JUMPDEST SWAP2 POP PUSH2 0x10B5 DUP3 PUSH2 0x1777 JUMP JUMPDEST PUSH1 0x40 DUP3 ADD SWAP1 POP SWAP2 SWAP1 POP JUMP JUMPDEST PUSH1 0x0 PUSH2 0x10CD PUSH1 0x39 DUP4 PUSH2 0x14F3 JUMP JUMPDEST SWAP2 POP PUSH2 0x10D8 DUP3 PUSH2 0x17C6 JUMP JUMPDEST PUSH1 0x40 DUP3 ADD SWAP1 POP SWAP2 SWAP1 POP JUMP JUMPDEST PUSH1 0x0 PUSH2 0x10F0 PUSH1 0x39 DUP4 PUSH2 0x14F3 JUMP JUMPDEST SWAP2 POP PUSH2 0x10FB DUP3 PUSH2 0x1815 JUMP JUMPDEST PUSH1 0x40 DUP3 ADD SWAP1 POP SWAP2 SWAP1 POP JUMP JUMPDEST PUSH1 0x0 PUSH2 0x1113 PUSH1 0x22 DUP4 PUSH2 0x14F3 JUMP JUMPDEST SWAP2 POP PUSH2 0x111E DUP3 PUSH2 0x1864 JUMP JUMPDEST PUSH1 0x40 DUP3 ADD SWAP1 POP SWAP2 SWAP1 POP JUMP JUMPDEST PUSH1 0x0 PUSH2 0x100 DUP4 ADD PUSH1 0x0 DUP4 ADD MLOAD PUSH2 0x1142 PUSH1 0x0 DUP7 ADD DUP3 PUSH2 0x12FF JUMP JUMPDEST POP PUSH1 0x20 DUP4 ADD MLOAD DUP5 DUP3 SUB PUSH1 0x20 DUP7 ADD MSTORE PUSH2 0x115A DUP3 DUP3 PUSH2 0x1064 JUMP JUMPDEST SWAP2 POP POP PUSH1 0x40 DUP4 ADD MLOAD DUP5 DUP3 SUB PUSH1 0x40 DUP7 ADD MSTORE PUSH2 0x1174 DUP3 DUP3 PUSH2 0x1064 JUMP JUMPDEST SWAP2 POP POP PUSH1 0x60 DUP4 ADD MLOAD PUSH2 0x1189 PUSH1 0x60 DUP7 ADD DUP3 PUSH2 0x12FF JUMP JUMPDEST POP PUSH1 0x80 DUP4 ADD MLOAD PUSH2 0x119C PUSH1 0x80 DUP7 ADD DUP3 PUSH2 0x12FF JUMP JUMPDEST POP PUSH1 0xA0 DUP4 ADD MLOAD PUSH2 0x11AF PUSH1 0xA0 DUP7 ADD DUP3 PUSH2 0x12FF JUMP JUMPDEST POP PUSH1 0xC0 DUP4 ADD MLOAD PUSH2 0x11C2 PUSH1 0xC0 DUP7 ADD DUP3 PUSH2 0x12FF JUMP JUMPDEST POP PUSH1 0xE0 DUP4 ADD MLOAD PUSH2 0x11D5 PUSH1 0xE0 DUP7 ADD DUP3 PUSH2 0xF64 JUMP JUMPDEST POP DUP1 SWAP2 POP POP SWAP3 SWAP2 POP POP JUMP JUMPDEST PUSH1 0x0 PUSH2 0x100 DUP4 ADD PUSH1 0x0 DUP4 ADD MLOAD PUSH2 0x11F9 PUSH1 0x0 DUP7 ADD DUP3 PUSH2 0x12FF JUMP JUMPDEST POP PUSH1 0x20 DUP4 ADD MLOAD DUP5 DUP3 SUB PUSH1 0x20 DUP7 ADD MSTORE PUSH2 0x1211 DUP3 DUP3 PUSH2 0x1064 JUMP JUMPDEST SWAP2 POP POP PUSH1 0x40 DUP4 ADD MLOAD DUP5 DUP3 SUB PUSH1 0x40 DUP7 ADD MSTORE PUSH2 0x122B DUP3 DUP3 PUSH2 0x1064 JUMP JUMPDEST SWAP2 POP POP PUSH1 0x60 DUP4 ADD MLOAD PUSH2 0x1240 PUSH1 0x60 DUP7 ADD DUP3 PUSH2 0x12FF JUMP JUMPDEST POP PUSH1 0x80 DUP4 ADD MLOAD PUSH2 0x1253 PUSH1 0x80 DUP7 ADD DUP3 PUSH2 0x12FF JUMP JUMPDEST POP PUSH1 0xA0 DUP4 ADD MLOAD PUSH2 0x1266 PUSH1 0xA0 DUP7 ADD DUP3 PUSH2 0x12FF JUMP JUMPDEST POP PUSH1 0xC0 DUP4 ADD MLOAD PUSH2 0x1279 PUSH1 0xC0 DUP7 ADD DUP3 PUSH2 0x12FF JUMP JUMPDEST POP PUSH1 0xE0 DUP4 ADD MLOAD PUSH2 0x128C PUSH1 0xE0 DUP7 ADD DUP3 PUSH2 0xF64 JUMP JUMPDEST POP DUP1 SWAP2 POP POP SWAP3 SWAP2 POP POP JUMP JUMPDEST PUSH1 0xA0 DUP3 ADD PUSH1 0x0 DUP3 ADD MLOAD PUSH2 0x12AD PUSH1 0x0 DUP6 ADD DUP3 PUSH2 0x12FF JUMP JUMPDEST POP PUSH1 0x20 DUP3 ADD MLOAD PUSH2 0x12C0 PUSH1 0x20 DUP6 ADD DUP3 PUSH2 0x12FF JUMP JUMPDEST POP PUSH1 0x40 DUP3 ADD MLOAD PUSH2 0x12D3 PUSH1 0x40 DUP6 ADD DUP3 PUSH2 0xF73 JUMP JUMPDEST POP PUSH1 0x60 DUP3 ADD MLOAD PUSH2 0x12E6 PUSH1 0x60 DUP6 ADD DUP3 PUSH2 0x12FF JUMP JUMPDEST POP PUSH1 0x80 DUP3 ADD MLOAD PUSH2 0x12F9 PUSH1 0x80 DUP6 ADD DUP3 PUSH2 0x12FF JUMP JUMPDEST POP POP POP POP JUMP JUMPDEST PUSH2 0x1308 DUP2 PUSH2 0x159E JUMP JUMPDEST DUP3 MSTORE POP POP JUMP JUMPDEST PUSH1 0x0 PUSH1 0x20 DUP3 ADD SWAP1 POP PUSH2 0x1323 PUSH1 0x0 DUP4 ADD DUP5 PUSH2 0xF82 JUMP JUMPDEST SWAP3 SWAP2 POP POP JUMP JUMPDEST PUSH1 0x0 PUSH1 0x20 DUP3 ADD SWAP1 POP DUP2 DUP2 SUB PUSH1 0x0 DUP4 ADD MSTORE PUSH2 0x1343 DUP2 DUP5 PUSH2 0xF91 JUMP JUMPDEST SWAP1 POP SWAP3 SWAP2 POP POP JUMP JUMPDEST PUSH1 0x0 PUSH1 0x20 DUP3 ADD SWAP1 POP DUP2 DUP2 SUB PUSH1 0x0 DUP4 ADD MSTORE PUSH2 0x1365 DUP2 DUP5 PUSH2 0x1006 JUMP JUMPDEST SWAP1 POP SWAP3 SWAP2 POP POP JUMP JUMPDEST PUSH1 0x0 PUSH1 0x20 DUP3 ADD SWAP1 POP DUP2 DUP2 SUB PUSH1 0x0 DUP4 ADD MSTORE PUSH2 0x1386 DUP2 PUSH2 0x109D JUMP JUMPDEST SWAP1 POP SWAP2 SWAP1 POP JUMP JUMPDEST PUSH1 0x0 PUSH1 0x20 DUP3 ADD SWAP1 POP DUP2 DUP2 SUB PUSH1 0x0 DUP4 ADD MSTORE PUSH2 0x13A6 DUP2 PUSH2 0x10C0 JUMP JUMPDEST SWAP1 POP SWAP2 SWAP1 POP JUMP JUMPDEST PUSH1 0x0 PUSH1 0x20 DUP3 ADD SWAP1 POP DUP2 DUP2 SUB PUSH1 0x0 DUP4 ADD MSTORE PUSH2 0x13C6 DUP2 PUSH2 0x10E3 JUMP JUMPDEST SWAP1 POP SWAP2 SWAP1 POP JUMP JUMPDEST PUSH1 0x0 PUSH1 0x20 DUP3 ADD SWAP1 POP DUP2 DUP2 SUB PUSH1 0x0 DUP4 ADD MSTORE PUSH2 0x13E6 DUP2 PUSH2 0x1106 JUMP JUMPDEST SWAP1 POP SWAP2 SWAP1 POP JUMP JUMPDEST PUSH1 0x0 PUSH1 0x20 DUP3 ADD SWAP1 POP DUP2 DUP2 SUB PUSH1 0x0 DUP4 ADD MSTORE PUSH2 0x1407 DUP2 DUP5 PUSH2 0x11E0 JUMP JUMPDEST SWAP1 POP SWAP3 SWAP2 POP POP JUMP JUMPDEST PUSH1 0x0 PUSH2 0x1419 PUSH2 0x142A JUMP JUMPDEST SWAP1 POP PUSH2 0x1425 DUP3 DUP3 PUSH2 0x161C JUMP JUMPDEST SWAP2 SWAP1 POP JUMP JUMPDEST PUSH1 0x0 PUSH1 0x40 MLOAD SWAP1 POP SWAP1 JUMP JUMPDEST PUSH1 0x0 PUSH8 0xFFFFFFFFFFFFFFFF DUP3 GT ISZERO PUSH2 0x144F JUMPI PUSH2 0x144E PUSH2 0x1723 JUMP JUMPDEST JUMPDEST PUSH2 0x1458 DUP3 PUSH2 0x1766 JUMP JUMPDEST SWAP1 POP PUSH1 0x20 DUP2 ADD SWAP1 POP SWAP2 SWAP1 POP JUMP JUMPDEST PUSH1 0x0 DUP2 SWAP1 POP PUSH1 0x20 DUP3 ADD SWAP1 POP SWAP2 SWAP1 POP JUMP JUMPDEST PUSH1 0x0 DUP2 SWAP1 POP PUSH1 0x20 DUP3 ADD SWAP1 POP SWAP2 SWAP1 POP JUMP JUMPDEST PUSH1 0x0 DUP2 MLOAD SWAP1 POP SWAP2 SWAP1 POP JUMP JUMPDEST PUSH1 0x0 DUP2 MLOAD SWAP1 POP SWAP2 SWAP1 POP JUMP JUMPDEST PUSH1 0x0 DUP2 MLOAD SWAP1 POP SWAP2 SWAP1 POP JUMP JUMPDEST PUSH1 0x0 PUSH1 0x20 DUP3 ADD SWAP1 POP SWAP2 SWAP1 POP JUMP JUMPDEST PUSH1 0x0 PUSH1 0x20 DUP3 ADD SWAP1 POP SWAP2 SWAP1 POP JUMP JUMPDEST PUSH1 0x0 DUP3 DUP3 MSTORE PUSH1 0x20 DUP3 ADD SWAP1 POP SWAP3 SWAP2 POP POP JUMP JUMPDEST PUSH1 0x0 DUP3 DUP3 MSTORE PUSH1 0x20 DUP3 ADD SWAP1 POP SWAP3 SWAP2 POP POP JUMP JUMPDEST PUSH1 0x0 DUP3 DUP3 MSTORE PUSH1 0x20 DUP3 ADD SWAP1 POP SWAP3 SWAP2 POP POP JUMP JUMPDEST PUSH1 0x0 DUP3 DUP3 MSTORE PUSH1 0x20 DUP3 ADD SWAP1 POP SWAP3 SWAP2 POP POP JUMP JUMPDEST PUSH1 0x0 PUSH2 0x150F DUP3 PUSH2 0x159E JUMP JUMPDEST SWAP2 POP PUSH2 0x151A DUP4 PUSH2 0x159E JUMP JUMPDEST SWAP3 POP DUP3 PUSH32 0xFFFFFFFFFFFFFFFFFFFFFFFFFFFFFFFFFFFFFFFFFFFFFFFFFFFFFFFFFFFFFFFF SUB DUP3 GT ISZERO PUSH2 0x154F JUMPI PUSH2 0x154E PUSH2 0x1696 JUMP JUMPDEST JUMPDEST DUP3 DUP3 ADD SWAP1 POP SWAP3 SWAP2 POP POP JUMP JUMPDEST PUSH1 0x0 PUSH2 0x1565 DUP3 PUSH2 0x157E JUMP JUMPDEST SWAP1 POP SWAP2 SWAP1 POP JUMP JUMPDEST PUSH1 0x0 PUSH2 0x1577 DUP3 PUSH2 0x157E JUMP JUMPDEST SWAP1 POP SWAP2 SWAP1 POP JUMP JUMPDEST PUSH1 0x0 PUSH20 0xFFFFFFFFFFFFFFFFFFFFFFFFFFFFFFFFFFFFFFFF DUP3 AND SWAP1 POP SWAP2 SWAP1 POP JUMP JUMPDEST PUSH1 0x0 DUP2 SWAP1 POP SWAP2 SWAP1 POP JUMP JUMPDEST DUP3 DUP2 DUP4 CALLDATACOPY PUSH1 0x0 DUP4 DUP4 ADD MSTORE POP POP POP JUMP JUMPDEST PUSH1 0x0 JUMPDEST DUP4 DUP2 LT ISZERO PUSH2 0x15D5 JUMPI DUP1 DUP3 ADD MLOAD DUP2 DUP5 ADD MSTORE PUSH1 0x20 DUP2 ADD SWAP1 POP PUSH2 0x15BA JUMP JUMPDEST DUP4 DUP2 GT ISZERO PUSH2 0x15E4 JUMPI PUSH1 0x0 DUP5 DUP5 ADD MSTORE JUMPDEST POP POP POP POP JUMP JUMPDEST PUSH1 0x0 PUSH1 0x2 DUP3 DIV SWAP1 POP PUSH1 0x1 DUP3 AND DUP1 PUSH2 0x1602 JUMPI PUSH1 0x7F DUP3 AND SWAP2 POP JUMPDEST PUSH1 0x20 DUP3 LT DUP2 EQ ISZERO PUSH2 0x1616 JUMPI PUSH2 0x1615 PUSH2 0x16C5 JUMP JUMPDEST JUMPDEST POP SWAP2 SWAP1 POP JUMP JUMPDEST PUSH2 0x1625 DUP3 PUSH2 0x1766 JUMP JUMPDEST DUP2 ADD DUP2 DUP2 LT PUSH8 0xFFFFFFFFFFFFFFFF DUP3 GT OR ISZERO PUSH2 0x1644 JUMPI PUSH2 0x1643 PUSH2 0x1723 JUMP JUMPDEST JUMPDEST DUP1 PUSH1 0x40 MSTORE POP POP POP JUMP JUMPDEST PUSH1 0x0 PUSH2 0x1658 DUP3 PUSH2 0x159E JUMP JUMPDEST SWAP2 POP PUSH32 0xFFFFFFFFFFFFFFFFFFFFFFFFFFFFFFFFFFFFFFFFFFFFFFFFFFFFFFFFFFFFFFFF DUP3 EQ ISZERO PUSH2 0x168B JUMPI PUSH2 0x168A PUSH2 0x1696 JUMP JUMPDEST JUMPDEST PUSH1 0x1 DUP3 ADD SWAP1 POP SWAP2 SWAP1 POP JUMP JUMPDEST PUSH32 0x4E487B7100000000000000000000000000000000000000000000000000000000 PUSH1 0x0 MSTORE PUSH1 0x11 PUSH1 0x4 MSTORE PUSH1 0x24 PUSH1 0x0 REVERT JUMPDEST PUSH32 0x4E487B7100000000000000000000000000000000000000000000000000000000 PUSH1 0x0 MSTORE PUSH1 0x22 PUSH1 0x4 MSTORE PUSH1 0x24 PUSH1 0x0 REVERT JUMPDEST PUSH32 0x4E487B7100000000000000000000000000000000000000000000000000000000 PUSH1 0x0 MSTORE PUSH1 0x32 PUSH1 0x4 MSTORE PUSH1 0x24 PUSH1 0x0 REVERT JUMPDEST PUSH32 0x4E487B7100000000000000000000000000000000000000000000000000000000 PUSH1 0x0 MSTORE PUSH1 0x41 PUSH1 0x4 MSTORE PUSH1 0x24 PUSH1 0x0 REVERT JUMPDEST PUSH1 0x0 DUP1 REVERT JUMPDEST PUSH1 0x0 DUP1 REVERT JUMPDEST PUSH1 0x0 DUP1 REVERT JUMPDEST PUSH1 0x0 DUP1 REVERT JUMPDEST PUSH1 0x0 PUSH1 0x1F NOT PUSH1 0x1F DUP4 ADD AND SWAP1 POP SWAP2 SWAP1 POP JUMP JUMPDEST PUSH32 0x456E6420646174652D74696D652073686F756C64206265206772656174657220 PUSH1 0x0 DUP3 ADD MSTORE PUSH32 0x7468616E20737461727420646174652D74696D652E0000000000000000000000 PUSH1 0x20 DUP3 ADD MSTORE POP JUMP JUMPDEST PUSH32 0x537461727420646174652D74696D652073686F756C6420626520677265617465 PUSH1 0x0 DUP3 ADD MSTORE PUSH32 0x72207468616E2063757272656E7420646174652D74696D652E00000000000000 PUSH1 0x20 DUP3 ADD MSTORE POP JUMP JUMPDEST PUSH32 0x4F6E6C79206D616E6167657220697320616C6C6F77656420746F20616C6C6F77 PUSH1 0x0 DUP3 ADD MSTORE PUSH32 0x656420746F2063616C6C20746869732066756E6374696F6E2E00000000000000 PUSH1 0x20 DUP3 ADD MSTORE POP JUMP JUMPDEST PUSH32 0x46756E6420656E642D6461746520686173206E6F742072656163686564207965 PUSH1 0x0 DUP3 ADD MSTORE PUSH32 0x742E000000000000000000000000000000000000000000000000000000000000 PUSH1 0x20 DUP3 ADD MSTORE POP JUMP JUMPDEST PUSH2 0x18BC DUP2 PUSH2 0x156C JUMP JUMPDEST DUP2 EQ PUSH2 0x18C7 JUMPI PUSH1 0x0 DUP1 REVERT JUMPDEST POP JUMP JUMPDEST PUSH2 0x18D3 DUP2 PUSH2 0x159E JUMP JUMPDEST DUP2 EQ PUSH2 0x18DE JUMPI PUSH1 0x0 DUP1 REVERT JUMPDEST POP JUMP INVALID LOG2 PUSH5 0x6970667358 0x22 SLT KECCAK256 0xFB SUB DUP16 SWAP2 DUP12 MOD 0x23 0xD5 PUSH24 0x48F6915D5F8D86D25F31EE33254DA232FC63CB5C7316DC64 PUSH20 0x6F6C634300080700330000000000000000000000 "
				},
				"gasEstimates": {
					"creation": {
						"codeDepositCost": "1284600",
						"executionCost": "25601",
						"totalCost": "1310201"
					},
					"external": {
						"createFund(string,string,uint256,uint256,uint256,address)": "infinite",
						"createInvestment(uint256,uint256)": "infinite",
						"getAllFunds()": "infinite",
						"getAllInvestmentsForFund(uint256)": "infinite",
						"getFundById(uint256)": "infinite",
						"makePayment(uint256)": "infinite",
						"manager()": "2533"
					}
				},
				"methodIdentifiers": {
					"createFund(string,string,uint256,uint256,uint256,address)": "526ed285",
					"createInvestment(uint256,uint256)": "135a34a2",
					"getAllFunds()": "1c69b464",
					"getAllInvestmentsForFund(uint256)": "26ef2adf",
					"getFundById(uint256)": "149e685a",
					"makePayment(uint256)": "5114cb52",
					"manager()": "481c6a75"
				}
			},
			"storageLayout": {
				"storage": [
					{
						"astId": 3,
						"contract": "contracts/4_CrowdFunding.sol:CrowdFunding",
						"label": "manager",
						"offset": 0,
						"slot": "0",
						"type": "t_address"
					},
					{
						"astId": 36,
						"contract": "contracts/4_CrowdFunding.sol:CrowdFunding",
						"label": "funds",
						"offset": 0,
						"slot": "1",
						"type": "t_mapping(t_uint256,t_struct(Fund)20_storage)"
					},
					{
						"astId": 40,
						"contract": "contracts/4_CrowdFunding.sol:CrowdFunding",
						"label": "investments",
						"offset": 0,
						"slot": "2",
						"type": "t_array(t_struct(Investment)31_storage)dyn_storage"
					},
					{
						"astId": 42,
						"contract": "contracts/4_CrowdFunding.sol:CrowdFunding",
						"label": "fundCount",
						"offset": 0,
						"slot": "3",
						"type": "t_uint256"
					},
					{
						"astId": 44,
						"contract": "contracts/4_CrowdFunding.sol:CrowdFunding",
						"label": "investmentCount",
						"offset": 0,
						"slot": "4",
						"type": "t_uint256"
					}
				],
				"types": {
					"t_address": {
						"encoding": "inplace",
						"label": "address",
						"numberOfBytes": "20"
					},
					"t_address_payable": {
						"encoding": "inplace",
						"label": "address payable",
						"numberOfBytes": "20"
					},
					"t_array(t_struct(Investment)31_storage)dyn_storage": {
						"base": "t_struct(Investment)31_storage",
						"encoding": "dynamic_array",
						"label": "struct CrowdFunding.Investment[]",
						"numberOfBytes": "32"
					},
					"t_mapping(t_uint256,t_struct(Fund)20_storage)": {
						"encoding": "mapping",
						"key": "t_uint256",
						"label": "mapping(uint256 => struct CrowdFunding.Fund)",
						"numberOfBytes": "32",
						"value": "t_struct(Fund)20_storage"
					},
					"t_string_storage": {
						"encoding": "bytes",
						"label": "string",
						"numberOfBytes": "32"
					},
					"t_struct(Fund)20_storage": {
						"encoding": "inplace",
						"label": "struct CrowdFunding.Fund",
						"members": [
							{
								"astId": 5,
								"contract": "contracts/4_CrowdFunding.sol:CrowdFunding",
								"label": "id",
								"offset": 0,
								"slot": "0",
								"type": "t_uint256"
							},
							{
								"astId": 7,
								"contract": "contracts/4_CrowdFunding.sol:CrowdFunding",
								"label": "name",
								"offset": 0,
								"slot": "1",
								"type": "t_string_storage"
							},
							{
								"astId": 9,
								"contract": "contracts/4_CrowdFunding.sol:CrowdFunding",
								"label": "description",
								"offset": 0,
								"slot": "2",
								"type": "t_string_storage"
							},
							{
								"astId": 11,
								"contract": "contracts/4_CrowdFunding.sol:CrowdFunding",
								"label": "startDate",
								"offset": 0,
								"slot": "3",
								"type": "t_uint256"
							},
							{
								"astId": 13,
								"contract": "contracts/4_CrowdFunding.sol:CrowdFunding",
								"label": "endDate",
								"offset": 0,
								"slot": "4",
								"type": "t_uint256"
							},
							{
								"astId": 15,
								"contract": "contracts/4_CrowdFunding.sol:CrowdFunding",
								"label": "goalAmount",
								"offset": 0,
								"slot": "5",
								"type": "t_uint256"
							},
							{
								"astId": 17,
								"contract": "contracts/4_CrowdFunding.sol:CrowdFunding",
								"label": "currentAmount",
								"offset": 0,
								"slot": "6",
								"type": "t_uint256"
							},
							{
								"astId": 19,
								"contract": "contracts/4_CrowdFunding.sol:CrowdFunding",
								"label": "receiverAddress",
								"offset": 0,
								"slot": "7",
								"type": "t_address_payable"
							}
						],
						"numberOfBytes": "256"
					},
					"t_struct(Investment)31_storage": {
						"encoding": "inplace",
						"label": "struct CrowdFunding.Investment",
						"members": [
							{
								"astId": 22,
								"contract": "contracts/4_CrowdFunding.sol:CrowdFunding",
								"label": "id",
								"offset": 0,
								"slot": "0",
								"type": "t_uint256"
							},
							{
								"astId": 24,
								"contract": "contracts/4_CrowdFunding.sol:CrowdFunding",
								"label": "fundId",
								"offset": 0,
								"slot": "1",
								"type": "t_uint256"
							},
							{
								"astId": 26,
								"contract": "contracts/4_CrowdFunding.sol:CrowdFunding",
								"label": "investorAddress",
								"offset": 0,
								"slot": "2",
								"type": "t_address"
							},
							{
								"astId": 28,
								"contract": "contracts/4_CrowdFunding.sol:CrowdFunding",
								"label": "investorAmount",
								"offset": 0,
								"slot": "3",
								"type": "t_uint256"
							},
							{
								"astId": 30,
								"contract": "contracts/4_CrowdFunding.sol:CrowdFunding",
								"label": "investmentDate",
								"offset": 0,
								"slot": "4",
								"type": "t_uint256"
							}
						],
						"numberOfBytes": "160"
					},
					"t_uint256": {
						"encoding": "inplace",
						"label": "uint256",
						"numberOfBytes": "32"
					}
				}
			},
			"userdoc": {
				"kind": "user",
				"methods": {},
				"version": 1
			}
		}
	}
}