{
	"contracts/4_CrowdFunding.sol": {
		"CrowdFunding": {
			"abi": [
				{
					"inputs": [],
					"stateMutability": "nonpayable",
					"type": "constructor"
				},
				{
					"anonymous": false,
					"inputs": [
						{
							"components": [
								{
									"internalType": "uint256",
									"name": "id",
									"type": "uint256"
								},
								{
									"internalType": "string",
									"name": "name",
									"type": "string"
								},
								{
									"internalType": "string",
									"name": "description",
									"type": "string"
								},
								{
									"internalType": "uint256",
									"name": "startDate",
									"type": "uint256"
								},
								{
									"internalType": "uint256",
									"name": "endDate",
									"type": "uint256"
								},
								{
									"internalType": "uint256",
									"name": "goalAmount",
									"type": "uint256"
								},
								{
									"internalType": "uint256",
									"name": "currentAmount",
									"type": "uint256"
								},
								{
									"internalType": "bool",
									"name": "isActive",
									"type": "bool"
								},
								{
									"internalType": "address payable",
									"name": "receiverAddress",
									"type": "address"
								}
							],
							"indexed": false,
							"internalType": "struct CrowdFunding.Fund",
							"name": "fund",
							"type": "tuple"
						}
					],
					"name": "AmountPaid",
					"type": "event"
				},
				{
					"anonymous": false,
					"inputs": [
						{
							"components": [
								{
									"internalType": "uint256",
									"name": "id",
									"type": "uint256"
								},
								{
									"internalType": "string",
									"name": "name",
									"type": "string"
								},
								{
									"internalType": "string",
									"name": "description",
									"type": "string"
								},
								{
									"internalType": "uint256",
									"name": "startDate",
									"type": "uint256"
								},
								{
									"internalType": "uint256",
									"name": "endDate",
									"type": "uint256"
								},
								{
									"internalType": "uint256",
									"name": "goalAmount",
									"type": "uint256"
								},
								{
									"internalType": "uint256",
									"name": "currentAmount",
									"type": "uint256"
								},
								{
									"internalType": "bool",
									"name": "isActive",
									"type": "bool"
								},
								{
									"internalType": "address payable",
									"name": "receiverAddress",
									"type": "address"
								}
							],
							"indexed": false,
							"internalType": "struct CrowdFunding.Fund",
							"name": "fund",
							"type": "tuple"
						}
					],
					"name": "FundCreated",
					"type": "event"
				},
				{
					"anonymous": false,
					"inputs": [
						{
							"components": [
								{
									"internalType": "uint256",
									"name": "id",
									"type": "uint256"
								},
								{
									"internalType": "string",
									"name": "name",
									"type": "string"
								},
								{
									"internalType": "string",
									"name": "description",
									"type": "string"
								},
								{
									"internalType": "uint256",
									"name": "startDate",
									"type": "uint256"
								},
								{
									"internalType": "uint256",
									"name": "endDate",
									"type": "uint256"
								},
								{
									"internalType": "uint256",
									"name": "goalAmount",
									"type": "uint256"
								},
								{
									"internalType": "uint256",
									"name": "currentAmount",
									"type": "uint256"
								},
								{
									"internalType": "bool",
									"name": "isActive",
									"type": "bool"
								},
								{
									"internalType": "address payable",
									"name": "receiverAddress",
									"type": "address"
								}
							],
							"indexed": false,
							"internalType": "struct CrowdFunding.Fund",
							"name": "fund",
							"type": "tuple"
						}
					],
					"name": "FundUpdated",
					"type": "event"
				},
				{
					"anonymous": false,
					"inputs": [
						{
							"components": [
								{
									"internalType": "uint256",
									"name": "id",
									"type": "uint256"
								},
								{
									"internalType": "uint256",
									"name": "fundId",
									"type": "uint256"
								},
								{
									"internalType": "address",
									"name": "investorAddress",
									"type": "address"
								},
								{
									"internalType": "uint256",
									"name": "investorAmount",
									"type": "uint256"
								},
								{
									"internalType": "uint256",
									"name": "investmentDate",
									"type": "uint256"
								}
							],
							"indexed": false,
							"internalType": "struct CrowdFunding.Investment",
							"name": "investment",
							"type": "tuple"
						}
					],
					"name": "InvestmentCreated",
					"type": "event"
				},
				{
					"inputs": [
						{
							"internalType": "address",
							"name": "newManager",
							"type": "address"
						}
					],
					"name": "changeManager",
					"outputs": [],
					"stateMutability": "nonpayable",
					"type": "function"
				},
				{
					"inputs": [
						{
							"internalType": "string",
							"name": "name",
							"type": "string"
						},
						{
							"internalType": "string",
							"name": "description",
							"type": "string"
						},
						{
							"internalType": "uint256",
							"name": "startDate",
							"type": "uint256"
						},
						{
							"internalType": "uint256",
							"name": "endDate",
							"type": "uint256"
						},
						{
							"internalType": "uint256",
							"name": "goalAmount",
							"type": "uint256"
						},
						{
							"internalType": "address payable",
							"name": "receiverAddress",
							"type": "address"
						}
					],
					"name": "createFund",
					"outputs": [],
					"stateMutability": "nonpayable",
					"type": "function"
				},
				{
					"inputs": [
						{
							"internalType": "uint256",
							"name": "fundId",
							"type": "uint256"
						}
					],
					"name": "createInvestment",
					"outputs": [],
					"stateMutability": "payable",
					"type": "function"
				},
				{
					"inputs": [],
					"name": "getAllFunds",
					"outputs": [
						{
							"components": [
								{
									"internalType": "uint256",
									"name": "id",
									"type": "uint256"
								},
								{
									"internalType": "string",
									"name": "name",
									"type": "string"
								},
								{
									"internalType": "string",
									"name": "description",
									"type": "string"
								},
								{
									"internalType": "uint256",
									"name": "startDate",
									"type": "uint256"
								},
								{
									"internalType": "uint256",
									"name": "endDate",
									"type": "uint256"
								},
								{
									"internalType": "uint256",
									"name": "goalAmount",
									"type": "uint256"
								},
								{
									"internalType": "uint256",
									"name": "currentAmount",
									"type": "uint256"
								},
								{
									"internalType": "bool",
									"name": "isActive",
									"type": "bool"
								},
								{
									"internalType": "address payable",
									"name": "receiverAddress",
									"type": "address"
								}
							],
							"internalType": "struct CrowdFunding.Fund[]",
							"name": "",
							"type": "tuple[]"
						}
					],
					"stateMutability": "view",
					"type": "function"
				},
				{
					"inputs": [
						{
							"internalType": "uint256",
							"name": "fundId",
							"type": "uint256"
						}
					],
					"name": "getAllInvestmentsForFund",
					"outputs": [
						{
							"components": [
								{
									"internalType": "uint256",
									"name": "id",
									"type": "uint256"
								},
								{
									"internalType": "uint256",
									"name": "fundId",
									"type": "uint256"
								},
								{
									"internalType": "address",
									"name": "investorAddress",
									"type": "address"
								},
								{
									"internalType": "uint256",
									"name": "investorAmount",
									"type": "uint256"
								},
								{
									"internalType": "uint256",
									"name": "investmentDate",
									"type": "uint256"
								}
							],
							"internalType": "struct CrowdFunding.Investment[]",
							"name": "",
							"type": "tuple[]"
						}
					],
					"stateMutability": "view",
					"type": "function"
				},
				{
					"inputs": [
						{
							"internalType": "uint256",
							"name": "fundId",
							"type": "uint256"
						}
					],
					"name": "getFundById",
					"outputs": [
						{
							"components": [
								{
									"internalType": "uint256",
									"name": "id",
									"type": "uint256"
								},
								{
									"internalType": "string",
									"name": "name",
									"type": "string"
								},
								{
									"internalType": "string",
									"name": "description",
									"type": "string"
								},
								{
									"internalType": "uint256",
									"name": "startDate",
									"type": "uint256"
								},
								{
									"internalType": "uint256",
									"name": "endDate",
									"type": "uint256"
								},
								{
									"internalType": "uint256",
									"name": "goalAmount",
									"type": "uint256"
								},
								{
									"internalType": "uint256",
									"name": "currentAmount",
									"type": "uint256"
								},
								{
									"internalType": "bool",
									"name": "isActive",
									"type": "bool"
								},
								{
									"internalType": "address payable",
									"name": "receiverAddress",
									"type": "address"
								}
							],
							"internalType": "struct CrowdFunding.Fund",
							"name": "",
							"type": "tuple"
						}
					],
					"stateMutability": "view",
					"type": "function"
				},
				{
					"inputs": [
						{
							"internalType": "uint256",
							"name": "fundId",
							"type": "uint256"
						}
					],
					"name": "makePayment",
					"outputs": [],
					"stateMutability": "nonpayable",
					"type": "function"
				},
				{
					"inputs": [],
					"name": "manager",
					"outputs": [
						{
							"internalType": "address",
							"name": "",
							"type": "address"
						}
					],
					"stateMutability": "view",
					"type": "function"
				}
			],
			"devdoc": {
				"kind": "dev",
				"methods": {},
				"version": 1
			},
			"evm": {
				"assembly": "    /* \"contracts/4_CrowdFunding.sol\":69:4547  contract CrowdFunding {\r... */\n  mstore(0x40, 0x80)\n    /* \"contracts/4_CrowdFunding.sol\":791:844  constructor() {\r... */\n  callvalue\n  dup1\n  iszero\n  tag_1\n  jumpi\n  0x00\n  dup1\n  revert\ntag_1:\n  pop\n    /* \"contracts/4_CrowdFunding.sol\":826:836  msg.sender */\n  caller\n    /* \"contracts/4_CrowdFunding.sol\":816:823  manager */\n  0x00\n  dup1\n    /* \"contracts/4_CrowdFunding.sol\":816:836  manager = msg.sender */\n  0x0100\n  exp\n  dup2\n  sload\n  dup2\n  0xffffffffffffffffffffffffffffffffffffffff\n  mul\n  not\n  and\n  swap1\n  dup4\n  0xffffffffffffffffffffffffffffffffffffffff\n  and\n  mul\n  or\n  swap1\n  sstore\n  pop\n    /* \"contracts/4_CrowdFunding.sol\":69:4547  contract CrowdFunding {\r... */\n  dataSize(sub_0)\n  dup1\n  dataOffset(sub_0)\n  0x00\n  codecopy\n  0x00\n  return\nstop\n\nsub_0: assembly {\n        /* \"contracts/4_CrowdFunding.sol\":69:4547  contract CrowdFunding {\r... */\n      mstore(0x40, 0x80)\n      jumpi(tag_1, lt(calldatasize, 0x04))\n      shr(0xe0, calldataload(0x00))\n      dup1\n      0x5114cb52\n      gt\n      tag_10\n      jumpi\n      dup1\n      0x5114cb52\n      eq\n      tag_6\n      jumpi\n      dup1\n      0x526ed285\n      eq\n      tag_7\n      jumpi\n      dup1\n      0x8dcd8915\n      eq\n      tag_8\n      jumpi\n      dup1\n      0xa3fbbaae\n      eq\n      tag_9\n      jumpi\n      jump(tag_1)\n    tag_10:\n      dup1\n      0x149e685a\n      eq\n      tag_2\n      jumpi\n      dup1\n      0x1c69b464\n      eq\n      tag_3\n      jumpi\n      dup1\n      0x26ef2adf\n      eq\n      tag_4\n      jumpi\n      dup1\n      0x481c6a75\n      eq\n      tag_5\n      jumpi\n    tag_1:\n      0x00\n      dup1\n      revert\n        /* \"contracts/4_CrowdFunding.sol\":2669:2779  function getFundById(uint256 fundId) public view returns (Fund memory) {\r... */\n    tag_2:\n      callvalue\n      dup1\n      iszero\n      tag_11\n      jumpi\n      0x00\n      dup1\n      revert\n    tag_11:\n      pop\n      tag_12\n      0x04\n      dup1\n      calldatasize\n      sub\n      dup2\n      add\n      swap1\n      tag_13\n      swap2\n      swap1\n      tag_14\n      jump\t// in\n    tag_13:\n      tag_15\n      jump\t// in\n    tag_12:\n      mload(0x40)\n      tag_16\n      swap2\n      swap1\n      tag_17\n      jump\t// in\n    tag_16:\n      mload(0x40)\n      dup1\n      swap2\n      sub\n      swap1\n      return\n        /* \"contracts/4_CrowdFunding.sol\":2382:2635  function getAllFunds() public view returns (Fund[] memory) {\r... */\n    tag_3:\n      callvalue\n      dup1\n      iszero\n      tag_18\n      jumpi\n      0x00\n      dup1\n      revert\n    tag_18:\n      pop\n      tag_19\n      tag_20\n      jump\t// in\n    tag_19:\n      mload(0x40)\n      tag_21\n      swap2\n      swap1\n      tag_22\n      jump\t// in\n    tag_21:\n      mload(0x40)\n      dup1\n      swap2\n      sub\n      swap1\n      return\n        /* \"contracts/4_CrowdFunding.sol\":3514:4009  function getAllInvestmentsForFund(uint256 fundId)\r... */\n    tag_4:\n      callvalue\n      dup1\n      iszero\n      tag_23\n      jumpi\n      0x00\n      dup1\n      revert\n    tag_23:\n      pop\n      tag_24\n      0x04\n      dup1\n      calldatasize\n      sub\n      dup2\n      add\n      swap1\n      tag_25\n      swap2\n      swap1\n      tag_14\n      jump\t// in\n    tag_25:\n      tag_26\n      jump\t// in\n    tag_24:\n      mload(0x40)\n      tag_27\n      swap2\n      swap1\n      tag_28\n      jump\t// in\n    tag_27:\n      mload(0x40)\n      dup1\n      swap2\n      sub\n      swap1\n      return\n        /* \"contracts/4_CrowdFunding.sol\":594:616  address public manager */\n    tag_5:\n      callvalue\n      dup1\n      iszero\n      tag_29\n      jumpi\n      0x00\n      dup1\n      revert\n    tag_29:\n      pop\n      tag_30\n      tag_31\n      jump\t// in\n    tag_30:\n      mload(0x40)\n      tag_32\n      swap2\n      swap1\n      tag_33\n      jump\t// in\n    tag_32:\n      mload(0x40)\n      dup1\n      swap2\n      sub\n      swap1\n      return\n        /* \"contracts/4_CrowdFunding.sol\":4060:4544  function makePayment(uint256 fundId) public onlyBy(manager) {\r... */\n    tag_6:\n      callvalue\n      dup1\n      iszero\n      tag_34\n      jumpi\n      0x00\n      dup1\n      revert\n    tag_34:\n      pop\n      tag_35\n      0x04\n      dup1\n      calldatasize\n      sub\n      dup2\n      add\n      swap1\n      tag_36\n      swap2\n      swap1\n      tag_14\n      jump\t// in\n    tag_36:\n      tag_37\n      jump\t// in\n    tag_35:\n      stop\n        /* \"contracts/4_CrowdFunding.sol\":1366:2351  function createFund(\r... */\n    tag_7:\n      callvalue\n      dup1\n      iszero\n      tag_38\n      jumpi\n      0x00\n      dup1\n      revert\n    tag_38:\n      pop\n      tag_39\n      0x04\n      dup1\n      calldatasize\n      sub\n      dup2\n      add\n      swap1\n      tag_40\n      swap2\n      swap1\n      tag_41\n      jump\t// in\n    tag_40:\n      tag_42\n      jump\t// in\n    tag_39:\n      stop\n        /* \"contracts/4_CrowdFunding.sol\":2820:3465  function createInvestment(uint256 fundId) public payable {\r... */\n    tag_8:\n      tag_43\n      0x04\n      dup1\n      calldatasize\n      sub\n      dup2\n      add\n      swap1\n      tag_44\n      swap2\n      swap1\n      tag_14\n      jump\t// in\n    tag_44:\n      tag_45\n      jump\t// in\n    tag_43:\n      stop\n        /* \"contracts/4_CrowdFunding.sol\":1188:1293  function changeManager(address newManager) public onlyBy(manager) {\r... */\n    tag_9:\n      callvalue\n      dup1\n      iszero\n      tag_46\n      jumpi\n      0x00\n      dup1\n      revert\n    tag_46:\n      pop\n      tag_47\n      0x04\n      dup1\n      calldatasize\n      sub\n      dup2\n      add\n      swap1\n      tag_48\n      swap2\n      swap1\n      tag_49\n      jump\t// in\n    tag_48:\n      tag_50\n      jump\t// in\n    tag_47:\n      stop\n        /* \"contracts/4_CrowdFunding.sol\":2669:2779  function getFundById(uint256 fundId) public view returns (Fund memory) {\r... */\n    tag_15:\n        /* \"contracts/4_CrowdFunding.sol\":2727:2738  Fund memory */\n      tag_51\n      tag_52\n      jump\t// in\n    tag_51:\n        /* \"contracts/4_CrowdFunding.sol\":2758:2763  funds */\n      0x01\n        /* \"contracts/4_CrowdFunding.sol\":2758:2771  funds[fundId] */\n      0x00\n        /* \"contracts/4_CrowdFunding.sol\":2764:2770  fundId */\n      dup4\n        /* \"contracts/4_CrowdFunding.sol\":2758:2771  funds[fundId] */\n      dup2\n      mstore\n      0x20\n      add\n      swap1\n      dup2\n      mstore\n      0x20\n      add\n      0x00\n      keccak256\n        /* \"contracts/4_CrowdFunding.sol\":2751:2771  return funds[fundId] */\n      mload(0x40)\n      dup1\n      0x0120\n      add\n      0x40\n      mstore\n      swap1\n      dup2\n      0x00\n      dup3\n      add\n      sload\n      dup2\n      mstore\n      0x20\n      add\n      0x01\n      dup3\n      add\n      dup1\n      sload\n      tag_54\n      swap1\n      tag_55\n      jump\t// in\n    tag_54:\n      dup1\n      0x1f\n      add\n      0x20\n      dup1\n      swap2\n      div\n      mul\n      0x20\n      add\n      mload(0x40)\n      swap1\n      dup2\n      add\n      0x40\n      mstore\n      dup1\n      swap3\n      swap2\n      swap1\n      dup2\n      dup2\n      mstore\n      0x20\n      add\n      dup3\n      dup1\n      sload\n      tag_56\n      swap1\n      tag_55\n      jump\t// in\n    tag_56:\n      dup1\n      iszero\n      tag_57\n      jumpi\n      dup1\n      0x1f\n      lt\n      tag_58\n      jumpi\n      0x0100\n      dup1\n      dup4\n      sload\n      div\n      mul\n      dup4\n      mstore\n      swap2\n      0x20\n      add\n      swap2\n      jump(tag_57)\n    tag_58:\n      dup3\n      add\n      swap2\n      swap1\n      0x00\n      mstore\n      keccak256(0x00, 0x20)\n      swap1\n    tag_59:\n      dup2\n      sload\n      dup2\n      mstore\n      swap1\n      0x01\n      add\n      swap1\n      0x20\n      add\n      dup1\n      dup4\n      gt\n      tag_59\n      jumpi\n      dup3\n      swap1\n      sub\n      0x1f\n      and\n      dup3\n      add\n      swap2\n    tag_57:\n      pop\n      pop\n      pop\n      pop\n      pop\n      dup2\n      mstore\n      0x20\n      add\n      0x02\n      dup3\n      add\n      dup1\n      sload\n      tag_60\n      swap1\n      tag_55\n      jump\t// in\n    tag_60:\n      dup1\n      0x1f\n      add\n      0x20\n      dup1\n      swap2\n      div\n      mul\n      0x20\n      add\n      mload(0x40)\n      swap1\n      dup2\n      add\n      0x40\n      mstore\n      dup1\n      swap3\n      swap2\n      swap1\n      dup2\n      dup2\n      mstore\n      0x20\n      add\n      dup3\n      dup1\n      sload\n      tag_61\n      swap1\n      tag_55\n      jump\t// in\n    tag_61:\n      dup1\n      iszero\n      tag_62\n      jumpi\n      dup1\n      0x1f\n      lt\n      tag_63\n      jumpi\n      0x0100\n      dup1\n      dup4\n      sload\n      div\n      mul\n      dup4\n      mstore\n      swap2\n      0x20\n      add\n      swap2\n      jump(tag_62)\n    tag_63:\n      dup3\n      add\n      swap2\n      swap1\n      0x00\n      mstore\n      keccak256(0x00, 0x20)\n      swap1\n    tag_64:\n      dup2\n      sload\n      dup2\n      mstore\n      swap1\n      0x01\n      add\n      swap1\n      0x20\n      add\n      dup1\n      dup4\n      gt\n      tag_64\n      jumpi\n      dup3\n      swap1\n      sub\n      0x1f\n      and\n      dup3\n      add\n      swap2\n    tag_62:\n      pop\n      pop\n      pop\n      pop\n      pop\n      dup2\n      mstore\n      0x20\n      add\n      0x03\n      dup3\n      add\n      sload\n      dup2\n      mstore\n      0x20\n      add\n      0x04\n      dup3\n      add\n      sload\n      dup2\n      mstore\n      0x20\n      add\n      0x05\n      dup3\n      add\n      sload\n      dup2\n      mstore\n      0x20\n      add\n      0x06\n      dup3\n      add\n      sload\n      dup2\n      mstore\n      0x20\n      add\n      0x07\n      dup3\n      add\n      0x00\n      swap1\n      sload\n      swap1\n      0x0100\n      exp\n      swap1\n      div\n      0xff\n      and\n      iszero\n      iszero\n      iszero\n      iszero\n      dup2\n      mstore\n      0x20\n      add\n      0x07\n      dup3\n      add\n      0x01\n      swap1\n      sload\n      swap1\n      0x0100\n      exp\n      swap1\n      div\n      0xffffffffffffffffffffffffffffffffffffffff\n      and\n      0xffffffffffffffffffffffffffffffffffffffff\n      and\n      0xffffffffffffffffffffffffffffffffffffffff\n      and\n      dup2\n      mstore\n      pop\n      pop\n      swap1\n      pop\n        /* \"contracts/4_CrowdFunding.sol\":2669:2779  function getFundById(uint256 fundId) public view returns (Fund memory) {\r... */\n      swap2\n      swap1\n      pop\n      jump\t// out\n        /* \"contracts/4_CrowdFunding.sol\":2382:2635  function getAllFunds() public view returns (Fund[] memory) {\r... */\n    tag_20:\n        /* \"contracts/4_CrowdFunding.sol\":2426:2439  Fund[] memory */\n      0x60\n        /* \"contracts/4_CrowdFunding.sol\":2452:2474  Fund[] memory fundList */\n      0x00\n        /* \"contracts/4_CrowdFunding.sol\":2488:2497  fundCount */\n      sload(0x03)\n        /* \"contracts/4_CrowdFunding.sol\":2477:2498  new Fund[](fundCount) */\n      0xffffffffffffffff\n      dup2\n      gt\n      iszero\n      tag_66\n      jumpi\n      tag_67\n      tag_68\n      jump\t// in\n    tag_67:\n    tag_66:\n      mload(0x40)\n      swap1\n      dup1\n      dup3\n      mstore\n      dup1\n      0x20\n      mul\n      0x20\n      add\n      dup3\n      add\n      0x40\n      mstore\n      dup1\n      iszero\n      tag_69\n      jumpi\n      dup2\n      0x20\n      add\n    tag_70:\n      tag_71\n      tag_52\n      jump\t// in\n    tag_71:\n      dup2\n      mstore\n      0x20\n      add\n      swap1\n      0x01\n      swap1\n      sub\n      swap1\n      dup2\n      tag_70\n      jumpi\n      swap1\n      pop\n    tag_69:\n      pop\n        /* \"contracts/4_CrowdFunding.sol\":2452:2498  Fund[] memory fundList = new Fund[](fundCount) */\n      swap1\n      pop\n        /* \"contracts/4_CrowdFunding.sol\":2516:2525  uint256 i */\n      0x00\n        /* \"contracts/4_CrowdFunding.sol\":2511:2600  for (uint256 i = 0; i < fundCount; i++) {\r... */\n    tag_72:\n        /* \"contracts/4_CrowdFunding.sol\":2535:2544  fundCount */\n      sload(0x03)\n        /* \"contracts/4_CrowdFunding.sol\":2531:2532  i */\n      dup2\n        /* \"contracts/4_CrowdFunding.sol\":2531:2544  i < fundCount */\n      lt\n        /* \"contracts/4_CrowdFunding.sol\":2511:2600  for (uint256 i = 0; i < fundCount; i++) {\r... */\n      iszero\n      tag_73\n      jumpi\n        /* \"contracts/4_CrowdFunding.sol\":2580:2585  funds */\n      0x01\n        /* \"contracts/4_CrowdFunding.sol\":2580:2588  funds[i] */\n      0x00\n        /* \"contracts/4_CrowdFunding.sol\":2586:2587  i */\n      dup3\n        /* \"contracts/4_CrowdFunding.sol\":2580:2588  funds[i] */\n      dup2\n      mstore\n      0x20\n      add\n      swap1\n      dup2\n      mstore\n      0x20\n      add\n      0x00\n      keccak256\n        /* \"contracts/4_CrowdFunding.sol\":2566:2588  fundList[i] = funds[i] */\n      mload(0x40)\n      dup1\n      0x0120\n      add\n      0x40\n      mstore\n      swap1\n      dup2\n      0x00\n      dup3\n      add\n      sload\n      dup2\n      mstore\n      0x20\n      add\n      0x01\n      dup3\n      add\n      dup1\n      sload\n      tag_75\n      swap1\n      tag_55\n      jump\t// in\n    tag_75:\n      dup1\n      0x1f\n      add\n      0x20\n      dup1\n      swap2\n      div\n      mul\n      0x20\n      add\n      mload(0x40)\n      swap1\n      dup2\n      add\n      0x40\n      mstore\n      dup1\n      swap3\n      swap2\n      swap1\n      dup2\n      dup2\n      mstore\n      0x20\n      add\n      dup3\n      dup1\n      sload\n      tag_76\n      swap1\n      tag_55\n      jump\t// in\n    tag_76:\n      dup1\n      iszero\n      tag_77\n      jumpi\n      dup1\n      0x1f\n      lt\n      tag_78\n      jumpi\n      0x0100\n      dup1\n      dup4\n      sload\n      div\n      mul\n      dup4\n      mstore\n      swap2\n      0x20\n      add\n      swap2\n      jump(tag_77)\n    tag_78:\n      dup3\n      add\n      swap2\n      swap1\n      0x00\n      mstore\n      keccak256(0x00, 0x20)\n      swap1\n    tag_79:\n      dup2\n      sload\n      dup2\n      mstore\n      swap1\n      0x01\n      add\n      swap1\n      0x20\n      add\n      dup1\n      dup4\n      gt\n      tag_79\n      jumpi\n      dup3\n      swap1\n      sub\n      0x1f\n      and\n      dup3\n      add\n      swap2\n    tag_77:\n      pop\n      pop\n      pop\n      pop\n      pop\n      dup2\n      mstore\n      0x20\n      add\n      0x02\n      dup3\n      add\n      dup1\n      sload\n      tag_80\n      swap1\n      tag_55\n      jump\t// in\n    tag_80:\n      dup1\n      0x1f\n      add\n      0x20\n      dup1\n      swap2\n      div\n      mul\n      0x20\n      add\n      mload(0x40)\n      swap1\n      dup2\n      add\n      0x40\n      mstore\n      dup1\n      swap3\n      swap2\n      swap1\n      dup2\n      dup2\n      mstore\n      0x20\n      add\n      dup3\n      dup1\n      sload\n      tag_81\n      swap1\n      tag_55\n      jump\t// in\n    tag_81:\n      dup1\n      iszero\n      tag_82\n      jumpi\n      dup1\n      0x1f\n      lt\n      tag_83\n      jumpi\n      0x0100\n      dup1\n      dup4\n      sload\n      div\n      mul\n      dup4\n      mstore\n      swap2\n      0x20\n      add\n      swap2\n      jump(tag_82)\n    tag_83:\n      dup3\n      add\n      swap2\n      swap1\n      0x00\n      mstore\n      keccak256(0x00, 0x20)\n      swap1\n    tag_84:\n      dup2\n      sload\n      dup2\n      mstore\n      swap1\n      0x01\n      add\n      swap1\n      0x20\n      add\n      dup1\n      dup4\n      gt\n      tag_84\n      jumpi\n      dup3\n      swap1\n      sub\n      0x1f\n      and\n      dup3\n      add\n      swap2\n    tag_82:\n      pop\n      pop\n      pop\n      pop\n      pop\n      dup2\n      mstore\n      0x20\n      add\n      0x03\n      dup3\n      add\n      sload\n      dup2\n      mstore\n      0x20\n      add\n      0x04\n      dup3\n      add\n      sload\n      dup2\n      mstore\n      0x20\n      add\n      0x05\n      dup3\n      add\n      sload\n      dup2\n      mstore\n      0x20\n      add\n      0x06\n      dup3\n      add\n      sload\n      dup2\n      mstore\n      0x20\n      add\n      0x07\n      dup3\n      add\n      0x00\n      swap1\n      sload\n      swap1\n      0x0100\n      exp\n      swap1\n      div\n      0xff\n      and\n      iszero\n      iszero\n      iszero\n      iszero\n      dup2\n      mstore\n      0x20\n      add\n      0x07\n      dup3\n      add\n      0x01\n      swap1\n      sload\n      swap1\n      0x0100\n      exp\n      swap1\n      div\n      0xffffffffffffffffffffffffffffffffffffffff\n      and\n      0xffffffffffffffffffffffffffffffffffffffff\n      and\n      0xffffffffffffffffffffffffffffffffffffffff\n      and\n      dup2\n      mstore\n      pop\n      pop\n        /* \"contracts/4_CrowdFunding.sol\":2566:2574  fundList */\n      dup3\n        /* \"contracts/4_CrowdFunding.sol\":2575:2576  i */\n      dup3\n        /* \"contracts/4_CrowdFunding.sol\":2566:2577  fundList[i] */\n      dup2\n      mload\n      dup2\n      lt\n      tag_85\n      jumpi\n      tag_86\n      tag_87\n      jump\t// in\n    tag_86:\n    tag_85:\n      0x20\n      mul\n      0x20\n      add\n      add\n        /* \"contracts/4_CrowdFunding.sol\":2566:2588  fundList[i] = funds[i] */\n      dup2\n      swap1\n      mstore\n      pop\n        /* \"contracts/4_CrowdFunding.sol\":2546:2549  i++ */\n      dup1\n      dup1\n      tag_88\n      swap1\n      tag_89\n      jump\t// in\n    tag_88:\n      swap2\n      pop\n      pop\n        /* \"contracts/4_CrowdFunding.sol\":2511:2600  for (uint256 i = 0; i < fundCount; i++) {\r... */\n      jump(tag_72)\n    tag_73:\n      pop\n        /* \"contracts/4_CrowdFunding.sol\":2619:2627  fundList */\n      dup1\n        /* \"contracts/4_CrowdFunding.sol\":2612:2627  return fundList */\n      swap2\n      pop\n      pop\n        /* \"contracts/4_CrowdFunding.sol\":2382:2635  function getAllFunds() public view returns (Fund[] memory) {\r... */\n      swap1\n      jump\t// out\n        /* \"contracts/4_CrowdFunding.sol\":3514:4009  function getAllInvestmentsForFund(uint256 fundId)\r... */\n    tag_26:\n        /* \"contracts/4_CrowdFunding.sol\":3612:3631  Investment[] memory */\n      0x60\n        /* \"contracts/4_CrowdFunding.sol\":3649:3683  Investment[] memory investmentList */\n      0x00\n        /* \"contracts/4_CrowdFunding.sol\":3703:3718  investmentCount */\n      sload(0x04)\n        /* \"contracts/4_CrowdFunding.sol\":3686:3719  new Investment[](investmentCount) */\n      0xffffffffffffffff\n      dup2\n      gt\n      iszero\n      tag_91\n      jumpi\n      tag_92\n      tag_68\n      jump\t// in\n    tag_92:\n    tag_91:\n      mload(0x40)\n      swap1\n      dup1\n      dup3\n      mstore\n      dup1\n      0x20\n      mul\n      0x20\n      add\n      dup3\n      add\n      0x40\n      mstore\n      dup1\n      iszero\n      tag_93\n      jumpi\n      dup2\n      0x20\n      add\n    tag_94:\n      tag_95\n      tag_96\n      jump\t// in\n    tag_95:\n      dup2\n      mstore\n      0x20\n      add\n      swap1\n      0x01\n      swap1\n      sub\n      swap1\n      dup2\n      tag_94\n      jumpi\n      swap1\n      pop\n    tag_93:\n      pop\n        /* \"contracts/4_CrowdFunding.sol\":3649:3719  Investment[] memory investmentList = new Investment[](investmentCount) */\n      swap1\n      pop\n        /* \"contracts/4_CrowdFunding.sol\":3730:3743  uint256 count */\n      0x00\n        /* \"contracts/4_CrowdFunding.sol\":3765:3774  uint256 i */\n      dup1\n        /* \"contracts/4_CrowdFunding.sol\":3760:3968  for (uint256 i = 0; i < investmentCount; i++) {\r... */\n    tag_97:\n        /* \"contracts/4_CrowdFunding.sol\":3784:3799  investmentCount */\n      sload(0x04)\n        /* \"contracts/4_CrowdFunding.sol\":3780:3781  i */\n      dup2\n        /* \"contracts/4_CrowdFunding.sol\":3780:3799  i < investmentCount */\n      lt\n        /* \"contracts/4_CrowdFunding.sol\":3760:3968  for (uint256 i = 0; i < investmentCount; i++) {\r... */\n      iszero\n      tag_98\n      jumpi\n        /* \"contracts/4_CrowdFunding.sol\":3850:3856  fundId */\n      dup5\n        /* \"contracts/4_CrowdFunding.sol\":3825:3836  investments */\n      0x02\n        /* \"contracts/4_CrowdFunding.sol\":3837:3838  i */\n      dup3\n        /* \"contracts/4_CrowdFunding.sol\":3825:3839  investments[i] */\n      dup2\n      sload\n      dup2\n      lt\n      tag_100\n      jumpi\n      tag_101\n      tag_87\n      jump\t// in\n    tag_101:\n    tag_100:\n      swap1\n      0x00\n      mstore\n      keccak256(0x00, 0x20)\n      swap1\n      0x05\n      mul\n      add\n        /* \"contracts/4_CrowdFunding.sol\":3825:3846  investments[i].fundId */\n      0x01\n      add\n      sload\n        /* \"contracts/4_CrowdFunding.sol\":3825:3856  investments[i].fundId == fundId */\n      eq\n        /* \"contracts/4_CrowdFunding.sol\":3821:3957  if (investments[i].fundId == fundId) {\r... */\n      iszero\n      tag_103\n      jumpi\n        /* \"contracts/4_CrowdFunding.sol\":3901:3912  investments */\n      0x02\n        /* \"contracts/4_CrowdFunding.sol\":3913:3914  i */\n      dup2\n        /* \"contracts/4_CrowdFunding.sol\":3901:3915  investments[i] */\n      dup2\n      sload\n      dup2\n      lt\n      tag_104\n      jumpi\n      tag_105\n      tag_87\n      jump\t// in\n    tag_105:\n    tag_104:\n      swap1\n      0x00\n      mstore\n      keccak256(0x00, 0x20)\n      swap1\n      0x05\n      mul\n      add\n        /* \"contracts/4_CrowdFunding.sol\":3877:3915  investmentList[count] = investments[i] */\n      mload(0x40)\n      dup1\n      0xa0\n      add\n      0x40\n      mstore\n      swap1\n      dup2\n      0x00\n      dup3\n      add\n      sload\n      dup2\n      mstore\n      0x20\n      add\n      0x01\n      dup3\n      add\n      sload\n      dup2\n      mstore\n      0x20\n      add\n      0x02\n      dup3\n      add\n      0x00\n      swap1\n      sload\n      swap1\n      0x0100\n      exp\n      swap1\n      div\n      0xffffffffffffffffffffffffffffffffffffffff\n      and\n      0xffffffffffffffffffffffffffffffffffffffff\n      and\n      0xffffffffffffffffffffffffffffffffffffffff\n      and\n      dup2\n      mstore\n      0x20\n      add\n      0x03\n      dup3\n      add\n      sload\n      dup2\n      mstore\n      0x20\n      add\n      0x04\n      dup3\n      add\n      sload\n      dup2\n      mstore\n      pop\n      pop\n        /* \"contracts/4_CrowdFunding.sol\":3877:3891  investmentList */\n      dup4\n        /* \"contracts/4_CrowdFunding.sol\":3892:3897  count */\n      dup4\n        /* \"contracts/4_CrowdFunding.sol\":3877:3898  investmentList[count] */\n      dup2\n      mload\n      dup2\n      lt\n      tag_107\n      jumpi\n      tag_108\n      tag_87\n      jump\t// in\n    tag_108:\n    tag_107:\n      0x20\n      mul\n      0x20\n      add\n      add\n        /* \"contracts/4_CrowdFunding.sol\":3877:3915  investmentList[count] = investments[i] */\n      dup2\n      swap1\n      mstore\n      pop\n        /* \"contracts/4_CrowdFunding.sol\":3934:3941  count++ */\n      dup2\n      dup1\n      tag_109\n      swap1\n      tag_89\n      jump\t// in\n    tag_109:\n      swap3\n      pop\n      pop\n        /* \"contracts/4_CrowdFunding.sol\":3821:3957  if (investments[i].fundId == fundId) {\r... */\n    tag_103:\n        /* \"contracts/4_CrowdFunding.sol\":3801:3804  i++ */\n      dup1\n      dup1\n      tag_110\n      swap1\n      tag_89\n      jump\t// in\n    tag_110:\n      swap2\n      pop\n      pop\n        /* \"contracts/4_CrowdFunding.sol\":3760:3968  for (uint256 i = 0; i < investmentCount; i++) {\r... */\n      jump(tag_97)\n    tag_98:\n      pop\n        /* \"contracts/4_CrowdFunding.sol\":3987:4001  investmentList */\n      dup2\n        /* \"contracts/4_CrowdFunding.sol\":3980:4001  return investmentList */\n      swap3\n      pop\n      pop\n      pop\n        /* \"contracts/4_CrowdFunding.sol\":3514:4009  function getAllInvestmentsForFund(uint256 fundId)\r... */\n      swap2\n      swap1\n      pop\n      jump\t// out\n        /* \"contracts/4_CrowdFunding.sol\":594:616  address public manager */\n    tag_31:\n      0x00\n      dup1\n      sload\n      swap1\n      0x0100\n      exp\n      swap1\n      div\n      0xffffffffffffffffffffffffffffffffffffffff\n      and\n      dup2\n      jump\t// out\n        /* \"contracts/4_CrowdFunding.sol\":4060:4544  function makePayment(uint256 fundId) public onlyBy(manager) {\r... */\n    tag_37:\n        /* \"contracts/4_CrowdFunding.sol\":4111:4118  manager */\n      0x00\n      dup1\n      sload\n      swap1\n      0x0100\n      exp\n      swap1\n      div\n      0xffffffffffffffffffffffffffffffffffffffff\n      and\n        /* \"contracts/4_CrowdFunding.sol\":964:974  msg.sender */\n      caller\n        /* \"contracts/4_CrowdFunding.sol\":953:974  account == msg.sender */\n      0xffffffffffffffffffffffffffffffffffffffff\n      and\n        /* \"contracts/4_CrowdFunding.sol\":953:960  account */\n      dup2\n        /* \"contracts/4_CrowdFunding.sol\":953:974  account == msg.sender */\n      0xffffffffffffffffffffffffffffffffffffffff\n      and\n      eq\n        /* \"contracts/4_CrowdFunding.sol\":945:1001  require(account == msg.sender, \"Sender not authorized.\") */\n      tag_112\n      jumpi\n      mload(0x40)\n      0x08c379a000000000000000000000000000000000000000000000000000000000\n      dup2\n      mstore\n      0x04\n      add\n      tag_113\n      swap1\n      tag_114\n      jump\t// in\n    tag_113:\n      mload(0x40)\n      dup1\n      swap2\n      sub\n      swap1\n      revert\n    tag_112:\n        /* \"contracts/4_CrowdFunding.sol\":4131:4148  Fund storage fund */\n      0x00\n        /* \"contracts/4_CrowdFunding.sol\":4151:4156  funds */\n      0x01\n        /* \"contracts/4_CrowdFunding.sol\":4151:4164  funds[fundId] */\n      0x00\n        /* \"contracts/4_CrowdFunding.sol\":4157:4163  fundId */\n      dup5\n        /* \"contracts/4_CrowdFunding.sol\":4151:4164  funds[fundId] */\n      dup2\n      mstore\n      0x20\n      add\n      swap1\n      dup2\n      mstore\n      0x20\n      add\n      0x00\n      keccak256\n        /* \"contracts/4_CrowdFunding.sol\":4131:4164  Fund storage fund = funds[fundId] */\n      swap1\n      pop\n        /* \"contracts/4_CrowdFunding.sol\":4183:4187  fund */\n      dup1\n        /* \"contracts/4_CrowdFunding.sol\":4183:4196  fund.isActive */\n      0x07\n      add\n      0x00\n      swap1\n      sload\n      swap1\n      0x0100\n      exp\n      swap1\n      div\n      0xff\n      and\n        /* \"contracts/4_CrowdFunding.sol\":4175:4216  require(fund.isActive, \"Fund is closed.\") */\n      tag_116\n      jumpi\n      mload(0x40)\n      0x08c379a000000000000000000000000000000000000000000000000000000000\n      dup2\n      mstore\n      0x04\n      add\n      tag_117\n      swap1\n      tag_118\n      jump\t// in\n    tag_117:\n      mload(0x40)\n      dup1\n      swap2\n      sub\n      swap1\n      revert\n    tag_116:\n        /* \"contracts/4_CrowdFunding.sol\":4271:4275  fund */\n      dup1\n        /* \"contracts/4_CrowdFunding.sol\":4271:4286  fund.goalAmount */\n      0x05\n      add\n      sload\n        /* \"contracts/4_CrowdFunding.sol\":4249:4253  fund */\n      dup2\n        /* \"contracts/4_CrowdFunding.sol\":4249:4267  fund.currentAmount */\n      0x06\n      add\n      sload\n        /* \"contracts/4_CrowdFunding.sol\":4249:4286  fund.currentAmount >= fund.goalAmount */\n      lt\n      iszero\n        /* \"contracts/4_CrowdFunding.sol\":4249:4337  fund.currentAmount >= fund.goalAmount ||\r... */\n      dup1\n      tag_119\n      jumpi\n      pop\n        /* \"contracts/4_CrowdFunding.sol\":4322:4337  block.timestamp */\n      timestamp\n        /* \"contracts/4_CrowdFunding.sol\":4307:4311  fund */\n      dup2\n        /* \"contracts/4_CrowdFunding.sol\":4307:4319  fund.endDate */\n      0x04\n      add\n      sload\n        /* \"contracts/4_CrowdFunding.sol\":4307:4337  fund.endDate < block.timestamp */\n      lt\n        /* \"contracts/4_CrowdFunding.sol\":4249:4337  fund.currentAmount >= fund.goalAmount ||\r... */\n    tag_119:\n        /* \"contracts/4_CrowdFunding.sol\":4227:4408  require(\r... */\n      tag_120\n      jumpi\n      mload(0x40)\n      0x08c379a000000000000000000000000000000000000000000000000000000000\n      dup2\n      mstore\n      0x04\n      add\n      tag_121\n      swap1\n      tag_122\n      jump\t// in\n    tag_121:\n      mload(0x40)\n      dup1\n      swap2\n      sub\n      swap1\n      revert\n    tag_120:\n        /* \"contracts/4_CrowdFunding.sol\":4421:4425  fund */\n      dup1\n        /* \"contracts/4_CrowdFunding.sol\":4421:4441  fund.receiverAddress */\n      0x07\n      add\n      0x01\n      swap1\n      sload\n      swap1\n      0x0100\n      exp\n      swap1\n      div\n      0xffffffffffffffffffffffffffffffffffffffff\n      and\n        /* \"contracts/4_CrowdFunding.sol\":4421:4450  fund.receiverAddress.transfer */\n      0xffffffffffffffffffffffffffffffffffffffff\n      and\n        /* \"contracts/4_CrowdFunding.sol\":4421:4470  fund.receiverAddress.transfer(fund.currentAmount) */\n      0x08fc\n        /* \"contracts/4_CrowdFunding.sol\":4451:4455  fund */\n      dup3\n        /* \"contracts/4_CrowdFunding.sol\":4451:4469  fund.currentAmount */\n      0x06\n      add\n      sload\n        /* \"contracts/4_CrowdFunding.sol\":4421:4470  fund.receiverAddress.transfer(fund.currentAmount) */\n      swap1\n      dup2\n      iszero\n      mul\n      swap1\n      mload(0x40)\n      0x00\n      mload(0x40)\n      dup1\n      dup4\n      sub\n      dup2\n      dup6\n      dup9\n      dup9\n      call\n      swap4\n      pop\n      pop\n      pop\n      pop\n      iszero\n      dup1\n      iszero\n      tag_124\n      jumpi\n      returndatasize\n      0x00\n      dup1\n      returndatacopy\n      revert(0x00, returndatasize)\n    tag_124:\n      pop\n        /* \"contracts/4_CrowdFunding.sol\":4497:4502  false */\n      0x00\n        /* \"contracts/4_CrowdFunding.sol\":4481:4485  fund */\n      dup2\n        /* \"contracts/4_CrowdFunding.sol\":4481:4494  fund.isActive */\n      0x07\n      add\n      0x00\n        /* \"contracts/4_CrowdFunding.sol\":4481:4502  fund.isActive = false */\n      0x0100\n      exp\n      dup2\n      sload\n      dup2\n      0xff\n      mul\n      not\n      and\n      swap1\n      dup4\n      iszero\n      iszero\n      mul\n      or\n      swap1\n      sstore\n      pop\n        /* \"contracts/4_CrowdFunding.sol\":4520:4536  AmountPaid(fund) */\n      0xebe924212dae5e1ef7a2572e54fd89e974740a2657af9ee2595830dc77480f83\n        /* \"contracts/4_CrowdFunding.sol\":4531:4535  fund */\n      dup2\n        /* \"contracts/4_CrowdFunding.sol\":4520:4536  AmountPaid(fund) */\n      mload(0x40)\n      tag_125\n      swap2\n      swap1\n      tag_126\n      jump\t// in\n    tag_125:\n      mload(0x40)\n      dup1\n      swap2\n      sub\n      swap1\n      log1\n        /* \"contracts/4_CrowdFunding.sol\":4120:4544  {\r... */\n      pop\n        /* \"contracts/4_CrowdFunding.sol\":4060:4544  function makePayment(uint256 fundId) public onlyBy(manager) {\r... */\n      pop\n      pop\n      jump\t// out\n        /* \"contracts/4_CrowdFunding.sol\":1366:2351  function createFund(\r... */\n    tag_42:\n        /* \"contracts/4_CrowdFunding.sol\":1597:1604  manager */\n      0x00\n      dup1\n      sload\n      swap1\n      0x0100\n      exp\n      swap1\n      div\n      0xffffffffffffffffffffffffffffffffffffffff\n      and\n        /* \"contracts/4_CrowdFunding.sol\":964:974  msg.sender */\n      caller\n        /* \"contracts/4_CrowdFunding.sol\":953:974  account == msg.sender */\n      0xffffffffffffffffffffffffffffffffffffffff\n      and\n        /* \"contracts/4_CrowdFunding.sol\":953:960  account */\n      dup2\n        /* \"contracts/4_CrowdFunding.sol\":953:974  account == msg.sender */\n      0xffffffffffffffffffffffffffffffffffffffff\n      and\n      eq\n        /* \"contracts/4_CrowdFunding.sol\":945:1001  require(account == msg.sender, \"Sender not authorized.\") */\n      tag_128\n      jumpi\n      mload(0x40)\n      0x08c379a000000000000000000000000000000000000000000000000000000000\n      dup2\n      mstore\n      0x04\n      add\n      tag_129\n      swap1\n      tag_114\n      jump\t// in\n    tag_129:\n      mload(0x40)\n      dup1\n      swap2\n      sub\n      swap1\n      revert\n    tag_128:\n        /* \"contracts/4_CrowdFunding.sol\":1651:1666  block.timestamp */\n      timestamp\n        /* \"contracts/4_CrowdFunding.sol\":1639:1648  startDate */\n      dup6\n        /* \"contracts/4_CrowdFunding.sol\":1639:1666  startDate > block.timestamp */\n      gt\n        /* \"contracts/4_CrowdFunding.sol\":1617:1751  require(\r... */\n      tag_131\n      jumpi\n      mload(0x40)\n      0x08c379a000000000000000000000000000000000000000000000000000000000\n      dup2\n      mstore\n      0x04\n      add\n      tag_132\n      swap1\n      tag_133\n      jump\t// in\n    tag_132:\n      mload(0x40)\n      dup1\n      swap2\n      sub\n      swap1\n      revert\n    tag_131:\n        /* \"contracts/4_CrowdFunding.sol\":1794:1803  startDate */\n      dup5\n        /* \"contracts/4_CrowdFunding.sol\":1784:1791  endDate */\n      dup5\n        /* \"contracts/4_CrowdFunding.sol\":1784:1803  endDate > startDate */\n      gt\n        /* \"contracts/4_CrowdFunding.sol\":1762:1884  require(\r... */\n      tag_134\n      jumpi\n      mload(0x40)\n      0x08c379a000000000000000000000000000000000000000000000000000000000\n      dup2\n      mstore\n      0x04\n      add\n      tag_135\n      swap1\n      tag_136\n      jump\t// in\n    tag_135:\n      mload(0x40)\n      dup1\n      swap2\n      sub\n      swap1\n      revert\n    tag_134:\n        /* \"contracts/4_CrowdFunding.sol\":1897:1917  Fund storage newFund */\n      0x00\n        /* \"contracts/4_CrowdFunding.sol\":1920:1925  funds */\n      0x01\n        /* \"contracts/4_CrowdFunding.sol\":1920:1936  funds[fundCount] */\n      0x00\n        /* \"contracts/4_CrowdFunding.sol\":1926:1935  fundCount */\n      sload(0x03)\n        /* \"contracts/4_CrowdFunding.sol\":1920:1936  funds[fundCount] */\n      dup2\n      mstore\n      0x20\n      add\n      swap1\n      dup2\n      mstore\n      0x20\n      add\n      0x00\n      keccak256\n        /* \"contracts/4_CrowdFunding.sol\":1897:1936  Fund storage newFund = funds[fundCount] */\n      swap1\n      pop\n        /* \"contracts/4_CrowdFunding.sol\":1960:1969  fundCount */\n      sload(0x03)\n        /* \"contracts/4_CrowdFunding.sol\":1947:1954  newFund */\n      dup2\n        /* \"contracts/4_CrowdFunding.sol\":1947:1957  newFund.id */\n      0x00\n      add\n        /* \"contracts/4_CrowdFunding.sol\":1947:1969  newFund.id = fundCount */\n      dup2\n      swap1\n      sstore\n      pop\n        /* \"contracts/4_CrowdFunding.sol\":1995:1999  name */\n      dup8\n        /* \"contracts/4_CrowdFunding.sol\":1980:1987  newFund */\n      dup2\n        /* \"contracts/4_CrowdFunding.sol\":1980:1992  newFund.name */\n      0x01\n      add\n        /* \"contracts/4_CrowdFunding.sol\":1980:1999  newFund.name = name */\n      swap1\n      dup1\n      mload\n      swap1\n      0x20\n      add\n      swap1\n      tag_137\n      swap3\n      swap2\n      swap1\n      tag_138\n      jump\t// in\n    tag_137:\n      pop\n        /* \"contracts/4_CrowdFunding.sol\":2032:2043  description */\n      dup7\n        /* \"contracts/4_CrowdFunding.sol\":2010:2017  newFund */\n      dup2\n        /* \"contracts/4_CrowdFunding.sol\":2010:2029  newFund.description */\n      0x02\n      add\n        /* \"contracts/4_CrowdFunding.sol\":2010:2043  newFund.description = description */\n      swap1\n      dup1\n      mload\n      swap1\n      0x20\n      add\n      swap1\n      tag_139\n      swap3\n      swap2\n      swap1\n      tag_138\n      jump\t// in\n    tag_139:\n      pop\n        /* \"contracts/4_CrowdFunding.sol\":2074:2083  startDate */\n      dup6\n        /* \"contracts/4_CrowdFunding.sol\":2054:2061  newFund */\n      dup2\n        /* \"contracts/4_CrowdFunding.sol\":2054:2071  newFund.startDate */\n      0x03\n      add\n        /* \"contracts/4_CrowdFunding.sol\":2054:2083  newFund.startDate = startDate */\n      dup2\n      swap1\n      sstore\n      pop\n        /* \"contracts/4_CrowdFunding.sol\":2112:2119  endDate */\n      dup5\n        /* \"contracts/4_CrowdFunding.sol\":2094:2101  newFund */\n      dup2\n        /* \"contracts/4_CrowdFunding.sol\":2094:2109  newFund.endDate */\n      0x04\n      add\n        /* \"contracts/4_CrowdFunding.sol\":2094:2119  newFund.endDate = endDate */\n      dup2\n      swap1\n      sstore\n      pop\n        /* \"contracts/4_CrowdFunding.sol\":2151:2161  goalAmount */\n      dup4\n        /* \"contracts/4_CrowdFunding.sol\":2130:2137  newFund */\n      dup2\n        /* \"contracts/4_CrowdFunding.sol\":2130:2148  newFund.goalAmount */\n      0x05\n      add\n        /* \"contracts/4_CrowdFunding.sol\":2130:2161  newFund.goalAmount = goalAmount */\n      dup2\n      swap1\n      sstore\n      pop\n        /* \"contracts/4_CrowdFunding.sol\":2196:2197  0 */\n      0x00\n        /* \"contracts/4_CrowdFunding.sol\":2172:2179  newFund */\n      dup2\n        /* \"contracts/4_CrowdFunding.sol\":2172:2193  newFund.currentAmount */\n      0x06\n      add\n        /* \"contracts/4_CrowdFunding.sol\":2172:2197  newFund.currentAmount = 0 */\n      dup2\n      swap1\n      sstore\n      pop\n        /* \"contracts/4_CrowdFunding.sol\":2234:2249  receiverAddress */\n      dup3\n        /* \"contracts/4_CrowdFunding.sol\":2208:2215  newFund */\n      dup2\n        /* \"contracts/4_CrowdFunding.sol\":2208:2231  newFund.receiverAddress */\n      0x07\n      add\n      0x01\n        /* \"contracts/4_CrowdFunding.sol\":2208:2249  newFund.receiverAddress = receiverAddress */\n      0x0100\n      exp\n      dup2\n      sload\n      dup2\n      0xffffffffffffffffffffffffffffffffffffffff\n      mul\n      not\n      and\n      swap1\n      dup4\n      0xffffffffffffffffffffffffffffffffffffffff\n      and\n      mul\n      or\n      swap1\n      sstore\n      pop\n        /* \"contracts/4_CrowdFunding.sol\":2279:2283  true */\n      0x01\n        /* \"contracts/4_CrowdFunding.sol\":2260:2267  newFund */\n      dup2\n        /* \"contracts/4_CrowdFunding.sol\":2260:2276  newFund.isActive */\n      0x07\n      add\n      0x00\n        /* \"contracts/4_CrowdFunding.sol\":2260:2283  newFund.isActive = true */\n      0x0100\n      exp\n      dup2\n      sload\n      dup2\n      0xff\n      mul\n      not\n      and\n      swap1\n      dup4\n      iszero\n      iszero\n      mul\n      or\n      swap1\n      sstore\n      pop\n        /* \"contracts/4_CrowdFunding.sol\":2294:2303  fundCount */\n      0x03\n      0x00\n        /* \"contracts/4_CrowdFunding.sol\":2294:2305  fundCount++ */\n      dup2\n      sload\n      dup1\n      swap3\n      swap2\n      swap1\n      tag_140\n      swap1\n      tag_89\n      jump\t// in\n    tag_140:\n      swap2\n      swap1\n      pop\n      sstore\n      pop\n        /* \"contracts/4_CrowdFunding.sol\":2323:2343  FundCreated(newFund) */\n      0xfd78a022c6a35391fe265f0a393709bff510bdf633abc4e06987913b04ea5ad5\n        /* \"contracts/4_CrowdFunding.sol\":2335:2342  newFund */\n      dup2\n        /* \"contracts/4_CrowdFunding.sol\":2323:2343  FundCreated(newFund) */\n      mload(0x40)\n      tag_141\n      swap2\n      swap1\n      tag_126\n      jump\t// in\n    tag_141:\n      mload(0x40)\n      dup1\n      swap2\n      sub\n      swap1\n      log1\n        /* \"contracts/4_CrowdFunding.sol\":1606:2351  {\r... */\n      pop\n        /* \"contracts/4_CrowdFunding.sol\":1366:2351  function createFund(\r... */\n      pop\n      pop\n      pop\n      pop\n      pop\n      pop\n      pop\n      jump\t// out\n        /* \"contracts/4_CrowdFunding.sol\":2820:3465  function createInvestment(uint256 fundId) public payable {\r... */\n    tag_45:\n        /* \"contracts/4_CrowdFunding.sol\":2888:2905  Fund storage fund */\n      0x00\n        /* \"contracts/4_CrowdFunding.sol\":2908:2913  funds */\n      0x01\n        /* \"contracts/4_CrowdFunding.sol\":2908:2921  funds[fundId] */\n      0x00\n        /* \"contracts/4_CrowdFunding.sol\":2914:2920  fundId */\n      dup4\n        /* \"contracts/4_CrowdFunding.sol\":2908:2921  funds[fundId] */\n      dup2\n      mstore\n      0x20\n      add\n      swap1\n      dup2\n      mstore\n      0x20\n      add\n      0x00\n      keccak256\n        /* \"contracts/4_CrowdFunding.sol\":2888:2921  Fund storage fund = funds[fundId] */\n      swap1\n      pop\n        /* \"contracts/4_CrowdFunding.sol\":2940:2944  fund */\n      dup1\n        /* \"contracts/4_CrowdFunding.sol\":2940:2953  fund.isActive */\n      0x07\n      add\n      0x00\n      swap1\n      sload\n      swap1\n      0x0100\n      exp\n      swap1\n      div\n      0xff\n      and\n        /* \"contracts/4_CrowdFunding.sol\":2932:2973  require(fund.isActive, \"Fund is closed.\") */\n      tag_143\n      jumpi\n      mload(0x40)\n      0x08c379a000000000000000000000000000000000000000000000000000000000\n      dup2\n      mstore\n      0x04\n      add\n      tag_144\n      swap1\n      tag_118\n      jump\t// in\n    tag_144:\n      mload(0x40)\n      dup1\n      swap2\n      sub\n      swap1\n      revert\n    tag_143:\n        /* \"contracts/4_CrowdFunding.sol\":3010:3025  block.timestamp */\n      timestamp\n        /* \"contracts/4_CrowdFunding.sol\":2992:2996  fund */\n      dup2\n        /* \"contracts/4_CrowdFunding.sol\":2992:3006  fund.startDate */\n      0x03\n      add\n      sload\n        /* \"contracts/4_CrowdFunding.sol\":2992:3025  fund.startDate <= block.timestamp */\n      gt\n      iszero\n        /* \"contracts/4_CrowdFunding.sol\":2984:3055  require(fund.startDate <= block.timestamp, \"Fund has not started yet.\") */\n      tag_145\n      jumpi\n      mload(0x40)\n      0x08c379a000000000000000000000000000000000000000000000000000000000\n      dup2\n      mstore\n      0x04\n      add\n      tag_146\n      swap1\n      tag_147\n      jump\t// in\n    tag_146:\n      mload(0x40)\n      dup1\n      swap2\n      sub\n      swap1\n      revert\n    tag_145:\n        /* \"contracts/4_CrowdFunding.sol\":3068:3079  investments */\n      0x02\n        /* \"contracts/4_CrowdFunding.sol\":3099:3274  Investment(\r... */\n      mload(0x40)\n      dup1\n      0xa0\n      add\n      0x40\n      mstore\n      dup1\n        /* \"contracts/4_CrowdFunding.sol\":3128:3143  investmentCount */\n      sload(0x04)\n        /* \"contracts/4_CrowdFunding.sol\":3099:3274  Investment(\r... */\n      dup2\n      mstore\n      0x20\n      add\n        /* \"contracts/4_CrowdFunding.sol\":3162:3168  fundId */\n      dup5\n        /* \"contracts/4_CrowdFunding.sol\":3099:3274  Investment(\r... */\n      dup2\n      mstore\n      0x20\n      add\n        /* \"contracts/4_CrowdFunding.sol\":3187:3197  msg.sender */\n      caller\n        /* \"contracts/4_CrowdFunding.sol\":3099:3274  Investment(\r... */\n      0xffffffffffffffffffffffffffffffffffffffff\n      and\n      dup2\n      mstore\n      0x20\n      add\n        /* \"contracts/4_CrowdFunding.sol\":3216:3225  msg.value */\n      callvalue\n        /* \"contracts/4_CrowdFunding.sol\":3099:3274  Investment(\r... */\n      dup2\n      mstore\n      0x20\n      add\n        /* \"contracts/4_CrowdFunding.sol\":3244:3259  block.timestamp */\n      timestamp\n        /* \"contracts/4_CrowdFunding.sol\":3099:3274  Investment(\r... */\n      dup2\n      mstore\n      pop\n        /* \"contracts/4_CrowdFunding.sol\":3068:3285  investments.push(\r... */\n      swap1\n      dup1\n      0x01\n      dup2\n      sload\n      add\n      dup1\n      dup3\n      sstore\n      dup1\n      swap2\n      pop\n      pop\n      0x01\n      swap1\n      sub\n      swap1\n      0x00\n      mstore\n      keccak256(0x00, 0x20)\n      swap1\n      0x05\n      mul\n      add\n      0x00\n      swap1\n      swap2\n      swap1\n      swap2\n      swap1\n      swap2\n      pop\n      0x00\n      dup3\n      add\n      mload\n      dup2\n      0x00\n      add\n      sstore\n      0x20\n      dup3\n      add\n      mload\n      dup2\n      0x01\n      add\n      sstore\n      0x40\n      dup3\n      add\n      mload\n      dup2\n      0x02\n      add\n      exp(0x0100, 0x00)\n      dup2\n      sload\n      dup2\n      0xffffffffffffffffffffffffffffffffffffffff\n      mul\n      not\n      and\n      swap1\n      dup4\n      0xffffffffffffffffffffffffffffffffffffffff\n      and\n      mul\n      or\n      swap1\n      sstore\n      pop\n      0x60\n      dup3\n      add\n      mload\n      dup2\n      0x03\n      add\n      sstore\n      0x80\n      dup3\n      add\n      mload\n      dup2\n      0x04\n      add\n      sstore\n      pop\n      pop\n        /* \"contracts/4_CrowdFunding.sol\":3296:3311  investmentCount */\n      0x04\n      0x00\n        /* \"contracts/4_CrowdFunding.sol\":3296:3313  investmentCount++ */\n      dup2\n      sload\n      dup1\n      swap3\n      swap2\n      swap1\n      tag_149\n      swap1\n      tag_89\n      jump\t// in\n    tag_149:\n      swap2\n      swap1\n      pop\n      sstore\n      pop\n        /* \"contracts/4_CrowdFunding.sol\":3346:3355  msg.value */\n      callvalue\n        /* \"contracts/4_CrowdFunding.sol\":3324:3328  fund */\n      dup2\n        /* \"contracts/4_CrowdFunding.sol\":3324:3342  fund.currentAmount */\n      0x06\n      add\n      0x00\n        /* \"contracts/4_CrowdFunding.sol\":3324:3355  fund.currentAmount += msg.value */\n      dup3\n      dup3\n      sload\n      tag_150\n      swap2\n      swap1\n      tag_151\n      jump\t// in\n    tag_150:\n      swap3\n      pop\n      pop\n      dup2\n      swap1\n      sstore\n      pop\n        /* \"contracts/4_CrowdFunding.sol\":3373:3424  InvestmentCreated(investments[investmentCount - 1]) */\n      0x59d91f387c713e7f74017154ba447ac5114d01ed128eabba83094ac7cffbb021\n        /* \"contracts/4_CrowdFunding.sol\":3391:3402  investments */\n      0x02\n        /* \"contracts/4_CrowdFunding.sol\":3421:3422  1 */\n      0x01\n        /* \"contracts/4_CrowdFunding.sol\":3403:3418  investmentCount */\n      sload(0x04)\n        /* \"contracts/4_CrowdFunding.sol\":3403:3422  investmentCount - 1 */\n      tag_152\n      swap2\n      swap1\n      tag_153\n      jump\t// in\n    tag_152:\n        /* \"contracts/4_CrowdFunding.sol\":3391:3423  investments[investmentCount - 1] */\n      dup2\n      sload\n      dup2\n      lt\n      tag_154\n      jumpi\n      tag_155\n      tag_87\n      jump\t// in\n    tag_155:\n    tag_154:\n      swap1\n      0x00\n      mstore\n      keccak256(0x00, 0x20)\n      swap1\n      0x05\n      mul\n      add\n        /* \"contracts/4_CrowdFunding.sol\":3373:3424  InvestmentCreated(investments[investmentCount - 1]) */\n      mload(0x40)\n      tag_157\n      swap2\n      swap1\n      tag_158\n      jump\t// in\n    tag_157:\n      mload(0x40)\n      dup1\n      swap2\n      sub\n      swap1\n      log1\n        /* \"contracts/4_CrowdFunding.sol\":3440:3457  FundUpdated(fund) */\n      0xc908814c12a367eaa7ae5d1b3ef8c36ab22b4c17ca0b0cdf1a7a2462a8fc5f6d\n        /* \"contracts/4_CrowdFunding.sol\":3452:3456  fund */\n      dup2\n        /* \"contracts/4_CrowdFunding.sol\":3440:3457  FundUpdated(fund) */\n      mload(0x40)\n      tag_159\n      swap2\n      swap1\n      tag_126\n      jump\t// in\n    tag_159:\n      mload(0x40)\n      dup1\n      swap2\n      sub\n      swap1\n      log1\n        /* \"contracts/4_CrowdFunding.sol\":2877:3465  {\r... */\n      pop\n        /* \"contracts/4_CrowdFunding.sol\":2820:3465  function createInvestment(uint256 fundId) public payable {\r... */\n      pop\n      jump\t// out\n        /* \"contracts/4_CrowdFunding.sol\":1188:1293  function changeManager(address newManager) public onlyBy(manager) {\r... */\n    tag_50:\n        /* \"contracts/4_CrowdFunding.sol\":1245:1252  manager */\n      0x00\n      dup1\n      sload\n      swap1\n      0x0100\n      exp\n      swap1\n      div\n      0xffffffffffffffffffffffffffffffffffffffff\n      and\n        /* \"contracts/4_CrowdFunding.sol\":964:974  msg.sender */\n      caller\n        /* \"contracts/4_CrowdFunding.sol\":953:974  account == msg.sender */\n      0xffffffffffffffffffffffffffffffffffffffff\n      and\n        /* \"contracts/4_CrowdFunding.sol\":953:960  account */\n      dup2\n        /* \"contracts/4_CrowdFunding.sol\":953:974  account == msg.sender */\n      0xffffffffffffffffffffffffffffffffffffffff\n      and\n      eq\n        /* \"contracts/4_CrowdFunding.sol\":945:1001  require(account == msg.sender, \"Sender not authorized.\") */\n      tag_161\n      jumpi\n      mload(0x40)\n      0x08c379a000000000000000000000000000000000000000000000000000000000\n      dup2\n      mstore\n      0x04\n      add\n      tag_162\n      swap1\n      tag_114\n      jump\t// in\n    tag_162:\n      mload(0x40)\n      dup1\n      swap2\n      sub\n      swap1\n      revert\n    tag_161:\n        /* \"contracts/4_CrowdFunding.sol\":1275:1285  newManager */\n      dup2\n        /* \"contracts/4_CrowdFunding.sol\":1265:1272  manager */\n      0x00\n      dup1\n        /* \"contracts/4_CrowdFunding.sol\":1265:1285  manager = newManager */\n      0x0100\n      exp\n      dup2\n      sload\n      dup2\n      0xffffffffffffffffffffffffffffffffffffffff\n      mul\n      not\n      and\n      swap1\n      dup4\n      0xffffffffffffffffffffffffffffffffffffffff\n      and\n      mul\n      or\n      swap1\n      sstore\n      pop\n        /* \"contracts/4_CrowdFunding.sol\":1188:1293  function changeManager(address newManager) public onlyBy(manager) {\r... */\n      pop\n      pop\n      jump\t// out\n    tag_52:\n      mload(0x40)\n      dup1\n      0x0120\n      add\n      0x40\n      mstore\n      dup1\n      0x00\n      dup2\n      mstore\n      0x20\n      add\n      0x60\n      dup2\n      mstore\n      0x20\n      add\n      0x60\n      dup2\n      mstore\n      0x20\n      add\n      0x00\n      dup2\n      mstore\n      0x20\n      add\n      0x00\n      dup2\n      mstore\n      0x20\n      add\n      0x00\n      dup2\n      mstore\n      0x20\n      add\n      0x00\n      dup2\n      mstore\n      0x20\n      add\n      iszero(iszero(0x00))\n      dup2\n      mstore\n      0x20\n      add\n      and(0xffffffffffffffffffffffffffffffffffffffff, 0x00)\n      dup2\n      mstore\n      pop\n      swap1\n      jump\t// out\n    tag_96:\n      mload(0x40)\n      dup1\n      0xa0\n      add\n      0x40\n      mstore\n      dup1\n      0x00\n      dup2\n      mstore\n      0x20\n      add\n      0x00\n      dup2\n      mstore\n      0x20\n      add\n      and(0xffffffffffffffffffffffffffffffffffffffff, 0x00)\n      dup2\n      mstore\n      0x20\n      add\n      0x00\n      dup2\n      mstore\n      0x20\n      add\n      0x00\n      dup2\n      mstore\n      pop\n      swap1\n      jump\t// out\n    tag_138:\n      dup3\n      dup1\n      sload\n      tag_164\n      swap1\n      tag_55\n      jump\t// in\n    tag_164:\n      swap1\n      0x00\n      mstore\n      keccak256(0x00, 0x20)\n      swap1\n      0x1f\n      add\n      0x20\n      swap1\n      div\n      dup2\n      add\n      swap3\n      dup3\n      tag_166\n      jumpi\n      0x00\n      dup6\n      sstore\n      jump(tag_165)\n    tag_166:\n      dup3\n      0x1f\n      lt\n      tag_167\n      jumpi\n      dup1\n      mload\n      not(0xff)\n      and\n      dup4\n      dup1\n      add\n      or\n      dup6\n      sstore\n      jump(tag_165)\n    tag_167:\n      dup3\n      dup1\n      add\n      0x01\n      add\n      dup6\n      sstore\n      dup3\n      iszero\n      tag_165\n      jumpi\n      swap2\n      dup3\n      add\n    tag_168:\n      dup3\n      dup2\n      gt\n      iszero\n      tag_169\n      jumpi\n      dup3\n      mload\n      dup3\n      sstore\n      swap2\n      0x20\n      add\n      swap2\n      swap1\n      0x01\n      add\n      swap1\n      jump(tag_168)\n    tag_169:\n    tag_165:\n      pop\n      swap1\n      pop\n      tag_170\n      swap2\n      swap1\n      tag_171\n      jump\t// in\n    tag_170:\n      pop\n      swap1\n      jump\t// out\n    tag_171:\n    tag_172:\n      dup1\n      dup3\n      gt\n      iszero\n      tag_173\n      jumpi\n      0x00\n      dup2\n      0x00\n      swap1\n      sstore\n      pop\n      0x01\n      add\n      jump(tag_172)\n    tag_173:\n      pop\n      swap1\n      jump\t// out\n        /* \"#utility.yul\":7:419   */\n    tag_175:\n        /* \"#utility.yul\":85:90   */\n      0x00\n        /* \"#utility.yul\":110:176   */\n      tag_177\n        /* \"#utility.yul\":126:175   */\n      tag_178\n        /* \"#utility.yul\":168:174   */\n      dup5\n        /* \"#utility.yul\":126:175   */\n      tag_179\n      jump\t// in\n    tag_178:\n        /* \"#utility.yul\":110:176   */\n      tag_180\n      jump\t// in\n    tag_177:\n        /* \"#utility.yul\":101:176   */\n      swap1\n      pop\n        /* \"#utility.yul\":199:205   */\n      dup3\n        /* \"#utility.yul\":192:197   */\n      dup2\n        /* \"#utility.yul\":185:206   */\n      mstore\n        /* \"#utility.yul\":237:241   */\n      0x20\n        /* \"#utility.yul\":230:235   */\n      dup2\n        /* \"#utility.yul\":226:242   */\n      add\n        /* \"#utility.yul\":275:278   */\n      dup5\n        /* \"#utility.yul\":266:272   */\n      dup5\n        /* \"#utility.yul\":261:264   */\n      dup5\n        /* \"#utility.yul\":257:273   */\n      add\n        /* \"#utility.yul\":254:279   */\n      gt\n        /* \"#utility.yul\":251:363   */\n      iszero\n      tag_181\n      jumpi\n        /* \"#utility.yul\":282:361   */\n      tag_182\n      tag_183\n      jump\t// in\n    tag_182:\n        /* \"#utility.yul\":251:363   */\n    tag_181:\n        /* \"#utility.yul\":372:413   */\n      tag_184\n        /* \"#utility.yul\":406:412   */\n      dup5\n        /* \"#utility.yul\":401:404   */\n      dup3\n        /* \"#utility.yul\":396:399   */\n      dup6\n        /* \"#utility.yul\":372:413   */\n      tag_185\n      jump\t// in\n    tag_184:\n        /* \"#utility.yul\":91:419   */\n      pop\n        /* \"#utility.yul\":7:419   */\n      swap4\n      swap3\n      pop\n      pop\n      pop\n      jump\t// out\n        /* \"#utility.yul\":425:564   */\n    tag_186:\n        /* \"#utility.yul\":471:476   */\n      0x00\n        /* \"#utility.yul\":509:515   */\n      dup2\n        /* \"#utility.yul\":496:516   */\n      calldataload\n        /* \"#utility.yul\":487:516   */\n      swap1\n      pop\n        /* \"#utility.yul\":525:558   */\n      tag_188\n        /* \"#utility.yul\":552:557   */\n      dup2\n        /* \"#utility.yul\":525:558   */\n      tag_189\n      jump\t// in\n    tag_188:\n        /* \"#utility.yul\":425:564   */\n      swap3\n      swap2\n      pop\n      pop\n      jump\t// out\n        /* \"#utility.yul\":570:725   */\n    tag_190:\n        /* \"#utility.yul\":624:629   */\n      0x00\n        /* \"#utility.yul\":662:668   */\n      dup2\n        /* \"#utility.yul\":649:669   */\n      calldataload\n        /* \"#utility.yul\":640:669   */\n      swap1\n      pop\n        /* \"#utility.yul\":678:719   */\n      tag_192\n        /* \"#utility.yul\":713:718   */\n      dup2\n        /* \"#utility.yul\":678:719   */\n      tag_193\n      jump\t// in\n    tag_192:\n        /* \"#utility.yul\":570:725   */\n      swap3\n      swap2\n      pop\n      pop\n      jump\t// out\n        /* \"#utility.yul\":745:1085   */\n    tag_194:\n        /* \"#utility.yul\":801:806   */\n      0x00\n        /* \"#utility.yul\":850:853   */\n      dup3\n        /* \"#utility.yul\":843:847   */\n      0x1f\n        /* \"#utility.yul\":835:841   */\n      dup4\n        /* \"#utility.yul\":831:848   */\n      add\n        /* \"#utility.yul\":827:854   */\n      slt\n        /* \"#utility.yul\":817:939   */\n      tag_196\n      jumpi\n        /* \"#utility.yul\":858:937   */\n      tag_197\n      tag_198\n      jump\t// in\n    tag_197:\n        /* \"#utility.yul\":817:939   */\n    tag_196:\n        /* \"#utility.yul\":975:981   */\n      dup2\n        /* \"#utility.yul\":962:982   */\n      calldataload\n        /* \"#utility.yul\":1000:1079   */\n      tag_199\n        /* \"#utility.yul\":1075:1078   */\n      dup5\n        /* \"#utility.yul\":1067:1073   */\n      dup3\n        /* \"#utility.yul\":1060:1064   */\n      0x20\n        /* \"#utility.yul\":1052:1058   */\n      dup7\n        /* \"#utility.yul\":1048:1065   */\n      add\n        /* \"#utility.yul\":1000:1079   */\n      tag_175\n      jump\t// in\n    tag_199:\n        /* \"#utility.yul\":991:1079   */\n      swap2\n      pop\n        /* \"#utility.yul\":807:1085   */\n      pop\n        /* \"#utility.yul\":745:1085   */\n      swap3\n      swap2\n      pop\n      pop\n      jump\t// out\n        /* \"#utility.yul\":1091:1230   */\n    tag_200:\n        /* \"#utility.yul\":1137:1142   */\n      0x00\n        /* \"#utility.yul\":1175:1181   */\n      dup2\n        /* \"#utility.yul\":1162:1182   */\n      calldataload\n        /* \"#utility.yul\":1153:1182   */\n      swap1\n      pop\n        /* \"#utility.yul\":1191:1224   */\n      tag_202\n        /* \"#utility.yul\":1218:1223   */\n      dup2\n        /* \"#utility.yul\":1191:1224   */\n      tag_203\n      jump\t// in\n    tag_202:\n        /* \"#utility.yul\":1091:1230   */\n      swap3\n      swap2\n      pop\n      pop\n      jump\t// out\n        /* \"#utility.yul\":1236:1565   */\n    tag_49:\n        /* \"#utility.yul\":1295:1301   */\n      0x00\n        /* \"#utility.yul\":1344:1346   */\n      0x20\n        /* \"#utility.yul\":1332:1341   */\n      dup3\n        /* \"#utility.yul\":1323:1330   */\n      dup5\n        /* \"#utility.yul\":1319:1342   */\n      sub\n        /* \"#utility.yul\":1315:1347   */\n      slt\n        /* \"#utility.yul\":1312:1431   */\n      iszero\n      tag_205\n      jumpi\n        /* \"#utility.yul\":1350:1429   */\n      tag_206\n      tag_207\n      jump\t// in\n    tag_206:\n        /* \"#utility.yul\":1312:1431   */\n    tag_205:\n        /* \"#utility.yul\":1470:1471   */\n      0x00\n        /* \"#utility.yul\":1495:1548   */\n      tag_208\n        /* \"#utility.yul\":1540:1547   */\n      dup5\n        /* \"#utility.yul\":1531:1537   */\n      dup3\n        /* \"#utility.yul\":1520:1529   */\n      dup6\n        /* \"#utility.yul\":1516:1538   */\n      add\n        /* \"#utility.yul\":1495:1548   */\n      tag_186\n      jump\t// in\n    tag_208:\n        /* \"#utility.yul\":1485:1548   */\n      swap2\n      pop\n        /* \"#utility.yul\":1441:1558   */\n      pop\n        /* \"#utility.yul\":1236:1565   */\n      swap3\n      swap2\n      pop\n      pop\n      jump\t// out\n        /* \"#utility.yul\":1571:3004   */\n    tag_41:\n        /* \"#utility.yul\":1703:1709   */\n      0x00\n        /* \"#utility.yul\":1711:1717   */\n      dup1\n        /* \"#utility.yul\":1719:1725   */\n      0x00\n        /* \"#utility.yul\":1727:1733   */\n      dup1\n        /* \"#utility.yul\":1735:1741   */\n      0x00\n        /* \"#utility.yul\":1743:1749   */\n      dup1\n        /* \"#utility.yul\":1792:1795   */\n      0xc0\n        /* \"#utility.yul\":1780:1789   */\n      dup8\n        /* \"#utility.yul\":1771:1778   */\n      dup10\n        /* \"#utility.yul\":1767:1790   */\n      sub\n        /* \"#utility.yul\":1763:1796   */\n      slt\n        /* \"#utility.yul\":1760:1880   */\n      iszero\n      tag_210\n      jumpi\n        /* \"#utility.yul\":1799:1878   */\n      tag_211\n      tag_207\n      jump\t// in\n    tag_211:\n        /* \"#utility.yul\":1760:1880   */\n    tag_210:\n        /* \"#utility.yul\":1947:1948   */\n      0x00\n        /* \"#utility.yul\":1936:1945   */\n      dup8\n        /* \"#utility.yul\":1932:1949   */\n      add\n        /* \"#utility.yul\":1919:1950   */\n      calldataload\n        /* \"#utility.yul\":1977:1995   */\n      0xffffffffffffffff\n        /* \"#utility.yul\":1969:1975   */\n      dup2\n        /* \"#utility.yul\":1966:1996   */\n      gt\n        /* \"#utility.yul\":1963:2080   */\n      iszero\n      tag_212\n      jumpi\n        /* \"#utility.yul\":1999:2078   */\n      tag_213\n      tag_214\n      jump\t// in\n    tag_213:\n        /* \"#utility.yul\":1963:2080   */\n    tag_212:\n        /* \"#utility.yul\":2104:2167   */\n      tag_215\n        /* \"#utility.yul\":2159:2166   */\n      dup10\n        /* \"#utility.yul\":2150:2156   */\n      dup3\n        /* \"#utility.yul\":2139:2148   */\n      dup11\n        /* \"#utility.yul\":2135:2157   */\n      add\n        /* \"#utility.yul\":2104:2167   */\n      tag_194\n      jump\t// in\n    tag_215:\n        /* \"#utility.yul\":2094:2167   */\n      swap7\n      pop\n        /* \"#utility.yul\":1890:2177   */\n      pop\n        /* \"#utility.yul\":2244:2246   */\n      0x20\n        /* \"#utility.yul\":2233:2242   */\n      dup8\n        /* \"#utility.yul\":2229:2247   */\n      add\n        /* \"#utility.yul\":2216:2248   */\n      calldataload\n        /* \"#utility.yul\":2275:2293   */\n      0xffffffffffffffff\n        /* \"#utility.yul\":2267:2273   */\n      dup2\n        /* \"#utility.yul\":2264:2294   */\n      gt\n        /* \"#utility.yul\":2261:2378   */\n      iszero\n      tag_216\n      jumpi\n        /* \"#utility.yul\":2297:2376   */\n      tag_217\n      tag_214\n      jump\t// in\n    tag_217:\n        /* \"#utility.yul\":2261:2378   */\n    tag_216:\n        /* \"#utility.yul\":2402:2465   */\n      tag_218\n        /* \"#utility.yul\":2457:2464   */\n      dup10\n        /* \"#utility.yul\":2448:2454   */\n      dup3\n        /* \"#utility.yul\":2437:2446   */\n      dup11\n        /* \"#utility.yul\":2433:2455   */\n      add\n        /* \"#utility.yul\":2402:2465   */\n      tag_194\n      jump\t// in\n    tag_218:\n        /* \"#utility.yul\":2392:2465   */\n      swap6\n      pop\n        /* \"#utility.yul\":2187:2475   */\n      pop\n        /* \"#utility.yul\":2514:2516   */\n      0x40\n        /* \"#utility.yul\":2540:2593   */\n      tag_219\n        /* \"#utility.yul\":2585:2592   */\n      dup10\n        /* \"#utility.yul\":2576:2582   */\n      dup3\n        /* \"#utility.yul\":2565:2574   */\n      dup11\n        /* \"#utility.yul\":2561:2583   */\n      add\n        /* \"#utility.yul\":2540:2593   */\n      tag_200\n      jump\t// in\n    tag_219:\n        /* \"#utility.yul\":2530:2593   */\n      swap5\n      pop\n        /* \"#utility.yul\":2485:2603   */\n      pop\n        /* \"#utility.yul\":2642:2644   */\n      0x60\n        /* \"#utility.yul\":2668:2721   */\n      tag_220\n        /* \"#utility.yul\":2713:2720   */\n      dup10\n        /* \"#utility.yul\":2704:2710   */\n      dup3\n        /* \"#utility.yul\":2693:2702   */\n      dup11\n        /* \"#utility.yul\":2689:2711   */\n      add\n        /* \"#utility.yul\":2668:2721   */\n      tag_200\n      jump\t// in\n    tag_220:\n        /* \"#utility.yul\":2658:2721   */\n      swap4\n      pop\n        /* \"#utility.yul\":2613:2731   */\n      pop\n        /* \"#utility.yul\":2770:2773   */\n      0x80\n        /* \"#utility.yul\":2797:2850   */\n      tag_221\n        /* \"#utility.yul\":2842:2849   */\n      dup10\n        /* \"#utility.yul\":2833:2839   */\n      dup3\n        /* \"#utility.yul\":2822:2831   */\n      dup11\n        /* \"#utility.yul\":2818:2840   */\n      add\n        /* \"#utility.yul\":2797:2850   */\n      tag_200\n      jump\t// in\n    tag_221:\n        /* \"#utility.yul\":2787:2850   */\n      swap3\n      pop\n        /* \"#utility.yul\":2741:2860   */\n      pop\n        /* \"#utility.yul\":2899:2902   */\n      0xa0\n        /* \"#utility.yul\":2926:2987   */\n      tag_222\n        /* \"#utility.yul\":2979:2986   */\n      dup10\n        /* \"#utility.yul\":2970:2976   */\n      dup3\n        /* \"#utility.yul\":2959:2968   */\n      dup11\n        /* \"#utility.yul\":2955:2977   */\n      add\n        /* \"#utility.yul\":2926:2987   */\n      tag_190\n      jump\t// in\n    tag_222:\n        /* \"#utility.yul\":2916:2987   */\n      swap2\n      pop\n        /* \"#utility.yul\":2870:2997   */\n      pop\n        /* \"#utility.yul\":1571:3004   */\n      swap3\n      swap6\n      pop\n      swap3\n      swap6\n      pop\n      swap3\n      swap6\n      jump\t// out\n        /* \"#utility.yul\":3010:3339   */\n    tag_14:\n        /* \"#utility.yul\":3069:3075   */\n      0x00\n        /* \"#utility.yul\":3118:3120   */\n      0x20\n        /* \"#utility.yul\":3106:3115   */\n      dup3\n        /* \"#utility.yul\":3097:3104   */\n      dup5\n        /* \"#utility.yul\":3093:3116   */\n      sub\n        /* \"#utility.yul\":3089:3121   */\n      slt\n        /* \"#utility.yul\":3086:3205   */\n      iszero\n      tag_224\n      jumpi\n        /* \"#utility.yul\":3124:3203   */\n      tag_225\n      tag_207\n      jump\t// in\n    tag_225:\n        /* \"#utility.yul\":3086:3205   */\n    tag_224:\n        /* \"#utility.yul\":3244:3245   */\n      0x00\n        /* \"#utility.yul\":3269:3322   */\n      tag_226\n        /* \"#utility.yul\":3314:3321   */\n      dup5\n        /* \"#utility.yul\":3305:3311   */\n      dup3\n        /* \"#utility.yul\":3294:3303   */\n      dup6\n        /* \"#utility.yul\":3290:3312   */\n      add\n        /* \"#utility.yul\":3269:3322   */\n      tag_200\n      jump\t// in\n    tag_226:\n        /* \"#utility.yul\":3259:3322   */\n      swap2\n      pop\n        /* \"#utility.yul\":3215:3332   */\n      pop\n        /* \"#utility.yul\":3010:3339   */\n      swap3\n      swap2\n      pop\n      pop\n      jump\t// out\n        /* \"#utility.yul\":3345:3581   */\n    tag_227:\n        /* \"#utility.yul\":3454:3464   */\n      0x00\n        /* \"#utility.yul\":3489:3575   */\n      tag_229\n        /* \"#utility.yul\":3571:3574   */\n      dup4\n        /* \"#utility.yul\":3563:3569   */\n      dup4\n        /* \"#utility.yul\":3489:3575   */\n      tag_230\n      jump\t// in\n    tag_229:\n        /* \"#utility.yul\":3475:3575   */\n      swap1\n      pop\n        /* \"#utility.yul\":3345:3581   */\n      swap3\n      swap2\n      pop\n      pop\n      jump\t// out\n        /* \"#utility.yul\":3587:3870   */\n    tag_231:\n        /* \"#utility.yul\":3708:3718   */\n      0x00\n        /* \"#utility.yul\":3729:3827   */\n      tag_233\n        /* \"#utility.yul\":3823:3826   */\n      dup4\n        /* \"#utility.yul\":3815:3821   */\n      dup4\n        /* \"#utility.yul\":3729:3827   */\n      tag_234\n      jump\t// in\n    tag_233:\n        /* \"#utility.yul\":3859:3863   */\n      0xa0\n        /* \"#utility.yul\":3854:3857   */\n      dup4\n        /* \"#utility.yul\":3850:3864   */\n      add\n        /* \"#utility.yul\":3836:3864   */\n      swap1\n      pop\n        /* \"#utility.yul\":3587:3870   */\n      swap3\n      swap2\n      pop\n      pop\n      jump\t// out\n        /* \"#utility.yul\":3876:4008   */\n    tag_235:\n        /* \"#utility.yul\":3969:4001   */\n      tag_237\n        /* \"#utility.yul\":3995:4000   */\n      dup2\n        /* \"#utility.yul\":3969:4001   */\n      tag_238\n      jump\t// in\n    tag_237:\n        /* \"#utility.yul\":3964:3967   */\n      dup3\n        /* \"#utility.yul\":3957:4002   */\n      mstore\n        /* \"#utility.yul\":3876:4008   */\n      pop\n      pop\n      jump\t// out\n        /* \"#utility.yul\":4014:4122   */\n    tag_239:\n        /* \"#utility.yul\":4091:4115   */\n      tag_241\n        /* \"#utility.yul\":4109:4114   */\n      dup2\n        /* \"#utility.yul\":4091:4115   */\n      tag_242\n      jump\t// in\n    tag_241:\n        /* \"#utility.yul\":4086:4089   */\n      dup3\n        /* \"#utility.yul\":4079:4116   */\n      mstore\n        /* \"#utility.yul\":4014:4122   */\n      pop\n      pop\n      jump\t// out\n        /* \"#utility.yul\":4128:4246   */\n    tag_243:\n        /* \"#utility.yul\":4215:4239   */\n      tag_245\n        /* \"#utility.yul\":4233:4238   */\n      dup2\n        /* \"#utility.yul\":4215:4239   */\n      tag_242\n      jump\t// in\n    tag_245:\n        /* \"#utility.yul\":4210:4213   */\n      dup3\n        /* \"#utility.yul\":4203:4240   */\n      mstore\n        /* \"#utility.yul\":4128:4246   */\n      pop\n      pop\n      jump\t// out\n        /* \"#utility.yul\":4316:5387   */\n    tag_246:\n        /* \"#utility.yul\":4475:4478   */\n      0x00\n        /* \"#utility.yul\":4504:4578   */\n      tag_248\n        /* \"#utility.yul\":4572:4577   */\n      dup3\n        /* \"#utility.yul\":4504:4578   */\n      tag_249\n      jump\t// in\n    tag_248:\n        /* \"#utility.yul\":4594:4700   */\n      tag_250\n        /* \"#utility.yul\":4693:4699   */\n      dup2\n        /* \"#utility.yul\":4688:4691   */\n      dup6\n        /* \"#utility.yul\":4594:4700   */\n      tag_251\n      jump\t// in\n    tag_250:\n        /* \"#utility.yul\":4587:4700   */\n      swap4\n      pop\n        /* \"#utility.yul\":4726:4729   */\n      dup4\n        /* \"#utility.yul\":4771:4775   */\n      0x20\n        /* \"#utility.yul\":4763:4769   */\n      dup3\n        /* \"#utility.yul\":4759:4776   */\n      mul\n        /* \"#utility.yul\":4754:4757   */\n      dup6\n        /* \"#utility.yul\":4750:4777   */\n      add\n        /* \"#utility.yul\":4801:4877   */\n      tag_252\n        /* \"#utility.yul\":4871:4876   */\n      dup6\n        /* \"#utility.yul\":4801:4877   */\n      tag_253\n      jump\t// in\n    tag_252:\n        /* \"#utility.yul\":4900:4907   */\n      dup1\n        /* \"#utility.yul\":4931:4932   */\n      0x00\n        /* \"#utility.yul\":4916:5342   */\n    tag_254:\n        /* \"#utility.yul\":4941:4947   */\n      dup6\n        /* \"#utility.yul\":4938:4939   */\n      dup2\n        /* \"#utility.yul\":4935:4948   */\n      lt\n        /* \"#utility.yul\":4916:5342   */\n      iszero\n      tag_256\n      jumpi\n        /* \"#utility.yul\":5012:5021   */\n      dup5\n        /* \"#utility.yul\":5006:5010   */\n      dup5\n        /* \"#utility.yul\":5002:5022   */\n      sub\n        /* \"#utility.yul\":4997:5000   */\n      dup10\n        /* \"#utility.yul\":4990:5023   */\n      mstore\n        /* \"#utility.yul\":5063:5069   */\n      dup2\n        /* \"#utility.yul\":5057:5070   */\n      mload\n        /* \"#utility.yul\":5091:5195   */\n      tag_257\n        /* \"#utility.yul\":5190:5194   */\n      dup6\n        /* \"#utility.yul\":5175:5188   */\n      dup3\n        /* \"#utility.yul\":5091:5195   */\n      tag_227\n      jump\t// in\n    tag_257:\n        /* \"#utility.yul\":5083:5195   */\n      swap5\n      pop\n        /* \"#utility.yul\":5218:5298   */\n      tag_258\n        /* \"#utility.yul\":5291:5297   */\n      dup4\n        /* \"#utility.yul\":5218:5298   */\n      tag_259\n      jump\t// in\n    tag_258:\n        /* \"#utility.yul\":5208:5298   */\n      swap3\n      pop\n        /* \"#utility.yul\":5327:5331   */\n      0x20\n        /* \"#utility.yul\":5322:5325   */\n      dup11\n        /* \"#utility.yul\":5318:5332   */\n      add\n        /* \"#utility.yul\":5311:5332   */\n      swap10\n      pop\n        /* \"#utility.yul\":4976:5342   */\n      pop\n        /* \"#utility.yul\":4963:4964   */\n      0x01\n        /* \"#utility.yul\":4960:4961   */\n      dup2\n        /* \"#utility.yul\":4956:4965   */\n      add\n        /* \"#utility.yul\":4951:4965   */\n      swap1\n      pop\n        /* \"#utility.yul\":4916:5342   */\n      jump(tag_254)\n    tag_256:\n        /* \"#utility.yul\":4920:4934   */\n      pop\n        /* \"#utility.yul\":5358:5362   */\n      dup3\n        /* \"#utility.yul\":5351:5362   */\n      swap8\n      pop\n        /* \"#utility.yul\":5378:5381   */\n      dup8\n        /* \"#utility.yul\":5371:5381   */\n      swap6\n      pop\n        /* \"#utility.yul\":4480:5387   */\n      pop\n      pop\n      pop\n      pop\n      pop\n        /* \"#utility.yul\":4316:5387   */\n      swap3\n      swap2\n      pop\n      pop\n      jump\t// out\n        /* \"#utility.yul\":5469:6409   */\n    tag_260:\n        /* \"#utility.yul\":5640:5643   */\n      0x00\n        /* \"#utility.yul\":5669:5749   */\n      tag_262\n        /* \"#utility.yul\":5743:5748   */\n      dup3\n        /* \"#utility.yul\":5669:5749   */\n      tag_263\n      jump\t// in\n    tag_262:\n        /* \"#utility.yul\":5765:5877   */\n      tag_264\n        /* \"#utility.yul\":5870:5876   */\n      dup2\n        /* \"#utility.yul\":5865:5868   */\n      dup6\n        /* \"#utility.yul\":5765:5877   */\n      tag_265\n      jump\t// in\n    tag_264:\n        /* \"#utility.yul\":5758:5877   */\n      swap4\n      pop\n        /* \"#utility.yul\":5901:5983   */\n      tag_266\n        /* \"#utility.yul\":5977:5982   */\n      dup4\n        /* \"#utility.yul\":5901:5983   */\n      tag_267\n      jump\t// in\n    tag_266:\n        /* \"#utility.yul\":6006:6013   */\n      dup1\n        /* \"#utility.yul\":6037:6038   */\n      0x00\n        /* \"#utility.yul\":6022:6384   */\n    tag_268:\n        /* \"#utility.yul\":6047:6053   */\n      dup4\n        /* \"#utility.yul\":6044:6045   */\n      dup2\n        /* \"#utility.yul\":6041:6054   */\n      lt\n        /* \"#utility.yul\":6022:6384   */\n      iszero\n      tag_270\n      jumpi\n        /* \"#utility.yul\":6123:6129   */\n      dup2\n        /* \"#utility.yul\":6117:6130   */\n      mload\n        /* \"#utility.yul\":6150:6265   */\n      tag_271\n        /* \"#utility.yul\":6261:6264   */\n      dup9\n        /* \"#utility.yul\":6246:6259   */\n      dup3\n        /* \"#utility.yul\":6150:6265   */\n      tag_231\n      jump\t// in\n    tag_271:\n        /* \"#utility.yul\":6143:6265   */\n      swap8\n      pop\n        /* \"#utility.yul\":6288:6374   */\n      tag_272\n        /* \"#utility.yul\":6367:6373   */\n      dup4\n        /* \"#utility.yul\":6288:6374   */\n      tag_273\n      jump\t// in\n    tag_272:\n        /* \"#utility.yul\":6278:6374   */\n      swap3\n      pop\n        /* \"#utility.yul\":6082:6384   */\n      pop\n        /* \"#utility.yul\":6069:6070   */\n      0x01\n        /* \"#utility.yul\":6066:6067   */\n      dup2\n        /* \"#utility.yul\":6062:6071   */\n      add\n        /* \"#utility.yul\":6057:6071   */\n      swap1\n      pop\n        /* \"#utility.yul\":6022:6384   */\n      jump(tag_268)\n    tag_270:\n        /* \"#utility.yul\":6026:6040   */\n      pop\n        /* \"#utility.yul\":6400:6403   */\n      dup6\n        /* \"#utility.yul\":6393:6403   */\n      swap4\n      pop\n        /* \"#utility.yul\":5645:6409   */\n      pop\n      pop\n      pop\n        /* \"#utility.yul\":5469:6409   */\n      swap3\n      swap2\n      pop\n      pop\n      jump\t// out\n        /* \"#utility.yul\":6415:6514   */\n    tag_274:\n        /* \"#utility.yul\":6486:6507   */\n      tag_276\n        /* \"#utility.yul\":6501:6506   */\n      dup2\n        /* \"#utility.yul\":6486:6507   */\n      tag_277\n      jump\t// in\n    tag_276:\n        /* \"#utility.yul\":6481:6484   */\n      dup3\n        /* \"#utility.yul\":6474:6508   */\n      mstore\n        /* \"#utility.yul\":6415:6514   */\n      pop\n      pop\n      jump\t// out\n        /* \"#utility.yul\":6520:6864   */\n    tag_278:\n        /* \"#utility.yul\":6598:6601   */\n      0x00\n        /* \"#utility.yul\":6626:6665   */\n      tag_280\n        /* \"#utility.yul\":6659:6664   */\n      dup3\n        /* \"#utility.yul\":6626:6665   */\n      tag_281\n      jump\t// in\n    tag_280:\n        /* \"#utility.yul\":6681:6742   */\n      tag_282\n        /* \"#utility.yul\":6735:6741   */\n      dup2\n        /* \"#utility.yul\":6730:6733   */\n      dup6\n        /* \"#utility.yul\":6681:6742   */\n      tag_283\n      jump\t// in\n    tag_282:\n        /* \"#utility.yul\":6674:6742   */\n      swap4\n      pop\n        /* \"#utility.yul\":6751:6803   */\n      tag_284\n        /* \"#utility.yul\":6796:6802   */\n      dup2\n        /* \"#utility.yul\":6791:6794   */\n      dup6\n        /* \"#utility.yul\":6784:6788   */\n      0x20\n        /* \"#utility.yul\":6777:6782   */\n      dup7\n        /* \"#utility.yul\":6773:6789   */\n      add\n        /* \"#utility.yul\":6751:6803   */\n      tag_285\n      jump\t// in\n    tag_284:\n        /* \"#utility.yul\":6828:6857   */\n      tag_286\n        /* \"#utility.yul\":6850:6856   */\n      dup2\n        /* \"#utility.yul\":6828:6857   */\n      tag_287\n      jump\t// in\n    tag_286:\n        /* \"#utility.yul\":6823:6826   */\n      dup5\n        /* \"#utility.yul\":6819:6858   */\n      add\n        /* \"#utility.yul\":6812:6858   */\n      swap2\n      pop\n        /* \"#utility.yul\":6602:6864   */\n      pop\n        /* \"#utility.yul\":6520:6864   */\n      swap3\n      swap2\n      pop\n      pop\n      jump\t// out\n        /* \"#utility.yul\":6894:7676   */\n    tag_288:\n        /* \"#utility.yul\":6969:6972   */\n      0x00\n        /* \"#utility.yul\":7006:7011   */\n      dup2\n        /* \"#utility.yul\":7000:7012   */\n      sload\n        /* \"#utility.yul\":7035:7071   */\n      tag_290\n        /* \"#utility.yul\":7061:7070   */\n      dup2\n        /* \"#utility.yul\":7035:7071   */\n      tag_55\n      jump\t// in\n    tag_290:\n        /* \"#utility.yul\":7087:7148   */\n      tag_291\n        /* \"#utility.yul\":7141:7147   */\n      dup2\n        /* \"#utility.yul\":7136:7139   */\n      dup7\n        /* \"#utility.yul\":7087:7148   */\n      tag_283\n      jump\t// in\n    tag_291:\n        /* \"#utility.yul\":7080:7148   */\n      swap5\n      pop\n        /* \"#utility.yul\":7179:7180   */\n      0x01\n        /* \"#utility.yul\":7168:7177   */\n      dup3\n        /* \"#utility.yul\":7164:7181   */\n      and\n        /* \"#utility.yul\":7195:7196   */\n      0x00\n        /* \"#utility.yul\":7190:7325   */\n      dup2\n      eq\n      tag_293\n      jumpi\n        /* \"#utility.yul\":7339:7340   */\n      0x01\n        /* \"#utility.yul\":7334:7670   */\n      dup2\n      eq\n      tag_294\n      jumpi\n        /* \"#utility.yul\":7157:7670   */\n      jump(tag_292)\n        /* \"#utility.yul\":7190:7325   */\n    tag_293:\n        /* \"#utility.yul\":7274:7278   */\n      0xff\n        /* \"#utility.yul\":7270:7279   */\n      not\n        /* \"#utility.yul\":7259:7268   */\n      dup4\n        /* \"#utility.yul\":7255:7280   */\n      and\n        /* \"#utility.yul\":7250:7253   */\n      dup7\n        /* \"#utility.yul\":7243:7281   */\n      mstore\n        /* \"#utility.yul\":7310:7314   */\n      0x20\n        /* \"#utility.yul\":7305:7308   */\n      dup7\n        /* \"#utility.yul\":7301:7315   */\n      add\n        /* \"#utility.yul\":7294:7315   */\n      swap4\n      pop\n        /* \"#utility.yul\":7190:7325   */\n      jump(tag_292)\n        /* \"#utility.yul\":7334:7670   */\n    tag_294:\n        /* \"#utility.yul\":7401:7439   */\n      tag_295\n        /* \"#utility.yul\":7433:7438   */\n      dup6\n        /* \"#utility.yul\":7401:7439   */\n      tag_296\n      jump\t// in\n    tag_295:\n        /* \"#utility.yul\":7461:7462   */\n      0x00\n        /* \"#utility.yul\":7475:7629   */\n    tag_297:\n        /* \"#utility.yul\":7489:7495   */\n      dup4\n        /* \"#utility.yul\":7486:7487   */\n      dup2\n        /* \"#utility.yul\":7483:7496   */\n      lt\n        /* \"#utility.yul\":7475:7629   */\n      iszero\n      tag_299\n      jumpi\n        /* \"#utility.yul\":7563:7570   */\n      dup2\n        /* \"#utility.yul\":7557:7571   */\n      sload\n        /* \"#utility.yul\":7553:7554   */\n      dup2\n        /* \"#utility.yul\":7548:7551   */\n      dup10\n        /* \"#utility.yul\":7544:7555   */\n      add\n        /* \"#utility.yul\":7537:7572   */\n      mstore\n        /* \"#utility.yul\":7613:7614   */\n      0x01\n        /* \"#utility.yul\":7604:7611   */\n      dup3\n        /* \"#utility.yul\":7600:7615   */\n      add\n        /* \"#utility.yul\":7589:7615   */\n      swap2\n      pop\n        /* \"#utility.yul\":7511:7515   */\n      0x20\n        /* \"#utility.yul\":7508:7509   */\n      dup2\n        /* \"#utility.yul\":7504:7516   */\n      add\n        /* \"#utility.yul\":7499:7516   */\n      swap1\n      pop\n        /* \"#utility.yul\":7475:7629   */\n      jump(tag_297)\n    tag_299:\n        /* \"#utility.yul\":7658:7659   */\n      dup1\n        /* \"#utility.yul\":7653:7656   */\n      dup9\n        /* \"#utility.yul\":7649:7660   */\n      add\n        /* \"#utility.yul\":7642:7660   */\n      swap6\n      pop\n        /* \"#utility.yul\":7341:7670   */\n      pop\n      pop\n        /* \"#utility.yul\":7157:7670   */\n    tag_292:\n      pop\n        /* \"#utility.yul\":6973:7676   */\n      pop\n      pop\n        /* \"#utility.yul\":6894:7676   */\n      swap3\n      swap2\n      pop\n      pop\n      jump\t// out\n        /* \"#utility.yul\":7682:8048   */\n    tag_300:\n        /* \"#utility.yul\":7824:7827   */\n      0x00\n        /* \"#utility.yul\":7845:7912   */\n      tag_302\n        /* \"#utility.yul\":7909:7911   */\n      0x35\n        /* \"#utility.yul\":7904:7907   */\n      dup4\n        /* \"#utility.yul\":7845:7912   */\n      tag_303\n      jump\t// in\n    tag_302:\n        /* \"#utility.yul\":7838:7912   */\n      swap2\n      pop\n        /* \"#utility.yul\":7921:8014   */\n      tag_304\n        /* \"#utility.yul\":8010:8013   */\n      dup3\n        /* \"#utility.yul\":7921:8014   */\n      tag_305\n      jump\t// in\n    tag_304:\n        /* \"#utility.yul\":8039:8041   */\n      0x40\n        /* \"#utility.yul\":8034:8037   */\n      dup3\n        /* \"#utility.yul\":8030:8042   */\n      add\n        /* \"#utility.yul\":8023:8042   */\n      swap1\n      pop\n        /* \"#utility.yul\":7682:8048   */\n      swap2\n      swap1\n      pop\n      jump\t// out\n        /* \"#utility.yul\":8054:8420   */\n    tag_306:\n        /* \"#utility.yul\":8196:8199   */\n      0x00\n        /* \"#utility.yul\":8217:8284   */\n      tag_308\n        /* \"#utility.yul\":8281:8283   */\n      0x39\n        /* \"#utility.yul\":8276:8279   */\n      dup4\n        /* \"#utility.yul\":8217:8284   */\n      tag_303\n      jump\t// in\n    tag_308:\n        /* \"#utility.yul\":8210:8284   */\n      swap2\n      pop\n        /* \"#utility.yul\":8293:8386   */\n      tag_309\n        /* \"#utility.yul\":8382:8385   */\n      dup3\n        /* \"#utility.yul\":8293:8386   */\n      tag_310\n      jump\t// in\n    tag_309:\n        /* \"#utility.yul\":8411:8413   */\n      0x40\n        /* \"#utility.yul\":8406:8409   */\n      dup3\n        /* \"#utility.yul\":8402:8414   */\n      add\n        /* \"#utility.yul\":8395:8414   */\n      swap1\n      pop\n        /* \"#utility.yul\":8054:8420   */\n      swap2\n      swap1\n      pop\n      jump\t// out\n        /* \"#utility.yul\":8426:8792   */\n    tag_311:\n        /* \"#utility.yul\":8568:8571   */\n      0x00\n        /* \"#utility.yul\":8589:8656   */\n      tag_313\n        /* \"#utility.yul\":8653:8655   */\n      0x19\n        /* \"#utility.yul\":8648:8651   */\n      dup4\n        /* \"#utility.yul\":8589:8656   */\n      tag_303\n      jump\t// in\n    tag_313:\n        /* \"#utility.yul\":8582:8656   */\n      swap2\n      pop\n        /* \"#utility.yul\":8665:8758   */\n      tag_314\n        /* \"#utility.yul\":8754:8757   */\n      dup3\n        /* \"#utility.yul\":8665:8758   */\n      tag_315\n      jump\t// in\n    tag_314:\n        /* \"#utility.yul\":8783:8785   */\n      0x20\n        /* \"#utility.yul\":8778:8781   */\n      dup3\n        /* \"#utility.yul\":8774:8786   */\n      add\n        /* \"#utility.yul\":8767:8786   */\n      swap1\n      pop\n        /* \"#utility.yul\":8426:8792   */\n      swap2\n      swap1\n      pop\n      jump\t// out\n        /* \"#utility.yul\":8798:9164   */\n    tag_316:\n        /* \"#utility.yul\":8940:8943   */\n      0x00\n        /* \"#utility.yul\":8961:9028   */\n      tag_318\n        /* \"#utility.yul\":9025:9027   */\n      0x2b\n        /* \"#utility.yul\":9020:9023   */\n      dup4\n        /* \"#utility.yul\":8961:9028   */\n      tag_303\n      jump\t// in\n    tag_318:\n        /* \"#utility.yul\":8954:9028   */\n      swap2\n      pop\n        /* \"#utility.yul\":9037:9130   */\n      tag_319\n        /* \"#utility.yul\":9126:9129   */\n      dup3\n        /* \"#utility.yul\":9037:9130   */\n      tag_320\n      jump\t// in\n    tag_319:\n        /* \"#utility.yul\":9155:9157   */\n      0x40\n        /* \"#utility.yul\":9150:9153   */\n      dup3\n        /* \"#utility.yul\":9146:9158   */\n      add\n        /* \"#utility.yul\":9139:9158   */\n      swap1\n      pop\n        /* \"#utility.yul\":8798:9164   */\n      swap2\n      swap1\n      pop\n      jump\t// out\n        /* \"#utility.yul\":9170:9536   */\n    tag_321:\n        /* \"#utility.yul\":9312:9315   */\n      0x00\n        /* \"#utility.yul\":9333:9400   */\n      tag_323\n        /* \"#utility.yul\":9397:9399   */\n      0x0f\n        /* \"#utility.yul\":9392:9395   */\n      dup4\n        /* \"#utility.yul\":9333:9400   */\n      tag_303\n      jump\t// in\n    tag_323:\n        /* \"#utility.yul\":9326:9400   */\n      swap2\n      pop\n        /* \"#utility.yul\":9409:9502   */\n      tag_324\n        /* \"#utility.yul\":9498:9501   */\n      dup3\n        /* \"#utility.yul\":9409:9502   */\n      tag_325\n      jump\t// in\n    tag_324:\n        /* \"#utility.yul\":9527:9529   */\n      0x20\n        /* \"#utility.yul\":9522:9525   */\n      dup3\n        /* \"#utility.yul\":9518:9530   */\n      add\n        /* \"#utility.yul\":9511:9530   */\n      swap1\n      pop\n        /* \"#utility.yul\":9170:9536   */\n      swap2\n      swap1\n      pop\n      jump\t// out\n        /* \"#utility.yul\":9542:9908   */\n    tag_326:\n        /* \"#utility.yul\":9684:9687   */\n      0x00\n        /* \"#utility.yul\":9705:9772   */\n      tag_328\n        /* \"#utility.yul\":9769:9771   */\n      0x16\n        /* \"#utility.yul\":9764:9767   */\n      dup4\n        /* \"#utility.yul\":9705:9772   */\n      tag_303\n      jump\t// in\n    tag_328:\n        /* \"#utility.yul\":9698:9772   */\n      swap2\n      pop\n        /* \"#utility.yul\":9781:9874   */\n      tag_329\n        /* \"#utility.yul\":9870:9873   */\n      dup3\n        /* \"#utility.yul\":9781:9874   */\n      tag_330\n      jump\t// in\n    tag_329:\n        /* \"#utility.yul\":9899:9901   */\n      0x20\n        /* \"#utility.yul\":9894:9897   */\n      dup3\n        /* \"#utility.yul\":9890:9902   */\n      add\n        /* \"#utility.yul\":9883:9902   */\n      swap1\n      pop\n        /* \"#utility.yul\":9542:9908   */\n      swap2\n      swap1\n      pop\n      jump\t// out\n        /* \"#utility.yul\":9974:11908   */\n    tag_230:\n        /* \"#utility.yul\":10073:10076   */\n      0x00\n        /* \"#utility.yul\":10109:10115   */\n      0x0120\n        /* \"#utility.yul\":10104:10107   */\n      dup4\n        /* \"#utility.yul\":10100:10116   */\n      add\n        /* \"#utility.yul\":10196:10200   */\n      0x00\n        /* \"#utility.yul\":10189:10194   */\n      dup4\n        /* \"#utility.yul\":10185:10201   */\n      add\n        /* \"#utility.yul\":10179:10202   */\n      mload\n        /* \"#utility.yul\":10215:10278   */\n      tag_332\n        /* \"#utility.yul\":10272:10276   */\n      0x00\n        /* \"#utility.yul\":10267:10270   */\n      dup7\n        /* \"#utility.yul\":10263:10277   */\n      add\n        /* \"#utility.yul\":10249:10261   */\n      dup3\n        /* \"#utility.yul\":10215:10278   */\n      tag_333\n      jump\t// in\n    tag_332:\n        /* \"#utility.yul\":10126:10288   */\n      pop\n        /* \"#utility.yul\":10370:10374   */\n      0x20\n        /* \"#utility.yul\":10363:10368   */\n      dup4\n        /* \"#utility.yul\":10359:10375   */\n      add\n        /* \"#utility.yul\":10353:10376   */\n      mload\n        /* \"#utility.yul\":10423:10426   */\n      dup5\n        /* \"#utility.yul\":10417:10421   */\n      dup3\n        /* \"#utility.yul\":10413:10427   */\n      sub\n        /* \"#utility.yul\":10406:10410   */\n      0x20\n        /* \"#utility.yul\":10401:10404   */\n      dup7\n        /* \"#utility.yul\":10397:10411   */\n      add\n        /* \"#utility.yul\":10390:10428   */\n      mstore\n        /* \"#utility.yul\":10449:10522   */\n      tag_334\n        /* \"#utility.yul\":10517:10521   */\n      dup3\n        /* \"#utility.yul\":10503:10515   */\n      dup3\n        /* \"#utility.yul\":10449:10522   */\n      tag_278\n      jump\t// in\n    tag_334:\n        /* \"#utility.yul\":10441:10522   */\n      swap2\n      pop\n        /* \"#utility.yul\":10298:10533   */\n      pop\n        /* \"#utility.yul\":10622:10626   */\n      0x40\n        /* \"#utility.yul\":10615:10620   */\n      dup4\n        /* \"#utility.yul\":10611:10627   */\n      add\n        /* \"#utility.yul\":10605:10628   */\n      mload\n        /* \"#utility.yul\":10675:10678   */\n      dup5\n        /* \"#utility.yul\":10669:10673   */\n      dup3\n        /* \"#utility.yul\":10665:10679   */\n      sub\n        /* \"#utility.yul\":10658:10662   */\n      0x40\n        /* \"#utility.yul\":10653:10656   */\n      dup7\n        /* \"#utility.yul\":10649:10663   */\n      add\n        /* \"#utility.yul\":10642:10680   */\n      mstore\n        /* \"#utility.yul\":10701:10774   */\n      tag_335\n        /* \"#utility.yul\":10769:10773   */\n      dup3\n        /* \"#utility.yul\":10755:10767   */\n      dup3\n        /* \"#utility.yul\":10701:10774   */\n      tag_278\n      jump\t// in\n    tag_335:\n        /* \"#utility.yul\":10693:10774   */\n      swap2\n      pop\n        /* \"#utility.yul\":10543:10785   */\n      pop\n        /* \"#utility.yul\":10872:10876   */\n      0x60\n        /* \"#utility.yul\":10865:10870   */\n      dup4\n        /* \"#utility.yul\":10861:10877   */\n      add\n        /* \"#utility.yul\":10855:10878   */\n      mload\n        /* \"#utility.yul\":10891:10954   */\n      tag_336\n        /* \"#utility.yul\":10948:10952   */\n      0x60\n        /* \"#utility.yul\":10943:10946   */\n      dup7\n        /* \"#utility.yul\":10939:10953   */\n      add\n        /* \"#utility.yul\":10925:10937   */\n      dup3\n        /* \"#utility.yul\":10891:10954   */\n      tag_333\n      jump\t// in\n    tag_336:\n        /* \"#utility.yul\":10795:10964   */\n      pop\n        /* \"#utility.yul\":11049:11053   */\n      0x80\n        /* \"#utility.yul\":11042:11047   */\n      dup4\n        /* \"#utility.yul\":11038:11054   */\n      add\n        /* \"#utility.yul\":11032:11055   */\n      mload\n        /* \"#utility.yul\":11068:11131   */\n      tag_337\n        /* \"#utility.yul\":11125:11129   */\n      0x80\n        /* \"#utility.yul\":11120:11123   */\n      dup7\n        /* \"#utility.yul\":11116:11130   */\n      add\n        /* \"#utility.yul\":11102:11114   */\n      dup3\n        /* \"#utility.yul\":11068:11131   */\n      tag_333\n      jump\t// in\n    tag_337:\n        /* \"#utility.yul\":10974:11141   */\n      pop\n        /* \"#utility.yul\":11229:11233   */\n      0xa0\n        /* \"#utility.yul\":11222:11227   */\n      dup4\n        /* \"#utility.yul\":11218:11234   */\n      add\n        /* \"#utility.yul\":11212:11235   */\n      mload\n        /* \"#utility.yul\":11248:11311   */\n      tag_338\n        /* \"#utility.yul\":11305:11309   */\n      0xa0\n        /* \"#utility.yul\":11300:11303   */\n      dup7\n        /* \"#utility.yul\":11296:11310   */\n      add\n        /* \"#utility.yul\":11282:11294   */\n      dup3\n        /* \"#utility.yul\":11248:11311   */\n      tag_333\n      jump\t// in\n    tag_338:\n        /* \"#utility.yul\":11151:11321   */\n      pop\n        /* \"#utility.yul\":11412:11416   */\n      0xc0\n        /* \"#utility.yul\":11405:11410   */\n      dup4\n        /* \"#utility.yul\":11401:11417   */\n      add\n        /* \"#utility.yul\":11395:11418   */\n      mload\n        /* \"#utility.yul\":11431:11494   */\n      tag_339\n        /* \"#utility.yul\":11488:11492   */\n      0xc0\n        /* \"#utility.yul\":11483:11486   */\n      dup7\n        /* \"#utility.yul\":11479:11493   */\n      add\n        /* \"#utility.yul\":11465:11477   */\n      dup3\n        /* \"#utility.yul\":11431:11494   */\n      tag_333\n      jump\t// in\n    tag_339:\n        /* \"#utility.yul\":11331:11504   */\n      pop\n        /* \"#utility.yul\":11590:11594   */\n      0xe0\n        /* \"#utility.yul\":11583:11588   */\n      dup4\n        /* \"#utility.yul\":11579:11595   */\n      add\n        /* \"#utility.yul\":11573:11596   */\n      mload\n        /* \"#utility.yul\":11609:11666   */\n      tag_340\n        /* \"#utility.yul\":11660:11664   */\n      0xe0\n        /* \"#utility.yul\":11655:11658   */\n      dup7\n        /* \"#utility.yul\":11651:11665   */\n      add\n        /* \"#utility.yul\":11637:11649   */\n      dup3\n        /* \"#utility.yul\":11609:11666   */\n      tag_274\n      jump\t// in\n    tag_340:\n        /* \"#utility.yul\":11514:11676   */\n      pop\n        /* \"#utility.yul\":11769:11775   */\n      0x0100\n        /* \"#utility.yul\":11762:11767   */\n      dup4\n        /* \"#utility.yul\":11758:11776   */\n      add\n        /* \"#utility.yul\":11752:11777   */\n      mload\n        /* \"#utility.yul\":11790:11871   */\n      tag_341\n        /* \"#utility.yul\":11863:11869   */\n      0x0100\n        /* \"#utility.yul\":11858:11861   */\n      dup7\n        /* \"#utility.yul\":11854:11870   */\n      add\n        /* \"#utility.yul\":11840:11852   */\n      dup3\n        /* \"#utility.yul\":11790:11871   */\n      tag_235\n      jump\t// in\n    tag_341:\n        /* \"#utility.yul\":11686:11881   */\n      pop\n        /* \"#utility.yul\":11898:11902   */\n      dup1\n        /* \"#utility.yul\":11891:11902   */\n      swap2\n      pop\n        /* \"#utility.yul\":10078:11908   */\n      pop\n        /* \"#utility.yul\":9974:11908   */\n      swap3\n      swap2\n      pop\n      pop\n      jump\t// out\n        /* \"#utility.yul\":11974:13918   */\n    tag_342:\n        /* \"#utility.yul\":12083:12086   */\n      0x00\n        /* \"#utility.yul\":12119:12125   */\n      0x0120\n        /* \"#utility.yul\":12114:12117   */\n      dup4\n        /* \"#utility.yul\":12110:12126   */\n      add\n        /* \"#utility.yul\":12206:12210   */\n      0x00\n        /* \"#utility.yul\":12199:12204   */\n      dup4\n        /* \"#utility.yul\":12195:12211   */\n      add\n        /* \"#utility.yul\":12189:12212   */\n      mload\n        /* \"#utility.yul\":12225:12288   */\n      tag_344\n        /* \"#utility.yul\":12282:12286   */\n      0x00\n        /* \"#utility.yul\":12277:12280   */\n      dup7\n        /* \"#utility.yul\":12273:12287   */\n      add\n        /* \"#utility.yul\":12259:12271   */\n      dup3\n        /* \"#utility.yul\":12225:12288   */\n      tag_333\n      jump\t// in\n    tag_344:\n        /* \"#utility.yul\":12136:12298   */\n      pop\n        /* \"#utility.yul\":12380:12384   */\n      0x20\n        /* \"#utility.yul\":12373:12378   */\n      dup4\n        /* \"#utility.yul\":12369:12385   */\n      add\n        /* \"#utility.yul\":12363:12386   */\n      mload\n        /* \"#utility.yul\":12433:12436   */\n      dup5\n        /* \"#utility.yul\":12427:12431   */\n      dup3\n        /* \"#utility.yul\":12423:12437   */\n      sub\n        /* \"#utility.yul\":12416:12420   */\n      0x20\n        /* \"#utility.yul\":12411:12414   */\n      dup7\n        /* \"#utility.yul\":12407:12421   */\n      add\n        /* \"#utility.yul\":12400:12438   */\n      mstore\n        /* \"#utility.yul\":12459:12532   */\n      tag_345\n        /* \"#utility.yul\":12527:12531   */\n      dup3\n        /* \"#utility.yul\":12513:12525   */\n      dup3\n        /* \"#utility.yul\":12459:12532   */\n      tag_278\n      jump\t// in\n    tag_345:\n        /* \"#utility.yul\":12451:12532   */\n      swap2\n      pop\n        /* \"#utility.yul\":12308:12543   */\n      pop\n        /* \"#utility.yul\":12632:12636   */\n      0x40\n        /* \"#utility.yul\":12625:12630   */\n      dup4\n        /* \"#utility.yul\":12621:12637   */\n      add\n        /* \"#utility.yul\":12615:12638   */\n      mload\n        /* \"#utility.yul\":12685:12688   */\n      dup5\n        /* \"#utility.yul\":12679:12683   */\n      dup3\n        /* \"#utility.yul\":12675:12689   */\n      sub\n        /* \"#utility.yul\":12668:12672   */\n      0x40\n        /* \"#utility.yul\":12663:12666   */\n      dup7\n        /* \"#utility.yul\":12659:12673   */\n      add\n        /* \"#utility.yul\":12652:12690   */\n      mstore\n        /* \"#utility.yul\":12711:12784   */\n      tag_346\n        /* \"#utility.yul\":12779:12783   */\n      dup3\n        /* \"#utility.yul\":12765:12777   */\n      dup3\n        /* \"#utility.yul\":12711:12784   */\n      tag_278\n      jump\t// in\n    tag_346:\n        /* \"#utility.yul\":12703:12784   */\n      swap2\n      pop\n        /* \"#utility.yul\":12553:12795   */\n      pop\n        /* \"#utility.yul\":12882:12886   */\n      0x60\n        /* \"#utility.yul\":12875:12880   */\n      dup4\n        /* \"#utility.yul\":12871:12887   */\n      add\n        /* \"#utility.yul\":12865:12888   */\n      mload\n        /* \"#utility.yul\":12901:12964   */\n      tag_347\n        /* \"#utility.yul\":12958:12962   */\n      0x60\n        /* \"#utility.yul\":12953:12956   */\n      dup7\n        /* \"#utility.yul\":12949:12963   */\n      add\n        /* \"#utility.yul\":12935:12947   */\n      dup3\n        /* \"#utility.yul\":12901:12964   */\n      tag_333\n      jump\t// in\n    tag_347:\n        /* \"#utility.yul\":12805:12974   */\n      pop\n        /* \"#utility.yul\":13059:13063   */\n      0x80\n        /* \"#utility.yul\":13052:13057   */\n      dup4\n        /* \"#utility.yul\":13048:13064   */\n      add\n        /* \"#utility.yul\":13042:13065   */\n      mload\n        /* \"#utility.yul\":13078:13141   */\n      tag_348\n        /* \"#utility.yul\":13135:13139   */\n      0x80\n        /* \"#utility.yul\":13130:13133   */\n      dup7\n        /* \"#utility.yul\":13126:13140   */\n      add\n        /* \"#utility.yul\":13112:13124   */\n      dup3\n        /* \"#utility.yul\":13078:13141   */\n      tag_333\n      jump\t// in\n    tag_348:\n        /* \"#utility.yul\":12984:13151   */\n      pop\n        /* \"#utility.yul\":13239:13243   */\n      0xa0\n        /* \"#utility.yul\":13232:13237   */\n      dup4\n        /* \"#utility.yul\":13228:13244   */\n      add\n        /* \"#utility.yul\":13222:13245   */\n      mload\n        /* \"#utility.yul\":13258:13321   */\n      tag_349\n        /* \"#utility.yul\":13315:13319   */\n      0xa0\n        /* \"#utility.yul\":13310:13313   */\n      dup7\n        /* \"#utility.yul\":13306:13320   */\n      add\n        /* \"#utility.yul\":13292:13304   */\n      dup3\n        /* \"#utility.yul\":13258:13321   */\n      tag_333\n      jump\t// in\n    tag_349:\n        /* \"#utility.yul\":13161:13331   */\n      pop\n        /* \"#utility.yul\":13422:13426   */\n      0xc0\n        /* \"#utility.yul\":13415:13420   */\n      dup4\n        /* \"#utility.yul\":13411:13427   */\n      add\n        /* \"#utility.yul\":13405:13428   */\n      mload\n        /* \"#utility.yul\":13441:13504   */\n      tag_350\n        /* \"#utility.yul\":13498:13502   */\n      0xc0\n        /* \"#utility.yul\":13493:13496   */\n      dup7\n        /* \"#utility.yul\":13489:13503   */\n      add\n        /* \"#utility.yul\":13475:13487   */\n      dup3\n        /* \"#utility.yul\":13441:13504   */\n      tag_333\n      jump\t// in\n    tag_350:\n        /* \"#utility.yul\":13341:13514   */\n      pop\n        /* \"#utility.yul\":13600:13604   */\n      0xe0\n        /* \"#utility.yul\":13593:13598   */\n      dup4\n        /* \"#utility.yul\":13589:13605   */\n      add\n        /* \"#utility.yul\":13583:13606   */\n      mload\n        /* \"#utility.yul\":13619:13676   */\n      tag_351\n        /* \"#utility.yul\":13670:13674   */\n      0xe0\n        /* \"#utility.yul\":13665:13668   */\n      dup7\n        /* \"#utility.yul\":13661:13675   */\n      add\n        /* \"#utility.yul\":13647:13659   */\n      dup3\n        /* \"#utility.yul\":13619:13676   */\n      tag_274\n      jump\t// in\n    tag_351:\n        /* \"#utility.yul\":13524:13686   */\n      pop\n        /* \"#utility.yul\":13779:13785   */\n      0x0100\n        /* \"#utility.yul\":13772:13777   */\n      dup4\n        /* \"#utility.yul\":13768:13786   */\n      add\n        /* \"#utility.yul\":13762:13787   */\n      mload\n        /* \"#utility.yul\":13800:13881   */\n      tag_352\n        /* \"#utility.yul\":13873:13879   */\n      0x0100\n        /* \"#utility.yul\":13868:13871   */\n      dup7\n        /* \"#utility.yul\":13864:13880   */\n      add\n        /* \"#utility.yul\":13850:13862   */\n      dup3\n        /* \"#utility.yul\":13800:13881   */\n      tag_235\n      jump\t// in\n    tag_352:\n        /* \"#utility.yul\":13696:13891   */\n      pop\n        /* \"#utility.yul\":13908:13912   */\n      dup1\n        /* \"#utility.yul\":13901:13912   */\n      swap2\n      pop\n        /* \"#utility.yul\":12088:13918   */\n      pop\n        /* \"#utility.yul\":11974:13918   */\n      swap3\n      swap2\n      pop\n      pop\n      jump\t// out\n        /* \"#utility.yul\":13984:16451   */\n    tag_353:\n        /* \"#utility.yul\":14094:14097   */\n      0x00\n        /* \"#utility.yul\":14130:14136   */\n      0x0120\n        /* \"#utility.yul\":14125:14128   */\n      dup4\n        /* \"#utility.yul\":14121:14137   */\n      add\n        /* \"#utility.yul\":14163:14164   */\n      0x00\n        /* \"#utility.yul\":14236:14240   */\n      dup1\n        /* \"#utility.yul\":14229:14234   */\n      dup5\n        /* \"#utility.yul\":14225:14241   */\n      add\n        /* \"#utility.yul\":14219:14242   */\n      sload\n        /* \"#utility.yul\":14206:14242   */\n      swap1\n      pop\n        /* \"#utility.yul\":14275:14330   */\n      tag_355\n        /* \"#utility.yul\":14320:14329   */\n      dup2\n        /* \"#utility.yul\":14275:14330   */\n      tag_356\n      jump\t// in\n    tag_355:\n        /* \"#utility.yul\":14343:14406   */\n      tag_357\n        /* \"#utility.yul\":14400:14404   */\n      0x00\n        /* \"#utility.yul\":14395:14398   */\n      dup8\n        /* \"#utility.yul\":14391:14405   */\n      add\n        /* \"#utility.yul\":14377:14389   */\n      dup3\n        /* \"#utility.yul\":14343:14406   */\n      tag_333\n      jump\t// in\n    tag_357:\n        /* \"#utility.yul\":14174:14416   */\n      pop\n        /* \"#utility.yul\":14492:14496   */\n      0x01\n        /* \"#utility.yul\":14485:14490   */\n      dup5\n        /* \"#utility.yul\":14481:14497   */\n      add\n        /* \"#utility.yul\":14544:14547   */\n      dup6\n        /* \"#utility.yul\":14538:14542   */\n      dup4\n        /* \"#utility.yul\":14534:14548   */\n      sub\n        /* \"#utility.yul\":14527:14531   */\n      0x20\n        /* \"#utility.yul\":14522:14525   */\n      dup8\n        /* \"#utility.yul\":14518:14532   */\n      add\n        /* \"#utility.yul\":14511:14549   */\n      mstore\n        /* \"#utility.yul\":14570:14640   */\n      tag_358\n        /* \"#utility.yul\":14635:14639   */\n      dup4\n        /* \"#utility.yul\":14621:14633   */\n      dup3\n        /* \"#utility.yul\":14570:14640   */\n      tag_288\n      jump\t// in\n    tag_358:\n        /* \"#utility.yul\":14562:14640   */\n      swap3\n      pop\n        /* \"#utility.yul\":14426:14651   */\n      pop\n        /* \"#utility.yul\":14734:14738   */\n      0x02\n        /* \"#utility.yul\":14727:14732   */\n      dup5\n        /* \"#utility.yul\":14723:14739   */\n      add\n        /* \"#utility.yul\":14786:14789   */\n      dup6\n        /* \"#utility.yul\":14780:14784   */\n      dup4\n        /* \"#utility.yul\":14776:14790   */\n      sub\n        /* \"#utility.yul\":14769:14773   */\n      0x40\n        /* \"#utility.yul\":14764:14767   */\n      dup8\n        /* \"#utility.yul\":14760:14774   */\n      add\n        /* \"#utility.yul\":14753:14791   */\n      mstore\n        /* \"#utility.yul\":14812:14882   */\n      tag_359\n        /* \"#utility.yul\":14877:14881   */\n      dup4\n        /* \"#utility.yul\":14863:14875   */\n      dup3\n        /* \"#utility.yul\":14812:14882   */\n      tag_288\n      jump\t// in\n    tag_359:\n        /* \"#utility.yul\":14804:14882   */\n      swap3\n      pop\n        /* \"#utility.yul\":14661:14893   */\n      pop\n        /* \"#utility.yul\":14972:14976   */\n      0x03\n        /* \"#utility.yul\":14965:14970   */\n      dup5\n        /* \"#utility.yul\":14961:14977   */\n      add\n        /* \"#utility.yul\":14955:14978   */\n      sload\n        /* \"#utility.yul\":14942:14978   */\n      swap1\n      pop\n        /* \"#utility.yul\":15011:15066   */\n      tag_360\n        /* \"#utility.yul\":15056:15065   */\n      dup2\n        /* \"#utility.yul\":15011:15066   */\n      tag_356\n      jump\t// in\n    tag_360:\n        /* \"#utility.yul\":15079:15142   */\n      tag_361\n        /* \"#utility.yul\":15136:15140   */\n      0x60\n        /* \"#utility.yul\":15131:15134   */\n      dup8\n        /* \"#utility.yul\":15127:15141   */\n      add\n        /* \"#utility.yul\":15113:15125   */\n      dup3\n        /* \"#utility.yul\":15079:15142   */\n      tag_333\n      jump\t// in\n    tag_361:\n        /* \"#utility.yul\":14903:15152   */\n      pop\n        /* \"#utility.yul\":15229:15233   */\n      0x04\n        /* \"#utility.yul\":15222:15227   */\n      dup5\n        /* \"#utility.yul\":15218:15234   */\n      add\n        /* \"#utility.yul\":15212:15235   */\n      sload\n        /* \"#utility.yul\":15199:15235   */\n      swap1\n      pop\n        /* \"#utility.yul\":15268:15323   */\n      tag_362\n        /* \"#utility.yul\":15313:15322   */\n      dup2\n        /* \"#utility.yul\":15268:15323   */\n      tag_356\n      jump\t// in\n    tag_362:\n        /* \"#utility.yul\":15336:15399   */\n      tag_363\n        /* \"#utility.yul\":15393:15397   */\n      0x80\n        /* \"#utility.yul\":15388:15391   */\n      dup8\n        /* \"#utility.yul\":15384:15398   */\n      add\n        /* \"#utility.yul\":15370:15382   */\n      dup3\n        /* \"#utility.yul\":15336:15399   */\n      tag_333\n      jump\t// in\n    tag_363:\n        /* \"#utility.yul\":15162:15409   */\n      pop\n        /* \"#utility.yul\":15489:15493   */\n      0x05\n        /* \"#utility.yul\":15482:15487   */\n      dup5\n        /* \"#utility.yul\":15478:15494   */\n      add\n        /* \"#utility.yul\":15472:15495   */\n      sload\n        /* \"#utility.yul\":15459:15495   */\n      swap1\n      pop\n        /* \"#utility.yul\":15528:15583   */\n      tag_364\n        /* \"#utility.yul\":15573:15582   */\n      dup2\n        /* \"#utility.yul\":15528:15583   */\n      tag_356\n      jump\t// in\n    tag_364:\n        /* \"#utility.yul\":15596:15659   */\n      tag_365\n        /* \"#utility.yul\":15653:15657   */\n      0xa0\n        /* \"#utility.yul\":15648:15651   */\n      dup8\n        /* \"#utility.yul\":15644:15658   */\n      add\n        /* \"#utility.yul\":15630:15642   */\n      dup3\n        /* \"#utility.yul\":15596:15659   */\n      tag_333\n      jump\t// in\n    tag_365:\n        /* \"#utility.yul\":15419:15669   */\n      pop\n        /* \"#utility.yul\":15752:15756   */\n      0x06\n        /* \"#utility.yul\":15745:15750   */\n      dup5\n        /* \"#utility.yul\":15741:15757   */\n      add\n        /* \"#utility.yul\":15735:15758   */\n      sload\n        /* \"#utility.yul\":15722:15758   */\n      swap1\n      pop\n        /* \"#utility.yul\":15791:15846   */\n      tag_366\n        /* \"#utility.yul\":15836:15845   */\n      dup2\n        /* \"#utility.yul\":15791:15846   */\n      tag_356\n      jump\t// in\n    tag_366:\n        /* \"#utility.yul\":15859:15922   */\n      tag_367\n        /* \"#utility.yul\":15916:15920   */\n      0xc0\n        /* \"#utility.yul\":15911:15914   */\n      dup8\n        /* \"#utility.yul\":15907:15921   */\n      add\n        /* \"#utility.yul\":15893:15905   */\n      dup3\n        /* \"#utility.yul\":15859:15922   */\n      tag_333\n      jump\t// in\n    tag_367:\n        /* \"#utility.yul\":15679:15932   */\n      pop\n        /* \"#utility.yul\":16010:16014   */\n      0x07\n        /* \"#utility.yul\":16003:16008   */\n      dup5\n        /* \"#utility.yul\":15999:16015   */\n      add\n        /* \"#utility.yul\":15993:16016   */\n      sload\n        /* \"#utility.yul\":15980:16016   */\n      swap1\n      pop\n        /* \"#utility.yul\":16049:16101   */\n      tag_368\n        /* \"#utility.yul\":16091:16100   */\n      dup2\n        /* \"#utility.yul\":16049:16101   */\n      tag_369\n      jump\t// in\n    tag_368:\n        /* \"#utility.yul\":16114:16171   */\n      tag_370\n        /* \"#utility.yul\":16165:16169   */\n      0xe0\n        /* \"#utility.yul\":16160:16163   */\n      dup8\n        /* \"#utility.yul\":16156:16170   */\n      add\n        /* \"#utility.yul\":16142:16154   */\n      dup3\n        /* \"#utility.yul\":16114:16171   */\n      tag_274\n      jump\t// in\n    tag_370:\n        /* \"#utility.yul\":15942:16181   */\n      pop\n        /* \"#utility.yul\":16257:16320   */\n      tag_371\n        /* \"#utility.yul\":16310:16319   */\n      dup2\n        /* \"#utility.yul\":16257:16320   */\n      tag_372\n      jump\t// in\n    tag_371:\n        /* \"#utility.yul\":16333:16414   */\n      tag_373\n        /* \"#utility.yul\":16406:16412   */\n      0x0100\n        /* \"#utility.yul\":16401:16404   */\n      dup8\n        /* \"#utility.yul\":16397:16413   */\n      add\n        /* \"#utility.yul\":16383:16395   */\n      dup3\n        /* \"#utility.yul\":16333:16414   */\n      tag_235\n      jump\t// in\n    tag_373:\n        /* \"#utility.yul\":16191:16424   */\n      pop\n        /* \"#utility.yul\":16441:16445   */\n      dup2\n        /* \"#utility.yul\":16434:16445   */\n      swap3\n      pop\n        /* \"#utility.yul\":14099:16451   */\n      pop\n      pop\n        /* \"#utility.yul\":13984:16451   */\n      swap3\n      swap2\n      pop\n      pop\n      jump\t// out\n        /* \"#utility.yul\":16529:17581   */\n    tag_234:\n        /* \"#utility.yul\":16668:16672   */\n      0xa0\n        /* \"#utility.yul\":16663:16666   */\n      dup3\n        /* \"#utility.yul\":16659:16673   */\n      add\n        /* \"#utility.yul\":16753:16757   */\n      0x00\n        /* \"#utility.yul\":16746:16751   */\n      dup3\n        /* \"#utility.yul\":16742:16758   */\n      add\n        /* \"#utility.yul\":16736:16759   */\n      mload\n        /* \"#utility.yul\":16772:16835   */\n      tag_375\n        /* \"#utility.yul\":16829:16833   */\n      0x00\n        /* \"#utility.yul\":16824:16827   */\n      dup6\n        /* \"#utility.yul\":16820:16834   */\n      add\n        /* \"#utility.yul\":16806:16818   */\n      dup3\n        /* \"#utility.yul\":16772:16835   */\n      tag_333\n      jump\t// in\n    tag_375:\n        /* \"#utility.yul\":16683:16845   */\n      pop\n        /* \"#utility.yul\":16929:16933   */\n      0x20\n        /* \"#utility.yul\":16922:16927   */\n      dup3\n        /* \"#utility.yul\":16918:16934   */\n      add\n        /* \"#utility.yul\":16912:16935   */\n      mload\n        /* \"#utility.yul\":16948:17011   */\n      tag_376\n        /* \"#utility.yul\":17005:17009   */\n      0x20\n        /* \"#utility.yul\":17000:17003   */\n      dup6\n        /* \"#utility.yul\":16996:17010   */\n      add\n        /* \"#utility.yul\":16982:16994   */\n      dup3\n        /* \"#utility.yul\":16948:17011   */\n      tag_333\n      jump\t// in\n    tag_376:\n        /* \"#utility.yul\":16855:17021   */\n      pop\n        /* \"#utility.yul\":17114:17118   */\n      0x40\n        /* \"#utility.yul\":17107:17112   */\n      dup3\n        /* \"#utility.yul\":17103:17119   */\n      add\n        /* \"#utility.yul\":17097:17120   */\n      mload\n        /* \"#utility.yul\":17133:17196   */\n      tag_377\n        /* \"#utility.yul\":17190:17194   */\n      0x40\n        /* \"#utility.yul\":17185:17188   */\n      dup6\n        /* \"#utility.yul\":17181:17195   */\n      add\n        /* \"#utility.yul\":17167:17179   */\n      dup3\n        /* \"#utility.yul\":17133:17196   */\n      tag_239\n      jump\t// in\n    tag_377:\n        /* \"#utility.yul\":17031:17206   */\n      pop\n        /* \"#utility.yul\":17298:17302   */\n      0x60\n        /* \"#utility.yul\":17291:17296   */\n      dup3\n        /* \"#utility.yul\":17287:17303   */\n      add\n        /* \"#utility.yul\":17281:17304   */\n      mload\n        /* \"#utility.yul\":17317:17380   */\n      tag_378\n        /* \"#utility.yul\":17374:17378   */\n      0x60\n        /* \"#utility.yul\":17369:17372   */\n      dup6\n        /* \"#utility.yul\":17365:17379   */\n      add\n        /* \"#utility.yul\":17351:17363   */\n      dup3\n        /* \"#utility.yul\":17317:17380   */\n      tag_333\n      jump\t// in\n    tag_378:\n        /* \"#utility.yul\":17216:17390   */\n      pop\n        /* \"#utility.yul\":17482:17486   */\n      0x80\n        /* \"#utility.yul\":17475:17480   */\n      dup3\n        /* \"#utility.yul\":17471:17487   */\n      add\n        /* \"#utility.yul\":17465:17488   */\n      mload\n        /* \"#utility.yul\":17501:17564   */\n      tag_379\n        /* \"#utility.yul\":17558:17562   */\n      0x80\n        /* \"#utility.yul\":17553:17556   */\n      dup6\n        /* \"#utility.yul\":17549:17563   */\n      add\n        /* \"#utility.yul\":17535:17547   */\n      dup3\n        /* \"#utility.yul\":17501:17564   */\n      tag_333\n      jump\t// in\n    tag_379:\n        /* \"#utility.yul\":17400:17574   */\n      pop\n        /* \"#utility.yul\":16637:17581   */\n      pop\n        /* \"#utility.yul\":16529:17581   */\n      pop\n      pop\n      jump\t// out\n        /* \"#utility.yul\":17659:19145   */\n    tag_380:\n        /* \"#utility.yul\":17805:17809   */\n      0xa0\n        /* \"#utility.yul\":17800:17803   */\n      dup3\n        /* \"#utility.yul\":17796:17810   */\n      add\n        /* \"#utility.yul\":17836:17837   */\n      0x00\n        /* \"#utility.yul\":17909:17913   */\n      dup1\n        /* \"#utility.yul\":17902:17907   */\n      dup4\n        /* \"#utility.yul\":17898:17914   */\n      add\n        /* \"#utility.yul\":17892:17915   */\n      sload\n        /* \"#utility.yul\":17879:17915   */\n      swap1\n      pop\n        /* \"#utility.yul\":17948:18003   */\n      tag_382\n        /* \"#utility.yul\":17993:18002   */\n      dup2\n        /* \"#utility.yul\":17948:18003   */\n      tag_356\n      jump\t// in\n    tag_382:\n        /* \"#utility.yul\":18016:18079   */\n      tag_383\n        /* \"#utility.yul\":18073:18077   */\n      0x00\n        /* \"#utility.yul\":18068:18071   */\n      dup7\n        /* \"#utility.yul\":18064:18078   */\n      add\n        /* \"#utility.yul\":18050:18062   */\n      dup3\n        /* \"#utility.yul\":18016:18079   */\n      tag_333\n      jump\t// in\n    tag_383:\n        /* \"#utility.yul\":17847:18089   */\n      pop\n        /* \"#utility.yul\":18165:18169   */\n      0x01\n        /* \"#utility.yul\":18158:18163   */\n      dup4\n        /* \"#utility.yul\":18154:18170   */\n      add\n        /* \"#utility.yul\":18148:18171   */\n      sload\n        /* \"#utility.yul\":18135:18171   */\n      swap1\n      pop\n        /* \"#utility.yul\":18204:18259   */\n      tag_384\n        /* \"#utility.yul\":18249:18258   */\n      dup2\n        /* \"#utility.yul\":18204:18259   */\n      tag_356\n      jump\t// in\n    tag_384:\n        /* \"#utility.yul\":18272:18335   */\n      tag_385\n        /* \"#utility.yul\":18329:18333   */\n      0x20\n        /* \"#utility.yul\":18324:18327   */\n      dup7\n        /* \"#utility.yul\":18320:18334   */\n      add\n        /* \"#utility.yul\":18306:18318   */\n      dup3\n        /* \"#utility.yul\":18272:18335   */\n      tag_333\n      jump\t// in\n    tag_385:\n        /* \"#utility.yul\":18099:18345   */\n      pop\n        /* \"#utility.yul\":18430:18434   */\n      0x02\n        /* \"#utility.yul\":18423:18428   */\n      dup4\n        /* \"#utility.yul\":18419:18435   */\n      add\n        /* \"#utility.yul\":18413:18436   */\n      sload\n        /* \"#utility.yul\":18400:18436   */\n      swap1\n      pop\n        /* \"#utility.yul\":18469:18524   */\n      tag_386\n        /* \"#utility.yul\":18514:18523   */\n      dup2\n        /* \"#utility.yul\":18469:18524   */\n      tag_387\n      jump\t// in\n    tag_386:\n        /* \"#utility.yul\":18537:18600   */\n      tag_388\n        /* \"#utility.yul\":18594:18598   */\n      0x40\n        /* \"#utility.yul\":18589:18592   */\n      dup7\n        /* \"#utility.yul\":18585:18599   */\n      add\n        /* \"#utility.yul\":18571:18583   */\n      dup3\n        /* \"#utility.yul\":18537:18600   */\n      tag_239\n      jump\t// in\n    tag_388:\n        /* \"#utility.yul\":18355:18610   */\n      pop\n        /* \"#utility.yul\":18694:18698   */\n      0x03\n        /* \"#utility.yul\":18687:18692   */\n      dup4\n        /* \"#utility.yul\":18683:18699   */\n      add\n        /* \"#utility.yul\":18677:18700   */\n      sload\n        /* \"#utility.yul\":18664:18700   */\n      swap1\n      pop\n        /* \"#utility.yul\":18733:18788   */\n      tag_389\n        /* \"#utility.yul\":18778:18787   */\n      dup2\n        /* \"#utility.yul\":18733:18788   */\n      tag_356\n      jump\t// in\n    tag_389:\n        /* \"#utility.yul\":18801:18864   */\n      tag_390\n        /* \"#utility.yul\":18858:18862   */\n      0x60\n        /* \"#utility.yul\":18853:18856   */\n      dup7\n        /* \"#utility.yul\":18849:18863   */\n      add\n        /* \"#utility.yul\":18835:18847   */\n      dup3\n        /* \"#utility.yul\":18801:18864   */\n      tag_333\n      jump\t// in\n    tag_390:\n        /* \"#utility.yul\":18620:18874   */\n      pop\n        /* \"#utility.yul\":18958:18962   */\n      0x04\n        /* \"#utility.yul\":18951:18956   */\n      dup4\n        /* \"#utility.yul\":18947:18963   */\n      add\n        /* \"#utility.yul\":18941:18964   */\n      sload\n        /* \"#utility.yul\":18928:18964   */\n      swap1\n      pop\n        /* \"#utility.yul\":18997:19052   */\n      tag_391\n        /* \"#utility.yul\":19042:19051   */\n      dup2\n        /* \"#utility.yul\":18997:19052   */\n      tag_356\n      jump\t// in\n    tag_391:\n        /* \"#utility.yul\":19065:19128   */\n      tag_392\n        /* \"#utility.yul\":19122:19126   */\n      0x80\n        /* \"#utility.yul\":19117:19120   */\n      dup7\n        /* \"#utility.yul\":19113:19127   */\n      add\n        /* \"#utility.yul\":19099:19111   */\n      dup3\n        /* \"#utility.yul\":19065:19128   */\n      tag_333\n      jump\t// in\n    tag_392:\n        /* \"#utility.yul\":18884:19138   */\n      pop\n        /* \"#utility.yul\":17774:19145   */\n      pop\n      pop\n        /* \"#utility.yul\":17659:19145   */\n      pop\n      pop\n      jump\t// out\n        /* \"#utility.yul\":19151:19259   */\n    tag_333:\n        /* \"#utility.yul\":19228:19252   */\n      tag_394\n        /* \"#utility.yul\":19246:19251   */\n      dup2\n        /* \"#utility.yul\":19228:19252   */\n      tag_395\n      jump\t// in\n    tag_394:\n        /* \"#utility.yul\":19223:19226   */\n      dup3\n        /* \"#utility.yul\":19216:19253   */\n      mstore\n        /* \"#utility.yul\":19151:19259   */\n      pop\n      pop\n      jump\t// out\n        /* \"#utility.yul\":19265:19487   */\n    tag_33:\n        /* \"#utility.yul\":19358:19362   */\n      0x00\n        /* \"#utility.yul\":19396:19398   */\n      0x20\n        /* \"#utility.yul\":19385:19394   */\n      dup3\n        /* \"#utility.yul\":19381:19399   */\n      add\n        /* \"#utility.yul\":19373:19399   */\n      swap1\n      pop\n        /* \"#utility.yul\":19409:19480   */\n      tag_397\n        /* \"#utility.yul\":19477:19478   */\n      0x00\n        /* \"#utility.yul\":19466:19475   */\n      dup4\n        /* \"#utility.yul\":19462:19479   */\n      add\n        /* \"#utility.yul\":19453:19459   */\n      dup5\n        /* \"#utility.yul\":19409:19480   */\n      tag_243\n      jump\t// in\n    tag_397:\n        /* \"#utility.yul\":19265:19487   */\n      swap3\n      swap2\n      pop\n      pop\n      jump\t// out\n        /* \"#utility.yul\":19493:19946   */\n    tag_22:\n        /* \"#utility.yul\":19676:19680   */\n      0x00\n        /* \"#utility.yul\":19714:19716   */\n      0x20\n        /* \"#utility.yul\":19703:19712   */\n      dup3\n        /* \"#utility.yul\":19699:19717   */\n      add\n        /* \"#utility.yul\":19691:19717   */\n      swap1\n      pop\n        /* \"#utility.yul\":19763:19772   */\n      dup2\n        /* \"#utility.yul\":19757:19761   */\n      dup2\n        /* \"#utility.yul\":19753:19773   */\n      sub\n        /* \"#utility.yul\":19749:19750   */\n      0x00\n        /* \"#utility.yul\":19738:19747   */\n      dup4\n        /* \"#utility.yul\":19734:19751   */\n      add\n        /* \"#utility.yul\":19727:19774   */\n      mstore\n        /* \"#utility.yul\":19791:19939   */\n      tag_399\n        /* \"#utility.yul\":19934:19938   */\n      dup2\n        /* \"#utility.yul\":19925:19931   */\n      dup5\n        /* \"#utility.yul\":19791:19939   */\n      tag_246\n      jump\t// in\n    tag_399:\n        /* \"#utility.yul\":19783:19939   */\n      swap1\n      pop\n        /* \"#utility.yul\":19493:19946   */\n      swap3\n      swap2\n      pop\n      pop\n      jump\t// out\n        /* \"#utility.yul\":19952:20429   */\n    tag_28:\n        /* \"#utility.yul\":20147:20151   */\n      0x00\n        /* \"#utility.yul\":20185:20187   */\n      0x20\n        /* \"#utility.yul\":20174:20183   */\n      dup3\n        /* \"#utility.yul\":20170:20188   */\n      add\n        /* \"#utility.yul\":20162:20188   */\n      swap1\n      pop\n        /* \"#utility.yul\":20234:20243   */\n      dup2\n        /* \"#utility.yul\":20228:20232   */\n      dup2\n        /* \"#utility.yul\":20224:20244   */\n      sub\n        /* \"#utility.yul\":20220:20221   */\n      0x00\n        /* \"#utility.yul\":20209:20218   */\n      dup4\n        /* \"#utility.yul\":20205:20222   */\n      add\n        /* \"#utility.yul\":20198:20245   */\n      mstore\n        /* \"#utility.yul\":20262:20422   */\n      tag_401\n        /* \"#utility.yul\":20417:20421   */\n      dup2\n        /* \"#utility.yul\":20408:20414   */\n      dup5\n        /* \"#utility.yul\":20262:20422   */\n      tag_260\n      jump\t// in\n    tag_401:\n        /* \"#utility.yul\":20254:20422   */\n      swap1\n      pop\n        /* \"#utility.yul\":19952:20429   */\n      swap3\n      swap2\n      pop\n      pop\n      jump\t// out\n        /* \"#utility.yul\":20435:20854   */\n    tag_136:\n        /* \"#utility.yul\":20601:20605   */\n      0x00\n        /* \"#utility.yul\":20639:20641   */\n      0x20\n        /* \"#utility.yul\":20628:20637   */\n      dup3\n        /* \"#utility.yul\":20624:20642   */\n      add\n        /* \"#utility.yul\":20616:20642   */\n      swap1\n      pop\n        /* \"#utility.yul\":20688:20697   */\n      dup2\n        /* \"#utility.yul\":20682:20686   */\n      dup2\n        /* \"#utility.yul\":20678:20698   */\n      sub\n        /* \"#utility.yul\":20674:20675   */\n      0x00\n        /* \"#utility.yul\":20663:20672   */\n      dup4\n        /* \"#utility.yul\":20659:20676   */\n      add\n        /* \"#utility.yul\":20652:20699   */\n      mstore\n        /* \"#utility.yul\":20716:20847   */\n      tag_403\n        /* \"#utility.yul\":20842:20846   */\n      dup2\n        /* \"#utility.yul\":20716:20847   */\n      tag_300\n      jump\t// in\n    tag_403:\n        /* \"#utility.yul\":20708:20847   */\n      swap1\n      pop\n        /* \"#utility.yul\":20435:20854   */\n      swap2\n      swap1\n      pop\n      jump\t// out\n        /* \"#utility.yul\":20860:21279   */\n    tag_133:\n        /* \"#utility.yul\":21026:21030   */\n      0x00\n        /* \"#utility.yul\":21064:21066   */\n      0x20\n        /* \"#utility.yul\":21053:21062   */\n      dup3\n        /* \"#utility.yul\":21049:21067   */\n      add\n        /* \"#utility.yul\":21041:21067   */\n      swap1\n      pop\n        /* \"#utility.yul\":21113:21122   */\n      dup2\n        /* \"#utility.yul\":21107:21111   */\n      dup2\n        /* \"#utility.yul\":21103:21123   */\n      sub\n        /* \"#utility.yul\":21099:21100   */\n      0x00\n        /* \"#utility.yul\":21088:21097   */\n      dup4\n        /* \"#utility.yul\":21084:21101   */\n      add\n        /* \"#utility.yul\":21077:21124   */\n      mstore\n        /* \"#utility.yul\":21141:21272   */\n      tag_405\n        /* \"#utility.yul\":21267:21271   */\n      dup2\n        /* \"#utility.yul\":21141:21272   */\n      tag_306\n      jump\t// in\n    tag_405:\n        /* \"#utility.yul\":21133:21272   */\n      swap1\n      pop\n        /* \"#utility.yul\":20860:21279   */\n      swap2\n      swap1\n      pop\n      jump\t// out\n        /* \"#utility.yul\":21285:21704   */\n    tag_147:\n        /* \"#utility.yul\":21451:21455   */\n      0x00\n        /* \"#utility.yul\":21489:21491   */\n      0x20\n        /* \"#utility.yul\":21478:21487   */\n      dup3\n        /* \"#utility.yul\":21474:21492   */\n      add\n        /* \"#utility.yul\":21466:21492   */\n      swap1\n      pop\n        /* \"#utility.yul\":21538:21547   */\n      dup2\n        /* \"#utility.yul\":21532:21536   */\n      dup2\n        /* \"#utility.yul\":21528:21548   */\n      sub\n        /* \"#utility.yul\":21524:21525   */\n      0x00\n        /* \"#utility.yul\":21513:21522   */\n      dup4\n        /* \"#utility.yul\":21509:21526   */\n      add\n        /* \"#utility.yul\":21502:21549   */\n      mstore\n        /* \"#utility.yul\":21566:21697   */\n      tag_407\n        /* \"#utility.yul\":21692:21696   */\n      dup2\n        /* \"#utility.yul\":21566:21697   */\n      tag_311\n      jump\t// in\n    tag_407:\n        /* \"#utility.yul\":21558:21697   */\n      swap1\n      pop\n        /* \"#utility.yul\":21285:21704   */\n      swap2\n      swap1\n      pop\n      jump\t// out\n        /* \"#utility.yul\":21710:22129   */\n    tag_122:\n        /* \"#utility.yul\":21876:21880   */\n      0x00\n        /* \"#utility.yul\":21914:21916   */\n      0x20\n        /* \"#utility.yul\":21903:21912   */\n      dup3\n        /* \"#utility.yul\":21899:21917   */\n      add\n        /* \"#utility.yul\":21891:21917   */\n      swap1\n      pop\n        /* \"#utility.yul\":21963:21972   */\n      dup2\n        /* \"#utility.yul\":21957:21961   */\n      dup2\n        /* \"#utility.yul\":21953:21973   */\n      sub\n        /* \"#utility.yul\":21949:21950   */\n      0x00\n        /* \"#utility.yul\":21938:21947   */\n      dup4\n        /* \"#utility.yul\":21934:21951   */\n      add\n        /* \"#utility.yul\":21927:21974   */\n      mstore\n        /* \"#utility.yul\":21991:22122   */\n      tag_409\n        /* \"#utility.yul\":22117:22121   */\n      dup2\n        /* \"#utility.yul\":21991:22122   */\n      tag_316\n      jump\t// in\n    tag_409:\n        /* \"#utility.yul\":21983:22122   */\n      swap1\n      pop\n        /* \"#utility.yul\":21710:22129   */\n      swap2\n      swap1\n      pop\n      jump\t// out\n        /* \"#utility.yul\":22135:22554   */\n    tag_118:\n        /* \"#utility.yul\":22301:22305   */\n      0x00\n        /* \"#utility.yul\":22339:22341   */\n      0x20\n        /* \"#utility.yul\":22328:22337   */\n      dup3\n        /* \"#utility.yul\":22324:22342   */\n      add\n        /* \"#utility.yul\":22316:22342   */\n      swap1\n      pop\n        /* \"#utility.yul\":22388:22397   */\n      dup2\n        /* \"#utility.yul\":22382:22386   */\n      dup2\n        /* \"#utility.yul\":22378:22398   */\n      sub\n        /* \"#utility.yul\":22374:22375   */\n      0x00\n        /* \"#utility.yul\":22363:22372   */\n      dup4\n        /* \"#utility.yul\":22359:22376   */\n      add\n        /* \"#utility.yul\":22352:22399   */\n      mstore\n        /* \"#utility.yul\":22416:22547   */\n      tag_411\n        /* \"#utility.yul\":22542:22546   */\n      dup2\n        /* \"#utility.yul\":22416:22547   */\n      tag_321\n      jump\t// in\n    tag_411:\n        /* \"#utility.yul\":22408:22547   */\n      swap1\n      pop\n        /* \"#utility.yul\":22135:22554   */\n      swap2\n      swap1\n      pop\n      jump\t// out\n        /* \"#utility.yul\":22560:22979   */\n    tag_114:\n        /* \"#utility.yul\":22726:22730   */\n      0x00\n        /* \"#utility.yul\":22764:22766   */\n      0x20\n        /* \"#utility.yul\":22753:22762   */\n      dup3\n        /* \"#utility.yul\":22749:22767   */\n      add\n        /* \"#utility.yul\":22741:22767   */\n      swap1\n      pop\n        /* \"#utility.yul\":22813:22822   */\n      dup2\n        /* \"#utility.yul\":22807:22811   */\n      dup2\n        /* \"#utility.yul\":22803:22823   */\n      sub\n        /* \"#utility.yul\":22799:22800   */\n      0x00\n        /* \"#utility.yul\":22788:22797   */\n      dup4\n        /* \"#utility.yul\":22784:22801   */\n      add\n        /* \"#utility.yul\":22777:22824   */\n      mstore\n        /* \"#utility.yul\":22841:22972   */\n      tag_413\n        /* \"#utility.yul\":22967:22971   */\n      dup2\n        /* \"#utility.yul\":22841:22972   */\n      tag_326\n      jump\t// in\n    tag_413:\n        /* \"#utility.yul\":22833:22972   */\n      swap1\n      pop\n        /* \"#utility.yul\":22560:22979   */\n      swap2\n      swap1\n      pop\n      jump\t// out\n        /* \"#utility.yul\":22985:23338   */\n    tag_17:\n        /* \"#utility.yul\":23118:23122   */\n      0x00\n        /* \"#utility.yul\":23156:23158   */\n      0x20\n        /* \"#utility.yul\":23145:23154   */\n      dup3\n        /* \"#utility.yul\":23141:23159   */\n      add\n        /* \"#utility.yul\":23133:23159   */\n      swap1\n      pop\n        /* \"#utility.yul\":23205:23214   */\n      dup2\n        /* \"#utility.yul\":23199:23203   */\n      dup2\n        /* \"#utility.yul\":23195:23215   */\n      sub\n        /* \"#utility.yul\":23191:23192   */\n      0x00\n        /* \"#utility.yul\":23180:23189   */\n      dup4\n        /* \"#utility.yul\":23176:23193   */\n      add\n        /* \"#utility.yul\":23169:23216   */\n      mstore\n        /* \"#utility.yul\":23233:23331   */\n      tag_415\n        /* \"#utility.yul\":23326:23330   */\n      dup2\n        /* \"#utility.yul\":23317:23323   */\n      dup5\n        /* \"#utility.yul\":23233:23331   */\n      tag_342\n      jump\t// in\n    tag_415:\n        /* \"#utility.yul\":23225:23331   */\n      swap1\n      pop\n        /* \"#utility.yul\":22985:23338   */\n      swap3\n      swap2\n      pop\n      pop\n      jump\t// out\n        /* \"#utility.yul\":23344:23699   */\n    tag_126:\n        /* \"#utility.yul\":23478:23482   */\n      0x00\n        /* \"#utility.yul\":23516:23518   */\n      0x20\n        /* \"#utility.yul\":23505:23514   */\n      dup3\n        /* \"#utility.yul\":23501:23519   */\n      add\n        /* \"#utility.yul\":23493:23519   */\n      swap1\n      pop\n        /* \"#utility.yul\":23565:23574   */\n      dup2\n        /* \"#utility.yul\":23559:23563   */\n      dup2\n        /* \"#utility.yul\":23555:23575   */\n      sub\n        /* \"#utility.yul\":23551:23552   */\n      0x00\n        /* \"#utility.yul\":23540:23549   */\n      dup4\n        /* \"#utility.yul\":23536:23553   */\n      add\n        /* \"#utility.yul\":23529:23576   */\n      mstore\n        /* \"#utility.yul\":23593:23692   */\n      tag_417\n        /* \"#utility.yul\":23687:23691   */\n      dup2\n        /* \"#utility.yul\":23678:23684   */\n      dup5\n        /* \"#utility.yul\":23593:23692   */\n      tag_353\n      jump\t// in\n    tag_417:\n        /* \"#utility.yul\":23585:23692   */\n      swap1\n      pop\n        /* \"#utility.yul\":23344:23699   */\n      swap3\n      swap2\n      pop\n      pop\n      jump\t// out\n        /* \"#utility.yul\":23705:24026   */\n    tag_158:\n        /* \"#utility.yul\":23847:23851   */\n      0x00\n        /* \"#utility.yul\":23885:23888   */\n      0xa0\n        /* \"#utility.yul\":23874:23883   */\n      dup3\n        /* \"#utility.yul\":23870:23889   */\n      add\n        /* \"#utility.yul\":23862:23889   */\n      swap1\n      pop\n        /* \"#utility.yul\":23899:24019   */\n      tag_419\n        /* \"#utility.yul\":24016:24017   */\n      0x00\n        /* \"#utility.yul\":24005:24014   */\n      dup4\n        /* \"#utility.yul\":24001:24018   */\n      add\n        /* \"#utility.yul\":23992:23998   */\n      dup5\n        /* \"#utility.yul\":23899:24019   */\n      tag_380\n      jump\t// in\n    tag_419:\n        /* \"#utility.yul\":23705:24026   */\n      swap3\n      swap2\n      pop\n      pop\n      jump\t// out\n        /* \"#utility.yul\":24032:24161   */\n    tag_180:\n        /* \"#utility.yul\":24066:24072   */\n      0x00\n        /* \"#utility.yul\":24093:24113   */\n      tag_421\n      tag_422\n      jump\t// in\n    tag_421:\n        /* \"#utility.yul\":24083:24113   */\n      swap1\n      pop\n        /* \"#utility.yul\":24122:24155   */\n      tag_423\n        /* \"#utility.yul\":24150:24154   */\n      dup3\n        /* \"#utility.yul\":24142:24148   */\n      dup3\n        /* \"#utility.yul\":24122:24155   */\n      tag_424\n      jump\t// in\n    tag_423:\n        /* \"#utility.yul\":24032:24161   */\n      swap2\n      swap1\n      pop\n      jump\t// out\n        /* \"#utility.yul\":24167:24242   */\n    tag_422:\n        /* \"#utility.yul\":24200:24206   */\n      0x00\n        /* \"#utility.yul\":24233:24235   */\n      0x40\n        /* \"#utility.yul\":24227:24236   */\n      mload\n        /* \"#utility.yul\":24217:24236   */\n      swap1\n      pop\n        /* \"#utility.yul\":24167:24242   */\n      swap1\n      jump\t// out\n        /* \"#utility.yul\":24248:24556   */\n    tag_179:\n        /* \"#utility.yul\":24310:24314   */\n      0x00\n        /* \"#utility.yul\":24400:24418   */\n      0xffffffffffffffff\n        /* \"#utility.yul\":24392:24398   */\n      dup3\n        /* \"#utility.yul\":24389:24419   */\n      gt\n        /* \"#utility.yul\":24386:24442   */\n      iszero\n      tag_427\n      jumpi\n        /* \"#utility.yul\":24422:24440   */\n      tag_428\n      tag_68\n      jump\t// in\n    tag_428:\n        /* \"#utility.yul\":24386:24442   */\n    tag_427:\n        /* \"#utility.yul\":24460:24489   */\n      tag_429\n        /* \"#utility.yul\":24482:24488   */\n      dup3\n        /* \"#utility.yul\":24460:24489   */\n      tag_287\n      jump\t// in\n    tag_429:\n        /* \"#utility.yul\":24452:24489   */\n      swap1\n      pop\n        /* \"#utility.yul\":24544:24548   */\n      0x20\n        /* \"#utility.yul\":24538:24542   */\n      dup2\n        /* \"#utility.yul\":24534:24549   */\n      add\n        /* \"#utility.yul\":24526:24549   */\n      swap1\n      pop\n        /* \"#utility.yul\":24248:24556   */\n      swap2\n      swap1\n      pop\n      jump\t// out\n        /* \"#utility.yul\":24562:24714   */\n    tag_253:\n        /* \"#utility.yul\":24649:24653   */\n      0x00\n        /* \"#utility.yul\":24672:24675   */\n      dup2\n        /* \"#utility.yul\":24664:24675   */\n      swap1\n      pop\n        /* \"#utility.yul\":24702:24706   */\n      0x20\n        /* \"#utility.yul\":24697:24700   */\n      dup3\n        /* \"#utility.yul\":24693:24707   */\n      add\n        /* \"#utility.yul\":24685:24707   */\n      swap1\n      pop\n        /* \"#utility.yul\":24562:24714   */\n      swap2\n      swap1\n      pop\n      jump\t// out\n        /* \"#utility.yul\":24720:24878   */\n    tag_267:\n        /* \"#utility.yul\":24813:24817   */\n      0x00\n        /* \"#utility.yul\":24836:24839   */\n      dup2\n        /* \"#utility.yul\":24828:24839   */\n      swap1\n      pop\n        /* \"#utility.yul\":24866:24870   */\n      0x20\n        /* \"#utility.yul\":24861:24864   */\n      dup3\n        /* \"#utility.yul\":24857:24871   */\n      add\n        /* \"#utility.yul\":24849:24871   */\n      swap1\n      pop\n        /* \"#utility.yul\":24720:24878   */\n      swap2\n      swap1\n      pop\n      jump\t// out\n        /* \"#utility.yul\":24884:25025   */\n    tag_296:\n        /* \"#utility.yul\":24933:24937   */\n      0x00\n        /* \"#utility.yul\":24956:24959   */\n      dup2\n        /* \"#utility.yul\":24948:24959   */\n      swap1\n      pop\n        /* \"#utility.yul\":24979:24982   */\n      dup2\n        /* \"#utility.yul\":24976:24977   */\n      0x00\n        /* \"#utility.yul\":24969:24983   */\n      mstore\n        /* \"#utility.yul\":25013:25017   */\n      0x20\n        /* \"#utility.yul\":25010:25011   */\n      0x00\n        /* \"#utility.yul\":25000:25018   */\n      keccak256\n        /* \"#utility.yul\":24992:25018   */\n      swap1\n      pop\n        /* \"#utility.yul\":24884:25025   */\n      swap2\n      swap1\n      pop\n      jump\t// out\n        /* \"#utility.yul\":25031:25165   */\n    tag_249:\n        /* \"#utility.yul\":25118:25124   */\n      0x00\n        /* \"#utility.yul\":25152:25157   */\n      dup2\n        /* \"#utility.yul\":25146:25158   */\n      mload\n        /* \"#utility.yul\":25136:25158   */\n      swap1\n      pop\n        /* \"#utility.yul\":25031:25165   */\n      swap2\n      swap1\n      pop\n      jump\t// out\n        /* \"#utility.yul\":25171:25311   */\n    tag_263:\n        /* \"#utility.yul\":25264:25270   */\n      0x00\n        /* \"#utility.yul\":25298:25303   */\n      dup2\n        /* \"#utility.yul\":25292:25304   */\n      mload\n        /* \"#utility.yul\":25282:25304   */\n      swap1\n      pop\n        /* \"#utility.yul\":25171:25311   */\n      swap2\n      swap1\n      pop\n      jump\t// out\n        /* \"#utility.yul\":25317:25416   */\n    tag_281:\n        /* \"#utility.yul\":25369:25375   */\n      0x00\n        /* \"#utility.yul\":25403:25408   */\n      dup2\n        /* \"#utility.yul\":25397:25409   */\n      mload\n        /* \"#utility.yul\":25387:25409   */\n      swap1\n      pop\n        /* \"#utility.yul\":25317:25416   */\n      swap2\n      swap1\n      pop\n      jump\t// out\n        /* \"#utility.yul\":25422:25555   */\n    tag_259:\n        /* \"#utility.yul\":25512:25516   */\n      0x00\n        /* \"#utility.yul\":25544:25548   */\n      0x20\n        /* \"#utility.yul\":25539:25542   */\n      dup3\n        /* \"#utility.yul\":25535:25549   */\n      add\n        /* \"#utility.yul\":25527:25549   */\n      swap1\n      pop\n        /* \"#utility.yul\":25422:25555   */\n      swap2\n      swap1\n      pop\n      jump\t// out\n        /* \"#utility.yul\":25561:25700   */\n    tag_273:\n        /* \"#utility.yul\":25657:25661   */\n      0x00\n        /* \"#utility.yul\":25689:25693   */\n      0x20\n        /* \"#utility.yul\":25684:25687   */\n      dup3\n        /* \"#utility.yul\":25680:25694   */\n      add\n        /* \"#utility.yul\":25672:25694   */\n      swap1\n      pop\n        /* \"#utility.yul\":25561:25700   */\n      swap2\n      swap1\n      pop\n      jump\t// out\n        /* \"#utility.yul\":25706:25910   */\n    tag_251:\n        /* \"#utility.yul\":25825:25836   */\n      0x00\n        /* \"#utility.yul\":25859:25865   */\n      dup3\n        /* \"#utility.yul\":25854:25857   */\n      dup3\n        /* \"#utility.yul\":25847:25866   */\n      mstore\n        /* \"#utility.yul\":25899:25903   */\n      0x20\n        /* \"#utility.yul\":25894:25897   */\n      dup3\n        /* \"#utility.yul\":25890:25904   */\n      add\n        /* \"#utility.yul\":25875:25904   */\n      swap1\n      pop\n        /* \"#utility.yul\":25706:25910   */\n      swap3\n      swap2\n      pop\n      pop\n      jump\t// out\n        /* \"#utility.yul\":25916:26126   */\n    tag_265:\n        /* \"#utility.yul\":26041:26052   */\n      0x00\n        /* \"#utility.yul\":26075:26081   */\n      dup3\n        /* \"#utility.yul\":26070:26073   */\n      dup3\n        /* \"#utility.yul\":26063:26082   */\n      mstore\n        /* \"#utility.yul\":26115:26119   */\n      0x20\n        /* \"#utility.yul\":26110:26113   */\n      dup3\n        /* \"#utility.yul\":26106:26120   */\n      add\n        /* \"#utility.yul\":26091:26120   */\n      swap1\n      pop\n        /* \"#utility.yul\":25916:26126   */\n      swap3\n      swap2\n      pop\n      pop\n      jump\t// out\n        /* \"#utility.yul\":26132:26291   */\n    tag_283:\n        /* \"#utility.yul\":26206:26217   */\n      0x00\n        /* \"#utility.yul\":26240:26246   */\n      dup3\n        /* \"#utility.yul\":26235:26238   */\n      dup3\n        /* \"#utility.yul\":26228:26247   */\n      mstore\n        /* \"#utility.yul\":26280:26284   */\n      0x20\n        /* \"#utility.yul\":26275:26278   */\n      dup3\n        /* \"#utility.yul\":26271:26285   */\n      add\n        /* \"#utility.yul\":26256:26285   */\n      swap1\n      pop\n        /* \"#utility.yul\":26132:26291   */\n      swap3\n      swap2\n      pop\n      pop\n      jump\t// out\n        /* \"#utility.yul\":26297:26466   */\n    tag_303:\n        /* \"#utility.yul\":26381:26392   */\n      0x00\n        /* \"#utility.yul\":26415:26421   */\n      dup3\n        /* \"#utility.yul\":26410:26413   */\n      dup3\n        /* \"#utility.yul\":26403:26422   */\n      mstore\n        /* \"#utility.yul\":26455:26459   */\n      0x20\n        /* \"#utility.yul\":26450:26453   */\n      dup3\n        /* \"#utility.yul\":26446:26460   */\n      add\n        /* \"#utility.yul\":26431:26460   */\n      swap1\n      pop\n        /* \"#utility.yul\":26297:26466   */\n      swap3\n      swap2\n      pop\n      pop\n      jump\t// out\n        /* \"#utility.yul\":26472:26777   */\n    tag_151:\n        /* \"#utility.yul\":26512:26515   */\n      0x00\n        /* \"#utility.yul\":26531:26551   */\n      tag_443\n        /* \"#utility.yul\":26549:26550   */\n      dup3\n        /* \"#utility.yul\":26531:26551   */\n      tag_395\n      jump\t// in\n    tag_443:\n        /* \"#utility.yul\":26526:26551   */\n      swap2\n      pop\n        /* \"#utility.yul\":26565:26585   */\n      tag_444\n        /* \"#utility.yul\":26583:26584   */\n      dup4\n        /* \"#utility.yul\":26565:26585   */\n      tag_395\n      jump\t// in\n    tag_444:\n        /* \"#utility.yul\":26560:26585   */\n      swap3\n      pop\n        /* \"#utility.yul\":26719:26720   */\n      dup3\n        /* \"#utility.yul\":26651:26717   */\n      0xffffffffffffffffffffffffffffffffffffffffffffffffffffffffffffffff\n        /* \"#utility.yul\":26647:26721   */\n      sub\n        /* \"#utility.yul\":26644:26645   */\n      dup3\n        /* \"#utility.yul\":26641:26722   */\n      gt\n        /* \"#utility.yul\":26638:26745   */\n      iszero\n      tag_445\n      jumpi\n        /* \"#utility.yul\":26725:26743   */\n      tag_446\n      tag_447\n      jump\t// in\n    tag_446:\n        /* \"#utility.yul\":26638:26745   */\n    tag_445:\n        /* \"#utility.yul\":26769:26770   */\n      dup3\n        /* \"#utility.yul\":26766:26767   */\n      dup3\n        /* \"#utility.yul\":26762:26771   */\n      add\n        /* \"#utility.yul\":26755:26771   */\n      swap1\n      pop\n        /* \"#utility.yul\":26472:26777   */\n      swap3\n      swap2\n      pop\n      pop\n      jump\t// out\n        /* \"#utility.yul\":26783:26974   */\n    tag_153:\n        /* \"#utility.yul\":26823:26827   */\n      0x00\n        /* \"#utility.yul\":26843:26863   */\n      tag_449\n        /* \"#utility.yul\":26861:26862   */\n      dup3\n        /* \"#utility.yul\":26843:26863   */\n      tag_395\n      jump\t// in\n    tag_449:\n        /* \"#utility.yul\":26838:26863   */\n      swap2\n      pop\n        /* \"#utility.yul\":26877:26897   */\n      tag_450\n        /* \"#utility.yul\":26895:26896   */\n      dup4\n        /* \"#utility.yul\":26877:26897   */\n      tag_395\n      jump\t// in\n    tag_450:\n        /* \"#utility.yul\":26872:26897   */\n      swap3\n      pop\n        /* \"#utility.yul\":26916:26917   */\n      dup3\n        /* \"#utility.yul\":26913:26914   */\n      dup3\n        /* \"#utility.yul\":26910:26918   */\n      lt\n        /* \"#utility.yul\":26907:26941   */\n      iszero\n      tag_451\n      jumpi\n        /* \"#utility.yul\":26921:26939   */\n      tag_452\n      tag_447\n      jump\t// in\n    tag_452:\n        /* \"#utility.yul\":26907:26941   */\n    tag_451:\n        /* \"#utility.yul\":26966:26967   */\n      dup3\n        /* \"#utility.yul\":26963:26964   */\n      dup3\n        /* \"#utility.yul\":26959:26968   */\n      sub\n        /* \"#utility.yul\":26951:26968   */\n      swap1\n      pop\n        /* \"#utility.yul\":26783:26974   */\n      swap3\n      swap2\n      pop\n      pop\n      jump\t// out\n        /* \"#utility.yul\":26980:27119   */\n    tag_453:\n        /* \"#utility.yul\":27030:27037   */\n      0x00\n        /* \"#utility.yul\":27070:27112   */\n      0xffffffffffffffffffffffffffffffffffffffff\n        /* \"#utility.yul\":27063:27068   */\n      dup3\n        /* \"#utility.yul\":27059:27113   */\n      and\n        /* \"#utility.yul\":27048:27113   */\n      swap1\n      pop\n        /* \"#utility.yul\":26980:27119   */\n      swap2\n      swap1\n      pop\n      jump\t// out\n        /* \"#utility.yul\":27125:27272   */\n    tag_455:\n        /* \"#utility.yul\":27183:27190   */\n      0x00\n        /* \"#utility.yul\":27223:27265   */\n      0xffffffffffffffffffffffffffffffffffffffff\n        /* \"#utility.yul\":27216:27221   */\n      dup3\n        /* \"#utility.yul\":27212:27266   */\n      and\n        /* \"#utility.yul\":27201:27266   */\n      swap1\n      pop\n        /* \"#utility.yul\":27125:27272   */\n      swap2\n      swap1\n      pop\n      jump\t// out\n        /* \"#utility.yul\":27278:27376   */\n    tag_457:\n        /* \"#utility.yul\":27325:27332   */\n      0x00\n        /* \"#utility.yul\":27365:27369   */\n      0xff\n        /* \"#utility.yul\":27358:27363   */\n      dup3\n        /* \"#utility.yul\":27354:27370   */\n      and\n        /* \"#utility.yul\":27343:27370   */\n      swap1\n      pop\n        /* \"#utility.yul\":27278:27376   */\n      swap2\n      swap1\n      pop\n      jump\t// out\n        /* \"#utility.yul\":27382:27472   */\n    tag_459:\n        /* \"#utility.yul\":27432:27439   */\n      0x00\n        /* \"#utility.yul\":27461:27466   */\n      dup2\n        /* \"#utility.yul\":27450:27466   */\n      swap1\n      pop\n        /* \"#utility.yul\":27382:27472   */\n      swap2\n      swap1\n      pop\n      jump\t// out\n        /* \"#utility.yul\":27478:27574   */\n    tag_242:\n        /* \"#utility.yul\":27515:27522   */\n      0x00\n        /* \"#utility.yul\":27544:27568   */\n      tag_462\n        /* \"#utility.yul\":27562:27567   */\n      dup3\n        /* \"#utility.yul\":27544:27568   */\n      tag_463\n      jump\t// in\n    tag_462:\n        /* \"#utility.yul\":27533:27568   */\n      swap1\n      pop\n        /* \"#utility.yul\":27478:27574   */\n      swap2\n      swap1\n      pop\n      jump\t// out\n        /* \"#utility.yul\":27580:27684   */\n    tag_238:\n        /* \"#utility.yul\":27625:27632   */\n      0x00\n        /* \"#utility.yul\":27654:27678   */\n      tag_465\n        /* \"#utility.yul\":27672:27677   */\n      dup3\n        /* \"#utility.yul\":27654:27678   */\n      tag_463\n      jump\t// in\n    tag_465:\n        /* \"#utility.yul\":27643:27678   */\n      swap1\n      pop\n        /* \"#utility.yul\":27580:27684   */\n      swap2\n      swap1\n      pop\n      jump\t// out\n        /* \"#utility.yul\":27690:27780   */\n    tag_277:\n        /* \"#utility.yul\":27724:27731   */\n      0x00\n        /* \"#utility.yul\":27767:27772   */\n      dup2\n        /* \"#utility.yul\":27760:27773   */\n      iszero\n        /* \"#utility.yul\":27753:27774   */\n      iszero\n        /* \"#utility.yul\":27742:27774   */\n      swap1\n      pop\n        /* \"#utility.yul\":27690:27780   */\n      swap2\n      swap1\n      pop\n      jump\t// out\n        /* \"#utility.yul\":27786:27912   */\n    tag_463:\n        /* \"#utility.yul\":27823:27830   */\n      0x00\n        /* \"#utility.yul\":27863:27905   */\n      0xffffffffffffffffffffffffffffffffffffffff\n        /* \"#utility.yul\":27856:27861   */\n      dup3\n        /* \"#utility.yul\":27852:27906   */\n      and\n        /* \"#utility.yul\":27841:27906   */\n      swap1\n      pop\n        /* \"#utility.yul\":27786:27912   */\n      swap2\n      swap1\n      pop\n      jump\t// out\n        /* \"#utility.yul\":27918:27995   */\n    tag_395:\n        /* \"#utility.yul\":27955:27962   */\n      0x00\n        /* \"#utility.yul\":27984:27989   */\n      dup2\n        /* \"#utility.yul\":27973:27989   */\n      swap1\n      pop\n        /* \"#utility.yul\":27918:27995   */\n      swap2\n      swap1\n      pop\n      jump\t// out\n        /* \"#utility.yul\":28001:28155   */\n    tag_185:\n        /* \"#utility.yul\":28085:28091   */\n      dup3\n        /* \"#utility.yul\":28080:28083   */\n      dup2\n        /* \"#utility.yul\":28075:28078   */\n      dup4\n        /* \"#utility.yul\":28062:28092   */\n      calldatacopy\n        /* \"#utility.yul\":28147:28148   */\n      0x00\n        /* \"#utility.yul\":28138:28144   */\n      dup4\n        /* \"#utility.yul\":28133:28136   */\n      dup4\n        /* \"#utility.yul\":28129:28145   */\n      add\n        /* \"#utility.yul\":28122:28149   */\n      mstore\n        /* \"#utility.yul\":28001:28155   */\n      pop\n      pop\n      pop\n      jump\t// out\n        /* \"#utility.yul\":28161:28468   */\n    tag_285:\n        /* \"#utility.yul\":28229:28230   */\n      0x00\n        /* \"#utility.yul\":28239:28352   */\n    tag_471:\n        /* \"#utility.yul\":28253:28259   */\n      dup4\n        /* \"#utility.yul\":28250:28251   */\n      dup2\n        /* \"#utility.yul\":28247:28260   */\n      lt\n        /* \"#utility.yul\":28239:28352   */\n      iszero\n      tag_473\n      jumpi\n        /* \"#utility.yul\":28338:28339   */\n      dup1\n        /* \"#utility.yul\":28333:28336   */\n      dup3\n        /* \"#utility.yul\":28329:28340   */\n      add\n        /* \"#utility.yul\":28323:28341   */\n      mload\n        /* \"#utility.yul\":28319:28320   */\n      dup2\n        /* \"#utility.yul\":28314:28317   */\n      dup5\n        /* \"#utility.yul\":28310:28321   */\n      add\n        /* \"#utility.yul\":28303:28342   */\n      mstore\n        /* \"#utility.yul\":28275:28277   */\n      0x20\n        /* \"#utility.yul\":28272:28273   */\n      dup2\n        /* \"#utility.yul\":28268:28278   */\n      add\n        /* \"#utility.yul\":28263:28278   */\n      swap1\n      pop\n        /* \"#utility.yul\":28239:28352   */\n      jump(tag_471)\n    tag_473:\n        /* \"#utility.yul\":28370:28376   */\n      dup4\n        /* \"#utility.yul\":28367:28368   */\n      dup2\n        /* \"#utility.yul\":28364:28377   */\n      gt\n        /* \"#utility.yul\":28361:28462   */\n      iszero\n      tag_474\n      jumpi\n        /* \"#utility.yul\":28450:28451   */\n      0x00\n        /* \"#utility.yul\":28441:28447   */\n      dup5\n        /* \"#utility.yul\":28436:28439   */\n      dup5\n        /* \"#utility.yul\":28432:28448   */\n      add\n        /* \"#utility.yul\":28425:28452   */\n      mstore\n        /* \"#utility.yul\":28361:28462   */\n    tag_474:\n        /* \"#utility.yul\":28210:28468   */\n      pop\n        /* \"#utility.yul\":28161:28468   */\n      pop\n      pop\n      pop\n      jump\t// out\n        /* \"#utility.yul\":28474:28794   */\n    tag_55:\n        /* \"#utility.yul\":28518:28524   */\n      0x00\n        /* \"#utility.yul\":28555:28556   */\n      0x02\n        /* \"#utility.yul\":28549:28553   */\n      dup3\n        /* \"#utility.yul\":28545:28557   */\n      div\n        /* \"#utility.yul\":28535:28557   */\n      swap1\n      pop\n        /* \"#utility.yul\":28602:28603   */\n      0x01\n        /* \"#utility.yul\":28596:28600   */\n      dup3\n        /* \"#utility.yul\":28592:28604   */\n      and\n        /* \"#utility.yul\":28623:28641   */\n      dup1\n        /* \"#utility.yul\":28613:28694   */\n      tag_476\n      jumpi\n        /* \"#utility.yul\":28679:28683   */\n      0x7f\n        /* \"#utility.yul\":28671:28677   */\n      dup3\n        /* \"#utility.yul\":28667:28684   */\n      and\n        /* \"#utility.yul\":28657:28684   */\n      swap2\n      pop\n        /* \"#utility.yul\":28613:28694   */\n    tag_476:\n        /* \"#utility.yul\":28741:28743   */\n      0x20\n        /* \"#utility.yul\":28733:28739   */\n      dup3\n        /* \"#utility.yul\":28730:28744   */\n      lt\n        /* \"#utility.yul\":28710:28728   */\n      dup2\n        /* \"#utility.yul\":28707:28745   */\n      eq\n        /* \"#utility.yul\":28704:28788   */\n      iszero\n      tag_477\n      jumpi\n        /* \"#utility.yul\":28760:28778   */\n      tag_478\n      tag_479\n      jump\t// in\n    tag_478:\n        /* \"#utility.yul\":28704:28788   */\n    tag_477:\n        /* \"#utility.yul\":28525:28794   */\n      pop\n        /* \"#utility.yul\":28474:28794   */\n      swap2\n      swap1\n      pop\n      jump\t// out\n        /* \"#utility.yul\":28800:28966   */\n    tag_387:\n        /* \"#utility.yul\":28869:28874   */\n      0x00\n        /* \"#utility.yul\":28894:28960   */\n      tag_481\n        /* \"#utility.yul\":28925:28959   */\n      tag_482\n        /* \"#utility.yul\":28948:28958   */\n      dup4\n        /* \"#utility.yul\":28925:28959   */\n      tag_483\n      jump\t// in\n    tag_482:\n        /* \"#utility.yul\":28894:28960   */\n      tag_453\n      jump\t// in\n    tag_481:\n        /* \"#utility.yul\":28885:28960   */\n      swap1\n      pop\n        /* \"#utility.yul\":28800:28966   */\n      swap2\n      swap1\n      pop\n      jump\t// out\n        /* \"#utility.yul\":28972:29132   */\n    tag_369:\n        /* \"#utility.yul\":29038:29043   */\n      0x00\n        /* \"#utility.yul\":29063:29126   */\n      tag_485\n        /* \"#utility.yul\":29091:29125   */\n      tag_486\n        /* \"#utility.yul\":29114:29124   */\n      dup4\n        /* \"#utility.yul\":29091:29125   */\n      tag_483\n      jump\t// in\n    tag_486:\n        /* \"#utility.yul\":29063:29126   */\n      tag_457\n      jump\t// in\n    tag_485:\n        /* \"#utility.yul\":29054:29126   */\n      swap1\n      pop\n        /* \"#utility.yul\":28972:29132   */\n      swap2\n      swap1\n      pop\n      jump\t// out\n        /* \"#utility.yul\":29138:29304   */\n    tag_356:\n        /* \"#utility.yul\":29207:29212   */\n      0x00\n        /* \"#utility.yul\":29232:29298   */\n      tag_488\n        /* \"#utility.yul\":29263:29297   */\n      tag_489\n        /* \"#utility.yul\":29286:29296   */\n      dup4\n        /* \"#utility.yul\":29263:29297   */\n      tag_483\n      jump\t// in\n    tag_489:\n        /* \"#utility.yul\":29232:29298   */\n      tag_459\n      jump\t// in\n    tag_488:\n        /* \"#utility.yul\":29223:29298   */\n      swap1\n      pop\n        /* \"#utility.yul\":29138:29304   */\n      swap2\n      swap1\n      pop\n      jump\t// out\n        /* \"#utility.yul\":29310:29492   */\n    tag_372:\n        /* \"#utility.yul\":29387:29392   */\n      0x00\n        /* \"#utility.yul\":29412:29486   */\n      tag_491\n        /* \"#utility.yul\":29451:29485   */\n      tag_492\n        /* \"#utility.yul\":29474:29484   */\n      dup4\n        /* \"#utility.yul\":29451:29485   */\n      tag_493\n      jump\t// in\n    tag_492:\n        /* \"#utility.yul\":29412:29486   */\n      tag_455\n      jump\t// in\n    tag_491:\n        /* \"#utility.yul\":29403:29486   */\n      swap1\n      pop\n        /* \"#utility.yul\":29310:29492   */\n      swap2\n      swap1\n      pop\n      jump\t// out\n        /* \"#utility.yul\":29498:29779   */\n    tag_424:\n        /* \"#utility.yul\":29581:29608   */\n      tag_495\n        /* \"#utility.yul\":29603:29607   */\n      dup3\n        /* \"#utility.yul\":29581:29608   */\n      tag_287\n      jump\t// in\n    tag_495:\n        /* \"#utility.yul\":29573:29579   */\n      dup2\n        /* \"#utility.yul\":29569:29609   */\n      add\n        /* \"#utility.yul\":29711:29717   */\n      dup2\n        /* \"#utility.yul\":29699:29709   */\n      dup2\n        /* \"#utility.yul\":29696:29718   */\n      lt\n        /* \"#utility.yul\":29675:29693   */\n      0xffffffffffffffff\n        /* \"#utility.yul\":29663:29673   */\n      dup3\n        /* \"#utility.yul\":29660:29694   */\n      gt\n        /* \"#utility.yul\":29657:29719   */\n      or\n        /* \"#utility.yul\":29654:29742   */\n      iszero\n      tag_496\n      jumpi\n        /* \"#utility.yul\":29722:29740   */\n      tag_497\n      tag_68\n      jump\t// in\n    tag_497:\n        /* \"#utility.yul\":29654:29742   */\n    tag_496:\n        /* \"#utility.yul\":29762:29772   */\n      dup1\n        /* \"#utility.yul\":29758:29760   */\n      0x40\n        /* \"#utility.yul\":29751:29773   */\n      mstore\n        /* \"#utility.yul\":29541:29779   */\n      pop\n        /* \"#utility.yul\":29498:29779   */\n      pop\n      pop\n      jump\t// out\n        /* \"#utility.yul\":29785:30018   */\n    tag_89:\n        /* \"#utility.yul\":29824:29827   */\n      0x00\n        /* \"#utility.yul\":29847:29871   */\n      tag_499\n        /* \"#utility.yul\":29865:29870   */\n      dup3\n        /* \"#utility.yul\":29847:29871   */\n      tag_395\n      jump\t// in\n    tag_499:\n        /* \"#utility.yul\":29838:29871   */\n      swap2\n      pop\n        /* \"#utility.yul\":29893:29959   */\n      0xffffffffffffffffffffffffffffffffffffffffffffffffffffffffffffffff\n        /* \"#utility.yul\":29886:29891   */\n      dup3\n        /* \"#utility.yul\":29883:29960   */\n      eq\n        /* \"#utility.yul\":29880:29983   */\n      iszero\n      tag_500\n      jumpi\n        /* \"#utility.yul\":29963:29981   */\n      tag_501\n      tag_447\n      jump\t// in\n    tag_501:\n        /* \"#utility.yul\":29880:29983   */\n    tag_500:\n        /* \"#utility.yul\":30010:30011   */\n      0x01\n        /* \"#utility.yul\":30003:30008   */\n      dup3\n        /* \"#utility.yul\":29999:30012   */\n      add\n        /* \"#utility.yul\":29992:30012   */\n      swap1\n      pop\n        /* \"#utility.yul\":29785:30018   */\n      swap2\n      swap1\n      pop\n      jump\t// out\n        /* \"#utility.yul\":30024:30204   */\n    tag_447:\n        /* \"#utility.yul\":30072:30149   */\n      0x4e487b7100000000000000000000000000000000000000000000000000000000\n        /* \"#utility.yul\":30069:30070   */\n      0x00\n        /* \"#utility.yul\":30062:30150   */\n      mstore\n        /* \"#utility.yul\":30169:30173   */\n      0x11\n        /* \"#utility.yul\":30166:30167   */\n      0x04\n        /* \"#utility.yul\":30159:30174   */\n      mstore\n        /* \"#utility.yul\":30193:30197   */\n      0x24\n        /* \"#utility.yul\":30190:30191   */\n      0x00\n        /* \"#utility.yul\":30183:30198   */\n      revert\n        /* \"#utility.yul\":30210:30390   */\n    tag_479:\n        /* \"#utility.yul\":30258:30335   */\n      0x4e487b7100000000000000000000000000000000000000000000000000000000\n        /* \"#utility.yul\":30255:30256   */\n      0x00\n        /* \"#utility.yul\":30248:30336   */\n      mstore\n        /* \"#utility.yul\":30355:30359   */\n      0x22\n        /* \"#utility.yul\":30352:30353   */\n      0x04\n        /* \"#utility.yul\":30345:30360   */\n      mstore\n        /* \"#utility.yul\":30379:30383   */\n      0x24\n        /* \"#utility.yul\":30376:30377   */\n      0x00\n        /* \"#utility.yul\":30369:30384   */\n      revert\n        /* \"#utility.yul\":30396:30576   */\n    tag_87:\n        /* \"#utility.yul\":30444:30521   */\n      0x4e487b7100000000000000000000000000000000000000000000000000000000\n        /* \"#utility.yul\":30441:30442   */\n      0x00\n        /* \"#utility.yul\":30434:30522   */\n      mstore\n        /* \"#utility.yul\":30541:30545   */\n      0x32\n        /* \"#utility.yul\":30538:30539   */\n      0x04\n        /* \"#utility.yul\":30531:30546   */\n      mstore\n        /* \"#utility.yul\":30565:30569   */\n      0x24\n        /* \"#utility.yul\":30562:30563   */\n      0x00\n        /* \"#utility.yul\":30555:30570   */\n      revert\n        /* \"#utility.yul\":30582:30762   */\n    tag_68:\n        /* \"#utility.yul\":30630:30707   */\n      0x4e487b7100000000000000000000000000000000000000000000000000000000\n        /* \"#utility.yul\":30627:30628   */\n      0x00\n        /* \"#utility.yul\":30620:30708   */\n      mstore\n        /* \"#utility.yul\":30727:30731   */\n      0x41\n        /* \"#utility.yul\":30724:30725   */\n      0x04\n        /* \"#utility.yul\":30717:30732   */\n      mstore\n        /* \"#utility.yul\":30751:30755   */\n      0x24\n        /* \"#utility.yul\":30748:30749   */\n      0x00\n        /* \"#utility.yul\":30741:30756   */\n      revert\n        /* \"#utility.yul\":30768:30885   */\n    tag_198:\n        /* \"#utility.yul\":30877:30878   */\n      0x00\n        /* \"#utility.yul\":30874:30875   */\n      dup1\n        /* \"#utility.yul\":30867:30879   */\n      revert\n        /* \"#utility.yul\":30891:31008   */\n    tag_183:\n        /* \"#utility.yul\":31000:31001   */\n      0x00\n        /* \"#utility.yul\":30997:30998   */\n      dup1\n        /* \"#utility.yul\":30990:31002   */\n      revert\n        /* \"#utility.yul\":31014:31131   */\n    tag_214:\n        /* \"#utility.yul\":31123:31124   */\n      0x00\n        /* \"#utility.yul\":31120:31121   */\n      dup1\n        /* \"#utility.yul\":31113:31125   */\n      revert\n        /* \"#utility.yul\":31137:31254   */\n    tag_207:\n        /* \"#utility.yul\":31246:31247   */\n      0x00\n        /* \"#utility.yul\":31243:31244   */\n      dup1\n        /* \"#utility.yul\":31236:31248   */\n      revert\n        /* \"#utility.yul\":31260:31362   */\n    tag_287:\n        /* \"#utility.yul\":31301:31307   */\n      0x00\n        /* \"#utility.yul\":31352:31354   */\n      0x1f\n        /* \"#utility.yul\":31348:31355   */\n      not\n        /* \"#utility.yul\":31343:31345   */\n      0x1f\n        /* \"#utility.yul\":31336:31341   */\n      dup4\n        /* \"#utility.yul\":31332:31346   */\n      add\n        /* \"#utility.yul\":31328:31356   */\n      and\n        /* \"#utility.yul\":31318:31356   */\n      swap1\n      pop\n        /* \"#utility.yul\":31260:31362   */\n      swap2\n      swap1\n      pop\n      jump\t// out\n        /* \"#utility.yul\":31368:31470   */\n    tag_483:\n        /* \"#utility.yul\":31410:31418   */\n      0x00\n        /* \"#utility.yul\":31457:31462   */\n      dup2\n        /* \"#utility.yul\":31454:31455   */\n      0x00\n        /* \"#utility.yul\":31450:31463   */\n      shr\n        /* \"#utility.yul\":31429:31463   */\n      swap1\n      pop\n        /* \"#utility.yul\":31368:31470   */\n      swap2\n      swap1\n      pop\n      jump\t// out\n        /* \"#utility.yul\":31476:31578   */\n    tag_493:\n        /* \"#utility.yul\":31518:31526   */\n      0x00\n        /* \"#utility.yul\":31565:31570   */\n      dup2\n        /* \"#utility.yul\":31562:31563   */\n      0x08\n        /* \"#utility.yul\":31558:31571   */\n      shr\n        /* \"#utility.yul\":31537:31571   */\n      swap1\n      pop\n        /* \"#utility.yul\":31476:31578   */\n      swap2\n      swap1\n      pop\n      jump\t// out\n        /* \"#utility.yul\":31584:31824   */\n    tag_305:\n        /* \"#utility.yul\":31724:31758   */\n      0x456e6420646174652d74696d652073686f756c64206265206772656174657220\n        /* \"#utility.yul\":31720:31721   */\n      0x00\n        /* \"#utility.yul\":31712:31718   */\n      dup3\n        /* \"#utility.yul\":31708:31722   */\n      add\n        /* \"#utility.yul\":31701:31759   */\n      mstore\n        /* \"#utility.yul\":31793:31816   */\n      0x7468616e20737461727420646174652d74696d652e0000000000000000000000\n        /* \"#utility.yul\":31788:31790   */\n      0x20\n        /* \"#utility.yul\":31780:31786   */\n      dup3\n        /* \"#utility.yul\":31776:31791   */\n      add\n        /* \"#utility.yul\":31769:31817   */\n      mstore\n        /* \"#utility.yul\":31584:31824   */\n      pop\n      jump\t// out\n        /* \"#utility.yul\":31830:32074   */\n    tag_310:\n        /* \"#utility.yul\":31970:32004   */\n      0x537461727420646174652d74696d652073686f756c6420626520677265617465\n        /* \"#utility.yul\":31966:31967   */\n      0x00\n        /* \"#utility.yul\":31958:31964   */\n      dup3\n        /* \"#utility.yul\":31954:31968   */\n      add\n        /* \"#utility.yul\":31947:32005   */\n      mstore\n        /* \"#utility.yul\":32039:32066   */\n      0x72207468616e2063757272656e7420646174652d74696d652e00000000000000\n        /* \"#utility.yul\":32034:32036   */\n      0x20\n        /* \"#utility.yul\":32026:32032   */\n      dup3\n        /* \"#utility.yul\":32022:32037   */\n      add\n        /* \"#utility.yul\":32015:32067   */\n      mstore\n        /* \"#utility.yul\":31830:32074   */\n      pop\n      jump\t// out\n        /* \"#utility.yul\":32080:32255   */\n    tag_315:\n        /* \"#utility.yul\":32220:32247   */\n      0x46756e6420686173206e6f742073746172746564207965742e00000000000000\n        /* \"#utility.yul\":32216:32217   */\n      0x00\n        /* \"#utility.yul\":32208:32214   */\n      dup3\n        /* \"#utility.yul\":32204:32218   */\n      add\n        /* \"#utility.yul\":32197:32248   */\n      mstore\n        /* \"#utility.yul\":32080:32255   */\n      pop\n      jump\t// out\n        /* \"#utility.yul\":32261:32491   */\n    tag_320:\n        /* \"#utility.yul\":32401:32435   */\n      0x46756e64206973206163746976652c2063616e6e6f74207472616e7366657220\n        /* \"#utility.yul\":32397:32398   */\n      0x00\n        /* \"#utility.yul\":32389:32395   */\n      dup3\n        /* \"#utility.yul\":32385:32399   */\n      add\n        /* \"#utility.yul\":32378:32436   */\n      mstore\n        /* \"#utility.yul\":32470:32483   */\n      0x616d6f756e74206e6f772e000000000000000000000000000000000000000000\n        /* \"#utility.yul\":32465:32467   */\n      0x20\n        /* \"#utility.yul\":32457:32463   */\n      dup3\n        /* \"#utility.yul\":32453:32468   */\n      add\n        /* \"#utility.yul\":32446:32484   */\n      mstore\n        /* \"#utility.yul\":32261:32491   */\n      pop\n      jump\t// out\n        /* \"#utility.yul\":32497:32662   */\n    tag_325:\n        /* \"#utility.yul\":32637:32654   */\n      0x46756e6420697320636c6f7365642e0000000000000000000000000000000000\n        /* \"#utility.yul\":32633:32634   */\n      0x00\n        /* \"#utility.yul\":32625:32631   */\n      dup3\n        /* \"#utility.yul\":32621:32635   */\n      add\n        /* \"#utility.yul\":32614:32655   */\n      mstore\n        /* \"#utility.yul\":32497:32662   */\n      pop\n      jump\t// out\n        /* \"#utility.yul\":32668:32840   */\n    tag_330:\n        /* \"#utility.yul\":32808:32832   */\n      0x53656e646572206e6f7420617574686f72697a65642e00000000000000000000\n        /* \"#utility.yul\":32804:32805   */\n      0x00\n        /* \"#utility.yul\":32796:32802   */\n      dup3\n        /* \"#utility.yul\":32792:32806   */\n      add\n        /* \"#utility.yul\":32785:32833   */\n      mstore\n        /* \"#utility.yul\":32668:32840   */\n      pop\n      jump\t// out\n        /* \"#utility.yul\":32846:32968   */\n    tag_189:\n        /* \"#utility.yul\":32919:32943   */\n      tag_520\n        /* \"#utility.yul\":32937:32942   */\n      dup2\n        /* \"#utility.yul\":32919:32943   */\n      tag_242\n      jump\t// in\n    tag_520:\n        /* \"#utility.yul\":32912:32917   */\n      dup2\n        /* \"#utility.yul\":32909:32944   */\n      eq\n        /* \"#utility.yul\":32899:32962   */\n      tag_521\n      jumpi\n        /* \"#utility.yul\":32958:32959   */\n      0x00\n        /* \"#utility.yul\":32955:32956   */\n      dup1\n        /* \"#utility.yul\":32948:32960   */\n      revert\n        /* \"#utility.yul\":32899:32962   */\n    tag_521:\n        /* \"#utility.yul\":32846:32968   */\n      pop\n      jump\t// out\n        /* \"#utility.yul\":32974:33112   */\n    tag_193:\n        /* \"#utility.yul\":33055:33087   */\n      tag_523\n        /* \"#utility.yul\":33081:33086   */\n      dup2\n        /* \"#utility.yul\":33055:33087   */\n      tag_238\n      jump\t// in\n    tag_523:\n        /* \"#utility.yul\":33048:33053   */\n      dup2\n        /* \"#utility.yul\":33045:33088   */\n      eq\n        /* \"#utility.yul\":33035:33106   */\n      tag_524\n      jumpi\n        /* \"#utility.yul\":33102:33103   */\n      0x00\n        /* \"#utility.yul\":33099:33100   */\n      dup1\n        /* \"#utility.yul\":33092:33104   */\n      revert\n        /* \"#utility.yul\":33035:33106   */\n    tag_524:\n        /* \"#utility.yul\":32974:33112   */\n      pop\n      jump\t// out\n        /* \"#utility.yul\":33118:33240   */\n    tag_203:\n        /* \"#utility.yul\":33191:33215   */\n      tag_526\n        /* \"#utility.yul\":33209:33214   */\n      dup2\n        /* \"#utility.yul\":33191:33215   */\n      tag_395\n      jump\t// in\n    tag_526:\n        /* \"#utility.yul\":33184:33189   */\n      dup2\n        /* \"#utility.yul\":33181:33216   */\n      eq\n        /* \"#utility.yul\":33171:33234   */\n      tag_527\n      jumpi\n        /* \"#utility.yul\":33230:33231   */\n      0x00\n        /* \"#utility.yul\":33227:33228   */\n      dup1\n        /* \"#utility.yul\":33220:33232   */\n      revert\n        /* \"#utility.yul\":33171:33234   */\n    tag_527:\n        /* \"#utility.yul\":33118:33240   */\n      pop\n      jump\t// out\n\n    auxdata: 0xa264697066735822122033a015a8f22fcc9b9f4bb74c24c8c795015380f42fd3a8e45c61079551325f7364736f6c63430008070033\n}\n",
				"bytecode": {
					"linkReferences": {},
					"object": "608060405234801561001057600080fd5b50336000806101000a81548173ffffffffffffffffffffffffffffffffffffffff021916908373ffffffffffffffffffffffffffffffffffffffff16021790555061213d806100606000396000f3fe60806040526004361061007b5760003560e01c80635114cb521161004e5780635114cb5214610150578063526ed285146101795780638dcd8915146101a2578063a3fbbaae146101be5761007b565b8063149e685a146100805780631c69b464146100bd57806326ef2adf146100e8578063481c6a7514610125575b600080fd5b34801561008c57600080fd5b506100a760048036038101906100a29190611292565b6101e7565b6040516100b49190611a65565b60405180910390f35b3480156100c957600080fd5b506100d26103dc565b6040516100df9190611961565b60405180910390f35b3480156100f457600080fd5b5061010f600480360381019061010a9190611292565b610664565b60405161011c9190611983565b60405180910390f35b34801561013157600080fd5b5061013a6107f1565b6040516101479190611946565b60405180910390f35b34801561015c57600080fd5b5061017760048036038101906101729190611292565b610815565b005b34801561018557600080fd5b506101a0600480360381019061019b91906111cd565b610a2d565b005b6101bc60048036038101906101b79190611292565b610c74565b005b3480156101ca57600080fd5b506101e560048036038101906101e091906111a0565b610ed2565b005b6101ef610fa5565b60016000838152602001908152602001600020604051806101200160405290816000820154815260200160018201805461022890611d4b565b80601f016020809104026020016040519081016040528092919081815260200182805461025490611d4b565b80156102a15780601f10610276576101008083540402835291602001916102a1565b820191906000526020600020905b81548152906001019060200180831161028457829003601f168201915b505050505081526020016002820180546102ba90611d4b565b80601f01602080910402602001604051908101604052809291908181526020018280546102e690611d4b565b80156103335780601f1061030857610100808354040283529160200191610333565b820191906000526020600020905b81548152906001019060200180831161031657829003601f168201915b50505050508152602001600382015481526020016004820154815260200160058201548152602001600682015481526020016007820160009054906101000a900460ff161515151581526020016007820160019054906101000a900473ffffffffffffffffffffffffffffffffffffffff1673ffffffffffffffffffffffffffffffffffffffff1673ffffffffffffffffffffffffffffffffffffffff16815250509050919050565b6060600060035467ffffffffffffffff8111156103fc576103fb611eec565b5b60405190808252806020026020018201604052801561043557816020015b610422610fa5565b81526020019060019003908161041a5790505b50905060005b60035481101561065c5760016000828152602001908152602001600020604051806101200160405290816000820154815260200160018201805461047e90611d4b565b80601f01602080910402602001604051908101604052809291908181526020018280546104aa90611d4b565b80156104f75780601f106104cc576101008083540402835291602001916104f7565b820191906000526020600020905b8154815290600101906020018083116104da57829003601f168201915b5050505050815260200160028201805461051090611d4b565b80601f016020809104026020016040519081016040528092919081815260200182805461053c90611d4b565b80156105895780601f1061055e57610100808354040283529160200191610589565b820191906000526020600020905b81548152906001019060200180831161056c57829003601f168201915b50505050508152602001600382015481526020016004820154815260200160058201548152602001600682015481526020016007820160009054906101000a900460ff161515151581526020016007820160019054906101000a900473ffffffffffffffffffffffffffffffffffffffff1673ffffffffffffffffffffffffffffffffffffffff1673ffffffffffffffffffffffffffffffffffffffff168152505082828151811061063e5761063d611ebd565b5b6020026020010181905250808061065490611e16565b91505061043b565b508091505090565b6060600060045467ffffffffffffffff81111561068457610683611eec565b5b6040519080825280602002602001820160405280156106bd57816020015b6106aa611009565b8152602001906001900390816106a25790505b5090506000805b6004548110156107e65784600282815481106106e3576106e2611ebd565b5b90600052602060002090600502016001015414156107d3576002818154811061070f5761070e611ebd565b5b90600052602060002090600502016040518060a001604052908160008201548152602001600182015481526020016002820160009054906101000a900473ffffffffffffffffffffffffffffffffffffffff1673ffffffffffffffffffffffffffffffffffffffff1673ffffffffffffffffffffffffffffffffffffffff168152602001600382015481526020016004820154815250508383815181106107b9576107b8611ebd565b5b602002602001018190525081806107cf90611e16565b9250505b80806107de90611e16565b9150506106c4565b508192505050919050565b60008054906101000a900473ffffffffffffffffffffffffffffffffffffffff1681565b60008054906101000a900473ffffffffffffffffffffffffffffffffffffffff163373ffffffffffffffffffffffffffffffffffffffff168173ffffffffffffffffffffffffffffffffffffffff16146108a4576040517f08c379a000000000000000000000000000000000000000000000000000000000815260040161089b90611a45565b60405180910390fd5b60006001600084815260200190815260200160002090508060070160009054906101000a900460ff1661090c576040517f08c379a000000000000000000000000000000000000000000000000000000000815260040161090390611a25565b60405180910390fd5b806005015481600601541015806109265750428160040154105b610965576040517f08c379a000000000000000000000000000000000000000000000000000000000815260040161095c90611a05565b60405180910390fd5b8060070160019054906101000a900473ffffffffffffffffffffffffffffffffffffffff1673ffffffffffffffffffffffffffffffffffffffff166108fc82600601549081150290604051600060405180830381858888f193505050501580156109d3573d6000803e3d6000fd5b5060008160070160006101000a81548160ff0219169083151502179055507febe924212dae5e1ef7a2572e54fd89e974740a2657af9ee2595830dc77480f8381604051610a209190611a87565b60405180910390a1505050565b60008054906101000a900473ffffffffffffffffffffffffffffffffffffffff163373ffffffffffffffffffffffffffffffffffffffff168173ffffffffffffffffffffffffffffffffffffffff1614610abc576040517f08c379a0000000000000000000000000000000000000000000000000000000008152600401610ab390611a45565b60405180910390fd5b428511610afe576040517f08c379a0000000000000000000000000000000000000000000000000000000008152600401610af5906119c5565b60405180910390fd5b848411610b40576040517f08c379a0000000000000000000000000000000000000000000000000000000008152600401610b37906119a5565b60405180910390fd5b60006001600060035481526020019081526020016000209050600354816000018190555087816001019080519060200190610b7c92919061104e565b5086816002019080519060200190610b9592919061104e565b5085816003018190555084816004018190555083816005018190555060008160060181905550828160070160016101000a81548173ffffffffffffffffffffffffffffffffffffffff021916908373ffffffffffffffffffffffffffffffffffffffff16021790555060018160070160006101000a81548160ff02191690831515021790555060036000815480929190610c2e90611e16565b91905055507ffd78a022c6a35391fe265f0a393709bff510bdf633abc4e06987913b04ea5ad581604051610c629190611a87565b60405180910390a15050505050505050565b60006001600083815260200190815260200160002090508060070160009054906101000a900460ff16610cdc576040517f08c379a0000000000000000000000000000000000000000000000000000000008152600401610cd390611a25565b60405180910390fd5b4281600301541115610d23576040517f08c379a0000000000000000000000000000000000000000000000000000000008152600401610d1a906119e5565b60405180910390fd5b60026040518060a0016040528060045481526020018481526020013373ffffffffffffffffffffffffffffffffffffffff168152602001348152602001428152509080600181540180825580915050600190039060005260206000209060050201600090919091909150600082015181600001556020820151816001015560408201518160020160006101000a81548173ffffffffffffffffffffffffffffffffffffffff021916908373ffffffffffffffffffffffffffffffffffffffff1602179055506060820151816003015560808201518160040155505060046000815480929190610e1190611e16565b919050555034816006016000828254610e2a9190611bce565b925050819055507f59d91f387c713e7f74017154ba447ac5114d01ed128eabba83094ac7cffbb02160026001600454610e639190611c24565b81548110610e7457610e73611ebd565b5b9060005260206000209060050201604051610e8f9190611aa9565b60405180910390a17fc908814c12a367eaa7ae5d1b3ef8c36ab22b4c17ca0b0cdf1a7a2462a8fc5f6d81604051610ec69190611a87565b60405180910390a15050565b60008054906101000a900473ffffffffffffffffffffffffffffffffffffffff163373ffffffffffffffffffffffffffffffffffffffff168173ffffffffffffffffffffffffffffffffffffffff1614610f61576040517f08c379a0000000000000000000000000000000000000000000000000000000008152600401610f5890611a45565b60405180910390fd5b816000806101000a81548173ffffffffffffffffffffffffffffffffffffffff021916908373ffffffffffffffffffffffffffffffffffffffff1602179055505050565b60405180610120016040528060008152602001606081526020016060815260200160008152602001600081526020016000815260200160008152602001600015158152602001600073ffffffffffffffffffffffffffffffffffffffff1681525090565b6040518060a001604052806000815260200160008152602001600073ffffffffffffffffffffffffffffffffffffffff16815260200160008152602001600081525090565b82805461105a90611d4b565b90600052602060002090601f01602090048101928261107c57600085556110c3565b82601f1061109557805160ff19168380011785556110c3565b828001600101855582156110c3579182015b828111156110c25782518255916020019190600101906110a7565b5b5090506110d091906110d4565b5090565b5b808211156110ed5760008160009055506001016110d5565b5090565b60006111046110ff84611ae9565b611ac4565b9050828152602081018484840111156111205761111f611f20565b5b61112b848285611d09565b509392505050565b600081359050611142816120c2565b92915050565b600081359050611157816120d9565b92915050565b600082601f83011261117257611171611f1b565b5b81356111828482602086016110f1565b91505092915050565b60008135905061119a816120f0565b92915050565b6000602082840312156111b6576111b5611f2a565b5b60006111c484828501611133565b91505092915050565b60008060008060008060c087890312156111ea576111e9611f2a565b5b600087013567ffffffffffffffff81111561120857611207611f25565b5b61121489828a0161115d565b965050602087013567ffffffffffffffff81111561123557611234611f25565b5b61124189828a0161115d565b955050604061125289828a0161118b565b945050606061126389828a0161118b565b935050608061127489828a0161118b565b92505060a061128589828a01611148565b9150509295509295509295565b6000602082840312156112a8576112a7611f2a565b5b60006112b68482850161118b565b91505092915050565b60006112cb8383611585565b905092915050565b60006112df838361182e565b60a08301905092915050565b6112f481611cc1565b82525050565b61130381611caf565b82525050565b61131281611caf565b82525050565b600061132382611b4f565b61132d8185611b8a565b93508360208202850161133f85611b1a565b8060005b8581101561137b578484038952815161135c85826112bf565b945061136783611b70565b925060208a01995050600181019050611343565b50829750879550505050505092915050565b600061139882611b5a565b6113a28185611b9b565b93506113ad83611b2a565b8060005b838110156113de5781516113c588826112d3565b97506113d083611b7d565b9250506001810190506113b1565b5085935050505092915050565b6113f481611cd3565b82525050565b600061140582611b65565b61140f8185611bac565b935061141f818560208601611d18565b61142881611f2f565b840191505092915050565b6000815461144081611d4b565b61144a8186611bac565b945060018216600081146114655760018114611477576114aa565b60ff19831686526020860193506114aa565b61148085611b3a565b60005b838110156114a257815481890152600182019150602081019050611483565b808801955050505b50505092915050565b60006114c0603583611bbd565b91506114cb82611f5a565b604082019050919050565b60006114e3603983611bbd565b91506114ee82611fa9565b604082019050919050565b6000611506601983611bbd565b915061151182611ff8565b602082019050919050565b6000611529602b83611bbd565b915061153482612021565b604082019050919050565b600061154c600f83611bbd565b915061155782612070565b602082019050919050565b600061156f601683611bbd565b915061157a82612099565b602082019050919050565b60006101208301600083015161159e6000860182611937565b50602083015184820360208601526115b682826113fa565b915050604083015184820360408601526115d082826113fa565b91505060608301516115e56060860182611937565b5060808301516115f86080860182611937565b5060a083015161160b60a0860182611937565b5060c083015161161e60c0860182611937565b5060e083015161163160e08601826113eb565b506101008301516116466101008601826112eb565b508091505092915050565b60006101208301600083015161166a6000860182611937565b506020830151848203602086015261168282826113fa565b9150506040830151848203604086015261169c82826113fa565b91505060608301516116b16060860182611937565b5060808301516116c46080860182611937565b5060a08301516116d760a0860182611937565b5060c08301516116ea60c0860182611937565b5060e08301516116fd60e08601826113eb565b506101008301516117126101008601826112eb565b508091505092915050565b60006101208301600080840154905061173581611db1565b6117426000870182611937565b506001840185830360208701526117598382611433565b9250506002840185830360408701526117728382611433565b9250506003840154905061178581611db1565b6117926060870182611937565b50600484015490506117a381611db1565b6117b06080870182611937565b50600584015490506117c181611db1565b6117ce60a0870182611937565b50600684015490506117df81611db1565b6117ec60c0870182611937565b50600784015490506117fd81611d97565b61180a60e08701826113eb565b5061181481611dcb565b6118226101008701826112eb565b50819250505092915050565b60a0820160008201516118446000850182611937565b5060208201516118576020850182611937565b50604082015161186a60408501826112fa565b50606082015161187d6060850182611937565b5060808201516118906080850182611937565b50505050565b60a0820160008083015490506118ab81611db1565b6118b86000860182611937565b50600183015490506118c981611db1565b6118d66020860182611937565b50600283015490506118e781611d7d565b6118f460408601826112fa565b506003830154905061190581611db1565b6119126060860182611937565b506004830154905061192381611db1565b6119306080860182611937565b5050505050565b61194081611cff565b82525050565b600060208201905061195b6000830184611309565b92915050565b6000602082019050818103600083015261197b8184611318565b905092915050565b6000602082019050818103600083015261199d818461138d565b905092915050565b600060208201905081810360008301526119be816114b3565b9050919050565b600060208201905081810360008301526119de816114d6565b9050919050565b600060208201905081810360008301526119fe816114f9565b9050919050565b60006020820190508181036000830152611a1e8161151c565b9050919050565b60006020820190508181036000830152611a3e8161153f565b9050919050565b60006020820190508181036000830152611a5e81611562565b9050919050565b60006020820190508181036000830152611a7f8184611651565b905092915050565b60006020820190508181036000830152611aa1818461171d565b905092915050565b600060a082019050611abe6000830184611896565b92915050565b6000611ace611adf565b9050611ada8282611de5565b919050565b6000604051905090565b600067ffffffffffffffff821115611b0457611b03611eec565b5b611b0d82611f2f565b9050602081019050919050565b6000819050602082019050919050565b6000819050602082019050919050565b60008190508160005260206000209050919050565b600081519050919050565b600081519050919050565b600081519050919050565b6000602082019050919050565b6000602082019050919050565b600082825260208201905092915050565b600082825260208201905092915050565b600082825260208201905092915050565b600082825260208201905092915050565b6000611bd982611cff565b9150611be483611cff565b9250827fffffffffffffffffffffffffffffffffffffffffffffffffffffffffffffffff03821115611c1957611c18611e5f565b5b828201905092915050565b6000611c2f82611cff565b9150611c3a83611cff565b925082821015611c4d57611c4c611e5f565b5b828203905092915050565b600073ffffffffffffffffffffffffffffffffffffffff82169050919050565b600073ffffffffffffffffffffffffffffffffffffffff82169050919050565b600060ff82169050919050565b6000819050919050565b6000611cba82611cdf565b9050919050565b6000611ccc82611cdf565b9050919050565b60008115159050919050565b600073ffffffffffffffffffffffffffffffffffffffff82169050919050565b6000819050919050565b82818337600083830152505050565b60005b83811015611d36578082015181840152602081019050611d1b565b83811115611d45576000848401525b50505050565b60006002820490506001821680611d6357607f821691505b60208210811415611d7757611d76611e8e565b5b50919050565b6000611d90611d8b83611f40565b611c58565b9050919050565b6000611daa611da583611f40565b611c98565b9050919050565b6000611dc4611dbf83611f40565b611ca5565b9050919050565b6000611dde611dd983611f4d565b611c78565b9050919050565b611dee82611f2f565b810181811067ffffffffffffffff82111715611e0d57611e0c611eec565b5b80604052505050565b6000611e2182611cff565b91507fffffffffffffffffffffffffffffffffffffffffffffffffffffffffffffffff821415611e5457611e53611e5f565b5b600182019050919050565b7f4e487b7100000000000000000000000000000000000000000000000000000000600052601160045260246000fd5b7f4e487b7100000000000000000000000000000000000000000000000000000000600052602260045260246000fd5b7f4e487b7100000000000000000000000000000000000000000000000000000000600052603260045260246000fd5b7f4e487b7100000000000000000000000000000000000000000000000000000000600052604160045260246000fd5b600080fd5b600080fd5b600080fd5b600080fd5b6000601f19601f8301169050919050565b60008160001c9050919050565b60008160081c9050919050565b7f456e6420646174652d74696d652073686f756c6420626520677265617465722060008201527f7468616e20737461727420646174652d74696d652e0000000000000000000000602082015250565b7f537461727420646174652d74696d652073686f756c642062652067726561746560008201527f72207468616e2063757272656e7420646174652d74696d652e00000000000000602082015250565b7f46756e6420686173206e6f742073746172746564207965742e00000000000000600082015250565b7f46756e64206973206163746976652c2063616e6e6f74207472616e736665722060008201527f616d6f756e74206e6f772e000000000000000000000000000000000000000000602082015250565b7f46756e6420697320636c6f7365642e0000000000000000000000000000000000600082015250565b7f53656e646572206e6f7420617574686f72697a65642e00000000000000000000600082015250565b6120cb81611caf565b81146120d657600080fd5b50565b6120e281611cc1565b81146120ed57600080fd5b50565b6120f981611cff565b811461210457600080fd5b5056fea264697066735822122033a015a8f22fcc9b9f4bb74c24c8c795015380f42fd3a8e45c61079551325f7364736f6c63430008070033",
					"opcodes": "PUSH1 0x80 PUSH1 0x40 MSTORE CALLVALUE DUP1 ISZERO PUSH2 0x10 JUMPI PUSH1 0x0 DUP1 REVERT JUMPDEST POP CALLER PUSH1 0x0 DUP1 PUSH2 0x100 EXP DUP2 SLOAD DUP2 PUSH20 0xFFFFFFFFFFFFFFFFFFFFFFFFFFFFFFFFFFFFFFFF MUL NOT AND SWAP1 DUP4 PUSH20 0xFFFFFFFFFFFFFFFFFFFFFFFFFFFFFFFFFFFFFFFF AND MUL OR SWAP1 SSTORE POP PUSH2 0x213D DUP1 PUSH2 0x60 PUSH1 0x0 CODECOPY PUSH1 0x0 RETURN INVALID PUSH1 0x80 PUSH1 0x40 MSTORE PUSH1 0x4 CALLDATASIZE LT PUSH2 0x7B JUMPI PUSH1 0x0 CALLDATALOAD PUSH1 0xE0 SHR DUP1 PUSH4 0x5114CB52 GT PUSH2 0x4E JUMPI DUP1 PUSH4 0x5114CB52 EQ PUSH2 0x150 JUMPI DUP1 PUSH4 0x526ED285 EQ PUSH2 0x179 JUMPI DUP1 PUSH4 0x8DCD8915 EQ PUSH2 0x1A2 JUMPI DUP1 PUSH4 0xA3FBBAAE EQ PUSH2 0x1BE JUMPI PUSH2 0x7B JUMP JUMPDEST DUP1 PUSH4 0x149E685A EQ PUSH2 0x80 JUMPI DUP1 PUSH4 0x1C69B464 EQ PUSH2 0xBD JUMPI DUP1 PUSH4 0x26EF2ADF EQ PUSH2 0xE8 JUMPI DUP1 PUSH4 0x481C6A75 EQ PUSH2 0x125 JUMPI JUMPDEST PUSH1 0x0 DUP1 REVERT JUMPDEST CALLVALUE DUP1 ISZERO PUSH2 0x8C JUMPI PUSH1 0x0 DUP1 REVERT JUMPDEST POP PUSH2 0xA7 PUSH1 0x4 DUP1 CALLDATASIZE SUB DUP2 ADD SWAP1 PUSH2 0xA2 SWAP2 SWAP1 PUSH2 0x1292 JUMP JUMPDEST PUSH2 0x1E7 JUMP JUMPDEST PUSH1 0x40 MLOAD PUSH2 0xB4 SWAP2 SWAP1 PUSH2 0x1A65 JUMP JUMPDEST PUSH1 0x40 MLOAD DUP1 SWAP2 SUB SWAP1 RETURN JUMPDEST CALLVALUE DUP1 ISZERO PUSH2 0xC9 JUMPI PUSH1 0x0 DUP1 REVERT JUMPDEST POP PUSH2 0xD2 PUSH2 0x3DC JUMP JUMPDEST PUSH1 0x40 MLOAD PUSH2 0xDF SWAP2 SWAP1 PUSH2 0x1961 JUMP JUMPDEST PUSH1 0x40 MLOAD DUP1 SWAP2 SUB SWAP1 RETURN JUMPDEST CALLVALUE DUP1 ISZERO PUSH2 0xF4 JUMPI PUSH1 0x0 DUP1 REVERT JUMPDEST POP PUSH2 0x10F PUSH1 0x4 DUP1 CALLDATASIZE SUB DUP2 ADD SWAP1 PUSH2 0x10A SWAP2 SWAP1 PUSH2 0x1292 JUMP JUMPDEST PUSH2 0x664 JUMP JUMPDEST PUSH1 0x40 MLOAD PUSH2 0x11C SWAP2 SWAP1 PUSH2 0x1983 JUMP JUMPDEST PUSH1 0x40 MLOAD DUP1 SWAP2 SUB SWAP1 RETURN JUMPDEST CALLVALUE DUP1 ISZERO PUSH2 0x131 JUMPI PUSH1 0x0 DUP1 REVERT JUMPDEST POP PUSH2 0x13A PUSH2 0x7F1 JUMP JUMPDEST PUSH1 0x40 MLOAD PUSH2 0x147 SWAP2 SWAP1 PUSH2 0x1946 JUMP JUMPDEST PUSH1 0x40 MLOAD DUP1 SWAP2 SUB SWAP1 RETURN JUMPDEST CALLVALUE DUP1 ISZERO PUSH2 0x15C JUMPI PUSH1 0x0 DUP1 REVERT JUMPDEST POP PUSH2 0x177 PUSH1 0x4 DUP1 CALLDATASIZE SUB DUP2 ADD SWAP1 PUSH2 0x172 SWAP2 SWAP1 PUSH2 0x1292 JUMP JUMPDEST PUSH2 0x815 JUMP JUMPDEST STOP JUMPDEST CALLVALUE DUP1 ISZERO PUSH2 0x185 JUMPI PUSH1 0x0 DUP1 REVERT JUMPDEST POP PUSH2 0x1A0 PUSH1 0x4 DUP1 CALLDATASIZE SUB DUP2 ADD SWAP1 PUSH2 0x19B SWAP2 SWAP1 PUSH2 0x11CD JUMP JUMPDEST PUSH2 0xA2D JUMP JUMPDEST STOP JUMPDEST PUSH2 0x1BC PUSH1 0x4 DUP1 CALLDATASIZE SUB DUP2 ADD SWAP1 PUSH2 0x1B7 SWAP2 SWAP1 PUSH2 0x1292 JUMP JUMPDEST PUSH2 0xC74 JUMP JUMPDEST STOP JUMPDEST CALLVALUE DUP1 ISZERO PUSH2 0x1CA JUMPI PUSH1 0x0 DUP1 REVERT JUMPDEST POP PUSH2 0x1E5 PUSH1 0x4 DUP1 CALLDATASIZE SUB DUP2 ADD SWAP1 PUSH2 0x1E0 SWAP2 SWAP1 PUSH2 0x11A0 JUMP JUMPDEST PUSH2 0xED2 JUMP JUMPDEST STOP JUMPDEST PUSH2 0x1EF PUSH2 0xFA5 JUMP JUMPDEST PUSH1 0x1 PUSH1 0x0 DUP4 DUP2 MSTORE PUSH1 0x20 ADD SWAP1 DUP2 MSTORE PUSH1 0x20 ADD PUSH1 0x0 KECCAK256 PUSH1 0x40 MLOAD DUP1 PUSH2 0x120 ADD PUSH1 0x40 MSTORE SWAP1 DUP2 PUSH1 0x0 DUP3 ADD SLOAD DUP2 MSTORE PUSH1 0x20 ADD PUSH1 0x1 DUP3 ADD DUP1 SLOAD PUSH2 0x228 SWAP1 PUSH2 0x1D4B JUMP JUMPDEST DUP1 PUSH1 0x1F ADD PUSH1 0x20 DUP1 SWAP2 DIV MUL PUSH1 0x20 ADD PUSH1 0x40 MLOAD SWAP1 DUP2 ADD PUSH1 0x40 MSTORE DUP1 SWAP3 SWAP2 SWAP1 DUP2 DUP2 MSTORE PUSH1 0x20 ADD DUP3 DUP1 SLOAD PUSH2 0x254 SWAP1 PUSH2 0x1D4B JUMP JUMPDEST DUP1 ISZERO PUSH2 0x2A1 JUMPI DUP1 PUSH1 0x1F LT PUSH2 0x276 JUMPI PUSH2 0x100 DUP1 DUP4 SLOAD DIV MUL DUP4 MSTORE SWAP2 PUSH1 0x20 ADD SWAP2 PUSH2 0x2A1 JUMP JUMPDEST DUP3 ADD SWAP2 SWAP1 PUSH1 0x0 MSTORE PUSH1 0x20 PUSH1 0x0 KECCAK256 SWAP1 JUMPDEST DUP2 SLOAD DUP2 MSTORE SWAP1 PUSH1 0x1 ADD SWAP1 PUSH1 0x20 ADD DUP1 DUP4 GT PUSH2 0x284 JUMPI DUP3 SWAP1 SUB PUSH1 0x1F AND DUP3 ADD SWAP2 JUMPDEST POP POP POP POP POP DUP2 MSTORE PUSH1 0x20 ADD PUSH1 0x2 DUP3 ADD DUP1 SLOAD PUSH2 0x2BA SWAP1 PUSH2 0x1D4B JUMP JUMPDEST DUP1 PUSH1 0x1F ADD PUSH1 0x20 DUP1 SWAP2 DIV MUL PUSH1 0x20 ADD PUSH1 0x40 MLOAD SWAP1 DUP2 ADD PUSH1 0x40 MSTORE DUP1 SWAP3 SWAP2 SWAP1 DUP2 DUP2 MSTORE PUSH1 0x20 ADD DUP3 DUP1 SLOAD PUSH2 0x2E6 SWAP1 PUSH2 0x1D4B JUMP JUMPDEST DUP1 ISZERO PUSH2 0x333 JUMPI DUP1 PUSH1 0x1F LT PUSH2 0x308 JUMPI PUSH2 0x100 DUP1 DUP4 SLOAD DIV MUL DUP4 MSTORE SWAP2 PUSH1 0x20 ADD SWAP2 PUSH2 0x333 JUMP JUMPDEST DUP3 ADD SWAP2 SWAP1 PUSH1 0x0 MSTORE PUSH1 0x20 PUSH1 0x0 KECCAK256 SWAP1 JUMPDEST DUP2 SLOAD DUP2 MSTORE SWAP1 PUSH1 0x1 ADD SWAP1 PUSH1 0x20 ADD DUP1 DUP4 GT PUSH2 0x316 JUMPI DUP3 SWAP1 SUB PUSH1 0x1F AND DUP3 ADD SWAP2 JUMPDEST POP POP POP POP POP DUP2 MSTORE PUSH1 0x20 ADD PUSH1 0x3 DUP3 ADD SLOAD DUP2 MSTORE PUSH1 0x20 ADD PUSH1 0x4 DUP3 ADD SLOAD DUP2 MSTORE PUSH1 0x20 ADD PUSH1 0x5 DUP3 ADD SLOAD DUP2 MSTORE PUSH1 0x20 ADD PUSH1 0x6 DUP3 ADD SLOAD DUP2 MSTORE PUSH1 0x20 ADD PUSH1 0x7 DUP3 ADD PUSH1 0x0 SWAP1 SLOAD SWAP1 PUSH2 0x100 EXP SWAP1 DIV PUSH1 0xFF AND ISZERO ISZERO ISZERO ISZERO DUP2 MSTORE PUSH1 0x20 ADD PUSH1 0x7 DUP3 ADD PUSH1 0x1 SWAP1 SLOAD SWAP1 PUSH2 0x100 EXP SWAP1 DIV PUSH20 0xFFFFFFFFFFFFFFFFFFFFFFFFFFFFFFFFFFFFFFFF AND PUSH20 0xFFFFFFFFFFFFFFFFFFFFFFFFFFFFFFFFFFFFFFFF AND PUSH20 0xFFFFFFFFFFFFFFFFFFFFFFFFFFFFFFFFFFFFFFFF AND DUP2 MSTORE POP POP SWAP1 POP SWAP2 SWAP1 POP JUMP JUMPDEST PUSH1 0x60 PUSH1 0x0 PUSH1 0x3 SLOAD PUSH8 0xFFFFFFFFFFFFFFFF DUP2 GT ISZERO PUSH2 0x3FC JUMPI PUSH2 0x3FB PUSH2 0x1EEC JUMP JUMPDEST JUMPDEST PUSH1 0x40 MLOAD SWAP1 DUP1 DUP3 MSTORE DUP1 PUSH1 0x20 MUL PUSH1 0x20 ADD DUP3 ADD PUSH1 0x40 MSTORE DUP1 ISZERO PUSH2 0x435 JUMPI DUP2 PUSH1 0x20 ADD JUMPDEST PUSH2 0x422 PUSH2 0xFA5 JUMP JUMPDEST DUP2 MSTORE PUSH1 0x20 ADD SWAP1 PUSH1 0x1 SWAP1 SUB SWAP1 DUP2 PUSH2 0x41A JUMPI SWAP1 POP JUMPDEST POP SWAP1 POP PUSH1 0x0 JUMPDEST PUSH1 0x3 SLOAD DUP2 LT ISZERO PUSH2 0x65C JUMPI PUSH1 0x1 PUSH1 0x0 DUP3 DUP2 MSTORE PUSH1 0x20 ADD SWAP1 DUP2 MSTORE PUSH1 0x20 ADD PUSH1 0x0 KECCAK256 PUSH1 0x40 MLOAD DUP1 PUSH2 0x120 ADD PUSH1 0x40 MSTORE SWAP1 DUP2 PUSH1 0x0 DUP3 ADD SLOAD DUP2 MSTORE PUSH1 0x20 ADD PUSH1 0x1 DUP3 ADD DUP1 SLOAD PUSH2 0x47E SWAP1 PUSH2 0x1D4B JUMP JUMPDEST DUP1 PUSH1 0x1F ADD PUSH1 0x20 DUP1 SWAP2 DIV MUL PUSH1 0x20 ADD PUSH1 0x40 MLOAD SWAP1 DUP2 ADD PUSH1 0x40 MSTORE DUP1 SWAP3 SWAP2 SWAP1 DUP2 DUP2 MSTORE PUSH1 0x20 ADD DUP3 DUP1 SLOAD PUSH2 0x4AA SWAP1 PUSH2 0x1D4B JUMP JUMPDEST DUP1 ISZERO PUSH2 0x4F7 JUMPI DUP1 PUSH1 0x1F LT PUSH2 0x4CC JUMPI PUSH2 0x100 DUP1 DUP4 SLOAD DIV MUL DUP4 MSTORE SWAP2 PUSH1 0x20 ADD SWAP2 PUSH2 0x4F7 JUMP JUMPDEST DUP3 ADD SWAP2 SWAP1 PUSH1 0x0 MSTORE PUSH1 0x20 PUSH1 0x0 KECCAK256 SWAP1 JUMPDEST DUP2 SLOAD DUP2 MSTORE SWAP1 PUSH1 0x1 ADD SWAP1 PUSH1 0x20 ADD DUP1 DUP4 GT PUSH2 0x4DA JUMPI DUP3 SWAP1 SUB PUSH1 0x1F AND DUP3 ADD SWAP2 JUMPDEST POP POP POP POP POP DUP2 MSTORE PUSH1 0x20 ADD PUSH1 0x2 DUP3 ADD DUP1 SLOAD PUSH2 0x510 SWAP1 PUSH2 0x1D4B JUMP JUMPDEST DUP1 PUSH1 0x1F ADD PUSH1 0x20 DUP1 SWAP2 DIV MUL PUSH1 0x20 ADD PUSH1 0x40 MLOAD SWAP1 DUP2 ADD PUSH1 0x40 MSTORE DUP1 SWAP3 SWAP2 SWAP1 DUP2 DUP2 MSTORE PUSH1 0x20 ADD DUP3 DUP1 SLOAD PUSH2 0x53C SWAP1 PUSH2 0x1D4B JUMP JUMPDEST DUP1 ISZERO PUSH2 0x589 JUMPI DUP1 PUSH1 0x1F LT PUSH2 0x55E JUMPI PUSH2 0x100 DUP1 DUP4 SLOAD DIV MUL DUP4 MSTORE SWAP2 PUSH1 0x20 ADD SWAP2 PUSH2 0x589 JUMP JUMPDEST DUP3 ADD SWAP2 SWAP1 PUSH1 0x0 MSTORE PUSH1 0x20 PUSH1 0x0 KECCAK256 SWAP1 JUMPDEST DUP2 SLOAD DUP2 MSTORE SWAP1 PUSH1 0x1 ADD SWAP1 PUSH1 0x20 ADD DUP1 DUP4 GT PUSH2 0x56C JUMPI DUP3 SWAP1 SUB PUSH1 0x1F AND DUP3 ADD SWAP2 JUMPDEST POP POP POP POP POP DUP2 MSTORE PUSH1 0x20 ADD PUSH1 0x3 DUP3 ADD SLOAD DUP2 MSTORE PUSH1 0x20 ADD PUSH1 0x4 DUP3 ADD SLOAD DUP2 MSTORE PUSH1 0x20 ADD PUSH1 0x5 DUP3 ADD SLOAD DUP2 MSTORE PUSH1 0x20 ADD PUSH1 0x6 DUP3 ADD SLOAD DUP2 MSTORE PUSH1 0x20 ADD PUSH1 0x7 DUP3 ADD PUSH1 0x0 SWAP1 SLOAD SWAP1 PUSH2 0x100 EXP SWAP1 DIV PUSH1 0xFF AND ISZERO ISZERO ISZERO ISZERO DUP2 MSTORE PUSH1 0x20 ADD PUSH1 0x7 DUP3 ADD PUSH1 0x1 SWAP1 SLOAD SWAP1 PUSH2 0x100 EXP SWAP1 DIV PUSH20 0xFFFFFFFFFFFFFFFFFFFFFFFFFFFFFFFFFFFFFFFF AND PUSH20 0xFFFFFFFFFFFFFFFFFFFFFFFFFFFFFFFFFFFFFFFF AND PUSH20 0xFFFFFFFFFFFFFFFFFFFFFFFFFFFFFFFFFFFFFFFF AND DUP2 MSTORE POP POP DUP3 DUP3 DUP2 MLOAD DUP2 LT PUSH2 0x63E JUMPI PUSH2 0x63D PUSH2 0x1EBD JUMP JUMPDEST JUMPDEST PUSH1 0x20 MUL PUSH1 0x20 ADD ADD DUP2 SWAP1 MSTORE POP DUP1 DUP1 PUSH2 0x654 SWAP1 PUSH2 0x1E16 JUMP JUMPDEST SWAP2 POP POP PUSH2 0x43B JUMP JUMPDEST POP DUP1 SWAP2 POP POP SWAP1 JUMP JUMPDEST PUSH1 0x60 PUSH1 0x0 PUSH1 0x4 SLOAD PUSH8 0xFFFFFFFFFFFFFFFF DUP2 GT ISZERO PUSH2 0x684 JUMPI PUSH2 0x683 PUSH2 0x1EEC JUMP JUMPDEST JUMPDEST PUSH1 0x40 MLOAD SWAP1 DUP1 DUP3 MSTORE DUP1 PUSH1 0x20 MUL PUSH1 0x20 ADD DUP3 ADD PUSH1 0x40 MSTORE DUP1 ISZERO PUSH2 0x6BD JUMPI DUP2 PUSH1 0x20 ADD JUMPDEST PUSH2 0x6AA PUSH2 0x1009 JUMP JUMPDEST DUP2 MSTORE PUSH1 0x20 ADD SWAP1 PUSH1 0x1 SWAP1 SUB SWAP1 DUP2 PUSH2 0x6A2 JUMPI SWAP1 POP JUMPDEST POP SWAP1 POP PUSH1 0x0 DUP1 JUMPDEST PUSH1 0x4 SLOAD DUP2 LT ISZERO PUSH2 0x7E6 JUMPI DUP5 PUSH1 0x2 DUP3 DUP2 SLOAD DUP2 LT PUSH2 0x6E3 JUMPI PUSH2 0x6E2 PUSH2 0x1EBD JUMP JUMPDEST JUMPDEST SWAP1 PUSH1 0x0 MSTORE PUSH1 0x20 PUSH1 0x0 KECCAK256 SWAP1 PUSH1 0x5 MUL ADD PUSH1 0x1 ADD SLOAD EQ ISZERO PUSH2 0x7D3 JUMPI PUSH1 0x2 DUP2 DUP2 SLOAD DUP2 LT PUSH2 0x70F JUMPI PUSH2 0x70E PUSH2 0x1EBD JUMP JUMPDEST JUMPDEST SWAP1 PUSH1 0x0 MSTORE PUSH1 0x20 PUSH1 0x0 KECCAK256 SWAP1 PUSH1 0x5 MUL ADD PUSH1 0x40 MLOAD DUP1 PUSH1 0xA0 ADD PUSH1 0x40 MSTORE SWAP1 DUP2 PUSH1 0x0 DUP3 ADD SLOAD DUP2 MSTORE PUSH1 0x20 ADD PUSH1 0x1 DUP3 ADD SLOAD DUP2 MSTORE PUSH1 0x20 ADD PUSH1 0x2 DUP3 ADD PUSH1 0x0 SWAP1 SLOAD SWAP1 PUSH2 0x100 EXP SWAP1 DIV PUSH20 0xFFFFFFFFFFFFFFFFFFFFFFFFFFFFFFFFFFFFFFFF AND PUSH20 0xFFFFFFFFFFFFFFFFFFFFFFFFFFFFFFFFFFFFFFFF AND PUSH20 0xFFFFFFFFFFFFFFFFFFFFFFFFFFFFFFFFFFFFFFFF AND DUP2 MSTORE PUSH1 0x20 ADD PUSH1 0x3 DUP3 ADD SLOAD DUP2 MSTORE PUSH1 0x20 ADD PUSH1 0x4 DUP3 ADD SLOAD DUP2 MSTORE POP POP DUP4 DUP4 DUP2 MLOAD DUP2 LT PUSH2 0x7B9 JUMPI PUSH2 0x7B8 PUSH2 0x1EBD JUMP JUMPDEST JUMPDEST PUSH1 0x20 MUL PUSH1 0x20 ADD ADD DUP2 SWAP1 MSTORE POP DUP2 DUP1 PUSH2 0x7CF SWAP1 PUSH2 0x1E16 JUMP JUMPDEST SWAP3 POP POP JUMPDEST DUP1 DUP1 PUSH2 0x7DE SWAP1 PUSH2 0x1E16 JUMP JUMPDEST SWAP2 POP POP PUSH2 0x6C4 JUMP JUMPDEST POP DUP2 SWAP3 POP POP POP SWAP2 SWAP1 POP JUMP JUMPDEST PUSH1 0x0 DUP1 SLOAD SWAP1 PUSH2 0x100 EXP SWAP1 DIV PUSH20 0xFFFFFFFFFFFFFFFFFFFFFFFFFFFFFFFFFFFFFFFF AND DUP2 JUMP JUMPDEST PUSH1 0x0 DUP1 SLOAD SWAP1 PUSH2 0x100 EXP SWAP1 DIV PUSH20 0xFFFFFFFFFFFFFFFFFFFFFFFFFFFFFFFFFFFFFFFF AND CALLER PUSH20 0xFFFFFFFFFFFFFFFFFFFFFFFFFFFFFFFFFFFFFFFF AND DUP2 PUSH20 0xFFFFFFFFFFFFFFFFFFFFFFFFFFFFFFFFFFFFFFFF AND EQ PUSH2 0x8A4 JUMPI PUSH1 0x40 MLOAD PUSH32 0x8C379A000000000000000000000000000000000000000000000000000000000 DUP2 MSTORE PUSH1 0x4 ADD PUSH2 0x89B SWAP1 PUSH2 0x1A45 JUMP JUMPDEST PUSH1 0x40 MLOAD DUP1 SWAP2 SUB SWAP1 REVERT JUMPDEST PUSH1 0x0 PUSH1 0x1 PUSH1 0x0 DUP5 DUP2 MSTORE PUSH1 0x20 ADD SWAP1 DUP2 MSTORE PUSH1 0x20 ADD PUSH1 0x0 KECCAK256 SWAP1 POP DUP1 PUSH1 0x7 ADD PUSH1 0x0 SWAP1 SLOAD SWAP1 PUSH2 0x100 EXP SWAP1 DIV PUSH1 0xFF AND PUSH2 0x90C JUMPI PUSH1 0x40 MLOAD PUSH32 0x8C379A000000000000000000000000000000000000000000000000000000000 DUP2 MSTORE PUSH1 0x4 ADD PUSH2 0x903 SWAP1 PUSH2 0x1A25 JUMP JUMPDEST PUSH1 0x40 MLOAD DUP1 SWAP2 SUB SWAP1 REVERT JUMPDEST DUP1 PUSH1 0x5 ADD SLOAD DUP2 PUSH1 0x6 ADD SLOAD LT ISZERO DUP1 PUSH2 0x926 JUMPI POP TIMESTAMP DUP2 PUSH1 0x4 ADD SLOAD LT JUMPDEST PUSH2 0x965 JUMPI PUSH1 0x40 MLOAD PUSH32 0x8C379A000000000000000000000000000000000000000000000000000000000 DUP2 MSTORE PUSH1 0x4 ADD PUSH2 0x95C SWAP1 PUSH2 0x1A05 JUMP JUMPDEST PUSH1 0x40 MLOAD DUP1 SWAP2 SUB SWAP1 REVERT JUMPDEST DUP1 PUSH1 0x7 ADD PUSH1 0x1 SWAP1 SLOAD SWAP1 PUSH2 0x100 EXP SWAP1 DIV PUSH20 0xFFFFFFFFFFFFFFFFFFFFFFFFFFFFFFFFFFFFFFFF AND PUSH20 0xFFFFFFFFFFFFFFFFFFFFFFFFFFFFFFFFFFFFFFFF AND PUSH2 0x8FC DUP3 PUSH1 0x6 ADD SLOAD SWAP1 DUP2 ISZERO MUL SWAP1 PUSH1 0x40 MLOAD PUSH1 0x0 PUSH1 0x40 MLOAD DUP1 DUP4 SUB DUP2 DUP6 DUP9 DUP9 CALL SWAP4 POP POP POP POP ISZERO DUP1 ISZERO PUSH2 0x9D3 JUMPI RETURNDATASIZE PUSH1 0x0 DUP1 RETURNDATACOPY RETURNDATASIZE PUSH1 0x0 REVERT JUMPDEST POP PUSH1 0x0 DUP2 PUSH1 0x7 ADD PUSH1 0x0 PUSH2 0x100 EXP DUP2 SLOAD DUP2 PUSH1 0xFF MUL NOT AND SWAP1 DUP4 ISZERO ISZERO MUL OR SWAP1 SSTORE POP PUSH32 0xEBE924212DAE5E1EF7A2572E54FD89E974740A2657AF9EE2595830DC77480F83 DUP2 PUSH1 0x40 MLOAD PUSH2 0xA20 SWAP2 SWAP1 PUSH2 0x1A87 JUMP JUMPDEST PUSH1 0x40 MLOAD DUP1 SWAP2 SUB SWAP1 LOG1 POP POP POP JUMP JUMPDEST PUSH1 0x0 DUP1 SLOAD SWAP1 PUSH2 0x100 EXP SWAP1 DIV PUSH20 0xFFFFFFFFFFFFFFFFFFFFFFFFFFFFFFFFFFFFFFFF AND CALLER PUSH20 0xFFFFFFFFFFFFFFFFFFFFFFFFFFFFFFFFFFFFFFFF AND DUP2 PUSH20 0xFFFFFFFFFFFFFFFFFFFFFFFFFFFFFFFFFFFFFFFF AND EQ PUSH2 0xABC JUMPI PUSH1 0x40 MLOAD PUSH32 0x8C379A000000000000000000000000000000000000000000000000000000000 DUP2 MSTORE PUSH1 0x4 ADD PUSH2 0xAB3 SWAP1 PUSH2 0x1A45 JUMP JUMPDEST PUSH1 0x40 MLOAD DUP1 SWAP2 SUB SWAP1 REVERT JUMPDEST TIMESTAMP DUP6 GT PUSH2 0xAFE JUMPI PUSH1 0x40 MLOAD PUSH32 0x8C379A000000000000000000000000000000000000000000000000000000000 DUP2 MSTORE PUSH1 0x4 ADD PUSH2 0xAF5 SWAP1 PUSH2 0x19C5 JUMP JUMPDEST PUSH1 0x40 MLOAD DUP1 SWAP2 SUB SWAP1 REVERT JUMPDEST DUP5 DUP5 GT PUSH2 0xB40 JUMPI PUSH1 0x40 MLOAD PUSH32 0x8C379A000000000000000000000000000000000000000000000000000000000 DUP2 MSTORE PUSH1 0x4 ADD PUSH2 0xB37 SWAP1 PUSH2 0x19A5 JUMP JUMPDEST PUSH1 0x40 MLOAD DUP1 SWAP2 SUB SWAP1 REVERT JUMPDEST PUSH1 0x0 PUSH1 0x1 PUSH1 0x0 PUSH1 0x3 SLOAD DUP2 MSTORE PUSH1 0x20 ADD SWAP1 DUP2 MSTORE PUSH1 0x20 ADD PUSH1 0x0 KECCAK256 SWAP1 POP PUSH1 0x3 SLOAD DUP2 PUSH1 0x0 ADD DUP2 SWAP1 SSTORE POP DUP8 DUP2 PUSH1 0x1 ADD SWAP1 DUP1 MLOAD SWAP1 PUSH1 0x20 ADD SWAP1 PUSH2 0xB7C SWAP3 SWAP2 SWAP1 PUSH2 0x104E JUMP JUMPDEST POP DUP7 DUP2 PUSH1 0x2 ADD SWAP1 DUP1 MLOAD SWAP1 PUSH1 0x20 ADD SWAP1 PUSH2 0xB95 SWAP3 SWAP2 SWAP1 PUSH2 0x104E JUMP JUMPDEST POP DUP6 DUP2 PUSH1 0x3 ADD DUP2 SWAP1 SSTORE POP DUP5 DUP2 PUSH1 0x4 ADD DUP2 SWAP1 SSTORE POP DUP4 DUP2 PUSH1 0x5 ADD DUP2 SWAP1 SSTORE POP PUSH1 0x0 DUP2 PUSH1 0x6 ADD DUP2 SWAP1 SSTORE POP DUP3 DUP2 PUSH1 0x7 ADD PUSH1 0x1 PUSH2 0x100 EXP DUP2 SLOAD DUP2 PUSH20 0xFFFFFFFFFFFFFFFFFFFFFFFFFFFFFFFFFFFFFFFF MUL NOT AND SWAP1 DUP4 PUSH20 0xFFFFFFFFFFFFFFFFFFFFFFFFFFFFFFFFFFFFFFFF AND MUL OR SWAP1 SSTORE POP PUSH1 0x1 DUP2 PUSH1 0x7 ADD PUSH1 0x0 PUSH2 0x100 EXP DUP2 SLOAD DUP2 PUSH1 0xFF MUL NOT AND SWAP1 DUP4 ISZERO ISZERO MUL OR SWAP1 SSTORE POP PUSH1 0x3 PUSH1 0x0 DUP2 SLOAD DUP1 SWAP3 SWAP2 SWAP1 PUSH2 0xC2E SWAP1 PUSH2 0x1E16 JUMP JUMPDEST SWAP2 SWAP1 POP SSTORE POP PUSH32 0xFD78A022C6A35391FE265F0A393709BFF510BDF633ABC4E06987913B04EA5AD5 DUP2 PUSH1 0x40 MLOAD PUSH2 0xC62 SWAP2 SWAP1 PUSH2 0x1A87 JUMP JUMPDEST PUSH1 0x40 MLOAD DUP1 SWAP2 SUB SWAP1 LOG1 POP POP POP POP POP POP POP POP JUMP JUMPDEST PUSH1 0x0 PUSH1 0x1 PUSH1 0x0 DUP4 DUP2 MSTORE PUSH1 0x20 ADD SWAP1 DUP2 MSTORE PUSH1 0x20 ADD PUSH1 0x0 KECCAK256 SWAP1 POP DUP1 PUSH1 0x7 ADD PUSH1 0x0 SWAP1 SLOAD SWAP1 PUSH2 0x100 EXP SWAP1 DIV PUSH1 0xFF AND PUSH2 0xCDC JUMPI PUSH1 0x40 MLOAD PUSH32 0x8C379A000000000000000000000000000000000000000000000000000000000 DUP2 MSTORE PUSH1 0x4 ADD PUSH2 0xCD3 SWAP1 PUSH2 0x1A25 JUMP JUMPDEST PUSH1 0x40 MLOAD DUP1 SWAP2 SUB SWAP1 REVERT JUMPDEST TIMESTAMP DUP2 PUSH1 0x3 ADD SLOAD GT ISZERO PUSH2 0xD23 JUMPI PUSH1 0x40 MLOAD PUSH32 0x8C379A000000000000000000000000000000000000000000000000000000000 DUP2 MSTORE PUSH1 0x4 ADD PUSH2 0xD1A SWAP1 PUSH2 0x19E5 JUMP JUMPDEST PUSH1 0x40 MLOAD DUP1 SWAP2 SUB SWAP1 REVERT JUMPDEST PUSH1 0x2 PUSH1 0x40 MLOAD DUP1 PUSH1 0xA0 ADD PUSH1 0x40 MSTORE DUP1 PUSH1 0x4 SLOAD DUP2 MSTORE PUSH1 0x20 ADD DUP5 DUP2 MSTORE PUSH1 0x20 ADD CALLER PUSH20 0xFFFFFFFFFFFFFFFFFFFFFFFFFFFFFFFFFFFFFFFF AND DUP2 MSTORE PUSH1 0x20 ADD CALLVALUE DUP2 MSTORE PUSH1 0x20 ADD TIMESTAMP DUP2 MSTORE POP SWAP1 DUP1 PUSH1 0x1 DUP2 SLOAD ADD DUP1 DUP3 SSTORE DUP1 SWAP2 POP POP PUSH1 0x1 SWAP1 SUB SWAP1 PUSH1 0x0 MSTORE PUSH1 0x20 PUSH1 0x0 KECCAK256 SWAP1 PUSH1 0x5 MUL ADD PUSH1 0x0 SWAP1 SWAP2 SWAP1 SWAP2 SWAP1 SWAP2 POP PUSH1 0x0 DUP3 ADD MLOAD DUP2 PUSH1 0x0 ADD SSTORE PUSH1 0x20 DUP3 ADD MLOAD DUP2 PUSH1 0x1 ADD SSTORE PUSH1 0x40 DUP3 ADD MLOAD DUP2 PUSH1 0x2 ADD PUSH1 0x0 PUSH2 0x100 EXP DUP2 SLOAD DUP2 PUSH20 0xFFFFFFFFFFFFFFFFFFFFFFFFFFFFFFFFFFFFFFFF MUL NOT AND SWAP1 DUP4 PUSH20 0xFFFFFFFFFFFFFFFFFFFFFFFFFFFFFFFFFFFFFFFF AND MUL OR SWAP1 SSTORE POP PUSH1 0x60 DUP3 ADD MLOAD DUP2 PUSH1 0x3 ADD SSTORE PUSH1 0x80 DUP3 ADD MLOAD DUP2 PUSH1 0x4 ADD SSTORE POP POP PUSH1 0x4 PUSH1 0x0 DUP2 SLOAD DUP1 SWAP3 SWAP2 SWAP1 PUSH2 0xE11 SWAP1 PUSH2 0x1E16 JUMP JUMPDEST SWAP2 SWAP1 POP SSTORE POP CALLVALUE DUP2 PUSH1 0x6 ADD PUSH1 0x0 DUP3 DUP3 SLOAD PUSH2 0xE2A SWAP2 SWAP1 PUSH2 0x1BCE JUMP JUMPDEST SWAP3 POP POP DUP2 SWAP1 SSTORE POP PUSH32 0x59D91F387C713E7F74017154BA447AC5114D01ED128EABBA83094AC7CFFBB021 PUSH1 0x2 PUSH1 0x1 PUSH1 0x4 SLOAD PUSH2 0xE63 SWAP2 SWAP1 PUSH2 0x1C24 JUMP JUMPDEST DUP2 SLOAD DUP2 LT PUSH2 0xE74 JUMPI PUSH2 0xE73 PUSH2 0x1EBD JUMP JUMPDEST JUMPDEST SWAP1 PUSH1 0x0 MSTORE PUSH1 0x20 PUSH1 0x0 KECCAK256 SWAP1 PUSH1 0x5 MUL ADD PUSH1 0x40 MLOAD PUSH2 0xE8F SWAP2 SWAP1 PUSH2 0x1AA9 JUMP JUMPDEST PUSH1 0x40 MLOAD DUP1 SWAP2 SUB SWAP1 LOG1 PUSH32 0xC908814C12A367EAA7AE5D1B3EF8C36AB22B4C17CA0B0CDF1A7A2462A8FC5F6D DUP2 PUSH1 0x40 MLOAD PUSH2 0xEC6 SWAP2 SWAP1 PUSH2 0x1A87 JUMP JUMPDEST PUSH1 0x40 MLOAD DUP1 SWAP2 SUB SWAP1 LOG1 POP POP JUMP JUMPDEST PUSH1 0x0 DUP1 SLOAD SWAP1 PUSH2 0x100 EXP SWAP1 DIV PUSH20 0xFFFFFFFFFFFFFFFFFFFFFFFFFFFFFFFFFFFFFFFF AND CALLER PUSH20 0xFFFFFFFFFFFFFFFFFFFFFFFFFFFFFFFFFFFFFFFF AND DUP2 PUSH20 0xFFFFFFFFFFFFFFFFFFFFFFFFFFFFFFFFFFFFFFFF AND EQ PUSH2 0xF61 JUMPI PUSH1 0x40 MLOAD PUSH32 0x8C379A000000000000000000000000000000000000000000000000000000000 DUP2 MSTORE PUSH1 0x4 ADD PUSH2 0xF58 SWAP1 PUSH2 0x1A45 JUMP JUMPDEST PUSH1 0x40 MLOAD DUP1 SWAP2 SUB SWAP1 REVERT JUMPDEST DUP2 PUSH1 0x0 DUP1 PUSH2 0x100 EXP DUP2 SLOAD DUP2 PUSH20 0xFFFFFFFFFFFFFFFFFFFFFFFFFFFFFFFFFFFFFFFF MUL NOT AND SWAP1 DUP4 PUSH20 0xFFFFFFFFFFFFFFFFFFFFFFFFFFFFFFFFFFFFFFFF AND MUL OR SWAP1 SSTORE POP POP POP JUMP JUMPDEST PUSH1 0x40 MLOAD DUP1 PUSH2 0x120 ADD PUSH1 0x40 MSTORE DUP1 PUSH1 0x0 DUP2 MSTORE PUSH1 0x20 ADD PUSH1 0x60 DUP2 MSTORE PUSH1 0x20 ADD PUSH1 0x60 DUP2 MSTORE PUSH1 0x20 ADD PUSH1 0x0 DUP2 MSTORE PUSH1 0x20 ADD PUSH1 0x0 DUP2 MSTORE PUSH1 0x20 ADD PUSH1 0x0 DUP2 MSTORE PUSH1 0x20 ADD PUSH1 0x0 DUP2 MSTORE PUSH1 0x20 ADD PUSH1 0x0 ISZERO ISZERO DUP2 MSTORE PUSH1 0x20 ADD PUSH1 0x0 PUSH20 0xFFFFFFFFFFFFFFFFFFFFFFFFFFFFFFFFFFFFFFFF AND DUP2 MSTORE POP SWAP1 JUMP JUMPDEST PUSH1 0x40 MLOAD DUP1 PUSH1 0xA0 ADD PUSH1 0x40 MSTORE DUP1 PUSH1 0x0 DUP2 MSTORE PUSH1 0x20 ADD PUSH1 0x0 DUP2 MSTORE PUSH1 0x20 ADD PUSH1 0x0 PUSH20 0xFFFFFFFFFFFFFFFFFFFFFFFFFFFFFFFFFFFFFFFF AND DUP2 MSTORE PUSH1 0x20 ADD PUSH1 0x0 DUP2 MSTORE PUSH1 0x20 ADD PUSH1 0x0 DUP2 MSTORE POP SWAP1 JUMP JUMPDEST DUP3 DUP1 SLOAD PUSH2 0x105A SWAP1 PUSH2 0x1D4B JUMP JUMPDEST SWAP1 PUSH1 0x0 MSTORE PUSH1 0x20 PUSH1 0x0 KECCAK256 SWAP1 PUSH1 0x1F ADD PUSH1 0x20 SWAP1 DIV DUP2 ADD SWAP3 DUP3 PUSH2 0x107C JUMPI PUSH1 0x0 DUP6 SSTORE PUSH2 0x10C3 JUMP JUMPDEST DUP3 PUSH1 0x1F LT PUSH2 0x1095 JUMPI DUP1 MLOAD PUSH1 0xFF NOT AND DUP4 DUP1 ADD OR DUP6 SSTORE PUSH2 0x10C3 JUMP JUMPDEST DUP3 DUP1 ADD PUSH1 0x1 ADD DUP6 SSTORE DUP3 ISZERO PUSH2 0x10C3 JUMPI SWAP2 DUP3 ADD JUMPDEST DUP3 DUP2 GT ISZERO PUSH2 0x10C2 JUMPI DUP3 MLOAD DUP3 SSTORE SWAP2 PUSH1 0x20 ADD SWAP2 SWAP1 PUSH1 0x1 ADD SWAP1 PUSH2 0x10A7 JUMP JUMPDEST JUMPDEST POP SWAP1 POP PUSH2 0x10D0 SWAP2 SWAP1 PUSH2 0x10D4 JUMP JUMPDEST POP SWAP1 JUMP JUMPDEST JUMPDEST DUP1 DUP3 GT ISZERO PUSH2 0x10ED JUMPI PUSH1 0x0 DUP2 PUSH1 0x0 SWAP1 SSTORE POP PUSH1 0x1 ADD PUSH2 0x10D5 JUMP JUMPDEST POP SWAP1 JUMP JUMPDEST PUSH1 0x0 PUSH2 0x1104 PUSH2 0x10FF DUP5 PUSH2 0x1AE9 JUMP JUMPDEST PUSH2 0x1AC4 JUMP JUMPDEST SWAP1 POP DUP3 DUP2 MSTORE PUSH1 0x20 DUP2 ADD DUP5 DUP5 DUP5 ADD GT ISZERO PUSH2 0x1120 JUMPI PUSH2 0x111F PUSH2 0x1F20 JUMP JUMPDEST JUMPDEST PUSH2 0x112B DUP5 DUP3 DUP6 PUSH2 0x1D09 JUMP JUMPDEST POP SWAP4 SWAP3 POP POP POP JUMP JUMPDEST PUSH1 0x0 DUP2 CALLDATALOAD SWAP1 POP PUSH2 0x1142 DUP2 PUSH2 0x20C2 JUMP JUMPDEST SWAP3 SWAP2 POP POP JUMP JUMPDEST PUSH1 0x0 DUP2 CALLDATALOAD SWAP1 POP PUSH2 0x1157 DUP2 PUSH2 0x20D9 JUMP JUMPDEST SWAP3 SWAP2 POP POP JUMP JUMPDEST PUSH1 0x0 DUP3 PUSH1 0x1F DUP4 ADD SLT PUSH2 0x1172 JUMPI PUSH2 0x1171 PUSH2 0x1F1B JUMP JUMPDEST JUMPDEST DUP2 CALLDATALOAD PUSH2 0x1182 DUP5 DUP3 PUSH1 0x20 DUP7 ADD PUSH2 0x10F1 JUMP JUMPDEST SWAP2 POP POP SWAP3 SWAP2 POP POP JUMP JUMPDEST PUSH1 0x0 DUP2 CALLDATALOAD SWAP1 POP PUSH2 0x119A DUP2 PUSH2 0x20F0 JUMP JUMPDEST SWAP3 SWAP2 POP POP JUMP JUMPDEST PUSH1 0x0 PUSH1 0x20 DUP3 DUP5 SUB SLT ISZERO PUSH2 0x11B6 JUMPI PUSH2 0x11B5 PUSH2 0x1F2A JUMP JUMPDEST JUMPDEST PUSH1 0x0 PUSH2 0x11C4 DUP5 DUP3 DUP6 ADD PUSH2 0x1133 JUMP JUMPDEST SWAP2 POP POP SWAP3 SWAP2 POP POP JUMP JUMPDEST PUSH1 0x0 DUP1 PUSH1 0x0 DUP1 PUSH1 0x0 DUP1 PUSH1 0xC0 DUP8 DUP10 SUB SLT ISZERO PUSH2 0x11EA JUMPI PUSH2 0x11E9 PUSH2 0x1F2A JUMP JUMPDEST JUMPDEST PUSH1 0x0 DUP8 ADD CALLDATALOAD PUSH8 0xFFFFFFFFFFFFFFFF DUP2 GT ISZERO PUSH2 0x1208 JUMPI PUSH2 0x1207 PUSH2 0x1F25 JUMP JUMPDEST JUMPDEST PUSH2 0x1214 DUP10 DUP3 DUP11 ADD PUSH2 0x115D JUMP JUMPDEST SWAP7 POP POP PUSH1 0x20 DUP8 ADD CALLDATALOAD PUSH8 0xFFFFFFFFFFFFFFFF DUP2 GT ISZERO PUSH2 0x1235 JUMPI PUSH2 0x1234 PUSH2 0x1F25 JUMP JUMPDEST JUMPDEST PUSH2 0x1241 DUP10 DUP3 DUP11 ADD PUSH2 0x115D JUMP JUMPDEST SWAP6 POP POP PUSH1 0x40 PUSH2 0x1252 DUP10 DUP3 DUP11 ADD PUSH2 0x118B JUMP JUMPDEST SWAP5 POP POP PUSH1 0x60 PUSH2 0x1263 DUP10 DUP3 DUP11 ADD PUSH2 0x118B JUMP JUMPDEST SWAP4 POP POP PUSH1 0x80 PUSH2 0x1274 DUP10 DUP3 DUP11 ADD PUSH2 0x118B JUMP JUMPDEST SWAP3 POP POP PUSH1 0xA0 PUSH2 0x1285 DUP10 DUP3 DUP11 ADD PUSH2 0x1148 JUMP JUMPDEST SWAP2 POP POP SWAP3 SWAP6 POP SWAP3 SWAP6 POP SWAP3 SWAP6 JUMP JUMPDEST PUSH1 0x0 PUSH1 0x20 DUP3 DUP5 SUB SLT ISZERO PUSH2 0x12A8 JUMPI PUSH2 0x12A7 PUSH2 0x1F2A JUMP JUMPDEST JUMPDEST PUSH1 0x0 PUSH2 0x12B6 DUP5 DUP3 DUP6 ADD PUSH2 0x118B JUMP JUMPDEST SWAP2 POP POP SWAP3 SWAP2 POP POP JUMP JUMPDEST PUSH1 0x0 PUSH2 0x12CB DUP4 DUP4 PUSH2 0x1585 JUMP JUMPDEST SWAP1 POP SWAP3 SWAP2 POP POP JUMP JUMPDEST PUSH1 0x0 PUSH2 0x12DF DUP4 DUP4 PUSH2 0x182E JUMP JUMPDEST PUSH1 0xA0 DUP4 ADD SWAP1 POP SWAP3 SWAP2 POP POP JUMP JUMPDEST PUSH2 0x12F4 DUP2 PUSH2 0x1CC1 JUMP JUMPDEST DUP3 MSTORE POP POP JUMP JUMPDEST PUSH2 0x1303 DUP2 PUSH2 0x1CAF JUMP JUMPDEST DUP3 MSTORE POP POP JUMP JUMPDEST PUSH2 0x1312 DUP2 PUSH2 0x1CAF JUMP JUMPDEST DUP3 MSTORE POP POP JUMP JUMPDEST PUSH1 0x0 PUSH2 0x1323 DUP3 PUSH2 0x1B4F JUMP JUMPDEST PUSH2 0x132D DUP2 DUP6 PUSH2 0x1B8A JUMP JUMPDEST SWAP4 POP DUP4 PUSH1 0x20 DUP3 MUL DUP6 ADD PUSH2 0x133F DUP6 PUSH2 0x1B1A JUMP JUMPDEST DUP1 PUSH1 0x0 JUMPDEST DUP6 DUP2 LT ISZERO PUSH2 0x137B JUMPI DUP5 DUP5 SUB DUP10 MSTORE DUP2 MLOAD PUSH2 0x135C DUP6 DUP3 PUSH2 0x12BF JUMP JUMPDEST SWAP5 POP PUSH2 0x1367 DUP4 PUSH2 0x1B70 JUMP JUMPDEST SWAP3 POP PUSH1 0x20 DUP11 ADD SWAP10 POP POP PUSH1 0x1 DUP2 ADD SWAP1 POP PUSH2 0x1343 JUMP JUMPDEST POP DUP3 SWAP8 POP DUP8 SWAP6 POP POP POP POP POP POP SWAP3 SWAP2 POP POP JUMP JUMPDEST PUSH1 0x0 PUSH2 0x1398 DUP3 PUSH2 0x1B5A JUMP JUMPDEST PUSH2 0x13A2 DUP2 DUP6 PUSH2 0x1B9B JUMP JUMPDEST SWAP4 POP PUSH2 0x13AD DUP4 PUSH2 0x1B2A JUMP JUMPDEST DUP1 PUSH1 0x0 JUMPDEST DUP4 DUP2 LT ISZERO PUSH2 0x13DE JUMPI DUP2 MLOAD PUSH2 0x13C5 DUP9 DUP3 PUSH2 0x12D3 JUMP JUMPDEST SWAP8 POP PUSH2 0x13D0 DUP4 PUSH2 0x1B7D JUMP JUMPDEST SWAP3 POP POP PUSH1 0x1 DUP2 ADD SWAP1 POP PUSH2 0x13B1 JUMP JUMPDEST POP DUP6 SWAP4 POP POP POP POP SWAP3 SWAP2 POP POP JUMP JUMPDEST PUSH2 0x13F4 DUP2 PUSH2 0x1CD3 JUMP JUMPDEST DUP3 MSTORE POP POP JUMP JUMPDEST PUSH1 0x0 PUSH2 0x1405 DUP3 PUSH2 0x1B65 JUMP JUMPDEST PUSH2 0x140F DUP2 DUP6 PUSH2 0x1BAC JUMP JUMPDEST SWAP4 POP PUSH2 0x141F DUP2 DUP6 PUSH1 0x20 DUP7 ADD PUSH2 0x1D18 JUMP JUMPDEST PUSH2 0x1428 DUP2 PUSH2 0x1F2F JUMP JUMPDEST DUP5 ADD SWAP2 POP POP SWAP3 SWAP2 POP POP JUMP JUMPDEST PUSH1 0x0 DUP2 SLOAD PUSH2 0x1440 DUP2 PUSH2 0x1D4B JUMP JUMPDEST PUSH2 0x144A DUP2 DUP7 PUSH2 0x1BAC JUMP JUMPDEST SWAP5 POP PUSH1 0x1 DUP3 AND PUSH1 0x0 DUP2 EQ PUSH2 0x1465 JUMPI PUSH1 0x1 DUP2 EQ PUSH2 0x1477 JUMPI PUSH2 0x14AA JUMP JUMPDEST PUSH1 0xFF NOT DUP4 AND DUP7 MSTORE PUSH1 0x20 DUP7 ADD SWAP4 POP PUSH2 0x14AA JUMP JUMPDEST PUSH2 0x1480 DUP6 PUSH2 0x1B3A JUMP JUMPDEST PUSH1 0x0 JUMPDEST DUP4 DUP2 LT ISZERO PUSH2 0x14A2 JUMPI DUP2 SLOAD DUP2 DUP10 ADD MSTORE PUSH1 0x1 DUP3 ADD SWAP2 POP PUSH1 0x20 DUP2 ADD SWAP1 POP PUSH2 0x1483 JUMP JUMPDEST DUP1 DUP9 ADD SWAP6 POP POP POP JUMPDEST POP POP POP SWAP3 SWAP2 POP POP JUMP JUMPDEST PUSH1 0x0 PUSH2 0x14C0 PUSH1 0x35 DUP4 PUSH2 0x1BBD JUMP JUMPDEST SWAP2 POP PUSH2 0x14CB DUP3 PUSH2 0x1F5A JUMP JUMPDEST PUSH1 0x40 DUP3 ADD SWAP1 POP SWAP2 SWAP1 POP JUMP JUMPDEST PUSH1 0x0 PUSH2 0x14E3 PUSH1 0x39 DUP4 PUSH2 0x1BBD JUMP JUMPDEST SWAP2 POP PUSH2 0x14EE DUP3 PUSH2 0x1FA9 JUMP JUMPDEST PUSH1 0x40 DUP3 ADD SWAP1 POP SWAP2 SWAP1 POP JUMP JUMPDEST PUSH1 0x0 PUSH2 0x1506 PUSH1 0x19 DUP4 PUSH2 0x1BBD JUMP JUMPDEST SWAP2 POP PUSH2 0x1511 DUP3 PUSH2 0x1FF8 JUMP JUMPDEST PUSH1 0x20 DUP3 ADD SWAP1 POP SWAP2 SWAP1 POP JUMP JUMPDEST PUSH1 0x0 PUSH2 0x1529 PUSH1 0x2B DUP4 PUSH2 0x1BBD JUMP JUMPDEST SWAP2 POP PUSH2 0x1534 DUP3 PUSH2 0x2021 JUMP JUMPDEST PUSH1 0x40 DUP3 ADD SWAP1 POP SWAP2 SWAP1 POP JUMP JUMPDEST PUSH1 0x0 PUSH2 0x154C PUSH1 0xF DUP4 PUSH2 0x1BBD JUMP JUMPDEST SWAP2 POP PUSH2 0x1557 DUP3 PUSH2 0x2070 JUMP JUMPDEST PUSH1 0x20 DUP3 ADD SWAP1 POP SWAP2 SWAP1 POP JUMP JUMPDEST PUSH1 0x0 PUSH2 0x156F PUSH1 0x16 DUP4 PUSH2 0x1BBD JUMP JUMPDEST SWAP2 POP PUSH2 0x157A DUP3 PUSH2 0x2099 JUMP JUMPDEST PUSH1 0x20 DUP3 ADD SWAP1 POP SWAP2 SWAP1 POP JUMP JUMPDEST PUSH1 0x0 PUSH2 0x120 DUP4 ADD PUSH1 0x0 DUP4 ADD MLOAD PUSH2 0x159E PUSH1 0x0 DUP7 ADD DUP3 PUSH2 0x1937 JUMP JUMPDEST POP PUSH1 0x20 DUP4 ADD MLOAD DUP5 DUP3 SUB PUSH1 0x20 DUP7 ADD MSTORE PUSH2 0x15B6 DUP3 DUP3 PUSH2 0x13FA JUMP JUMPDEST SWAP2 POP POP PUSH1 0x40 DUP4 ADD MLOAD DUP5 DUP3 SUB PUSH1 0x40 DUP7 ADD MSTORE PUSH2 0x15D0 DUP3 DUP3 PUSH2 0x13FA JUMP JUMPDEST SWAP2 POP POP PUSH1 0x60 DUP4 ADD MLOAD PUSH2 0x15E5 PUSH1 0x60 DUP7 ADD DUP3 PUSH2 0x1937 JUMP JUMPDEST POP PUSH1 0x80 DUP4 ADD MLOAD PUSH2 0x15F8 PUSH1 0x80 DUP7 ADD DUP3 PUSH2 0x1937 JUMP JUMPDEST POP PUSH1 0xA0 DUP4 ADD MLOAD PUSH2 0x160B PUSH1 0xA0 DUP7 ADD DUP3 PUSH2 0x1937 JUMP JUMPDEST POP PUSH1 0xC0 DUP4 ADD MLOAD PUSH2 0x161E PUSH1 0xC0 DUP7 ADD DUP3 PUSH2 0x1937 JUMP JUMPDEST POP PUSH1 0xE0 DUP4 ADD MLOAD PUSH2 0x1631 PUSH1 0xE0 DUP7 ADD DUP3 PUSH2 0x13EB JUMP JUMPDEST POP PUSH2 0x100 DUP4 ADD MLOAD PUSH2 0x1646 PUSH2 0x100 DUP7 ADD DUP3 PUSH2 0x12EB JUMP JUMPDEST POP DUP1 SWAP2 POP POP SWAP3 SWAP2 POP POP JUMP JUMPDEST PUSH1 0x0 PUSH2 0x120 DUP4 ADD PUSH1 0x0 DUP4 ADD MLOAD PUSH2 0x166A PUSH1 0x0 DUP7 ADD DUP3 PUSH2 0x1937 JUMP JUMPDEST POP PUSH1 0x20 DUP4 ADD MLOAD DUP5 DUP3 SUB PUSH1 0x20 DUP7 ADD MSTORE PUSH2 0x1682 DUP3 DUP3 PUSH2 0x13FA JUMP JUMPDEST SWAP2 POP POP PUSH1 0x40 DUP4 ADD MLOAD DUP5 DUP3 SUB PUSH1 0x40 DUP7 ADD MSTORE PUSH2 0x169C DUP3 DUP3 PUSH2 0x13FA JUMP JUMPDEST SWAP2 POP POP PUSH1 0x60 DUP4 ADD MLOAD PUSH2 0x16B1 PUSH1 0x60 DUP7 ADD DUP3 PUSH2 0x1937 JUMP JUMPDEST POP PUSH1 0x80 DUP4 ADD MLOAD PUSH2 0x16C4 PUSH1 0x80 DUP7 ADD DUP3 PUSH2 0x1937 JUMP JUMPDEST POP PUSH1 0xA0 DUP4 ADD MLOAD PUSH2 0x16D7 PUSH1 0xA0 DUP7 ADD DUP3 PUSH2 0x1937 JUMP JUMPDEST POP PUSH1 0xC0 DUP4 ADD MLOAD PUSH2 0x16EA PUSH1 0xC0 DUP7 ADD DUP3 PUSH2 0x1937 JUMP JUMPDEST POP PUSH1 0xE0 DUP4 ADD MLOAD PUSH2 0x16FD PUSH1 0xE0 DUP7 ADD DUP3 PUSH2 0x13EB JUMP JUMPDEST POP PUSH2 0x100 DUP4 ADD MLOAD PUSH2 0x1712 PUSH2 0x100 DUP7 ADD DUP3 PUSH2 0x12EB JUMP JUMPDEST POP DUP1 SWAP2 POP POP SWAP3 SWAP2 POP POP JUMP JUMPDEST PUSH1 0x0 PUSH2 0x120 DUP4 ADD PUSH1 0x0 DUP1 DUP5 ADD SLOAD SWAP1 POP PUSH2 0x1735 DUP2 PUSH2 0x1DB1 JUMP JUMPDEST PUSH2 0x1742 PUSH1 0x0 DUP8 ADD DUP3 PUSH2 0x1937 JUMP JUMPDEST POP PUSH1 0x1 DUP5 ADD DUP6 DUP4 SUB PUSH1 0x20 DUP8 ADD MSTORE PUSH2 0x1759 DUP4 DUP3 PUSH2 0x1433 JUMP JUMPDEST SWAP3 POP POP PUSH1 0x2 DUP5 ADD DUP6 DUP4 SUB PUSH1 0x40 DUP8 ADD MSTORE PUSH2 0x1772 DUP4 DUP3 PUSH2 0x1433 JUMP JUMPDEST SWAP3 POP POP PUSH1 0x3 DUP5 ADD SLOAD SWAP1 POP PUSH2 0x1785 DUP2 PUSH2 0x1DB1 JUMP JUMPDEST PUSH2 0x1792 PUSH1 0x60 DUP8 ADD DUP3 PUSH2 0x1937 JUMP JUMPDEST POP PUSH1 0x4 DUP5 ADD SLOAD SWAP1 POP PUSH2 0x17A3 DUP2 PUSH2 0x1DB1 JUMP JUMPDEST PUSH2 0x17B0 PUSH1 0x80 DUP8 ADD DUP3 PUSH2 0x1937 JUMP JUMPDEST POP PUSH1 0x5 DUP5 ADD SLOAD SWAP1 POP PUSH2 0x17C1 DUP2 PUSH2 0x1DB1 JUMP JUMPDEST PUSH2 0x17CE PUSH1 0xA0 DUP8 ADD DUP3 PUSH2 0x1937 JUMP JUMPDEST POP PUSH1 0x6 DUP5 ADD SLOAD SWAP1 POP PUSH2 0x17DF DUP2 PUSH2 0x1DB1 JUMP JUMPDEST PUSH2 0x17EC PUSH1 0xC0 DUP8 ADD DUP3 PUSH2 0x1937 JUMP JUMPDEST POP PUSH1 0x7 DUP5 ADD SLOAD SWAP1 POP PUSH2 0x17FD DUP2 PUSH2 0x1D97 JUMP JUMPDEST PUSH2 0x180A PUSH1 0xE0 DUP8 ADD DUP3 PUSH2 0x13EB JUMP JUMPDEST POP PUSH2 0x1814 DUP2 PUSH2 0x1DCB JUMP JUMPDEST PUSH2 0x1822 PUSH2 0x100 DUP8 ADD DUP3 PUSH2 0x12EB JUMP JUMPDEST POP DUP2 SWAP3 POP POP POP SWAP3 SWAP2 POP POP JUMP JUMPDEST PUSH1 0xA0 DUP3 ADD PUSH1 0x0 DUP3 ADD MLOAD PUSH2 0x1844 PUSH1 0x0 DUP6 ADD DUP3 PUSH2 0x1937 JUMP JUMPDEST POP PUSH1 0x20 DUP3 ADD MLOAD PUSH2 0x1857 PUSH1 0x20 DUP6 ADD DUP3 PUSH2 0x1937 JUMP JUMPDEST POP PUSH1 0x40 DUP3 ADD MLOAD PUSH2 0x186A PUSH1 0x40 DUP6 ADD DUP3 PUSH2 0x12FA JUMP JUMPDEST POP PUSH1 0x60 DUP3 ADD MLOAD PUSH2 0x187D PUSH1 0x60 DUP6 ADD DUP3 PUSH2 0x1937 JUMP JUMPDEST POP PUSH1 0x80 DUP3 ADD MLOAD PUSH2 0x1890 PUSH1 0x80 DUP6 ADD DUP3 PUSH2 0x1937 JUMP JUMPDEST POP POP POP POP JUMP JUMPDEST PUSH1 0xA0 DUP3 ADD PUSH1 0x0 DUP1 DUP4 ADD SLOAD SWAP1 POP PUSH2 0x18AB DUP2 PUSH2 0x1DB1 JUMP JUMPDEST PUSH2 0x18B8 PUSH1 0x0 DUP7 ADD DUP3 PUSH2 0x1937 JUMP JUMPDEST POP PUSH1 0x1 DUP4 ADD SLOAD SWAP1 POP PUSH2 0x18C9 DUP2 PUSH2 0x1DB1 JUMP JUMPDEST PUSH2 0x18D6 PUSH1 0x20 DUP7 ADD DUP3 PUSH2 0x1937 JUMP JUMPDEST POP PUSH1 0x2 DUP4 ADD SLOAD SWAP1 POP PUSH2 0x18E7 DUP2 PUSH2 0x1D7D JUMP JUMPDEST PUSH2 0x18F4 PUSH1 0x40 DUP7 ADD DUP3 PUSH2 0x12FA JUMP JUMPDEST POP PUSH1 0x3 DUP4 ADD SLOAD SWAP1 POP PUSH2 0x1905 DUP2 PUSH2 0x1DB1 JUMP JUMPDEST PUSH2 0x1912 PUSH1 0x60 DUP7 ADD DUP3 PUSH2 0x1937 JUMP JUMPDEST POP PUSH1 0x4 DUP4 ADD SLOAD SWAP1 POP PUSH2 0x1923 DUP2 PUSH2 0x1DB1 JUMP JUMPDEST PUSH2 0x1930 PUSH1 0x80 DUP7 ADD DUP3 PUSH2 0x1937 JUMP JUMPDEST POP POP POP POP POP JUMP JUMPDEST PUSH2 0x1940 DUP2 PUSH2 0x1CFF JUMP JUMPDEST DUP3 MSTORE POP POP JUMP JUMPDEST PUSH1 0x0 PUSH1 0x20 DUP3 ADD SWAP1 POP PUSH2 0x195B PUSH1 0x0 DUP4 ADD DUP5 PUSH2 0x1309 JUMP JUMPDEST SWAP3 SWAP2 POP POP JUMP JUMPDEST PUSH1 0x0 PUSH1 0x20 DUP3 ADD SWAP1 POP DUP2 DUP2 SUB PUSH1 0x0 DUP4 ADD MSTORE PUSH2 0x197B DUP2 DUP5 PUSH2 0x1318 JUMP JUMPDEST SWAP1 POP SWAP3 SWAP2 POP POP JUMP JUMPDEST PUSH1 0x0 PUSH1 0x20 DUP3 ADD SWAP1 POP DUP2 DUP2 SUB PUSH1 0x0 DUP4 ADD MSTORE PUSH2 0x199D DUP2 DUP5 PUSH2 0x138D JUMP JUMPDEST SWAP1 POP SWAP3 SWAP2 POP POP JUMP JUMPDEST PUSH1 0x0 PUSH1 0x20 DUP3 ADD SWAP1 POP DUP2 DUP2 SUB PUSH1 0x0 DUP4 ADD MSTORE PUSH2 0x19BE DUP2 PUSH2 0x14B3 JUMP JUMPDEST SWAP1 POP SWAP2 SWAP1 POP JUMP JUMPDEST PUSH1 0x0 PUSH1 0x20 DUP3 ADD SWAP1 POP DUP2 DUP2 SUB PUSH1 0x0 DUP4 ADD MSTORE PUSH2 0x19DE DUP2 PUSH2 0x14D6 JUMP JUMPDEST SWAP1 POP SWAP2 SWAP1 POP JUMP JUMPDEST PUSH1 0x0 PUSH1 0x20 DUP3 ADD SWAP1 POP DUP2 DUP2 SUB PUSH1 0x0 DUP4 ADD MSTORE PUSH2 0x19FE DUP2 PUSH2 0x14F9 JUMP JUMPDEST SWAP1 POP SWAP2 SWAP1 POP JUMP JUMPDEST PUSH1 0x0 PUSH1 0x20 DUP3 ADD SWAP1 POP DUP2 DUP2 SUB PUSH1 0x0 DUP4 ADD MSTORE PUSH2 0x1A1E DUP2 PUSH2 0x151C JUMP JUMPDEST SWAP1 POP SWAP2 SWAP1 POP JUMP JUMPDEST PUSH1 0x0 PUSH1 0x20 DUP3 ADD SWAP1 POP DUP2 DUP2 SUB PUSH1 0x0 DUP4 ADD MSTORE PUSH2 0x1A3E DUP2 PUSH2 0x153F JUMP JUMPDEST SWAP1 POP SWAP2 SWAP1 POP JUMP JUMPDEST PUSH1 0x0 PUSH1 0x20 DUP3 ADD SWAP1 POP DUP2 DUP2 SUB PUSH1 0x0 DUP4 ADD MSTORE PUSH2 0x1A5E DUP2 PUSH2 0x1562 JUMP JUMPDEST SWAP1 POP SWAP2 SWAP1 POP JUMP JUMPDEST PUSH1 0x0 PUSH1 0x20 DUP3 ADD SWAP1 POP DUP2 DUP2 SUB PUSH1 0x0 DUP4 ADD MSTORE PUSH2 0x1A7F DUP2 DUP5 PUSH2 0x1651 JUMP JUMPDEST SWAP1 POP SWAP3 SWAP2 POP POP JUMP JUMPDEST PUSH1 0x0 PUSH1 0x20 DUP3 ADD SWAP1 POP DUP2 DUP2 SUB PUSH1 0x0 DUP4 ADD MSTORE PUSH2 0x1AA1 DUP2 DUP5 PUSH2 0x171D JUMP JUMPDEST SWAP1 POP SWAP3 SWAP2 POP POP JUMP JUMPDEST PUSH1 0x0 PUSH1 0xA0 DUP3 ADD SWAP1 POP PUSH2 0x1ABE PUSH1 0x0 DUP4 ADD DUP5 PUSH2 0x1896 JUMP JUMPDEST SWAP3 SWAP2 POP POP JUMP JUMPDEST PUSH1 0x0 PUSH2 0x1ACE PUSH2 0x1ADF JUMP JUMPDEST SWAP1 POP PUSH2 0x1ADA DUP3 DUP3 PUSH2 0x1DE5 JUMP JUMPDEST SWAP2 SWAP1 POP JUMP JUMPDEST PUSH1 0x0 PUSH1 0x40 MLOAD SWAP1 POP SWAP1 JUMP JUMPDEST PUSH1 0x0 PUSH8 0xFFFFFFFFFFFFFFFF DUP3 GT ISZERO PUSH2 0x1B04 JUMPI PUSH2 0x1B03 PUSH2 0x1EEC JUMP JUMPDEST JUMPDEST PUSH2 0x1B0D DUP3 PUSH2 0x1F2F JUMP JUMPDEST SWAP1 POP PUSH1 0x20 DUP2 ADD SWAP1 POP SWAP2 SWAP1 POP JUMP JUMPDEST PUSH1 0x0 DUP2 SWAP1 POP PUSH1 0x20 DUP3 ADD SWAP1 POP SWAP2 SWAP1 POP JUMP JUMPDEST PUSH1 0x0 DUP2 SWAP1 POP PUSH1 0x20 DUP3 ADD SWAP1 POP SWAP2 SWAP1 POP JUMP JUMPDEST PUSH1 0x0 DUP2 SWAP1 POP DUP2 PUSH1 0x0 MSTORE PUSH1 0x20 PUSH1 0x0 KECCAK256 SWAP1 POP SWAP2 SWAP1 POP JUMP JUMPDEST PUSH1 0x0 DUP2 MLOAD SWAP1 POP SWAP2 SWAP1 POP JUMP JUMPDEST PUSH1 0x0 DUP2 MLOAD SWAP1 POP SWAP2 SWAP1 POP JUMP JUMPDEST PUSH1 0x0 DUP2 MLOAD SWAP1 POP SWAP2 SWAP1 POP JUMP JUMPDEST PUSH1 0x0 PUSH1 0x20 DUP3 ADD SWAP1 POP SWAP2 SWAP1 POP JUMP JUMPDEST PUSH1 0x0 PUSH1 0x20 DUP3 ADD SWAP1 POP SWAP2 SWAP1 POP JUMP JUMPDEST PUSH1 0x0 DUP3 DUP3 MSTORE PUSH1 0x20 DUP3 ADD SWAP1 POP SWAP3 SWAP2 POP POP JUMP JUMPDEST PUSH1 0x0 DUP3 DUP3 MSTORE PUSH1 0x20 DUP3 ADD SWAP1 POP SWAP3 SWAP2 POP POP JUMP JUMPDEST PUSH1 0x0 DUP3 DUP3 MSTORE PUSH1 0x20 DUP3 ADD SWAP1 POP SWAP3 SWAP2 POP POP JUMP JUMPDEST PUSH1 0x0 DUP3 DUP3 MSTORE PUSH1 0x20 DUP3 ADD SWAP1 POP SWAP3 SWAP2 POP POP JUMP JUMPDEST PUSH1 0x0 PUSH2 0x1BD9 DUP3 PUSH2 0x1CFF JUMP JUMPDEST SWAP2 POP PUSH2 0x1BE4 DUP4 PUSH2 0x1CFF JUMP JUMPDEST SWAP3 POP DUP3 PUSH32 0xFFFFFFFFFFFFFFFFFFFFFFFFFFFFFFFFFFFFFFFFFFFFFFFFFFFFFFFFFFFFFFFF SUB DUP3 GT ISZERO PUSH2 0x1C19 JUMPI PUSH2 0x1C18 PUSH2 0x1E5F JUMP JUMPDEST JUMPDEST DUP3 DUP3 ADD SWAP1 POP SWAP3 SWAP2 POP POP JUMP JUMPDEST PUSH1 0x0 PUSH2 0x1C2F DUP3 PUSH2 0x1CFF JUMP JUMPDEST SWAP2 POP PUSH2 0x1C3A DUP4 PUSH2 0x1CFF JUMP JUMPDEST SWAP3 POP DUP3 DUP3 LT ISZERO PUSH2 0x1C4D JUMPI PUSH2 0x1C4C PUSH2 0x1E5F JUMP JUMPDEST JUMPDEST DUP3 DUP3 SUB SWAP1 POP SWAP3 SWAP2 POP POP JUMP JUMPDEST PUSH1 0x0 PUSH20 0xFFFFFFFFFFFFFFFFFFFFFFFFFFFFFFFFFFFFFFFF DUP3 AND SWAP1 POP SWAP2 SWAP1 POP JUMP JUMPDEST PUSH1 0x0 PUSH20 0xFFFFFFFFFFFFFFFFFFFFFFFFFFFFFFFFFFFFFFFF DUP3 AND SWAP1 POP SWAP2 SWAP1 POP JUMP JUMPDEST PUSH1 0x0 PUSH1 0xFF DUP3 AND SWAP1 POP SWAP2 SWAP1 POP JUMP JUMPDEST PUSH1 0x0 DUP2 SWAP1 POP SWAP2 SWAP1 POP JUMP JUMPDEST PUSH1 0x0 PUSH2 0x1CBA DUP3 PUSH2 0x1CDF JUMP JUMPDEST SWAP1 POP SWAP2 SWAP1 POP JUMP JUMPDEST PUSH1 0x0 PUSH2 0x1CCC DUP3 PUSH2 0x1CDF JUMP JUMPDEST SWAP1 POP SWAP2 SWAP1 POP JUMP JUMPDEST PUSH1 0x0 DUP2 ISZERO ISZERO SWAP1 POP SWAP2 SWAP1 POP JUMP JUMPDEST PUSH1 0x0 PUSH20 0xFFFFFFFFFFFFFFFFFFFFFFFFFFFFFFFFFFFFFFFF DUP3 AND SWAP1 POP SWAP2 SWAP1 POP JUMP JUMPDEST PUSH1 0x0 DUP2 SWAP1 POP SWAP2 SWAP1 POP JUMP JUMPDEST DUP3 DUP2 DUP4 CALLDATACOPY PUSH1 0x0 DUP4 DUP4 ADD MSTORE POP POP POP JUMP JUMPDEST PUSH1 0x0 JUMPDEST DUP4 DUP2 LT ISZERO PUSH2 0x1D36 JUMPI DUP1 DUP3 ADD MLOAD DUP2 DUP5 ADD MSTORE PUSH1 0x20 DUP2 ADD SWAP1 POP PUSH2 0x1D1B JUMP JUMPDEST DUP4 DUP2 GT ISZERO PUSH2 0x1D45 JUMPI PUSH1 0x0 DUP5 DUP5 ADD MSTORE JUMPDEST POP POP POP POP JUMP JUMPDEST PUSH1 0x0 PUSH1 0x2 DUP3 DIV SWAP1 POP PUSH1 0x1 DUP3 AND DUP1 PUSH2 0x1D63 JUMPI PUSH1 0x7F DUP3 AND SWAP2 POP JUMPDEST PUSH1 0x20 DUP3 LT DUP2 EQ ISZERO PUSH2 0x1D77 JUMPI PUSH2 0x1D76 PUSH2 0x1E8E JUMP JUMPDEST JUMPDEST POP SWAP2 SWAP1 POP JUMP JUMPDEST PUSH1 0x0 PUSH2 0x1D90 PUSH2 0x1D8B DUP4 PUSH2 0x1F40 JUMP JUMPDEST PUSH2 0x1C58 JUMP JUMPDEST SWAP1 POP SWAP2 SWAP1 POP JUMP JUMPDEST PUSH1 0x0 PUSH2 0x1DAA PUSH2 0x1DA5 DUP4 PUSH2 0x1F40 JUMP JUMPDEST PUSH2 0x1C98 JUMP JUMPDEST SWAP1 POP SWAP2 SWAP1 POP JUMP JUMPDEST PUSH1 0x0 PUSH2 0x1DC4 PUSH2 0x1DBF DUP4 PUSH2 0x1F40 JUMP JUMPDEST PUSH2 0x1CA5 JUMP JUMPDEST SWAP1 POP SWAP2 SWAP1 POP JUMP JUMPDEST PUSH1 0x0 PUSH2 0x1DDE PUSH2 0x1DD9 DUP4 PUSH2 0x1F4D JUMP JUMPDEST PUSH2 0x1C78 JUMP JUMPDEST SWAP1 POP SWAP2 SWAP1 POP JUMP JUMPDEST PUSH2 0x1DEE DUP3 PUSH2 0x1F2F JUMP JUMPDEST DUP2 ADD DUP2 DUP2 LT PUSH8 0xFFFFFFFFFFFFFFFF DUP3 GT OR ISZERO PUSH2 0x1E0D JUMPI PUSH2 0x1E0C PUSH2 0x1EEC JUMP JUMPDEST JUMPDEST DUP1 PUSH1 0x40 MSTORE POP POP POP JUMP JUMPDEST PUSH1 0x0 PUSH2 0x1E21 DUP3 PUSH2 0x1CFF JUMP JUMPDEST SWAP2 POP PUSH32 0xFFFFFFFFFFFFFFFFFFFFFFFFFFFFFFFFFFFFFFFFFFFFFFFFFFFFFFFFFFFFFFFF DUP3 EQ ISZERO PUSH2 0x1E54 JUMPI PUSH2 0x1E53 PUSH2 0x1E5F JUMP JUMPDEST JUMPDEST PUSH1 0x1 DUP3 ADD SWAP1 POP SWAP2 SWAP1 POP JUMP JUMPDEST PUSH32 0x4E487B7100000000000000000000000000000000000000000000000000000000 PUSH1 0x0 MSTORE PUSH1 0x11 PUSH1 0x4 MSTORE PUSH1 0x24 PUSH1 0x0 REVERT JUMPDEST PUSH32 0x4E487B7100000000000000000000000000000000000000000000000000000000 PUSH1 0x0 MSTORE PUSH1 0x22 PUSH1 0x4 MSTORE PUSH1 0x24 PUSH1 0x0 REVERT JUMPDEST PUSH32 0x4E487B7100000000000000000000000000000000000000000000000000000000 PUSH1 0x0 MSTORE PUSH1 0x32 PUSH1 0x4 MSTORE PUSH1 0x24 PUSH1 0x0 REVERT JUMPDEST PUSH32 0x4E487B7100000000000000000000000000000000000000000000000000000000 PUSH1 0x0 MSTORE PUSH1 0x41 PUSH1 0x4 MSTORE PUSH1 0x24 PUSH1 0x0 REVERT JUMPDEST PUSH1 0x0 DUP1 REVERT JUMPDEST PUSH1 0x0 DUP1 REVERT JUMPDEST PUSH1 0x0 DUP1 REVERT JUMPDEST PUSH1 0x0 DUP1 REVERT JUMPDEST PUSH1 0x0 PUSH1 0x1F NOT PUSH1 0x1F DUP4 ADD AND SWAP1 POP SWAP2 SWAP1 POP JUMP JUMPDEST PUSH1 0x0 DUP2 PUSH1 0x0 SHR SWAP1 POP SWAP2 SWAP1 POP JUMP JUMPDEST PUSH1 0x0 DUP2 PUSH1 0x8 SHR SWAP1 POP SWAP2 SWAP1 POP JUMP JUMPDEST PUSH32 0x456E6420646174652D74696D652073686F756C64206265206772656174657220 PUSH1 0x0 DUP3 ADD MSTORE PUSH32 0x7468616E20737461727420646174652D74696D652E0000000000000000000000 PUSH1 0x20 DUP3 ADD MSTORE POP JUMP JUMPDEST PUSH32 0x537461727420646174652D74696D652073686F756C6420626520677265617465 PUSH1 0x0 DUP3 ADD MSTORE PUSH32 0x72207468616E2063757272656E7420646174652D74696D652E00000000000000 PUSH1 0x20 DUP3 ADD MSTORE POP JUMP JUMPDEST PUSH32 0x46756E6420686173206E6F742073746172746564207965742E00000000000000 PUSH1 0x0 DUP3 ADD MSTORE POP JUMP JUMPDEST PUSH32 0x46756E64206973206163746976652C2063616E6E6F74207472616E7366657220 PUSH1 0x0 DUP3 ADD MSTORE PUSH32 0x616D6F756E74206E6F772E000000000000000000000000000000000000000000 PUSH1 0x20 DUP3 ADD MSTORE POP JUMP JUMPDEST PUSH32 0x46756E6420697320636C6F7365642E0000000000000000000000000000000000 PUSH1 0x0 DUP3 ADD MSTORE POP JUMP JUMPDEST PUSH32 0x53656E646572206E6F7420617574686F72697A65642E00000000000000000000 PUSH1 0x0 DUP3 ADD MSTORE POP JUMP JUMPDEST PUSH2 0x20CB DUP2 PUSH2 0x1CAF JUMP JUMPDEST DUP2 EQ PUSH2 0x20D6 JUMPI PUSH1 0x0 DUP1 REVERT JUMPDEST POP JUMP JUMPDEST PUSH2 0x20E2 DUP2 PUSH2 0x1CC1 JUMP JUMPDEST DUP2 EQ PUSH2 0x20ED JUMPI PUSH1 0x0 DUP1 REVERT JUMPDEST POP JUMP JUMPDEST PUSH2 0x20F9 DUP2 PUSH2 0x1CFF JUMP JUMPDEST DUP2 EQ PUSH2 0x2104 JUMPI PUSH1 0x0 DUP1 REVERT JUMPDEST POP JUMP INVALID LOG2 PUSH5 0x6970667358 0x22 SLT KECCAK256 CALLER LOG0 ISZERO 0xA8 CALLCODE 0x2F 0xCC SWAP12 SWAP16 0x4B 0xB7 0x4C 0x24 0xC8 0xC7 SWAP6 ADD MSTORE8 DUP1 DELEGATECALL 0x2F 0xD3 0xA8 0xE4 0x5C PUSH2 0x795 MLOAD ORIGIN 0x5F PUSH20 0x64736F6C63430008070033000000000000000000 "
				},
				"gasEstimates": {
					"creation": {
						"codeDepositCost": "1701800",
						"executionCost": "26051",
						"totalCost": "1727851"
					},
					"external": {
						"changeManager(address)": "26960",
						"createFund(string,string,uint256,uint256,uint256,address)": "infinite",
						"createInvestment(uint256)": "infinite",
						"getAllFunds()": "infinite",
						"getAllInvestmentsForFund(uint256)": "infinite",
						"getFundById(uint256)": "infinite",
						"makePayment(uint256)": "infinite",
						"manager()": "2578"
					}
				},
				"methodIdentifiers": {
					"changeManager(address)": "a3fbbaae",
					"createFund(string,string,uint256,uint256,uint256,address)": "526ed285",
					"createInvestment(uint256)": "8dcd8915",
					"getAllFunds()": "1c69b464",
					"getAllInvestmentsForFund(uint256)": "26ef2adf",
					"getFundById(uint256)": "149e685a",
					"makePayment(uint256)": "5114cb52",
					"manager()": "481c6a75"
				}
			},
			"storageLayout": {
				"storage": [
					{
						"astId": 33,
						"contract": "contracts/4_CrowdFunding.sol:CrowdFunding",
						"label": "manager",
						"offset": 0,
						"slot": "0",
						"type": "t_address"
					},
					{
						"astId": 38,
						"contract": "contracts/4_CrowdFunding.sol:CrowdFunding",
						"label": "funds",
						"offset": 0,
						"slot": "1",
						"type": "t_mapping(t_uint256,t_struct(Fund)20_storage)"
					},
					{
						"astId": 42,
						"contract": "contracts/4_CrowdFunding.sol:CrowdFunding",
						"label": "investments",
						"offset": 0,
						"slot": "2",
						"type": "t_array(t_struct(Investment)31_storage)dyn_storage"
					},
					{
						"astId": 44,
						"contract": "contracts/4_CrowdFunding.sol:CrowdFunding",
						"label": "fundCount",
						"offset": 0,
						"slot": "3",
						"type": "t_uint256"
					},
					{
						"astId": 46,
						"contract": "contracts/4_CrowdFunding.sol:CrowdFunding",
						"label": "investmentCount",
						"offset": 0,
						"slot": "4",
						"type": "t_uint256"
					}
				],
				"types": {
					"t_address": {
						"encoding": "inplace",
						"label": "address",
						"numberOfBytes": "20"
					},
					"t_address_payable": {
						"encoding": "inplace",
						"label": "address payable",
						"numberOfBytes": "20"
					},
					"t_array(t_struct(Investment)31_storage)dyn_storage": {
						"base": "t_struct(Investment)31_storage",
						"encoding": "dynamic_array",
						"label": "struct CrowdFunding.Investment[]",
						"numberOfBytes": "32"
					},
					"t_bool": {
						"encoding": "inplace",
						"label": "bool",
						"numberOfBytes": "1"
					},
					"t_mapping(t_uint256,t_struct(Fund)20_storage)": {
						"encoding": "mapping",
						"key": "t_uint256",
						"label": "mapping(uint256 => struct CrowdFunding.Fund)",
						"numberOfBytes": "32",
						"value": "t_struct(Fund)20_storage"
					},
					"t_string_storage": {
						"encoding": "bytes",
						"label": "string",
						"numberOfBytes": "32"
					},
					"t_struct(Fund)20_storage": {
						"encoding": "inplace",
						"label": "struct CrowdFunding.Fund",
						"members": [
							{
								"astId": 3,
								"contract": "contracts/4_CrowdFunding.sol:CrowdFunding",
								"label": "id",
								"offset": 0,
								"slot": "0",
								"type": "t_uint256"
							},
							{
								"astId": 5,
								"contract": "contracts/4_CrowdFunding.sol:CrowdFunding",
								"label": "name",
								"offset": 0,
								"slot": "1",
								"type": "t_string_storage"
							},
							{
								"astId": 7,
								"contract": "contracts/4_CrowdFunding.sol:CrowdFunding",
								"label": "description",
								"offset": 0,
								"slot": "2",
								"type": "t_string_storage"
							},
							{
								"astId": 9,
								"contract": "contracts/4_CrowdFunding.sol:CrowdFunding",
								"label": "startDate",
								"offset": 0,
								"slot": "3",
								"type": "t_uint256"
							},
							{
								"astId": 11,
								"contract": "contracts/4_CrowdFunding.sol:CrowdFunding",
								"label": "endDate",
								"offset": 0,
								"slot": "4",
								"type": "t_uint256"
							},
							{
								"astId": 13,
								"contract": "contracts/4_CrowdFunding.sol:CrowdFunding",
								"label": "goalAmount",
								"offset": 0,
								"slot": "5",
								"type": "t_uint256"
							},
							{
								"astId": 15,
								"contract": "contracts/4_CrowdFunding.sol:CrowdFunding",
								"label": "currentAmount",
								"offset": 0,
								"slot": "6",
								"type": "t_uint256"
							},
							{
								"astId": 17,
								"contract": "contracts/4_CrowdFunding.sol:CrowdFunding",
								"label": "isActive",
								"offset": 0,
								"slot": "7",
								"type": "t_bool"
							},
							{
								"astId": 19,
								"contract": "contracts/4_CrowdFunding.sol:CrowdFunding",
								"label": "receiverAddress",
								"offset": 1,
								"slot": "7",
								"type": "t_address_payable"
							}
						],
						"numberOfBytes": "256"
					},
					"t_struct(Investment)31_storage": {
						"encoding": "inplace",
						"label": "struct CrowdFunding.Investment",
						"members": [
							{
								"astId": 22,
								"contract": "contracts/4_CrowdFunding.sol:CrowdFunding",
								"label": "id",
								"offset": 0,
								"slot": "0",
								"type": "t_uint256"
							},
							{
								"astId": 24,
								"contract": "contracts/4_CrowdFunding.sol:CrowdFunding",
								"label": "fundId",
								"offset": 0,
								"slot": "1",
								"type": "t_uint256"
							},
							{
								"astId": 26,
								"contract": "contracts/4_CrowdFunding.sol:CrowdFunding",
								"label": "investorAddress",
								"offset": 0,
								"slot": "2",
								"type": "t_address"
							},
							{
								"astId": 28,
								"contract": "contracts/4_CrowdFunding.sol:CrowdFunding",
								"label": "investorAmount",
								"offset": 0,
								"slot": "3",
								"type": "t_uint256"
							},
							{
								"astId": 30,
								"contract": "contracts/4_CrowdFunding.sol:CrowdFunding",
								"label": "investmentDate",
								"offset": 0,
								"slot": "4",
								"type": "t_uint256"
							}
						],
						"numberOfBytes": "160"
					},
					"t_uint256": {
						"encoding": "inplace",
						"label": "uint256",
						"numberOfBytes": "32"
					}
				}
			},
			"userdoc": {
				"kind": "user",
				"methods": {},
				"version": 1
			}
		}
	}
}