{
	"contracts/4_CrowdFunding.sol": {
		"CrowdFunding": {
			"abi": [
				{
					"inputs": [],
					"stateMutability": "nonpayable",
					"type": "constructor"
				},
				{
					"inputs": [
						{
							"internalType": "string",
							"name": "name",
							"type": "string"
						},
						{
							"internalType": "string",
							"name": "description",
							"type": "string"
						},
						{
							"internalType": "uint256",
							"name": "startDate",
							"type": "uint256"
						},
						{
							"internalType": "uint256",
							"name": "endDate",
							"type": "uint256"
						},
						{
							"internalType": "uint256",
							"name": "goalAmount",
							"type": "uint256"
						},
						{
							"internalType": "address payable",
							"name": "receiverAddress",
							"type": "address"
						}
					],
					"name": "createFund",
					"outputs": [],
					"stateMutability": "nonpayable",
					"type": "function"
				},
				{
					"inputs": [
						{
							"internalType": "uint256",
							"name": "fundId",
							"type": "uint256"
						},
						{
							"internalType": "uint256",
							"name": "amount",
							"type": "uint256"
						}
					],
					"name": "createInvestment",
					"outputs": [],
					"stateMutability": "nonpayable",
					"type": "function"
				},
				{
					"inputs": [],
					"name": "getAllFunds",
					"outputs": [
						{
							"components": [
								{
									"internalType": "uint256",
									"name": "id",
									"type": "uint256"
								},
								{
									"internalType": "string",
									"name": "name",
									"type": "string"
								},
								{
									"internalType": "string",
									"name": "description",
									"type": "string"
								},
								{
									"internalType": "uint256",
									"name": "startDate",
									"type": "uint256"
								},
								{
									"internalType": "uint256",
									"name": "endDate",
									"type": "uint256"
								},
								{
									"internalType": "uint256",
									"name": "goalAmount",
									"type": "uint256"
								},
								{
									"internalType": "uint256",
									"name": "currentAmount",
									"type": "uint256"
								},
								{
									"internalType": "bool",
									"name": "isActive",
									"type": "bool"
								},
								{
									"internalType": "address payable",
									"name": "receiverAddress",
									"type": "address"
								}
							],
							"internalType": "struct CrowdFunding.Fund[]",
							"name": "",
							"type": "tuple[]"
						}
					],
					"stateMutability": "view",
					"type": "function"
				},
				{
					"inputs": [
						{
							"internalType": "uint256",
							"name": "fundId",
							"type": "uint256"
						}
					],
					"name": "getAllInvestmentsForFund",
					"outputs": [
						{
							"components": [
								{
									"internalType": "uint256",
									"name": "id",
									"type": "uint256"
								},
								{
									"internalType": "uint256",
									"name": "fundId",
									"type": "uint256"
								},
								{
									"internalType": "address",
									"name": "investorAddress",
									"type": "address"
								},
								{
									"internalType": "uint256",
									"name": "investorAmount",
									"type": "uint256"
								},
								{
									"internalType": "uint256",
									"name": "investmentDate",
									"type": "uint256"
								}
							],
							"internalType": "struct CrowdFunding.Investment[]",
							"name": "",
							"type": "tuple[]"
						}
					],
					"stateMutability": "view",
					"type": "function"
				},
				{
					"inputs": [],
					"name": "getBalance",
					"outputs": [
						{
							"internalType": "uint256",
							"name": "",
							"type": "uint256"
						}
					],
					"stateMutability": "view",
					"type": "function"
				},
				{
					"inputs": [
						{
							"internalType": "uint256",
							"name": "fundId",
							"type": "uint256"
						}
					],
					"name": "getFundById",
					"outputs": [
						{
							"components": [
								{
									"internalType": "uint256",
									"name": "id",
									"type": "uint256"
								},
								{
									"internalType": "string",
									"name": "name",
									"type": "string"
								},
								{
									"internalType": "string",
									"name": "description",
									"type": "string"
								},
								{
									"internalType": "uint256",
									"name": "startDate",
									"type": "uint256"
								},
								{
									"internalType": "uint256",
									"name": "endDate",
									"type": "uint256"
								},
								{
									"internalType": "uint256",
									"name": "goalAmount",
									"type": "uint256"
								},
								{
									"internalType": "uint256",
									"name": "currentAmount",
									"type": "uint256"
								},
								{
									"internalType": "bool",
									"name": "isActive",
									"type": "bool"
								},
								{
									"internalType": "address payable",
									"name": "receiverAddress",
									"type": "address"
								}
							],
							"internalType": "struct CrowdFunding.Fund",
							"name": "",
							"type": "tuple"
						}
					],
					"stateMutability": "view",
					"type": "function"
				},
				{
					"inputs": [
						{
							"internalType": "uint256",
							"name": "fundId",
							"type": "uint256"
						}
					],
					"name": "makePayment",
					"outputs": [],
					"stateMutability": "payable",
					"type": "function"
				},
				{
					"inputs": [],
					"name": "manager",
					"outputs": [
						{
							"internalType": "address",
							"name": "",
							"type": "address"
						}
					],
					"stateMutability": "view",
					"type": "function"
				}
			],
			"devdoc": {
				"kind": "dev",
				"methods": {},
				"version": 1
			},
			"evm": {
				"assembly": "    /* \"contracts/4_CrowdFunding.sol\":69:4283  contract CrowdFunding {\r... */\n  mstore(0x40, 0x80)\n    /* \"contracts/4_CrowdFunding.sol\":791:844  constructor() {\r... */\n  callvalue\n  dup1\n  iszero\n  tag_1\n  jumpi\n  0x00\n  dup1\n  revert\ntag_1:\n  pop\n    /* \"contracts/4_CrowdFunding.sol\":826:836  msg.sender */\n  caller\n    /* \"contracts/4_CrowdFunding.sol\":816:823  manager */\n  0x00\n  dup1\n    /* \"contracts/4_CrowdFunding.sol\":816:836  manager = msg.sender */\n  0x0100\n  exp\n  dup2\n  sload\n  dup2\n  0xffffffffffffffffffffffffffffffffffffffff\n  mul\n  not\n  and\n  swap1\n  dup4\n  0xffffffffffffffffffffffffffffffffffffffff\n  and\n  mul\n  or\n  swap1\n  sstore\n  pop\n    /* \"contracts/4_CrowdFunding.sol\":69:4283  contract CrowdFunding {\r... */\n  dataSize(sub_0)\n  dup1\n  dataOffset(sub_0)\n  0x00\n  codecopy\n  0x00\n  return\nstop\n\nsub_0: assembly {\n        /* \"contracts/4_CrowdFunding.sol\":69:4283  contract CrowdFunding {\r... */\n      mstore(0x40, 0x80)\n      jumpi(tag_1, lt(calldatasize, 0x04))\n      shr(0xe0, calldataload(0x00))\n      dup1\n      0x26ef2adf\n      gt\n      tag_10\n      jumpi\n      dup1\n      0x26ef2adf\n      eq\n      tag_6\n      jumpi\n      dup1\n      0x481c6a75\n      eq\n      tag_7\n      jumpi\n      dup1\n      0x5114cb52\n      eq\n      tag_8\n      jumpi\n      dup1\n      0x526ed285\n      eq\n      tag_9\n      jumpi\n      jump(tag_1)\n    tag_10:\n      dup1\n      0x12065fe0\n      eq\n      tag_2\n      jumpi\n      dup1\n      0x135a34a2\n      eq\n      tag_3\n      jumpi\n      dup1\n      0x149e685a\n      eq\n      tag_4\n      jumpi\n      dup1\n      0x1c69b464\n      eq\n      tag_5\n      jumpi\n    tag_1:\n      0x00\n      dup1\n      revert\n        /* \"contracts/4_CrowdFunding.sol\":4144:4280  function getBalance() public view returns(uint){\r... */\n    tag_2:\n      callvalue\n      dup1\n      iszero\n      tag_11\n      jumpi\n      0x00\n      dup1\n      revert\n    tag_11:\n      pop\n      tag_12\n      tag_13\n      jump\t// in\n    tag_12:\n      mload(0x40)\n      tag_14\n      swap2\n      swap1\n      tag_15\n      jump\t// in\n    tag_14:\n      mload(0x40)\n      dup1\n      swap2\n      sub\n      swap1\n      return\n        /* \"contracts/4_CrowdFunding.sol\":2568:3113  function createInvestment(uint256 fundId, uint256 amount) public {\r... */\n    tag_3:\n      callvalue\n      dup1\n      iszero\n      tag_16\n      jumpi\n      0x00\n      dup1\n      revert\n    tag_16:\n      pop\n      tag_17\n      0x04\n      dup1\n      calldatasize\n      sub\n      dup2\n      add\n      swap1\n      tag_18\n      swap2\n      swap1\n      tag_19\n      jump\t// in\n    tag_18:\n      tag_20\n      jump\t// in\n    tag_17:\n      stop\n        /* \"contracts/4_CrowdFunding.sol\":2417:2527  function getFundById(uint256 fundId) public view returns (Fund memory) {\r... */\n    tag_4:\n      callvalue\n      dup1\n      iszero\n      tag_21\n      jumpi\n      0x00\n      dup1\n      revert\n    tag_21:\n      pop\n      tag_22\n      0x04\n      dup1\n      calldatasize\n      sub\n      dup2\n      add\n      swap1\n      tag_23\n      swap2\n      swap1\n      tag_24\n      jump\t// in\n    tag_23:\n      tag_25\n      jump\t// in\n    tag_22:\n      mload(0x40)\n      tag_26\n      swap2\n      swap1\n      tag_27\n      jump\t// in\n    tag_26:\n      mload(0x40)\n      dup1\n      swap2\n      sub\n      swap1\n      return\n        /* \"contracts/4_CrowdFunding.sol\":2130:2383  function getAllFunds() public view returns (Fund[] memory) {\r... */\n    tag_5:\n      callvalue\n      dup1\n      iszero\n      tag_28\n      jumpi\n      0x00\n      dup1\n      revert\n    tag_28:\n      pop\n      tag_29\n      tag_30\n      jump\t// in\n    tag_29:\n      mload(0x40)\n      tag_31\n      swap2\n      swap1\n      tag_32\n      jump\t// in\n    tag_31:\n      mload(0x40)\n      dup1\n      swap2\n      sub\n      swap1\n      return\n        /* \"contracts/4_CrowdFunding.sol\":3162:3630  function getAllInvestmentsForFund(uint256 fundId) public view returns (Investment[] memory)\r... */\n    tag_6:\n      callvalue\n      dup1\n      iszero\n      tag_33\n      jumpi\n      0x00\n      dup1\n      revert\n    tag_33:\n      pop\n      tag_34\n      0x04\n      dup1\n      calldatasize\n      sub\n      dup2\n      add\n      swap1\n      tag_35\n      swap2\n      swap1\n      tag_24\n      jump\t// in\n    tag_35:\n      tag_36\n      jump\t// in\n    tag_34:\n      mload(0x40)\n      tag_37\n      swap2\n      swap1\n      tag_38\n      jump\t// in\n    tag_37:\n      mload(0x40)\n      dup1\n      swap2\n      sub\n      swap1\n      return\n        /* \"contracts/4_CrowdFunding.sol\":594:616  address public manager */\n    tag_7:\n      callvalue\n      dup1\n      iszero\n      tag_39\n      jumpi\n      0x00\n      dup1\n      revert\n    tag_39:\n      pop\n      tag_40\n      tag_41\n      jump\t// in\n    tag_40:\n      mload(0x40)\n      tag_42\n      swap2\n      swap1\n      tag_43\n      jump\t// in\n    tag_42:\n      mload(0x40)\n      dup1\n      swap2\n      sub\n      swap1\n      return\n        /* \"contracts/4_CrowdFunding.sol\":3681:4135  function makePayment(uint256 fundId) public payable onlyManager {\r... */\n    tag_8:\n      tag_44\n      0x04\n      dup1\n      calldatasize\n      sub\n      dup2\n      add\n      swap1\n      tag_45\n      swap2\n      swap1\n      tag_24\n      jump\t// in\n    tag_45:\n      tag_46\n      jump\t// in\n    tag_44:\n      stop\n        /* \"contracts/4_CrowdFunding.sol\":1156:2099  function createFund(\r... */\n    tag_9:\n      callvalue\n      dup1\n      iszero\n      tag_47\n      jumpi\n      0x00\n      dup1\n      revert\n    tag_47:\n      pop\n      tag_48\n      0x04\n      dup1\n      calldatasize\n      sub\n      dup2\n      add\n      swap1\n      tag_49\n      swap2\n      swap1\n      tag_50\n      jump\t// in\n    tag_49:\n      tag_51\n      jump\t// in\n    tag_48:\n      stop\n        /* \"contracts/4_CrowdFunding.sol\":4144:4280  function getBalance() public view returns(uint){\r... */\n    tag_13:\n        /* \"contracts/4_CrowdFunding.sol\":4186:4190  uint */\n      0x00\n        /* \"contracts/4_CrowdFunding.sol\":4225:4232  manager */\n      dup1\n      0x00\n      swap1\n      sload\n      swap1\n      0x0100\n      exp\n      swap1\n      div\n      0xffffffffffffffffffffffffffffffffffffffff\n      and\n        /* \"contracts/4_CrowdFunding.sol\":4210:4232  msg.sender ==  manager */\n      0xffffffffffffffffffffffffffffffffffffffff\n      and\n        /* \"contracts/4_CrowdFunding.sol\":4210:4220  msg.sender */\n      caller\n        /* \"contracts/4_CrowdFunding.sol\":4210:4232  msg.sender ==  manager */\n      0xffffffffffffffffffffffffffffffffffffffff\n      and\n      eq\n        /* \"contracts/4_CrowdFunding.sol\":4202:4233  require(msg.sender ==  manager) */\n      tag_53\n      jumpi\n      0x00\n      dup1\n      revert\n    tag_53:\n        /* \"contracts/4_CrowdFunding.sol\":4251:4272  address(this).balance */\n      selfbalance\n        /* \"contracts/4_CrowdFunding.sol\":4244:4272  return address(this).balance */\n      swap1\n      pop\n        /* \"contracts/4_CrowdFunding.sol\":4144:4280  function getBalance() public view returns(uint){\r... */\n      swap1\n      jump\t// out\n        /* \"contracts/4_CrowdFunding.sol\":2568:3113  function createInvestment(uint256 fundId, uint256 amount) public {\r... */\n    tag_20:\n        /* \"contracts/4_CrowdFunding.sol\":2644:2661  Fund storage fund */\n      0x00\n        /* \"contracts/4_CrowdFunding.sol\":2664:2669  funds */\n      0x01\n        /* \"contracts/4_CrowdFunding.sol\":2664:2677  funds[fundId] */\n      0x00\n        /* \"contracts/4_CrowdFunding.sol\":2670:2676  fundId */\n      dup5\n        /* \"contracts/4_CrowdFunding.sol\":2664:2677  funds[fundId] */\n      dup2\n      mstore\n      0x20\n      add\n      swap1\n      dup2\n      mstore\n      0x20\n      add\n      0x00\n      keccak256\n        /* \"contracts/4_CrowdFunding.sol\":2644:2677  Fund storage fund = funds[fundId] */\n      swap1\n      pop\n        /* \"contracts/4_CrowdFunding.sol\":2696:2700  fund */\n      dup1\n        /* \"contracts/4_CrowdFunding.sol\":2696:2709  fund.isActive */\n      0x07\n      add\n      0x00\n      swap1\n      sload\n      swap1\n      0x0100\n      exp\n      swap1\n      div\n      0xff\n      and\n        /* \"contracts/4_CrowdFunding.sol\":2688:2729  require(fund.isActive, \"Fund is closed.\") */\n      tag_55\n      jumpi\n      mload(0x40)\n      0x08c379a000000000000000000000000000000000000000000000000000000000\n      dup2\n      mstore\n      0x04\n      add\n      tag_56\n      swap1\n      tag_57\n      jump\t// in\n    tag_56:\n      mload(0x40)\n      dup1\n      swap2\n      sub\n      swap1\n      revert\n    tag_55:\n        /* \"contracts/4_CrowdFunding.sol\":2766:2781  block.timestamp */\n      timestamp\n        /* \"contracts/4_CrowdFunding.sol\":2748:2752  fund */\n      dup2\n        /* \"contracts/4_CrowdFunding.sol\":2748:2762  fund.startDate */\n      0x03\n      add\n      sload\n        /* \"contracts/4_CrowdFunding.sol\":2748:2781  fund.startDate <= block.timestamp */\n      gt\n      iszero\n        /* \"contracts/4_CrowdFunding.sol\":2740:2811  require(fund.startDate <= block.timestamp, \"Fund has not started yet.\") */\n      tag_58\n      jumpi\n      mload(0x40)\n      0x08c379a000000000000000000000000000000000000000000000000000000000\n      dup2\n      mstore\n      0x04\n      add\n      tag_59\n      swap1\n      tag_60\n      jump\t// in\n    tag_59:\n      mload(0x40)\n      dup1\n      swap2\n      sub\n      swap1\n      revert\n    tag_58:\n        /* \"contracts/4_CrowdFunding.sol\":2824:2835  investments */\n      0x02\n        /* \"contracts/4_CrowdFunding.sol\":2855:3027  Investment(\r... */\n      mload(0x40)\n      dup1\n      0xa0\n      add\n      0x40\n      mstore\n      dup1\n        /* \"contracts/4_CrowdFunding.sol\":2884:2899  investmentCount */\n      sload(0x04)\n        /* \"contracts/4_CrowdFunding.sol\":2855:3027  Investment(\r... */\n      dup2\n      mstore\n      0x20\n      add\n        /* \"contracts/4_CrowdFunding.sol\":2918:2924  fundId */\n      dup6\n        /* \"contracts/4_CrowdFunding.sol\":2855:3027  Investment(\r... */\n      dup2\n      mstore\n      0x20\n      add\n        /* \"contracts/4_CrowdFunding.sol\":2943:2953  msg.sender */\n      caller\n        /* \"contracts/4_CrowdFunding.sol\":2855:3027  Investment(\r... */\n      0xffffffffffffffffffffffffffffffffffffffff\n      and\n      dup2\n      mstore\n      0x20\n      add\n        /* \"contracts/4_CrowdFunding.sol\":2972:2978  amount */\n      dup5\n        /* \"contracts/4_CrowdFunding.sol\":2855:3027  Investment(\r... */\n      dup2\n      mstore\n      0x20\n      add\n        /* \"contracts/4_CrowdFunding.sol\":2997:3012  block.timestamp */\n      timestamp\n        /* \"contracts/4_CrowdFunding.sol\":2855:3027  Investment(\r... */\n      dup2\n      mstore\n      pop\n        /* \"contracts/4_CrowdFunding.sol\":2824:3038  investments.push(\r... */\n      swap1\n      dup1\n      0x01\n      dup2\n      sload\n      add\n      dup1\n      dup3\n      sstore\n      dup1\n      swap2\n      pop\n      pop\n      0x01\n      swap1\n      sub\n      swap1\n      0x00\n      mstore\n      keccak256(0x00, 0x20)\n      swap1\n      0x05\n      mul\n      add\n      0x00\n      swap1\n      swap2\n      swap1\n      swap2\n      swap1\n      swap2\n      pop\n      0x00\n      dup3\n      add\n      mload\n      dup2\n      0x00\n      add\n      sstore\n      0x20\n      dup3\n      add\n      mload\n      dup2\n      0x01\n      add\n      sstore\n      0x40\n      dup3\n      add\n      mload\n      dup2\n      0x02\n      add\n      exp(0x0100, 0x00)\n      dup2\n      sload\n      dup2\n      0xffffffffffffffffffffffffffffffffffffffff\n      mul\n      not\n      and\n      swap1\n      dup4\n      0xffffffffffffffffffffffffffffffffffffffff\n      and\n      mul\n      or\n      swap1\n      sstore\n      pop\n      0x60\n      dup3\n      add\n      mload\n      dup2\n      0x03\n      add\n      sstore\n      0x80\n      dup3\n      add\n      mload\n      dup2\n      0x04\n      add\n      sstore\n      pop\n      pop\n        /* \"contracts/4_CrowdFunding.sol\":3049:3064  investmentCount */\n      0x04\n      0x00\n        /* \"contracts/4_CrowdFunding.sol\":3049:3066  investmentCount++ */\n      dup2\n      sload\n      dup1\n      swap3\n      swap2\n      swap1\n      tag_62\n      swap1\n      tag_63\n      jump\t// in\n    tag_62:\n      swap2\n      swap1\n      pop\n      sstore\n      pop\n        /* \"contracts/4_CrowdFunding.sol\":3099:3105  amount */\n      dup2\n        /* \"contracts/4_CrowdFunding.sol\":3077:3081  fund */\n      dup2\n        /* \"contracts/4_CrowdFunding.sol\":3077:3095  fund.currentAmount */\n      0x06\n      add\n      0x00\n        /* \"contracts/4_CrowdFunding.sol\":3077:3105  fund.currentAmount += amount */\n      dup3\n      dup3\n      sload\n      tag_64\n      swap2\n      swap1\n      tag_65\n      jump\t// in\n    tag_64:\n      swap3\n      pop\n      pop\n      dup2\n      swap1\n      sstore\n      pop\n        /* \"contracts/4_CrowdFunding.sol\":2633:3113  {\r... */\n      pop\n        /* \"contracts/4_CrowdFunding.sol\":2568:3113  function createInvestment(uint256 fundId, uint256 amount) public {\r... */\n      pop\n      pop\n      jump\t// out\n        /* \"contracts/4_CrowdFunding.sol\":2417:2527  function getFundById(uint256 fundId) public view returns (Fund memory) {\r... */\n    tag_25:\n        /* \"contracts/4_CrowdFunding.sol\":2475:2486  Fund memory */\n      tag_66\n      tag_67\n      jump\t// in\n    tag_66:\n        /* \"contracts/4_CrowdFunding.sol\":2506:2511  funds */\n      0x01\n        /* \"contracts/4_CrowdFunding.sol\":2506:2519  funds[fundId] */\n      0x00\n        /* \"contracts/4_CrowdFunding.sol\":2512:2518  fundId */\n      dup4\n        /* \"contracts/4_CrowdFunding.sol\":2506:2519  funds[fundId] */\n      dup2\n      mstore\n      0x20\n      add\n      swap1\n      dup2\n      mstore\n      0x20\n      add\n      0x00\n      keccak256\n        /* \"contracts/4_CrowdFunding.sol\":2499:2519  return funds[fundId] */\n      mload(0x40)\n      dup1\n      0x0120\n      add\n      0x40\n      mstore\n      swap1\n      dup2\n      0x00\n      dup3\n      add\n      sload\n      dup2\n      mstore\n      0x20\n      add\n      0x01\n      dup3\n      add\n      dup1\n      sload\n      tag_69\n      swap1\n      tag_70\n      jump\t// in\n    tag_69:\n      dup1\n      0x1f\n      add\n      0x20\n      dup1\n      swap2\n      div\n      mul\n      0x20\n      add\n      mload(0x40)\n      swap1\n      dup2\n      add\n      0x40\n      mstore\n      dup1\n      swap3\n      swap2\n      swap1\n      dup2\n      dup2\n      mstore\n      0x20\n      add\n      dup3\n      dup1\n      sload\n      tag_71\n      swap1\n      tag_70\n      jump\t// in\n    tag_71:\n      dup1\n      iszero\n      tag_72\n      jumpi\n      dup1\n      0x1f\n      lt\n      tag_73\n      jumpi\n      0x0100\n      dup1\n      dup4\n      sload\n      div\n      mul\n      dup4\n      mstore\n      swap2\n      0x20\n      add\n      swap2\n      jump(tag_72)\n    tag_73:\n      dup3\n      add\n      swap2\n      swap1\n      0x00\n      mstore\n      keccak256(0x00, 0x20)\n      swap1\n    tag_74:\n      dup2\n      sload\n      dup2\n      mstore\n      swap1\n      0x01\n      add\n      swap1\n      0x20\n      add\n      dup1\n      dup4\n      gt\n      tag_74\n      jumpi\n      dup3\n      swap1\n      sub\n      0x1f\n      and\n      dup3\n      add\n      swap2\n    tag_72:\n      pop\n      pop\n      pop\n      pop\n      pop\n      dup2\n      mstore\n      0x20\n      add\n      0x02\n      dup3\n      add\n      dup1\n      sload\n      tag_75\n      swap1\n      tag_70\n      jump\t// in\n    tag_75:\n      dup1\n      0x1f\n      add\n      0x20\n      dup1\n      swap2\n      div\n      mul\n      0x20\n      add\n      mload(0x40)\n      swap1\n      dup2\n      add\n      0x40\n      mstore\n      dup1\n      swap3\n      swap2\n      swap1\n      dup2\n      dup2\n      mstore\n      0x20\n      add\n      dup3\n      dup1\n      sload\n      tag_76\n      swap1\n      tag_70\n      jump\t// in\n    tag_76:\n      dup1\n      iszero\n      tag_77\n      jumpi\n      dup1\n      0x1f\n      lt\n      tag_78\n      jumpi\n      0x0100\n      dup1\n      dup4\n      sload\n      div\n      mul\n      dup4\n      mstore\n      swap2\n      0x20\n      add\n      swap2\n      jump(tag_77)\n    tag_78:\n      dup3\n      add\n      swap2\n      swap1\n      0x00\n      mstore\n      keccak256(0x00, 0x20)\n      swap1\n    tag_79:\n      dup2\n      sload\n      dup2\n      mstore\n      swap1\n      0x01\n      add\n      swap1\n      0x20\n      add\n      dup1\n      dup4\n      gt\n      tag_79\n      jumpi\n      dup3\n      swap1\n      sub\n      0x1f\n      and\n      dup3\n      add\n      swap2\n    tag_77:\n      pop\n      pop\n      pop\n      pop\n      pop\n      dup2\n      mstore\n      0x20\n      add\n      0x03\n      dup3\n      add\n      sload\n      dup2\n      mstore\n      0x20\n      add\n      0x04\n      dup3\n      add\n      sload\n      dup2\n      mstore\n      0x20\n      add\n      0x05\n      dup3\n      add\n      sload\n      dup2\n      mstore\n      0x20\n      add\n      0x06\n      dup3\n      add\n      sload\n      dup2\n      mstore\n      0x20\n      add\n      0x07\n      dup3\n      add\n      0x00\n      swap1\n      sload\n      swap1\n      0x0100\n      exp\n      swap1\n      div\n      0xff\n      and\n      iszero\n      iszero\n      iszero\n      iszero\n      dup2\n      mstore\n      0x20\n      add\n      0x07\n      dup3\n      add\n      0x01\n      swap1\n      sload\n      swap1\n      0x0100\n      exp\n      swap1\n      div\n      0xffffffffffffffffffffffffffffffffffffffff\n      and\n      0xffffffffffffffffffffffffffffffffffffffff\n      and\n      0xffffffffffffffffffffffffffffffffffffffff\n      and\n      dup2\n      mstore\n      pop\n      pop\n      swap1\n      pop\n        /* \"contracts/4_CrowdFunding.sol\":2417:2527  function getFundById(uint256 fundId) public view returns (Fund memory) {\r... */\n      swap2\n      swap1\n      pop\n      jump\t// out\n        /* \"contracts/4_CrowdFunding.sol\":2130:2383  function getAllFunds() public view returns (Fund[] memory) {\r... */\n    tag_30:\n        /* \"contracts/4_CrowdFunding.sol\":2174:2187  Fund[] memory */\n      0x60\n        /* \"contracts/4_CrowdFunding.sol\":2200:2222  Fund[] memory fundList */\n      0x00\n        /* \"contracts/4_CrowdFunding.sol\":2236:2245  fundCount */\n      sload(0x03)\n        /* \"contracts/4_CrowdFunding.sol\":2225:2246  new Fund[](fundCount) */\n      0xffffffffffffffff\n      dup2\n      gt\n      iszero\n      tag_81\n      jumpi\n      tag_82\n      tag_83\n      jump\t// in\n    tag_82:\n    tag_81:\n      mload(0x40)\n      swap1\n      dup1\n      dup3\n      mstore\n      dup1\n      0x20\n      mul\n      0x20\n      add\n      dup3\n      add\n      0x40\n      mstore\n      dup1\n      iszero\n      tag_84\n      jumpi\n      dup2\n      0x20\n      add\n    tag_85:\n      tag_86\n      tag_67\n      jump\t// in\n    tag_86:\n      dup2\n      mstore\n      0x20\n      add\n      swap1\n      0x01\n      swap1\n      sub\n      swap1\n      dup2\n      tag_85\n      jumpi\n      swap1\n      pop\n    tag_84:\n      pop\n        /* \"contracts/4_CrowdFunding.sol\":2200:2246  Fund[] memory fundList = new Fund[](fundCount) */\n      swap1\n      pop\n        /* \"contracts/4_CrowdFunding.sol\":2264:2273  uint256 i */\n      0x00\n        /* \"contracts/4_CrowdFunding.sol\":2259:2348  for (uint256 i = 0; i < fundCount; i++) {\r... */\n    tag_87:\n        /* \"contracts/4_CrowdFunding.sol\":2283:2292  fundCount */\n      sload(0x03)\n        /* \"contracts/4_CrowdFunding.sol\":2279:2280  i */\n      dup2\n        /* \"contracts/4_CrowdFunding.sol\":2279:2292  i < fundCount */\n      lt\n        /* \"contracts/4_CrowdFunding.sol\":2259:2348  for (uint256 i = 0; i < fundCount; i++) {\r... */\n      iszero\n      tag_88\n      jumpi\n        /* \"contracts/4_CrowdFunding.sol\":2328:2333  funds */\n      0x01\n        /* \"contracts/4_CrowdFunding.sol\":2328:2336  funds[i] */\n      0x00\n        /* \"contracts/4_CrowdFunding.sol\":2334:2335  i */\n      dup3\n        /* \"contracts/4_CrowdFunding.sol\":2328:2336  funds[i] */\n      dup2\n      mstore\n      0x20\n      add\n      swap1\n      dup2\n      mstore\n      0x20\n      add\n      0x00\n      keccak256\n        /* \"contracts/4_CrowdFunding.sol\":2314:2336  fundList[i] = funds[i] */\n      mload(0x40)\n      dup1\n      0x0120\n      add\n      0x40\n      mstore\n      swap1\n      dup2\n      0x00\n      dup3\n      add\n      sload\n      dup2\n      mstore\n      0x20\n      add\n      0x01\n      dup3\n      add\n      dup1\n      sload\n      tag_90\n      swap1\n      tag_70\n      jump\t// in\n    tag_90:\n      dup1\n      0x1f\n      add\n      0x20\n      dup1\n      swap2\n      div\n      mul\n      0x20\n      add\n      mload(0x40)\n      swap1\n      dup2\n      add\n      0x40\n      mstore\n      dup1\n      swap3\n      swap2\n      swap1\n      dup2\n      dup2\n      mstore\n      0x20\n      add\n      dup3\n      dup1\n      sload\n      tag_91\n      swap1\n      tag_70\n      jump\t// in\n    tag_91:\n      dup1\n      iszero\n      tag_92\n      jumpi\n      dup1\n      0x1f\n      lt\n      tag_93\n      jumpi\n      0x0100\n      dup1\n      dup4\n      sload\n      div\n      mul\n      dup4\n      mstore\n      swap2\n      0x20\n      add\n      swap2\n      jump(tag_92)\n    tag_93:\n      dup3\n      add\n      swap2\n      swap1\n      0x00\n      mstore\n      keccak256(0x00, 0x20)\n      swap1\n    tag_94:\n      dup2\n      sload\n      dup2\n      mstore\n      swap1\n      0x01\n      add\n      swap1\n      0x20\n      add\n      dup1\n      dup4\n      gt\n      tag_94\n      jumpi\n      dup3\n      swap1\n      sub\n      0x1f\n      and\n      dup3\n      add\n      swap2\n    tag_92:\n      pop\n      pop\n      pop\n      pop\n      pop\n      dup2\n      mstore\n      0x20\n      add\n      0x02\n      dup3\n      add\n      dup1\n      sload\n      tag_95\n      swap1\n      tag_70\n      jump\t// in\n    tag_95:\n      dup1\n      0x1f\n      add\n      0x20\n      dup1\n      swap2\n      div\n      mul\n      0x20\n      add\n      mload(0x40)\n      swap1\n      dup2\n      add\n      0x40\n      mstore\n      dup1\n      swap3\n      swap2\n      swap1\n      dup2\n      dup2\n      mstore\n      0x20\n      add\n      dup3\n      dup1\n      sload\n      tag_96\n      swap1\n      tag_70\n      jump\t// in\n    tag_96:\n      dup1\n      iszero\n      tag_97\n      jumpi\n      dup1\n      0x1f\n      lt\n      tag_98\n      jumpi\n      0x0100\n      dup1\n      dup4\n      sload\n      div\n      mul\n      dup4\n      mstore\n      swap2\n      0x20\n      add\n      swap2\n      jump(tag_97)\n    tag_98:\n      dup3\n      add\n      swap2\n      swap1\n      0x00\n      mstore\n      keccak256(0x00, 0x20)\n      swap1\n    tag_99:\n      dup2\n      sload\n      dup2\n      mstore\n      swap1\n      0x01\n      add\n      swap1\n      0x20\n      add\n      dup1\n      dup4\n      gt\n      tag_99\n      jumpi\n      dup3\n      swap1\n      sub\n      0x1f\n      and\n      dup3\n      add\n      swap2\n    tag_97:\n      pop\n      pop\n      pop\n      pop\n      pop\n      dup2\n      mstore\n      0x20\n      add\n      0x03\n      dup3\n      add\n      sload\n      dup2\n      mstore\n      0x20\n      add\n      0x04\n      dup3\n      add\n      sload\n      dup2\n      mstore\n      0x20\n      add\n      0x05\n      dup3\n      add\n      sload\n      dup2\n      mstore\n      0x20\n      add\n      0x06\n      dup3\n      add\n      sload\n      dup2\n      mstore\n      0x20\n      add\n      0x07\n      dup3\n      add\n      0x00\n      swap1\n      sload\n      swap1\n      0x0100\n      exp\n      swap1\n      div\n      0xff\n      and\n      iszero\n      iszero\n      iszero\n      iszero\n      dup2\n      mstore\n      0x20\n      add\n      0x07\n      dup3\n      add\n      0x01\n      swap1\n      sload\n      swap1\n      0x0100\n      exp\n      swap1\n      div\n      0xffffffffffffffffffffffffffffffffffffffff\n      and\n      0xffffffffffffffffffffffffffffffffffffffff\n      and\n      0xffffffffffffffffffffffffffffffffffffffff\n      and\n      dup2\n      mstore\n      pop\n      pop\n        /* \"contracts/4_CrowdFunding.sol\":2314:2322  fundList */\n      dup3\n        /* \"contracts/4_CrowdFunding.sol\":2323:2324  i */\n      dup3\n        /* \"contracts/4_CrowdFunding.sol\":2314:2325  fundList[i] */\n      dup2\n      mload\n      dup2\n      lt\n      tag_100\n      jumpi\n      tag_101\n      tag_102\n      jump\t// in\n    tag_101:\n    tag_100:\n      0x20\n      mul\n      0x20\n      add\n      add\n        /* \"contracts/4_CrowdFunding.sol\":2314:2336  fundList[i] = funds[i] */\n      dup2\n      swap1\n      mstore\n      pop\n        /* \"contracts/4_CrowdFunding.sol\":2294:2297  i++ */\n      dup1\n      dup1\n      tag_103\n      swap1\n      tag_63\n      jump\t// in\n    tag_103:\n      swap2\n      pop\n      pop\n        /* \"contracts/4_CrowdFunding.sol\":2259:2348  for (uint256 i = 0; i < fundCount; i++) {\r... */\n      jump(tag_87)\n    tag_88:\n      pop\n        /* \"contracts/4_CrowdFunding.sol\":2367:2375  fundList */\n      dup1\n        /* \"contracts/4_CrowdFunding.sol\":2360:2375  return fundList */\n      swap2\n      pop\n      pop\n        /* \"contracts/4_CrowdFunding.sol\":2130:2383  function getAllFunds() public view returns (Fund[] memory) {\r... */\n      swap1\n      jump\t// out\n        /* \"contracts/4_CrowdFunding.sol\":3162:3630  function getAllInvestmentsForFund(uint256 fundId) public view returns (Investment[] memory)\r... */\n    tag_36:\n        /* \"contracts/4_CrowdFunding.sol\":3233:3252  Investment[] memory */\n      0x60\n        /* \"contracts/4_CrowdFunding.sol\":3270:3304  Investment[] memory investmentList */\n      0x00\n        /* \"contracts/4_CrowdFunding.sol\":3324:3339  investmentCount */\n      sload(0x04)\n        /* \"contracts/4_CrowdFunding.sol\":3307:3340  new Investment[](investmentCount) */\n      0xffffffffffffffff\n      dup2\n      gt\n      iszero\n      tag_105\n      jumpi\n      tag_106\n      tag_83\n      jump\t// in\n    tag_106:\n    tag_105:\n      mload(0x40)\n      swap1\n      dup1\n      dup3\n      mstore\n      dup1\n      0x20\n      mul\n      0x20\n      add\n      dup3\n      add\n      0x40\n      mstore\n      dup1\n      iszero\n      tag_107\n      jumpi\n      dup2\n      0x20\n      add\n    tag_108:\n      tag_109\n      tag_110\n      jump\t// in\n    tag_109:\n      dup2\n      mstore\n      0x20\n      add\n      swap1\n      0x01\n      swap1\n      sub\n      swap1\n      dup2\n      tag_108\n      jumpi\n      swap1\n      pop\n    tag_107:\n      pop\n        /* \"contracts/4_CrowdFunding.sol\":3270:3340  Investment[] memory investmentList = new Investment[](investmentCount) */\n      swap1\n      pop\n        /* \"contracts/4_CrowdFunding.sol\":3351:3364  uint256 count */\n      0x00\n        /* \"contracts/4_CrowdFunding.sol\":3386:3395  uint256 i */\n      dup1\n        /* \"contracts/4_CrowdFunding.sol\":3381:3589  for (uint256 i = 0; i < investmentCount; i++) {\r... */\n    tag_111:\n        /* \"contracts/4_CrowdFunding.sol\":3405:3420  investmentCount */\n      sload(0x04)\n        /* \"contracts/4_CrowdFunding.sol\":3401:3402  i */\n      dup2\n        /* \"contracts/4_CrowdFunding.sol\":3401:3420  i < investmentCount */\n      lt\n        /* \"contracts/4_CrowdFunding.sol\":3381:3589  for (uint256 i = 0; i < investmentCount; i++) {\r... */\n      iszero\n      tag_112\n      jumpi\n        /* \"contracts/4_CrowdFunding.sol\":3471:3477  fundId */\n      dup5\n        /* \"contracts/4_CrowdFunding.sol\":3446:3457  investments */\n      0x02\n        /* \"contracts/4_CrowdFunding.sol\":3458:3459  i */\n      dup3\n        /* \"contracts/4_CrowdFunding.sol\":3446:3460  investments[i] */\n      dup2\n      sload\n      dup2\n      lt\n      tag_114\n      jumpi\n      tag_115\n      tag_102\n      jump\t// in\n    tag_115:\n    tag_114:\n      swap1\n      0x00\n      mstore\n      keccak256(0x00, 0x20)\n      swap1\n      0x05\n      mul\n      add\n        /* \"contracts/4_CrowdFunding.sol\":3446:3467  investments[i].fundId */\n      0x01\n      add\n      sload\n        /* \"contracts/4_CrowdFunding.sol\":3446:3477  investments[i].fundId == fundId */\n      eq\n        /* \"contracts/4_CrowdFunding.sol\":3442:3578  if (investments[i].fundId == fundId) {\r... */\n      iszero\n      tag_117\n      jumpi\n        /* \"contracts/4_CrowdFunding.sol\":3522:3533  investments */\n      0x02\n        /* \"contracts/4_CrowdFunding.sol\":3534:3535  i */\n      dup2\n        /* \"contracts/4_CrowdFunding.sol\":3522:3536  investments[i] */\n      dup2\n      sload\n      dup2\n      lt\n      tag_118\n      jumpi\n      tag_119\n      tag_102\n      jump\t// in\n    tag_119:\n    tag_118:\n      swap1\n      0x00\n      mstore\n      keccak256(0x00, 0x20)\n      swap1\n      0x05\n      mul\n      add\n        /* \"contracts/4_CrowdFunding.sol\":3498:3536  investmentList[count] = investments[i] */\n      mload(0x40)\n      dup1\n      0xa0\n      add\n      0x40\n      mstore\n      swap1\n      dup2\n      0x00\n      dup3\n      add\n      sload\n      dup2\n      mstore\n      0x20\n      add\n      0x01\n      dup3\n      add\n      sload\n      dup2\n      mstore\n      0x20\n      add\n      0x02\n      dup3\n      add\n      0x00\n      swap1\n      sload\n      swap1\n      0x0100\n      exp\n      swap1\n      div\n      0xffffffffffffffffffffffffffffffffffffffff\n      and\n      0xffffffffffffffffffffffffffffffffffffffff\n      and\n      0xffffffffffffffffffffffffffffffffffffffff\n      and\n      dup2\n      mstore\n      0x20\n      add\n      0x03\n      dup3\n      add\n      sload\n      dup2\n      mstore\n      0x20\n      add\n      0x04\n      dup3\n      add\n      sload\n      dup2\n      mstore\n      pop\n      pop\n        /* \"contracts/4_CrowdFunding.sol\":3498:3512  investmentList */\n      dup4\n        /* \"contracts/4_CrowdFunding.sol\":3513:3518  count */\n      dup4\n        /* \"contracts/4_CrowdFunding.sol\":3498:3519  investmentList[count] */\n      dup2\n      mload\n      dup2\n      lt\n      tag_121\n      jumpi\n      tag_122\n      tag_102\n      jump\t// in\n    tag_122:\n    tag_121:\n      0x20\n      mul\n      0x20\n      add\n      add\n        /* \"contracts/4_CrowdFunding.sol\":3498:3536  investmentList[count] = investments[i] */\n      dup2\n      swap1\n      mstore\n      pop\n        /* \"contracts/4_CrowdFunding.sol\":3555:3562  count++ */\n      dup2\n      dup1\n      tag_123\n      swap1\n      tag_63\n      jump\t// in\n    tag_123:\n      swap3\n      pop\n      pop\n        /* \"contracts/4_CrowdFunding.sol\":3442:3578  if (investments[i].fundId == fundId) {\r... */\n    tag_117:\n        /* \"contracts/4_CrowdFunding.sol\":3422:3425  i++ */\n      dup1\n      dup1\n      tag_124\n      swap1\n      tag_63\n      jump\t// in\n    tag_124:\n      swap2\n      pop\n      pop\n        /* \"contracts/4_CrowdFunding.sol\":3381:3589  for (uint256 i = 0; i < investmentCount; i++) {\r... */\n      jump(tag_111)\n    tag_112:\n      pop\n        /* \"contracts/4_CrowdFunding.sol\":3608:3622  investmentList */\n      dup2\n        /* \"contracts/4_CrowdFunding.sol\":3601:3622  return investmentList */\n      swap3\n      pop\n      pop\n      pop\n        /* \"contracts/4_CrowdFunding.sol\":3162:3630  function getAllInvestmentsForFund(uint256 fundId) public view returns (Investment[] memory)\r... */\n      swap2\n      swap1\n      pop\n      jump\t// out\n        /* \"contracts/4_CrowdFunding.sol\":594:616  address public manager */\n    tag_41:\n      0x00\n      dup1\n      sload\n      swap1\n      0x0100\n      exp\n      swap1\n      div\n      0xffffffffffffffffffffffffffffffffffffffff\n      and\n      dup2\n      jump\t// out\n        /* \"contracts/4_CrowdFunding.sol\":3681:4135  function makePayment(uint256 fundId) public payable onlyManager {\r... */\n    tag_46:\n        /* \"contracts/4_CrowdFunding.sol\":968:978  msg.sender */\n      caller\n        /* \"contracts/4_CrowdFunding.sol\":957:978  manager == msg.sender */\n      0xffffffffffffffffffffffffffffffffffffffff\n      and\n        /* \"contracts/4_CrowdFunding.sol\":957:964  manager */\n      0x00\n      dup1\n      sload\n      swap1\n      0x0100\n      exp\n      swap1\n      div\n      0xffffffffffffffffffffffffffffffffffffffff\n      and\n        /* \"contracts/4_CrowdFunding.sol\":957:978  manager == msg.sender */\n      0xffffffffffffffffffffffffffffffffffffffff\n      and\n      eq\n        /* \"contracts/4_CrowdFunding.sol\":935:1063  require(\r... */\n      tag_126\n      jumpi\n      mload(0x40)\n      0x08c379a000000000000000000000000000000000000000000000000000000000\n      dup2\n      mstore\n      0x04\n      add\n      tag_127\n      swap1\n      tag_128\n      jump\t// in\n    tag_127:\n      mload(0x40)\n      dup1\n      swap2\n      sub\n      swap1\n      revert\n    tag_126:\n        /* \"contracts/4_CrowdFunding.sol\":3756:3773  Fund storage fund */\n      0x00\n        /* \"contracts/4_CrowdFunding.sol\":3776:3781  funds */\n      0x01\n        /* \"contracts/4_CrowdFunding.sol\":3776:3789  funds[fundId] */\n      0x00\n        /* \"contracts/4_CrowdFunding.sol\":3782:3788  fundId */\n      dup4\n        /* \"contracts/4_CrowdFunding.sol\":3776:3789  funds[fundId] */\n      dup2\n      mstore\n      0x20\n      add\n      swap1\n      dup2\n      mstore\n      0x20\n      add\n      0x00\n      keccak256\n        /* \"contracts/4_CrowdFunding.sol\":3756:3789  Fund storage fund = funds[fundId] */\n      swap1\n      pop\n        /* \"contracts/4_CrowdFunding.sol\":3808:3812  fund */\n      dup1\n        /* \"contracts/4_CrowdFunding.sol\":3808:3821  fund.isActive */\n      0x07\n      add\n      0x00\n      swap1\n      sload\n      swap1\n      0x0100\n      exp\n      swap1\n      div\n      0xff\n      and\n        /* \"contracts/4_CrowdFunding.sol\":3800:3841  require(fund.isActive, \"Fund is closed.\") */\n      tag_130\n      jumpi\n      mload(0x40)\n      0x08c379a000000000000000000000000000000000000000000000000000000000\n      dup2\n      mstore\n      0x04\n      add\n      tag_131\n      swap1\n      tag_57\n      jump\t// in\n    tag_131:\n      mload(0x40)\n      dup1\n      swap2\n      sub\n      swap1\n      revert\n    tag_130:\n        /* \"contracts/4_CrowdFunding.sol\":3896:3900  fund */\n      dup1\n        /* \"contracts/4_CrowdFunding.sol\":3896:3911  fund.goalAmount */\n      0x05\n      add\n      sload\n        /* \"contracts/4_CrowdFunding.sol\":3874:3878  fund */\n      dup2\n        /* \"contracts/4_CrowdFunding.sol\":3874:3892  fund.currentAmount */\n      0x06\n      add\n      sload\n        /* \"contracts/4_CrowdFunding.sol\":3874:3911  fund.currentAmount >= fund.goalAmount */\n      lt\n      iszero\n        /* \"contracts/4_CrowdFunding.sol\":3874:3962  fund.currentAmount >= fund.goalAmount ||\r... */\n      dup1\n      tag_132\n      jumpi\n      pop\n        /* \"contracts/4_CrowdFunding.sol\":3947:3962  block.timestamp */\n      timestamp\n        /* \"contracts/4_CrowdFunding.sol\":3932:3936  fund */\n      dup2\n        /* \"contracts/4_CrowdFunding.sol\":3932:3944  fund.endDate */\n      0x04\n      add\n      sload\n        /* \"contracts/4_CrowdFunding.sol\":3932:3962  fund.endDate < block.timestamp */\n      lt\n        /* \"contracts/4_CrowdFunding.sol\":3874:3962  fund.currentAmount >= fund.goalAmount ||\r... */\n    tag_132:\n        /* \"contracts/4_CrowdFunding.sol\":3852:4033  require(\r... */\n      tag_133\n      jumpi\n      mload(0x40)\n      0x08c379a000000000000000000000000000000000000000000000000000000000\n      dup2\n      mstore\n      0x04\n      add\n      tag_134\n      swap1\n      tag_135\n      jump\t// in\n    tag_134:\n      mload(0x40)\n      dup1\n      swap2\n      sub\n      swap1\n      revert\n    tag_133:\n        /* \"contracts/4_CrowdFunding.sol\":4046:4050  fund */\n      dup1\n        /* \"contracts/4_CrowdFunding.sol\":4046:4066  fund.receiverAddress */\n      0x07\n      add\n      0x01\n      swap1\n      sload\n      swap1\n      0x0100\n      exp\n      swap1\n      div\n      0xffffffffffffffffffffffffffffffffffffffff\n      and\n        /* \"contracts/4_CrowdFunding.sol\":4046:4075  fund.receiverAddress.transfer */\n      0xffffffffffffffffffffffffffffffffffffffff\n      and\n        /* \"contracts/4_CrowdFunding.sol\":4046:4095  fund.receiverAddress.transfer(fund.currentAmount) */\n      0x08fc\n        /* \"contracts/4_CrowdFunding.sol\":4076:4080  fund */\n      dup3\n        /* \"contracts/4_CrowdFunding.sol\":4076:4094  fund.currentAmount */\n      0x06\n      add\n      sload\n        /* \"contracts/4_CrowdFunding.sol\":4046:4095  fund.receiverAddress.transfer(fund.currentAmount) */\n      swap1\n      dup2\n      iszero\n      mul\n      swap1\n      mload(0x40)\n      0x00\n      mload(0x40)\n      dup1\n      dup4\n      sub\n      dup2\n      dup6\n      dup9\n      dup9\n      call\n      swap4\n      pop\n      pop\n      pop\n      pop\n      iszero\n      dup1\n      iszero\n      tag_137\n      jumpi\n      returndatasize\n      0x00\n      dup1\n      returndatacopy\n      revert(0x00, returndatasize)\n    tag_137:\n      pop\n        /* \"contracts/4_CrowdFunding.sol\":4122:4127  false */\n      0x00\n        /* \"contracts/4_CrowdFunding.sol\":4106:4110  fund */\n      dup2\n        /* \"contracts/4_CrowdFunding.sol\":4106:4119  fund.isActive */\n      0x07\n      add\n      0x00\n        /* \"contracts/4_CrowdFunding.sol\":4106:4127  fund.isActive = false */\n      0x0100\n      exp\n      dup2\n      sload\n      dup2\n      0xff\n      mul\n      not\n      and\n      swap1\n      dup4\n      iszero\n      iszero\n      mul\n      or\n      swap1\n      sstore\n      pop\n        /* \"contracts/4_CrowdFunding.sol\":3745:4135  {\r... */\n      pop\n        /* \"contracts/4_CrowdFunding.sol\":3681:4135  function makePayment(uint256 fundId) public payable onlyManager {\r... */\n      pop\n      jump\t// out\n        /* \"contracts/4_CrowdFunding.sol\":1156:2099  function createFund(\r... */\n    tag_51:\n        /* \"contracts/4_CrowdFunding.sol\":968:978  msg.sender */\n      caller\n        /* \"contracts/4_CrowdFunding.sol\":957:978  manager == msg.sender */\n      0xffffffffffffffffffffffffffffffffffffffff\n      and\n        /* \"contracts/4_CrowdFunding.sol\":957:964  manager */\n      0x00\n      dup1\n      sload\n      swap1\n      0x0100\n      exp\n      swap1\n      div\n      0xffffffffffffffffffffffffffffffffffffffff\n      and\n        /* \"contracts/4_CrowdFunding.sol\":957:978  manager == msg.sender */\n      0xffffffffffffffffffffffffffffffffffffffff\n      and\n      eq\n        /* \"contracts/4_CrowdFunding.sol\":935:1063  require(\r... */\n      tag_139\n      jumpi\n      mload(0x40)\n      0x08c379a000000000000000000000000000000000000000000000000000000000\n      dup2\n      mstore\n      0x04\n      add\n      tag_140\n      swap1\n      tag_128\n      jump\t// in\n    tag_140:\n      mload(0x40)\n      dup1\n      swap2\n      sub\n      swap1\n      revert\n    tag_139:\n        /* \"contracts/4_CrowdFunding.sol\":1437:1452  block.timestamp */\n      timestamp\n        /* \"contracts/4_CrowdFunding.sol\":1425:1434  startDate */\n      dup5\n        /* \"contracts/4_CrowdFunding.sol\":1425:1452  startDate > block.timestamp */\n      gt\n        /* \"contracts/4_CrowdFunding.sol\":1403:1537  require(\r... */\n      tag_142\n      jumpi\n      mload(0x40)\n      0x08c379a000000000000000000000000000000000000000000000000000000000\n      dup2\n      mstore\n      0x04\n      add\n      tag_143\n      swap1\n      tag_144\n      jump\t// in\n    tag_143:\n      mload(0x40)\n      dup1\n      swap2\n      sub\n      swap1\n      revert\n    tag_142:\n        /* \"contracts/4_CrowdFunding.sol\":1580:1589  startDate */\n      dup4\n        /* \"contracts/4_CrowdFunding.sol\":1570:1577  endDate */\n      dup4\n        /* \"contracts/4_CrowdFunding.sol\":1570:1589  endDate > startDate */\n      gt\n        /* \"contracts/4_CrowdFunding.sol\":1548:1670  require(\r... */\n      tag_145\n      jumpi\n      mload(0x40)\n      0x08c379a000000000000000000000000000000000000000000000000000000000\n      dup2\n      mstore\n      0x04\n      add\n      tag_146\n      swap1\n      tag_147\n      jump\t// in\n    tag_146:\n      mload(0x40)\n      dup1\n      swap2\n      sub\n      swap1\n      revert\n    tag_145:\n        /* \"contracts/4_CrowdFunding.sol\":1683:1703  Fund storage newFund */\n      0x00\n        /* \"contracts/4_CrowdFunding.sol\":1706:1711  funds */\n      0x01\n        /* \"contracts/4_CrowdFunding.sol\":1706:1722  funds[fundCount] */\n      0x00\n        /* \"contracts/4_CrowdFunding.sol\":1712:1721  fundCount */\n      sload(0x03)\n        /* \"contracts/4_CrowdFunding.sol\":1706:1722  funds[fundCount] */\n      dup2\n      mstore\n      0x20\n      add\n      swap1\n      dup2\n      mstore\n      0x20\n      add\n      0x00\n      keccak256\n        /* \"contracts/4_CrowdFunding.sol\":1683:1722  Fund storage newFund = funds[fundCount] */\n      swap1\n      pop\n        /* \"contracts/4_CrowdFunding.sol\":1746:1755  fundCount */\n      sload(0x03)\n        /* \"contracts/4_CrowdFunding.sol\":1733:1740  newFund */\n      dup2\n        /* \"contracts/4_CrowdFunding.sol\":1733:1743  newFund.id */\n      0x00\n      add\n        /* \"contracts/4_CrowdFunding.sol\":1733:1755  newFund.id = fundCount */\n      dup2\n      swap1\n      sstore\n      pop\n        /* \"contracts/4_CrowdFunding.sol\":1781:1785  name */\n      dup7\n        /* \"contracts/4_CrowdFunding.sol\":1766:1773  newFund */\n      dup2\n        /* \"contracts/4_CrowdFunding.sol\":1766:1778  newFund.name */\n      0x01\n      add\n        /* \"contracts/4_CrowdFunding.sol\":1766:1785  newFund.name = name */\n      swap1\n      dup1\n      mload\n      swap1\n      0x20\n      add\n      swap1\n      tag_148\n      swap3\n      swap2\n      swap1\n      tag_149\n      jump\t// in\n    tag_148:\n      pop\n        /* \"contracts/4_CrowdFunding.sol\":1818:1829  description */\n      dup6\n        /* \"contracts/4_CrowdFunding.sol\":1796:1803  newFund */\n      dup2\n        /* \"contracts/4_CrowdFunding.sol\":1796:1815  newFund.description */\n      0x02\n      add\n        /* \"contracts/4_CrowdFunding.sol\":1796:1829  newFund.description = description */\n      swap1\n      dup1\n      mload\n      swap1\n      0x20\n      add\n      swap1\n      tag_150\n      swap3\n      swap2\n      swap1\n      tag_149\n      jump\t// in\n    tag_150:\n      pop\n        /* \"contracts/4_CrowdFunding.sol\":1860:1869  startDate */\n      dup5\n        /* \"contracts/4_CrowdFunding.sol\":1840:1847  newFund */\n      dup2\n        /* \"contracts/4_CrowdFunding.sol\":1840:1857  newFund.startDate */\n      0x03\n      add\n        /* \"contracts/4_CrowdFunding.sol\":1840:1869  newFund.startDate = startDate */\n      dup2\n      swap1\n      sstore\n      pop\n        /* \"contracts/4_CrowdFunding.sol\":1898:1905  endDate */\n      dup4\n        /* \"contracts/4_CrowdFunding.sol\":1880:1887  newFund */\n      dup2\n        /* \"contracts/4_CrowdFunding.sol\":1880:1895  newFund.endDate */\n      0x04\n      add\n        /* \"contracts/4_CrowdFunding.sol\":1880:1905  newFund.endDate = endDate */\n      dup2\n      swap1\n      sstore\n      pop\n        /* \"contracts/4_CrowdFunding.sol\":1937:1947  goalAmount */\n      dup3\n        /* \"contracts/4_CrowdFunding.sol\":1916:1923  newFund */\n      dup2\n        /* \"contracts/4_CrowdFunding.sol\":1916:1934  newFund.goalAmount */\n      0x05\n      add\n        /* \"contracts/4_CrowdFunding.sol\":1916:1947  newFund.goalAmount = goalAmount */\n      dup2\n      swap1\n      sstore\n      pop\n        /* \"contracts/4_CrowdFunding.sol\":1982:1983  0 */\n      0x00\n        /* \"contracts/4_CrowdFunding.sol\":1958:1965  newFund */\n      dup2\n        /* \"contracts/4_CrowdFunding.sol\":1958:1979  newFund.currentAmount */\n      0x06\n      add\n        /* \"contracts/4_CrowdFunding.sol\":1958:1983  newFund.currentAmount = 0 */\n      dup2\n      swap1\n      sstore\n      pop\n        /* \"contracts/4_CrowdFunding.sol\":2020:2035  receiverAddress */\n      dup2\n        /* \"contracts/4_CrowdFunding.sol\":1994:2001  newFund */\n      dup2\n        /* \"contracts/4_CrowdFunding.sol\":1994:2017  newFund.receiverAddress */\n      0x07\n      add\n      0x01\n        /* \"contracts/4_CrowdFunding.sol\":1994:2035  newFund.receiverAddress = receiverAddress */\n      0x0100\n      exp\n      dup2\n      sload\n      dup2\n      0xffffffffffffffffffffffffffffffffffffffff\n      mul\n      not\n      and\n      swap1\n      dup4\n      0xffffffffffffffffffffffffffffffffffffffff\n      and\n      mul\n      or\n      swap1\n      sstore\n      pop\n        /* \"contracts/4_CrowdFunding.sol\":2065:2069  true */\n      0x01\n        /* \"contracts/4_CrowdFunding.sol\":2046:2053  newFund */\n      dup2\n        /* \"contracts/4_CrowdFunding.sol\":2046:2062  newFund.isActive */\n      0x07\n      add\n      0x00\n        /* \"contracts/4_CrowdFunding.sol\":2046:2069  newFund.isActive = true */\n      0x0100\n      exp\n      dup2\n      sload\n      dup2\n      0xff\n      mul\n      not\n      and\n      swap1\n      dup4\n      iszero\n      iszero\n      mul\n      or\n      swap1\n      sstore\n      pop\n        /* \"contracts/4_CrowdFunding.sol\":2080:2089  fundCount */\n      0x03\n      0x00\n        /* \"contracts/4_CrowdFunding.sol\":2080:2091  fundCount++ */\n      dup2\n      sload\n      dup1\n      swap3\n      swap2\n      swap1\n      tag_151\n      swap1\n      tag_63\n      jump\t// in\n    tag_151:\n      swap2\n      swap1\n      pop\n      sstore\n      pop\n        /* \"contracts/4_CrowdFunding.sol\":1392:2099  {\r... */\n      pop\n        /* \"contracts/4_CrowdFunding.sol\":1156:2099  function createFund(\r... */\n      pop\n      pop\n      pop\n      pop\n      pop\n      pop\n      jump\t// out\n    tag_67:\n      mload(0x40)\n      dup1\n      0x0120\n      add\n      0x40\n      mstore\n      dup1\n      0x00\n      dup2\n      mstore\n      0x20\n      add\n      0x60\n      dup2\n      mstore\n      0x20\n      add\n      0x60\n      dup2\n      mstore\n      0x20\n      add\n      0x00\n      dup2\n      mstore\n      0x20\n      add\n      0x00\n      dup2\n      mstore\n      0x20\n      add\n      0x00\n      dup2\n      mstore\n      0x20\n      add\n      0x00\n      dup2\n      mstore\n      0x20\n      add\n      iszero(iszero(0x00))\n      dup2\n      mstore\n      0x20\n      add\n      and(0xffffffffffffffffffffffffffffffffffffffff, 0x00)\n      dup2\n      mstore\n      pop\n      swap1\n      jump\t// out\n    tag_110:\n      mload(0x40)\n      dup1\n      0xa0\n      add\n      0x40\n      mstore\n      dup1\n      0x00\n      dup2\n      mstore\n      0x20\n      add\n      0x00\n      dup2\n      mstore\n      0x20\n      add\n      and(0xffffffffffffffffffffffffffffffffffffffff, 0x00)\n      dup2\n      mstore\n      0x20\n      add\n      0x00\n      dup2\n      mstore\n      0x20\n      add\n      0x00\n      dup2\n      mstore\n      pop\n      swap1\n      jump\t// out\n    tag_149:\n      dup3\n      dup1\n      sload\n      tag_152\n      swap1\n      tag_70\n      jump\t// in\n    tag_152:\n      swap1\n      0x00\n      mstore\n      keccak256(0x00, 0x20)\n      swap1\n      0x1f\n      add\n      0x20\n      swap1\n      div\n      dup2\n      add\n      swap3\n      dup3\n      tag_154\n      jumpi\n      0x00\n      dup6\n      sstore\n      jump(tag_153)\n    tag_154:\n      dup3\n      0x1f\n      lt\n      tag_155\n      jumpi\n      dup1\n      mload\n      not(0xff)\n      and\n      dup4\n      dup1\n      add\n      or\n      dup6\n      sstore\n      jump(tag_153)\n    tag_155:\n      dup3\n      dup1\n      add\n      0x01\n      add\n      dup6\n      sstore\n      dup3\n      iszero\n      tag_153\n      jumpi\n      swap2\n      dup3\n      add\n    tag_156:\n      dup3\n      dup2\n      gt\n      iszero\n      tag_157\n      jumpi\n      dup3\n      mload\n      dup3\n      sstore\n      swap2\n      0x20\n      add\n      swap2\n      swap1\n      0x01\n      add\n      swap1\n      jump(tag_156)\n    tag_157:\n    tag_153:\n      pop\n      swap1\n      pop\n      tag_158\n      swap2\n      swap1\n      tag_159\n      jump\t// in\n    tag_158:\n      pop\n      swap1\n      jump\t// out\n    tag_159:\n    tag_160:\n      dup1\n      dup3\n      gt\n      iszero\n      tag_161\n      jumpi\n      0x00\n      dup2\n      0x00\n      swap1\n      sstore\n      pop\n      0x01\n      add\n      jump(tag_160)\n    tag_161:\n      pop\n      swap1\n      jump\t// out\n        /* \"#utility.yul\":7:419   */\n    tag_163:\n        /* \"#utility.yul\":85:90   */\n      0x00\n        /* \"#utility.yul\":110:176   */\n      tag_165\n        /* \"#utility.yul\":126:175   */\n      tag_166\n        /* \"#utility.yul\":168:174   */\n      dup5\n        /* \"#utility.yul\":126:175   */\n      tag_167\n      jump\t// in\n    tag_166:\n        /* \"#utility.yul\":110:176   */\n      tag_168\n      jump\t// in\n    tag_165:\n        /* \"#utility.yul\":101:176   */\n      swap1\n      pop\n        /* \"#utility.yul\":199:205   */\n      dup3\n        /* \"#utility.yul\":192:197   */\n      dup2\n        /* \"#utility.yul\":185:206   */\n      mstore\n        /* \"#utility.yul\":237:241   */\n      0x20\n        /* \"#utility.yul\":230:235   */\n      dup2\n        /* \"#utility.yul\":226:242   */\n      add\n        /* \"#utility.yul\":275:278   */\n      dup5\n        /* \"#utility.yul\":266:272   */\n      dup5\n        /* \"#utility.yul\":261:264   */\n      dup5\n        /* \"#utility.yul\":257:273   */\n      add\n        /* \"#utility.yul\":254:279   */\n      gt\n        /* \"#utility.yul\":251:363   */\n      iszero\n      tag_169\n      jumpi\n        /* \"#utility.yul\":282:361   */\n      tag_170\n      tag_171\n      jump\t// in\n    tag_170:\n        /* \"#utility.yul\":251:363   */\n    tag_169:\n        /* \"#utility.yul\":372:413   */\n      tag_172\n        /* \"#utility.yul\":406:412   */\n      dup5\n        /* \"#utility.yul\":401:404   */\n      dup3\n        /* \"#utility.yul\":396:399   */\n      dup6\n        /* \"#utility.yul\":372:413   */\n      tag_173\n      jump\t// in\n    tag_172:\n        /* \"#utility.yul\":91:419   */\n      pop\n        /* \"#utility.yul\":7:419   */\n      swap4\n      swap3\n      pop\n      pop\n      pop\n      jump\t// out\n        /* \"#utility.yul\":425:580   */\n    tag_174:\n        /* \"#utility.yul\":479:484   */\n      0x00\n        /* \"#utility.yul\":517:523   */\n      dup2\n        /* \"#utility.yul\":504:524   */\n      calldataload\n        /* \"#utility.yul\":495:524   */\n      swap1\n      pop\n        /* \"#utility.yul\":533:574   */\n      tag_176\n        /* \"#utility.yul\":568:573   */\n      dup2\n        /* \"#utility.yul\":533:574   */\n      tag_177\n      jump\t// in\n    tag_176:\n        /* \"#utility.yul\":425:580   */\n      swap3\n      swap2\n      pop\n      pop\n      jump\t// out\n        /* \"#utility.yul\":600:940   */\n    tag_178:\n        /* \"#utility.yul\":656:661   */\n      0x00\n        /* \"#utility.yul\":705:708   */\n      dup3\n        /* \"#utility.yul\":698:702   */\n      0x1f\n        /* \"#utility.yul\":690:696   */\n      dup4\n        /* \"#utility.yul\":686:703   */\n      add\n        /* \"#utility.yul\":682:709   */\n      slt\n        /* \"#utility.yul\":672:794   */\n      tag_180\n      jumpi\n        /* \"#utility.yul\":713:792   */\n      tag_181\n      tag_182\n      jump\t// in\n    tag_181:\n        /* \"#utility.yul\":672:794   */\n    tag_180:\n        /* \"#utility.yul\":830:836   */\n      dup2\n        /* \"#utility.yul\":817:837   */\n      calldataload\n        /* \"#utility.yul\":855:934   */\n      tag_183\n        /* \"#utility.yul\":930:933   */\n      dup5\n        /* \"#utility.yul\":922:928   */\n      dup3\n        /* \"#utility.yul\":915:919   */\n      0x20\n        /* \"#utility.yul\":907:913   */\n      dup7\n        /* \"#utility.yul\":903:920   */\n      add\n        /* \"#utility.yul\":855:934   */\n      tag_163\n      jump\t// in\n    tag_183:\n        /* \"#utility.yul\":846:934   */\n      swap2\n      pop\n        /* \"#utility.yul\":662:940   */\n      pop\n        /* \"#utility.yul\":600:940   */\n      swap3\n      swap2\n      pop\n      pop\n      jump\t// out\n        /* \"#utility.yul\":946:1085   */\n    tag_184:\n        /* \"#utility.yul\":992:997   */\n      0x00\n        /* \"#utility.yul\":1030:1036   */\n      dup2\n        /* \"#utility.yul\":1017:1037   */\n      calldataload\n        /* \"#utility.yul\":1008:1037   */\n      swap1\n      pop\n        /* \"#utility.yul\":1046:1079   */\n      tag_186\n        /* \"#utility.yul\":1073:1078   */\n      dup2\n        /* \"#utility.yul\":1046:1079   */\n      tag_187\n      jump\t// in\n    tag_186:\n        /* \"#utility.yul\":946:1085   */\n      swap3\n      swap2\n      pop\n      pop\n      jump\t// out\n        /* \"#utility.yul\":1091:2524   */\n    tag_50:\n        /* \"#utility.yul\":1223:1229   */\n      0x00\n        /* \"#utility.yul\":1231:1237   */\n      dup1\n        /* \"#utility.yul\":1239:1245   */\n      0x00\n        /* \"#utility.yul\":1247:1253   */\n      dup1\n        /* \"#utility.yul\":1255:1261   */\n      0x00\n        /* \"#utility.yul\":1263:1269   */\n      dup1\n        /* \"#utility.yul\":1312:1315   */\n      0xc0\n        /* \"#utility.yul\":1300:1309   */\n      dup8\n        /* \"#utility.yul\":1291:1298   */\n      dup10\n        /* \"#utility.yul\":1287:1310   */\n      sub\n        /* \"#utility.yul\":1283:1316   */\n      slt\n        /* \"#utility.yul\":1280:1400   */\n      iszero\n      tag_189\n      jumpi\n        /* \"#utility.yul\":1319:1398   */\n      tag_190\n      tag_191\n      jump\t// in\n    tag_190:\n        /* \"#utility.yul\":1280:1400   */\n    tag_189:\n        /* \"#utility.yul\":1467:1468   */\n      0x00\n        /* \"#utility.yul\":1456:1465   */\n      dup8\n        /* \"#utility.yul\":1452:1469   */\n      add\n        /* \"#utility.yul\":1439:1470   */\n      calldataload\n        /* \"#utility.yul\":1497:1515   */\n      0xffffffffffffffff\n        /* \"#utility.yul\":1489:1495   */\n      dup2\n        /* \"#utility.yul\":1486:1516   */\n      gt\n        /* \"#utility.yul\":1483:1600   */\n      iszero\n      tag_192\n      jumpi\n        /* \"#utility.yul\":1519:1598   */\n      tag_193\n      tag_194\n      jump\t// in\n    tag_193:\n        /* \"#utility.yul\":1483:1600   */\n    tag_192:\n        /* \"#utility.yul\":1624:1687   */\n      tag_195\n        /* \"#utility.yul\":1679:1686   */\n      dup10\n        /* \"#utility.yul\":1670:1676   */\n      dup3\n        /* \"#utility.yul\":1659:1668   */\n      dup11\n        /* \"#utility.yul\":1655:1677   */\n      add\n        /* \"#utility.yul\":1624:1687   */\n      tag_178\n      jump\t// in\n    tag_195:\n        /* \"#utility.yul\":1614:1687   */\n      swap7\n      pop\n        /* \"#utility.yul\":1410:1697   */\n      pop\n        /* \"#utility.yul\":1764:1766   */\n      0x20\n        /* \"#utility.yul\":1753:1762   */\n      dup8\n        /* \"#utility.yul\":1749:1767   */\n      add\n        /* \"#utility.yul\":1736:1768   */\n      calldataload\n        /* \"#utility.yul\":1795:1813   */\n      0xffffffffffffffff\n        /* \"#utility.yul\":1787:1793   */\n      dup2\n        /* \"#utility.yul\":1784:1814   */\n      gt\n        /* \"#utility.yul\":1781:1898   */\n      iszero\n      tag_196\n      jumpi\n        /* \"#utility.yul\":1817:1896   */\n      tag_197\n      tag_194\n      jump\t// in\n    tag_197:\n        /* \"#utility.yul\":1781:1898   */\n    tag_196:\n        /* \"#utility.yul\":1922:1985   */\n      tag_198\n        /* \"#utility.yul\":1977:1984   */\n      dup10\n        /* \"#utility.yul\":1968:1974   */\n      dup3\n        /* \"#utility.yul\":1957:1966   */\n      dup11\n        /* \"#utility.yul\":1953:1975   */\n      add\n        /* \"#utility.yul\":1922:1985   */\n      tag_178\n      jump\t// in\n    tag_198:\n        /* \"#utility.yul\":1912:1985   */\n      swap6\n      pop\n        /* \"#utility.yul\":1707:1995   */\n      pop\n        /* \"#utility.yul\":2034:2036   */\n      0x40\n        /* \"#utility.yul\":2060:2113   */\n      tag_199\n        /* \"#utility.yul\":2105:2112   */\n      dup10\n        /* \"#utility.yul\":2096:2102   */\n      dup3\n        /* \"#utility.yul\":2085:2094   */\n      dup11\n        /* \"#utility.yul\":2081:2103   */\n      add\n        /* \"#utility.yul\":2060:2113   */\n      tag_184\n      jump\t// in\n    tag_199:\n        /* \"#utility.yul\":2050:2113   */\n      swap5\n      pop\n        /* \"#utility.yul\":2005:2123   */\n      pop\n        /* \"#utility.yul\":2162:2164   */\n      0x60\n        /* \"#utility.yul\":2188:2241   */\n      tag_200\n        /* \"#utility.yul\":2233:2240   */\n      dup10\n        /* \"#utility.yul\":2224:2230   */\n      dup3\n        /* \"#utility.yul\":2213:2222   */\n      dup11\n        /* \"#utility.yul\":2209:2231   */\n      add\n        /* \"#utility.yul\":2188:2241   */\n      tag_184\n      jump\t// in\n    tag_200:\n        /* \"#utility.yul\":2178:2241   */\n      swap4\n      pop\n        /* \"#utility.yul\":2133:2251   */\n      pop\n        /* \"#utility.yul\":2290:2293   */\n      0x80\n        /* \"#utility.yul\":2317:2370   */\n      tag_201\n        /* \"#utility.yul\":2362:2369   */\n      dup10\n        /* \"#utility.yul\":2353:2359   */\n      dup3\n        /* \"#utility.yul\":2342:2351   */\n      dup11\n        /* \"#utility.yul\":2338:2360   */\n      add\n        /* \"#utility.yul\":2317:2370   */\n      tag_184\n      jump\t// in\n    tag_201:\n        /* \"#utility.yul\":2307:2370   */\n      swap3\n      pop\n        /* \"#utility.yul\":2261:2380   */\n      pop\n        /* \"#utility.yul\":2419:2422   */\n      0xa0\n        /* \"#utility.yul\":2446:2507   */\n      tag_202\n        /* \"#utility.yul\":2499:2506   */\n      dup10\n        /* \"#utility.yul\":2490:2496   */\n      dup3\n        /* \"#utility.yul\":2479:2488   */\n      dup11\n        /* \"#utility.yul\":2475:2497   */\n      add\n        /* \"#utility.yul\":2446:2507   */\n      tag_174\n      jump\t// in\n    tag_202:\n        /* \"#utility.yul\":2436:2507   */\n      swap2\n      pop\n        /* \"#utility.yul\":2390:2517   */\n      pop\n        /* \"#utility.yul\":1091:2524   */\n      swap3\n      swap6\n      pop\n      swap3\n      swap6\n      pop\n      swap3\n      swap6\n      jump\t// out\n        /* \"#utility.yul\":2530:2859   */\n    tag_24:\n        /* \"#utility.yul\":2589:2595   */\n      0x00\n        /* \"#utility.yul\":2638:2640   */\n      0x20\n        /* \"#utility.yul\":2626:2635   */\n      dup3\n        /* \"#utility.yul\":2617:2624   */\n      dup5\n        /* \"#utility.yul\":2613:2636   */\n      sub\n        /* \"#utility.yul\":2609:2641   */\n      slt\n        /* \"#utility.yul\":2606:2725   */\n      iszero\n      tag_204\n      jumpi\n        /* \"#utility.yul\":2644:2723   */\n      tag_205\n      tag_191\n      jump\t// in\n    tag_205:\n        /* \"#utility.yul\":2606:2725   */\n    tag_204:\n        /* \"#utility.yul\":2764:2765   */\n      0x00\n        /* \"#utility.yul\":2789:2842   */\n      tag_206\n        /* \"#utility.yul\":2834:2841   */\n      dup5\n        /* \"#utility.yul\":2825:2831   */\n      dup3\n        /* \"#utility.yul\":2814:2823   */\n      dup6\n        /* \"#utility.yul\":2810:2832   */\n      add\n        /* \"#utility.yul\":2789:2842   */\n      tag_184\n      jump\t// in\n    tag_206:\n        /* \"#utility.yul\":2779:2842   */\n      swap2\n      pop\n        /* \"#utility.yul\":2735:2852   */\n      pop\n        /* \"#utility.yul\":2530:2859   */\n      swap3\n      swap2\n      pop\n      pop\n      jump\t// out\n        /* \"#utility.yul\":2865:3339   */\n    tag_19:\n        /* \"#utility.yul\":2933:2939   */\n      0x00\n        /* \"#utility.yul\":2941:2947   */\n      dup1\n        /* \"#utility.yul\":2990:2992   */\n      0x40\n        /* \"#utility.yul\":2978:2987   */\n      dup4\n        /* \"#utility.yul\":2969:2976   */\n      dup6\n        /* \"#utility.yul\":2965:2988   */\n      sub\n        /* \"#utility.yul\":2961:2993   */\n      slt\n        /* \"#utility.yul\":2958:3077   */\n      iszero\n      tag_208\n      jumpi\n        /* \"#utility.yul\":2996:3075   */\n      tag_209\n      tag_191\n      jump\t// in\n    tag_209:\n        /* \"#utility.yul\":2958:3077   */\n    tag_208:\n        /* \"#utility.yul\":3116:3117   */\n      0x00\n        /* \"#utility.yul\":3141:3194   */\n      tag_210\n        /* \"#utility.yul\":3186:3193   */\n      dup6\n        /* \"#utility.yul\":3177:3183   */\n      dup3\n        /* \"#utility.yul\":3166:3175   */\n      dup7\n        /* \"#utility.yul\":3162:3184   */\n      add\n        /* \"#utility.yul\":3141:3194   */\n      tag_184\n      jump\t// in\n    tag_210:\n        /* \"#utility.yul\":3131:3194   */\n      swap3\n      pop\n        /* \"#utility.yul\":3087:3204   */\n      pop\n        /* \"#utility.yul\":3243:3245   */\n      0x20\n        /* \"#utility.yul\":3269:3322   */\n      tag_211\n        /* \"#utility.yul\":3314:3321   */\n      dup6\n        /* \"#utility.yul\":3305:3311   */\n      dup3\n        /* \"#utility.yul\":3294:3303   */\n      dup7\n        /* \"#utility.yul\":3290:3312   */\n      add\n        /* \"#utility.yul\":3269:3322   */\n      tag_184\n      jump\t// in\n    tag_211:\n        /* \"#utility.yul\":3259:3322   */\n      swap2\n      pop\n        /* \"#utility.yul\":3214:3332   */\n      pop\n        /* \"#utility.yul\":2865:3339   */\n      swap3\n      pop\n      swap3\n      swap1\n      pop\n      jump\t// out\n        /* \"#utility.yul\":3345:3581   */\n    tag_212:\n        /* \"#utility.yul\":3454:3464   */\n      0x00\n        /* \"#utility.yul\":3489:3575   */\n      tag_214\n        /* \"#utility.yul\":3571:3574   */\n      dup4\n        /* \"#utility.yul\":3563:3569   */\n      dup4\n        /* \"#utility.yul\":3489:3575   */\n      tag_215\n      jump\t// in\n    tag_214:\n        /* \"#utility.yul\":3475:3575   */\n      swap1\n      pop\n        /* \"#utility.yul\":3345:3581   */\n      swap3\n      swap2\n      pop\n      pop\n      jump\t// out\n        /* \"#utility.yul\":3587:3870   */\n    tag_216:\n        /* \"#utility.yul\":3708:3718   */\n      0x00\n        /* \"#utility.yul\":3729:3827   */\n      tag_218\n        /* \"#utility.yul\":3823:3826   */\n      dup4\n        /* \"#utility.yul\":3815:3821   */\n      dup4\n        /* \"#utility.yul\":3729:3827   */\n      tag_219\n      jump\t// in\n    tag_218:\n        /* \"#utility.yul\":3859:3863   */\n      0xa0\n        /* \"#utility.yul\":3854:3857   */\n      dup4\n        /* \"#utility.yul\":3850:3864   */\n      add\n        /* \"#utility.yul\":3836:3864   */\n      swap1\n      pop\n        /* \"#utility.yul\":3587:3870   */\n      swap3\n      swap2\n      pop\n      pop\n      jump\t// out\n        /* \"#utility.yul\":3876:4008   */\n    tag_220:\n        /* \"#utility.yul\":3969:4001   */\n      tag_222\n        /* \"#utility.yul\":3995:4000   */\n      dup2\n        /* \"#utility.yul\":3969:4001   */\n      tag_223\n      jump\t// in\n    tag_222:\n        /* \"#utility.yul\":3964:3967   */\n      dup3\n        /* \"#utility.yul\":3957:4002   */\n      mstore\n        /* \"#utility.yul\":3876:4008   */\n      pop\n      pop\n      jump\t// out\n        /* \"#utility.yul\":4014:4122   */\n    tag_224:\n        /* \"#utility.yul\":4091:4115   */\n      tag_226\n        /* \"#utility.yul\":4109:4114   */\n      dup2\n        /* \"#utility.yul\":4091:4115   */\n      tag_227\n      jump\t// in\n    tag_226:\n        /* \"#utility.yul\":4086:4089   */\n      dup3\n        /* \"#utility.yul\":4079:4116   */\n      mstore\n        /* \"#utility.yul\":4014:4122   */\n      pop\n      pop\n      jump\t// out\n        /* \"#utility.yul\":4128:4246   */\n    tag_228:\n        /* \"#utility.yul\":4215:4239   */\n      tag_230\n        /* \"#utility.yul\":4233:4238   */\n      dup2\n        /* \"#utility.yul\":4215:4239   */\n      tag_227\n      jump\t// in\n    tag_230:\n        /* \"#utility.yul\":4210:4213   */\n      dup3\n        /* \"#utility.yul\":4203:4240   */\n      mstore\n        /* \"#utility.yul\":4128:4246   */\n      pop\n      pop\n      jump\t// out\n        /* \"#utility.yul\":4316:5387   */\n    tag_231:\n        /* \"#utility.yul\":4475:4478   */\n      0x00\n        /* \"#utility.yul\":4504:4578   */\n      tag_233\n        /* \"#utility.yul\":4572:4577   */\n      dup3\n        /* \"#utility.yul\":4504:4578   */\n      tag_234\n      jump\t// in\n    tag_233:\n        /* \"#utility.yul\":4594:4700   */\n      tag_235\n        /* \"#utility.yul\":4693:4699   */\n      dup2\n        /* \"#utility.yul\":4688:4691   */\n      dup6\n        /* \"#utility.yul\":4594:4700   */\n      tag_236\n      jump\t// in\n    tag_235:\n        /* \"#utility.yul\":4587:4700   */\n      swap4\n      pop\n        /* \"#utility.yul\":4726:4729   */\n      dup4\n        /* \"#utility.yul\":4771:4775   */\n      0x20\n        /* \"#utility.yul\":4763:4769   */\n      dup3\n        /* \"#utility.yul\":4759:4776   */\n      mul\n        /* \"#utility.yul\":4754:4757   */\n      dup6\n        /* \"#utility.yul\":4750:4777   */\n      add\n        /* \"#utility.yul\":4801:4877   */\n      tag_237\n        /* \"#utility.yul\":4871:4876   */\n      dup6\n        /* \"#utility.yul\":4801:4877   */\n      tag_238\n      jump\t// in\n    tag_237:\n        /* \"#utility.yul\":4900:4907   */\n      dup1\n        /* \"#utility.yul\":4931:4932   */\n      0x00\n        /* \"#utility.yul\":4916:5342   */\n    tag_239:\n        /* \"#utility.yul\":4941:4947   */\n      dup6\n        /* \"#utility.yul\":4938:4939   */\n      dup2\n        /* \"#utility.yul\":4935:4948   */\n      lt\n        /* \"#utility.yul\":4916:5342   */\n      iszero\n      tag_241\n      jumpi\n        /* \"#utility.yul\":5012:5021   */\n      dup5\n        /* \"#utility.yul\":5006:5010   */\n      dup5\n        /* \"#utility.yul\":5002:5022   */\n      sub\n        /* \"#utility.yul\":4997:5000   */\n      dup10\n        /* \"#utility.yul\":4990:5023   */\n      mstore\n        /* \"#utility.yul\":5063:5069   */\n      dup2\n        /* \"#utility.yul\":5057:5070   */\n      mload\n        /* \"#utility.yul\":5091:5195   */\n      tag_242\n        /* \"#utility.yul\":5190:5194   */\n      dup6\n        /* \"#utility.yul\":5175:5188   */\n      dup3\n        /* \"#utility.yul\":5091:5195   */\n      tag_212\n      jump\t// in\n    tag_242:\n        /* \"#utility.yul\":5083:5195   */\n      swap5\n      pop\n        /* \"#utility.yul\":5218:5298   */\n      tag_243\n        /* \"#utility.yul\":5291:5297   */\n      dup4\n        /* \"#utility.yul\":5218:5298   */\n      tag_244\n      jump\t// in\n    tag_243:\n        /* \"#utility.yul\":5208:5298   */\n      swap3\n      pop\n        /* \"#utility.yul\":5327:5331   */\n      0x20\n        /* \"#utility.yul\":5322:5325   */\n      dup11\n        /* \"#utility.yul\":5318:5332   */\n      add\n        /* \"#utility.yul\":5311:5332   */\n      swap10\n      pop\n        /* \"#utility.yul\":4976:5342   */\n      pop\n        /* \"#utility.yul\":4963:4964   */\n      0x01\n        /* \"#utility.yul\":4960:4961   */\n      dup2\n        /* \"#utility.yul\":4956:4965   */\n      add\n        /* \"#utility.yul\":4951:4965   */\n      swap1\n      pop\n        /* \"#utility.yul\":4916:5342   */\n      jump(tag_239)\n    tag_241:\n        /* \"#utility.yul\":4920:4934   */\n      pop\n        /* \"#utility.yul\":5358:5362   */\n      dup3\n        /* \"#utility.yul\":5351:5362   */\n      swap8\n      pop\n        /* \"#utility.yul\":5378:5381   */\n      dup8\n        /* \"#utility.yul\":5371:5381   */\n      swap6\n      pop\n        /* \"#utility.yul\":4480:5387   */\n      pop\n      pop\n      pop\n      pop\n      pop\n        /* \"#utility.yul\":4316:5387   */\n      swap3\n      swap2\n      pop\n      pop\n      jump\t// out\n        /* \"#utility.yul\":5469:6409   */\n    tag_245:\n        /* \"#utility.yul\":5640:5643   */\n      0x00\n        /* \"#utility.yul\":5669:5749   */\n      tag_247\n        /* \"#utility.yul\":5743:5748   */\n      dup3\n        /* \"#utility.yul\":5669:5749   */\n      tag_248\n      jump\t// in\n    tag_247:\n        /* \"#utility.yul\":5765:5877   */\n      tag_249\n        /* \"#utility.yul\":5870:5876   */\n      dup2\n        /* \"#utility.yul\":5865:5868   */\n      dup6\n        /* \"#utility.yul\":5765:5877   */\n      tag_250\n      jump\t// in\n    tag_249:\n        /* \"#utility.yul\":5758:5877   */\n      swap4\n      pop\n        /* \"#utility.yul\":5901:5983   */\n      tag_251\n        /* \"#utility.yul\":5977:5982   */\n      dup4\n        /* \"#utility.yul\":5901:5983   */\n      tag_252\n      jump\t// in\n    tag_251:\n        /* \"#utility.yul\":6006:6013   */\n      dup1\n        /* \"#utility.yul\":6037:6038   */\n      0x00\n        /* \"#utility.yul\":6022:6384   */\n    tag_253:\n        /* \"#utility.yul\":6047:6053   */\n      dup4\n        /* \"#utility.yul\":6044:6045   */\n      dup2\n        /* \"#utility.yul\":6041:6054   */\n      lt\n        /* \"#utility.yul\":6022:6384   */\n      iszero\n      tag_255\n      jumpi\n        /* \"#utility.yul\":6123:6129   */\n      dup2\n        /* \"#utility.yul\":6117:6130   */\n      mload\n        /* \"#utility.yul\":6150:6265   */\n      tag_256\n        /* \"#utility.yul\":6261:6264   */\n      dup9\n        /* \"#utility.yul\":6246:6259   */\n      dup3\n        /* \"#utility.yul\":6150:6265   */\n      tag_216\n      jump\t// in\n    tag_256:\n        /* \"#utility.yul\":6143:6265   */\n      swap8\n      pop\n        /* \"#utility.yul\":6288:6374   */\n      tag_257\n        /* \"#utility.yul\":6367:6373   */\n      dup4\n        /* \"#utility.yul\":6288:6374   */\n      tag_258\n      jump\t// in\n    tag_257:\n        /* \"#utility.yul\":6278:6374   */\n      swap3\n      pop\n        /* \"#utility.yul\":6082:6384   */\n      pop\n        /* \"#utility.yul\":6069:6070   */\n      0x01\n        /* \"#utility.yul\":6066:6067   */\n      dup2\n        /* \"#utility.yul\":6062:6071   */\n      add\n        /* \"#utility.yul\":6057:6071   */\n      swap1\n      pop\n        /* \"#utility.yul\":6022:6384   */\n      jump(tag_253)\n    tag_255:\n        /* \"#utility.yul\":6026:6040   */\n      pop\n        /* \"#utility.yul\":6400:6403   */\n      dup6\n        /* \"#utility.yul\":6393:6403   */\n      swap4\n      pop\n        /* \"#utility.yul\":5645:6409   */\n      pop\n      pop\n      pop\n        /* \"#utility.yul\":5469:6409   */\n      swap3\n      swap2\n      pop\n      pop\n      jump\t// out\n        /* \"#utility.yul\":6415:6514   */\n    tag_259:\n        /* \"#utility.yul\":6486:6507   */\n      tag_261\n        /* \"#utility.yul\":6501:6506   */\n      dup2\n        /* \"#utility.yul\":6486:6507   */\n      tag_262\n      jump\t// in\n    tag_261:\n        /* \"#utility.yul\":6481:6484   */\n      dup3\n        /* \"#utility.yul\":6474:6508   */\n      mstore\n        /* \"#utility.yul\":6415:6514   */\n      pop\n      pop\n      jump\t// out\n        /* \"#utility.yul\":6520:6864   */\n    tag_263:\n        /* \"#utility.yul\":6598:6601   */\n      0x00\n        /* \"#utility.yul\":6626:6665   */\n      tag_265\n        /* \"#utility.yul\":6659:6664   */\n      dup3\n        /* \"#utility.yul\":6626:6665   */\n      tag_266\n      jump\t// in\n    tag_265:\n        /* \"#utility.yul\":6681:6742   */\n      tag_267\n        /* \"#utility.yul\":6735:6741   */\n      dup2\n        /* \"#utility.yul\":6730:6733   */\n      dup6\n        /* \"#utility.yul\":6681:6742   */\n      tag_268\n      jump\t// in\n    tag_267:\n        /* \"#utility.yul\":6674:6742   */\n      swap4\n      pop\n        /* \"#utility.yul\":6751:6803   */\n      tag_269\n        /* \"#utility.yul\":6796:6802   */\n      dup2\n        /* \"#utility.yul\":6791:6794   */\n      dup6\n        /* \"#utility.yul\":6784:6788   */\n      0x20\n        /* \"#utility.yul\":6777:6782   */\n      dup7\n        /* \"#utility.yul\":6773:6789   */\n      add\n        /* \"#utility.yul\":6751:6803   */\n      tag_270\n      jump\t// in\n    tag_269:\n        /* \"#utility.yul\":6828:6857   */\n      tag_271\n        /* \"#utility.yul\":6850:6856   */\n      dup2\n        /* \"#utility.yul\":6828:6857   */\n      tag_272\n      jump\t// in\n    tag_271:\n        /* \"#utility.yul\":6823:6826   */\n      dup5\n        /* \"#utility.yul\":6819:6858   */\n      add\n        /* \"#utility.yul\":6812:6858   */\n      swap2\n      pop\n        /* \"#utility.yul\":6602:6864   */\n      pop\n        /* \"#utility.yul\":6520:6864   */\n      swap3\n      swap2\n      pop\n      pop\n      jump\t// out\n        /* \"#utility.yul\":6870:7236   */\n    tag_273:\n        /* \"#utility.yul\":7012:7015   */\n      0x00\n        /* \"#utility.yul\":7033:7100   */\n      tag_275\n        /* \"#utility.yul\":7097:7099   */\n      0x35\n        /* \"#utility.yul\":7092:7095   */\n      dup4\n        /* \"#utility.yul\":7033:7100   */\n      tag_276\n      jump\t// in\n    tag_275:\n        /* \"#utility.yul\":7026:7100   */\n      swap2\n      pop\n        /* \"#utility.yul\":7109:7202   */\n      tag_277\n        /* \"#utility.yul\":7198:7201   */\n      dup3\n        /* \"#utility.yul\":7109:7202   */\n      tag_278\n      jump\t// in\n    tag_277:\n        /* \"#utility.yul\":7227:7229   */\n      0x40\n        /* \"#utility.yul\":7222:7225   */\n      dup3\n        /* \"#utility.yul\":7218:7230   */\n      add\n        /* \"#utility.yul\":7211:7230   */\n      swap1\n      pop\n        /* \"#utility.yul\":6870:7236   */\n      swap2\n      swap1\n      pop\n      jump\t// out\n        /* \"#utility.yul\":7242:7608   */\n    tag_279:\n        /* \"#utility.yul\":7384:7387   */\n      0x00\n        /* \"#utility.yul\":7405:7472   */\n      tag_281\n        /* \"#utility.yul\":7469:7471   */\n      0x39\n        /* \"#utility.yul\":7464:7467   */\n      dup4\n        /* \"#utility.yul\":7405:7472   */\n      tag_276\n      jump\t// in\n    tag_281:\n        /* \"#utility.yul\":7398:7472   */\n      swap2\n      pop\n        /* \"#utility.yul\":7481:7574   */\n      tag_282\n        /* \"#utility.yul\":7570:7573   */\n      dup3\n        /* \"#utility.yul\":7481:7574   */\n      tag_283\n      jump\t// in\n    tag_282:\n        /* \"#utility.yul\":7599:7601   */\n      0x40\n        /* \"#utility.yul\":7594:7597   */\n      dup3\n        /* \"#utility.yul\":7590:7602   */\n      add\n        /* \"#utility.yul\":7583:7602   */\n      swap1\n      pop\n        /* \"#utility.yul\":7242:7608   */\n      swap2\n      swap1\n      pop\n      jump\t// out\n        /* \"#utility.yul\":7614:7980   */\n    tag_284:\n        /* \"#utility.yul\":7756:7759   */\n      0x00\n        /* \"#utility.yul\":7777:7844   */\n      tag_286\n        /* \"#utility.yul\":7841:7843   */\n      0x19\n        /* \"#utility.yul\":7836:7839   */\n      dup4\n        /* \"#utility.yul\":7777:7844   */\n      tag_276\n      jump\t// in\n    tag_286:\n        /* \"#utility.yul\":7770:7844   */\n      swap2\n      pop\n        /* \"#utility.yul\":7853:7946   */\n      tag_287\n        /* \"#utility.yul\":7942:7945   */\n      dup3\n        /* \"#utility.yul\":7853:7946   */\n      tag_288\n      jump\t// in\n    tag_287:\n        /* \"#utility.yul\":7971:7973   */\n      0x20\n        /* \"#utility.yul\":7966:7969   */\n      dup3\n        /* \"#utility.yul\":7962:7974   */\n      add\n        /* \"#utility.yul\":7955:7974   */\n      swap1\n      pop\n        /* \"#utility.yul\":7614:7980   */\n      swap2\n      swap1\n      pop\n      jump\t// out\n        /* \"#utility.yul\":7986:8352   */\n    tag_289:\n        /* \"#utility.yul\":8128:8131   */\n      0x00\n        /* \"#utility.yul\":8149:8216   */\n      tag_291\n        /* \"#utility.yul\":8213:8215   */\n      0x2b\n        /* \"#utility.yul\":8208:8211   */\n      dup4\n        /* \"#utility.yul\":8149:8216   */\n      tag_276\n      jump\t// in\n    tag_291:\n        /* \"#utility.yul\":8142:8216   */\n      swap2\n      pop\n        /* \"#utility.yul\":8225:8318   */\n      tag_292\n        /* \"#utility.yul\":8314:8317   */\n      dup3\n        /* \"#utility.yul\":8225:8318   */\n      tag_293\n      jump\t// in\n    tag_292:\n        /* \"#utility.yul\":8343:8345   */\n      0x40\n        /* \"#utility.yul\":8338:8341   */\n      dup3\n        /* \"#utility.yul\":8334:8346   */\n      add\n        /* \"#utility.yul\":8327:8346   */\n      swap1\n      pop\n        /* \"#utility.yul\":7986:8352   */\n      swap2\n      swap1\n      pop\n      jump\t// out\n        /* \"#utility.yul\":8358:8724   */\n    tag_294:\n        /* \"#utility.yul\":8500:8503   */\n      0x00\n        /* \"#utility.yul\":8521:8588   */\n      tag_296\n        /* \"#utility.yul\":8585:8587   */\n      0x0f\n        /* \"#utility.yul\":8580:8583   */\n      dup4\n        /* \"#utility.yul\":8521:8588   */\n      tag_276\n      jump\t// in\n    tag_296:\n        /* \"#utility.yul\":8514:8588   */\n      swap2\n      pop\n        /* \"#utility.yul\":8597:8690   */\n      tag_297\n        /* \"#utility.yul\":8686:8689   */\n      dup3\n        /* \"#utility.yul\":8597:8690   */\n      tag_298\n      jump\t// in\n    tag_297:\n        /* \"#utility.yul\":8715:8717   */\n      0x20\n        /* \"#utility.yul\":8710:8713   */\n      dup3\n        /* \"#utility.yul\":8706:8718   */\n      add\n        /* \"#utility.yul\":8699:8718   */\n      swap1\n      pop\n        /* \"#utility.yul\":8358:8724   */\n      swap2\n      swap1\n      pop\n      jump\t// out\n        /* \"#utility.yul\":8730:9096   */\n    tag_299:\n        /* \"#utility.yul\":8872:8875   */\n      0x00\n        /* \"#utility.yul\":8893:8960   */\n      tag_301\n        /* \"#utility.yul\":8957:8959   */\n      0x39\n        /* \"#utility.yul\":8952:8955   */\n      dup4\n        /* \"#utility.yul\":8893:8960   */\n      tag_276\n      jump\t// in\n    tag_301:\n        /* \"#utility.yul\":8886:8960   */\n      swap2\n      pop\n        /* \"#utility.yul\":8969:9062   */\n      tag_302\n        /* \"#utility.yul\":9058:9061   */\n      dup3\n        /* \"#utility.yul\":8969:9062   */\n      tag_303\n      jump\t// in\n    tag_302:\n        /* \"#utility.yul\":9087:9089   */\n      0x40\n        /* \"#utility.yul\":9082:9085   */\n      dup3\n        /* \"#utility.yul\":9078:9090   */\n      add\n        /* \"#utility.yul\":9071:9090   */\n      swap1\n      pop\n        /* \"#utility.yul\":8730:9096   */\n      swap2\n      swap1\n      pop\n      jump\t// out\n        /* \"#utility.yul\":9162:11096   */\n    tag_215:\n        /* \"#utility.yul\":9261:9264   */\n      0x00\n        /* \"#utility.yul\":9297:9303   */\n      0x0120\n        /* \"#utility.yul\":9292:9295   */\n      dup4\n        /* \"#utility.yul\":9288:9304   */\n      add\n        /* \"#utility.yul\":9384:9388   */\n      0x00\n        /* \"#utility.yul\":9377:9382   */\n      dup4\n        /* \"#utility.yul\":9373:9389   */\n      add\n        /* \"#utility.yul\":9367:9390   */\n      mload\n        /* \"#utility.yul\":9403:9466   */\n      tag_305\n        /* \"#utility.yul\":9460:9464   */\n      0x00\n        /* \"#utility.yul\":9455:9458   */\n      dup7\n        /* \"#utility.yul\":9451:9465   */\n      add\n        /* \"#utility.yul\":9437:9449   */\n      dup3\n        /* \"#utility.yul\":9403:9466   */\n      tag_306\n      jump\t// in\n    tag_305:\n        /* \"#utility.yul\":9314:9476   */\n      pop\n        /* \"#utility.yul\":9558:9562   */\n      0x20\n        /* \"#utility.yul\":9551:9556   */\n      dup4\n        /* \"#utility.yul\":9547:9563   */\n      add\n        /* \"#utility.yul\":9541:9564   */\n      mload\n        /* \"#utility.yul\":9611:9614   */\n      dup5\n        /* \"#utility.yul\":9605:9609   */\n      dup3\n        /* \"#utility.yul\":9601:9615   */\n      sub\n        /* \"#utility.yul\":9594:9598   */\n      0x20\n        /* \"#utility.yul\":9589:9592   */\n      dup7\n        /* \"#utility.yul\":9585:9599   */\n      add\n        /* \"#utility.yul\":9578:9616   */\n      mstore\n        /* \"#utility.yul\":9637:9710   */\n      tag_307\n        /* \"#utility.yul\":9705:9709   */\n      dup3\n        /* \"#utility.yul\":9691:9703   */\n      dup3\n        /* \"#utility.yul\":9637:9710   */\n      tag_263\n      jump\t// in\n    tag_307:\n        /* \"#utility.yul\":9629:9710   */\n      swap2\n      pop\n        /* \"#utility.yul\":9486:9721   */\n      pop\n        /* \"#utility.yul\":9810:9814   */\n      0x40\n        /* \"#utility.yul\":9803:9808   */\n      dup4\n        /* \"#utility.yul\":9799:9815   */\n      add\n        /* \"#utility.yul\":9793:9816   */\n      mload\n        /* \"#utility.yul\":9863:9866   */\n      dup5\n        /* \"#utility.yul\":9857:9861   */\n      dup3\n        /* \"#utility.yul\":9853:9867   */\n      sub\n        /* \"#utility.yul\":9846:9850   */\n      0x40\n        /* \"#utility.yul\":9841:9844   */\n      dup7\n        /* \"#utility.yul\":9837:9851   */\n      add\n        /* \"#utility.yul\":9830:9868   */\n      mstore\n        /* \"#utility.yul\":9889:9962   */\n      tag_308\n        /* \"#utility.yul\":9957:9961   */\n      dup3\n        /* \"#utility.yul\":9943:9955   */\n      dup3\n        /* \"#utility.yul\":9889:9962   */\n      tag_263\n      jump\t// in\n    tag_308:\n        /* \"#utility.yul\":9881:9962   */\n      swap2\n      pop\n        /* \"#utility.yul\":9731:9973   */\n      pop\n        /* \"#utility.yul\":10060:10064   */\n      0x60\n        /* \"#utility.yul\":10053:10058   */\n      dup4\n        /* \"#utility.yul\":10049:10065   */\n      add\n        /* \"#utility.yul\":10043:10066   */\n      mload\n        /* \"#utility.yul\":10079:10142   */\n      tag_309\n        /* \"#utility.yul\":10136:10140   */\n      0x60\n        /* \"#utility.yul\":10131:10134   */\n      dup7\n        /* \"#utility.yul\":10127:10141   */\n      add\n        /* \"#utility.yul\":10113:10125   */\n      dup3\n        /* \"#utility.yul\":10079:10142   */\n      tag_306\n      jump\t// in\n    tag_309:\n        /* \"#utility.yul\":9983:10152   */\n      pop\n        /* \"#utility.yul\":10237:10241   */\n      0x80\n        /* \"#utility.yul\":10230:10235   */\n      dup4\n        /* \"#utility.yul\":10226:10242   */\n      add\n        /* \"#utility.yul\":10220:10243   */\n      mload\n        /* \"#utility.yul\":10256:10319   */\n      tag_310\n        /* \"#utility.yul\":10313:10317   */\n      0x80\n        /* \"#utility.yul\":10308:10311   */\n      dup7\n        /* \"#utility.yul\":10304:10318   */\n      add\n        /* \"#utility.yul\":10290:10302   */\n      dup3\n        /* \"#utility.yul\":10256:10319   */\n      tag_306\n      jump\t// in\n    tag_310:\n        /* \"#utility.yul\":10162:10329   */\n      pop\n        /* \"#utility.yul\":10417:10421   */\n      0xa0\n        /* \"#utility.yul\":10410:10415   */\n      dup4\n        /* \"#utility.yul\":10406:10422   */\n      add\n        /* \"#utility.yul\":10400:10423   */\n      mload\n        /* \"#utility.yul\":10436:10499   */\n      tag_311\n        /* \"#utility.yul\":10493:10497   */\n      0xa0\n        /* \"#utility.yul\":10488:10491   */\n      dup7\n        /* \"#utility.yul\":10484:10498   */\n      add\n        /* \"#utility.yul\":10470:10482   */\n      dup3\n        /* \"#utility.yul\":10436:10499   */\n      tag_306\n      jump\t// in\n    tag_311:\n        /* \"#utility.yul\":10339:10509   */\n      pop\n        /* \"#utility.yul\":10600:10604   */\n      0xc0\n        /* \"#utility.yul\":10593:10598   */\n      dup4\n        /* \"#utility.yul\":10589:10605   */\n      add\n        /* \"#utility.yul\":10583:10606   */\n      mload\n        /* \"#utility.yul\":10619:10682   */\n      tag_312\n        /* \"#utility.yul\":10676:10680   */\n      0xc0\n        /* \"#utility.yul\":10671:10674   */\n      dup7\n        /* \"#utility.yul\":10667:10681   */\n      add\n        /* \"#utility.yul\":10653:10665   */\n      dup3\n        /* \"#utility.yul\":10619:10682   */\n      tag_306\n      jump\t// in\n    tag_312:\n        /* \"#utility.yul\":10519:10692   */\n      pop\n        /* \"#utility.yul\":10778:10782   */\n      0xe0\n        /* \"#utility.yul\":10771:10776   */\n      dup4\n        /* \"#utility.yul\":10767:10783   */\n      add\n        /* \"#utility.yul\":10761:10784   */\n      mload\n        /* \"#utility.yul\":10797:10854   */\n      tag_313\n        /* \"#utility.yul\":10848:10852   */\n      0xe0\n        /* \"#utility.yul\":10843:10846   */\n      dup7\n        /* \"#utility.yul\":10839:10853   */\n      add\n        /* \"#utility.yul\":10825:10837   */\n      dup3\n        /* \"#utility.yul\":10797:10854   */\n      tag_259\n      jump\t// in\n    tag_313:\n        /* \"#utility.yul\":10702:10864   */\n      pop\n        /* \"#utility.yul\":10957:10963   */\n      0x0100\n        /* \"#utility.yul\":10950:10955   */\n      dup4\n        /* \"#utility.yul\":10946:10964   */\n      add\n        /* \"#utility.yul\":10940:10965   */\n      mload\n        /* \"#utility.yul\":10978:11059   */\n      tag_314\n        /* \"#utility.yul\":11051:11057   */\n      0x0100\n        /* \"#utility.yul\":11046:11049   */\n      dup7\n        /* \"#utility.yul\":11042:11058   */\n      add\n        /* \"#utility.yul\":11028:11040   */\n      dup3\n        /* \"#utility.yul\":10978:11059   */\n      tag_220\n      jump\t// in\n    tag_314:\n        /* \"#utility.yul\":10874:11069   */\n      pop\n        /* \"#utility.yul\":11086:11090   */\n      dup1\n        /* \"#utility.yul\":11079:11090   */\n      swap2\n      pop\n        /* \"#utility.yul\":9266:11096   */\n      pop\n        /* \"#utility.yul\":9162:11096   */\n      swap3\n      swap2\n      pop\n      pop\n      jump\t// out\n        /* \"#utility.yul\":11162:13106   */\n    tag_315:\n        /* \"#utility.yul\":11271:11274   */\n      0x00\n        /* \"#utility.yul\":11307:11313   */\n      0x0120\n        /* \"#utility.yul\":11302:11305   */\n      dup4\n        /* \"#utility.yul\":11298:11314   */\n      add\n        /* \"#utility.yul\":11394:11398   */\n      0x00\n        /* \"#utility.yul\":11387:11392   */\n      dup4\n        /* \"#utility.yul\":11383:11399   */\n      add\n        /* \"#utility.yul\":11377:11400   */\n      mload\n        /* \"#utility.yul\":11413:11476   */\n      tag_317\n        /* \"#utility.yul\":11470:11474   */\n      0x00\n        /* \"#utility.yul\":11465:11468   */\n      dup7\n        /* \"#utility.yul\":11461:11475   */\n      add\n        /* \"#utility.yul\":11447:11459   */\n      dup3\n        /* \"#utility.yul\":11413:11476   */\n      tag_306\n      jump\t// in\n    tag_317:\n        /* \"#utility.yul\":11324:11486   */\n      pop\n        /* \"#utility.yul\":11568:11572   */\n      0x20\n        /* \"#utility.yul\":11561:11566   */\n      dup4\n        /* \"#utility.yul\":11557:11573   */\n      add\n        /* \"#utility.yul\":11551:11574   */\n      mload\n        /* \"#utility.yul\":11621:11624   */\n      dup5\n        /* \"#utility.yul\":11615:11619   */\n      dup3\n        /* \"#utility.yul\":11611:11625   */\n      sub\n        /* \"#utility.yul\":11604:11608   */\n      0x20\n        /* \"#utility.yul\":11599:11602   */\n      dup7\n        /* \"#utility.yul\":11595:11609   */\n      add\n        /* \"#utility.yul\":11588:11626   */\n      mstore\n        /* \"#utility.yul\":11647:11720   */\n      tag_318\n        /* \"#utility.yul\":11715:11719   */\n      dup3\n        /* \"#utility.yul\":11701:11713   */\n      dup3\n        /* \"#utility.yul\":11647:11720   */\n      tag_263\n      jump\t// in\n    tag_318:\n        /* \"#utility.yul\":11639:11720   */\n      swap2\n      pop\n        /* \"#utility.yul\":11496:11731   */\n      pop\n        /* \"#utility.yul\":11820:11824   */\n      0x40\n        /* \"#utility.yul\":11813:11818   */\n      dup4\n        /* \"#utility.yul\":11809:11825   */\n      add\n        /* \"#utility.yul\":11803:11826   */\n      mload\n        /* \"#utility.yul\":11873:11876   */\n      dup5\n        /* \"#utility.yul\":11867:11871   */\n      dup3\n        /* \"#utility.yul\":11863:11877   */\n      sub\n        /* \"#utility.yul\":11856:11860   */\n      0x40\n        /* \"#utility.yul\":11851:11854   */\n      dup7\n        /* \"#utility.yul\":11847:11861   */\n      add\n        /* \"#utility.yul\":11840:11878   */\n      mstore\n        /* \"#utility.yul\":11899:11972   */\n      tag_319\n        /* \"#utility.yul\":11967:11971   */\n      dup3\n        /* \"#utility.yul\":11953:11965   */\n      dup3\n        /* \"#utility.yul\":11899:11972   */\n      tag_263\n      jump\t// in\n    tag_319:\n        /* \"#utility.yul\":11891:11972   */\n      swap2\n      pop\n        /* \"#utility.yul\":11741:11983   */\n      pop\n        /* \"#utility.yul\":12070:12074   */\n      0x60\n        /* \"#utility.yul\":12063:12068   */\n      dup4\n        /* \"#utility.yul\":12059:12075   */\n      add\n        /* \"#utility.yul\":12053:12076   */\n      mload\n        /* \"#utility.yul\":12089:12152   */\n      tag_320\n        /* \"#utility.yul\":12146:12150   */\n      0x60\n        /* \"#utility.yul\":12141:12144   */\n      dup7\n        /* \"#utility.yul\":12137:12151   */\n      add\n        /* \"#utility.yul\":12123:12135   */\n      dup3\n        /* \"#utility.yul\":12089:12152   */\n      tag_306\n      jump\t// in\n    tag_320:\n        /* \"#utility.yul\":11993:12162   */\n      pop\n        /* \"#utility.yul\":12247:12251   */\n      0x80\n        /* \"#utility.yul\":12240:12245   */\n      dup4\n        /* \"#utility.yul\":12236:12252   */\n      add\n        /* \"#utility.yul\":12230:12253   */\n      mload\n        /* \"#utility.yul\":12266:12329   */\n      tag_321\n        /* \"#utility.yul\":12323:12327   */\n      0x80\n        /* \"#utility.yul\":12318:12321   */\n      dup7\n        /* \"#utility.yul\":12314:12328   */\n      add\n        /* \"#utility.yul\":12300:12312   */\n      dup3\n        /* \"#utility.yul\":12266:12329   */\n      tag_306\n      jump\t// in\n    tag_321:\n        /* \"#utility.yul\":12172:12339   */\n      pop\n        /* \"#utility.yul\":12427:12431   */\n      0xa0\n        /* \"#utility.yul\":12420:12425   */\n      dup4\n        /* \"#utility.yul\":12416:12432   */\n      add\n        /* \"#utility.yul\":12410:12433   */\n      mload\n        /* \"#utility.yul\":12446:12509   */\n      tag_322\n        /* \"#utility.yul\":12503:12507   */\n      0xa0\n        /* \"#utility.yul\":12498:12501   */\n      dup7\n        /* \"#utility.yul\":12494:12508   */\n      add\n        /* \"#utility.yul\":12480:12492   */\n      dup3\n        /* \"#utility.yul\":12446:12509   */\n      tag_306\n      jump\t// in\n    tag_322:\n        /* \"#utility.yul\":12349:12519   */\n      pop\n        /* \"#utility.yul\":12610:12614   */\n      0xc0\n        /* \"#utility.yul\":12603:12608   */\n      dup4\n        /* \"#utility.yul\":12599:12615   */\n      add\n        /* \"#utility.yul\":12593:12616   */\n      mload\n        /* \"#utility.yul\":12629:12692   */\n      tag_323\n        /* \"#utility.yul\":12686:12690   */\n      0xc0\n        /* \"#utility.yul\":12681:12684   */\n      dup7\n        /* \"#utility.yul\":12677:12691   */\n      add\n        /* \"#utility.yul\":12663:12675   */\n      dup3\n        /* \"#utility.yul\":12629:12692   */\n      tag_306\n      jump\t// in\n    tag_323:\n        /* \"#utility.yul\":12529:12702   */\n      pop\n        /* \"#utility.yul\":12788:12792   */\n      0xe0\n        /* \"#utility.yul\":12781:12786   */\n      dup4\n        /* \"#utility.yul\":12777:12793   */\n      add\n        /* \"#utility.yul\":12771:12794   */\n      mload\n        /* \"#utility.yul\":12807:12864   */\n      tag_324\n        /* \"#utility.yul\":12858:12862   */\n      0xe0\n        /* \"#utility.yul\":12853:12856   */\n      dup7\n        /* \"#utility.yul\":12849:12863   */\n      add\n        /* \"#utility.yul\":12835:12847   */\n      dup3\n        /* \"#utility.yul\":12807:12864   */\n      tag_259\n      jump\t// in\n    tag_324:\n        /* \"#utility.yul\":12712:12874   */\n      pop\n        /* \"#utility.yul\":12967:12973   */\n      0x0100\n        /* \"#utility.yul\":12960:12965   */\n      dup4\n        /* \"#utility.yul\":12956:12974   */\n      add\n        /* \"#utility.yul\":12950:12975   */\n      mload\n        /* \"#utility.yul\":12988:13069   */\n      tag_325\n        /* \"#utility.yul\":13061:13067   */\n      0x0100\n        /* \"#utility.yul\":13056:13059   */\n      dup7\n        /* \"#utility.yul\":13052:13068   */\n      add\n        /* \"#utility.yul\":13038:13050   */\n      dup3\n        /* \"#utility.yul\":12988:13069   */\n      tag_220\n      jump\t// in\n    tag_325:\n        /* \"#utility.yul\":12884:13079   */\n      pop\n        /* \"#utility.yul\":13096:13100   */\n      dup1\n        /* \"#utility.yul\":13089:13100   */\n      swap2\n      pop\n        /* \"#utility.yul\":11276:13106   */\n      pop\n        /* \"#utility.yul\":11162:13106   */\n      swap3\n      swap2\n      pop\n      pop\n      jump\t// out\n        /* \"#utility.yul\":13184:14236   */\n    tag_219:\n        /* \"#utility.yul\":13323:13327   */\n      0xa0\n        /* \"#utility.yul\":13318:13321   */\n      dup3\n        /* \"#utility.yul\":13314:13328   */\n      add\n        /* \"#utility.yul\":13408:13412   */\n      0x00\n        /* \"#utility.yul\":13401:13406   */\n      dup3\n        /* \"#utility.yul\":13397:13413   */\n      add\n        /* \"#utility.yul\":13391:13414   */\n      mload\n        /* \"#utility.yul\":13427:13490   */\n      tag_327\n        /* \"#utility.yul\":13484:13488   */\n      0x00\n        /* \"#utility.yul\":13479:13482   */\n      dup6\n        /* \"#utility.yul\":13475:13489   */\n      add\n        /* \"#utility.yul\":13461:13473   */\n      dup3\n        /* \"#utility.yul\":13427:13490   */\n      tag_306\n      jump\t// in\n    tag_327:\n        /* \"#utility.yul\":13338:13500   */\n      pop\n        /* \"#utility.yul\":13584:13588   */\n      0x20\n        /* \"#utility.yul\":13577:13582   */\n      dup3\n        /* \"#utility.yul\":13573:13589   */\n      add\n        /* \"#utility.yul\":13567:13590   */\n      mload\n        /* \"#utility.yul\":13603:13666   */\n      tag_328\n        /* \"#utility.yul\":13660:13664   */\n      0x20\n        /* \"#utility.yul\":13655:13658   */\n      dup6\n        /* \"#utility.yul\":13651:13665   */\n      add\n        /* \"#utility.yul\":13637:13649   */\n      dup3\n        /* \"#utility.yul\":13603:13666   */\n      tag_306\n      jump\t// in\n    tag_328:\n        /* \"#utility.yul\":13510:13676   */\n      pop\n        /* \"#utility.yul\":13769:13773   */\n      0x40\n        /* \"#utility.yul\":13762:13767   */\n      dup3\n        /* \"#utility.yul\":13758:13774   */\n      add\n        /* \"#utility.yul\":13752:13775   */\n      mload\n        /* \"#utility.yul\":13788:13851   */\n      tag_329\n        /* \"#utility.yul\":13845:13849   */\n      0x40\n        /* \"#utility.yul\":13840:13843   */\n      dup6\n        /* \"#utility.yul\":13836:13850   */\n      add\n        /* \"#utility.yul\":13822:13834   */\n      dup3\n        /* \"#utility.yul\":13788:13851   */\n      tag_224\n      jump\t// in\n    tag_329:\n        /* \"#utility.yul\":13686:13861   */\n      pop\n        /* \"#utility.yul\":13953:13957   */\n      0x60\n        /* \"#utility.yul\":13946:13951   */\n      dup3\n        /* \"#utility.yul\":13942:13958   */\n      add\n        /* \"#utility.yul\":13936:13959   */\n      mload\n        /* \"#utility.yul\":13972:14035   */\n      tag_330\n        /* \"#utility.yul\":14029:14033   */\n      0x60\n        /* \"#utility.yul\":14024:14027   */\n      dup6\n        /* \"#utility.yul\":14020:14034   */\n      add\n        /* \"#utility.yul\":14006:14018   */\n      dup3\n        /* \"#utility.yul\":13972:14035   */\n      tag_306\n      jump\t// in\n    tag_330:\n        /* \"#utility.yul\":13871:14045   */\n      pop\n        /* \"#utility.yul\":14137:14141   */\n      0x80\n        /* \"#utility.yul\":14130:14135   */\n      dup3\n        /* \"#utility.yul\":14126:14142   */\n      add\n        /* \"#utility.yul\":14120:14143   */\n      mload\n        /* \"#utility.yul\":14156:14219   */\n      tag_331\n        /* \"#utility.yul\":14213:14217   */\n      0x80\n        /* \"#utility.yul\":14208:14211   */\n      dup6\n        /* \"#utility.yul\":14204:14218   */\n      add\n        /* \"#utility.yul\":14190:14202   */\n      dup3\n        /* \"#utility.yul\":14156:14219   */\n      tag_306\n      jump\t// in\n    tag_331:\n        /* \"#utility.yul\":14055:14229   */\n      pop\n        /* \"#utility.yul\":13292:14236   */\n      pop\n        /* \"#utility.yul\":13184:14236   */\n      pop\n      pop\n      jump\t// out\n        /* \"#utility.yul\":14242:14350   */\n    tag_306:\n        /* \"#utility.yul\":14319:14343   */\n      tag_333\n        /* \"#utility.yul\":14337:14342   */\n      dup2\n        /* \"#utility.yul\":14319:14343   */\n      tag_334\n      jump\t// in\n    tag_333:\n        /* \"#utility.yul\":14314:14317   */\n      dup3\n        /* \"#utility.yul\":14307:14344   */\n      mstore\n        /* \"#utility.yul\":14242:14350   */\n      pop\n      pop\n      jump\t// out\n        /* \"#utility.yul\":14356:14474   */\n    tag_335:\n        /* \"#utility.yul\":14443:14467   */\n      tag_337\n        /* \"#utility.yul\":14461:14466   */\n      dup2\n        /* \"#utility.yul\":14443:14467   */\n      tag_334\n      jump\t// in\n    tag_337:\n        /* \"#utility.yul\":14438:14441   */\n      dup3\n        /* \"#utility.yul\":14431:14468   */\n      mstore\n        /* \"#utility.yul\":14356:14474   */\n      pop\n      pop\n      jump\t// out\n        /* \"#utility.yul\":14480:14702   */\n    tag_43:\n        /* \"#utility.yul\":14573:14577   */\n      0x00\n        /* \"#utility.yul\":14611:14613   */\n      0x20\n        /* \"#utility.yul\":14600:14609   */\n      dup3\n        /* \"#utility.yul\":14596:14614   */\n      add\n        /* \"#utility.yul\":14588:14614   */\n      swap1\n      pop\n        /* \"#utility.yul\":14624:14695   */\n      tag_339\n        /* \"#utility.yul\":14692:14693   */\n      0x00\n        /* \"#utility.yul\":14681:14690   */\n      dup4\n        /* \"#utility.yul\":14677:14694   */\n      add\n        /* \"#utility.yul\":14668:14674   */\n      dup5\n        /* \"#utility.yul\":14624:14695   */\n      tag_228\n      jump\t// in\n    tag_339:\n        /* \"#utility.yul\":14480:14702   */\n      swap3\n      swap2\n      pop\n      pop\n      jump\t// out\n        /* \"#utility.yul\":14708:15161   */\n    tag_32:\n        /* \"#utility.yul\":14891:14895   */\n      0x00\n        /* \"#utility.yul\":14929:14931   */\n      0x20\n        /* \"#utility.yul\":14918:14927   */\n      dup3\n        /* \"#utility.yul\":14914:14932   */\n      add\n        /* \"#utility.yul\":14906:14932   */\n      swap1\n      pop\n        /* \"#utility.yul\":14978:14987   */\n      dup2\n        /* \"#utility.yul\":14972:14976   */\n      dup2\n        /* \"#utility.yul\":14968:14988   */\n      sub\n        /* \"#utility.yul\":14964:14965   */\n      0x00\n        /* \"#utility.yul\":14953:14962   */\n      dup4\n        /* \"#utility.yul\":14949:14966   */\n      add\n        /* \"#utility.yul\":14942:14989   */\n      mstore\n        /* \"#utility.yul\":15006:15154   */\n      tag_341\n        /* \"#utility.yul\":15149:15153   */\n      dup2\n        /* \"#utility.yul\":15140:15146   */\n      dup5\n        /* \"#utility.yul\":15006:15154   */\n      tag_231\n      jump\t// in\n    tag_341:\n        /* \"#utility.yul\":14998:15154   */\n      swap1\n      pop\n        /* \"#utility.yul\":14708:15161   */\n      swap3\n      swap2\n      pop\n      pop\n      jump\t// out\n        /* \"#utility.yul\":15167:15644   */\n    tag_38:\n        /* \"#utility.yul\":15362:15366   */\n      0x00\n        /* \"#utility.yul\":15400:15402   */\n      0x20\n        /* \"#utility.yul\":15389:15398   */\n      dup3\n        /* \"#utility.yul\":15385:15403   */\n      add\n        /* \"#utility.yul\":15377:15403   */\n      swap1\n      pop\n        /* \"#utility.yul\":15449:15458   */\n      dup2\n        /* \"#utility.yul\":15443:15447   */\n      dup2\n        /* \"#utility.yul\":15439:15459   */\n      sub\n        /* \"#utility.yul\":15435:15436   */\n      0x00\n        /* \"#utility.yul\":15424:15433   */\n      dup4\n        /* \"#utility.yul\":15420:15437   */\n      add\n        /* \"#utility.yul\":15413:15460   */\n      mstore\n        /* \"#utility.yul\":15477:15637   */\n      tag_343\n        /* \"#utility.yul\":15632:15636   */\n      dup2\n        /* \"#utility.yul\":15623:15629   */\n      dup5\n        /* \"#utility.yul\":15477:15637   */\n      tag_245\n      jump\t// in\n    tag_343:\n        /* \"#utility.yul\":15469:15637   */\n      swap1\n      pop\n        /* \"#utility.yul\":15167:15644   */\n      swap3\n      swap2\n      pop\n      pop\n      jump\t// out\n        /* \"#utility.yul\":15650:16069   */\n    tag_147:\n        /* \"#utility.yul\":15816:15820   */\n      0x00\n        /* \"#utility.yul\":15854:15856   */\n      0x20\n        /* \"#utility.yul\":15843:15852   */\n      dup3\n        /* \"#utility.yul\":15839:15857   */\n      add\n        /* \"#utility.yul\":15831:15857   */\n      swap1\n      pop\n        /* \"#utility.yul\":15903:15912   */\n      dup2\n        /* \"#utility.yul\":15897:15901   */\n      dup2\n        /* \"#utility.yul\":15893:15913   */\n      sub\n        /* \"#utility.yul\":15889:15890   */\n      0x00\n        /* \"#utility.yul\":15878:15887   */\n      dup4\n        /* \"#utility.yul\":15874:15891   */\n      add\n        /* \"#utility.yul\":15867:15914   */\n      mstore\n        /* \"#utility.yul\":15931:16062   */\n      tag_345\n        /* \"#utility.yul\":16057:16061   */\n      dup2\n        /* \"#utility.yul\":15931:16062   */\n      tag_273\n      jump\t// in\n    tag_345:\n        /* \"#utility.yul\":15923:16062   */\n      swap1\n      pop\n        /* \"#utility.yul\":15650:16069   */\n      swap2\n      swap1\n      pop\n      jump\t// out\n        /* \"#utility.yul\":16075:16494   */\n    tag_144:\n        /* \"#utility.yul\":16241:16245   */\n      0x00\n        /* \"#utility.yul\":16279:16281   */\n      0x20\n        /* \"#utility.yul\":16268:16277   */\n      dup3\n        /* \"#utility.yul\":16264:16282   */\n      add\n        /* \"#utility.yul\":16256:16282   */\n      swap1\n      pop\n        /* \"#utility.yul\":16328:16337   */\n      dup2\n        /* \"#utility.yul\":16322:16326   */\n      dup2\n        /* \"#utility.yul\":16318:16338   */\n      sub\n        /* \"#utility.yul\":16314:16315   */\n      0x00\n        /* \"#utility.yul\":16303:16312   */\n      dup4\n        /* \"#utility.yul\":16299:16316   */\n      add\n        /* \"#utility.yul\":16292:16339   */\n      mstore\n        /* \"#utility.yul\":16356:16487   */\n      tag_347\n        /* \"#utility.yul\":16482:16486   */\n      dup2\n        /* \"#utility.yul\":16356:16487   */\n      tag_279\n      jump\t// in\n    tag_347:\n        /* \"#utility.yul\":16348:16487   */\n      swap1\n      pop\n        /* \"#utility.yul\":16075:16494   */\n      swap2\n      swap1\n      pop\n      jump\t// out\n        /* \"#utility.yul\":16500:16919   */\n    tag_60:\n        /* \"#utility.yul\":16666:16670   */\n      0x00\n        /* \"#utility.yul\":16704:16706   */\n      0x20\n        /* \"#utility.yul\":16693:16702   */\n      dup3\n        /* \"#utility.yul\":16689:16707   */\n      add\n        /* \"#utility.yul\":16681:16707   */\n      swap1\n      pop\n        /* \"#utility.yul\":16753:16762   */\n      dup2\n        /* \"#utility.yul\":16747:16751   */\n      dup2\n        /* \"#utility.yul\":16743:16763   */\n      sub\n        /* \"#utility.yul\":16739:16740   */\n      0x00\n        /* \"#utility.yul\":16728:16737   */\n      dup4\n        /* \"#utility.yul\":16724:16741   */\n      add\n        /* \"#utility.yul\":16717:16764   */\n      mstore\n        /* \"#utility.yul\":16781:16912   */\n      tag_349\n        /* \"#utility.yul\":16907:16911   */\n      dup2\n        /* \"#utility.yul\":16781:16912   */\n      tag_284\n      jump\t// in\n    tag_349:\n        /* \"#utility.yul\":16773:16912   */\n      swap1\n      pop\n        /* \"#utility.yul\":16500:16919   */\n      swap2\n      swap1\n      pop\n      jump\t// out\n        /* \"#utility.yul\":16925:17344   */\n    tag_135:\n        /* \"#utility.yul\":17091:17095   */\n      0x00\n        /* \"#utility.yul\":17129:17131   */\n      0x20\n        /* \"#utility.yul\":17118:17127   */\n      dup3\n        /* \"#utility.yul\":17114:17132   */\n      add\n        /* \"#utility.yul\":17106:17132   */\n      swap1\n      pop\n        /* \"#utility.yul\":17178:17187   */\n      dup2\n        /* \"#utility.yul\":17172:17176   */\n      dup2\n        /* \"#utility.yul\":17168:17188   */\n      sub\n        /* \"#utility.yul\":17164:17165   */\n      0x00\n        /* \"#utility.yul\":17153:17162   */\n      dup4\n        /* \"#utility.yul\":17149:17166   */\n      add\n        /* \"#utility.yul\":17142:17189   */\n      mstore\n        /* \"#utility.yul\":17206:17337   */\n      tag_351\n        /* \"#utility.yul\":17332:17336   */\n      dup2\n        /* \"#utility.yul\":17206:17337   */\n      tag_289\n      jump\t// in\n    tag_351:\n        /* \"#utility.yul\":17198:17337   */\n      swap1\n      pop\n        /* \"#utility.yul\":16925:17344   */\n      swap2\n      swap1\n      pop\n      jump\t// out\n        /* \"#utility.yul\":17350:17769   */\n    tag_57:\n        /* \"#utility.yul\":17516:17520   */\n      0x00\n        /* \"#utility.yul\":17554:17556   */\n      0x20\n        /* \"#utility.yul\":17543:17552   */\n      dup3\n        /* \"#utility.yul\":17539:17557   */\n      add\n        /* \"#utility.yul\":17531:17557   */\n      swap1\n      pop\n        /* \"#utility.yul\":17603:17612   */\n      dup2\n        /* \"#utility.yul\":17597:17601   */\n      dup2\n        /* \"#utility.yul\":17593:17613   */\n      sub\n        /* \"#utility.yul\":17589:17590   */\n      0x00\n        /* \"#utility.yul\":17578:17587   */\n      dup4\n        /* \"#utility.yul\":17574:17591   */\n      add\n        /* \"#utility.yul\":17567:17614   */\n      mstore\n        /* \"#utility.yul\":17631:17762   */\n      tag_353\n        /* \"#utility.yul\":17757:17761   */\n      dup2\n        /* \"#utility.yul\":17631:17762   */\n      tag_294\n      jump\t// in\n    tag_353:\n        /* \"#utility.yul\":17623:17762   */\n      swap1\n      pop\n        /* \"#utility.yul\":17350:17769   */\n      swap2\n      swap1\n      pop\n      jump\t// out\n        /* \"#utility.yul\":17775:18194   */\n    tag_128:\n        /* \"#utility.yul\":17941:17945   */\n      0x00\n        /* \"#utility.yul\":17979:17981   */\n      0x20\n        /* \"#utility.yul\":17968:17977   */\n      dup3\n        /* \"#utility.yul\":17964:17982   */\n      add\n        /* \"#utility.yul\":17956:17982   */\n      swap1\n      pop\n        /* \"#utility.yul\":18028:18037   */\n      dup2\n        /* \"#utility.yul\":18022:18026   */\n      dup2\n        /* \"#utility.yul\":18018:18038   */\n      sub\n        /* \"#utility.yul\":18014:18015   */\n      0x00\n        /* \"#utility.yul\":18003:18012   */\n      dup4\n        /* \"#utility.yul\":17999:18016   */\n      add\n        /* \"#utility.yul\":17992:18039   */\n      mstore\n        /* \"#utility.yul\":18056:18187   */\n      tag_355\n        /* \"#utility.yul\":18182:18186   */\n      dup2\n        /* \"#utility.yul\":18056:18187   */\n      tag_299\n      jump\t// in\n    tag_355:\n        /* \"#utility.yul\":18048:18187   */\n      swap1\n      pop\n        /* \"#utility.yul\":17775:18194   */\n      swap2\n      swap1\n      pop\n      jump\t// out\n        /* \"#utility.yul\":18200:18553   */\n    tag_27:\n        /* \"#utility.yul\":18333:18337   */\n      0x00\n        /* \"#utility.yul\":18371:18373   */\n      0x20\n        /* \"#utility.yul\":18360:18369   */\n      dup3\n        /* \"#utility.yul\":18356:18374   */\n      add\n        /* \"#utility.yul\":18348:18374   */\n      swap1\n      pop\n        /* \"#utility.yul\":18420:18429   */\n      dup2\n        /* \"#utility.yul\":18414:18418   */\n      dup2\n        /* \"#utility.yul\":18410:18430   */\n      sub\n        /* \"#utility.yul\":18406:18407   */\n      0x00\n        /* \"#utility.yul\":18395:18404   */\n      dup4\n        /* \"#utility.yul\":18391:18408   */\n      add\n        /* \"#utility.yul\":18384:18431   */\n      mstore\n        /* \"#utility.yul\":18448:18546   */\n      tag_357\n        /* \"#utility.yul\":18541:18545   */\n      dup2\n        /* \"#utility.yul\":18532:18538   */\n      dup5\n        /* \"#utility.yul\":18448:18546   */\n      tag_315\n      jump\t// in\n    tag_357:\n        /* \"#utility.yul\":18440:18546   */\n      swap1\n      pop\n        /* \"#utility.yul\":18200:18553   */\n      swap3\n      swap2\n      pop\n      pop\n      jump\t// out\n        /* \"#utility.yul\":18559:18781   */\n    tag_15:\n        /* \"#utility.yul\":18652:18656   */\n      0x00\n        /* \"#utility.yul\":18690:18692   */\n      0x20\n        /* \"#utility.yul\":18679:18688   */\n      dup3\n        /* \"#utility.yul\":18675:18693   */\n      add\n        /* \"#utility.yul\":18667:18693   */\n      swap1\n      pop\n        /* \"#utility.yul\":18703:18774   */\n      tag_359\n        /* \"#utility.yul\":18771:18772   */\n      0x00\n        /* \"#utility.yul\":18760:18769   */\n      dup4\n        /* \"#utility.yul\":18756:18773   */\n      add\n        /* \"#utility.yul\":18747:18753   */\n      dup5\n        /* \"#utility.yul\":18703:18774   */\n      tag_335\n      jump\t// in\n    tag_359:\n        /* \"#utility.yul\":18559:18781   */\n      swap3\n      swap2\n      pop\n      pop\n      jump\t// out\n        /* \"#utility.yul\":18787:18916   */\n    tag_168:\n        /* \"#utility.yul\":18821:18827   */\n      0x00\n        /* \"#utility.yul\":18848:18868   */\n      tag_361\n      tag_362\n      jump\t// in\n    tag_361:\n        /* \"#utility.yul\":18838:18868   */\n      swap1\n      pop\n        /* \"#utility.yul\":18877:18910   */\n      tag_363\n        /* \"#utility.yul\":18905:18909   */\n      dup3\n        /* \"#utility.yul\":18897:18903   */\n      dup3\n        /* \"#utility.yul\":18877:18910   */\n      tag_364\n      jump\t// in\n    tag_363:\n        /* \"#utility.yul\":18787:18916   */\n      swap2\n      swap1\n      pop\n      jump\t// out\n        /* \"#utility.yul\":18922:18997   */\n    tag_362:\n        /* \"#utility.yul\":18955:18961   */\n      0x00\n        /* \"#utility.yul\":18988:18990   */\n      0x40\n        /* \"#utility.yul\":18982:18991   */\n      mload\n        /* \"#utility.yul\":18972:18991   */\n      swap1\n      pop\n        /* \"#utility.yul\":18922:18997   */\n      swap1\n      jump\t// out\n        /* \"#utility.yul\":19003:19311   */\n    tag_167:\n        /* \"#utility.yul\":19065:19069   */\n      0x00\n        /* \"#utility.yul\":19155:19173   */\n      0xffffffffffffffff\n        /* \"#utility.yul\":19147:19153   */\n      dup3\n        /* \"#utility.yul\":19144:19174   */\n      gt\n        /* \"#utility.yul\":19141:19197   */\n      iszero\n      tag_367\n      jumpi\n        /* \"#utility.yul\":19177:19195   */\n      tag_368\n      tag_83\n      jump\t// in\n    tag_368:\n        /* \"#utility.yul\":19141:19197   */\n    tag_367:\n        /* \"#utility.yul\":19215:19244   */\n      tag_369\n        /* \"#utility.yul\":19237:19243   */\n      dup3\n        /* \"#utility.yul\":19215:19244   */\n      tag_272\n      jump\t// in\n    tag_369:\n        /* \"#utility.yul\":19207:19244   */\n      swap1\n      pop\n        /* \"#utility.yul\":19299:19303   */\n      0x20\n        /* \"#utility.yul\":19293:19297   */\n      dup2\n        /* \"#utility.yul\":19289:19304   */\n      add\n        /* \"#utility.yul\":19281:19304   */\n      swap1\n      pop\n        /* \"#utility.yul\":19003:19311   */\n      swap2\n      swap1\n      pop\n      jump\t// out\n        /* \"#utility.yul\":19317:19469   */\n    tag_238:\n        /* \"#utility.yul\":19404:19408   */\n      0x00\n        /* \"#utility.yul\":19427:19430   */\n      dup2\n        /* \"#utility.yul\":19419:19430   */\n      swap1\n      pop\n        /* \"#utility.yul\":19457:19461   */\n      0x20\n        /* \"#utility.yul\":19452:19455   */\n      dup3\n        /* \"#utility.yul\":19448:19462   */\n      add\n        /* \"#utility.yul\":19440:19462   */\n      swap1\n      pop\n        /* \"#utility.yul\":19317:19469   */\n      swap2\n      swap1\n      pop\n      jump\t// out\n        /* \"#utility.yul\":19475:19633   */\n    tag_252:\n        /* \"#utility.yul\":19568:19572   */\n      0x00\n        /* \"#utility.yul\":19591:19594   */\n      dup2\n        /* \"#utility.yul\":19583:19594   */\n      swap1\n      pop\n        /* \"#utility.yul\":19621:19625   */\n      0x20\n        /* \"#utility.yul\":19616:19619   */\n      dup3\n        /* \"#utility.yul\":19612:19626   */\n      add\n        /* \"#utility.yul\":19604:19626   */\n      swap1\n      pop\n        /* \"#utility.yul\":19475:19633   */\n      swap2\n      swap1\n      pop\n      jump\t// out\n        /* \"#utility.yul\":19639:19773   */\n    tag_234:\n        /* \"#utility.yul\":19726:19732   */\n      0x00\n        /* \"#utility.yul\":19760:19765   */\n      dup2\n        /* \"#utility.yul\":19754:19766   */\n      mload\n        /* \"#utility.yul\":19744:19766   */\n      swap1\n      pop\n        /* \"#utility.yul\":19639:19773   */\n      swap2\n      swap1\n      pop\n      jump\t// out\n        /* \"#utility.yul\":19779:19919   */\n    tag_248:\n        /* \"#utility.yul\":19872:19878   */\n      0x00\n        /* \"#utility.yul\":19906:19911   */\n      dup2\n        /* \"#utility.yul\":19900:19912   */\n      mload\n        /* \"#utility.yul\":19890:19912   */\n      swap1\n      pop\n        /* \"#utility.yul\":19779:19919   */\n      swap2\n      swap1\n      pop\n      jump\t// out\n        /* \"#utility.yul\":19925:20024   */\n    tag_266:\n        /* \"#utility.yul\":19977:19983   */\n      0x00\n        /* \"#utility.yul\":20011:20016   */\n      dup2\n        /* \"#utility.yul\":20005:20017   */\n      mload\n        /* \"#utility.yul\":19995:20017   */\n      swap1\n      pop\n        /* \"#utility.yul\":19925:20024   */\n      swap2\n      swap1\n      pop\n      jump\t// out\n        /* \"#utility.yul\":20030:20163   */\n    tag_244:\n        /* \"#utility.yul\":20120:20124   */\n      0x00\n        /* \"#utility.yul\":20152:20156   */\n      0x20\n        /* \"#utility.yul\":20147:20150   */\n      dup3\n        /* \"#utility.yul\":20143:20157   */\n      add\n        /* \"#utility.yul\":20135:20157   */\n      swap1\n      pop\n        /* \"#utility.yul\":20030:20163   */\n      swap2\n      swap1\n      pop\n      jump\t// out\n        /* \"#utility.yul\":20169:20308   */\n    tag_258:\n        /* \"#utility.yul\":20265:20269   */\n      0x00\n        /* \"#utility.yul\":20297:20301   */\n      0x20\n        /* \"#utility.yul\":20292:20295   */\n      dup3\n        /* \"#utility.yul\":20288:20302   */\n      add\n        /* \"#utility.yul\":20280:20302   */\n      swap1\n      pop\n        /* \"#utility.yul\":20169:20308   */\n      swap2\n      swap1\n      pop\n      jump\t// out\n        /* \"#utility.yul\":20314:20518   */\n    tag_236:\n        /* \"#utility.yul\":20433:20444   */\n      0x00\n        /* \"#utility.yul\":20467:20473   */\n      dup3\n        /* \"#utility.yul\":20462:20465   */\n      dup3\n        /* \"#utility.yul\":20455:20474   */\n      mstore\n        /* \"#utility.yul\":20507:20511   */\n      0x20\n        /* \"#utility.yul\":20502:20505   */\n      dup3\n        /* \"#utility.yul\":20498:20512   */\n      add\n        /* \"#utility.yul\":20483:20512   */\n      swap1\n      pop\n        /* \"#utility.yul\":20314:20518   */\n      swap3\n      swap2\n      pop\n      pop\n      jump\t// out\n        /* \"#utility.yul\":20524:20734   */\n    tag_250:\n        /* \"#utility.yul\":20649:20660   */\n      0x00\n        /* \"#utility.yul\":20683:20689   */\n      dup3\n        /* \"#utility.yul\":20678:20681   */\n      dup3\n        /* \"#utility.yul\":20671:20690   */\n      mstore\n        /* \"#utility.yul\":20723:20727   */\n      0x20\n        /* \"#utility.yul\":20718:20721   */\n      dup3\n        /* \"#utility.yul\":20714:20728   */\n      add\n        /* \"#utility.yul\":20699:20728   */\n      swap1\n      pop\n        /* \"#utility.yul\":20524:20734   */\n      swap3\n      swap2\n      pop\n      pop\n      jump\t// out\n        /* \"#utility.yul\":20740:20899   */\n    tag_268:\n        /* \"#utility.yul\":20814:20825   */\n      0x00\n        /* \"#utility.yul\":20848:20854   */\n      dup3\n        /* \"#utility.yul\":20843:20846   */\n      dup3\n        /* \"#utility.yul\":20836:20855   */\n      mstore\n        /* \"#utility.yul\":20888:20892   */\n      0x20\n        /* \"#utility.yul\":20883:20886   */\n      dup3\n        /* \"#utility.yul\":20879:20893   */\n      add\n        /* \"#utility.yul\":20864:20893   */\n      swap1\n      pop\n        /* \"#utility.yul\":20740:20899   */\n      swap3\n      swap2\n      pop\n      pop\n      jump\t// out\n        /* \"#utility.yul\":20905:21074   */\n    tag_276:\n        /* \"#utility.yul\":20989:21000   */\n      0x00\n        /* \"#utility.yul\":21023:21029   */\n      dup3\n        /* \"#utility.yul\":21018:21021   */\n      dup3\n        /* \"#utility.yul\":21011:21030   */\n      mstore\n        /* \"#utility.yul\":21063:21067   */\n      0x20\n        /* \"#utility.yul\":21058:21061   */\n      dup3\n        /* \"#utility.yul\":21054:21068   */\n      add\n        /* \"#utility.yul\":21039:21068   */\n      swap1\n      pop\n        /* \"#utility.yul\":20905:21074   */\n      swap3\n      swap2\n      pop\n      pop\n      jump\t// out\n        /* \"#utility.yul\":21080:21385   */\n    tag_65:\n        /* \"#utility.yul\":21120:21123   */\n      0x00\n        /* \"#utility.yul\":21139:21159   */\n      tag_382\n        /* \"#utility.yul\":21157:21158   */\n      dup3\n        /* \"#utility.yul\":21139:21159   */\n      tag_334\n      jump\t// in\n    tag_382:\n        /* \"#utility.yul\":21134:21159   */\n      swap2\n      pop\n        /* \"#utility.yul\":21173:21193   */\n      tag_383\n        /* \"#utility.yul\":21191:21192   */\n      dup4\n        /* \"#utility.yul\":21173:21193   */\n      tag_334\n      jump\t// in\n    tag_383:\n        /* \"#utility.yul\":21168:21193   */\n      swap3\n      pop\n        /* \"#utility.yul\":21327:21328   */\n      dup3\n        /* \"#utility.yul\":21259:21325   */\n      0xffffffffffffffffffffffffffffffffffffffffffffffffffffffffffffffff\n        /* \"#utility.yul\":21255:21329   */\n      sub\n        /* \"#utility.yul\":21252:21253   */\n      dup3\n        /* \"#utility.yul\":21249:21330   */\n      gt\n        /* \"#utility.yul\":21246:21353   */\n      iszero\n      tag_384\n      jumpi\n        /* \"#utility.yul\":21333:21351   */\n      tag_385\n      tag_386\n      jump\t// in\n    tag_385:\n        /* \"#utility.yul\":21246:21353   */\n    tag_384:\n        /* \"#utility.yul\":21377:21378   */\n      dup3\n        /* \"#utility.yul\":21374:21375   */\n      dup3\n        /* \"#utility.yul\":21370:21379   */\n      add\n        /* \"#utility.yul\":21363:21379   */\n      swap1\n      pop\n        /* \"#utility.yul\":21080:21385   */\n      swap3\n      swap2\n      pop\n      pop\n      jump\t// out\n        /* \"#utility.yul\":21391:21487   */\n    tag_227:\n        /* \"#utility.yul\":21428:21435   */\n      0x00\n        /* \"#utility.yul\":21457:21481   */\n      tag_388\n        /* \"#utility.yul\":21475:21480   */\n      dup3\n        /* \"#utility.yul\":21457:21481   */\n      tag_389\n      jump\t// in\n    tag_388:\n        /* \"#utility.yul\":21446:21481   */\n      swap1\n      pop\n        /* \"#utility.yul\":21391:21487   */\n      swap2\n      swap1\n      pop\n      jump\t// out\n        /* \"#utility.yul\":21493:21597   */\n    tag_223:\n        /* \"#utility.yul\":21538:21545   */\n      0x00\n        /* \"#utility.yul\":21567:21591   */\n      tag_391\n        /* \"#utility.yul\":21585:21590   */\n      dup3\n        /* \"#utility.yul\":21567:21591   */\n      tag_389\n      jump\t// in\n    tag_391:\n        /* \"#utility.yul\":21556:21591   */\n      swap1\n      pop\n        /* \"#utility.yul\":21493:21597   */\n      swap2\n      swap1\n      pop\n      jump\t// out\n        /* \"#utility.yul\":21603:21693   */\n    tag_262:\n        /* \"#utility.yul\":21637:21644   */\n      0x00\n        /* \"#utility.yul\":21680:21685   */\n      dup2\n        /* \"#utility.yul\":21673:21686   */\n      iszero\n        /* \"#utility.yul\":21666:21687   */\n      iszero\n        /* \"#utility.yul\":21655:21687   */\n      swap1\n      pop\n        /* \"#utility.yul\":21603:21693   */\n      swap2\n      swap1\n      pop\n      jump\t// out\n        /* \"#utility.yul\":21699:21825   */\n    tag_389:\n        /* \"#utility.yul\":21736:21743   */\n      0x00\n        /* \"#utility.yul\":21776:21818   */\n      0xffffffffffffffffffffffffffffffffffffffff\n        /* \"#utility.yul\":21769:21774   */\n      dup3\n        /* \"#utility.yul\":21765:21819   */\n      and\n        /* \"#utility.yul\":21754:21819   */\n      swap1\n      pop\n        /* \"#utility.yul\":21699:21825   */\n      swap2\n      swap1\n      pop\n      jump\t// out\n        /* \"#utility.yul\":21831:21908   */\n    tag_334:\n        /* \"#utility.yul\":21868:21875   */\n      0x00\n        /* \"#utility.yul\":21897:21902   */\n      dup2\n        /* \"#utility.yul\":21886:21902   */\n      swap1\n      pop\n        /* \"#utility.yul\":21831:21908   */\n      swap2\n      swap1\n      pop\n      jump\t// out\n        /* \"#utility.yul\":21914:22068   */\n    tag_173:\n        /* \"#utility.yul\":21998:22004   */\n      dup3\n        /* \"#utility.yul\":21993:21996   */\n      dup2\n        /* \"#utility.yul\":21988:21991   */\n      dup4\n        /* \"#utility.yul\":21975:22005   */\n      calldatacopy\n        /* \"#utility.yul\":22060:22061   */\n      0x00\n        /* \"#utility.yul\":22051:22057   */\n      dup4\n        /* \"#utility.yul\":22046:22049   */\n      dup4\n        /* \"#utility.yul\":22042:22058   */\n      add\n        /* \"#utility.yul\":22035:22062   */\n      mstore\n        /* \"#utility.yul\":21914:22068   */\n      pop\n      pop\n      pop\n      jump\t// out\n        /* \"#utility.yul\":22074:22381   */\n    tag_270:\n        /* \"#utility.yul\":22142:22143   */\n      0x00\n        /* \"#utility.yul\":22152:22265   */\n    tag_397:\n        /* \"#utility.yul\":22166:22172   */\n      dup4\n        /* \"#utility.yul\":22163:22164   */\n      dup2\n        /* \"#utility.yul\":22160:22173   */\n      lt\n        /* \"#utility.yul\":22152:22265   */\n      iszero\n      tag_399\n      jumpi\n        /* \"#utility.yul\":22251:22252   */\n      dup1\n        /* \"#utility.yul\":22246:22249   */\n      dup3\n        /* \"#utility.yul\":22242:22253   */\n      add\n        /* \"#utility.yul\":22236:22254   */\n      mload\n        /* \"#utility.yul\":22232:22233   */\n      dup2\n        /* \"#utility.yul\":22227:22230   */\n      dup5\n        /* \"#utility.yul\":22223:22234   */\n      add\n        /* \"#utility.yul\":22216:22255   */\n      mstore\n        /* \"#utility.yul\":22188:22190   */\n      0x20\n        /* \"#utility.yul\":22185:22186   */\n      dup2\n        /* \"#utility.yul\":22181:22191   */\n      add\n        /* \"#utility.yul\":22176:22191   */\n      swap1\n      pop\n        /* \"#utility.yul\":22152:22265   */\n      jump(tag_397)\n    tag_399:\n        /* \"#utility.yul\":22283:22289   */\n      dup4\n        /* \"#utility.yul\":22280:22281   */\n      dup2\n        /* \"#utility.yul\":22277:22290   */\n      gt\n        /* \"#utility.yul\":22274:22375   */\n      iszero\n      tag_400\n      jumpi\n        /* \"#utility.yul\":22363:22364   */\n      0x00\n        /* \"#utility.yul\":22354:22360   */\n      dup5\n        /* \"#utility.yul\":22349:22352   */\n      dup5\n        /* \"#utility.yul\":22345:22361   */\n      add\n        /* \"#utility.yul\":22338:22365   */\n      mstore\n        /* \"#utility.yul\":22274:22375   */\n    tag_400:\n        /* \"#utility.yul\":22123:22381   */\n      pop\n        /* \"#utility.yul\":22074:22381   */\n      pop\n      pop\n      pop\n      jump\t// out\n        /* \"#utility.yul\":22387:22707   */\n    tag_70:\n        /* \"#utility.yul\":22431:22437   */\n      0x00\n        /* \"#utility.yul\":22468:22469   */\n      0x02\n        /* \"#utility.yul\":22462:22466   */\n      dup3\n        /* \"#utility.yul\":22458:22470   */\n      div\n        /* \"#utility.yul\":22448:22470   */\n      swap1\n      pop\n        /* \"#utility.yul\":22515:22516   */\n      0x01\n        /* \"#utility.yul\":22509:22513   */\n      dup3\n        /* \"#utility.yul\":22505:22517   */\n      and\n        /* \"#utility.yul\":22536:22554   */\n      dup1\n        /* \"#utility.yul\":22526:22607   */\n      tag_402\n      jumpi\n        /* \"#utility.yul\":22592:22596   */\n      0x7f\n        /* \"#utility.yul\":22584:22590   */\n      dup3\n        /* \"#utility.yul\":22580:22597   */\n      and\n        /* \"#utility.yul\":22570:22597   */\n      swap2\n      pop\n        /* \"#utility.yul\":22526:22607   */\n    tag_402:\n        /* \"#utility.yul\":22654:22656   */\n      0x20\n        /* \"#utility.yul\":22646:22652   */\n      dup3\n        /* \"#utility.yul\":22643:22657   */\n      lt\n        /* \"#utility.yul\":22623:22641   */\n      dup2\n        /* \"#utility.yul\":22620:22658   */\n      eq\n        /* \"#utility.yul\":22617:22701   */\n      iszero\n      tag_403\n      jumpi\n        /* \"#utility.yul\":22673:22691   */\n      tag_404\n      tag_405\n      jump\t// in\n    tag_404:\n        /* \"#utility.yul\":22617:22701   */\n    tag_403:\n        /* \"#utility.yul\":22438:22707   */\n      pop\n        /* \"#utility.yul\":22387:22707   */\n      swap2\n      swap1\n      pop\n      jump\t// out\n        /* \"#utility.yul\":22713:22994   */\n    tag_364:\n        /* \"#utility.yul\":22796:22823   */\n      tag_407\n        /* \"#utility.yul\":22818:22822   */\n      dup3\n        /* \"#utility.yul\":22796:22823   */\n      tag_272\n      jump\t// in\n    tag_407:\n        /* \"#utility.yul\":22788:22794   */\n      dup2\n        /* \"#utility.yul\":22784:22824   */\n      add\n        /* \"#utility.yul\":22926:22932   */\n      dup2\n        /* \"#utility.yul\":22914:22924   */\n      dup2\n        /* \"#utility.yul\":22911:22933   */\n      lt\n        /* \"#utility.yul\":22890:22908   */\n      0xffffffffffffffff\n        /* \"#utility.yul\":22878:22888   */\n      dup3\n        /* \"#utility.yul\":22875:22909   */\n      gt\n        /* \"#utility.yul\":22872:22934   */\n      or\n        /* \"#utility.yul\":22869:22957   */\n      iszero\n      tag_408\n      jumpi\n        /* \"#utility.yul\":22937:22955   */\n      tag_409\n      tag_83\n      jump\t// in\n    tag_409:\n        /* \"#utility.yul\":22869:22957   */\n    tag_408:\n        /* \"#utility.yul\":22977:22987   */\n      dup1\n        /* \"#utility.yul\":22973:22975   */\n      0x40\n        /* \"#utility.yul\":22966:22988   */\n      mstore\n        /* \"#utility.yul\":22756:22994   */\n      pop\n        /* \"#utility.yul\":22713:22994   */\n      pop\n      pop\n      jump\t// out\n        /* \"#utility.yul\":23000:23233   */\n    tag_63:\n        /* \"#utility.yul\":23039:23042   */\n      0x00\n        /* \"#utility.yul\":23062:23086   */\n      tag_411\n        /* \"#utility.yul\":23080:23085   */\n      dup3\n        /* \"#utility.yul\":23062:23086   */\n      tag_334\n      jump\t// in\n    tag_411:\n        /* \"#utility.yul\":23053:23086   */\n      swap2\n      pop\n        /* \"#utility.yul\":23108:23174   */\n      0xffffffffffffffffffffffffffffffffffffffffffffffffffffffffffffffff\n        /* \"#utility.yul\":23101:23106   */\n      dup3\n        /* \"#utility.yul\":23098:23175   */\n      eq\n        /* \"#utility.yul\":23095:23198   */\n      iszero\n      tag_412\n      jumpi\n        /* \"#utility.yul\":23178:23196   */\n      tag_413\n      tag_386\n      jump\t// in\n    tag_413:\n        /* \"#utility.yul\":23095:23198   */\n    tag_412:\n        /* \"#utility.yul\":23225:23226   */\n      0x01\n        /* \"#utility.yul\":23218:23223   */\n      dup3\n        /* \"#utility.yul\":23214:23227   */\n      add\n        /* \"#utility.yul\":23207:23227   */\n      swap1\n      pop\n        /* \"#utility.yul\":23000:23233   */\n      swap2\n      swap1\n      pop\n      jump\t// out\n        /* \"#utility.yul\":23239:23419   */\n    tag_386:\n        /* \"#utility.yul\":23287:23364   */\n      0x4e487b7100000000000000000000000000000000000000000000000000000000\n        /* \"#utility.yul\":23284:23285   */\n      0x00\n        /* \"#utility.yul\":23277:23365   */\n      mstore\n        /* \"#utility.yul\":23384:23388   */\n      0x11\n        /* \"#utility.yul\":23381:23382   */\n      0x04\n        /* \"#utility.yul\":23374:23389   */\n      mstore\n        /* \"#utility.yul\":23408:23412   */\n      0x24\n        /* \"#utility.yul\":23405:23406   */\n      0x00\n        /* \"#utility.yul\":23398:23413   */\n      revert\n        /* \"#utility.yul\":23425:23605   */\n    tag_405:\n        /* \"#utility.yul\":23473:23550   */\n      0x4e487b7100000000000000000000000000000000000000000000000000000000\n        /* \"#utility.yul\":23470:23471   */\n      0x00\n        /* \"#utility.yul\":23463:23551   */\n      mstore\n        /* \"#utility.yul\":23570:23574   */\n      0x22\n        /* \"#utility.yul\":23567:23568   */\n      0x04\n        /* \"#utility.yul\":23560:23575   */\n      mstore\n        /* \"#utility.yul\":23594:23598   */\n      0x24\n        /* \"#utility.yul\":23591:23592   */\n      0x00\n        /* \"#utility.yul\":23584:23599   */\n      revert\n        /* \"#utility.yul\":23611:23791   */\n    tag_102:\n        /* \"#utility.yul\":23659:23736   */\n      0x4e487b7100000000000000000000000000000000000000000000000000000000\n        /* \"#utility.yul\":23656:23657   */\n      0x00\n        /* \"#utility.yul\":23649:23737   */\n      mstore\n        /* \"#utility.yul\":23756:23760   */\n      0x32\n        /* \"#utility.yul\":23753:23754   */\n      0x04\n        /* \"#utility.yul\":23746:23761   */\n      mstore\n        /* \"#utility.yul\":23780:23784   */\n      0x24\n        /* \"#utility.yul\":23777:23778   */\n      0x00\n        /* \"#utility.yul\":23770:23785   */\n      revert\n        /* \"#utility.yul\":23797:23977   */\n    tag_83:\n        /* \"#utility.yul\":23845:23922   */\n      0x4e487b7100000000000000000000000000000000000000000000000000000000\n        /* \"#utility.yul\":23842:23843   */\n      0x00\n        /* \"#utility.yul\":23835:23923   */\n      mstore\n        /* \"#utility.yul\":23942:23946   */\n      0x41\n        /* \"#utility.yul\":23939:23940   */\n      0x04\n        /* \"#utility.yul\":23932:23947   */\n      mstore\n        /* \"#utility.yul\":23966:23970   */\n      0x24\n        /* \"#utility.yul\":23963:23964   */\n      0x00\n        /* \"#utility.yul\":23956:23971   */\n      revert\n        /* \"#utility.yul\":23983:24100   */\n    tag_182:\n        /* \"#utility.yul\":24092:24093   */\n      0x00\n        /* \"#utility.yul\":24089:24090   */\n      dup1\n        /* \"#utility.yul\":24082:24094   */\n      revert\n        /* \"#utility.yul\":24106:24223   */\n    tag_171:\n        /* \"#utility.yul\":24215:24216   */\n      0x00\n        /* \"#utility.yul\":24212:24213   */\n      dup1\n        /* \"#utility.yul\":24205:24217   */\n      revert\n        /* \"#utility.yul\":24229:24346   */\n    tag_194:\n        /* \"#utility.yul\":24338:24339   */\n      0x00\n        /* \"#utility.yul\":24335:24336   */\n      dup1\n        /* \"#utility.yul\":24328:24340   */\n      revert\n        /* \"#utility.yul\":24352:24469   */\n    tag_191:\n        /* \"#utility.yul\":24461:24462   */\n      0x00\n        /* \"#utility.yul\":24458:24459   */\n      dup1\n        /* \"#utility.yul\":24451:24463   */\n      revert\n        /* \"#utility.yul\":24475:24577   */\n    tag_272:\n        /* \"#utility.yul\":24516:24522   */\n      0x00\n        /* \"#utility.yul\":24567:24569   */\n      0x1f\n        /* \"#utility.yul\":24563:24570   */\n      not\n        /* \"#utility.yul\":24558:24560   */\n      0x1f\n        /* \"#utility.yul\":24551:24556   */\n      dup4\n        /* \"#utility.yul\":24547:24561   */\n      add\n        /* \"#utility.yul\":24543:24571   */\n      and\n        /* \"#utility.yul\":24533:24571   */\n      swap1\n      pop\n        /* \"#utility.yul\":24475:24577   */\n      swap2\n      swap1\n      pop\n      jump\t// out\n        /* \"#utility.yul\":24583:24823   */\n    tag_278:\n        /* \"#utility.yul\":24723:24757   */\n      0x456e6420646174652d74696d652073686f756c64206265206772656174657220\n        /* \"#utility.yul\":24719:24720   */\n      0x00\n        /* \"#utility.yul\":24711:24717   */\n      dup3\n        /* \"#utility.yul\":24707:24721   */\n      add\n        /* \"#utility.yul\":24700:24758   */\n      mstore\n        /* \"#utility.yul\":24792:24815   */\n      0x7468616e20737461727420646174652d74696d652e0000000000000000000000\n        /* \"#utility.yul\":24787:24789   */\n      0x20\n        /* \"#utility.yul\":24779:24785   */\n      dup3\n        /* \"#utility.yul\":24775:24790   */\n      add\n        /* \"#utility.yul\":24768:24816   */\n      mstore\n        /* \"#utility.yul\":24583:24823   */\n      pop\n      jump\t// out\n        /* \"#utility.yul\":24829:25073   */\n    tag_283:\n        /* \"#utility.yul\":24969:25003   */\n      0x537461727420646174652d74696d652073686f756c6420626520677265617465\n        /* \"#utility.yul\":24965:24966   */\n      0x00\n        /* \"#utility.yul\":24957:24963   */\n      dup3\n        /* \"#utility.yul\":24953:24967   */\n      add\n        /* \"#utility.yul\":24946:25004   */\n      mstore\n        /* \"#utility.yul\":25038:25065   */\n      0x72207468616e2063757272656e7420646174652d74696d652e00000000000000\n        /* \"#utility.yul\":25033:25035   */\n      0x20\n        /* \"#utility.yul\":25025:25031   */\n      dup3\n        /* \"#utility.yul\":25021:25036   */\n      add\n        /* \"#utility.yul\":25014:25066   */\n      mstore\n        /* \"#utility.yul\":24829:25073   */\n      pop\n      jump\t// out\n        /* \"#utility.yul\":25079:25254   */\n    tag_288:\n        /* \"#utility.yul\":25219:25246   */\n      0x46756e6420686173206e6f742073746172746564207965742e00000000000000\n        /* \"#utility.yul\":25215:25216   */\n      0x00\n        /* \"#utility.yul\":25207:25213   */\n      dup3\n        /* \"#utility.yul\":25203:25217   */\n      add\n        /* \"#utility.yul\":25196:25247   */\n      mstore\n        /* \"#utility.yul\":25079:25254   */\n      pop\n      jump\t// out\n        /* \"#utility.yul\":25260:25490   */\n    tag_293:\n        /* \"#utility.yul\":25400:25434   */\n      0x46756e64206973206163746976652c2063616e6e6f74207472616e7366657220\n        /* \"#utility.yul\":25396:25397   */\n      0x00\n        /* \"#utility.yul\":25388:25394   */\n      dup3\n        /* \"#utility.yul\":25384:25398   */\n      add\n        /* \"#utility.yul\":25377:25435   */\n      mstore\n        /* \"#utility.yul\":25469:25482   */\n      0x616d6f756e74206e6f772e000000000000000000000000000000000000000000\n        /* \"#utility.yul\":25464:25466   */\n      0x20\n        /* \"#utility.yul\":25456:25462   */\n      dup3\n        /* \"#utility.yul\":25452:25467   */\n      add\n        /* \"#utility.yul\":25445:25483   */\n      mstore\n        /* \"#utility.yul\":25260:25490   */\n      pop\n      jump\t// out\n        /* \"#utility.yul\":25496:25661   */\n    tag_298:\n        /* \"#utility.yul\":25636:25653   */\n      0x46756e6420697320636c6f7365642e0000000000000000000000000000000000\n        /* \"#utility.yul\":25632:25633   */\n      0x00\n        /* \"#utility.yul\":25624:25630   */\n      dup3\n        /* \"#utility.yul\":25620:25634   */\n      add\n        /* \"#utility.yul\":25613:25654   */\n      mstore\n        /* \"#utility.yul\":25496:25661   */\n      pop\n      jump\t// out\n        /* \"#utility.yul\":25667:25911   */\n    tag_303:\n        /* \"#utility.yul\":25807:25841   */\n      0x4f6e6c79206d616e6167657220697320616c6c6f77656420746f20616c6c6f77\n        /* \"#utility.yul\":25803:25804   */\n      0x00\n        /* \"#utility.yul\":25795:25801   */\n      dup3\n        /* \"#utility.yul\":25791:25805   */\n      add\n        /* \"#utility.yul\":25784:25842   */\n      mstore\n        /* \"#utility.yul\":25876:25903   */\n      0x656420746f2063616c6c20746869732066756e6374696f6e2e00000000000000\n        /* \"#utility.yul\":25871:25873   */\n      0x20\n        /* \"#utility.yul\":25863:25869   */\n      dup3\n        /* \"#utility.yul\":25859:25874   */\n      add\n        /* \"#utility.yul\":25852:25904   */\n      mstore\n        /* \"#utility.yul\":25667:25911   */\n      pop\n      jump\t// out\n        /* \"#utility.yul\":25917:26055   */\n    tag_177:\n        /* \"#utility.yul\":25998:26030   */\n      tag_430\n        /* \"#utility.yul\":26024:26029   */\n      dup2\n        /* \"#utility.yul\":25998:26030   */\n      tag_223\n      jump\t// in\n    tag_430:\n        /* \"#utility.yul\":25991:25996   */\n      dup2\n        /* \"#utility.yul\":25988:26031   */\n      eq\n        /* \"#utility.yul\":25978:26049   */\n      tag_431\n      jumpi\n        /* \"#utility.yul\":26045:26046   */\n      0x00\n        /* \"#utility.yul\":26042:26043   */\n      dup1\n        /* \"#utility.yul\":26035:26047   */\n      revert\n        /* \"#utility.yul\":25978:26049   */\n    tag_431:\n        /* \"#utility.yul\":25917:26055   */\n      pop\n      jump\t// out\n        /* \"#utility.yul\":26061:26183   */\n    tag_187:\n        /* \"#utility.yul\":26134:26158   */\n      tag_433\n        /* \"#utility.yul\":26152:26157   */\n      dup2\n        /* \"#utility.yul\":26134:26158   */\n      tag_334\n      jump\t// in\n    tag_433:\n        /* \"#utility.yul\":26127:26132   */\n      dup2\n        /* \"#utility.yul\":26124:26159   */\n      eq\n        /* \"#utility.yul\":26114:26177   */\n      tag_434\n      jumpi\n        /* \"#utility.yul\":26173:26174   */\n      0x00\n        /* \"#utility.yul\":26170:26171   */\n      dup1\n        /* \"#utility.yul\":26163:26175   */\n      revert\n        /* \"#utility.yul\":26114:26177   */\n    tag_434:\n        /* \"#utility.yul\":26061:26183   */\n      pop\n      jump\t// out\n\n    auxdata: 0xa2646970667358221220ed9355780bf2e708c90587c08aa24d3867fc494a2eff1adccbfbefc0f4df922364736f6c63430008070033\n}\n",
				"bytecode": {
					"linkReferences": {},
					"object": "608060405234801561001057600080fd5b50336000806101000a81548173ffffffffffffffffffffffffffffffffffffffff021916908373ffffffffffffffffffffffffffffffffffffffff160217905550611c65806100606000396000f3fe60806040526004361061007b5760003560e01c806326ef2adf1161004e57806326ef2adf1461013c578063481c6a75146101795780635114cb52146101a4578063526ed285146101c05761007b565b806312065fe014610080578063135a34a2146100ab578063149e685a146100d45780631c69b46414610111575b600080fd5b34801561008c57600080fd5b506100956101e9565b6040516100a291906116e4565b60405180910390f35b3480156100b757600080fd5b506100d260048036038101906100cd91906110ff565b61024a565b005b3480156100e057600080fd5b506100fb60048036038101906100f691906110d2565b61040c565b60405161010891906116c2565b60405180910390f35b34801561011d57600080fd5b50610126610601565b60405161013391906115be565b60405180910390f35b34801561014857600080fd5b50610163600480360381019061015e91906110d2565b610889565b60405161017091906115e0565b60405180910390f35b34801561018557600080fd5b5061018e610a16565b60405161019b91906115a3565b60405180910390f35b6101be60048036038101906101b991906110d2565b610a3a565b005b3480156101cc57600080fd5b506101e760048036038101906101e2919061100d565b610c19565b005b60008060009054906101000a900473ffffffffffffffffffffffffffffffffffffffff1673ffffffffffffffffffffffffffffffffffffffff163373ffffffffffffffffffffffffffffffffffffffff161461024457600080fd5b47905090565b60006001600084815260200190815260200160002090508060070160009054906101000a900460ff166102b2576040517f08c379a00000000000000000000000000000000000000000000000000000000081526004016102a990611682565b60405180910390fd5b42816003015411156102f9576040517f08c379a00000000000000000000000000000000000000000000000000000000081526004016102f090611642565b60405180910390fd5b60026040518060a0016040528060045481526020018581526020013373ffffffffffffffffffffffffffffffffffffffff168152602001848152602001428152509080600181540180825580915050600190039060005260206000209060050201600090919091909150600082015181600001556020820151816001015560408201518160020160006101000a81548173ffffffffffffffffffffffffffffffffffffffff021916908373ffffffffffffffffffffffffffffffffffffffff16021790555060608201518160030155608082015181600401555050600460008154809291906103e790611949565b91905055508181600601600082825461040091906117f4565b92505081905550505050565b610414610e27565b60016000838152602001908152602001600020604051806101200160405290816000820154815260200160018201805461044d906118e6565b80601f0160208091040260200160405190810160405280929190818152602001828054610479906118e6565b80156104c65780601f1061049b576101008083540402835291602001916104c6565b820191906000526020600020905b8154815290600101906020018083116104a957829003601f168201915b505050505081526020016002820180546104df906118e6565b80601f016020809104026020016040519081016040528092919081815260200182805461050b906118e6565b80156105585780601f1061052d57610100808354040283529160200191610558565b820191906000526020600020905b81548152906001019060200180831161053b57829003601f168201915b50505050508152602001600382015481526020016004820154815260200160058201548152602001600682015481526020016007820160009054906101000a900460ff161515151581526020016007820160019054906101000a900473ffffffffffffffffffffffffffffffffffffffff1673ffffffffffffffffffffffffffffffffffffffff1673ffffffffffffffffffffffffffffffffffffffff16815250509050919050565b6060600060035467ffffffffffffffff81111561062157610620611a1f565b5b60405190808252806020026020018201604052801561065a57816020015b610647610e27565b81526020019060019003908161063f5790505b50905060005b600354811015610881576001600082815260200190815260200160002060405180610120016040529081600082015481526020016001820180546106a3906118e6565b80601f01602080910402602001604051908101604052809291908181526020018280546106cf906118e6565b801561071c5780601f106106f15761010080835404028352916020019161071c565b820191906000526020600020905b8154815290600101906020018083116106ff57829003601f168201915b50505050508152602001600282018054610735906118e6565b80601f0160208091040260200160405190810160405280929190818152602001828054610761906118e6565b80156107ae5780601f10610783576101008083540402835291602001916107ae565b820191906000526020600020905b81548152906001019060200180831161079157829003601f168201915b50505050508152602001600382015481526020016004820154815260200160058201548152602001600682015481526020016007820160009054906101000a900460ff161515151581526020016007820160019054906101000a900473ffffffffffffffffffffffffffffffffffffffff1673ffffffffffffffffffffffffffffffffffffffff1673ffffffffffffffffffffffffffffffffffffffff1681525050828281518110610863576108626119f0565b5b6020026020010181905250808061087990611949565b915050610660565b508091505090565b6060600060045467ffffffffffffffff8111156108a9576108a8611a1f565b5b6040519080825280602002602001820160405280156108e257816020015b6108cf610e8b565b8152602001906001900390816108c75790505b5090506000805b600454811015610a0b578460028281548110610908576109076119f0565b5b90600052602060002090600502016001015414156109f85760028181548110610934576109336119f0565b5b90600052602060002090600502016040518060a001604052908160008201548152602001600182015481526020016002820160009054906101000a900473ffffffffffffffffffffffffffffffffffffffff1673ffffffffffffffffffffffffffffffffffffffff1673ffffffffffffffffffffffffffffffffffffffff168152602001600382015481526020016004820154815250508383815181106109de576109dd6119f0565b5b602002602001018190525081806109f490611949565b9250505b8080610a0390611949565b9150506108e9565b508192505050919050565b60008054906101000a900473ffffffffffffffffffffffffffffffffffffffff1681565b3373ffffffffffffffffffffffffffffffffffffffff1660008054906101000a900473ffffffffffffffffffffffffffffffffffffffff1673ffffffffffffffffffffffffffffffffffffffff1614610ac8576040517f08c379a0000000000000000000000000000000000000000000000000000000008152600401610abf906116a2565b60405180910390fd5b60006001600083815260200190815260200160002090508060070160009054906101000a900460ff16610b30576040517f08c379a0000000000000000000000000000000000000000000000000000000008152600401610b2790611682565b60405180910390fd5b80600501548160060154101580610b4a5750428160040154105b610b89576040517f08c379a0000000000000000000000000000000000000000000000000000000008152600401610b8090611662565b60405180910390fd5b8060070160019054906101000a900473ffffffffffffffffffffffffffffffffffffffff1673ffffffffffffffffffffffffffffffffffffffff166108fc82600601549081150290604051600060405180830381858888f19350505050158015610bf7573d6000803e3d6000fd5b5060008160070160006101000a81548160ff0219169083151502179055505050565b3373ffffffffffffffffffffffffffffffffffffffff1660008054906101000a900473ffffffffffffffffffffffffffffffffffffffff1673ffffffffffffffffffffffffffffffffffffffff1614610ca7576040517f08c379a0000000000000000000000000000000000000000000000000000000008152600401610c9e906116a2565b60405180910390fd5b428411610ce9576040517f08c379a0000000000000000000000000000000000000000000000000000000008152600401610ce090611622565b60405180910390fd5b838311610d2b576040517f08c379a0000000000000000000000000000000000000000000000000000000008152600401610d2290611602565b60405180910390fd5b60006001600060035481526020019081526020016000209050600354816000018190555086816001019080519060200190610d67929190610ed0565b5085816002019080519060200190610d80929190610ed0565b5084816003018190555083816004018190555082816005018190555060008160060181905550818160070160016101000a81548173ffffffffffffffffffffffffffffffffffffffff021916908373ffffffffffffffffffffffffffffffffffffffff16021790555060018160070160006101000a81548160ff02191690831515021790555060036000815480929190610e1990611949565b919050555050505050505050565b60405180610120016040528060008152602001606081526020016060815260200160008152602001600081526020016000815260200160008152602001600015158152602001600073ffffffffffffffffffffffffffffffffffffffff1681525090565b6040518060a001604052806000815260200160008152602001600073ffffffffffffffffffffffffffffffffffffffff16815260200160008152602001600081525090565b828054610edc906118e6565b90600052602060002090601f016020900481019282610efe5760008555610f45565b82601f10610f1757805160ff1916838001178555610f45565b82800160010185558215610f45579182015b82811115610f44578251825591602001919060010190610f29565b5b509050610f529190610f56565b5090565b5b80821115610f6f576000816000905550600101610f57565b5090565b6000610f86610f8184611724565b6116ff565b905082815260208101848484011115610fa257610fa1611a53565b5b610fad8482856118a4565b509392505050565b600081359050610fc481611c01565b92915050565b600082601f830112610fdf57610fde611a4e565b5b8135610fef848260208601610f73565b91505092915050565b60008135905061100781611c18565b92915050565b60008060008060008060c0878903121561102a57611029611a5d565b5b600087013567ffffffffffffffff81111561104857611047611a58565b5b61105489828a01610fca565b965050602087013567ffffffffffffffff81111561107557611074611a58565b5b61108189828a01610fca565b955050604061109289828a01610ff8565b94505060606110a389828a01610ff8565b93505060806110b489828a01610ff8565b92505060a06110c589828a01610fb5565b9150509295509295509295565b6000602082840312156110e8576110e7611a5d565b5b60006110f684828501610ff8565b91505092915050565b6000806040838503121561111657611115611a5d565b5b600061112485828601610ff8565b925050602061113585828601610ff8565b9150509250929050565b600061114b8383611385565b905092915050565b600061115f838361151d565b60a08301905092915050565b6111748161185c565b82525050565b6111838161184a565b82525050565b6111928161184a565b82525050565b60006111a382611775565b6111ad81856117b0565b9350836020820285016111bf85611755565b8060005b858110156111fb57848403895281516111dc858261113f565b94506111e783611796565b925060208a019950506001810190506111c3565b50829750879550505050505092915050565b600061121882611780565b61122281856117c1565b935061122d83611765565b8060005b8381101561125e5781516112458882611153565b9750611250836117a3565b925050600181019050611231565b5085935050505092915050565b6112748161186e565b82525050565b60006112858261178b565b61128f81856117d2565b935061129f8185602086016118b3565b6112a881611a62565b840191505092915050565b60006112c06035836117e3565b91506112cb82611a73565b604082019050919050565b60006112e36039836117e3565b91506112ee82611ac2565b604082019050919050565b60006113066019836117e3565b915061131182611b11565b602082019050919050565b6000611329602b836117e3565b915061133482611b3a565b604082019050919050565b600061134c600f836117e3565b915061135782611b89565b602082019050919050565b600061136f6039836117e3565b915061137a82611bb2565b604082019050919050565b60006101208301600083015161139e6000860182611585565b50602083015184820360208601526113b6828261127a565b915050604083015184820360408601526113d0828261127a565b91505060608301516113e56060860182611585565b5060808301516113f86080860182611585565b5060a083015161140b60a0860182611585565b5060c083015161141e60c0860182611585565b5060e083015161143160e086018261126b565b5061010083015161144661010086018261116b565b508091505092915050565b60006101208301600083015161146a6000860182611585565b5060208301518482036020860152611482828261127a565b9150506040830151848203604086015261149c828261127a565b91505060608301516114b16060860182611585565b5060808301516114c46080860182611585565b5060a08301516114d760a0860182611585565b5060c08301516114ea60c0860182611585565b5060e08301516114fd60e086018261126b565b5061010083015161151261010086018261116b565b508091505092915050565b60a0820160008201516115336000850182611585565b5060208201516115466020850182611585565b506040820151611559604085018261117a565b50606082015161156c6060850182611585565b50608082015161157f6080850182611585565b50505050565b61158e8161189a565b82525050565b61159d8161189a565b82525050565b60006020820190506115b86000830184611189565b92915050565b600060208201905081810360008301526115d88184611198565b905092915050565b600060208201905081810360008301526115fa818461120d565b905092915050565b6000602082019050818103600083015261161b816112b3565b9050919050565b6000602082019050818103600083015261163b816112d6565b9050919050565b6000602082019050818103600083015261165b816112f9565b9050919050565b6000602082019050818103600083015261167b8161131c565b9050919050565b6000602082019050818103600083015261169b8161133f565b9050919050565b600060208201905081810360008301526116bb81611362565b9050919050565b600060208201905081810360008301526116dc8184611451565b905092915050565b60006020820190506116f96000830184611594565b92915050565b600061170961171a565b90506117158282611918565b919050565b6000604051905090565b600067ffffffffffffffff82111561173f5761173e611a1f565b5b61174882611a62565b9050602081019050919050565b6000819050602082019050919050565b6000819050602082019050919050565b600081519050919050565b600081519050919050565b600081519050919050565b6000602082019050919050565b6000602082019050919050565b600082825260208201905092915050565b600082825260208201905092915050565b600082825260208201905092915050565b600082825260208201905092915050565b60006117ff8261189a565b915061180a8361189a565b9250827fffffffffffffffffffffffffffffffffffffffffffffffffffffffffffffffff0382111561183f5761183e611992565b5b828201905092915050565b60006118558261187a565b9050919050565b60006118678261187a565b9050919050565b60008115159050919050565b600073ffffffffffffffffffffffffffffffffffffffff82169050919050565b6000819050919050565b82818337600083830152505050565b60005b838110156118d15780820151818401526020810190506118b6565b838111156118e0576000848401525b50505050565b600060028204905060018216806118fe57607f821691505b60208210811415611912576119116119c1565b5b50919050565b61192182611a62565b810181811067ffffffffffffffff821117156119405761193f611a1f565b5b80604052505050565b60006119548261189a565b91507fffffffffffffffffffffffffffffffffffffffffffffffffffffffffffffffff82141561198757611986611992565b5b600182019050919050565b7f4e487b7100000000000000000000000000000000000000000000000000000000600052601160045260246000fd5b7f4e487b7100000000000000000000000000000000000000000000000000000000600052602260045260246000fd5b7f4e487b7100000000000000000000000000000000000000000000000000000000600052603260045260246000fd5b7f4e487b7100000000000000000000000000000000000000000000000000000000600052604160045260246000fd5b600080fd5b600080fd5b600080fd5b600080fd5b6000601f19601f8301169050919050565b7f456e6420646174652d74696d652073686f756c6420626520677265617465722060008201527f7468616e20737461727420646174652d74696d652e0000000000000000000000602082015250565b7f537461727420646174652d74696d652073686f756c642062652067726561746560008201527f72207468616e2063757272656e7420646174652d74696d652e00000000000000602082015250565b7f46756e6420686173206e6f742073746172746564207965742e00000000000000600082015250565b7f46756e64206973206163746976652c2063616e6e6f74207472616e736665722060008201527f616d6f756e74206e6f772e000000000000000000000000000000000000000000602082015250565b7f46756e6420697320636c6f7365642e0000000000000000000000000000000000600082015250565b7f4f6e6c79206d616e6167657220697320616c6c6f77656420746f20616c6c6f7760008201527f656420746f2063616c6c20746869732066756e6374696f6e2e00000000000000602082015250565b611c0a8161185c565b8114611c1557600080fd5b50565b611c218161189a565b8114611c2c57600080fd5b5056fea2646970667358221220ed9355780bf2e708c90587c08aa24d3867fc494a2eff1adccbfbefc0f4df922364736f6c63430008070033",
					"opcodes": "PUSH1 0x80 PUSH1 0x40 MSTORE CALLVALUE DUP1 ISZERO PUSH2 0x10 JUMPI PUSH1 0x0 DUP1 REVERT JUMPDEST POP CALLER PUSH1 0x0 DUP1 PUSH2 0x100 EXP DUP2 SLOAD DUP2 PUSH20 0xFFFFFFFFFFFFFFFFFFFFFFFFFFFFFFFFFFFFFFFF MUL NOT AND SWAP1 DUP4 PUSH20 0xFFFFFFFFFFFFFFFFFFFFFFFFFFFFFFFFFFFFFFFF AND MUL OR SWAP1 SSTORE POP PUSH2 0x1C65 DUP1 PUSH2 0x60 PUSH1 0x0 CODECOPY PUSH1 0x0 RETURN INVALID PUSH1 0x80 PUSH1 0x40 MSTORE PUSH1 0x4 CALLDATASIZE LT PUSH2 0x7B JUMPI PUSH1 0x0 CALLDATALOAD PUSH1 0xE0 SHR DUP1 PUSH4 0x26EF2ADF GT PUSH2 0x4E JUMPI DUP1 PUSH4 0x26EF2ADF EQ PUSH2 0x13C JUMPI DUP1 PUSH4 0x481C6A75 EQ PUSH2 0x179 JUMPI DUP1 PUSH4 0x5114CB52 EQ PUSH2 0x1A4 JUMPI DUP1 PUSH4 0x526ED285 EQ PUSH2 0x1C0 JUMPI PUSH2 0x7B JUMP JUMPDEST DUP1 PUSH4 0x12065FE0 EQ PUSH2 0x80 JUMPI DUP1 PUSH4 0x135A34A2 EQ PUSH2 0xAB JUMPI DUP1 PUSH4 0x149E685A EQ PUSH2 0xD4 JUMPI DUP1 PUSH4 0x1C69B464 EQ PUSH2 0x111 JUMPI JUMPDEST PUSH1 0x0 DUP1 REVERT JUMPDEST CALLVALUE DUP1 ISZERO PUSH2 0x8C JUMPI PUSH1 0x0 DUP1 REVERT JUMPDEST POP PUSH2 0x95 PUSH2 0x1E9 JUMP JUMPDEST PUSH1 0x40 MLOAD PUSH2 0xA2 SWAP2 SWAP1 PUSH2 0x16E4 JUMP JUMPDEST PUSH1 0x40 MLOAD DUP1 SWAP2 SUB SWAP1 RETURN JUMPDEST CALLVALUE DUP1 ISZERO PUSH2 0xB7 JUMPI PUSH1 0x0 DUP1 REVERT JUMPDEST POP PUSH2 0xD2 PUSH1 0x4 DUP1 CALLDATASIZE SUB DUP2 ADD SWAP1 PUSH2 0xCD SWAP2 SWAP1 PUSH2 0x10FF JUMP JUMPDEST PUSH2 0x24A JUMP JUMPDEST STOP JUMPDEST CALLVALUE DUP1 ISZERO PUSH2 0xE0 JUMPI PUSH1 0x0 DUP1 REVERT JUMPDEST POP PUSH2 0xFB PUSH1 0x4 DUP1 CALLDATASIZE SUB DUP2 ADD SWAP1 PUSH2 0xF6 SWAP2 SWAP1 PUSH2 0x10D2 JUMP JUMPDEST PUSH2 0x40C JUMP JUMPDEST PUSH1 0x40 MLOAD PUSH2 0x108 SWAP2 SWAP1 PUSH2 0x16C2 JUMP JUMPDEST PUSH1 0x40 MLOAD DUP1 SWAP2 SUB SWAP1 RETURN JUMPDEST CALLVALUE DUP1 ISZERO PUSH2 0x11D JUMPI PUSH1 0x0 DUP1 REVERT JUMPDEST POP PUSH2 0x126 PUSH2 0x601 JUMP JUMPDEST PUSH1 0x40 MLOAD PUSH2 0x133 SWAP2 SWAP1 PUSH2 0x15BE JUMP JUMPDEST PUSH1 0x40 MLOAD DUP1 SWAP2 SUB SWAP1 RETURN JUMPDEST CALLVALUE DUP1 ISZERO PUSH2 0x148 JUMPI PUSH1 0x0 DUP1 REVERT JUMPDEST POP PUSH2 0x163 PUSH1 0x4 DUP1 CALLDATASIZE SUB DUP2 ADD SWAP1 PUSH2 0x15E SWAP2 SWAP1 PUSH2 0x10D2 JUMP JUMPDEST PUSH2 0x889 JUMP JUMPDEST PUSH1 0x40 MLOAD PUSH2 0x170 SWAP2 SWAP1 PUSH2 0x15E0 JUMP JUMPDEST PUSH1 0x40 MLOAD DUP1 SWAP2 SUB SWAP1 RETURN JUMPDEST CALLVALUE DUP1 ISZERO PUSH2 0x185 JUMPI PUSH1 0x0 DUP1 REVERT JUMPDEST POP PUSH2 0x18E PUSH2 0xA16 JUMP JUMPDEST PUSH1 0x40 MLOAD PUSH2 0x19B SWAP2 SWAP1 PUSH2 0x15A3 JUMP JUMPDEST PUSH1 0x40 MLOAD DUP1 SWAP2 SUB SWAP1 RETURN JUMPDEST PUSH2 0x1BE PUSH1 0x4 DUP1 CALLDATASIZE SUB DUP2 ADD SWAP1 PUSH2 0x1B9 SWAP2 SWAP1 PUSH2 0x10D2 JUMP JUMPDEST PUSH2 0xA3A JUMP JUMPDEST STOP JUMPDEST CALLVALUE DUP1 ISZERO PUSH2 0x1CC JUMPI PUSH1 0x0 DUP1 REVERT JUMPDEST POP PUSH2 0x1E7 PUSH1 0x4 DUP1 CALLDATASIZE SUB DUP2 ADD SWAP1 PUSH2 0x1E2 SWAP2 SWAP1 PUSH2 0x100D JUMP JUMPDEST PUSH2 0xC19 JUMP JUMPDEST STOP JUMPDEST PUSH1 0x0 DUP1 PUSH1 0x0 SWAP1 SLOAD SWAP1 PUSH2 0x100 EXP SWAP1 DIV PUSH20 0xFFFFFFFFFFFFFFFFFFFFFFFFFFFFFFFFFFFFFFFF AND PUSH20 0xFFFFFFFFFFFFFFFFFFFFFFFFFFFFFFFFFFFFFFFF AND CALLER PUSH20 0xFFFFFFFFFFFFFFFFFFFFFFFFFFFFFFFFFFFFFFFF AND EQ PUSH2 0x244 JUMPI PUSH1 0x0 DUP1 REVERT JUMPDEST SELFBALANCE SWAP1 POP SWAP1 JUMP JUMPDEST PUSH1 0x0 PUSH1 0x1 PUSH1 0x0 DUP5 DUP2 MSTORE PUSH1 0x20 ADD SWAP1 DUP2 MSTORE PUSH1 0x20 ADD PUSH1 0x0 KECCAK256 SWAP1 POP DUP1 PUSH1 0x7 ADD PUSH1 0x0 SWAP1 SLOAD SWAP1 PUSH2 0x100 EXP SWAP1 DIV PUSH1 0xFF AND PUSH2 0x2B2 JUMPI PUSH1 0x40 MLOAD PUSH32 0x8C379A000000000000000000000000000000000000000000000000000000000 DUP2 MSTORE PUSH1 0x4 ADD PUSH2 0x2A9 SWAP1 PUSH2 0x1682 JUMP JUMPDEST PUSH1 0x40 MLOAD DUP1 SWAP2 SUB SWAP1 REVERT JUMPDEST TIMESTAMP DUP2 PUSH1 0x3 ADD SLOAD GT ISZERO PUSH2 0x2F9 JUMPI PUSH1 0x40 MLOAD PUSH32 0x8C379A000000000000000000000000000000000000000000000000000000000 DUP2 MSTORE PUSH1 0x4 ADD PUSH2 0x2F0 SWAP1 PUSH2 0x1642 JUMP JUMPDEST PUSH1 0x40 MLOAD DUP1 SWAP2 SUB SWAP1 REVERT JUMPDEST PUSH1 0x2 PUSH1 0x40 MLOAD DUP1 PUSH1 0xA0 ADD PUSH1 0x40 MSTORE DUP1 PUSH1 0x4 SLOAD DUP2 MSTORE PUSH1 0x20 ADD DUP6 DUP2 MSTORE PUSH1 0x20 ADD CALLER PUSH20 0xFFFFFFFFFFFFFFFFFFFFFFFFFFFFFFFFFFFFFFFF AND DUP2 MSTORE PUSH1 0x20 ADD DUP5 DUP2 MSTORE PUSH1 0x20 ADD TIMESTAMP DUP2 MSTORE POP SWAP1 DUP1 PUSH1 0x1 DUP2 SLOAD ADD DUP1 DUP3 SSTORE DUP1 SWAP2 POP POP PUSH1 0x1 SWAP1 SUB SWAP1 PUSH1 0x0 MSTORE PUSH1 0x20 PUSH1 0x0 KECCAK256 SWAP1 PUSH1 0x5 MUL ADD PUSH1 0x0 SWAP1 SWAP2 SWAP1 SWAP2 SWAP1 SWAP2 POP PUSH1 0x0 DUP3 ADD MLOAD DUP2 PUSH1 0x0 ADD SSTORE PUSH1 0x20 DUP3 ADD MLOAD DUP2 PUSH1 0x1 ADD SSTORE PUSH1 0x40 DUP3 ADD MLOAD DUP2 PUSH1 0x2 ADD PUSH1 0x0 PUSH2 0x100 EXP DUP2 SLOAD DUP2 PUSH20 0xFFFFFFFFFFFFFFFFFFFFFFFFFFFFFFFFFFFFFFFF MUL NOT AND SWAP1 DUP4 PUSH20 0xFFFFFFFFFFFFFFFFFFFFFFFFFFFFFFFFFFFFFFFF AND MUL OR SWAP1 SSTORE POP PUSH1 0x60 DUP3 ADD MLOAD DUP2 PUSH1 0x3 ADD SSTORE PUSH1 0x80 DUP3 ADD MLOAD DUP2 PUSH1 0x4 ADD SSTORE POP POP PUSH1 0x4 PUSH1 0x0 DUP2 SLOAD DUP1 SWAP3 SWAP2 SWAP1 PUSH2 0x3E7 SWAP1 PUSH2 0x1949 JUMP JUMPDEST SWAP2 SWAP1 POP SSTORE POP DUP2 DUP2 PUSH1 0x6 ADD PUSH1 0x0 DUP3 DUP3 SLOAD PUSH2 0x400 SWAP2 SWAP1 PUSH2 0x17F4 JUMP JUMPDEST SWAP3 POP POP DUP2 SWAP1 SSTORE POP POP POP POP JUMP JUMPDEST PUSH2 0x414 PUSH2 0xE27 JUMP JUMPDEST PUSH1 0x1 PUSH1 0x0 DUP4 DUP2 MSTORE PUSH1 0x20 ADD SWAP1 DUP2 MSTORE PUSH1 0x20 ADD PUSH1 0x0 KECCAK256 PUSH1 0x40 MLOAD DUP1 PUSH2 0x120 ADD PUSH1 0x40 MSTORE SWAP1 DUP2 PUSH1 0x0 DUP3 ADD SLOAD DUP2 MSTORE PUSH1 0x20 ADD PUSH1 0x1 DUP3 ADD DUP1 SLOAD PUSH2 0x44D SWAP1 PUSH2 0x18E6 JUMP JUMPDEST DUP1 PUSH1 0x1F ADD PUSH1 0x20 DUP1 SWAP2 DIV MUL PUSH1 0x20 ADD PUSH1 0x40 MLOAD SWAP1 DUP2 ADD PUSH1 0x40 MSTORE DUP1 SWAP3 SWAP2 SWAP1 DUP2 DUP2 MSTORE PUSH1 0x20 ADD DUP3 DUP1 SLOAD PUSH2 0x479 SWAP1 PUSH2 0x18E6 JUMP JUMPDEST DUP1 ISZERO PUSH2 0x4C6 JUMPI DUP1 PUSH1 0x1F LT PUSH2 0x49B JUMPI PUSH2 0x100 DUP1 DUP4 SLOAD DIV MUL DUP4 MSTORE SWAP2 PUSH1 0x20 ADD SWAP2 PUSH2 0x4C6 JUMP JUMPDEST DUP3 ADD SWAP2 SWAP1 PUSH1 0x0 MSTORE PUSH1 0x20 PUSH1 0x0 KECCAK256 SWAP1 JUMPDEST DUP2 SLOAD DUP2 MSTORE SWAP1 PUSH1 0x1 ADD SWAP1 PUSH1 0x20 ADD DUP1 DUP4 GT PUSH2 0x4A9 JUMPI DUP3 SWAP1 SUB PUSH1 0x1F AND DUP3 ADD SWAP2 JUMPDEST POP POP POP POP POP DUP2 MSTORE PUSH1 0x20 ADD PUSH1 0x2 DUP3 ADD DUP1 SLOAD PUSH2 0x4DF SWAP1 PUSH2 0x18E6 JUMP JUMPDEST DUP1 PUSH1 0x1F ADD PUSH1 0x20 DUP1 SWAP2 DIV MUL PUSH1 0x20 ADD PUSH1 0x40 MLOAD SWAP1 DUP2 ADD PUSH1 0x40 MSTORE DUP1 SWAP3 SWAP2 SWAP1 DUP2 DUP2 MSTORE PUSH1 0x20 ADD DUP3 DUP1 SLOAD PUSH2 0x50B SWAP1 PUSH2 0x18E6 JUMP JUMPDEST DUP1 ISZERO PUSH2 0x558 JUMPI DUP1 PUSH1 0x1F LT PUSH2 0x52D JUMPI PUSH2 0x100 DUP1 DUP4 SLOAD DIV MUL DUP4 MSTORE SWAP2 PUSH1 0x20 ADD SWAP2 PUSH2 0x558 JUMP JUMPDEST DUP3 ADD SWAP2 SWAP1 PUSH1 0x0 MSTORE PUSH1 0x20 PUSH1 0x0 KECCAK256 SWAP1 JUMPDEST DUP2 SLOAD DUP2 MSTORE SWAP1 PUSH1 0x1 ADD SWAP1 PUSH1 0x20 ADD DUP1 DUP4 GT PUSH2 0x53B JUMPI DUP3 SWAP1 SUB PUSH1 0x1F AND DUP3 ADD SWAP2 JUMPDEST POP POP POP POP POP DUP2 MSTORE PUSH1 0x20 ADD PUSH1 0x3 DUP3 ADD SLOAD DUP2 MSTORE PUSH1 0x20 ADD PUSH1 0x4 DUP3 ADD SLOAD DUP2 MSTORE PUSH1 0x20 ADD PUSH1 0x5 DUP3 ADD SLOAD DUP2 MSTORE PUSH1 0x20 ADD PUSH1 0x6 DUP3 ADD SLOAD DUP2 MSTORE PUSH1 0x20 ADD PUSH1 0x7 DUP3 ADD PUSH1 0x0 SWAP1 SLOAD SWAP1 PUSH2 0x100 EXP SWAP1 DIV PUSH1 0xFF AND ISZERO ISZERO ISZERO ISZERO DUP2 MSTORE PUSH1 0x20 ADD PUSH1 0x7 DUP3 ADD PUSH1 0x1 SWAP1 SLOAD SWAP1 PUSH2 0x100 EXP SWAP1 DIV PUSH20 0xFFFFFFFFFFFFFFFFFFFFFFFFFFFFFFFFFFFFFFFF AND PUSH20 0xFFFFFFFFFFFFFFFFFFFFFFFFFFFFFFFFFFFFFFFF AND PUSH20 0xFFFFFFFFFFFFFFFFFFFFFFFFFFFFFFFFFFFFFFFF AND DUP2 MSTORE POP POP SWAP1 POP SWAP2 SWAP1 POP JUMP JUMPDEST PUSH1 0x60 PUSH1 0x0 PUSH1 0x3 SLOAD PUSH8 0xFFFFFFFFFFFFFFFF DUP2 GT ISZERO PUSH2 0x621 JUMPI PUSH2 0x620 PUSH2 0x1A1F JUMP JUMPDEST JUMPDEST PUSH1 0x40 MLOAD SWAP1 DUP1 DUP3 MSTORE DUP1 PUSH1 0x20 MUL PUSH1 0x20 ADD DUP3 ADD PUSH1 0x40 MSTORE DUP1 ISZERO PUSH2 0x65A JUMPI DUP2 PUSH1 0x20 ADD JUMPDEST PUSH2 0x647 PUSH2 0xE27 JUMP JUMPDEST DUP2 MSTORE PUSH1 0x20 ADD SWAP1 PUSH1 0x1 SWAP1 SUB SWAP1 DUP2 PUSH2 0x63F JUMPI SWAP1 POP JUMPDEST POP SWAP1 POP PUSH1 0x0 JUMPDEST PUSH1 0x3 SLOAD DUP2 LT ISZERO PUSH2 0x881 JUMPI PUSH1 0x1 PUSH1 0x0 DUP3 DUP2 MSTORE PUSH1 0x20 ADD SWAP1 DUP2 MSTORE PUSH1 0x20 ADD PUSH1 0x0 KECCAK256 PUSH1 0x40 MLOAD DUP1 PUSH2 0x120 ADD PUSH1 0x40 MSTORE SWAP1 DUP2 PUSH1 0x0 DUP3 ADD SLOAD DUP2 MSTORE PUSH1 0x20 ADD PUSH1 0x1 DUP3 ADD DUP1 SLOAD PUSH2 0x6A3 SWAP1 PUSH2 0x18E6 JUMP JUMPDEST DUP1 PUSH1 0x1F ADD PUSH1 0x20 DUP1 SWAP2 DIV MUL PUSH1 0x20 ADD PUSH1 0x40 MLOAD SWAP1 DUP2 ADD PUSH1 0x40 MSTORE DUP1 SWAP3 SWAP2 SWAP1 DUP2 DUP2 MSTORE PUSH1 0x20 ADD DUP3 DUP1 SLOAD PUSH2 0x6CF SWAP1 PUSH2 0x18E6 JUMP JUMPDEST DUP1 ISZERO PUSH2 0x71C JUMPI DUP1 PUSH1 0x1F LT PUSH2 0x6F1 JUMPI PUSH2 0x100 DUP1 DUP4 SLOAD DIV MUL DUP4 MSTORE SWAP2 PUSH1 0x20 ADD SWAP2 PUSH2 0x71C JUMP JUMPDEST DUP3 ADD SWAP2 SWAP1 PUSH1 0x0 MSTORE PUSH1 0x20 PUSH1 0x0 KECCAK256 SWAP1 JUMPDEST DUP2 SLOAD DUP2 MSTORE SWAP1 PUSH1 0x1 ADD SWAP1 PUSH1 0x20 ADD DUP1 DUP4 GT PUSH2 0x6FF JUMPI DUP3 SWAP1 SUB PUSH1 0x1F AND DUP3 ADD SWAP2 JUMPDEST POP POP POP POP POP DUP2 MSTORE PUSH1 0x20 ADD PUSH1 0x2 DUP3 ADD DUP1 SLOAD PUSH2 0x735 SWAP1 PUSH2 0x18E6 JUMP JUMPDEST DUP1 PUSH1 0x1F ADD PUSH1 0x20 DUP1 SWAP2 DIV MUL PUSH1 0x20 ADD PUSH1 0x40 MLOAD SWAP1 DUP2 ADD PUSH1 0x40 MSTORE DUP1 SWAP3 SWAP2 SWAP1 DUP2 DUP2 MSTORE PUSH1 0x20 ADD DUP3 DUP1 SLOAD PUSH2 0x761 SWAP1 PUSH2 0x18E6 JUMP JUMPDEST DUP1 ISZERO PUSH2 0x7AE JUMPI DUP1 PUSH1 0x1F LT PUSH2 0x783 JUMPI PUSH2 0x100 DUP1 DUP4 SLOAD DIV MUL DUP4 MSTORE SWAP2 PUSH1 0x20 ADD SWAP2 PUSH2 0x7AE JUMP JUMPDEST DUP3 ADD SWAP2 SWAP1 PUSH1 0x0 MSTORE PUSH1 0x20 PUSH1 0x0 KECCAK256 SWAP1 JUMPDEST DUP2 SLOAD DUP2 MSTORE SWAP1 PUSH1 0x1 ADD SWAP1 PUSH1 0x20 ADD DUP1 DUP4 GT PUSH2 0x791 JUMPI DUP3 SWAP1 SUB PUSH1 0x1F AND DUP3 ADD SWAP2 JUMPDEST POP POP POP POP POP DUP2 MSTORE PUSH1 0x20 ADD PUSH1 0x3 DUP3 ADD SLOAD DUP2 MSTORE PUSH1 0x20 ADD PUSH1 0x4 DUP3 ADD SLOAD DUP2 MSTORE PUSH1 0x20 ADD PUSH1 0x5 DUP3 ADD SLOAD DUP2 MSTORE PUSH1 0x20 ADD PUSH1 0x6 DUP3 ADD SLOAD DUP2 MSTORE PUSH1 0x20 ADD PUSH1 0x7 DUP3 ADD PUSH1 0x0 SWAP1 SLOAD SWAP1 PUSH2 0x100 EXP SWAP1 DIV PUSH1 0xFF AND ISZERO ISZERO ISZERO ISZERO DUP2 MSTORE PUSH1 0x20 ADD PUSH1 0x7 DUP3 ADD PUSH1 0x1 SWAP1 SLOAD SWAP1 PUSH2 0x100 EXP SWAP1 DIV PUSH20 0xFFFFFFFFFFFFFFFFFFFFFFFFFFFFFFFFFFFFFFFF AND PUSH20 0xFFFFFFFFFFFFFFFFFFFFFFFFFFFFFFFFFFFFFFFF AND PUSH20 0xFFFFFFFFFFFFFFFFFFFFFFFFFFFFFFFFFFFFFFFF AND DUP2 MSTORE POP POP DUP3 DUP3 DUP2 MLOAD DUP2 LT PUSH2 0x863 JUMPI PUSH2 0x862 PUSH2 0x19F0 JUMP JUMPDEST JUMPDEST PUSH1 0x20 MUL PUSH1 0x20 ADD ADD DUP2 SWAP1 MSTORE POP DUP1 DUP1 PUSH2 0x879 SWAP1 PUSH2 0x1949 JUMP JUMPDEST SWAP2 POP POP PUSH2 0x660 JUMP JUMPDEST POP DUP1 SWAP2 POP POP SWAP1 JUMP JUMPDEST PUSH1 0x60 PUSH1 0x0 PUSH1 0x4 SLOAD PUSH8 0xFFFFFFFFFFFFFFFF DUP2 GT ISZERO PUSH2 0x8A9 JUMPI PUSH2 0x8A8 PUSH2 0x1A1F JUMP JUMPDEST JUMPDEST PUSH1 0x40 MLOAD SWAP1 DUP1 DUP3 MSTORE DUP1 PUSH1 0x20 MUL PUSH1 0x20 ADD DUP3 ADD PUSH1 0x40 MSTORE DUP1 ISZERO PUSH2 0x8E2 JUMPI DUP2 PUSH1 0x20 ADD JUMPDEST PUSH2 0x8CF PUSH2 0xE8B JUMP JUMPDEST DUP2 MSTORE PUSH1 0x20 ADD SWAP1 PUSH1 0x1 SWAP1 SUB SWAP1 DUP2 PUSH2 0x8C7 JUMPI SWAP1 POP JUMPDEST POP SWAP1 POP PUSH1 0x0 DUP1 JUMPDEST PUSH1 0x4 SLOAD DUP2 LT ISZERO PUSH2 0xA0B JUMPI DUP5 PUSH1 0x2 DUP3 DUP2 SLOAD DUP2 LT PUSH2 0x908 JUMPI PUSH2 0x907 PUSH2 0x19F0 JUMP JUMPDEST JUMPDEST SWAP1 PUSH1 0x0 MSTORE PUSH1 0x20 PUSH1 0x0 KECCAK256 SWAP1 PUSH1 0x5 MUL ADD PUSH1 0x1 ADD SLOAD EQ ISZERO PUSH2 0x9F8 JUMPI PUSH1 0x2 DUP2 DUP2 SLOAD DUP2 LT PUSH2 0x934 JUMPI PUSH2 0x933 PUSH2 0x19F0 JUMP JUMPDEST JUMPDEST SWAP1 PUSH1 0x0 MSTORE PUSH1 0x20 PUSH1 0x0 KECCAK256 SWAP1 PUSH1 0x5 MUL ADD PUSH1 0x40 MLOAD DUP1 PUSH1 0xA0 ADD PUSH1 0x40 MSTORE SWAP1 DUP2 PUSH1 0x0 DUP3 ADD SLOAD DUP2 MSTORE PUSH1 0x20 ADD PUSH1 0x1 DUP3 ADD SLOAD DUP2 MSTORE PUSH1 0x20 ADD PUSH1 0x2 DUP3 ADD PUSH1 0x0 SWAP1 SLOAD SWAP1 PUSH2 0x100 EXP SWAP1 DIV PUSH20 0xFFFFFFFFFFFFFFFFFFFFFFFFFFFFFFFFFFFFFFFF AND PUSH20 0xFFFFFFFFFFFFFFFFFFFFFFFFFFFFFFFFFFFFFFFF AND PUSH20 0xFFFFFFFFFFFFFFFFFFFFFFFFFFFFFFFFFFFFFFFF AND DUP2 MSTORE PUSH1 0x20 ADD PUSH1 0x3 DUP3 ADD SLOAD DUP2 MSTORE PUSH1 0x20 ADD PUSH1 0x4 DUP3 ADD SLOAD DUP2 MSTORE POP POP DUP4 DUP4 DUP2 MLOAD DUP2 LT PUSH2 0x9DE JUMPI PUSH2 0x9DD PUSH2 0x19F0 JUMP JUMPDEST JUMPDEST PUSH1 0x20 MUL PUSH1 0x20 ADD ADD DUP2 SWAP1 MSTORE POP DUP2 DUP1 PUSH2 0x9F4 SWAP1 PUSH2 0x1949 JUMP JUMPDEST SWAP3 POP POP JUMPDEST DUP1 DUP1 PUSH2 0xA03 SWAP1 PUSH2 0x1949 JUMP JUMPDEST SWAP2 POP POP PUSH2 0x8E9 JUMP JUMPDEST POP DUP2 SWAP3 POP POP POP SWAP2 SWAP1 POP JUMP JUMPDEST PUSH1 0x0 DUP1 SLOAD SWAP1 PUSH2 0x100 EXP SWAP1 DIV PUSH20 0xFFFFFFFFFFFFFFFFFFFFFFFFFFFFFFFFFFFFFFFF AND DUP2 JUMP JUMPDEST CALLER PUSH20 0xFFFFFFFFFFFFFFFFFFFFFFFFFFFFFFFFFFFFFFFF AND PUSH1 0x0 DUP1 SLOAD SWAP1 PUSH2 0x100 EXP SWAP1 DIV PUSH20 0xFFFFFFFFFFFFFFFFFFFFFFFFFFFFFFFFFFFFFFFF AND PUSH20 0xFFFFFFFFFFFFFFFFFFFFFFFFFFFFFFFFFFFFFFFF AND EQ PUSH2 0xAC8 JUMPI PUSH1 0x40 MLOAD PUSH32 0x8C379A000000000000000000000000000000000000000000000000000000000 DUP2 MSTORE PUSH1 0x4 ADD PUSH2 0xABF SWAP1 PUSH2 0x16A2 JUMP JUMPDEST PUSH1 0x40 MLOAD DUP1 SWAP2 SUB SWAP1 REVERT JUMPDEST PUSH1 0x0 PUSH1 0x1 PUSH1 0x0 DUP4 DUP2 MSTORE PUSH1 0x20 ADD SWAP1 DUP2 MSTORE PUSH1 0x20 ADD PUSH1 0x0 KECCAK256 SWAP1 POP DUP1 PUSH1 0x7 ADD PUSH1 0x0 SWAP1 SLOAD SWAP1 PUSH2 0x100 EXP SWAP1 DIV PUSH1 0xFF AND PUSH2 0xB30 JUMPI PUSH1 0x40 MLOAD PUSH32 0x8C379A000000000000000000000000000000000000000000000000000000000 DUP2 MSTORE PUSH1 0x4 ADD PUSH2 0xB27 SWAP1 PUSH2 0x1682 JUMP JUMPDEST PUSH1 0x40 MLOAD DUP1 SWAP2 SUB SWAP1 REVERT JUMPDEST DUP1 PUSH1 0x5 ADD SLOAD DUP2 PUSH1 0x6 ADD SLOAD LT ISZERO DUP1 PUSH2 0xB4A JUMPI POP TIMESTAMP DUP2 PUSH1 0x4 ADD SLOAD LT JUMPDEST PUSH2 0xB89 JUMPI PUSH1 0x40 MLOAD PUSH32 0x8C379A000000000000000000000000000000000000000000000000000000000 DUP2 MSTORE PUSH1 0x4 ADD PUSH2 0xB80 SWAP1 PUSH2 0x1662 JUMP JUMPDEST PUSH1 0x40 MLOAD DUP1 SWAP2 SUB SWAP1 REVERT JUMPDEST DUP1 PUSH1 0x7 ADD PUSH1 0x1 SWAP1 SLOAD SWAP1 PUSH2 0x100 EXP SWAP1 DIV PUSH20 0xFFFFFFFFFFFFFFFFFFFFFFFFFFFFFFFFFFFFFFFF AND PUSH20 0xFFFFFFFFFFFFFFFFFFFFFFFFFFFFFFFFFFFFFFFF AND PUSH2 0x8FC DUP3 PUSH1 0x6 ADD SLOAD SWAP1 DUP2 ISZERO MUL SWAP1 PUSH1 0x40 MLOAD PUSH1 0x0 PUSH1 0x40 MLOAD DUP1 DUP4 SUB DUP2 DUP6 DUP9 DUP9 CALL SWAP4 POP POP POP POP ISZERO DUP1 ISZERO PUSH2 0xBF7 JUMPI RETURNDATASIZE PUSH1 0x0 DUP1 RETURNDATACOPY RETURNDATASIZE PUSH1 0x0 REVERT JUMPDEST POP PUSH1 0x0 DUP2 PUSH1 0x7 ADD PUSH1 0x0 PUSH2 0x100 EXP DUP2 SLOAD DUP2 PUSH1 0xFF MUL NOT AND SWAP1 DUP4 ISZERO ISZERO MUL OR SWAP1 SSTORE POP POP POP JUMP JUMPDEST CALLER PUSH20 0xFFFFFFFFFFFFFFFFFFFFFFFFFFFFFFFFFFFFFFFF AND PUSH1 0x0 DUP1 SLOAD SWAP1 PUSH2 0x100 EXP SWAP1 DIV PUSH20 0xFFFFFFFFFFFFFFFFFFFFFFFFFFFFFFFFFFFFFFFF AND PUSH20 0xFFFFFFFFFFFFFFFFFFFFFFFFFFFFFFFFFFFFFFFF AND EQ PUSH2 0xCA7 JUMPI PUSH1 0x40 MLOAD PUSH32 0x8C379A000000000000000000000000000000000000000000000000000000000 DUP2 MSTORE PUSH1 0x4 ADD PUSH2 0xC9E SWAP1 PUSH2 0x16A2 JUMP JUMPDEST PUSH1 0x40 MLOAD DUP1 SWAP2 SUB SWAP1 REVERT JUMPDEST TIMESTAMP DUP5 GT PUSH2 0xCE9 JUMPI PUSH1 0x40 MLOAD PUSH32 0x8C379A000000000000000000000000000000000000000000000000000000000 DUP2 MSTORE PUSH1 0x4 ADD PUSH2 0xCE0 SWAP1 PUSH2 0x1622 JUMP JUMPDEST PUSH1 0x40 MLOAD DUP1 SWAP2 SUB SWAP1 REVERT JUMPDEST DUP4 DUP4 GT PUSH2 0xD2B JUMPI PUSH1 0x40 MLOAD PUSH32 0x8C379A000000000000000000000000000000000000000000000000000000000 DUP2 MSTORE PUSH1 0x4 ADD PUSH2 0xD22 SWAP1 PUSH2 0x1602 JUMP JUMPDEST PUSH1 0x40 MLOAD DUP1 SWAP2 SUB SWAP1 REVERT JUMPDEST PUSH1 0x0 PUSH1 0x1 PUSH1 0x0 PUSH1 0x3 SLOAD DUP2 MSTORE PUSH1 0x20 ADD SWAP1 DUP2 MSTORE PUSH1 0x20 ADD PUSH1 0x0 KECCAK256 SWAP1 POP PUSH1 0x3 SLOAD DUP2 PUSH1 0x0 ADD DUP2 SWAP1 SSTORE POP DUP7 DUP2 PUSH1 0x1 ADD SWAP1 DUP1 MLOAD SWAP1 PUSH1 0x20 ADD SWAP1 PUSH2 0xD67 SWAP3 SWAP2 SWAP1 PUSH2 0xED0 JUMP JUMPDEST POP DUP6 DUP2 PUSH1 0x2 ADD SWAP1 DUP1 MLOAD SWAP1 PUSH1 0x20 ADD SWAP1 PUSH2 0xD80 SWAP3 SWAP2 SWAP1 PUSH2 0xED0 JUMP JUMPDEST POP DUP5 DUP2 PUSH1 0x3 ADD DUP2 SWAP1 SSTORE POP DUP4 DUP2 PUSH1 0x4 ADD DUP2 SWAP1 SSTORE POP DUP3 DUP2 PUSH1 0x5 ADD DUP2 SWAP1 SSTORE POP PUSH1 0x0 DUP2 PUSH1 0x6 ADD DUP2 SWAP1 SSTORE POP DUP2 DUP2 PUSH1 0x7 ADD PUSH1 0x1 PUSH2 0x100 EXP DUP2 SLOAD DUP2 PUSH20 0xFFFFFFFFFFFFFFFFFFFFFFFFFFFFFFFFFFFFFFFF MUL NOT AND SWAP1 DUP4 PUSH20 0xFFFFFFFFFFFFFFFFFFFFFFFFFFFFFFFFFFFFFFFF AND MUL OR SWAP1 SSTORE POP PUSH1 0x1 DUP2 PUSH1 0x7 ADD PUSH1 0x0 PUSH2 0x100 EXP DUP2 SLOAD DUP2 PUSH1 0xFF MUL NOT AND SWAP1 DUP4 ISZERO ISZERO MUL OR SWAP1 SSTORE POP PUSH1 0x3 PUSH1 0x0 DUP2 SLOAD DUP1 SWAP3 SWAP2 SWAP1 PUSH2 0xE19 SWAP1 PUSH2 0x1949 JUMP JUMPDEST SWAP2 SWAP1 POP SSTORE POP POP POP POP POP POP POP POP JUMP JUMPDEST PUSH1 0x40 MLOAD DUP1 PUSH2 0x120 ADD PUSH1 0x40 MSTORE DUP1 PUSH1 0x0 DUP2 MSTORE PUSH1 0x20 ADD PUSH1 0x60 DUP2 MSTORE PUSH1 0x20 ADD PUSH1 0x60 DUP2 MSTORE PUSH1 0x20 ADD PUSH1 0x0 DUP2 MSTORE PUSH1 0x20 ADD PUSH1 0x0 DUP2 MSTORE PUSH1 0x20 ADD PUSH1 0x0 DUP2 MSTORE PUSH1 0x20 ADD PUSH1 0x0 DUP2 MSTORE PUSH1 0x20 ADD PUSH1 0x0 ISZERO ISZERO DUP2 MSTORE PUSH1 0x20 ADD PUSH1 0x0 PUSH20 0xFFFFFFFFFFFFFFFFFFFFFFFFFFFFFFFFFFFFFFFF AND DUP2 MSTORE POP SWAP1 JUMP JUMPDEST PUSH1 0x40 MLOAD DUP1 PUSH1 0xA0 ADD PUSH1 0x40 MSTORE DUP1 PUSH1 0x0 DUP2 MSTORE PUSH1 0x20 ADD PUSH1 0x0 DUP2 MSTORE PUSH1 0x20 ADD PUSH1 0x0 PUSH20 0xFFFFFFFFFFFFFFFFFFFFFFFFFFFFFFFFFFFFFFFF AND DUP2 MSTORE PUSH1 0x20 ADD PUSH1 0x0 DUP2 MSTORE PUSH1 0x20 ADD PUSH1 0x0 DUP2 MSTORE POP SWAP1 JUMP JUMPDEST DUP3 DUP1 SLOAD PUSH2 0xEDC SWAP1 PUSH2 0x18E6 JUMP JUMPDEST SWAP1 PUSH1 0x0 MSTORE PUSH1 0x20 PUSH1 0x0 KECCAK256 SWAP1 PUSH1 0x1F ADD PUSH1 0x20 SWAP1 DIV DUP2 ADD SWAP3 DUP3 PUSH2 0xEFE JUMPI PUSH1 0x0 DUP6 SSTORE PUSH2 0xF45 JUMP JUMPDEST DUP3 PUSH1 0x1F LT PUSH2 0xF17 JUMPI DUP1 MLOAD PUSH1 0xFF NOT AND DUP4 DUP1 ADD OR DUP6 SSTORE PUSH2 0xF45 JUMP JUMPDEST DUP3 DUP1 ADD PUSH1 0x1 ADD DUP6 SSTORE DUP3 ISZERO PUSH2 0xF45 JUMPI SWAP2 DUP3 ADD JUMPDEST DUP3 DUP2 GT ISZERO PUSH2 0xF44 JUMPI DUP3 MLOAD DUP3 SSTORE SWAP2 PUSH1 0x20 ADD SWAP2 SWAP1 PUSH1 0x1 ADD SWAP1 PUSH2 0xF29 JUMP JUMPDEST JUMPDEST POP SWAP1 POP PUSH2 0xF52 SWAP2 SWAP1 PUSH2 0xF56 JUMP JUMPDEST POP SWAP1 JUMP JUMPDEST JUMPDEST DUP1 DUP3 GT ISZERO PUSH2 0xF6F JUMPI PUSH1 0x0 DUP2 PUSH1 0x0 SWAP1 SSTORE POP PUSH1 0x1 ADD PUSH2 0xF57 JUMP JUMPDEST POP SWAP1 JUMP JUMPDEST PUSH1 0x0 PUSH2 0xF86 PUSH2 0xF81 DUP5 PUSH2 0x1724 JUMP JUMPDEST PUSH2 0x16FF JUMP JUMPDEST SWAP1 POP DUP3 DUP2 MSTORE PUSH1 0x20 DUP2 ADD DUP5 DUP5 DUP5 ADD GT ISZERO PUSH2 0xFA2 JUMPI PUSH2 0xFA1 PUSH2 0x1A53 JUMP JUMPDEST JUMPDEST PUSH2 0xFAD DUP5 DUP3 DUP6 PUSH2 0x18A4 JUMP JUMPDEST POP SWAP4 SWAP3 POP POP POP JUMP JUMPDEST PUSH1 0x0 DUP2 CALLDATALOAD SWAP1 POP PUSH2 0xFC4 DUP2 PUSH2 0x1C01 JUMP JUMPDEST SWAP3 SWAP2 POP POP JUMP JUMPDEST PUSH1 0x0 DUP3 PUSH1 0x1F DUP4 ADD SLT PUSH2 0xFDF JUMPI PUSH2 0xFDE PUSH2 0x1A4E JUMP JUMPDEST JUMPDEST DUP2 CALLDATALOAD PUSH2 0xFEF DUP5 DUP3 PUSH1 0x20 DUP7 ADD PUSH2 0xF73 JUMP JUMPDEST SWAP2 POP POP SWAP3 SWAP2 POP POP JUMP JUMPDEST PUSH1 0x0 DUP2 CALLDATALOAD SWAP1 POP PUSH2 0x1007 DUP2 PUSH2 0x1C18 JUMP JUMPDEST SWAP3 SWAP2 POP POP JUMP JUMPDEST PUSH1 0x0 DUP1 PUSH1 0x0 DUP1 PUSH1 0x0 DUP1 PUSH1 0xC0 DUP8 DUP10 SUB SLT ISZERO PUSH2 0x102A JUMPI PUSH2 0x1029 PUSH2 0x1A5D JUMP JUMPDEST JUMPDEST PUSH1 0x0 DUP8 ADD CALLDATALOAD PUSH8 0xFFFFFFFFFFFFFFFF DUP2 GT ISZERO PUSH2 0x1048 JUMPI PUSH2 0x1047 PUSH2 0x1A58 JUMP JUMPDEST JUMPDEST PUSH2 0x1054 DUP10 DUP3 DUP11 ADD PUSH2 0xFCA JUMP JUMPDEST SWAP7 POP POP PUSH1 0x20 DUP8 ADD CALLDATALOAD PUSH8 0xFFFFFFFFFFFFFFFF DUP2 GT ISZERO PUSH2 0x1075 JUMPI PUSH2 0x1074 PUSH2 0x1A58 JUMP JUMPDEST JUMPDEST PUSH2 0x1081 DUP10 DUP3 DUP11 ADD PUSH2 0xFCA JUMP JUMPDEST SWAP6 POP POP PUSH1 0x40 PUSH2 0x1092 DUP10 DUP3 DUP11 ADD PUSH2 0xFF8 JUMP JUMPDEST SWAP5 POP POP PUSH1 0x60 PUSH2 0x10A3 DUP10 DUP3 DUP11 ADD PUSH2 0xFF8 JUMP JUMPDEST SWAP4 POP POP PUSH1 0x80 PUSH2 0x10B4 DUP10 DUP3 DUP11 ADD PUSH2 0xFF8 JUMP JUMPDEST SWAP3 POP POP PUSH1 0xA0 PUSH2 0x10C5 DUP10 DUP3 DUP11 ADD PUSH2 0xFB5 JUMP JUMPDEST SWAP2 POP POP SWAP3 SWAP6 POP SWAP3 SWAP6 POP SWAP3 SWAP6 JUMP JUMPDEST PUSH1 0x0 PUSH1 0x20 DUP3 DUP5 SUB SLT ISZERO PUSH2 0x10E8 JUMPI PUSH2 0x10E7 PUSH2 0x1A5D JUMP JUMPDEST JUMPDEST PUSH1 0x0 PUSH2 0x10F6 DUP5 DUP3 DUP6 ADD PUSH2 0xFF8 JUMP JUMPDEST SWAP2 POP POP SWAP3 SWAP2 POP POP JUMP JUMPDEST PUSH1 0x0 DUP1 PUSH1 0x40 DUP4 DUP6 SUB SLT ISZERO PUSH2 0x1116 JUMPI PUSH2 0x1115 PUSH2 0x1A5D JUMP JUMPDEST JUMPDEST PUSH1 0x0 PUSH2 0x1124 DUP6 DUP3 DUP7 ADD PUSH2 0xFF8 JUMP JUMPDEST SWAP3 POP POP PUSH1 0x20 PUSH2 0x1135 DUP6 DUP3 DUP7 ADD PUSH2 0xFF8 JUMP JUMPDEST SWAP2 POP POP SWAP3 POP SWAP3 SWAP1 POP JUMP JUMPDEST PUSH1 0x0 PUSH2 0x114B DUP4 DUP4 PUSH2 0x1385 JUMP JUMPDEST SWAP1 POP SWAP3 SWAP2 POP POP JUMP JUMPDEST PUSH1 0x0 PUSH2 0x115F DUP4 DUP4 PUSH2 0x151D JUMP JUMPDEST PUSH1 0xA0 DUP4 ADD SWAP1 POP SWAP3 SWAP2 POP POP JUMP JUMPDEST PUSH2 0x1174 DUP2 PUSH2 0x185C JUMP JUMPDEST DUP3 MSTORE POP POP JUMP JUMPDEST PUSH2 0x1183 DUP2 PUSH2 0x184A JUMP JUMPDEST DUP3 MSTORE POP POP JUMP JUMPDEST PUSH2 0x1192 DUP2 PUSH2 0x184A JUMP JUMPDEST DUP3 MSTORE POP POP JUMP JUMPDEST PUSH1 0x0 PUSH2 0x11A3 DUP3 PUSH2 0x1775 JUMP JUMPDEST PUSH2 0x11AD DUP2 DUP6 PUSH2 0x17B0 JUMP JUMPDEST SWAP4 POP DUP4 PUSH1 0x20 DUP3 MUL DUP6 ADD PUSH2 0x11BF DUP6 PUSH2 0x1755 JUMP JUMPDEST DUP1 PUSH1 0x0 JUMPDEST DUP6 DUP2 LT ISZERO PUSH2 0x11FB JUMPI DUP5 DUP5 SUB DUP10 MSTORE DUP2 MLOAD PUSH2 0x11DC DUP6 DUP3 PUSH2 0x113F JUMP JUMPDEST SWAP5 POP PUSH2 0x11E7 DUP4 PUSH2 0x1796 JUMP JUMPDEST SWAP3 POP PUSH1 0x20 DUP11 ADD SWAP10 POP POP PUSH1 0x1 DUP2 ADD SWAP1 POP PUSH2 0x11C3 JUMP JUMPDEST POP DUP3 SWAP8 POP DUP8 SWAP6 POP POP POP POP POP POP SWAP3 SWAP2 POP POP JUMP JUMPDEST PUSH1 0x0 PUSH2 0x1218 DUP3 PUSH2 0x1780 JUMP JUMPDEST PUSH2 0x1222 DUP2 DUP6 PUSH2 0x17C1 JUMP JUMPDEST SWAP4 POP PUSH2 0x122D DUP4 PUSH2 0x1765 JUMP JUMPDEST DUP1 PUSH1 0x0 JUMPDEST DUP4 DUP2 LT ISZERO PUSH2 0x125E JUMPI DUP2 MLOAD PUSH2 0x1245 DUP9 DUP3 PUSH2 0x1153 JUMP JUMPDEST SWAP8 POP PUSH2 0x1250 DUP4 PUSH2 0x17A3 JUMP JUMPDEST SWAP3 POP POP PUSH1 0x1 DUP2 ADD SWAP1 POP PUSH2 0x1231 JUMP JUMPDEST POP DUP6 SWAP4 POP POP POP POP SWAP3 SWAP2 POP POP JUMP JUMPDEST PUSH2 0x1274 DUP2 PUSH2 0x186E JUMP JUMPDEST DUP3 MSTORE POP POP JUMP JUMPDEST PUSH1 0x0 PUSH2 0x1285 DUP3 PUSH2 0x178B JUMP JUMPDEST PUSH2 0x128F DUP2 DUP6 PUSH2 0x17D2 JUMP JUMPDEST SWAP4 POP PUSH2 0x129F DUP2 DUP6 PUSH1 0x20 DUP7 ADD PUSH2 0x18B3 JUMP JUMPDEST PUSH2 0x12A8 DUP2 PUSH2 0x1A62 JUMP JUMPDEST DUP5 ADD SWAP2 POP POP SWAP3 SWAP2 POP POP JUMP JUMPDEST PUSH1 0x0 PUSH2 0x12C0 PUSH1 0x35 DUP4 PUSH2 0x17E3 JUMP JUMPDEST SWAP2 POP PUSH2 0x12CB DUP3 PUSH2 0x1A73 JUMP JUMPDEST PUSH1 0x40 DUP3 ADD SWAP1 POP SWAP2 SWAP1 POP JUMP JUMPDEST PUSH1 0x0 PUSH2 0x12E3 PUSH1 0x39 DUP4 PUSH2 0x17E3 JUMP JUMPDEST SWAP2 POP PUSH2 0x12EE DUP3 PUSH2 0x1AC2 JUMP JUMPDEST PUSH1 0x40 DUP3 ADD SWAP1 POP SWAP2 SWAP1 POP JUMP JUMPDEST PUSH1 0x0 PUSH2 0x1306 PUSH1 0x19 DUP4 PUSH2 0x17E3 JUMP JUMPDEST SWAP2 POP PUSH2 0x1311 DUP3 PUSH2 0x1B11 JUMP JUMPDEST PUSH1 0x20 DUP3 ADD SWAP1 POP SWAP2 SWAP1 POP JUMP JUMPDEST PUSH1 0x0 PUSH2 0x1329 PUSH1 0x2B DUP4 PUSH2 0x17E3 JUMP JUMPDEST SWAP2 POP PUSH2 0x1334 DUP3 PUSH2 0x1B3A JUMP JUMPDEST PUSH1 0x40 DUP3 ADD SWAP1 POP SWAP2 SWAP1 POP JUMP JUMPDEST PUSH1 0x0 PUSH2 0x134C PUSH1 0xF DUP4 PUSH2 0x17E3 JUMP JUMPDEST SWAP2 POP PUSH2 0x1357 DUP3 PUSH2 0x1B89 JUMP JUMPDEST PUSH1 0x20 DUP3 ADD SWAP1 POP SWAP2 SWAP1 POP JUMP JUMPDEST PUSH1 0x0 PUSH2 0x136F PUSH1 0x39 DUP4 PUSH2 0x17E3 JUMP JUMPDEST SWAP2 POP PUSH2 0x137A DUP3 PUSH2 0x1BB2 JUMP JUMPDEST PUSH1 0x40 DUP3 ADD SWAP1 POP SWAP2 SWAP1 POP JUMP JUMPDEST PUSH1 0x0 PUSH2 0x120 DUP4 ADD PUSH1 0x0 DUP4 ADD MLOAD PUSH2 0x139E PUSH1 0x0 DUP7 ADD DUP3 PUSH2 0x1585 JUMP JUMPDEST POP PUSH1 0x20 DUP4 ADD MLOAD DUP5 DUP3 SUB PUSH1 0x20 DUP7 ADD MSTORE PUSH2 0x13B6 DUP3 DUP3 PUSH2 0x127A JUMP JUMPDEST SWAP2 POP POP PUSH1 0x40 DUP4 ADD MLOAD DUP5 DUP3 SUB PUSH1 0x40 DUP7 ADD MSTORE PUSH2 0x13D0 DUP3 DUP3 PUSH2 0x127A JUMP JUMPDEST SWAP2 POP POP PUSH1 0x60 DUP4 ADD MLOAD PUSH2 0x13E5 PUSH1 0x60 DUP7 ADD DUP3 PUSH2 0x1585 JUMP JUMPDEST POP PUSH1 0x80 DUP4 ADD MLOAD PUSH2 0x13F8 PUSH1 0x80 DUP7 ADD DUP3 PUSH2 0x1585 JUMP JUMPDEST POP PUSH1 0xA0 DUP4 ADD MLOAD PUSH2 0x140B PUSH1 0xA0 DUP7 ADD DUP3 PUSH2 0x1585 JUMP JUMPDEST POP PUSH1 0xC0 DUP4 ADD MLOAD PUSH2 0x141E PUSH1 0xC0 DUP7 ADD DUP3 PUSH2 0x1585 JUMP JUMPDEST POP PUSH1 0xE0 DUP4 ADD MLOAD PUSH2 0x1431 PUSH1 0xE0 DUP7 ADD DUP3 PUSH2 0x126B JUMP JUMPDEST POP PUSH2 0x100 DUP4 ADD MLOAD PUSH2 0x1446 PUSH2 0x100 DUP7 ADD DUP3 PUSH2 0x116B JUMP JUMPDEST POP DUP1 SWAP2 POP POP SWAP3 SWAP2 POP POP JUMP JUMPDEST PUSH1 0x0 PUSH2 0x120 DUP4 ADD PUSH1 0x0 DUP4 ADD MLOAD PUSH2 0x146A PUSH1 0x0 DUP7 ADD DUP3 PUSH2 0x1585 JUMP JUMPDEST POP PUSH1 0x20 DUP4 ADD MLOAD DUP5 DUP3 SUB PUSH1 0x20 DUP7 ADD MSTORE PUSH2 0x1482 DUP3 DUP3 PUSH2 0x127A JUMP JUMPDEST SWAP2 POP POP PUSH1 0x40 DUP4 ADD MLOAD DUP5 DUP3 SUB PUSH1 0x40 DUP7 ADD MSTORE PUSH2 0x149C DUP3 DUP3 PUSH2 0x127A JUMP JUMPDEST SWAP2 POP POP PUSH1 0x60 DUP4 ADD MLOAD PUSH2 0x14B1 PUSH1 0x60 DUP7 ADD DUP3 PUSH2 0x1585 JUMP JUMPDEST POP PUSH1 0x80 DUP4 ADD MLOAD PUSH2 0x14C4 PUSH1 0x80 DUP7 ADD DUP3 PUSH2 0x1585 JUMP JUMPDEST POP PUSH1 0xA0 DUP4 ADD MLOAD PUSH2 0x14D7 PUSH1 0xA0 DUP7 ADD DUP3 PUSH2 0x1585 JUMP JUMPDEST POP PUSH1 0xC0 DUP4 ADD MLOAD PUSH2 0x14EA PUSH1 0xC0 DUP7 ADD DUP3 PUSH2 0x1585 JUMP JUMPDEST POP PUSH1 0xE0 DUP4 ADD MLOAD PUSH2 0x14FD PUSH1 0xE0 DUP7 ADD DUP3 PUSH2 0x126B JUMP JUMPDEST POP PUSH2 0x100 DUP4 ADD MLOAD PUSH2 0x1512 PUSH2 0x100 DUP7 ADD DUP3 PUSH2 0x116B JUMP JUMPDEST POP DUP1 SWAP2 POP POP SWAP3 SWAP2 POP POP JUMP JUMPDEST PUSH1 0xA0 DUP3 ADD PUSH1 0x0 DUP3 ADD MLOAD PUSH2 0x1533 PUSH1 0x0 DUP6 ADD DUP3 PUSH2 0x1585 JUMP JUMPDEST POP PUSH1 0x20 DUP3 ADD MLOAD PUSH2 0x1546 PUSH1 0x20 DUP6 ADD DUP3 PUSH2 0x1585 JUMP JUMPDEST POP PUSH1 0x40 DUP3 ADD MLOAD PUSH2 0x1559 PUSH1 0x40 DUP6 ADD DUP3 PUSH2 0x117A JUMP JUMPDEST POP PUSH1 0x60 DUP3 ADD MLOAD PUSH2 0x156C PUSH1 0x60 DUP6 ADD DUP3 PUSH2 0x1585 JUMP JUMPDEST POP PUSH1 0x80 DUP3 ADD MLOAD PUSH2 0x157F PUSH1 0x80 DUP6 ADD DUP3 PUSH2 0x1585 JUMP JUMPDEST POP POP POP POP JUMP JUMPDEST PUSH2 0x158E DUP2 PUSH2 0x189A JUMP JUMPDEST DUP3 MSTORE POP POP JUMP JUMPDEST PUSH2 0x159D DUP2 PUSH2 0x189A JUMP JUMPDEST DUP3 MSTORE POP POP JUMP JUMPDEST PUSH1 0x0 PUSH1 0x20 DUP3 ADD SWAP1 POP PUSH2 0x15B8 PUSH1 0x0 DUP4 ADD DUP5 PUSH2 0x1189 JUMP JUMPDEST SWAP3 SWAP2 POP POP JUMP JUMPDEST PUSH1 0x0 PUSH1 0x20 DUP3 ADD SWAP1 POP DUP2 DUP2 SUB PUSH1 0x0 DUP4 ADD MSTORE PUSH2 0x15D8 DUP2 DUP5 PUSH2 0x1198 JUMP JUMPDEST SWAP1 POP SWAP3 SWAP2 POP POP JUMP JUMPDEST PUSH1 0x0 PUSH1 0x20 DUP3 ADD SWAP1 POP DUP2 DUP2 SUB PUSH1 0x0 DUP4 ADD MSTORE PUSH2 0x15FA DUP2 DUP5 PUSH2 0x120D JUMP JUMPDEST SWAP1 POP SWAP3 SWAP2 POP POP JUMP JUMPDEST PUSH1 0x0 PUSH1 0x20 DUP3 ADD SWAP1 POP DUP2 DUP2 SUB PUSH1 0x0 DUP4 ADD MSTORE PUSH2 0x161B DUP2 PUSH2 0x12B3 JUMP JUMPDEST SWAP1 POP SWAP2 SWAP1 POP JUMP JUMPDEST PUSH1 0x0 PUSH1 0x20 DUP3 ADD SWAP1 POP DUP2 DUP2 SUB PUSH1 0x0 DUP4 ADD MSTORE PUSH2 0x163B DUP2 PUSH2 0x12D6 JUMP JUMPDEST SWAP1 POP SWAP2 SWAP1 POP JUMP JUMPDEST PUSH1 0x0 PUSH1 0x20 DUP3 ADD SWAP1 POP DUP2 DUP2 SUB PUSH1 0x0 DUP4 ADD MSTORE PUSH2 0x165B DUP2 PUSH2 0x12F9 JUMP JUMPDEST SWAP1 POP SWAP2 SWAP1 POP JUMP JUMPDEST PUSH1 0x0 PUSH1 0x20 DUP3 ADD SWAP1 POP DUP2 DUP2 SUB PUSH1 0x0 DUP4 ADD MSTORE PUSH2 0x167B DUP2 PUSH2 0x131C JUMP JUMPDEST SWAP1 POP SWAP2 SWAP1 POP JUMP JUMPDEST PUSH1 0x0 PUSH1 0x20 DUP3 ADD SWAP1 POP DUP2 DUP2 SUB PUSH1 0x0 DUP4 ADD MSTORE PUSH2 0x169B DUP2 PUSH2 0x133F JUMP JUMPDEST SWAP1 POP SWAP2 SWAP1 POP JUMP JUMPDEST PUSH1 0x0 PUSH1 0x20 DUP3 ADD SWAP1 POP DUP2 DUP2 SUB PUSH1 0x0 DUP4 ADD MSTORE PUSH2 0x16BB DUP2 PUSH2 0x1362 JUMP JUMPDEST SWAP1 POP SWAP2 SWAP1 POP JUMP JUMPDEST PUSH1 0x0 PUSH1 0x20 DUP3 ADD SWAP1 POP DUP2 DUP2 SUB PUSH1 0x0 DUP4 ADD MSTORE PUSH2 0x16DC DUP2 DUP5 PUSH2 0x1451 JUMP JUMPDEST SWAP1 POP SWAP3 SWAP2 POP POP JUMP JUMPDEST PUSH1 0x0 PUSH1 0x20 DUP3 ADD SWAP1 POP PUSH2 0x16F9 PUSH1 0x0 DUP4 ADD DUP5 PUSH2 0x1594 JUMP JUMPDEST SWAP3 SWAP2 POP POP JUMP JUMPDEST PUSH1 0x0 PUSH2 0x1709 PUSH2 0x171A JUMP JUMPDEST SWAP1 POP PUSH2 0x1715 DUP3 DUP3 PUSH2 0x1918 JUMP JUMPDEST SWAP2 SWAP1 POP JUMP JUMPDEST PUSH1 0x0 PUSH1 0x40 MLOAD SWAP1 POP SWAP1 JUMP JUMPDEST PUSH1 0x0 PUSH8 0xFFFFFFFFFFFFFFFF DUP3 GT ISZERO PUSH2 0x173F JUMPI PUSH2 0x173E PUSH2 0x1A1F JUMP JUMPDEST JUMPDEST PUSH2 0x1748 DUP3 PUSH2 0x1A62 JUMP JUMPDEST SWAP1 POP PUSH1 0x20 DUP2 ADD SWAP1 POP SWAP2 SWAP1 POP JUMP JUMPDEST PUSH1 0x0 DUP2 SWAP1 POP PUSH1 0x20 DUP3 ADD SWAP1 POP SWAP2 SWAP1 POP JUMP JUMPDEST PUSH1 0x0 DUP2 SWAP1 POP PUSH1 0x20 DUP3 ADD SWAP1 POP SWAP2 SWAP1 POP JUMP JUMPDEST PUSH1 0x0 DUP2 MLOAD SWAP1 POP SWAP2 SWAP1 POP JUMP JUMPDEST PUSH1 0x0 DUP2 MLOAD SWAP1 POP SWAP2 SWAP1 POP JUMP JUMPDEST PUSH1 0x0 DUP2 MLOAD SWAP1 POP SWAP2 SWAP1 POP JUMP JUMPDEST PUSH1 0x0 PUSH1 0x20 DUP3 ADD SWAP1 POP SWAP2 SWAP1 POP JUMP JUMPDEST PUSH1 0x0 PUSH1 0x20 DUP3 ADD SWAP1 POP SWAP2 SWAP1 POP JUMP JUMPDEST PUSH1 0x0 DUP3 DUP3 MSTORE PUSH1 0x20 DUP3 ADD SWAP1 POP SWAP3 SWAP2 POP POP JUMP JUMPDEST PUSH1 0x0 DUP3 DUP3 MSTORE PUSH1 0x20 DUP3 ADD SWAP1 POP SWAP3 SWAP2 POP POP JUMP JUMPDEST PUSH1 0x0 DUP3 DUP3 MSTORE PUSH1 0x20 DUP3 ADD SWAP1 POP SWAP3 SWAP2 POP POP JUMP JUMPDEST PUSH1 0x0 DUP3 DUP3 MSTORE PUSH1 0x20 DUP3 ADD SWAP1 POP SWAP3 SWAP2 POP POP JUMP JUMPDEST PUSH1 0x0 PUSH2 0x17FF DUP3 PUSH2 0x189A JUMP JUMPDEST SWAP2 POP PUSH2 0x180A DUP4 PUSH2 0x189A JUMP JUMPDEST SWAP3 POP DUP3 PUSH32 0xFFFFFFFFFFFFFFFFFFFFFFFFFFFFFFFFFFFFFFFFFFFFFFFFFFFFFFFFFFFFFFFF SUB DUP3 GT ISZERO PUSH2 0x183F JUMPI PUSH2 0x183E PUSH2 0x1992 JUMP JUMPDEST JUMPDEST DUP3 DUP3 ADD SWAP1 POP SWAP3 SWAP2 POP POP JUMP JUMPDEST PUSH1 0x0 PUSH2 0x1855 DUP3 PUSH2 0x187A JUMP JUMPDEST SWAP1 POP SWAP2 SWAP1 POP JUMP JUMPDEST PUSH1 0x0 PUSH2 0x1867 DUP3 PUSH2 0x187A JUMP JUMPDEST SWAP1 POP SWAP2 SWAP1 POP JUMP JUMPDEST PUSH1 0x0 DUP2 ISZERO ISZERO SWAP1 POP SWAP2 SWAP1 POP JUMP JUMPDEST PUSH1 0x0 PUSH20 0xFFFFFFFFFFFFFFFFFFFFFFFFFFFFFFFFFFFFFFFF DUP3 AND SWAP1 POP SWAP2 SWAP1 POP JUMP JUMPDEST PUSH1 0x0 DUP2 SWAP1 POP SWAP2 SWAP1 POP JUMP JUMPDEST DUP3 DUP2 DUP4 CALLDATACOPY PUSH1 0x0 DUP4 DUP4 ADD MSTORE POP POP POP JUMP JUMPDEST PUSH1 0x0 JUMPDEST DUP4 DUP2 LT ISZERO PUSH2 0x18D1 JUMPI DUP1 DUP3 ADD MLOAD DUP2 DUP5 ADD MSTORE PUSH1 0x20 DUP2 ADD SWAP1 POP PUSH2 0x18B6 JUMP JUMPDEST DUP4 DUP2 GT ISZERO PUSH2 0x18E0 JUMPI PUSH1 0x0 DUP5 DUP5 ADD MSTORE JUMPDEST POP POP POP POP JUMP JUMPDEST PUSH1 0x0 PUSH1 0x2 DUP3 DIV SWAP1 POP PUSH1 0x1 DUP3 AND DUP1 PUSH2 0x18FE JUMPI PUSH1 0x7F DUP3 AND SWAP2 POP JUMPDEST PUSH1 0x20 DUP3 LT DUP2 EQ ISZERO PUSH2 0x1912 JUMPI PUSH2 0x1911 PUSH2 0x19C1 JUMP JUMPDEST JUMPDEST POP SWAP2 SWAP1 POP JUMP JUMPDEST PUSH2 0x1921 DUP3 PUSH2 0x1A62 JUMP JUMPDEST DUP2 ADD DUP2 DUP2 LT PUSH8 0xFFFFFFFFFFFFFFFF DUP3 GT OR ISZERO PUSH2 0x1940 JUMPI PUSH2 0x193F PUSH2 0x1A1F JUMP JUMPDEST JUMPDEST DUP1 PUSH1 0x40 MSTORE POP POP POP JUMP JUMPDEST PUSH1 0x0 PUSH2 0x1954 DUP3 PUSH2 0x189A JUMP JUMPDEST SWAP2 POP PUSH32 0xFFFFFFFFFFFFFFFFFFFFFFFFFFFFFFFFFFFFFFFFFFFFFFFFFFFFFFFFFFFFFFFF DUP3 EQ ISZERO PUSH2 0x1987 JUMPI PUSH2 0x1986 PUSH2 0x1992 JUMP JUMPDEST JUMPDEST PUSH1 0x1 DUP3 ADD SWAP1 POP SWAP2 SWAP1 POP JUMP JUMPDEST PUSH32 0x4E487B7100000000000000000000000000000000000000000000000000000000 PUSH1 0x0 MSTORE PUSH1 0x11 PUSH1 0x4 MSTORE PUSH1 0x24 PUSH1 0x0 REVERT JUMPDEST PUSH32 0x4E487B7100000000000000000000000000000000000000000000000000000000 PUSH1 0x0 MSTORE PUSH1 0x22 PUSH1 0x4 MSTORE PUSH1 0x24 PUSH1 0x0 REVERT JUMPDEST PUSH32 0x4E487B7100000000000000000000000000000000000000000000000000000000 PUSH1 0x0 MSTORE PUSH1 0x32 PUSH1 0x4 MSTORE PUSH1 0x24 PUSH1 0x0 REVERT JUMPDEST PUSH32 0x4E487B7100000000000000000000000000000000000000000000000000000000 PUSH1 0x0 MSTORE PUSH1 0x41 PUSH1 0x4 MSTORE PUSH1 0x24 PUSH1 0x0 REVERT JUMPDEST PUSH1 0x0 DUP1 REVERT JUMPDEST PUSH1 0x0 DUP1 REVERT JUMPDEST PUSH1 0x0 DUP1 REVERT JUMPDEST PUSH1 0x0 DUP1 REVERT JUMPDEST PUSH1 0x0 PUSH1 0x1F NOT PUSH1 0x1F DUP4 ADD AND SWAP1 POP SWAP2 SWAP1 POP JUMP JUMPDEST PUSH32 0x456E6420646174652D74696D652073686F756C64206265206772656174657220 PUSH1 0x0 DUP3 ADD MSTORE PUSH32 0x7468616E20737461727420646174652D74696D652E0000000000000000000000 PUSH1 0x20 DUP3 ADD MSTORE POP JUMP JUMPDEST PUSH32 0x537461727420646174652D74696D652073686F756C6420626520677265617465 PUSH1 0x0 DUP3 ADD MSTORE PUSH32 0x72207468616E2063757272656E7420646174652D74696D652E00000000000000 PUSH1 0x20 DUP3 ADD MSTORE POP JUMP JUMPDEST PUSH32 0x46756E6420686173206E6F742073746172746564207965742E00000000000000 PUSH1 0x0 DUP3 ADD MSTORE POP JUMP JUMPDEST PUSH32 0x46756E64206973206163746976652C2063616E6E6F74207472616E7366657220 PUSH1 0x0 DUP3 ADD MSTORE PUSH32 0x616D6F756E74206E6F772E000000000000000000000000000000000000000000 PUSH1 0x20 DUP3 ADD MSTORE POP JUMP JUMPDEST PUSH32 0x46756E6420697320636C6F7365642E0000000000000000000000000000000000 PUSH1 0x0 DUP3 ADD MSTORE POP JUMP JUMPDEST PUSH32 0x4F6E6C79206D616E6167657220697320616C6C6F77656420746F20616C6C6F77 PUSH1 0x0 DUP3 ADD MSTORE PUSH32 0x656420746F2063616C6C20746869732066756E6374696F6E2E00000000000000 PUSH1 0x20 DUP3 ADD MSTORE POP JUMP JUMPDEST PUSH2 0x1C0A DUP2 PUSH2 0x185C JUMP JUMPDEST DUP2 EQ PUSH2 0x1C15 JUMPI PUSH1 0x0 DUP1 REVERT JUMPDEST POP JUMP JUMPDEST PUSH2 0x1C21 DUP2 PUSH2 0x189A JUMP JUMPDEST DUP2 EQ PUSH2 0x1C2C JUMPI PUSH1 0x0 DUP1 REVERT JUMPDEST POP JUMP INVALID LOG2 PUSH5 0x6970667358 0x22 SLT KECCAK256 0xED SWAP4 SSTORE PUSH25 0xBF2E708C90587C08AA24D3867FC494A2EFF1ADCCBFBEFC0F4 0xDF SWAP3 0x23 PUSH5 0x736F6C6343 STOP ADDMOD SMOD STOP CALLER "
				},
				"gasEstimates": {
					"creation": {
						"codeDepositCost": "1453800",
						"executionCost": "25786",
						"totalCost": "1479586"
					},
					"external": {
						"createFund(string,string,uint256,uint256,uint256,address)": "infinite",
						"createInvestment(uint256,uint256)": "infinite",
						"getAllFunds()": "infinite",
						"getAllInvestmentsForFund(uint256)": "infinite",
						"getBalance()": "2510",
						"getFundById(uint256)": "infinite",
						"makePayment(uint256)": "infinite",
						"manager()": "2533"
					}
				},
				"methodIdentifiers": {
					"createFund(string,string,uint256,uint256,uint256,address)": "526ed285",
					"createInvestment(uint256,uint256)": "135a34a2",
					"getAllFunds()": "1c69b464",
					"getAllInvestmentsForFund(uint256)": "26ef2adf",
					"getBalance()": "12065fe0",
					"getFundById(uint256)": "149e685a",
					"makePayment(uint256)": "5114cb52",
					"manager()": "481c6a75"
				}
			},
			"storageLayout": {
				"storage": [
					{
						"astId": 33,
						"contract": "contracts/4_CrowdFunding.sol:CrowdFunding",
						"label": "manager",
						"offset": 0,
						"slot": "0",
						"type": "t_address"
					},
					{
						"astId": 38,
						"contract": "contracts/4_CrowdFunding.sol:CrowdFunding",
						"label": "funds",
						"offset": 0,
						"slot": "1",
						"type": "t_mapping(t_uint256,t_struct(Fund)20_storage)"
					},
					{
						"astId": 42,
						"contract": "contracts/4_CrowdFunding.sol:CrowdFunding",
						"label": "investments",
						"offset": 0,
						"slot": "2",
						"type": "t_array(t_struct(Investment)31_storage)dyn_storage"
					},
					{
						"astId": 44,
						"contract": "contracts/4_CrowdFunding.sol:CrowdFunding",
						"label": "fundCount",
						"offset": 0,
						"slot": "3",
						"type": "t_uint256"
					},
					{
						"astId": 46,
						"contract": "contracts/4_CrowdFunding.sol:CrowdFunding",
						"label": "investmentCount",
						"offset": 0,
						"slot": "4",
						"type": "t_uint256"
					}
				],
				"types": {
					"t_address": {
						"encoding": "inplace",
						"label": "address",
						"numberOfBytes": "20"
					},
					"t_address_payable": {
						"encoding": "inplace",
						"label": "address payable",
						"numberOfBytes": "20"
					},
					"t_array(t_struct(Investment)31_storage)dyn_storage": {
						"base": "t_struct(Investment)31_storage",
						"encoding": "dynamic_array",
						"label": "struct CrowdFunding.Investment[]",
						"numberOfBytes": "32"
					},
					"t_bool": {
						"encoding": "inplace",
						"label": "bool",
						"numberOfBytes": "1"
					},
					"t_mapping(t_uint256,t_struct(Fund)20_storage)": {
						"encoding": "mapping",
						"key": "t_uint256",
						"label": "mapping(uint256 => struct CrowdFunding.Fund)",
						"numberOfBytes": "32",
						"value": "t_struct(Fund)20_storage"
					},
					"t_string_storage": {
						"encoding": "bytes",
						"label": "string",
						"numberOfBytes": "32"
					},
					"t_struct(Fund)20_storage": {
						"encoding": "inplace",
						"label": "struct CrowdFunding.Fund",
						"members": [
							{
								"astId": 3,
								"contract": "contracts/4_CrowdFunding.sol:CrowdFunding",
								"label": "id",
								"offset": 0,
								"slot": "0",
								"type": "t_uint256"
							},
							{
								"astId": 5,
								"contract": "contracts/4_CrowdFunding.sol:CrowdFunding",
								"label": "name",
								"offset": 0,
								"slot": "1",
								"type": "t_string_storage"
							},
							{
								"astId": 7,
								"contract": "contracts/4_CrowdFunding.sol:CrowdFunding",
								"label": "description",
								"offset": 0,
								"slot": "2",
								"type": "t_string_storage"
							},
							{
								"astId": 9,
								"contract": "contracts/4_CrowdFunding.sol:CrowdFunding",
								"label": "startDate",
								"offset": 0,
								"slot": "3",
								"type": "t_uint256"
							},
							{
								"astId": 11,
								"contract": "contracts/4_CrowdFunding.sol:CrowdFunding",
								"label": "endDate",
								"offset": 0,
								"slot": "4",
								"type": "t_uint256"
							},
							{
								"astId": 13,
								"contract": "contracts/4_CrowdFunding.sol:CrowdFunding",
								"label": "goalAmount",
								"offset": 0,
								"slot": "5",
								"type": "t_uint256"
							},
							{
								"astId": 15,
								"contract": "contracts/4_CrowdFunding.sol:CrowdFunding",
								"label": "currentAmount",
								"offset": 0,
								"slot": "6",
								"type": "t_uint256"
							},
							{
								"astId": 17,
								"contract": "contracts/4_CrowdFunding.sol:CrowdFunding",
								"label": "isActive",
								"offset": 0,
								"slot": "7",
								"type": "t_bool"
							},
							{
								"astId": 19,
								"contract": "contracts/4_CrowdFunding.sol:CrowdFunding",
								"label": "receiverAddress",
								"offset": 1,
								"slot": "7",
								"type": "t_address_payable"
							}
						],
						"numberOfBytes": "256"
					},
					"t_struct(Investment)31_storage": {
						"encoding": "inplace",
						"label": "struct CrowdFunding.Investment",
						"members": [
							{
								"astId": 22,
								"contract": "contracts/4_CrowdFunding.sol:CrowdFunding",
								"label": "id",
								"offset": 0,
								"slot": "0",
								"type": "t_uint256"
							},
							{
								"astId": 24,
								"contract": "contracts/4_CrowdFunding.sol:CrowdFunding",
								"label": "fundId",
								"offset": 0,
								"slot": "1",
								"type": "t_uint256"
							},
							{
								"astId": 26,
								"contract": "contracts/4_CrowdFunding.sol:CrowdFunding",
								"label": "investorAddress",
								"offset": 0,
								"slot": "2",
								"type": "t_address"
							},
							{
								"astId": 28,
								"contract": "contracts/4_CrowdFunding.sol:CrowdFunding",
								"label": "investorAmount",
								"offset": 0,
								"slot": "3",
								"type": "t_uint256"
							},
							{
								"astId": 30,
								"contract": "contracts/4_CrowdFunding.sol:CrowdFunding",
								"label": "investmentDate",
								"offset": 0,
								"slot": "4",
								"type": "t_uint256"
							}
						],
						"numberOfBytes": "160"
					},
					"t_uint256": {
						"encoding": "inplace",
						"label": "uint256",
						"numberOfBytes": "32"
					}
				}
			},
			"userdoc": {
				"kind": "user",
				"methods": {},
				"version": 1
			}
		}
	}
}