{
	"contracts/4_CrowdFunding.sol": {
		"CrowdFunding": {
			"abi": [
				{
					"inputs": [],
					"stateMutability": "nonpayable",
					"type": "constructor"
				},
				{
					"inputs": [
						{
							"internalType": "string",
							"name": "name",
							"type": "string"
						},
						{
							"internalType": "string",
							"name": "description",
							"type": "string"
						},
						{
							"internalType": "uint256",
							"name": "startDate",
							"type": "uint256"
						},
						{
							"internalType": "uint256",
							"name": "endDate",
							"type": "uint256"
						},
						{
							"internalType": "uint256",
							"name": "goalAmount",
							"type": "uint256"
						},
						{
							"internalType": "address payable",
							"name": "receiverAddress",
							"type": "address"
						}
					],
					"name": "createFund",
					"outputs": [],
					"stateMutability": "nonpayable",
					"type": "function"
				},
				{
					"inputs": [
						{
							"internalType": "uint256",
							"name": "fundId",
							"type": "uint256"
						},
						{
							"internalType": "uint256",
							"name": "amount",
							"type": "uint256"
						}
					],
					"name": "createInvestment",
					"outputs": [],
					"stateMutability": "nonpayable",
					"type": "function"
				},
				{
					"inputs": [],
					"name": "getAllFunds",
					"outputs": [
						{
							"components": [
								{
									"internalType": "uint256",
									"name": "id",
									"type": "uint256"
								},
								{
									"internalType": "string",
									"name": "name",
									"type": "string"
								},
								{
									"internalType": "string",
									"name": "description",
									"type": "string"
								},
								{
									"internalType": "uint256",
									"name": "startDate",
									"type": "uint256"
								},
								{
									"internalType": "uint256",
									"name": "endDate",
									"type": "uint256"
								},
								{
									"internalType": "uint256",
									"name": "goalAmount",
									"type": "uint256"
								},
								{
									"internalType": "uint256",
									"name": "currentAmount",
									"type": "uint256"
								},
								{
									"internalType": "address payable",
									"name": "receiverAddress",
									"type": "address"
								}
							],
							"internalType": "struct CrowdFunding.Fund[]",
							"name": "",
							"type": "tuple[]"
						}
					],
					"stateMutability": "view",
					"type": "function"
				},
				{
					"inputs": [
						{
							"internalType": "uint256",
							"name": "fundId",
							"type": "uint256"
						}
					],
					"name": "getAllInvestmentsForFund",
					"outputs": [
						{
							"components": [
								{
									"internalType": "uint256",
									"name": "id",
									"type": "uint256"
								},
								{
									"internalType": "uint256",
									"name": "fundId",
									"type": "uint256"
								},
								{
									"internalType": "address",
									"name": "investorAddress",
									"type": "address"
								},
								{
									"internalType": "uint256",
									"name": "investorAmount",
									"type": "uint256"
								},
								{
									"internalType": "uint256",
									"name": "investmentDate",
									"type": "uint256"
								}
							],
							"internalType": "struct CrowdFunding.Investment[]",
							"name": "",
							"type": "tuple[]"
						}
					],
					"stateMutability": "view",
					"type": "function"
				},
				{
					"inputs": [
						{
							"internalType": "uint256",
							"name": "fundId",
							"type": "uint256"
						}
					],
					"name": "getFundById",
					"outputs": [
						{
							"components": [
								{
									"internalType": "uint256",
									"name": "id",
									"type": "uint256"
								},
								{
									"internalType": "string",
									"name": "name",
									"type": "string"
								},
								{
									"internalType": "string",
									"name": "description",
									"type": "string"
								},
								{
									"internalType": "uint256",
									"name": "startDate",
									"type": "uint256"
								},
								{
									"internalType": "uint256",
									"name": "endDate",
									"type": "uint256"
								},
								{
									"internalType": "uint256",
									"name": "goalAmount",
									"type": "uint256"
								},
								{
									"internalType": "uint256",
									"name": "currentAmount",
									"type": "uint256"
								},
								{
									"internalType": "address payable",
									"name": "receiverAddress",
									"type": "address"
								}
							],
							"internalType": "struct CrowdFunding.Fund",
							"name": "",
							"type": "tuple"
						}
					],
					"stateMutability": "view",
					"type": "function"
				},
				{
					"inputs": [
						{
							"internalType": "uint256",
							"name": "fundId",
							"type": "uint256"
						}
					],
					"name": "makePayment",
					"outputs": [],
					"stateMutability": "nonpayable",
					"type": "function"
				},
				{
					"inputs": [],
					"name": "manager",
					"outputs": [
						{
							"internalType": "address",
							"name": "",
							"type": "address"
						}
					],
					"stateMutability": "view",
					"type": "function"
				}
			],
			"devdoc": {
				"kind": "dev",
				"methods": {},
				"version": 1
			},
			"evm": {
				"assembly": "    /* \"contracts/4_CrowdFunding.sol\":69:3473  contract CrowdFunding {\r... */\n  mstore(0x40, 0x80)\n    /* \"contracts/4_CrowdFunding.sol\":686:739  constructor() {\r... */\n  callvalue\n  dup1\n  iszero\n  tag_1\n  jumpi\n  0x00\n  dup1\n  revert\ntag_1:\n  pop\n    /* \"contracts/4_CrowdFunding.sol\":721:731  msg.sender */\n  caller\n    /* \"contracts/4_CrowdFunding.sol\":711:718  manager */\n  0x00\n  dup1\n    /* \"contracts/4_CrowdFunding.sol\":711:731  manager = msg.sender */\n  0x0100\n  exp\n  dup2\n  sload\n  dup2\n  0xffffffffffffffffffffffffffffffffffffffff\n  mul\n  not\n  and\n  swap1\n  dup4\n  0xffffffffffffffffffffffffffffffffffffffff\n  and\n  mul\n  or\n  swap1\n  sstore\n  pop\n    /* \"contracts/4_CrowdFunding.sol\":69:3473  contract CrowdFunding {\r... */\n  dataSize(sub_0)\n  dup1\n  dataOffset(sub_0)\n  0x00\n  codecopy\n  0x00\n  return\nstop\n\nsub_0: assembly {\n        /* \"contracts/4_CrowdFunding.sol\":69:3473  contract CrowdFunding {\r... */\n      mstore(0x40, 0x80)\n      callvalue\n      dup1\n      iszero\n      tag_1\n      jumpi\n      0x00\n      dup1\n      revert\n    tag_1:\n      pop\n      jumpi(tag_2, lt(calldatasize, 0x04))\n      shr(0xe0, calldataload(0x00))\n      dup1\n      0x26ef2adf\n      gt\n      tag_10\n      jumpi\n      dup1\n      0x26ef2adf\n      eq\n      tag_6\n      jumpi\n      dup1\n      0x481c6a75\n      eq\n      tag_7\n      jumpi\n      dup1\n      0x5114cb52\n      eq\n      tag_8\n      jumpi\n      dup1\n      0x526ed285\n      eq\n      tag_9\n      jumpi\n      jump(tag_2)\n    tag_10:\n      dup1\n      0x135a34a2\n      eq\n      tag_3\n      jumpi\n      dup1\n      0x149e685a\n      eq\n      tag_4\n      jumpi\n      dup1\n      0x1c69b464\n      eq\n      tag_5\n      jumpi\n    tag_2:\n      0x00\n      dup1\n      revert\n        /* \"contracts/4_CrowdFunding.sol\":2233:2706  function createInvestment(uint256 fundId, uint256 amount) public {\r... */\n    tag_3:\n      tag_11\n      0x04\n      dup1\n      calldatasize\n      sub\n      dup2\n      add\n      swap1\n      tag_12\n      swap2\n      swap1\n      tag_13\n      jump\t// in\n    tag_12:\n      tag_14\n      jump\t// in\n    tag_11:\n      stop\n        /* \"contracts/4_CrowdFunding.sol\":2115:2225  function getFundById(uint256 fundId) public view returns (Fund memory) {\r... */\n    tag_4:\n      tag_15\n      0x04\n      dup1\n      calldatasize\n      sub\n      dup2\n      add\n      swap1\n      tag_16\n      swap2\n      swap1\n      tag_17\n      jump\t// in\n    tag_16:\n      tag_18\n      jump\t// in\n    tag_15:\n      mload(0x40)\n      tag_19\n      swap2\n      swap1\n      tag_20\n      jump\t// in\n    tag_19:\n      mload(0x40)\n      dup1\n      swap2\n      sub\n      swap1\n      return\n        /* \"contracts/4_CrowdFunding.sol\":1854:2107  function getAllFunds() public view returns (Fund[] memory) {\r... */\n    tag_5:\n      tag_21\n      tag_22\n      jump\t// in\n    tag_21:\n      mload(0x40)\n      tag_23\n      swap2\n      swap1\n      tag_24\n      jump\t// in\n    tag_23:\n      mload(0x40)\n      dup1\n      swap2\n      sub\n      swap1\n      return\n        /* \"contracts/4_CrowdFunding.sol\":2714:3209  function getAllInvestmentsForFund(uint256 fundId)\r... */\n    tag_6:\n      tag_25\n      0x04\n      dup1\n      calldatasize\n      sub\n      dup2\n      add\n      swap1\n      tag_26\n      swap2\n      swap1\n      tag_17\n      jump\t// in\n    tag_26:\n      tag_27\n      jump\t// in\n    tag_25:\n      mload(0x40)\n      tag_28\n      swap2\n      swap1\n      tag_29\n      jump\t// in\n    tag_28:\n      mload(0x40)\n      dup1\n      swap2\n      sub\n      swap1\n      return\n        /* \"contracts/4_CrowdFunding.sol\":98:120  address public manager */\n    tag_7:\n      tag_30\n      tag_31\n      jump\t// in\n    tag_30:\n      mload(0x40)\n      tag_32\n      swap2\n      swap1\n      tag_33\n      jump\t// in\n    tag_32:\n      mload(0x40)\n      dup1\n      swap2\n      sub\n      swap1\n      return\n        /* \"contracts/4_CrowdFunding.sol\":3217:3470  function makePayment(uint fundId) public onlyManager {\r... */\n    tag_8:\n      tag_34\n      0x04\n      dup1\n      calldatasize\n      sub\n      dup2\n      add\n      swap1\n      tag_35\n      swap2\n      swap1\n      tag_17\n      jump\t// in\n    tag_35:\n      tag_36\n      jump\t// in\n    tag_34:\n      stop\n        /* \"contracts/4_CrowdFunding.sol\":937:1846  function createFund(\r... */\n    tag_9:\n      tag_37\n      0x04\n      dup1\n      calldatasize\n      sub\n      dup2\n      add\n      swap1\n      tag_38\n      swap2\n      swap1\n      tag_39\n      jump\t// in\n    tag_38:\n      tag_40\n      jump\t// in\n    tag_37:\n      stop\n        /* \"contracts/4_CrowdFunding.sol\":2233:2706  function createInvestment(uint256 fundId, uint256 amount) public {\r... */\n    tag_14:\n        /* \"contracts/4_CrowdFunding.sol\":2309:2326  Fund storage fund */\n      0x00\n        /* \"contracts/4_CrowdFunding.sol\":2329:2334  funds */\n      0x01\n        /* \"contracts/4_CrowdFunding.sol\":2329:2342  funds[fundId] */\n      0x00\n        /* \"contracts/4_CrowdFunding.sol\":2335:2341  fundId */\n      dup5\n        /* \"contracts/4_CrowdFunding.sol\":2329:2342  funds[fundId] */\n      dup2\n      mstore\n      0x20\n      add\n      swap1\n      dup2\n      mstore\n      0x20\n      add\n      0x00\n      keccak256\n        /* \"contracts/4_CrowdFunding.sol\":2309:2342  Fund storage fund = funds[fundId] */\n      swap1\n      pop\n        /* \"contracts/4_CrowdFunding.sol\":2378:2393  block.timestamp */\n      timestamp\n        /* \"contracts/4_CrowdFunding.sol\":2361:2365  fund */\n      dup2\n        /* \"contracts/4_CrowdFunding.sol\":2361:2375  fund.startDate */\n      0x03\n      add\n      sload\n        /* \"contracts/4_CrowdFunding.sol\":2361:2393  fund.startDate < block.timestamp */\n      lt\n        /* \"contracts/4_CrowdFunding.sol\":2353:2404  require(fund.startDate < block.timestamp, \"Fund .\") */\n      tag_42\n      jumpi\n      mload(0x40)\n      0x08c379a000000000000000000000000000000000000000000000000000000000\n      dup2\n      mstore\n      0x04\n      add\n      tag_43\n      swap1\n      tag_44\n      jump\t// in\n    tag_43:\n      mload(0x40)\n      dup1\n      swap2\n      sub\n      swap1\n      revert\n    tag_42:\n        /* \"contracts/4_CrowdFunding.sol\":2417:2428  investments */\n      0x02\n        /* \"contracts/4_CrowdFunding.sol\":2448:2620  Investment(\r... */\n      mload(0x40)\n      dup1\n      0xa0\n      add\n      0x40\n      mstore\n      dup1\n        /* \"contracts/4_CrowdFunding.sol\":2477:2492  investmentCount */\n      sload(0x04)\n        /* \"contracts/4_CrowdFunding.sol\":2448:2620  Investment(\r... */\n      dup2\n      mstore\n      0x20\n      add\n        /* \"contracts/4_CrowdFunding.sol\":2511:2517  fundId */\n      dup6\n        /* \"contracts/4_CrowdFunding.sol\":2448:2620  Investment(\r... */\n      dup2\n      mstore\n      0x20\n      add\n        /* \"contracts/4_CrowdFunding.sol\":2536:2546  msg.sender */\n      caller\n        /* \"contracts/4_CrowdFunding.sol\":2448:2620  Investment(\r... */\n      0xffffffffffffffffffffffffffffffffffffffff\n      and\n      dup2\n      mstore\n      0x20\n      add\n        /* \"contracts/4_CrowdFunding.sol\":2565:2571  amount */\n      dup5\n        /* \"contracts/4_CrowdFunding.sol\":2448:2620  Investment(\r... */\n      dup2\n      mstore\n      0x20\n      add\n        /* \"contracts/4_CrowdFunding.sol\":2590:2605  block.timestamp */\n      timestamp\n        /* \"contracts/4_CrowdFunding.sol\":2448:2620  Investment(\r... */\n      dup2\n      mstore\n      pop\n        /* \"contracts/4_CrowdFunding.sol\":2417:2631  investments.push(\r... */\n      swap1\n      dup1\n      0x01\n      dup2\n      sload\n      add\n      dup1\n      dup3\n      sstore\n      dup1\n      swap2\n      pop\n      pop\n      0x01\n      swap1\n      sub\n      swap1\n      0x00\n      mstore\n      keccak256(0x00, 0x20)\n      swap1\n      0x05\n      mul\n      add\n      0x00\n      swap1\n      swap2\n      swap1\n      swap2\n      swap1\n      swap2\n      pop\n      0x00\n      dup3\n      add\n      mload\n      dup2\n      0x00\n      add\n      sstore\n      0x20\n      dup3\n      add\n      mload\n      dup2\n      0x01\n      add\n      sstore\n      0x40\n      dup3\n      add\n      mload\n      dup2\n      0x02\n      add\n      exp(0x0100, 0x00)\n      dup2\n      sload\n      dup2\n      0xffffffffffffffffffffffffffffffffffffffff\n      mul\n      not\n      and\n      swap1\n      dup4\n      0xffffffffffffffffffffffffffffffffffffffff\n      and\n      mul\n      or\n      swap1\n      sstore\n      pop\n      0x60\n      dup3\n      add\n      mload\n      dup2\n      0x03\n      add\n      sstore\n      0x80\n      dup3\n      add\n      mload\n      dup2\n      0x04\n      add\n      sstore\n      pop\n      pop\n        /* \"contracts/4_CrowdFunding.sol\":2642:2657  investmentCount */\n      0x04\n      0x00\n        /* \"contracts/4_CrowdFunding.sol\":2642:2659  investmentCount++ */\n      dup2\n      sload\n      dup1\n      swap3\n      swap2\n      swap1\n      tag_46\n      swap1\n      tag_47\n      jump\t// in\n    tag_46:\n      swap2\n      swap1\n      pop\n      sstore\n      pop\n        /* \"contracts/4_CrowdFunding.sol\":2692:2698  amount */\n      dup2\n        /* \"contracts/4_CrowdFunding.sol\":2670:2674  fund */\n      dup2\n        /* \"contracts/4_CrowdFunding.sol\":2670:2688  fund.currentAmount */\n      0x06\n      add\n      0x00\n        /* \"contracts/4_CrowdFunding.sol\":2670:2698  fund.currentAmount += amount */\n      dup3\n      dup3\n      sload\n      tag_48\n      swap2\n      swap1\n      tag_49\n      jump\t// in\n    tag_48:\n      swap3\n      pop\n      pop\n      dup2\n      swap1\n      sstore\n      pop\n        /* \"contracts/4_CrowdFunding.sol\":2298:2706  {\r... */\n      pop\n        /* \"contracts/4_CrowdFunding.sol\":2233:2706  function createInvestment(uint256 fundId, uint256 amount) public {\r... */\n      pop\n      pop\n      jump\t// out\n        /* \"contracts/4_CrowdFunding.sol\":2115:2225  function getFundById(uint256 fundId) public view returns (Fund memory) {\r... */\n    tag_18:\n        /* \"contracts/4_CrowdFunding.sol\":2173:2184  Fund memory */\n      tag_50\n      tag_51\n      jump\t// in\n    tag_50:\n        /* \"contracts/4_CrowdFunding.sol\":2204:2209  funds */\n      0x01\n        /* \"contracts/4_CrowdFunding.sol\":2204:2217  funds[fundId] */\n      0x00\n        /* \"contracts/4_CrowdFunding.sol\":2210:2216  fundId */\n      dup4\n        /* \"contracts/4_CrowdFunding.sol\":2204:2217  funds[fundId] */\n      dup2\n      mstore\n      0x20\n      add\n      swap1\n      dup2\n      mstore\n      0x20\n      add\n      0x00\n      keccak256\n        /* \"contracts/4_CrowdFunding.sol\":2197:2217  return funds[fundId] */\n      mload(0x40)\n      dup1\n      0x0100\n      add\n      0x40\n      mstore\n      swap1\n      dup2\n      0x00\n      dup3\n      add\n      sload\n      dup2\n      mstore\n      0x20\n      add\n      0x01\n      dup3\n      add\n      dup1\n      sload\n      tag_53\n      swap1\n      tag_54\n      jump\t// in\n    tag_53:\n      dup1\n      0x1f\n      add\n      0x20\n      dup1\n      swap2\n      div\n      mul\n      0x20\n      add\n      mload(0x40)\n      swap1\n      dup2\n      add\n      0x40\n      mstore\n      dup1\n      swap3\n      swap2\n      swap1\n      dup2\n      dup2\n      mstore\n      0x20\n      add\n      dup3\n      dup1\n      sload\n      tag_55\n      swap1\n      tag_54\n      jump\t// in\n    tag_55:\n      dup1\n      iszero\n      tag_56\n      jumpi\n      dup1\n      0x1f\n      lt\n      tag_57\n      jumpi\n      0x0100\n      dup1\n      dup4\n      sload\n      div\n      mul\n      dup4\n      mstore\n      swap2\n      0x20\n      add\n      swap2\n      jump(tag_56)\n    tag_57:\n      dup3\n      add\n      swap2\n      swap1\n      0x00\n      mstore\n      keccak256(0x00, 0x20)\n      swap1\n    tag_58:\n      dup2\n      sload\n      dup2\n      mstore\n      swap1\n      0x01\n      add\n      swap1\n      0x20\n      add\n      dup1\n      dup4\n      gt\n      tag_58\n      jumpi\n      dup3\n      swap1\n      sub\n      0x1f\n      and\n      dup3\n      add\n      swap2\n    tag_56:\n      pop\n      pop\n      pop\n      pop\n      pop\n      dup2\n      mstore\n      0x20\n      add\n      0x02\n      dup3\n      add\n      dup1\n      sload\n      tag_59\n      swap1\n      tag_54\n      jump\t// in\n    tag_59:\n      dup1\n      0x1f\n      add\n      0x20\n      dup1\n      swap2\n      div\n      mul\n      0x20\n      add\n      mload(0x40)\n      swap1\n      dup2\n      add\n      0x40\n      mstore\n      dup1\n      swap3\n      swap2\n      swap1\n      dup2\n      dup2\n      mstore\n      0x20\n      add\n      dup3\n      dup1\n      sload\n      tag_60\n      swap1\n      tag_54\n      jump\t// in\n    tag_60:\n      dup1\n      iszero\n      tag_61\n      jumpi\n      dup1\n      0x1f\n      lt\n      tag_62\n      jumpi\n      0x0100\n      dup1\n      dup4\n      sload\n      div\n      mul\n      dup4\n      mstore\n      swap2\n      0x20\n      add\n      swap2\n      jump(tag_61)\n    tag_62:\n      dup3\n      add\n      swap2\n      swap1\n      0x00\n      mstore\n      keccak256(0x00, 0x20)\n      swap1\n    tag_63:\n      dup2\n      sload\n      dup2\n      mstore\n      swap1\n      0x01\n      add\n      swap1\n      0x20\n      add\n      dup1\n      dup4\n      gt\n      tag_63\n      jumpi\n      dup3\n      swap1\n      sub\n      0x1f\n      and\n      dup3\n      add\n      swap2\n    tag_61:\n      pop\n      pop\n      pop\n      pop\n      pop\n      dup2\n      mstore\n      0x20\n      add\n      0x03\n      dup3\n      add\n      sload\n      dup2\n      mstore\n      0x20\n      add\n      0x04\n      dup3\n      add\n      sload\n      dup2\n      mstore\n      0x20\n      add\n      0x05\n      dup3\n      add\n      sload\n      dup2\n      mstore\n      0x20\n      add\n      0x06\n      dup3\n      add\n      sload\n      dup2\n      mstore\n      0x20\n      add\n      0x07\n      dup3\n      add\n      0x00\n      swap1\n      sload\n      swap1\n      0x0100\n      exp\n      swap1\n      div\n      0xffffffffffffffffffffffffffffffffffffffff\n      and\n      0xffffffffffffffffffffffffffffffffffffffff\n      and\n      0xffffffffffffffffffffffffffffffffffffffff\n      and\n      dup2\n      mstore\n      pop\n      pop\n      swap1\n      pop\n        /* \"contracts/4_CrowdFunding.sol\":2115:2225  function getFundById(uint256 fundId) public view returns (Fund memory) {\r... */\n      swap2\n      swap1\n      pop\n      jump\t// out\n        /* \"contracts/4_CrowdFunding.sol\":1854:2107  function getAllFunds() public view returns (Fund[] memory) {\r... */\n    tag_22:\n        /* \"contracts/4_CrowdFunding.sol\":1898:1911  Fund[] memory */\n      0x60\n        /* \"contracts/4_CrowdFunding.sol\":1924:1946  Fund[] memory fundList */\n      0x00\n        /* \"contracts/4_CrowdFunding.sol\":1960:1969  fundCount */\n      sload(0x03)\n        /* \"contracts/4_CrowdFunding.sol\":1949:1970  new Fund[](fundCount) */\n      0xffffffffffffffff\n      dup2\n      gt\n      iszero\n      tag_65\n      jumpi\n      tag_66\n      tag_67\n      jump\t// in\n    tag_66:\n    tag_65:\n      mload(0x40)\n      swap1\n      dup1\n      dup3\n      mstore\n      dup1\n      0x20\n      mul\n      0x20\n      add\n      dup3\n      add\n      0x40\n      mstore\n      dup1\n      iszero\n      tag_68\n      jumpi\n      dup2\n      0x20\n      add\n    tag_69:\n      tag_70\n      tag_51\n      jump\t// in\n    tag_70:\n      dup2\n      mstore\n      0x20\n      add\n      swap1\n      0x01\n      swap1\n      sub\n      swap1\n      dup2\n      tag_69\n      jumpi\n      swap1\n      pop\n    tag_68:\n      pop\n        /* \"contracts/4_CrowdFunding.sol\":1924:1970  Fund[] memory fundList = new Fund[](fundCount) */\n      swap1\n      pop\n        /* \"contracts/4_CrowdFunding.sol\":1988:1997  uint256 i */\n      0x00\n        /* \"contracts/4_CrowdFunding.sol\":1983:2072  for (uint256 i = 0; i < fundCount; i++) {\r... */\n    tag_71:\n        /* \"contracts/4_CrowdFunding.sol\":2007:2016  fundCount */\n      sload(0x03)\n        /* \"contracts/4_CrowdFunding.sol\":2003:2004  i */\n      dup2\n        /* \"contracts/4_CrowdFunding.sol\":2003:2016  i < fundCount */\n      lt\n        /* \"contracts/4_CrowdFunding.sol\":1983:2072  for (uint256 i = 0; i < fundCount; i++) {\r... */\n      iszero\n      tag_72\n      jumpi\n        /* \"contracts/4_CrowdFunding.sol\":2052:2057  funds */\n      0x01\n        /* \"contracts/4_CrowdFunding.sol\":2052:2060  funds[i] */\n      0x00\n        /* \"contracts/4_CrowdFunding.sol\":2058:2059  i */\n      dup3\n        /* \"contracts/4_CrowdFunding.sol\":2052:2060  funds[i] */\n      dup2\n      mstore\n      0x20\n      add\n      swap1\n      dup2\n      mstore\n      0x20\n      add\n      0x00\n      keccak256\n        /* \"contracts/4_CrowdFunding.sol\":2038:2060  fundList[i] = funds[i] */\n      mload(0x40)\n      dup1\n      0x0100\n      add\n      0x40\n      mstore\n      swap1\n      dup2\n      0x00\n      dup3\n      add\n      sload\n      dup2\n      mstore\n      0x20\n      add\n      0x01\n      dup3\n      add\n      dup1\n      sload\n      tag_74\n      swap1\n      tag_54\n      jump\t// in\n    tag_74:\n      dup1\n      0x1f\n      add\n      0x20\n      dup1\n      swap2\n      div\n      mul\n      0x20\n      add\n      mload(0x40)\n      swap1\n      dup2\n      add\n      0x40\n      mstore\n      dup1\n      swap3\n      swap2\n      swap1\n      dup2\n      dup2\n      mstore\n      0x20\n      add\n      dup3\n      dup1\n      sload\n      tag_75\n      swap1\n      tag_54\n      jump\t// in\n    tag_75:\n      dup1\n      iszero\n      tag_76\n      jumpi\n      dup1\n      0x1f\n      lt\n      tag_77\n      jumpi\n      0x0100\n      dup1\n      dup4\n      sload\n      div\n      mul\n      dup4\n      mstore\n      swap2\n      0x20\n      add\n      swap2\n      jump(tag_76)\n    tag_77:\n      dup3\n      add\n      swap2\n      swap1\n      0x00\n      mstore\n      keccak256(0x00, 0x20)\n      swap1\n    tag_78:\n      dup2\n      sload\n      dup2\n      mstore\n      swap1\n      0x01\n      add\n      swap1\n      0x20\n      add\n      dup1\n      dup4\n      gt\n      tag_78\n      jumpi\n      dup3\n      swap1\n      sub\n      0x1f\n      and\n      dup3\n      add\n      swap2\n    tag_76:\n      pop\n      pop\n      pop\n      pop\n      pop\n      dup2\n      mstore\n      0x20\n      add\n      0x02\n      dup3\n      add\n      dup1\n      sload\n      tag_79\n      swap1\n      tag_54\n      jump\t// in\n    tag_79:\n      dup1\n      0x1f\n      add\n      0x20\n      dup1\n      swap2\n      div\n      mul\n      0x20\n      add\n      mload(0x40)\n      swap1\n      dup2\n      add\n      0x40\n      mstore\n      dup1\n      swap3\n      swap2\n      swap1\n      dup2\n      dup2\n      mstore\n      0x20\n      add\n      dup3\n      dup1\n      sload\n      tag_80\n      swap1\n      tag_54\n      jump\t// in\n    tag_80:\n      dup1\n      iszero\n      tag_81\n      jumpi\n      dup1\n      0x1f\n      lt\n      tag_82\n      jumpi\n      0x0100\n      dup1\n      dup4\n      sload\n      div\n      mul\n      dup4\n      mstore\n      swap2\n      0x20\n      add\n      swap2\n      jump(tag_81)\n    tag_82:\n      dup3\n      add\n      swap2\n      swap1\n      0x00\n      mstore\n      keccak256(0x00, 0x20)\n      swap1\n    tag_83:\n      dup2\n      sload\n      dup2\n      mstore\n      swap1\n      0x01\n      add\n      swap1\n      0x20\n      add\n      dup1\n      dup4\n      gt\n      tag_83\n      jumpi\n      dup3\n      swap1\n      sub\n      0x1f\n      and\n      dup3\n      add\n      swap2\n    tag_81:\n      pop\n      pop\n      pop\n      pop\n      pop\n      dup2\n      mstore\n      0x20\n      add\n      0x03\n      dup3\n      add\n      sload\n      dup2\n      mstore\n      0x20\n      add\n      0x04\n      dup3\n      add\n      sload\n      dup2\n      mstore\n      0x20\n      add\n      0x05\n      dup3\n      add\n      sload\n      dup2\n      mstore\n      0x20\n      add\n      0x06\n      dup3\n      add\n      sload\n      dup2\n      mstore\n      0x20\n      add\n      0x07\n      dup3\n      add\n      0x00\n      swap1\n      sload\n      swap1\n      0x0100\n      exp\n      swap1\n      div\n      0xffffffffffffffffffffffffffffffffffffffff\n      and\n      0xffffffffffffffffffffffffffffffffffffffff\n      and\n      0xffffffffffffffffffffffffffffffffffffffff\n      and\n      dup2\n      mstore\n      pop\n      pop\n        /* \"contracts/4_CrowdFunding.sol\":2038:2046  fundList */\n      dup3\n        /* \"contracts/4_CrowdFunding.sol\":2047:2048  i */\n      dup3\n        /* \"contracts/4_CrowdFunding.sol\":2038:2049  fundList[i] */\n      dup2\n      mload\n      dup2\n      lt\n      tag_84\n      jumpi\n      tag_85\n      tag_86\n      jump\t// in\n    tag_85:\n    tag_84:\n      0x20\n      mul\n      0x20\n      add\n      add\n        /* \"contracts/4_CrowdFunding.sol\":2038:2060  fundList[i] = funds[i] */\n      dup2\n      swap1\n      mstore\n      pop\n        /* \"contracts/4_CrowdFunding.sol\":2018:2021  i++ */\n      dup1\n      dup1\n      tag_87\n      swap1\n      tag_47\n      jump\t// in\n    tag_87:\n      swap2\n      pop\n      pop\n        /* \"contracts/4_CrowdFunding.sol\":1983:2072  for (uint256 i = 0; i < fundCount; i++) {\r... */\n      jump(tag_71)\n    tag_72:\n      pop\n        /* \"contracts/4_CrowdFunding.sol\":2091:2099  fundList */\n      dup1\n        /* \"contracts/4_CrowdFunding.sol\":2084:2099  return fundList */\n      swap2\n      pop\n      pop\n        /* \"contracts/4_CrowdFunding.sol\":1854:2107  function getAllFunds() public view returns (Fund[] memory) {\r... */\n      swap1\n      jump\t// out\n        /* \"contracts/4_CrowdFunding.sol\":2714:3209  function getAllInvestmentsForFund(uint256 fundId)\r... */\n    tag_27:\n        /* \"contracts/4_CrowdFunding.sol\":2812:2831  Investment[] memory */\n      0x60\n        /* \"contracts/4_CrowdFunding.sol\":2849:2883  Investment[] memory investmentList */\n      0x00\n        /* \"contracts/4_CrowdFunding.sol\":2903:2918  investmentCount */\n      sload(0x04)\n        /* \"contracts/4_CrowdFunding.sol\":2886:2919  new Investment[](investmentCount) */\n      0xffffffffffffffff\n      dup2\n      gt\n      iszero\n      tag_89\n      jumpi\n      tag_90\n      tag_67\n      jump\t// in\n    tag_90:\n    tag_89:\n      mload(0x40)\n      swap1\n      dup1\n      dup3\n      mstore\n      dup1\n      0x20\n      mul\n      0x20\n      add\n      dup3\n      add\n      0x40\n      mstore\n      dup1\n      iszero\n      tag_91\n      jumpi\n      dup2\n      0x20\n      add\n    tag_92:\n      tag_93\n      tag_94\n      jump\t// in\n    tag_93:\n      dup2\n      mstore\n      0x20\n      add\n      swap1\n      0x01\n      swap1\n      sub\n      swap1\n      dup2\n      tag_92\n      jumpi\n      swap1\n      pop\n    tag_91:\n      pop\n        /* \"contracts/4_CrowdFunding.sol\":2849:2919  Investment[] memory investmentList = new Investment[](investmentCount) */\n      swap1\n      pop\n        /* \"contracts/4_CrowdFunding.sol\":2930:2943  uint256 count */\n      0x00\n        /* \"contracts/4_CrowdFunding.sol\":2965:2974  uint256 i */\n      dup1\n        /* \"contracts/4_CrowdFunding.sol\":2960:3168  for (uint256 i = 0; i < investmentCount; i++) {\r... */\n    tag_95:\n        /* \"contracts/4_CrowdFunding.sol\":2984:2999  investmentCount */\n      sload(0x04)\n        /* \"contracts/4_CrowdFunding.sol\":2980:2981  i */\n      dup2\n        /* \"contracts/4_CrowdFunding.sol\":2980:2999  i < investmentCount */\n      lt\n        /* \"contracts/4_CrowdFunding.sol\":2960:3168  for (uint256 i = 0; i < investmentCount; i++) {\r... */\n      iszero\n      tag_96\n      jumpi\n        /* \"contracts/4_CrowdFunding.sol\":3050:3056  fundId */\n      dup5\n        /* \"contracts/4_CrowdFunding.sol\":3025:3036  investments */\n      0x02\n        /* \"contracts/4_CrowdFunding.sol\":3037:3038  i */\n      dup3\n        /* \"contracts/4_CrowdFunding.sol\":3025:3039  investments[i] */\n      dup2\n      sload\n      dup2\n      lt\n      tag_98\n      jumpi\n      tag_99\n      tag_86\n      jump\t// in\n    tag_99:\n    tag_98:\n      swap1\n      0x00\n      mstore\n      keccak256(0x00, 0x20)\n      swap1\n      0x05\n      mul\n      add\n        /* \"contracts/4_CrowdFunding.sol\":3025:3046  investments[i].fundId */\n      0x01\n      add\n      sload\n        /* \"contracts/4_CrowdFunding.sol\":3025:3056  investments[i].fundId == fundId */\n      eq\n        /* \"contracts/4_CrowdFunding.sol\":3021:3157  if (investments[i].fundId == fundId) {\r... */\n      iszero\n      tag_101\n      jumpi\n        /* \"contracts/4_CrowdFunding.sol\":3101:3112  investments */\n      0x02\n        /* \"contracts/4_CrowdFunding.sol\":3113:3114  i */\n      dup2\n        /* \"contracts/4_CrowdFunding.sol\":3101:3115  investments[i] */\n      dup2\n      sload\n      dup2\n      lt\n      tag_102\n      jumpi\n      tag_103\n      tag_86\n      jump\t// in\n    tag_103:\n    tag_102:\n      swap1\n      0x00\n      mstore\n      keccak256(0x00, 0x20)\n      swap1\n      0x05\n      mul\n      add\n        /* \"contracts/4_CrowdFunding.sol\":3077:3115  investmentList[count] = investments[i] */\n      mload(0x40)\n      dup1\n      0xa0\n      add\n      0x40\n      mstore\n      swap1\n      dup2\n      0x00\n      dup3\n      add\n      sload\n      dup2\n      mstore\n      0x20\n      add\n      0x01\n      dup3\n      add\n      sload\n      dup2\n      mstore\n      0x20\n      add\n      0x02\n      dup3\n      add\n      0x00\n      swap1\n      sload\n      swap1\n      0x0100\n      exp\n      swap1\n      div\n      0xffffffffffffffffffffffffffffffffffffffff\n      and\n      0xffffffffffffffffffffffffffffffffffffffff\n      and\n      0xffffffffffffffffffffffffffffffffffffffff\n      and\n      dup2\n      mstore\n      0x20\n      add\n      0x03\n      dup3\n      add\n      sload\n      dup2\n      mstore\n      0x20\n      add\n      0x04\n      dup3\n      add\n      sload\n      dup2\n      mstore\n      pop\n      pop\n        /* \"contracts/4_CrowdFunding.sol\":3077:3091  investmentList */\n      dup4\n        /* \"contracts/4_CrowdFunding.sol\":3092:3097  count */\n      dup4\n        /* \"contracts/4_CrowdFunding.sol\":3077:3098  investmentList[count] */\n      dup2\n      mload\n      dup2\n      lt\n      tag_105\n      jumpi\n      tag_106\n      tag_86\n      jump\t// in\n    tag_106:\n    tag_105:\n      0x20\n      mul\n      0x20\n      add\n      add\n        /* \"contracts/4_CrowdFunding.sol\":3077:3115  investmentList[count] = investments[i] */\n      dup2\n      swap1\n      mstore\n      pop\n        /* \"contracts/4_CrowdFunding.sol\":3134:3141  count++ */\n      dup2\n      dup1\n      tag_107\n      swap1\n      tag_47\n      jump\t// in\n    tag_107:\n      swap3\n      pop\n      pop\n        /* \"contracts/4_CrowdFunding.sol\":3021:3157  if (investments[i].fundId == fundId) {\r... */\n    tag_101:\n        /* \"contracts/4_CrowdFunding.sol\":3001:3004  i++ */\n      dup1\n      dup1\n      tag_108\n      swap1\n      tag_47\n      jump\t// in\n    tag_108:\n      swap2\n      pop\n      pop\n        /* \"contracts/4_CrowdFunding.sol\":2960:3168  for (uint256 i = 0; i < investmentCount; i++) {\r... */\n      jump(tag_95)\n    tag_96:\n      pop\n        /* \"contracts/4_CrowdFunding.sol\":3187:3201  investmentList */\n      dup2\n        /* \"contracts/4_CrowdFunding.sol\":3180:3201  return investmentList */\n      swap3\n      pop\n      pop\n      pop\n        /* \"contracts/4_CrowdFunding.sol\":2714:3209  function getAllInvestmentsForFund(uint256 fundId)\r... */\n      swap2\n      swap1\n      pop\n      jump\t// out\n        /* \"contracts/4_CrowdFunding.sol\":98:120  address public manager */\n    tag_31:\n      0x00\n      dup1\n      sload\n      swap1\n      0x0100\n      exp\n      swap1\n      div\n      0xffffffffffffffffffffffffffffffffffffffff\n      and\n      dup2\n      jump\t// out\n        /* \"contracts/4_CrowdFunding.sol\":3217:3470  function makePayment(uint fundId) public onlyManager {\r... */\n    tag_36:\n        /* \"contracts/4_CrowdFunding.sol\":814:824  msg.sender */\n      caller\n        /* \"contracts/4_CrowdFunding.sol\":803:824  manager == msg.sender */\n      0xffffffffffffffffffffffffffffffffffffffff\n      and\n        /* \"contracts/4_CrowdFunding.sol\":803:810  manager */\n      0x00\n      dup1\n      sload\n      swap1\n      0x0100\n      exp\n      swap1\n      div\n      0xffffffffffffffffffffffffffffffffffffffff\n      and\n        /* \"contracts/4_CrowdFunding.sol\":803:824  manager == msg.sender */\n      0xffffffffffffffffffffffffffffffffffffffff\n      and\n      eq\n        /* \"contracts/4_CrowdFunding.sol\":781:909  require(\r... */\n      tag_110\n      jumpi\n      mload(0x40)\n      0x08c379a000000000000000000000000000000000000000000000000000000000\n      dup2\n      mstore\n      0x04\n      add\n      tag_111\n      swap1\n      tag_112\n      jump\t// in\n    tag_111:\n      mload(0x40)\n      dup1\n      swap2\n      sub\n      swap1\n      revert\n    tag_110:\n        /* \"contracts/4_CrowdFunding.sol\":3281:3298  Fund storage fund */\n      0x00\n        /* \"contracts/4_CrowdFunding.sol\":3301:3306  funds */\n      0x01\n        /* \"contracts/4_CrowdFunding.sol\":3301:3314  funds[fundId] */\n      0x00\n        /* \"contracts/4_CrowdFunding.sol\":3307:3313  fundId */\n      dup4\n        /* \"contracts/4_CrowdFunding.sol\":3301:3314  funds[fundId] */\n      dup2\n      mstore\n      0x20\n      add\n      swap1\n      dup2\n      mstore\n      0x20\n      add\n      0x00\n      keccak256\n        /* \"contracts/4_CrowdFunding.sol\":3281:3314  Fund storage fund = funds[fundId] */\n      swap1\n      pop\n        /* \"contracts/4_CrowdFunding.sol\":3348:3363  block.timestamp */\n      timestamp\n        /* \"contracts/4_CrowdFunding.sol\":3333:3337  fund */\n      dup2\n        /* \"contracts/4_CrowdFunding.sol\":3333:3345  fund.endDate */\n      0x04\n      add\n      sload\n        /* \"contracts/4_CrowdFunding.sol\":3333:3363  fund.endDate < block.timestamp */\n      lt\n        /* \"contracts/4_CrowdFunding.sol\":3325:3402  require(fund.endDate < block.timestamp, \"Fund end-date has not reached yet.\") */\n      tag_114\n      jumpi\n      mload(0x40)\n      0x08c379a000000000000000000000000000000000000000000000000000000000\n      dup2\n      mstore\n      0x04\n      add\n      tag_115\n      swap1\n      tag_116\n      jump\t// in\n    tag_115:\n      mload(0x40)\n      dup1\n      swap2\n      sub\n      swap1\n      revert\n    tag_114:\n        /* \"contracts/4_CrowdFunding.sol\":3413:3417  fund */\n      dup1\n        /* \"contracts/4_CrowdFunding.sol\":3413:3433  fund.receiverAddress */\n      0x07\n      add\n      0x00\n      swap1\n      sload\n      swap1\n      0x0100\n      exp\n      swap1\n      div\n      0xffffffffffffffffffffffffffffffffffffffff\n      and\n        /* \"contracts/4_CrowdFunding.sol\":3413:3442  fund.receiverAddress.transfer */\n      0xffffffffffffffffffffffffffffffffffffffff\n      and\n        /* \"contracts/4_CrowdFunding.sol\":3413:3462  fund.receiverAddress.transfer(fund.currentAmount) */\n      0x08fc\n        /* \"contracts/4_CrowdFunding.sol\":3443:3447  fund */\n      dup3\n        /* \"contracts/4_CrowdFunding.sol\":3443:3461  fund.currentAmount */\n      0x06\n      add\n      sload\n        /* \"contracts/4_CrowdFunding.sol\":3413:3462  fund.receiverAddress.transfer(fund.currentAmount) */\n      swap1\n      dup2\n      iszero\n      mul\n      swap1\n      mload(0x40)\n      0x00\n      mload(0x40)\n      dup1\n      dup4\n      sub\n      dup2\n      dup6\n      dup9\n      dup9\n      call\n      swap4\n      pop\n      pop\n      pop\n      pop\n      iszero\n      dup1\n      iszero\n      tag_118\n      jumpi\n      returndatasize\n      0x00\n      dup1\n      returndatacopy\n      revert(0x00, returndatasize)\n    tag_118:\n      pop\n        /* \"contracts/4_CrowdFunding.sol\":3270:3470  {\r... */\n      pop\n        /* \"contracts/4_CrowdFunding.sol\":3217:3470  function makePayment(uint fundId) public onlyManager {\r... */\n      pop\n      jump\t// out\n        /* \"contracts/4_CrowdFunding.sol\":937:1846  function createFund(\r... */\n    tag_40:\n        /* \"contracts/4_CrowdFunding.sol\":814:824  msg.sender */\n      caller\n        /* \"contracts/4_CrowdFunding.sol\":803:824  manager == msg.sender */\n      0xffffffffffffffffffffffffffffffffffffffff\n      and\n        /* \"contracts/4_CrowdFunding.sol\":803:810  manager */\n      0x00\n      dup1\n      sload\n      swap1\n      0x0100\n      exp\n      swap1\n      div\n      0xffffffffffffffffffffffffffffffffffffffff\n      and\n        /* \"contracts/4_CrowdFunding.sol\":803:824  manager == msg.sender */\n      0xffffffffffffffffffffffffffffffffffffffff\n      and\n      eq\n        /* \"contracts/4_CrowdFunding.sol\":781:909  require(\r... */\n      tag_120\n      jumpi\n      mload(0x40)\n      0x08c379a000000000000000000000000000000000000000000000000000000000\n      dup2\n      mstore\n      0x04\n      add\n      tag_121\n      swap1\n      tag_112\n      jump\t// in\n    tag_121:\n      mload(0x40)\n      dup1\n      swap2\n      sub\n      swap1\n      revert\n    tag_120:\n        /* \"contracts/4_CrowdFunding.sol\":1218:1233  block.timestamp */\n      timestamp\n        /* \"contracts/4_CrowdFunding.sol\":1206:1215  startDate */\n      dup5\n        /* \"contracts/4_CrowdFunding.sol\":1206:1233  startDate > block.timestamp */\n      gt\n        /* \"contracts/4_CrowdFunding.sol\":1184:1318  require(\r... */\n      tag_123\n      jumpi\n      mload(0x40)\n      0x08c379a000000000000000000000000000000000000000000000000000000000\n      dup2\n      mstore\n      0x04\n      add\n      tag_124\n      swap1\n      tag_125\n      jump\t// in\n    tag_124:\n      mload(0x40)\n      dup1\n      swap2\n      sub\n      swap1\n      revert\n    tag_123:\n        /* \"contracts/4_CrowdFunding.sol\":1361:1370  startDate */\n      dup4\n        /* \"contracts/4_CrowdFunding.sol\":1351:1358  endDate */\n      dup4\n        /* \"contracts/4_CrowdFunding.sol\":1351:1370  endDate > startDate */\n      gt\n        /* \"contracts/4_CrowdFunding.sol\":1329:1451  require(\r... */\n      tag_126\n      jumpi\n      mload(0x40)\n      0x08c379a000000000000000000000000000000000000000000000000000000000\n      dup2\n      mstore\n      0x04\n      add\n      tag_127\n      swap1\n      tag_128\n      jump\t// in\n    tag_127:\n      mload(0x40)\n      dup1\n      swap2\n      sub\n      swap1\n      revert\n    tag_126:\n        /* \"contracts/4_CrowdFunding.sol\":1464:1484  Fund storage newFund */\n      0x00\n        /* \"contracts/4_CrowdFunding.sol\":1487:1492  funds */\n      0x01\n        /* \"contracts/4_CrowdFunding.sol\":1487:1503  funds[fundCount] */\n      0x00\n        /* \"contracts/4_CrowdFunding.sol\":1493:1502  fundCount */\n      sload(0x03)\n        /* \"contracts/4_CrowdFunding.sol\":1487:1503  funds[fundCount] */\n      dup2\n      mstore\n      0x20\n      add\n      swap1\n      dup2\n      mstore\n      0x20\n      add\n      0x00\n      keccak256\n        /* \"contracts/4_CrowdFunding.sol\":1464:1503  Fund storage newFund = funds[fundCount] */\n      swap1\n      pop\n        /* \"contracts/4_CrowdFunding.sol\":1527:1536  fundCount */\n      sload(0x03)\n        /* \"contracts/4_CrowdFunding.sol\":1514:1521  newFund */\n      dup2\n        /* \"contracts/4_CrowdFunding.sol\":1514:1524  newFund.id */\n      0x00\n      add\n        /* \"contracts/4_CrowdFunding.sol\":1514:1536  newFund.id = fundCount */\n      dup2\n      swap1\n      sstore\n      pop\n        /* \"contracts/4_CrowdFunding.sol\":1562:1566  name */\n      dup7\n        /* \"contracts/4_CrowdFunding.sol\":1547:1554  newFund */\n      dup2\n        /* \"contracts/4_CrowdFunding.sol\":1547:1559  newFund.name */\n      0x01\n      add\n        /* \"contracts/4_CrowdFunding.sol\":1547:1566  newFund.name = name */\n      swap1\n      dup1\n      mload\n      swap1\n      0x20\n      add\n      swap1\n      tag_129\n      swap3\n      swap2\n      swap1\n      tag_130\n      jump\t// in\n    tag_129:\n      pop\n        /* \"contracts/4_CrowdFunding.sol\":1599:1610  description */\n      dup6\n        /* \"contracts/4_CrowdFunding.sol\":1577:1584  newFund */\n      dup2\n        /* \"contracts/4_CrowdFunding.sol\":1577:1596  newFund.description */\n      0x02\n      add\n        /* \"contracts/4_CrowdFunding.sol\":1577:1610  newFund.description = description */\n      swap1\n      dup1\n      mload\n      swap1\n      0x20\n      add\n      swap1\n      tag_131\n      swap3\n      swap2\n      swap1\n      tag_130\n      jump\t// in\n    tag_131:\n      pop\n        /* \"contracts/4_CrowdFunding.sol\":1641:1650  startDate */\n      dup5\n        /* \"contracts/4_CrowdFunding.sol\":1621:1628  newFund */\n      dup2\n        /* \"contracts/4_CrowdFunding.sol\":1621:1638  newFund.startDate */\n      0x03\n      add\n        /* \"contracts/4_CrowdFunding.sol\":1621:1650  newFund.startDate = startDate */\n      dup2\n      swap1\n      sstore\n      pop\n        /* \"contracts/4_CrowdFunding.sol\":1679:1686  endDate */\n      dup4\n        /* \"contracts/4_CrowdFunding.sol\":1661:1668  newFund */\n      dup2\n        /* \"contracts/4_CrowdFunding.sol\":1661:1676  newFund.endDate */\n      0x04\n      add\n        /* \"contracts/4_CrowdFunding.sol\":1661:1686  newFund.endDate = endDate */\n      dup2\n      swap1\n      sstore\n      pop\n        /* \"contracts/4_CrowdFunding.sol\":1718:1728  goalAmount */\n      dup3\n        /* \"contracts/4_CrowdFunding.sol\":1697:1704  newFund */\n      dup2\n        /* \"contracts/4_CrowdFunding.sol\":1697:1715  newFund.goalAmount */\n      0x05\n      add\n        /* \"contracts/4_CrowdFunding.sol\":1697:1728  newFund.goalAmount = goalAmount */\n      dup2\n      swap1\n      sstore\n      pop\n        /* \"contracts/4_CrowdFunding.sol\":1763:1764  0 */\n      0x00\n        /* \"contracts/4_CrowdFunding.sol\":1739:1746  newFund */\n      dup2\n        /* \"contracts/4_CrowdFunding.sol\":1739:1760  newFund.currentAmount */\n      0x06\n      add\n        /* \"contracts/4_CrowdFunding.sol\":1739:1764  newFund.currentAmount = 0 */\n      dup2\n      swap1\n      sstore\n      pop\n        /* \"contracts/4_CrowdFunding.sol\":1801:1816  receiverAddress */\n      dup2\n        /* \"contracts/4_CrowdFunding.sol\":1775:1782  newFund */\n      dup2\n        /* \"contracts/4_CrowdFunding.sol\":1775:1798  newFund.receiverAddress */\n      0x07\n      add\n      0x00\n        /* \"contracts/4_CrowdFunding.sol\":1775:1816  newFund.receiverAddress = receiverAddress */\n      0x0100\n      exp\n      dup2\n      sload\n      dup2\n      0xffffffffffffffffffffffffffffffffffffffff\n      mul\n      not\n      and\n      swap1\n      dup4\n      0xffffffffffffffffffffffffffffffffffffffff\n      and\n      mul\n      or\n      swap1\n      sstore\n      pop\n        /* \"contracts/4_CrowdFunding.sol\":1827:1836  fundCount */\n      0x03\n      0x00\n        /* \"contracts/4_CrowdFunding.sol\":1827:1838  fundCount++ */\n      dup2\n      sload\n      dup1\n      swap3\n      swap2\n      swap1\n      tag_132\n      swap1\n      tag_47\n      jump\t// in\n    tag_132:\n      swap2\n      swap1\n      pop\n      sstore\n      pop\n        /* \"contracts/4_CrowdFunding.sol\":1173:1846  {\r... */\n      pop\n        /* \"contracts/4_CrowdFunding.sol\":937:1846  function createFund(\r... */\n      pop\n      pop\n      pop\n      pop\n      pop\n      pop\n      jump\t// out\n    tag_51:\n      mload(0x40)\n      dup1\n      0x0100\n      add\n      0x40\n      mstore\n      dup1\n      0x00\n      dup2\n      mstore\n      0x20\n      add\n      0x60\n      dup2\n      mstore\n      0x20\n      add\n      0x60\n      dup2\n      mstore\n      0x20\n      add\n      0x00\n      dup2\n      mstore\n      0x20\n      add\n      0x00\n      dup2\n      mstore\n      0x20\n      add\n      0x00\n      dup2\n      mstore\n      0x20\n      add\n      0x00\n      dup2\n      mstore\n      0x20\n      add\n      and(0xffffffffffffffffffffffffffffffffffffffff, 0x00)\n      dup2\n      mstore\n      pop\n      swap1\n      jump\t// out\n    tag_94:\n      mload(0x40)\n      dup1\n      0xa0\n      add\n      0x40\n      mstore\n      dup1\n      0x00\n      dup2\n      mstore\n      0x20\n      add\n      0x00\n      dup2\n      mstore\n      0x20\n      add\n      and(0xffffffffffffffffffffffffffffffffffffffff, 0x00)\n      dup2\n      mstore\n      0x20\n      add\n      0x00\n      dup2\n      mstore\n      0x20\n      add\n      0x00\n      dup2\n      mstore\n      pop\n      swap1\n      jump\t// out\n    tag_130:\n      dup3\n      dup1\n      sload\n      tag_133\n      swap1\n      tag_54\n      jump\t// in\n    tag_133:\n      swap1\n      0x00\n      mstore\n      keccak256(0x00, 0x20)\n      swap1\n      0x1f\n      add\n      0x20\n      swap1\n      div\n      dup2\n      add\n      swap3\n      dup3\n      tag_135\n      jumpi\n      0x00\n      dup6\n      sstore\n      jump(tag_134)\n    tag_135:\n      dup3\n      0x1f\n      lt\n      tag_136\n      jumpi\n      dup1\n      mload\n      not(0xff)\n      and\n      dup4\n      dup1\n      add\n      or\n      dup6\n      sstore\n      jump(tag_134)\n    tag_136:\n      dup3\n      dup1\n      add\n      0x01\n      add\n      dup6\n      sstore\n      dup3\n      iszero\n      tag_134\n      jumpi\n      swap2\n      dup3\n      add\n    tag_137:\n      dup3\n      dup2\n      gt\n      iszero\n      tag_138\n      jumpi\n      dup3\n      mload\n      dup3\n      sstore\n      swap2\n      0x20\n      add\n      swap2\n      swap1\n      0x01\n      add\n      swap1\n      jump(tag_137)\n    tag_138:\n    tag_134:\n      pop\n      swap1\n      pop\n      tag_139\n      swap2\n      swap1\n      tag_140\n      jump\t// in\n    tag_139:\n      pop\n      swap1\n      jump\t// out\n    tag_140:\n    tag_141:\n      dup1\n      dup3\n      gt\n      iszero\n      tag_142\n      jumpi\n      0x00\n      dup2\n      0x00\n      swap1\n      sstore\n      pop\n      0x01\n      add\n      jump(tag_141)\n    tag_142:\n      pop\n      swap1\n      jump\t// out\n        /* \"#utility.yul\":7:419   */\n    tag_144:\n        /* \"#utility.yul\":85:90   */\n      0x00\n        /* \"#utility.yul\":110:176   */\n      tag_146\n        /* \"#utility.yul\":126:175   */\n      tag_147\n        /* \"#utility.yul\":168:174   */\n      dup5\n        /* \"#utility.yul\":126:175   */\n      tag_148\n      jump\t// in\n    tag_147:\n        /* \"#utility.yul\":110:176   */\n      tag_149\n      jump\t// in\n    tag_146:\n        /* \"#utility.yul\":101:176   */\n      swap1\n      pop\n        /* \"#utility.yul\":199:205   */\n      dup3\n        /* \"#utility.yul\":192:197   */\n      dup2\n        /* \"#utility.yul\":185:206   */\n      mstore\n        /* \"#utility.yul\":237:241   */\n      0x20\n        /* \"#utility.yul\":230:235   */\n      dup2\n        /* \"#utility.yul\":226:242   */\n      add\n        /* \"#utility.yul\":275:278   */\n      dup5\n        /* \"#utility.yul\":266:272   */\n      dup5\n        /* \"#utility.yul\":261:264   */\n      dup5\n        /* \"#utility.yul\":257:273   */\n      add\n        /* \"#utility.yul\":254:279   */\n      gt\n        /* \"#utility.yul\":251:363   */\n      iszero\n      tag_150\n      jumpi\n        /* \"#utility.yul\":282:361   */\n      tag_151\n      tag_152\n      jump\t// in\n    tag_151:\n        /* \"#utility.yul\":251:363   */\n    tag_150:\n        /* \"#utility.yul\":372:413   */\n      tag_153\n        /* \"#utility.yul\":406:412   */\n      dup5\n        /* \"#utility.yul\":401:404   */\n      dup3\n        /* \"#utility.yul\":396:399   */\n      dup6\n        /* \"#utility.yul\":372:413   */\n      tag_154\n      jump\t// in\n    tag_153:\n        /* \"#utility.yul\":91:419   */\n      pop\n        /* \"#utility.yul\":7:419   */\n      swap4\n      swap3\n      pop\n      pop\n      pop\n      jump\t// out\n        /* \"#utility.yul\":425:580   */\n    tag_155:\n        /* \"#utility.yul\":479:484   */\n      0x00\n        /* \"#utility.yul\":517:523   */\n      dup2\n        /* \"#utility.yul\":504:524   */\n      calldataload\n        /* \"#utility.yul\":495:524   */\n      swap1\n      pop\n        /* \"#utility.yul\":533:574   */\n      tag_157\n        /* \"#utility.yul\":568:573   */\n      dup2\n        /* \"#utility.yul\":533:574   */\n      tag_158\n      jump\t// in\n    tag_157:\n        /* \"#utility.yul\":425:580   */\n      swap3\n      swap2\n      pop\n      pop\n      jump\t// out\n        /* \"#utility.yul\":600:940   */\n    tag_159:\n        /* \"#utility.yul\":656:661   */\n      0x00\n        /* \"#utility.yul\":705:708   */\n      dup3\n        /* \"#utility.yul\":698:702   */\n      0x1f\n        /* \"#utility.yul\":690:696   */\n      dup4\n        /* \"#utility.yul\":686:703   */\n      add\n        /* \"#utility.yul\":682:709   */\n      slt\n        /* \"#utility.yul\":672:794   */\n      tag_161\n      jumpi\n        /* \"#utility.yul\":713:792   */\n      tag_162\n      tag_163\n      jump\t// in\n    tag_162:\n        /* \"#utility.yul\":672:794   */\n    tag_161:\n        /* \"#utility.yul\":830:836   */\n      dup2\n        /* \"#utility.yul\":817:837   */\n      calldataload\n        /* \"#utility.yul\":855:934   */\n      tag_164\n        /* \"#utility.yul\":930:933   */\n      dup5\n        /* \"#utility.yul\":922:928   */\n      dup3\n        /* \"#utility.yul\":915:919   */\n      0x20\n        /* \"#utility.yul\":907:913   */\n      dup7\n        /* \"#utility.yul\":903:920   */\n      add\n        /* \"#utility.yul\":855:934   */\n      tag_144\n      jump\t// in\n    tag_164:\n        /* \"#utility.yul\":846:934   */\n      swap2\n      pop\n        /* \"#utility.yul\":662:940   */\n      pop\n        /* \"#utility.yul\":600:940   */\n      swap3\n      swap2\n      pop\n      pop\n      jump\t// out\n        /* \"#utility.yul\":946:1085   */\n    tag_165:\n        /* \"#utility.yul\":992:997   */\n      0x00\n        /* \"#utility.yul\":1030:1036   */\n      dup2\n        /* \"#utility.yul\":1017:1037   */\n      calldataload\n        /* \"#utility.yul\":1008:1037   */\n      swap1\n      pop\n        /* \"#utility.yul\":1046:1079   */\n      tag_167\n        /* \"#utility.yul\":1073:1078   */\n      dup2\n        /* \"#utility.yul\":1046:1079   */\n      tag_168\n      jump\t// in\n    tag_167:\n        /* \"#utility.yul\":946:1085   */\n      swap3\n      swap2\n      pop\n      pop\n      jump\t// out\n        /* \"#utility.yul\":1091:2524   */\n    tag_39:\n        /* \"#utility.yul\":1223:1229   */\n      0x00\n        /* \"#utility.yul\":1231:1237   */\n      dup1\n        /* \"#utility.yul\":1239:1245   */\n      0x00\n        /* \"#utility.yul\":1247:1253   */\n      dup1\n        /* \"#utility.yul\":1255:1261   */\n      0x00\n        /* \"#utility.yul\":1263:1269   */\n      dup1\n        /* \"#utility.yul\":1312:1315   */\n      0xc0\n        /* \"#utility.yul\":1300:1309   */\n      dup8\n        /* \"#utility.yul\":1291:1298   */\n      dup10\n        /* \"#utility.yul\":1287:1310   */\n      sub\n        /* \"#utility.yul\":1283:1316   */\n      slt\n        /* \"#utility.yul\":1280:1400   */\n      iszero\n      tag_170\n      jumpi\n        /* \"#utility.yul\":1319:1398   */\n      tag_171\n      tag_172\n      jump\t// in\n    tag_171:\n        /* \"#utility.yul\":1280:1400   */\n    tag_170:\n        /* \"#utility.yul\":1467:1468   */\n      0x00\n        /* \"#utility.yul\":1456:1465   */\n      dup8\n        /* \"#utility.yul\":1452:1469   */\n      add\n        /* \"#utility.yul\":1439:1470   */\n      calldataload\n        /* \"#utility.yul\":1497:1515   */\n      0xffffffffffffffff\n        /* \"#utility.yul\":1489:1495   */\n      dup2\n        /* \"#utility.yul\":1486:1516   */\n      gt\n        /* \"#utility.yul\":1483:1600   */\n      iszero\n      tag_173\n      jumpi\n        /* \"#utility.yul\":1519:1598   */\n      tag_174\n      tag_175\n      jump\t// in\n    tag_174:\n        /* \"#utility.yul\":1483:1600   */\n    tag_173:\n        /* \"#utility.yul\":1624:1687   */\n      tag_176\n        /* \"#utility.yul\":1679:1686   */\n      dup10\n        /* \"#utility.yul\":1670:1676   */\n      dup3\n        /* \"#utility.yul\":1659:1668   */\n      dup11\n        /* \"#utility.yul\":1655:1677   */\n      add\n        /* \"#utility.yul\":1624:1687   */\n      tag_159\n      jump\t// in\n    tag_176:\n        /* \"#utility.yul\":1614:1687   */\n      swap7\n      pop\n        /* \"#utility.yul\":1410:1697   */\n      pop\n        /* \"#utility.yul\":1764:1766   */\n      0x20\n        /* \"#utility.yul\":1753:1762   */\n      dup8\n        /* \"#utility.yul\":1749:1767   */\n      add\n        /* \"#utility.yul\":1736:1768   */\n      calldataload\n        /* \"#utility.yul\":1795:1813   */\n      0xffffffffffffffff\n        /* \"#utility.yul\":1787:1793   */\n      dup2\n        /* \"#utility.yul\":1784:1814   */\n      gt\n        /* \"#utility.yul\":1781:1898   */\n      iszero\n      tag_177\n      jumpi\n        /* \"#utility.yul\":1817:1896   */\n      tag_178\n      tag_175\n      jump\t// in\n    tag_178:\n        /* \"#utility.yul\":1781:1898   */\n    tag_177:\n        /* \"#utility.yul\":1922:1985   */\n      tag_179\n        /* \"#utility.yul\":1977:1984   */\n      dup10\n        /* \"#utility.yul\":1968:1974   */\n      dup3\n        /* \"#utility.yul\":1957:1966   */\n      dup11\n        /* \"#utility.yul\":1953:1975   */\n      add\n        /* \"#utility.yul\":1922:1985   */\n      tag_159\n      jump\t// in\n    tag_179:\n        /* \"#utility.yul\":1912:1985   */\n      swap6\n      pop\n        /* \"#utility.yul\":1707:1995   */\n      pop\n        /* \"#utility.yul\":2034:2036   */\n      0x40\n        /* \"#utility.yul\":2060:2113   */\n      tag_180\n        /* \"#utility.yul\":2105:2112   */\n      dup10\n        /* \"#utility.yul\":2096:2102   */\n      dup3\n        /* \"#utility.yul\":2085:2094   */\n      dup11\n        /* \"#utility.yul\":2081:2103   */\n      add\n        /* \"#utility.yul\":2060:2113   */\n      tag_165\n      jump\t// in\n    tag_180:\n        /* \"#utility.yul\":2050:2113   */\n      swap5\n      pop\n        /* \"#utility.yul\":2005:2123   */\n      pop\n        /* \"#utility.yul\":2162:2164   */\n      0x60\n        /* \"#utility.yul\":2188:2241   */\n      tag_181\n        /* \"#utility.yul\":2233:2240   */\n      dup10\n        /* \"#utility.yul\":2224:2230   */\n      dup3\n        /* \"#utility.yul\":2213:2222   */\n      dup11\n        /* \"#utility.yul\":2209:2231   */\n      add\n        /* \"#utility.yul\":2188:2241   */\n      tag_165\n      jump\t// in\n    tag_181:\n        /* \"#utility.yul\":2178:2241   */\n      swap4\n      pop\n        /* \"#utility.yul\":2133:2251   */\n      pop\n        /* \"#utility.yul\":2290:2293   */\n      0x80\n        /* \"#utility.yul\":2317:2370   */\n      tag_182\n        /* \"#utility.yul\":2362:2369   */\n      dup10\n        /* \"#utility.yul\":2353:2359   */\n      dup3\n        /* \"#utility.yul\":2342:2351   */\n      dup11\n        /* \"#utility.yul\":2338:2360   */\n      add\n        /* \"#utility.yul\":2317:2370   */\n      tag_165\n      jump\t// in\n    tag_182:\n        /* \"#utility.yul\":2307:2370   */\n      swap3\n      pop\n        /* \"#utility.yul\":2261:2380   */\n      pop\n        /* \"#utility.yul\":2419:2422   */\n      0xa0\n        /* \"#utility.yul\":2446:2507   */\n      tag_183\n        /* \"#utility.yul\":2499:2506   */\n      dup10\n        /* \"#utility.yul\":2490:2496   */\n      dup3\n        /* \"#utility.yul\":2479:2488   */\n      dup11\n        /* \"#utility.yul\":2475:2497   */\n      add\n        /* \"#utility.yul\":2446:2507   */\n      tag_155\n      jump\t// in\n    tag_183:\n        /* \"#utility.yul\":2436:2507   */\n      swap2\n      pop\n        /* \"#utility.yul\":2390:2517   */\n      pop\n        /* \"#utility.yul\":1091:2524   */\n      swap3\n      swap6\n      pop\n      swap3\n      swap6\n      pop\n      swap3\n      swap6\n      jump\t// out\n        /* \"#utility.yul\":2530:2859   */\n    tag_17:\n        /* \"#utility.yul\":2589:2595   */\n      0x00\n        /* \"#utility.yul\":2638:2640   */\n      0x20\n        /* \"#utility.yul\":2626:2635   */\n      dup3\n        /* \"#utility.yul\":2617:2624   */\n      dup5\n        /* \"#utility.yul\":2613:2636   */\n      sub\n        /* \"#utility.yul\":2609:2641   */\n      slt\n        /* \"#utility.yul\":2606:2725   */\n      iszero\n      tag_185\n      jumpi\n        /* \"#utility.yul\":2644:2723   */\n      tag_186\n      tag_172\n      jump\t// in\n    tag_186:\n        /* \"#utility.yul\":2606:2725   */\n    tag_185:\n        /* \"#utility.yul\":2764:2765   */\n      0x00\n        /* \"#utility.yul\":2789:2842   */\n      tag_187\n        /* \"#utility.yul\":2834:2841   */\n      dup5\n        /* \"#utility.yul\":2825:2831   */\n      dup3\n        /* \"#utility.yul\":2814:2823   */\n      dup6\n        /* \"#utility.yul\":2810:2832   */\n      add\n        /* \"#utility.yul\":2789:2842   */\n      tag_165\n      jump\t// in\n    tag_187:\n        /* \"#utility.yul\":2779:2842   */\n      swap2\n      pop\n        /* \"#utility.yul\":2735:2852   */\n      pop\n        /* \"#utility.yul\":2530:2859   */\n      swap3\n      swap2\n      pop\n      pop\n      jump\t// out\n        /* \"#utility.yul\":2865:3339   */\n    tag_13:\n        /* \"#utility.yul\":2933:2939   */\n      0x00\n        /* \"#utility.yul\":2941:2947   */\n      dup1\n        /* \"#utility.yul\":2990:2992   */\n      0x40\n        /* \"#utility.yul\":2978:2987   */\n      dup4\n        /* \"#utility.yul\":2969:2976   */\n      dup6\n        /* \"#utility.yul\":2965:2988   */\n      sub\n        /* \"#utility.yul\":2961:2993   */\n      slt\n        /* \"#utility.yul\":2958:3077   */\n      iszero\n      tag_189\n      jumpi\n        /* \"#utility.yul\":2996:3075   */\n      tag_190\n      tag_172\n      jump\t// in\n    tag_190:\n        /* \"#utility.yul\":2958:3077   */\n    tag_189:\n        /* \"#utility.yul\":3116:3117   */\n      0x00\n        /* \"#utility.yul\":3141:3194   */\n      tag_191\n        /* \"#utility.yul\":3186:3193   */\n      dup6\n        /* \"#utility.yul\":3177:3183   */\n      dup3\n        /* \"#utility.yul\":3166:3175   */\n      dup7\n        /* \"#utility.yul\":3162:3184   */\n      add\n        /* \"#utility.yul\":3141:3194   */\n      tag_165\n      jump\t// in\n    tag_191:\n        /* \"#utility.yul\":3131:3194   */\n      swap3\n      pop\n        /* \"#utility.yul\":3087:3204   */\n      pop\n        /* \"#utility.yul\":3243:3245   */\n      0x20\n        /* \"#utility.yul\":3269:3322   */\n      tag_192\n        /* \"#utility.yul\":3314:3321   */\n      dup6\n        /* \"#utility.yul\":3305:3311   */\n      dup3\n        /* \"#utility.yul\":3294:3303   */\n      dup7\n        /* \"#utility.yul\":3290:3312   */\n      add\n        /* \"#utility.yul\":3269:3322   */\n      tag_165\n      jump\t// in\n    tag_192:\n        /* \"#utility.yul\":3259:3322   */\n      swap2\n      pop\n        /* \"#utility.yul\":3214:3332   */\n      pop\n        /* \"#utility.yul\":2865:3339   */\n      swap3\n      pop\n      swap3\n      swap1\n      pop\n      jump\t// out\n        /* \"#utility.yul\":3345:3581   */\n    tag_193:\n        /* \"#utility.yul\":3454:3464   */\n      0x00\n        /* \"#utility.yul\":3489:3575   */\n      tag_195\n        /* \"#utility.yul\":3571:3574   */\n      dup4\n        /* \"#utility.yul\":3563:3569   */\n      dup4\n        /* \"#utility.yul\":3489:3575   */\n      tag_196\n      jump\t// in\n    tag_195:\n        /* \"#utility.yul\":3475:3575   */\n      swap1\n      pop\n        /* \"#utility.yul\":3345:3581   */\n      swap3\n      swap2\n      pop\n      pop\n      jump\t// out\n        /* \"#utility.yul\":3587:3870   */\n    tag_197:\n        /* \"#utility.yul\":3708:3718   */\n      0x00\n        /* \"#utility.yul\":3729:3827   */\n      tag_199\n        /* \"#utility.yul\":3823:3826   */\n      dup4\n        /* \"#utility.yul\":3815:3821   */\n      dup4\n        /* \"#utility.yul\":3729:3827   */\n      tag_200\n      jump\t// in\n    tag_199:\n        /* \"#utility.yul\":3859:3863   */\n      0xa0\n        /* \"#utility.yul\":3854:3857   */\n      dup4\n        /* \"#utility.yul\":3850:3864   */\n      add\n        /* \"#utility.yul\":3836:3864   */\n      swap1\n      pop\n        /* \"#utility.yul\":3587:3870   */\n      swap3\n      swap2\n      pop\n      pop\n      jump\t// out\n        /* \"#utility.yul\":3876:4008   */\n    tag_201:\n        /* \"#utility.yul\":3969:4001   */\n      tag_203\n        /* \"#utility.yul\":3995:4000   */\n      dup2\n        /* \"#utility.yul\":3969:4001   */\n      tag_204\n      jump\t// in\n    tag_203:\n        /* \"#utility.yul\":3964:3967   */\n      dup3\n        /* \"#utility.yul\":3957:4002   */\n      mstore\n        /* \"#utility.yul\":3876:4008   */\n      pop\n      pop\n      jump\t// out\n        /* \"#utility.yul\":4014:4122   */\n    tag_205:\n        /* \"#utility.yul\":4091:4115   */\n      tag_207\n        /* \"#utility.yul\":4109:4114   */\n      dup2\n        /* \"#utility.yul\":4091:4115   */\n      tag_208\n      jump\t// in\n    tag_207:\n        /* \"#utility.yul\":4086:4089   */\n      dup3\n        /* \"#utility.yul\":4079:4116   */\n      mstore\n        /* \"#utility.yul\":4014:4122   */\n      pop\n      pop\n      jump\t// out\n        /* \"#utility.yul\":4128:4246   */\n    tag_209:\n        /* \"#utility.yul\":4215:4239   */\n      tag_211\n        /* \"#utility.yul\":4233:4238   */\n      dup2\n        /* \"#utility.yul\":4215:4239   */\n      tag_208\n      jump\t// in\n    tag_211:\n        /* \"#utility.yul\":4210:4213   */\n      dup3\n        /* \"#utility.yul\":4203:4240   */\n      mstore\n        /* \"#utility.yul\":4128:4246   */\n      pop\n      pop\n      jump\t// out\n        /* \"#utility.yul\":4316:5387   */\n    tag_212:\n        /* \"#utility.yul\":4475:4478   */\n      0x00\n        /* \"#utility.yul\":4504:4578   */\n      tag_214\n        /* \"#utility.yul\":4572:4577   */\n      dup3\n        /* \"#utility.yul\":4504:4578   */\n      tag_215\n      jump\t// in\n    tag_214:\n        /* \"#utility.yul\":4594:4700   */\n      tag_216\n        /* \"#utility.yul\":4693:4699   */\n      dup2\n        /* \"#utility.yul\":4688:4691   */\n      dup6\n        /* \"#utility.yul\":4594:4700   */\n      tag_217\n      jump\t// in\n    tag_216:\n        /* \"#utility.yul\":4587:4700   */\n      swap4\n      pop\n        /* \"#utility.yul\":4726:4729   */\n      dup4\n        /* \"#utility.yul\":4771:4775   */\n      0x20\n        /* \"#utility.yul\":4763:4769   */\n      dup3\n        /* \"#utility.yul\":4759:4776   */\n      mul\n        /* \"#utility.yul\":4754:4757   */\n      dup6\n        /* \"#utility.yul\":4750:4777   */\n      add\n        /* \"#utility.yul\":4801:4877   */\n      tag_218\n        /* \"#utility.yul\":4871:4876   */\n      dup6\n        /* \"#utility.yul\":4801:4877   */\n      tag_219\n      jump\t// in\n    tag_218:\n        /* \"#utility.yul\":4900:4907   */\n      dup1\n        /* \"#utility.yul\":4931:4932   */\n      0x00\n        /* \"#utility.yul\":4916:5342   */\n    tag_220:\n        /* \"#utility.yul\":4941:4947   */\n      dup6\n        /* \"#utility.yul\":4938:4939   */\n      dup2\n        /* \"#utility.yul\":4935:4948   */\n      lt\n        /* \"#utility.yul\":4916:5342   */\n      iszero\n      tag_222\n      jumpi\n        /* \"#utility.yul\":5012:5021   */\n      dup5\n        /* \"#utility.yul\":5006:5010   */\n      dup5\n        /* \"#utility.yul\":5002:5022   */\n      sub\n        /* \"#utility.yul\":4997:5000   */\n      dup10\n        /* \"#utility.yul\":4990:5023   */\n      mstore\n        /* \"#utility.yul\":5063:5069   */\n      dup2\n        /* \"#utility.yul\":5057:5070   */\n      mload\n        /* \"#utility.yul\":5091:5195   */\n      tag_223\n        /* \"#utility.yul\":5190:5194   */\n      dup6\n        /* \"#utility.yul\":5175:5188   */\n      dup3\n        /* \"#utility.yul\":5091:5195   */\n      tag_193\n      jump\t// in\n    tag_223:\n        /* \"#utility.yul\":5083:5195   */\n      swap5\n      pop\n        /* \"#utility.yul\":5218:5298   */\n      tag_224\n        /* \"#utility.yul\":5291:5297   */\n      dup4\n        /* \"#utility.yul\":5218:5298   */\n      tag_225\n      jump\t// in\n    tag_224:\n        /* \"#utility.yul\":5208:5298   */\n      swap3\n      pop\n        /* \"#utility.yul\":5327:5331   */\n      0x20\n        /* \"#utility.yul\":5322:5325   */\n      dup11\n        /* \"#utility.yul\":5318:5332   */\n      add\n        /* \"#utility.yul\":5311:5332   */\n      swap10\n      pop\n        /* \"#utility.yul\":4976:5342   */\n      pop\n        /* \"#utility.yul\":4963:4964   */\n      0x01\n        /* \"#utility.yul\":4960:4961   */\n      dup2\n        /* \"#utility.yul\":4956:4965   */\n      add\n        /* \"#utility.yul\":4951:4965   */\n      swap1\n      pop\n        /* \"#utility.yul\":4916:5342   */\n      jump(tag_220)\n    tag_222:\n        /* \"#utility.yul\":4920:4934   */\n      pop\n        /* \"#utility.yul\":5358:5362   */\n      dup3\n        /* \"#utility.yul\":5351:5362   */\n      swap8\n      pop\n        /* \"#utility.yul\":5378:5381   */\n      dup8\n        /* \"#utility.yul\":5371:5381   */\n      swap6\n      pop\n        /* \"#utility.yul\":4480:5387   */\n      pop\n      pop\n      pop\n      pop\n      pop\n        /* \"#utility.yul\":4316:5387   */\n      swap3\n      swap2\n      pop\n      pop\n      jump\t// out\n        /* \"#utility.yul\":5469:6409   */\n    tag_226:\n        /* \"#utility.yul\":5640:5643   */\n      0x00\n        /* \"#utility.yul\":5669:5749   */\n      tag_228\n        /* \"#utility.yul\":5743:5748   */\n      dup3\n        /* \"#utility.yul\":5669:5749   */\n      tag_229\n      jump\t// in\n    tag_228:\n        /* \"#utility.yul\":5765:5877   */\n      tag_230\n        /* \"#utility.yul\":5870:5876   */\n      dup2\n        /* \"#utility.yul\":5865:5868   */\n      dup6\n        /* \"#utility.yul\":5765:5877   */\n      tag_231\n      jump\t// in\n    tag_230:\n        /* \"#utility.yul\":5758:5877   */\n      swap4\n      pop\n        /* \"#utility.yul\":5901:5983   */\n      tag_232\n        /* \"#utility.yul\":5977:5982   */\n      dup4\n        /* \"#utility.yul\":5901:5983   */\n      tag_233\n      jump\t// in\n    tag_232:\n        /* \"#utility.yul\":6006:6013   */\n      dup1\n        /* \"#utility.yul\":6037:6038   */\n      0x00\n        /* \"#utility.yul\":6022:6384   */\n    tag_234:\n        /* \"#utility.yul\":6047:6053   */\n      dup4\n        /* \"#utility.yul\":6044:6045   */\n      dup2\n        /* \"#utility.yul\":6041:6054   */\n      lt\n        /* \"#utility.yul\":6022:6384   */\n      iszero\n      tag_236\n      jumpi\n        /* \"#utility.yul\":6123:6129   */\n      dup2\n        /* \"#utility.yul\":6117:6130   */\n      mload\n        /* \"#utility.yul\":6150:6265   */\n      tag_237\n        /* \"#utility.yul\":6261:6264   */\n      dup9\n        /* \"#utility.yul\":6246:6259   */\n      dup3\n        /* \"#utility.yul\":6150:6265   */\n      tag_197\n      jump\t// in\n    tag_237:\n        /* \"#utility.yul\":6143:6265   */\n      swap8\n      pop\n        /* \"#utility.yul\":6288:6374   */\n      tag_238\n        /* \"#utility.yul\":6367:6373   */\n      dup4\n        /* \"#utility.yul\":6288:6374   */\n      tag_239\n      jump\t// in\n    tag_238:\n        /* \"#utility.yul\":6278:6374   */\n      swap3\n      pop\n        /* \"#utility.yul\":6082:6384   */\n      pop\n        /* \"#utility.yul\":6069:6070   */\n      0x01\n        /* \"#utility.yul\":6066:6067   */\n      dup2\n        /* \"#utility.yul\":6062:6071   */\n      add\n        /* \"#utility.yul\":6057:6071   */\n      swap1\n      pop\n        /* \"#utility.yul\":6022:6384   */\n      jump(tag_234)\n    tag_236:\n        /* \"#utility.yul\":6026:6040   */\n      pop\n        /* \"#utility.yul\":6400:6403   */\n      dup6\n        /* \"#utility.yul\":6393:6403   */\n      swap4\n      pop\n        /* \"#utility.yul\":5645:6409   */\n      pop\n      pop\n      pop\n        /* \"#utility.yul\":5469:6409   */\n      swap3\n      swap2\n      pop\n      pop\n      jump\t// out\n        /* \"#utility.yul\":6415:6759   */\n    tag_240:\n        /* \"#utility.yul\":6493:6496   */\n      0x00\n        /* \"#utility.yul\":6521:6560   */\n      tag_242\n        /* \"#utility.yul\":6554:6559   */\n      dup3\n        /* \"#utility.yul\":6521:6560   */\n      tag_243\n      jump\t// in\n    tag_242:\n        /* \"#utility.yul\":6576:6637   */\n      tag_244\n        /* \"#utility.yul\":6630:6636   */\n      dup2\n        /* \"#utility.yul\":6625:6628   */\n      dup6\n        /* \"#utility.yul\":6576:6637   */\n      tag_245\n      jump\t// in\n    tag_244:\n        /* \"#utility.yul\":6569:6637   */\n      swap4\n      pop\n        /* \"#utility.yul\":6646:6698   */\n      tag_246\n        /* \"#utility.yul\":6691:6697   */\n      dup2\n        /* \"#utility.yul\":6686:6689   */\n      dup6\n        /* \"#utility.yul\":6679:6683   */\n      0x20\n        /* \"#utility.yul\":6672:6677   */\n      dup7\n        /* \"#utility.yul\":6668:6684   */\n      add\n        /* \"#utility.yul\":6646:6698   */\n      tag_247\n      jump\t// in\n    tag_246:\n        /* \"#utility.yul\":6723:6752   */\n      tag_248\n        /* \"#utility.yul\":6745:6751   */\n      dup2\n        /* \"#utility.yul\":6723:6752   */\n      tag_249\n      jump\t// in\n    tag_248:\n        /* \"#utility.yul\":6718:6721   */\n      dup5\n        /* \"#utility.yul\":6714:6753   */\n      add\n        /* \"#utility.yul\":6707:6753   */\n      swap2\n      pop\n        /* \"#utility.yul\":6497:6759   */\n      pop\n        /* \"#utility.yul\":6415:6759   */\n      swap3\n      swap2\n      pop\n      pop\n      jump\t// out\n        /* \"#utility.yul\":6765:7131   */\n    tag_250:\n        /* \"#utility.yul\":6907:6910   */\n      0x00\n        /* \"#utility.yul\":6928:6995   */\n      tag_252\n        /* \"#utility.yul\":6992:6994   */\n      0x35\n        /* \"#utility.yul\":6987:6990   */\n      dup4\n        /* \"#utility.yul\":6928:6995   */\n      tag_253\n      jump\t// in\n    tag_252:\n        /* \"#utility.yul\":6921:6995   */\n      swap2\n      pop\n        /* \"#utility.yul\":7004:7097   */\n      tag_254\n        /* \"#utility.yul\":7093:7096   */\n      dup3\n        /* \"#utility.yul\":7004:7097   */\n      tag_255\n      jump\t// in\n    tag_254:\n        /* \"#utility.yul\":7122:7124   */\n      0x40\n        /* \"#utility.yul\":7117:7120   */\n      dup3\n        /* \"#utility.yul\":7113:7125   */\n      add\n        /* \"#utility.yul\":7106:7125   */\n      swap1\n      pop\n        /* \"#utility.yul\":6765:7131   */\n      swap2\n      swap1\n      pop\n      jump\t// out\n        /* \"#utility.yul\":7137:7503   */\n    tag_256:\n        /* \"#utility.yul\":7279:7282   */\n      0x00\n        /* \"#utility.yul\":7300:7367   */\n      tag_258\n        /* \"#utility.yul\":7364:7366   */\n      0x39\n        /* \"#utility.yul\":7359:7362   */\n      dup4\n        /* \"#utility.yul\":7300:7367   */\n      tag_253\n      jump\t// in\n    tag_258:\n        /* \"#utility.yul\":7293:7367   */\n      swap2\n      pop\n        /* \"#utility.yul\":7376:7469   */\n      tag_259\n        /* \"#utility.yul\":7465:7468   */\n      dup3\n        /* \"#utility.yul\":7376:7469   */\n      tag_260\n      jump\t// in\n    tag_259:\n        /* \"#utility.yul\":7494:7496   */\n      0x40\n        /* \"#utility.yul\":7489:7492   */\n      dup3\n        /* \"#utility.yul\":7485:7497   */\n      add\n        /* \"#utility.yul\":7478:7497   */\n      swap1\n      pop\n        /* \"#utility.yul\":7137:7503   */\n      swap2\n      swap1\n      pop\n      jump\t// out\n        /* \"#utility.yul\":7509:7874   */\n    tag_261:\n        /* \"#utility.yul\":7651:7654   */\n      0x00\n        /* \"#utility.yul\":7672:7738   */\n      tag_263\n        /* \"#utility.yul\":7736:7737   */\n      0x06\n        /* \"#utility.yul\":7731:7734   */\n      dup4\n        /* \"#utility.yul\":7672:7738   */\n      tag_253\n      jump\t// in\n    tag_263:\n        /* \"#utility.yul\":7665:7738   */\n      swap2\n      pop\n        /* \"#utility.yul\":7747:7840   */\n      tag_264\n        /* \"#utility.yul\":7836:7839   */\n      dup3\n        /* \"#utility.yul\":7747:7840   */\n      tag_265\n      jump\t// in\n    tag_264:\n        /* \"#utility.yul\":7865:7867   */\n      0x20\n        /* \"#utility.yul\":7860:7863   */\n      dup3\n        /* \"#utility.yul\":7856:7868   */\n      add\n        /* \"#utility.yul\":7849:7868   */\n      swap1\n      pop\n        /* \"#utility.yul\":7509:7874   */\n      swap2\n      swap1\n      pop\n      jump\t// out\n        /* \"#utility.yul\":7880:8246   */\n    tag_266:\n        /* \"#utility.yul\":8022:8025   */\n      0x00\n        /* \"#utility.yul\":8043:8110   */\n      tag_268\n        /* \"#utility.yul\":8107:8109   */\n      0x39\n        /* \"#utility.yul\":8102:8105   */\n      dup4\n        /* \"#utility.yul\":8043:8110   */\n      tag_253\n      jump\t// in\n    tag_268:\n        /* \"#utility.yul\":8036:8110   */\n      swap2\n      pop\n        /* \"#utility.yul\":8119:8212   */\n      tag_269\n        /* \"#utility.yul\":8208:8211   */\n      dup3\n        /* \"#utility.yul\":8119:8212   */\n      tag_270\n      jump\t// in\n    tag_269:\n        /* \"#utility.yul\":8237:8239   */\n      0x40\n        /* \"#utility.yul\":8232:8235   */\n      dup3\n        /* \"#utility.yul\":8228:8240   */\n      add\n        /* \"#utility.yul\":8221:8240   */\n      swap1\n      pop\n        /* \"#utility.yul\":7880:8246   */\n      swap2\n      swap1\n      pop\n      jump\t// out\n        /* \"#utility.yul\":8252:8618   */\n    tag_271:\n        /* \"#utility.yul\":8394:8397   */\n      0x00\n        /* \"#utility.yul\":8415:8482   */\n      tag_273\n        /* \"#utility.yul\":8479:8481   */\n      0x22\n        /* \"#utility.yul\":8474:8477   */\n      dup4\n        /* \"#utility.yul\":8415:8482   */\n      tag_253\n      jump\t// in\n    tag_273:\n        /* \"#utility.yul\":8408:8482   */\n      swap2\n      pop\n        /* \"#utility.yul\":8491:8584   */\n      tag_274\n        /* \"#utility.yul\":8580:8583   */\n      dup3\n        /* \"#utility.yul\":8491:8584   */\n      tag_275\n      jump\t// in\n    tag_274:\n        /* \"#utility.yul\":8609:8611   */\n      0x40\n        /* \"#utility.yul\":8604:8607   */\n      dup3\n        /* \"#utility.yul\":8600:8612   */\n      add\n        /* \"#utility.yul\":8593:8612   */\n      swap1\n      pop\n        /* \"#utility.yul\":8252:8618   */\n      swap2\n      swap1\n      pop\n      jump\t// out\n        /* \"#utility.yul\":8684:10442   */\n    tag_196:\n        /* \"#utility.yul\":8783:8786   */\n      0x00\n        /* \"#utility.yul\":8819:8825   */\n      0x0100\n        /* \"#utility.yul\":8814:8817   */\n      dup4\n        /* \"#utility.yul\":8810:8826   */\n      add\n        /* \"#utility.yul\":8906:8910   */\n      0x00\n        /* \"#utility.yul\":8899:8904   */\n      dup4\n        /* \"#utility.yul\":8895:8911   */\n      add\n        /* \"#utility.yul\":8889:8912   */\n      mload\n        /* \"#utility.yul\":8925:8988   */\n      tag_277\n        /* \"#utility.yul\":8982:8986   */\n      0x00\n        /* \"#utility.yul\":8977:8980   */\n      dup7\n        /* \"#utility.yul\":8973:8987   */\n      add\n        /* \"#utility.yul\":8959:8971   */\n      dup3\n        /* \"#utility.yul\":8925:8988   */\n      tag_278\n      jump\t// in\n    tag_277:\n        /* \"#utility.yul\":8836:8998   */\n      pop\n        /* \"#utility.yul\":9080:9084   */\n      0x20\n        /* \"#utility.yul\":9073:9078   */\n      dup4\n        /* \"#utility.yul\":9069:9085   */\n      add\n        /* \"#utility.yul\":9063:9086   */\n      mload\n        /* \"#utility.yul\":9133:9136   */\n      dup5\n        /* \"#utility.yul\":9127:9131   */\n      dup3\n        /* \"#utility.yul\":9123:9137   */\n      sub\n        /* \"#utility.yul\":9116:9120   */\n      0x20\n        /* \"#utility.yul\":9111:9114   */\n      dup7\n        /* \"#utility.yul\":9107:9121   */\n      add\n        /* \"#utility.yul\":9100:9138   */\n      mstore\n        /* \"#utility.yul\":9159:9232   */\n      tag_279\n        /* \"#utility.yul\":9227:9231   */\n      dup3\n        /* \"#utility.yul\":9213:9225   */\n      dup3\n        /* \"#utility.yul\":9159:9232   */\n      tag_240\n      jump\t// in\n    tag_279:\n        /* \"#utility.yul\":9151:9232   */\n      swap2\n      pop\n        /* \"#utility.yul\":9008:9243   */\n      pop\n        /* \"#utility.yul\":9332:9336   */\n      0x40\n        /* \"#utility.yul\":9325:9330   */\n      dup4\n        /* \"#utility.yul\":9321:9337   */\n      add\n        /* \"#utility.yul\":9315:9338   */\n      mload\n        /* \"#utility.yul\":9385:9388   */\n      dup5\n        /* \"#utility.yul\":9379:9383   */\n      dup3\n        /* \"#utility.yul\":9375:9389   */\n      sub\n        /* \"#utility.yul\":9368:9372   */\n      0x40\n        /* \"#utility.yul\":9363:9366   */\n      dup7\n        /* \"#utility.yul\":9359:9373   */\n      add\n        /* \"#utility.yul\":9352:9390   */\n      mstore\n        /* \"#utility.yul\":9411:9484   */\n      tag_280\n        /* \"#utility.yul\":9479:9483   */\n      dup3\n        /* \"#utility.yul\":9465:9477   */\n      dup3\n        /* \"#utility.yul\":9411:9484   */\n      tag_240\n      jump\t// in\n    tag_280:\n        /* \"#utility.yul\":9403:9484   */\n      swap2\n      pop\n        /* \"#utility.yul\":9253:9495   */\n      pop\n        /* \"#utility.yul\":9582:9586   */\n      0x60\n        /* \"#utility.yul\":9575:9580   */\n      dup4\n        /* \"#utility.yul\":9571:9587   */\n      add\n        /* \"#utility.yul\":9565:9588   */\n      mload\n        /* \"#utility.yul\":9601:9664   */\n      tag_281\n        /* \"#utility.yul\":9658:9662   */\n      0x60\n        /* \"#utility.yul\":9653:9656   */\n      dup7\n        /* \"#utility.yul\":9649:9663   */\n      add\n        /* \"#utility.yul\":9635:9647   */\n      dup3\n        /* \"#utility.yul\":9601:9664   */\n      tag_278\n      jump\t// in\n    tag_281:\n        /* \"#utility.yul\":9505:9674   */\n      pop\n        /* \"#utility.yul\":9759:9763   */\n      0x80\n        /* \"#utility.yul\":9752:9757   */\n      dup4\n        /* \"#utility.yul\":9748:9764   */\n      add\n        /* \"#utility.yul\":9742:9765   */\n      mload\n        /* \"#utility.yul\":9778:9841   */\n      tag_282\n        /* \"#utility.yul\":9835:9839   */\n      0x80\n        /* \"#utility.yul\":9830:9833   */\n      dup7\n        /* \"#utility.yul\":9826:9840   */\n      add\n        /* \"#utility.yul\":9812:9824   */\n      dup3\n        /* \"#utility.yul\":9778:9841   */\n      tag_278\n      jump\t// in\n    tag_282:\n        /* \"#utility.yul\":9684:9851   */\n      pop\n        /* \"#utility.yul\":9939:9943   */\n      0xa0\n        /* \"#utility.yul\":9932:9937   */\n      dup4\n        /* \"#utility.yul\":9928:9944   */\n      add\n        /* \"#utility.yul\":9922:9945   */\n      mload\n        /* \"#utility.yul\":9958:10021   */\n      tag_283\n        /* \"#utility.yul\":10015:10019   */\n      0xa0\n        /* \"#utility.yul\":10010:10013   */\n      dup7\n        /* \"#utility.yul\":10006:10020   */\n      add\n        /* \"#utility.yul\":9992:10004   */\n      dup3\n        /* \"#utility.yul\":9958:10021   */\n      tag_278\n      jump\t// in\n    tag_283:\n        /* \"#utility.yul\":9861:10031   */\n      pop\n        /* \"#utility.yul\":10122:10126   */\n      0xc0\n        /* \"#utility.yul\":10115:10120   */\n      dup4\n        /* \"#utility.yul\":10111:10127   */\n      add\n        /* \"#utility.yul\":10105:10128   */\n      mload\n        /* \"#utility.yul\":10141:10204   */\n      tag_284\n        /* \"#utility.yul\":10198:10202   */\n      0xc0\n        /* \"#utility.yul\":10193:10196   */\n      dup7\n        /* \"#utility.yul\":10189:10203   */\n      add\n        /* \"#utility.yul\":10175:10187   */\n      dup3\n        /* \"#utility.yul\":10141:10204   */\n      tag_278\n      jump\t// in\n    tag_284:\n        /* \"#utility.yul\":10041:10214   */\n      pop\n        /* \"#utility.yul\":10307:10311   */\n      0xe0\n        /* \"#utility.yul\":10300:10305   */\n      dup4\n        /* \"#utility.yul\":10296:10312   */\n      add\n        /* \"#utility.yul\":10290:10313   */\n      mload\n        /* \"#utility.yul\":10326:10405   */\n      tag_285\n        /* \"#utility.yul\":10399:10403   */\n      0xe0\n        /* \"#utility.yul\":10394:10397   */\n      dup7\n        /* \"#utility.yul\":10390:10404   */\n      add\n        /* \"#utility.yul\":10376:10388   */\n      dup3\n        /* \"#utility.yul\":10326:10405   */\n      tag_201\n      jump\t// in\n    tag_285:\n        /* \"#utility.yul\":10224:10415   */\n      pop\n        /* \"#utility.yul\":10432:10436   */\n      dup1\n        /* \"#utility.yul\":10425:10436   */\n      swap2\n      pop\n        /* \"#utility.yul\":8788:10442   */\n      pop\n        /* \"#utility.yul\":8684:10442   */\n      swap3\n      swap2\n      pop\n      pop\n      jump\t// out\n        /* \"#utility.yul\":10508:12276   */\n    tag_286:\n        /* \"#utility.yul\":10617:10620   */\n      0x00\n        /* \"#utility.yul\":10653:10659   */\n      0x0100\n        /* \"#utility.yul\":10648:10651   */\n      dup4\n        /* \"#utility.yul\":10644:10660   */\n      add\n        /* \"#utility.yul\":10740:10744   */\n      0x00\n        /* \"#utility.yul\":10733:10738   */\n      dup4\n        /* \"#utility.yul\":10729:10745   */\n      add\n        /* \"#utility.yul\":10723:10746   */\n      mload\n        /* \"#utility.yul\":10759:10822   */\n      tag_288\n        /* \"#utility.yul\":10816:10820   */\n      0x00\n        /* \"#utility.yul\":10811:10814   */\n      dup7\n        /* \"#utility.yul\":10807:10821   */\n      add\n        /* \"#utility.yul\":10793:10805   */\n      dup3\n        /* \"#utility.yul\":10759:10822   */\n      tag_278\n      jump\t// in\n    tag_288:\n        /* \"#utility.yul\":10670:10832   */\n      pop\n        /* \"#utility.yul\":10914:10918   */\n      0x20\n        /* \"#utility.yul\":10907:10912   */\n      dup4\n        /* \"#utility.yul\":10903:10919   */\n      add\n        /* \"#utility.yul\":10897:10920   */\n      mload\n        /* \"#utility.yul\":10967:10970   */\n      dup5\n        /* \"#utility.yul\":10961:10965   */\n      dup3\n        /* \"#utility.yul\":10957:10971   */\n      sub\n        /* \"#utility.yul\":10950:10954   */\n      0x20\n        /* \"#utility.yul\":10945:10948   */\n      dup7\n        /* \"#utility.yul\":10941:10955   */\n      add\n        /* \"#utility.yul\":10934:10972   */\n      mstore\n        /* \"#utility.yul\":10993:11066   */\n      tag_289\n        /* \"#utility.yul\":11061:11065   */\n      dup3\n        /* \"#utility.yul\":11047:11059   */\n      dup3\n        /* \"#utility.yul\":10993:11066   */\n      tag_240\n      jump\t// in\n    tag_289:\n        /* \"#utility.yul\":10985:11066   */\n      swap2\n      pop\n        /* \"#utility.yul\":10842:11077   */\n      pop\n        /* \"#utility.yul\":11166:11170   */\n      0x40\n        /* \"#utility.yul\":11159:11164   */\n      dup4\n        /* \"#utility.yul\":11155:11171   */\n      add\n        /* \"#utility.yul\":11149:11172   */\n      mload\n        /* \"#utility.yul\":11219:11222   */\n      dup5\n        /* \"#utility.yul\":11213:11217   */\n      dup3\n        /* \"#utility.yul\":11209:11223   */\n      sub\n        /* \"#utility.yul\":11202:11206   */\n      0x40\n        /* \"#utility.yul\":11197:11200   */\n      dup7\n        /* \"#utility.yul\":11193:11207   */\n      add\n        /* \"#utility.yul\":11186:11224   */\n      mstore\n        /* \"#utility.yul\":11245:11318   */\n      tag_290\n        /* \"#utility.yul\":11313:11317   */\n      dup3\n        /* \"#utility.yul\":11299:11311   */\n      dup3\n        /* \"#utility.yul\":11245:11318   */\n      tag_240\n      jump\t// in\n    tag_290:\n        /* \"#utility.yul\":11237:11318   */\n      swap2\n      pop\n        /* \"#utility.yul\":11087:11329   */\n      pop\n        /* \"#utility.yul\":11416:11420   */\n      0x60\n        /* \"#utility.yul\":11409:11414   */\n      dup4\n        /* \"#utility.yul\":11405:11421   */\n      add\n        /* \"#utility.yul\":11399:11422   */\n      mload\n        /* \"#utility.yul\":11435:11498   */\n      tag_291\n        /* \"#utility.yul\":11492:11496   */\n      0x60\n        /* \"#utility.yul\":11487:11490   */\n      dup7\n        /* \"#utility.yul\":11483:11497   */\n      add\n        /* \"#utility.yul\":11469:11481   */\n      dup3\n        /* \"#utility.yul\":11435:11498   */\n      tag_278\n      jump\t// in\n    tag_291:\n        /* \"#utility.yul\":11339:11508   */\n      pop\n        /* \"#utility.yul\":11593:11597   */\n      0x80\n        /* \"#utility.yul\":11586:11591   */\n      dup4\n        /* \"#utility.yul\":11582:11598   */\n      add\n        /* \"#utility.yul\":11576:11599   */\n      mload\n        /* \"#utility.yul\":11612:11675   */\n      tag_292\n        /* \"#utility.yul\":11669:11673   */\n      0x80\n        /* \"#utility.yul\":11664:11667   */\n      dup7\n        /* \"#utility.yul\":11660:11674   */\n      add\n        /* \"#utility.yul\":11646:11658   */\n      dup3\n        /* \"#utility.yul\":11612:11675   */\n      tag_278\n      jump\t// in\n    tag_292:\n        /* \"#utility.yul\":11518:11685   */\n      pop\n        /* \"#utility.yul\":11773:11777   */\n      0xa0\n        /* \"#utility.yul\":11766:11771   */\n      dup4\n        /* \"#utility.yul\":11762:11778   */\n      add\n        /* \"#utility.yul\":11756:11779   */\n      mload\n        /* \"#utility.yul\":11792:11855   */\n      tag_293\n        /* \"#utility.yul\":11849:11853   */\n      0xa0\n        /* \"#utility.yul\":11844:11847   */\n      dup7\n        /* \"#utility.yul\":11840:11854   */\n      add\n        /* \"#utility.yul\":11826:11838   */\n      dup3\n        /* \"#utility.yul\":11792:11855   */\n      tag_278\n      jump\t// in\n    tag_293:\n        /* \"#utility.yul\":11695:11865   */\n      pop\n        /* \"#utility.yul\":11956:11960   */\n      0xc0\n        /* \"#utility.yul\":11949:11954   */\n      dup4\n        /* \"#utility.yul\":11945:11961   */\n      add\n        /* \"#utility.yul\":11939:11962   */\n      mload\n        /* \"#utility.yul\":11975:12038   */\n      tag_294\n        /* \"#utility.yul\":12032:12036   */\n      0xc0\n        /* \"#utility.yul\":12027:12030   */\n      dup7\n        /* \"#utility.yul\":12023:12037   */\n      add\n        /* \"#utility.yul\":12009:12021   */\n      dup3\n        /* \"#utility.yul\":11975:12038   */\n      tag_278\n      jump\t// in\n    tag_294:\n        /* \"#utility.yul\":11875:12048   */\n      pop\n        /* \"#utility.yul\":12141:12145   */\n      0xe0\n        /* \"#utility.yul\":12134:12139   */\n      dup4\n        /* \"#utility.yul\":12130:12146   */\n      add\n        /* \"#utility.yul\":12124:12147   */\n      mload\n        /* \"#utility.yul\":12160:12239   */\n      tag_295\n        /* \"#utility.yul\":12233:12237   */\n      0xe0\n        /* \"#utility.yul\":12228:12231   */\n      dup7\n        /* \"#utility.yul\":12224:12238   */\n      add\n        /* \"#utility.yul\":12210:12222   */\n      dup3\n        /* \"#utility.yul\":12160:12239   */\n      tag_201\n      jump\t// in\n    tag_295:\n        /* \"#utility.yul\":12058:12249   */\n      pop\n        /* \"#utility.yul\":12266:12270   */\n      dup1\n        /* \"#utility.yul\":12259:12270   */\n      swap2\n      pop\n        /* \"#utility.yul\":10622:12276   */\n      pop\n        /* \"#utility.yul\":10508:12276   */\n      swap3\n      swap2\n      pop\n      pop\n      jump\t// out\n        /* \"#utility.yul\":12354:13406   */\n    tag_200:\n        /* \"#utility.yul\":12493:12497   */\n      0xa0\n        /* \"#utility.yul\":12488:12491   */\n      dup3\n        /* \"#utility.yul\":12484:12498   */\n      add\n        /* \"#utility.yul\":12578:12582   */\n      0x00\n        /* \"#utility.yul\":12571:12576   */\n      dup3\n        /* \"#utility.yul\":12567:12583   */\n      add\n        /* \"#utility.yul\":12561:12584   */\n      mload\n        /* \"#utility.yul\":12597:12660   */\n      tag_297\n        /* \"#utility.yul\":12654:12658   */\n      0x00\n        /* \"#utility.yul\":12649:12652   */\n      dup6\n        /* \"#utility.yul\":12645:12659   */\n      add\n        /* \"#utility.yul\":12631:12643   */\n      dup3\n        /* \"#utility.yul\":12597:12660   */\n      tag_278\n      jump\t// in\n    tag_297:\n        /* \"#utility.yul\":12508:12670   */\n      pop\n        /* \"#utility.yul\":12754:12758   */\n      0x20\n        /* \"#utility.yul\":12747:12752   */\n      dup3\n        /* \"#utility.yul\":12743:12759   */\n      add\n        /* \"#utility.yul\":12737:12760   */\n      mload\n        /* \"#utility.yul\":12773:12836   */\n      tag_298\n        /* \"#utility.yul\":12830:12834   */\n      0x20\n        /* \"#utility.yul\":12825:12828   */\n      dup6\n        /* \"#utility.yul\":12821:12835   */\n      add\n        /* \"#utility.yul\":12807:12819   */\n      dup3\n        /* \"#utility.yul\":12773:12836   */\n      tag_278\n      jump\t// in\n    tag_298:\n        /* \"#utility.yul\":12680:12846   */\n      pop\n        /* \"#utility.yul\":12939:12943   */\n      0x40\n        /* \"#utility.yul\":12932:12937   */\n      dup3\n        /* \"#utility.yul\":12928:12944   */\n      add\n        /* \"#utility.yul\":12922:12945   */\n      mload\n        /* \"#utility.yul\":12958:13021   */\n      tag_299\n        /* \"#utility.yul\":13015:13019   */\n      0x40\n        /* \"#utility.yul\":13010:13013   */\n      dup6\n        /* \"#utility.yul\":13006:13020   */\n      add\n        /* \"#utility.yul\":12992:13004   */\n      dup3\n        /* \"#utility.yul\":12958:13021   */\n      tag_205\n      jump\t// in\n    tag_299:\n        /* \"#utility.yul\":12856:13031   */\n      pop\n        /* \"#utility.yul\":13123:13127   */\n      0x60\n        /* \"#utility.yul\":13116:13121   */\n      dup3\n        /* \"#utility.yul\":13112:13128   */\n      add\n        /* \"#utility.yul\":13106:13129   */\n      mload\n        /* \"#utility.yul\":13142:13205   */\n      tag_300\n        /* \"#utility.yul\":13199:13203   */\n      0x60\n        /* \"#utility.yul\":13194:13197   */\n      dup6\n        /* \"#utility.yul\":13190:13204   */\n      add\n        /* \"#utility.yul\":13176:13188   */\n      dup3\n        /* \"#utility.yul\":13142:13205   */\n      tag_278\n      jump\t// in\n    tag_300:\n        /* \"#utility.yul\":13041:13215   */\n      pop\n        /* \"#utility.yul\":13307:13311   */\n      0x80\n        /* \"#utility.yul\":13300:13305   */\n      dup3\n        /* \"#utility.yul\":13296:13312   */\n      add\n        /* \"#utility.yul\":13290:13313   */\n      mload\n        /* \"#utility.yul\":13326:13389   */\n      tag_301\n        /* \"#utility.yul\":13383:13387   */\n      0x80\n        /* \"#utility.yul\":13378:13381   */\n      dup6\n        /* \"#utility.yul\":13374:13388   */\n      add\n        /* \"#utility.yul\":13360:13372   */\n      dup3\n        /* \"#utility.yul\":13326:13389   */\n      tag_278\n      jump\t// in\n    tag_301:\n        /* \"#utility.yul\":13225:13399   */\n      pop\n        /* \"#utility.yul\":12462:13406   */\n      pop\n        /* \"#utility.yul\":12354:13406   */\n      pop\n      pop\n      jump\t// out\n        /* \"#utility.yul\":13412:13520   */\n    tag_278:\n        /* \"#utility.yul\":13489:13513   */\n      tag_303\n        /* \"#utility.yul\":13507:13512   */\n      dup2\n        /* \"#utility.yul\":13489:13513   */\n      tag_304\n      jump\t// in\n    tag_303:\n        /* \"#utility.yul\":13484:13487   */\n      dup3\n        /* \"#utility.yul\":13477:13514   */\n      mstore\n        /* \"#utility.yul\":13412:13520   */\n      pop\n      pop\n      jump\t// out\n        /* \"#utility.yul\":13526:13748   */\n    tag_33:\n        /* \"#utility.yul\":13619:13623   */\n      0x00\n        /* \"#utility.yul\":13657:13659   */\n      0x20\n        /* \"#utility.yul\":13646:13655   */\n      dup3\n        /* \"#utility.yul\":13642:13660   */\n      add\n        /* \"#utility.yul\":13634:13660   */\n      swap1\n      pop\n        /* \"#utility.yul\":13670:13741   */\n      tag_306\n        /* \"#utility.yul\":13738:13739   */\n      0x00\n        /* \"#utility.yul\":13727:13736   */\n      dup4\n        /* \"#utility.yul\":13723:13740   */\n      add\n        /* \"#utility.yul\":13714:13720   */\n      dup5\n        /* \"#utility.yul\":13670:13741   */\n      tag_209\n      jump\t// in\n    tag_306:\n        /* \"#utility.yul\":13526:13748   */\n      swap3\n      swap2\n      pop\n      pop\n      jump\t// out\n        /* \"#utility.yul\":13754:14207   */\n    tag_24:\n        /* \"#utility.yul\":13937:13941   */\n      0x00\n        /* \"#utility.yul\":13975:13977   */\n      0x20\n        /* \"#utility.yul\":13964:13973   */\n      dup3\n        /* \"#utility.yul\":13960:13978   */\n      add\n        /* \"#utility.yul\":13952:13978   */\n      swap1\n      pop\n        /* \"#utility.yul\":14024:14033   */\n      dup2\n        /* \"#utility.yul\":14018:14022   */\n      dup2\n        /* \"#utility.yul\":14014:14034   */\n      sub\n        /* \"#utility.yul\":14010:14011   */\n      0x00\n        /* \"#utility.yul\":13999:14008   */\n      dup4\n        /* \"#utility.yul\":13995:14012   */\n      add\n        /* \"#utility.yul\":13988:14035   */\n      mstore\n        /* \"#utility.yul\":14052:14200   */\n      tag_308\n        /* \"#utility.yul\":14195:14199   */\n      dup2\n        /* \"#utility.yul\":14186:14192   */\n      dup5\n        /* \"#utility.yul\":14052:14200   */\n      tag_212\n      jump\t// in\n    tag_308:\n        /* \"#utility.yul\":14044:14200   */\n      swap1\n      pop\n        /* \"#utility.yul\":13754:14207   */\n      swap3\n      swap2\n      pop\n      pop\n      jump\t// out\n        /* \"#utility.yul\":14213:14690   */\n    tag_29:\n        /* \"#utility.yul\":14408:14412   */\n      0x00\n        /* \"#utility.yul\":14446:14448   */\n      0x20\n        /* \"#utility.yul\":14435:14444   */\n      dup3\n        /* \"#utility.yul\":14431:14449   */\n      add\n        /* \"#utility.yul\":14423:14449   */\n      swap1\n      pop\n        /* \"#utility.yul\":14495:14504   */\n      dup2\n        /* \"#utility.yul\":14489:14493   */\n      dup2\n        /* \"#utility.yul\":14485:14505   */\n      sub\n        /* \"#utility.yul\":14481:14482   */\n      0x00\n        /* \"#utility.yul\":14470:14479   */\n      dup4\n        /* \"#utility.yul\":14466:14483   */\n      add\n        /* \"#utility.yul\":14459:14506   */\n      mstore\n        /* \"#utility.yul\":14523:14683   */\n      tag_310\n        /* \"#utility.yul\":14678:14682   */\n      dup2\n        /* \"#utility.yul\":14669:14675   */\n      dup5\n        /* \"#utility.yul\":14523:14683   */\n      tag_226\n      jump\t// in\n    tag_310:\n        /* \"#utility.yul\":14515:14683   */\n      swap1\n      pop\n        /* \"#utility.yul\":14213:14690   */\n      swap3\n      swap2\n      pop\n      pop\n      jump\t// out\n        /* \"#utility.yul\":14696:15115   */\n    tag_128:\n        /* \"#utility.yul\":14862:14866   */\n      0x00\n        /* \"#utility.yul\":14900:14902   */\n      0x20\n        /* \"#utility.yul\":14889:14898   */\n      dup3\n        /* \"#utility.yul\":14885:14903   */\n      add\n        /* \"#utility.yul\":14877:14903   */\n      swap1\n      pop\n        /* \"#utility.yul\":14949:14958   */\n      dup2\n        /* \"#utility.yul\":14943:14947   */\n      dup2\n        /* \"#utility.yul\":14939:14959   */\n      sub\n        /* \"#utility.yul\":14935:14936   */\n      0x00\n        /* \"#utility.yul\":14924:14933   */\n      dup4\n        /* \"#utility.yul\":14920:14937   */\n      add\n        /* \"#utility.yul\":14913:14960   */\n      mstore\n        /* \"#utility.yul\":14977:15108   */\n      tag_312\n        /* \"#utility.yul\":15103:15107   */\n      dup2\n        /* \"#utility.yul\":14977:15108   */\n      tag_250\n      jump\t// in\n    tag_312:\n        /* \"#utility.yul\":14969:15108   */\n      swap1\n      pop\n        /* \"#utility.yul\":14696:15115   */\n      swap2\n      swap1\n      pop\n      jump\t// out\n        /* \"#utility.yul\":15121:15540   */\n    tag_125:\n        /* \"#utility.yul\":15287:15291   */\n      0x00\n        /* \"#utility.yul\":15325:15327   */\n      0x20\n        /* \"#utility.yul\":15314:15323   */\n      dup3\n        /* \"#utility.yul\":15310:15328   */\n      add\n        /* \"#utility.yul\":15302:15328   */\n      swap1\n      pop\n        /* \"#utility.yul\":15374:15383   */\n      dup2\n        /* \"#utility.yul\":15368:15372   */\n      dup2\n        /* \"#utility.yul\":15364:15384   */\n      sub\n        /* \"#utility.yul\":15360:15361   */\n      0x00\n        /* \"#utility.yul\":15349:15358   */\n      dup4\n        /* \"#utility.yul\":15345:15362   */\n      add\n        /* \"#utility.yul\":15338:15385   */\n      mstore\n        /* \"#utility.yul\":15402:15533   */\n      tag_314\n        /* \"#utility.yul\":15528:15532   */\n      dup2\n        /* \"#utility.yul\":15402:15533   */\n      tag_256\n      jump\t// in\n    tag_314:\n        /* \"#utility.yul\":15394:15533   */\n      swap1\n      pop\n        /* \"#utility.yul\":15121:15540   */\n      swap2\n      swap1\n      pop\n      jump\t// out\n        /* \"#utility.yul\":15546:15965   */\n    tag_44:\n        /* \"#utility.yul\":15712:15716   */\n      0x00\n        /* \"#utility.yul\":15750:15752   */\n      0x20\n        /* \"#utility.yul\":15739:15748   */\n      dup3\n        /* \"#utility.yul\":15735:15753   */\n      add\n        /* \"#utility.yul\":15727:15753   */\n      swap1\n      pop\n        /* \"#utility.yul\":15799:15808   */\n      dup2\n        /* \"#utility.yul\":15793:15797   */\n      dup2\n        /* \"#utility.yul\":15789:15809   */\n      sub\n        /* \"#utility.yul\":15785:15786   */\n      0x00\n        /* \"#utility.yul\":15774:15783   */\n      dup4\n        /* \"#utility.yul\":15770:15787   */\n      add\n        /* \"#utility.yul\":15763:15810   */\n      mstore\n        /* \"#utility.yul\":15827:15958   */\n      tag_316\n        /* \"#utility.yul\":15953:15957   */\n      dup2\n        /* \"#utility.yul\":15827:15958   */\n      tag_261\n      jump\t// in\n    tag_316:\n        /* \"#utility.yul\":15819:15958   */\n      swap1\n      pop\n        /* \"#utility.yul\":15546:15965   */\n      swap2\n      swap1\n      pop\n      jump\t// out\n        /* \"#utility.yul\":15971:16390   */\n    tag_112:\n        /* \"#utility.yul\":16137:16141   */\n      0x00\n        /* \"#utility.yul\":16175:16177   */\n      0x20\n        /* \"#utility.yul\":16164:16173   */\n      dup3\n        /* \"#utility.yul\":16160:16178   */\n      add\n        /* \"#utility.yul\":16152:16178   */\n      swap1\n      pop\n        /* \"#utility.yul\":16224:16233   */\n      dup2\n        /* \"#utility.yul\":16218:16222   */\n      dup2\n        /* \"#utility.yul\":16214:16234   */\n      sub\n        /* \"#utility.yul\":16210:16211   */\n      0x00\n        /* \"#utility.yul\":16199:16208   */\n      dup4\n        /* \"#utility.yul\":16195:16212   */\n      add\n        /* \"#utility.yul\":16188:16235   */\n      mstore\n        /* \"#utility.yul\":16252:16383   */\n      tag_318\n        /* \"#utility.yul\":16378:16382   */\n      dup2\n        /* \"#utility.yul\":16252:16383   */\n      tag_266\n      jump\t// in\n    tag_318:\n        /* \"#utility.yul\":16244:16383   */\n      swap1\n      pop\n        /* \"#utility.yul\":15971:16390   */\n      swap2\n      swap1\n      pop\n      jump\t// out\n        /* \"#utility.yul\":16396:16815   */\n    tag_116:\n        /* \"#utility.yul\":16562:16566   */\n      0x00\n        /* \"#utility.yul\":16600:16602   */\n      0x20\n        /* \"#utility.yul\":16589:16598   */\n      dup3\n        /* \"#utility.yul\":16585:16603   */\n      add\n        /* \"#utility.yul\":16577:16603   */\n      swap1\n      pop\n        /* \"#utility.yul\":16649:16658   */\n      dup2\n        /* \"#utility.yul\":16643:16647   */\n      dup2\n        /* \"#utility.yul\":16639:16659   */\n      sub\n        /* \"#utility.yul\":16635:16636   */\n      0x00\n        /* \"#utility.yul\":16624:16633   */\n      dup4\n        /* \"#utility.yul\":16620:16637   */\n      add\n        /* \"#utility.yul\":16613:16660   */\n      mstore\n        /* \"#utility.yul\":16677:16808   */\n      tag_320\n        /* \"#utility.yul\":16803:16807   */\n      dup2\n        /* \"#utility.yul\":16677:16808   */\n      tag_271\n      jump\t// in\n    tag_320:\n        /* \"#utility.yul\":16669:16808   */\n      swap1\n      pop\n        /* \"#utility.yul\":16396:16815   */\n      swap2\n      swap1\n      pop\n      jump\t// out\n        /* \"#utility.yul\":16821:17174   */\n    tag_20:\n        /* \"#utility.yul\":16954:16958   */\n      0x00\n        /* \"#utility.yul\":16992:16994   */\n      0x20\n        /* \"#utility.yul\":16981:16990   */\n      dup3\n        /* \"#utility.yul\":16977:16995   */\n      add\n        /* \"#utility.yul\":16969:16995   */\n      swap1\n      pop\n        /* \"#utility.yul\":17041:17050   */\n      dup2\n        /* \"#utility.yul\":17035:17039   */\n      dup2\n        /* \"#utility.yul\":17031:17051   */\n      sub\n        /* \"#utility.yul\":17027:17028   */\n      0x00\n        /* \"#utility.yul\":17016:17025   */\n      dup4\n        /* \"#utility.yul\":17012:17029   */\n      add\n        /* \"#utility.yul\":17005:17052   */\n      mstore\n        /* \"#utility.yul\":17069:17167   */\n      tag_322\n        /* \"#utility.yul\":17162:17166   */\n      dup2\n        /* \"#utility.yul\":17153:17159   */\n      dup5\n        /* \"#utility.yul\":17069:17167   */\n      tag_286\n      jump\t// in\n    tag_322:\n        /* \"#utility.yul\":17061:17167   */\n      swap1\n      pop\n        /* \"#utility.yul\":16821:17174   */\n      swap3\n      swap2\n      pop\n      pop\n      jump\t// out\n        /* \"#utility.yul\":17180:17309   */\n    tag_149:\n        /* \"#utility.yul\":17214:17220   */\n      0x00\n        /* \"#utility.yul\":17241:17261   */\n      tag_324\n      tag_325\n      jump\t// in\n    tag_324:\n        /* \"#utility.yul\":17231:17261   */\n      swap1\n      pop\n        /* \"#utility.yul\":17270:17303   */\n      tag_326\n        /* \"#utility.yul\":17298:17302   */\n      dup3\n        /* \"#utility.yul\":17290:17296   */\n      dup3\n        /* \"#utility.yul\":17270:17303   */\n      tag_327\n      jump\t// in\n    tag_326:\n        /* \"#utility.yul\":17180:17309   */\n      swap2\n      swap1\n      pop\n      jump\t// out\n        /* \"#utility.yul\":17315:17390   */\n    tag_325:\n        /* \"#utility.yul\":17348:17354   */\n      0x00\n        /* \"#utility.yul\":17381:17383   */\n      0x40\n        /* \"#utility.yul\":17375:17384   */\n      mload\n        /* \"#utility.yul\":17365:17384   */\n      swap1\n      pop\n        /* \"#utility.yul\":17315:17390   */\n      swap1\n      jump\t// out\n        /* \"#utility.yul\":17396:17704   */\n    tag_148:\n        /* \"#utility.yul\":17458:17462   */\n      0x00\n        /* \"#utility.yul\":17548:17566   */\n      0xffffffffffffffff\n        /* \"#utility.yul\":17540:17546   */\n      dup3\n        /* \"#utility.yul\":17537:17567   */\n      gt\n        /* \"#utility.yul\":17534:17590   */\n      iszero\n      tag_330\n      jumpi\n        /* \"#utility.yul\":17570:17588   */\n      tag_331\n      tag_67\n      jump\t// in\n    tag_331:\n        /* \"#utility.yul\":17534:17590   */\n    tag_330:\n        /* \"#utility.yul\":17608:17637   */\n      tag_332\n        /* \"#utility.yul\":17630:17636   */\n      dup3\n        /* \"#utility.yul\":17608:17637   */\n      tag_249\n      jump\t// in\n    tag_332:\n        /* \"#utility.yul\":17600:17637   */\n      swap1\n      pop\n        /* \"#utility.yul\":17692:17696   */\n      0x20\n        /* \"#utility.yul\":17686:17690   */\n      dup2\n        /* \"#utility.yul\":17682:17697   */\n      add\n        /* \"#utility.yul\":17674:17697   */\n      swap1\n      pop\n        /* \"#utility.yul\":17396:17704   */\n      swap2\n      swap1\n      pop\n      jump\t// out\n        /* \"#utility.yul\":17710:17862   */\n    tag_219:\n        /* \"#utility.yul\":17797:17801   */\n      0x00\n        /* \"#utility.yul\":17820:17823   */\n      dup2\n        /* \"#utility.yul\":17812:17823   */\n      swap1\n      pop\n        /* \"#utility.yul\":17850:17854   */\n      0x20\n        /* \"#utility.yul\":17845:17848   */\n      dup3\n        /* \"#utility.yul\":17841:17855   */\n      add\n        /* \"#utility.yul\":17833:17855   */\n      swap1\n      pop\n        /* \"#utility.yul\":17710:17862   */\n      swap2\n      swap1\n      pop\n      jump\t// out\n        /* \"#utility.yul\":17868:18026   */\n    tag_233:\n        /* \"#utility.yul\":17961:17965   */\n      0x00\n        /* \"#utility.yul\":17984:17987   */\n      dup2\n        /* \"#utility.yul\":17976:17987   */\n      swap1\n      pop\n        /* \"#utility.yul\":18014:18018   */\n      0x20\n        /* \"#utility.yul\":18009:18012   */\n      dup3\n        /* \"#utility.yul\":18005:18019   */\n      add\n        /* \"#utility.yul\":17997:18019   */\n      swap1\n      pop\n        /* \"#utility.yul\":17868:18026   */\n      swap2\n      swap1\n      pop\n      jump\t// out\n        /* \"#utility.yul\":18032:18166   */\n    tag_215:\n        /* \"#utility.yul\":18119:18125   */\n      0x00\n        /* \"#utility.yul\":18153:18158   */\n      dup2\n        /* \"#utility.yul\":18147:18159   */\n      mload\n        /* \"#utility.yul\":18137:18159   */\n      swap1\n      pop\n        /* \"#utility.yul\":18032:18166   */\n      swap2\n      swap1\n      pop\n      jump\t// out\n        /* \"#utility.yul\":18172:18312   */\n    tag_229:\n        /* \"#utility.yul\":18265:18271   */\n      0x00\n        /* \"#utility.yul\":18299:18304   */\n      dup2\n        /* \"#utility.yul\":18293:18305   */\n      mload\n        /* \"#utility.yul\":18283:18305   */\n      swap1\n      pop\n        /* \"#utility.yul\":18172:18312   */\n      swap2\n      swap1\n      pop\n      jump\t// out\n        /* \"#utility.yul\":18318:18417   */\n    tag_243:\n        /* \"#utility.yul\":18370:18376   */\n      0x00\n        /* \"#utility.yul\":18404:18409   */\n      dup2\n        /* \"#utility.yul\":18398:18410   */\n      mload\n        /* \"#utility.yul\":18388:18410   */\n      swap1\n      pop\n        /* \"#utility.yul\":18318:18417   */\n      swap2\n      swap1\n      pop\n      jump\t// out\n        /* \"#utility.yul\":18423:18556   */\n    tag_225:\n        /* \"#utility.yul\":18513:18517   */\n      0x00\n        /* \"#utility.yul\":18545:18549   */\n      0x20\n        /* \"#utility.yul\":18540:18543   */\n      dup3\n        /* \"#utility.yul\":18536:18550   */\n      add\n        /* \"#utility.yul\":18528:18550   */\n      swap1\n      pop\n        /* \"#utility.yul\":18423:18556   */\n      swap2\n      swap1\n      pop\n      jump\t// out\n        /* \"#utility.yul\":18562:18701   */\n    tag_239:\n        /* \"#utility.yul\":18658:18662   */\n      0x00\n        /* \"#utility.yul\":18690:18694   */\n      0x20\n        /* \"#utility.yul\":18685:18688   */\n      dup3\n        /* \"#utility.yul\":18681:18695   */\n      add\n        /* \"#utility.yul\":18673:18695   */\n      swap1\n      pop\n        /* \"#utility.yul\":18562:18701   */\n      swap2\n      swap1\n      pop\n      jump\t// out\n        /* \"#utility.yul\":18707:18911   */\n    tag_217:\n        /* \"#utility.yul\":18826:18837   */\n      0x00\n        /* \"#utility.yul\":18860:18866   */\n      dup3\n        /* \"#utility.yul\":18855:18858   */\n      dup3\n        /* \"#utility.yul\":18848:18867   */\n      mstore\n        /* \"#utility.yul\":18900:18904   */\n      0x20\n        /* \"#utility.yul\":18895:18898   */\n      dup3\n        /* \"#utility.yul\":18891:18905   */\n      add\n        /* \"#utility.yul\":18876:18905   */\n      swap1\n      pop\n        /* \"#utility.yul\":18707:18911   */\n      swap3\n      swap2\n      pop\n      pop\n      jump\t// out\n        /* \"#utility.yul\":18917:19127   */\n    tag_231:\n        /* \"#utility.yul\":19042:19053   */\n      0x00\n        /* \"#utility.yul\":19076:19082   */\n      dup3\n        /* \"#utility.yul\":19071:19074   */\n      dup3\n        /* \"#utility.yul\":19064:19083   */\n      mstore\n        /* \"#utility.yul\":19116:19120   */\n      0x20\n        /* \"#utility.yul\":19111:19114   */\n      dup3\n        /* \"#utility.yul\":19107:19121   */\n      add\n        /* \"#utility.yul\":19092:19121   */\n      swap1\n      pop\n        /* \"#utility.yul\":18917:19127   */\n      swap3\n      swap2\n      pop\n      pop\n      jump\t// out\n        /* \"#utility.yul\":19133:19292   */\n    tag_245:\n        /* \"#utility.yul\":19207:19218   */\n      0x00\n        /* \"#utility.yul\":19241:19247   */\n      dup3\n        /* \"#utility.yul\":19236:19239   */\n      dup3\n        /* \"#utility.yul\":19229:19248   */\n      mstore\n        /* \"#utility.yul\":19281:19285   */\n      0x20\n        /* \"#utility.yul\":19276:19279   */\n      dup3\n        /* \"#utility.yul\":19272:19286   */\n      add\n        /* \"#utility.yul\":19257:19286   */\n      swap1\n      pop\n        /* \"#utility.yul\":19133:19292   */\n      swap3\n      swap2\n      pop\n      pop\n      jump\t// out\n        /* \"#utility.yul\":19298:19467   */\n    tag_253:\n        /* \"#utility.yul\":19382:19393   */\n      0x00\n        /* \"#utility.yul\":19416:19422   */\n      dup3\n        /* \"#utility.yul\":19411:19414   */\n      dup3\n        /* \"#utility.yul\":19404:19423   */\n      mstore\n        /* \"#utility.yul\":19456:19460   */\n      0x20\n        /* \"#utility.yul\":19451:19454   */\n      dup3\n        /* \"#utility.yul\":19447:19461   */\n      add\n        /* \"#utility.yul\":19432:19461   */\n      swap1\n      pop\n        /* \"#utility.yul\":19298:19467   */\n      swap3\n      swap2\n      pop\n      pop\n      jump\t// out\n        /* \"#utility.yul\":19473:19778   */\n    tag_49:\n        /* \"#utility.yul\":19513:19516   */\n      0x00\n        /* \"#utility.yul\":19532:19552   */\n      tag_345\n        /* \"#utility.yul\":19550:19551   */\n      dup3\n        /* \"#utility.yul\":19532:19552   */\n      tag_304\n      jump\t// in\n    tag_345:\n        /* \"#utility.yul\":19527:19552   */\n      swap2\n      pop\n        /* \"#utility.yul\":19566:19586   */\n      tag_346\n        /* \"#utility.yul\":19584:19585   */\n      dup4\n        /* \"#utility.yul\":19566:19586   */\n      tag_304\n      jump\t// in\n    tag_346:\n        /* \"#utility.yul\":19561:19586   */\n      swap3\n      pop\n        /* \"#utility.yul\":19720:19721   */\n      dup3\n        /* \"#utility.yul\":19652:19718   */\n      0xffffffffffffffffffffffffffffffffffffffffffffffffffffffffffffffff\n        /* \"#utility.yul\":19648:19722   */\n      sub\n        /* \"#utility.yul\":19645:19646   */\n      dup3\n        /* \"#utility.yul\":19642:19723   */\n      gt\n        /* \"#utility.yul\":19639:19746   */\n      iszero\n      tag_347\n      jumpi\n        /* \"#utility.yul\":19726:19744   */\n      tag_348\n      tag_349\n      jump\t// in\n    tag_348:\n        /* \"#utility.yul\":19639:19746   */\n    tag_347:\n        /* \"#utility.yul\":19770:19771   */\n      dup3\n        /* \"#utility.yul\":19767:19768   */\n      dup3\n        /* \"#utility.yul\":19763:19772   */\n      add\n        /* \"#utility.yul\":19756:19772   */\n      swap1\n      pop\n        /* \"#utility.yul\":19473:19778   */\n      swap3\n      swap2\n      pop\n      pop\n      jump\t// out\n        /* \"#utility.yul\":19784:19880   */\n    tag_208:\n        /* \"#utility.yul\":19821:19828   */\n      0x00\n        /* \"#utility.yul\":19850:19874   */\n      tag_351\n        /* \"#utility.yul\":19868:19873   */\n      dup3\n        /* \"#utility.yul\":19850:19874   */\n      tag_352\n      jump\t// in\n    tag_351:\n        /* \"#utility.yul\":19839:19874   */\n      swap1\n      pop\n        /* \"#utility.yul\":19784:19880   */\n      swap2\n      swap1\n      pop\n      jump\t// out\n        /* \"#utility.yul\":19886:19990   */\n    tag_204:\n        /* \"#utility.yul\":19931:19938   */\n      0x00\n        /* \"#utility.yul\":19960:19984   */\n      tag_354\n        /* \"#utility.yul\":19978:19983   */\n      dup3\n        /* \"#utility.yul\":19960:19984   */\n      tag_352\n      jump\t// in\n    tag_354:\n        /* \"#utility.yul\":19949:19984   */\n      swap1\n      pop\n        /* \"#utility.yul\":19886:19990   */\n      swap2\n      swap1\n      pop\n      jump\t// out\n        /* \"#utility.yul\":19996:20122   */\n    tag_352:\n        /* \"#utility.yul\":20033:20040   */\n      0x00\n        /* \"#utility.yul\":20073:20115   */\n      0xffffffffffffffffffffffffffffffffffffffff\n        /* \"#utility.yul\":20066:20071   */\n      dup3\n        /* \"#utility.yul\":20062:20116   */\n      and\n        /* \"#utility.yul\":20051:20116   */\n      swap1\n      pop\n        /* \"#utility.yul\":19996:20122   */\n      swap2\n      swap1\n      pop\n      jump\t// out\n        /* \"#utility.yul\":20128:20205   */\n    tag_304:\n        /* \"#utility.yul\":20165:20172   */\n      0x00\n        /* \"#utility.yul\":20194:20199   */\n      dup2\n        /* \"#utility.yul\":20183:20199   */\n      swap1\n      pop\n        /* \"#utility.yul\":20128:20205   */\n      swap2\n      swap1\n      pop\n      jump\t// out\n        /* \"#utility.yul\":20211:20365   */\n    tag_154:\n        /* \"#utility.yul\":20295:20301   */\n      dup3\n        /* \"#utility.yul\":20290:20293   */\n      dup2\n        /* \"#utility.yul\":20285:20288   */\n      dup4\n        /* \"#utility.yul\":20272:20302   */\n      calldatacopy\n        /* \"#utility.yul\":20357:20358   */\n      0x00\n        /* \"#utility.yul\":20348:20354   */\n      dup4\n        /* \"#utility.yul\":20343:20346   */\n      dup4\n        /* \"#utility.yul\":20339:20355   */\n      add\n        /* \"#utility.yul\":20332:20359   */\n      mstore\n        /* \"#utility.yul\":20211:20365   */\n      pop\n      pop\n      pop\n      jump\t// out\n        /* \"#utility.yul\":20371:20678   */\n    tag_247:\n        /* \"#utility.yul\":20439:20440   */\n      0x00\n        /* \"#utility.yul\":20449:20562   */\n    tag_359:\n        /* \"#utility.yul\":20463:20469   */\n      dup4\n        /* \"#utility.yul\":20460:20461   */\n      dup2\n        /* \"#utility.yul\":20457:20470   */\n      lt\n        /* \"#utility.yul\":20449:20562   */\n      iszero\n      tag_361\n      jumpi\n        /* \"#utility.yul\":20548:20549   */\n      dup1\n        /* \"#utility.yul\":20543:20546   */\n      dup3\n        /* \"#utility.yul\":20539:20550   */\n      add\n        /* \"#utility.yul\":20533:20551   */\n      mload\n        /* \"#utility.yul\":20529:20530   */\n      dup2\n        /* \"#utility.yul\":20524:20527   */\n      dup5\n        /* \"#utility.yul\":20520:20531   */\n      add\n        /* \"#utility.yul\":20513:20552   */\n      mstore\n        /* \"#utility.yul\":20485:20487   */\n      0x20\n        /* \"#utility.yul\":20482:20483   */\n      dup2\n        /* \"#utility.yul\":20478:20488   */\n      add\n        /* \"#utility.yul\":20473:20488   */\n      swap1\n      pop\n        /* \"#utility.yul\":20449:20562   */\n      jump(tag_359)\n    tag_361:\n        /* \"#utility.yul\":20580:20586   */\n      dup4\n        /* \"#utility.yul\":20577:20578   */\n      dup2\n        /* \"#utility.yul\":20574:20587   */\n      gt\n        /* \"#utility.yul\":20571:20672   */\n      iszero\n      tag_362\n      jumpi\n        /* \"#utility.yul\":20660:20661   */\n      0x00\n        /* \"#utility.yul\":20651:20657   */\n      dup5\n        /* \"#utility.yul\":20646:20649   */\n      dup5\n        /* \"#utility.yul\":20642:20658   */\n      add\n        /* \"#utility.yul\":20635:20662   */\n      mstore\n        /* \"#utility.yul\":20571:20672   */\n    tag_362:\n        /* \"#utility.yul\":20420:20678   */\n      pop\n        /* \"#utility.yul\":20371:20678   */\n      pop\n      pop\n      pop\n      jump\t// out\n        /* \"#utility.yul\":20684:21004   */\n    tag_54:\n        /* \"#utility.yul\":20728:20734   */\n      0x00\n        /* \"#utility.yul\":20765:20766   */\n      0x02\n        /* \"#utility.yul\":20759:20763   */\n      dup3\n        /* \"#utility.yul\":20755:20767   */\n      div\n        /* \"#utility.yul\":20745:20767   */\n      swap1\n      pop\n        /* \"#utility.yul\":20812:20813   */\n      0x01\n        /* \"#utility.yul\":20806:20810   */\n      dup3\n        /* \"#utility.yul\":20802:20814   */\n      and\n        /* \"#utility.yul\":20833:20851   */\n      dup1\n        /* \"#utility.yul\":20823:20904   */\n      tag_364\n      jumpi\n        /* \"#utility.yul\":20889:20893   */\n      0x7f\n        /* \"#utility.yul\":20881:20887   */\n      dup3\n        /* \"#utility.yul\":20877:20894   */\n      and\n        /* \"#utility.yul\":20867:20894   */\n      swap2\n      pop\n        /* \"#utility.yul\":20823:20904   */\n    tag_364:\n        /* \"#utility.yul\":20951:20953   */\n      0x20\n        /* \"#utility.yul\":20943:20949   */\n      dup3\n        /* \"#utility.yul\":20940:20954   */\n      lt\n        /* \"#utility.yul\":20920:20938   */\n      dup2\n        /* \"#utility.yul\":20917:20955   */\n      eq\n        /* \"#utility.yul\":20914:20998   */\n      iszero\n      tag_365\n      jumpi\n        /* \"#utility.yul\":20970:20988   */\n      tag_366\n      tag_367\n      jump\t// in\n    tag_366:\n        /* \"#utility.yul\":20914:20998   */\n    tag_365:\n        /* \"#utility.yul\":20735:21004   */\n      pop\n        /* \"#utility.yul\":20684:21004   */\n      swap2\n      swap1\n      pop\n      jump\t// out\n        /* \"#utility.yul\":21010:21291   */\n    tag_327:\n        /* \"#utility.yul\":21093:21120   */\n      tag_369\n        /* \"#utility.yul\":21115:21119   */\n      dup3\n        /* \"#utility.yul\":21093:21120   */\n      tag_249\n      jump\t// in\n    tag_369:\n        /* \"#utility.yul\":21085:21091   */\n      dup2\n        /* \"#utility.yul\":21081:21121   */\n      add\n        /* \"#utility.yul\":21223:21229   */\n      dup2\n        /* \"#utility.yul\":21211:21221   */\n      dup2\n        /* \"#utility.yul\":21208:21230   */\n      lt\n        /* \"#utility.yul\":21187:21205   */\n      0xffffffffffffffff\n        /* \"#utility.yul\":21175:21185   */\n      dup3\n        /* \"#utility.yul\":21172:21206   */\n      gt\n        /* \"#utility.yul\":21169:21231   */\n      or\n        /* \"#utility.yul\":21166:21254   */\n      iszero\n      tag_370\n      jumpi\n        /* \"#utility.yul\":21234:21252   */\n      tag_371\n      tag_67\n      jump\t// in\n    tag_371:\n        /* \"#utility.yul\":21166:21254   */\n    tag_370:\n        /* \"#utility.yul\":21274:21284   */\n      dup1\n        /* \"#utility.yul\":21270:21272   */\n      0x40\n        /* \"#utility.yul\":21263:21285   */\n      mstore\n        /* \"#utility.yul\":21053:21291   */\n      pop\n        /* \"#utility.yul\":21010:21291   */\n      pop\n      pop\n      jump\t// out\n        /* \"#utility.yul\":21297:21530   */\n    tag_47:\n        /* \"#utility.yul\":21336:21339   */\n      0x00\n        /* \"#utility.yul\":21359:21383   */\n      tag_373\n        /* \"#utility.yul\":21377:21382   */\n      dup3\n        /* \"#utility.yul\":21359:21383   */\n      tag_304\n      jump\t// in\n    tag_373:\n        /* \"#utility.yul\":21350:21383   */\n      swap2\n      pop\n        /* \"#utility.yul\":21405:21471   */\n      0xffffffffffffffffffffffffffffffffffffffffffffffffffffffffffffffff\n        /* \"#utility.yul\":21398:21403   */\n      dup3\n        /* \"#utility.yul\":21395:21472   */\n      eq\n        /* \"#utility.yul\":21392:21495   */\n      iszero\n      tag_374\n      jumpi\n        /* \"#utility.yul\":21475:21493   */\n      tag_375\n      tag_349\n      jump\t// in\n    tag_375:\n        /* \"#utility.yul\":21392:21495   */\n    tag_374:\n        /* \"#utility.yul\":21522:21523   */\n      0x01\n        /* \"#utility.yul\":21515:21520   */\n      dup3\n        /* \"#utility.yul\":21511:21524   */\n      add\n        /* \"#utility.yul\":21504:21524   */\n      swap1\n      pop\n        /* \"#utility.yul\":21297:21530   */\n      swap2\n      swap1\n      pop\n      jump\t// out\n        /* \"#utility.yul\":21536:21716   */\n    tag_349:\n        /* \"#utility.yul\":21584:21661   */\n      0x4e487b7100000000000000000000000000000000000000000000000000000000\n        /* \"#utility.yul\":21581:21582   */\n      0x00\n        /* \"#utility.yul\":21574:21662   */\n      mstore\n        /* \"#utility.yul\":21681:21685   */\n      0x11\n        /* \"#utility.yul\":21678:21679   */\n      0x04\n        /* \"#utility.yul\":21671:21686   */\n      mstore\n        /* \"#utility.yul\":21705:21709   */\n      0x24\n        /* \"#utility.yul\":21702:21703   */\n      0x00\n        /* \"#utility.yul\":21695:21710   */\n      revert\n        /* \"#utility.yul\":21722:21902   */\n    tag_367:\n        /* \"#utility.yul\":21770:21847   */\n      0x4e487b7100000000000000000000000000000000000000000000000000000000\n        /* \"#utility.yul\":21767:21768   */\n      0x00\n        /* \"#utility.yul\":21760:21848   */\n      mstore\n        /* \"#utility.yul\":21867:21871   */\n      0x22\n        /* \"#utility.yul\":21864:21865   */\n      0x04\n        /* \"#utility.yul\":21857:21872   */\n      mstore\n        /* \"#utility.yul\":21891:21895   */\n      0x24\n        /* \"#utility.yul\":21888:21889   */\n      0x00\n        /* \"#utility.yul\":21881:21896   */\n      revert\n        /* \"#utility.yul\":21908:22088   */\n    tag_86:\n        /* \"#utility.yul\":21956:22033   */\n      0x4e487b7100000000000000000000000000000000000000000000000000000000\n        /* \"#utility.yul\":21953:21954   */\n      0x00\n        /* \"#utility.yul\":21946:22034   */\n      mstore\n        /* \"#utility.yul\":22053:22057   */\n      0x32\n        /* \"#utility.yul\":22050:22051   */\n      0x04\n        /* \"#utility.yul\":22043:22058   */\n      mstore\n        /* \"#utility.yul\":22077:22081   */\n      0x24\n        /* \"#utility.yul\":22074:22075   */\n      0x00\n        /* \"#utility.yul\":22067:22082   */\n      revert\n        /* \"#utility.yul\":22094:22274   */\n    tag_67:\n        /* \"#utility.yul\":22142:22219   */\n      0x4e487b7100000000000000000000000000000000000000000000000000000000\n        /* \"#utility.yul\":22139:22140   */\n      0x00\n        /* \"#utility.yul\":22132:22220   */\n      mstore\n        /* \"#utility.yul\":22239:22243   */\n      0x41\n        /* \"#utility.yul\":22236:22237   */\n      0x04\n        /* \"#utility.yul\":22229:22244   */\n      mstore\n        /* \"#utility.yul\":22263:22267   */\n      0x24\n        /* \"#utility.yul\":22260:22261   */\n      0x00\n        /* \"#utility.yul\":22253:22268   */\n      revert\n        /* \"#utility.yul\":22280:22397   */\n    tag_163:\n        /* \"#utility.yul\":22389:22390   */\n      0x00\n        /* \"#utility.yul\":22386:22387   */\n      dup1\n        /* \"#utility.yul\":22379:22391   */\n      revert\n        /* \"#utility.yul\":22403:22520   */\n    tag_152:\n        /* \"#utility.yul\":22512:22513   */\n      0x00\n        /* \"#utility.yul\":22509:22510   */\n      dup1\n        /* \"#utility.yul\":22502:22514   */\n      revert\n        /* \"#utility.yul\":22526:22643   */\n    tag_175:\n        /* \"#utility.yul\":22635:22636   */\n      0x00\n        /* \"#utility.yul\":22632:22633   */\n      dup1\n        /* \"#utility.yul\":22625:22637   */\n      revert\n        /* \"#utility.yul\":22649:22766   */\n    tag_172:\n        /* \"#utility.yul\":22758:22759   */\n      0x00\n        /* \"#utility.yul\":22755:22756   */\n      dup1\n        /* \"#utility.yul\":22748:22760   */\n      revert\n        /* \"#utility.yul\":22772:22874   */\n    tag_249:\n        /* \"#utility.yul\":22813:22819   */\n      0x00\n        /* \"#utility.yul\":22864:22866   */\n      0x1f\n        /* \"#utility.yul\":22860:22867   */\n      not\n        /* \"#utility.yul\":22855:22857   */\n      0x1f\n        /* \"#utility.yul\":22848:22853   */\n      dup4\n        /* \"#utility.yul\":22844:22858   */\n      add\n        /* \"#utility.yul\":22840:22868   */\n      and\n        /* \"#utility.yul\":22830:22868   */\n      swap1\n      pop\n        /* \"#utility.yul\":22772:22874   */\n      swap2\n      swap1\n      pop\n      jump\t// out\n        /* \"#utility.yul\":22880:23120   */\n    tag_255:\n        /* \"#utility.yul\":23020:23054   */\n      0x456e6420646174652d74696d652073686f756c64206265206772656174657220\n        /* \"#utility.yul\":23016:23017   */\n      0x00\n        /* \"#utility.yul\":23008:23014   */\n      dup3\n        /* \"#utility.yul\":23004:23018   */\n      add\n        /* \"#utility.yul\":22997:23055   */\n      mstore\n        /* \"#utility.yul\":23089:23112   */\n      0x7468616e20737461727420646174652d74696d652e0000000000000000000000\n        /* \"#utility.yul\":23084:23086   */\n      0x20\n        /* \"#utility.yul\":23076:23082   */\n      dup3\n        /* \"#utility.yul\":23072:23087   */\n      add\n        /* \"#utility.yul\":23065:23113   */\n      mstore\n        /* \"#utility.yul\":22880:23120   */\n      pop\n      jump\t// out\n        /* \"#utility.yul\":23126:23370   */\n    tag_260:\n        /* \"#utility.yul\":23266:23300   */\n      0x537461727420646174652d74696d652073686f756c6420626520677265617465\n        /* \"#utility.yul\":23262:23263   */\n      0x00\n        /* \"#utility.yul\":23254:23260   */\n      dup3\n        /* \"#utility.yul\":23250:23264   */\n      add\n        /* \"#utility.yul\":23243:23301   */\n      mstore\n        /* \"#utility.yul\":23335:23362   */\n      0x72207468616e2063757272656e7420646174652d74696d652e00000000000000\n        /* \"#utility.yul\":23330:23332   */\n      0x20\n        /* \"#utility.yul\":23322:23328   */\n      dup3\n        /* \"#utility.yul\":23318:23333   */\n      add\n        /* \"#utility.yul\":23311:23363   */\n      mstore\n        /* \"#utility.yul\":23126:23370   */\n      pop\n      jump\t// out\n        /* \"#utility.yul\":23376:23532   */\n    tag_265:\n        /* \"#utility.yul\":23516:23524   */\n      0x46756e64202e0000000000000000000000000000000000000000000000000000\n        /* \"#utility.yul\":23512:23513   */\n      0x00\n        /* \"#utility.yul\":23504:23510   */\n      dup3\n        /* \"#utility.yul\":23500:23514   */\n      add\n        /* \"#utility.yul\":23493:23525   */\n      mstore\n        /* \"#utility.yul\":23376:23532   */\n      pop\n      jump\t// out\n        /* \"#utility.yul\":23538:23782   */\n    tag_270:\n        /* \"#utility.yul\":23678:23712   */\n      0x4f6e6c79206d616e6167657220697320616c6c6f77656420746f20616c6c6f77\n        /* \"#utility.yul\":23674:23675   */\n      0x00\n        /* \"#utility.yul\":23666:23672   */\n      dup3\n        /* \"#utility.yul\":23662:23676   */\n      add\n        /* \"#utility.yul\":23655:23713   */\n      mstore\n        /* \"#utility.yul\":23747:23774   */\n      0x656420746f2063616c6c20746869732066756e6374696f6e2e00000000000000\n        /* \"#utility.yul\":23742:23744   */\n      0x20\n        /* \"#utility.yul\":23734:23740   */\n      dup3\n        /* \"#utility.yul\":23730:23745   */\n      add\n        /* \"#utility.yul\":23723:23775   */\n      mstore\n        /* \"#utility.yul\":23538:23782   */\n      pop\n      jump\t// out\n        /* \"#utility.yul\":23788:24009   */\n    tag_275:\n        /* \"#utility.yul\":23928:23962   */\n      0x46756e6420656e642d6461746520686173206e6f742072656163686564207965\n        /* \"#utility.yul\":23924:23925   */\n      0x00\n        /* \"#utility.yul\":23916:23922   */\n      dup3\n        /* \"#utility.yul\":23912:23926   */\n      add\n        /* \"#utility.yul\":23905:23963   */\n      mstore\n        /* \"#utility.yul\":23997:24001   */\n      0x742e000000000000000000000000000000000000000000000000000000000000\n        /* \"#utility.yul\":23992:23994   */\n      0x20\n        /* \"#utility.yul\":23984:23990   */\n      dup3\n        /* \"#utility.yul\":23980:23995   */\n      add\n        /* \"#utility.yul\":23973:24002   */\n      mstore\n        /* \"#utility.yul\":23788:24009   */\n      pop\n      jump\t// out\n        /* \"#utility.yul\":24015:24153   */\n    tag_158:\n        /* \"#utility.yul\":24096:24128   */\n      tag_391\n        /* \"#utility.yul\":24122:24127   */\n      dup2\n        /* \"#utility.yul\":24096:24128   */\n      tag_204\n      jump\t// in\n    tag_391:\n        /* \"#utility.yul\":24089:24094   */\n      dup2\n        /* \"#utility.yul\":24086:24129   */\n      eq\n        /* \"#utility.yul\":24076:24147   */\n      tag_392\n      jumpi\n        /* \"#utility.yul\":24143:24144   */\n      0x00\n        /* \"#utility.yul\":24140:24141   */\n      dup1\n        /* \"#utility.yul\":24133:24145   */\n      revert\n        /* \"#utility.yul\":24076:24147   */\n    tag_392:\n        /* \"#utility.yul\":24015:24153   */\n      pop\n      jump\t// out\n        /* \"#utility.yul\":24159:24281   */\n    tag_168:\n        /* \"#utility.yul\":24232:24256   */\n      tag_394\n        /* \"#utility.yul\":24250:24255   */\n      dup2\n        /* \"#utility.yul\":24232:24256   */\n      tag_304\n      jump\t// in\n    tag_394:\n        /* \"#utility.yul\":24225:24230   */\n      dup2\n        /* \"#utility.yul\":24222:24257   */\n      eq\n        /* \"#utility.yul\":24212:24275   */\n      tag_395\n      jumpi\n        /* \"#utility.yul\":24271:24272   */\n      0x00\n        /* \"#utility.yul\":24268:24269   */\n      dup1\n        /* \"#utility.yul\":24261:24273   */\n      revert\n        /* \"#utility.yul\":24212:24275   */\n    tag_395:\n        /* \"#utility.yul\":24159:24281   */\n      pop\n      jump\t// out\n\n    auxdata: 0xa26469706673582212207bf990d3aa95f51709fcf041c61ad20336578d752ce86792439049cdb985aadd64736f6c63430008070033\n}\n",
				"bytecode": {
					"linkReferences": {},
					"object": "608060405234801561001057600080fd5b50336000806101000a81548173ffffffffffffffffffffffffffffffffffffffff021916908373ffffffffffffffffffffffffffffffffffffffff160217905550611983806100606000396000f3fe608060405234801561001057600080fd5b506004361061007d5760003560e01c806326ef2adf1161005b57806326ef2adf146100ec578063481c6a751461011c5780635114cb521461013a578063526ed285146101565761007d565b8063135a34a214610082578063149e685a1461009e5780631c69b464146100ce575b600080fd5b61009c60048036038101906100979190610ef8565b610172565b005b6100b860048036038101906100b39190610ecb565b6102e2565b6040516100c59190611430565b60405180910390f35b6100d66104bc565b6040516100e3919061134c565b60405180910390f35b61010660048036038101906101019190610ecb565b610729565b604051610113919061136e565b60405180910390f35b6101246108b6565b6040516101319190611331565b60405180910390f35b610154600480360381019061014f9190610ecb565b6108da565b005b610170600480360381019061016b9190610e06565b610a38565b005b6000600160008481526020019081526020016000209050428160030154106101cf576040517f08c379a00000000000000000000000000000000000000000000000000000000081526004016101c6906113d0565b60405180910390fd5b60026040518060a0016040528060045481526020018581526020013373ffffffffffffffffffffffffffffffffffffffff168152602001848152602001428152509080600181540180825580915050600190039060005260206000209060050201600090919091909150600082015181600001556020820151816001015560408201518160020160006101000a81548173ffffffffffffffffffffffffffffffffffffffff021916908373ffffffffffffffffffffffffffffffffffffffff16021790555060608201518160030155608082015181600401555050600460008154809291906102bd90611690565b9190505550818160060160008282546102d69190611547565b92505081905550505050565b6102ea610c29565b6001600083815260200190815260200160002060405180610100016040529081600082015481526020016001820180546103239061162d565b80601f016020809104026020016040519081016040528092919081815260200182805461034f9061162d565b801561039c5780601f106103715761010080835404028352916020019161039c565b820191906000526020600020905b81548152906001019060200180831161037f57829003601f168201915b505050505081526020016002820180546103b59061162d565b80601f01602080910402602001604051908101604052809291908181526020018280546103e19061162d565b801561042e5780601f106104035761010080835404028352916020019161042e565b820191906000526020600020905b81548152906001019060200180831161041157829003601f168201915b50505050508152602001600382015481526020016004820154815260200160058201548152602001600682015481526020016007820160009054906101000a900473ffffffffffffffffffffffffffffffffffffffff1673ffffffffffffffffffffffffffffffffffffffff1673ffffffffffffffffffffffffffffffffffffffff16815250509050919050565b6060600060035467ffffffffffffffff8111156104dc576104db611766565b5b60405190808252806020026020018201604052801561051557816020015b610502610c29565b8152602001906001900390816104fa5790505b50905060005b6003548110156107215760016000828152602001908152602001600020604051806101000160405290816000820154815260200160018201805461055e9061162d565b80601f016020809104026020016040519081016040528092919081815260200182805461058a9061162d565b80156105d75780601f106105ac576101008083540402835291602001916105d7565b820191906000526020600020905b8154815290600101906020018083116105ba57829003601f168201915b505050505081526020016002820180546105f09061162d565b80601f016020809104026020016040519081016040528092919081815260200182805461061c9061162d565b80156106695780601f1061063e57610100808354040283529160200191610669565b820191906000526020600020905b81548152906001019060200180831161064c57829003601f168201915b50505050508152602001600382015481526020016004820154815260200160058201548152602001600682015481526020016007820160009054906101000a900473ffffffffffffffffffffffffffffffffffffffff1673ffffffffffffffffffffffffffffffffffffffff1673ffffffffffffffffffffffffffffffffffffffff168152505082828151811061070357610702611737565b5b6020026020010181905250808061071990611690565b91505061051b565b508091505090565b6060600060045467ffffffffffffffff81111561074957610748611766565b5b60405190808252806020026020018201604052801561078257816020015b61076f610c84565b8152602001906001900390816107675790505b5090506000805b6004548110156108ab5784600282815481106107a8576107a7611737565b5b906000526020600020906005020160010154141561089857600281815481106107d4576107d3611737565b5b90600052602060002090600502016040518060a001604052908160008201548152602001600182015481526020016002820160009054906101000a900473ffffffffffffffffffffffffffffffffffffffff1673ffffffffffffffffffffffffffffffffffffffff1673ffffffffffffffffffffffffffffffffffffffff1681526020016003820154815260200160048201548152505083838151811061087e5761087d611737565b5b6020026020010181905250818061089490611690565b9250505b80806108a390611690565b915050610789565b508192505050919050565b60008054906101000a900473ffffffffffffffffffffffffffffffffffffffff1681565b3373ffffffffffffffffffffffffffffffffffffffff1660008054906101000a900473ffffffffffffffffffffffffffffffffffffffff1673ffffffffffffffffffffffffffffffffffffffff1614610968576040517f08c379a000000000000000000000000000000000000000000000000000000000815260040161095f906113f0565b60405180910390fd5b6000600160008381526020019081526020016000209050428160040154106109c5576040517f08c379a00000000000000000000000000000000000000000000000000000000081526004016109bc90611410565b60405180910390fd5b8060070160009054906101000a900473ffffffffffffffffffffffffffffffffffffffff1673ffffffffffffffffffffffffffffffffffffffff166108fc82600601549081150290604051600060405180830381858888f19350505050158015610a33573d6000803e3d6000fd5b505050565b3373ffffffffffffffffffffffffffffffffffffffff1660008054906101000a900473ffffffffffffffffffffffffffffffffffffffff1673ffffffffffffffffffffffffffffffffffffffff1614610ac6576040517f08c379a0000000000000000000000000000000000000000000000000000000008152600401610abd906113f0565b60405180910390fd5b428411610b08576040517f08c379a0000000000000000000000000000000000000000000000000000000008152600401610aff906113b0565b60405180910390fd5b838311610b4a576040517f08c379a0000000000000000000000000000000000000000000000000000000008152600401610b4190611390565b60405180910390fd5b60006001600060035481526020019081526020016000209050600354816000018190555086816001019080519060200190610b86929190610cc9565b5085816002019080519060200190610b9f929190610cc9565b5084816003018190555083816004018190555082816005018190555060008160060181905550818160070160006101000a81548173ffffffffffffffffffffffffffffffffffffffff021916908373ffffffffffffffffffffffffffffffffffffffff16021790555060036000815480929190610c1b90611690565b919050555050505050505050565b60405180610100016040528060008152602001606081526020016060815260200160008152602001600081526020016000815260200160008152602001600073ffffffffffffffffffffffffffffffffffffffff1681525090565b6040518060a001604052806000815260200160008152602001600073ffffffffffffffffffffffffffffffffffffffff16815260200160008152602001600081525090565b828054610cd59061162d565b90600052602060002090601f016020900481019282610cf75760008555610d3e565b82601f10610d1057805160ff1916838001178555610d3e565b82800160010185558215610d3e579182015b82811115610d3d578251825591602001919060010190610d22565b5b509050610d4b9190610d4f565b5090565b5b80821115610d68576000816000905550600101610d50565b5090565b6000610d7f610d7a84611477565b611452565b905082815260208101848484011115610d9b57610d9a61179a565b5b610da68482856115eb565b509392505050565b600081359050610dbd8161191f565b92915050565b600082601f830112610dd857610dd7611795565b5b8135610de8848260208601610d6c565b91505092915050565b600081359050610e0081611936565b92915050565b60008060008060008060c08789031215610e2357610e226117a4565b5b600087013567ffffffffffffffff811115610e4157610e4061179f565b5b610e4d89828a01610dc3565b965050602087013567ffffffffffffffff811115610e6e57610e6d61179f565b5b610e7a89828a01610dc3565b9550506040610e8b89828a01610df1565b9450506060610e9c89828a01610df1565b9350506080610ead89828a01610df1565b92505060a0610ebe89828a01610dae565b9150509295509295509295565b600060208284031215610ee157610ee06117a4565b5b6000610eef84828501610df1565b91505092915050565b60008060408385031215610f0f57610f0e6117a4565b5b6000610f1d85828601610df1565b9250506020610f2e85828601610df1565b9150509250929050565b6000610f44838361114c565b905092915050565b6000610f5883836112ba565b60a08301905092915050565b610f6d816115af565b82525050565b610f7c8161159d565b82525050565b610f8b8161159d565b82525050565b6000610f9c826114c8565b610fa68185611503565b935083602082028501610fb8856114a8565b8060005b85811015610ff45784840389528151610fd58582610f38565b9450610fe0836114e9565b925060208a01995050600181019050610fbc565b50829750879550505050505092915050565b6000611011826114d3565b61101b8185611514565b9350611026836114b8565b8060005b8381101561105757815161103e8882610f4c565b9750611049836114f6565b92505060018101905061102a565b5085935050505092915050565b600061106f826114de565b6110798185611525565b93506110898185602086016115fa565b611092816117a9565b840191505092915050565b60006110aa603583611536565b91506110b5826117ba565b604082019050919050565b60006110cd603983611536565b91506110d882611809565b604082019050919050565b60006110f0600683611536565b91506110fb82611858565b602082019050919050565b6000611113603983611536565b915061111e82611881565b604082019050919050565b6000611136602283611536565b9150611141826118d0565b604082019050919050565b6000610100830160008301516111656000860182611322565b506020830151848203602086015261117d8282611064565b915050604083015184820360408601526111978282611064565b91505060608301516111ac6060860182611322565b5060808301516111bf6080860182611322565b5060a08301516111d260a0860182611322565b5060c08301516111e560c0860182611322565b5060e08301516111f860e0860182610f64565b508091505092915050565b60006101008301600083015161121c6000860182611322565b50602083015184820360208601526112348282611064565b9150506040830151848203604086015261124e8282611064565b91505060608301516112636060860182611322565b5060808301516112766080860182611322565b5060a083015161128960a0860182611322565b5060c083015161129c60c0860182611322565b5060e08301516112af60e0860182610f64565b508091505092915050565b60a0820160008201516112d06000850182611322565b5060208201516112e36020850182611322565b5060408201516112f66040850182610f73565b5060608201516113096060850182611322565b50608082015161131c6080850182611322565b50505050565b61132b816115e1565b82525050565b60006020820190506113466000830184610f82565b92915050565b600060208201905081810360008301526113668184610f91565b905092915050565b600060208201905081810360008301526113888184611006565b905092915050565b600060208201905081810360008301526113a98161109d565b9050919050565b600060208201905081810360008301526113c9816110c0565b9050919050565b600060208201905081810360008301526113e9816110e3565b9050919050565b6000602082019050818103600083015261140981611106565b9050919050565b6000602082019050818103600083015261142981611129565b9050919050565b6000602082019050818103600083015261144a8184611203565b905092915050565b600061145c61146d565b9050611468828261165f565b919050565b6000604051905090565b600067ffffffffffffffff82111561149257611491611766565b5b61149b826117a9565b9050602081019050919050565b6000819050602082019050919050565b6000819050602082019050919050565b600081519050919050565b600081519050919050565b600081519050919050565b6000602082019050919050565b6000602082019050919050565b600082825260208201905092915050565b600082825260208201905092915050565b600082825260208201905092915050565b600082825260208201905092915050565b6000611552826115e1565b915061155d836115e1565b9250827fffffffffffffffffffffffffffffffffffffffffffffffffffffffffffffffff03821115611592576115916116d9565b5b828201905092915050565b60006115a8826115c1565b9050919050565b60006115ba826115c1565b9050919050565b600073ffffffffffffffffffffffffffffffffffffffff82169050919050565b6000819050919050565b82818337600083830152505050565b60005b838110156116185780820151818401526020810190506115fd565b83811115611627576000848401525b50505050565b6000600282049050600182168061164557607f821691505b6020821081141561165957611658611708565b5b50919050565b611668826117a9565b810181811067ffffffffffffffff8211171561168757611686611766565b5b80604052505050565b600061169b826115e1565b91507fffffffffffffffffffffffffffffffffffffffffffffffffffffffffffffffff8214156116ce576116cd6116d9565b5b600182019050919050565b7f4e487b7100000000000000000000000000000000000000000000000000000000600052601160045260246000fd5b7f4e487b7100000000000000000000000000000000000000000000000000000000600052602260045260246000fd5b7f4e487b7100000000000000000000000000000000000000000000000000000000600052603260045260246000fd5b7f4e487b7100000000000000000000000000000000000000000000000000000000600052604160045260246000fd5b600080fd5b600080fd5b600080fd5b600080fd5b6000601f19601f8301169050919050565b7f456e6420646174652d74696d652073686f756c6420626520677265617465722060008201527f7468616e20737461727420646174652d74696d652e0000000000000000000000602082015250565b7f537461727420646174652d74696d652073686f756c642062652067726561746560008201527f72207468616e2063757272656e7420646174652d74696d652e00000000000000602082015250565b7f46756e64202e0000000000000000000000000000000000000000000000000000600082015250565b7f4f6e6c79206d616e6167657220697320616c6c6f77656420746f20616c6c6f7760008201527f656420746f2063616c6c20746869732066756e6374696f6e2e00000000000000602082015250565b7f46756e6420656e642d6461746520686173206e6f74207265616368656420796560008201527f742e000000000000000000000000000000000000000000000000000000000000602082015250565b611928816115af565b811461193357600080fd5b50565b61193f816115e1565b811461194a57600080fd5b5056fea26469706673582212207bf990d3aa95f51709fcf041c61ad20336578d752ce86792439049cdb985aadd64736f6c63430008070033",
					"opcodes": "PUSH1 0x80 PUSH1 0x40 MSTORE CALLVALUE DUP1 ISZERO PUSH2 0x10 JUMPI PUSH1 0x0 DUP1 REVERT JUMPDEST POP CALLER PUSH1 0x0 DUP1 PUSH2 0x100 EXP DUP2 SLOAD DUP2 PUSH20 0xFFFFFFFFFFFFFFFFFFFFFFFFFFFFFFFFFFFFFFFF MUL NOT AND SWAP1 DUP4 PUSH20 0xFFFFFFFFFFFFFFFFFFFFFFFFFFFFFFFFFFFFFFFF AND MUL OR SWAP1 SSTORE POP PUSH2 0x1983 DUP1 PUSH2 0x60 PUSH1 0x0 CODECOPY PUSH1 0x0 RETURN INVALID PUSH1 0x80 PUSH1 0x40 MSTORE CALLVALUE DUP1 ISZERO PUSH2 0x10 JUMPI PUSH1 0x0 DUP1 REVERT JUMPDEST POP PUSH1 0x4 CALLDATASIZE LT PUSH2 0x7D JUMPI PUSH1 0x0 CALLDATALOAD PUSH1 0xE0 SHR DUP1 PUSH4 0x26EF2ADF GT PUSH2 0x5B JUMPI DUP1 PUSH4 0x26EF2ADF EQ PUSH2 0xEC JUMPI DUP1 PUSH4 0x481C6A75 EQ PUSH2 0x11C JUMPI DUP1 PUSH4 0x5114CB52 EQ PUSH2 0x13A JUMPI DUP1 PUSH4 0x526ED285 EQ PUSH2 0x156 JUMPI PUSH2 0x7D JUMP JUMPDEST DUP1 PUSH4 0x135A34A2 EQ PUSH2 0x82 JUMPI DUP1 PUSH4 0x149E685A EQ PUSH2 0x9E JUMPI DUP1 PUSH4 0x1C69B464 EQ PUSH2 0xCE JUMPI JUMPDEST PUSH1 0x0 DUP1 REVERT JUMPDEST PUSH2 0x9C PUSH1 0x4 DUP1 CALLDATASIZE SUB DUP2 ADD SWAP1 PUSH2 0x97 SWAP2 SWAP1 PUSH2 0xEF8 JUMP JUMPDEST PUSH2 0x172 JUMP JUMPDEST STOP JUMPDEST PUSH2 0xB8 PUSH1 0x4 DUP1 CALLDATASIZE SUB DUP2 ADD SWAP1 PUSH2 0xB3 SWAP2 SWAP1 PUSH2 0xECB JUMP JUMPDEST PUSH2 0x2E2 JUMP JUMPDEST PUSH1 0x40 MLOAD PUSH2 0xC5 SWAP2 SWAP1 PUSH2 0x1430 JUMP JUMPDEST PUSH1 0x40 MLOAD DUP1 SWAP2 SUB SWAP1 RETURN JUMPDEST PUSH2 0xD6 PUSH2 0x4BC JUMP JUMPDEST PUSH1 0x40 MLOAD PUSH2 0xE3 SWAP2 SWAP1 PUSH2 0x134C JUMP JUMPDEST PUSH1 0x40 MLOAD DUP1 SWAP2 SUB SWAP1 RETURN JUMPDEST PUSH2 0x106 PUSH1 0x4 DUP1 CALLDATASIZE SUB DUP2 ADD SWAP1 PUSH2 0x101 SWAP2 SWAP1 PUSH2 0xECB JUMP JUMPDEST PUSH2 0x729 JUMP JUMPDEST PUSH1 0x40 MLOAD PUSH2 0x113 SWAP2 SWAP1 PUSH2 0x136E JUMP JUMPDEST PUSH1 0x40 MLOAD DUP1 SWAP2 SUB SWAP1 RETURN JUMPDEST PUSH2 0x124 PUSH2 0x8B6 JUMP JUMPDEST PUSH1 0x40 MLOAD PUSH2 0x131 SWAP2 SWAP1 PUSH2 0x1331 JUMP JUMPDEST PUSH1 0x40 MLOAD DUP1 SWAP2 SUB SWAP1 RETURN JUMPDEST PUSH2 0x154 PUSH1 0x4 DUP1 CALLDATASIZE SUB DUP2 ADD SWAP1 PUSH2 0x14F SWAP2 SWAP1 PUSH2 0xECB JUMP JUMPDEST PUSH2 0x8DA JUMP JUMPDEST STOP JUMPDEST PUSH2 0x170 PUSH1 0x4 DUP1 CALLDATASIZE SUB DUP2 ADD SWAP1 PUSH2 0x16B SWAP2 SWAP1 PUSH2 0xE06 JUMP JUMPDEST PUSH2 0xA38 JUMP JUMPDEST STOP JUMPDEST PUSH1 0x0 PUSH1 0x1 PUSH1 0x0 DUP5 DUP2 MSTORE PUSH1 0x20 ADD SWAP1 DUP2 MSTORE PUSH1 0x20 ADD PUSH1 0x0 KECCAK256 SWAP1 POP TIMESTAMP DUP2 PUSH1 0x3 ADD SLOAD LT PUSH2 0x1CF JUMPI PUSH1 0x40 MLOAD PUSH32 0x8C379A000000000000000000000000000000000000000000000000000000000 DUP2 MSTORE PUSH1 0x4 ADD PUSH2 0x1C6 SWAP1 PUSH2 0x13D0 JUMP JUMPDEST PUSH1 0x40 MLOAD DUP1 SWAP2 SUB SWAP1 REVERT JUMPDEST PUSH1 0x2 PUSH1 0x40 MLOAD DUP1 PUSH1 0xA0 ADD PUSH1 0x40 MSTORE DUP1 PUSH1 0x4 SLOAD DUP2 MSTORE PUSH1 0x20 ADD DUP6 DUP2 MSTORE PUSH1 0x20 ADD CALLER PUSH20 0xFFFFFFFFFFFFFFFFFFFFFFFFFFFFFFFFFFFFFFFF AND DUP2 MSTORE PUSH1 0x20 ADD DUP5 DUP2 MSTORE PUSH1 0x20 ADD TIMESTAMP DUP2 MSTORE POP SWAP1 DUP1 PUSH1 0x1 DUP2 SLOAD ADD DUP1 DUP3 SSTORE DUP1 SWAP2 POP POP PUSH1 0x1 SWAP1 SUB SWAP1 PUSH1 0x0 MSTORE PUSH1 0x20 PUSH1 0x0 KECCAK256 SWAP1 PUSH1 0x5 MUL ADD PUSH1 0x0 SWAP1 SWAP2 SWAP1 SWAP2 SWAP1 SWAP2 POP PUSH1 0x0 DUP3 ADD MLOAD DUP2 PUSH1 0x0 ADD SSTORE PUSH1 0x20 DUP3 ADD MLOAD DUP2 PUSH1 0x1 ADD SSTORE PUSH1 0x40 DUP3 ADD MLOAD DUP2 PUSH1 0x2 ADD PUSH1 0x0 PUSH2 0x100 EXP DUP2 SLOAD DUP2 PUSH20 0xFFFFFFFFFFFFFFFFFFFFFFFFFFFFFFFFFFFFFFFF MUL NOT AND SWAP1 DUP4 PUSH20 0xFFFFFFFFFFFFFFFFFFFFFFFFFFFFFFFFFFFFFFFF AND MUL OR SWAP1 SSTORE POP PUSH1 0x60 DUP3 ADD MLOAD DUP2 PUSH1 0x3 ADD SSTORE PUSH1 0x80 DUP3 ADD MLOAD DUP2 PUSH1 0x4 ADD SSTORE POP POP PUSH1 0x4 PUSH1 0x0 DUP2 SLOAD DUP1 SWAP3 SWAP2 SWAP1 PUSH2 0x2BD SWAP1 PUSH2 0x1690 JUMP JUMPDEST SWAP2 SWAP1 POP SSTORE POP DUP2 DUP2 PUSH1 0x6 ADD PUSH1 0x0 DUP3 DUP3 SLOAD PUSH2 0x2D6 SWAP2 SWAP1 PUSH2 0x1547 JUMP JUMPDEST SWAP3 POP POP DUP2 SWAP1 SSTORE POP POP POP POP JUMP JUMPDEST PUSH2 0x2EA PUSH2 0xC29 JUMP JUMPDEST PUSH1 0x1 PUSH1 0x0 DUP4 DUP2 MSTORE PUSH1 0x20 ADD SWAP1 DUP2 MSTORE PUSH1 0x20 ADD PUSH1 0x0 KECCAK256 PUSH1 0x40 MLOAD DUP1 PUSH2 0x100 ADD PUSH1 0x40 MSTORE SWAP1 DUP2 PUSH1 0x0 DUP3 ADD SLOAD DUP2 MSTORE PUSH1 0x20 ADD PUSH1 0x1 DUP3 ADD DUP1 SLOAD PUSH2 0x323 SWAP1 PUSH2 0x162D JUMP JUMPDEST DUP1 PUSH1 0x1F ADD PUSH1 0x20 DUP1 SWAP2 DIV MUL PUSH1 0x20 ADD PUSH1 0x40 MLOAD SWAP1 DUP2 ADD PUSH1 0x40 MSTORE DUP1 SWAP3 SWAP2 SWAP1 DUP2 DUP2 MSTORE PUSH1 0x20 ADD DUP3 DUP1 SLOAD PUSH2 0x34F SWAP1 PUSH2 0x162D JUMP JUMPDEST DUP1 ISZERO PUSH2 0x39C JUMPI DUP1 PUSH1 0x1F LT PUSH2 0x371 JUMPI PUSH2 0x100 DUP1 DUP4 SLOAD DIV MUL DUP4 MSTORE SWAP2 PUSH1 0x20 ADD SWAP2 PUSH2 0x39C JUMP JUMPDEST DUP3 ADD SWAP2 SWAP1 PUSH1 0x0 MSTORE PUSH1 0x20 PUSH1 0x0 KECCAK256 SWAP1 JUMPDEST DUP2 SLOAD DUP2 MSTORE SWAP1 PUSH1 0x1 ADD SWAP1 PUSH1 0x20 ADD DUP1 DUP4 GT PUSH2 0x37F JUMPI DUP3 SWAP1 SUB PUSH1 0x1F AND DUP3 ADD SWAP2 JUMPDEST POP POP POP POP POP DUP2 MSTORE PUSH1 0x20 ADD PUSH1 0x2 DUP3 ADD DUP1 SLOAD PUSH2 0x3B5 SWAP1 PUSH2 0x162D JUMP JUMPDEST DUP1 PUSH1 0x1F ADD PUSH1 0x20 DUP1 SWAP2 DIV MUL PUSH1 0x20 ADD PUSH1 0x40 MLOAD SWAP1 DUP2 ADD PUSH1 0x40 MSTORE DUP1 SWAP3 SWAP2 SWAP1 DUP2 DUP2 MSTORE PUSH1 0x20 ADD DUP3 DUP1 SLOAD PUSH2 0x3E1 SWAP1 PUSH2 0x162D JUMP JUMPDEST DUP1 ISZERO PUSH2 0x42E JUMPI DUP1 PUSH1 0x1F LT PUSH2 0x403 JUMPI PUSH2 0x100 DUP1 DUP4 SLOAD DIV MUL DUP4 MSTORE SWAP2 PUSH1 0x20 ADD SWAP2 PUSH2 0x42E JUMP JUMPDEST DUP3 ADD SWAP2 SWAP1 PUSH1 0x0 MSTORE PUSH1 0x20 PUSH1 0x0 KECCAK256 SWAP1 JUMPDEST DUP2 SLOAD DUP2 MSTORE SWAP1 PUSH1 0x1 ADD SWAP1 PUSH1 0x20 ADD DUP1 DUP4 GT PUSH2 0x411 JUMPI DUP3 SWAP1 SUB PUSH1 0x1F AND DUP3 ADD SWAP2 JUMPDEST POP POP POP POP POP DUP2 MSTORE PUSH1 0x20 ADD PUSH1 0x3 DUP3 ADD SLOAD DUP2 MSTORE PUSH1 0x20 ADD PUSH1 0x4 DUP3 ADD SLOAD DUP2 MSTORE PUSH1 0x20 ADD PUSH1 0x5 DUP3 ADD SLOAD DUP2 MSTORE PUSH1 0x20 ADD PUSH1 0x6 DUP3 ADD SLOAD DUP2 MSTORE PUSH1 0x20 ADD PUSH1 0x7 DUP3 ADD PUSH1 0x0 SWAP1 SLOAD SWAP1 PUSH2 0x100 EXP SWAP1 DIV PUSH20 0xFFFFFFFFFFFFFFFFFFFFFFFFFFFFFFFFFFFFFFFF AND PUSH20 0xFFFFFFFFFFFFFFFFFFFFFFFFFFFFFFFFFFFFFFFF AND PUSH20 0xFFFFFFFFFFFFFFFFFFFFFFFFFFFFFFFFFFFFFFFF AND DUP2 MSTORE POP POP SWAP1 POP SWAP2 SWAP1 POP JUMP JUMPDEST PUSH1 0x60 PUSH1 0x0 PUSH1 0x3 SLOAD PUSH8 0xFFFFFFFFFFFFFFFF DUP2 GT ISZERO PUSH2 0x4DC JUMPI PUSH2 0x4DB PUSH2 0x1766 JUMP JUMPDEST JUMPDEST PUSH1 0x40 MLOAD SWAP1 DUP1 DUP3 MSTORE DUP1 PUSH1 0x20 MUL PUSH1 0x20 ADD DUP3 ADD PUSH1 0x40 MSTORE DUP1 ISZERO PUSH2 0x515 JUMPI DUP2 PUSH1 0x20 ADD JUMPDEST PUSH2 0x502 PUSH2 0xC29 JUMP JUMPDEST DUP2 MSTORE PUSH1 0x20 ADD SWAP1 PUSH1 0x1 SWAP1 SUB SWAP1 DUP2 PUSH2 0x4FA JUMPI SWAP1 POP JUMPDEST POP SWAP1 POP PUSH1 0x0 JUMPDEST PUSH1 0x3 SLOAD DUP2 LT ISZERO PUSH2 0x721 JUMPI PUSH1 0x1 PUSH1 0x0 DUP3 DUP2 MSTORE PUSH1 0x20 ADD SWAP1 DUP2 MSTORE PUSH1 0x20 ADD PUSH1 0x0 KECCAK256 PUSH1 0x40 MLOAD DUP1 PUSH2 0x100 ADD PUSH1 0x40 MSTORE SWAP1 DUP2 PUSH1 0x0 DUP3 ADD SLOAD DUP2 MSTORE PUSH1 0x20 ADD PUSH1 0x1 DUP3 ADD DUP1 SLOAD PUSH2 0x55E SWAP1 PUSH2 0x162D JUMP JUMPDEST DUP1 PUSH1 0x1F ADD PUSH1 0x20 DUP1 SWAP2 DIV MUL PUSH1 0x20 ADD PUSH1 0x40 MLOAD SWAP1 DUP2 ADD PUSH1 0x40 MSTORE DUP1 SWAP3 SWAP2 SWAP1 DUP2 DUP2 MSTORE PUSH1 0x20 ADD DUP3 DUP1 SLOAD PUSH2 0x58A SWAP1 PUSH2 0x162D JUMP JUMPDEST DUP1 ISZERO PUSH2 0x5D7 JUMPI DUP1 PUSH1 0x1F LT PUSH2 0x5AC JUMPI PUSH2 0x100 DUP1 DUP4 SLOAD DIV MUL DUP4 MSTORE SWAP2 PUSH1 0x20 ADD SWAP2 PUSH2 0x5D7 JUMP JUMPDEST DUP3 ADD SWAP2 SWAP1 PUSH1 0x0 MSTORE PUSH1 0x20 PUSH1 0x0 KECCAK256 SWAP1 JUMPDEST DUP2 SLOAD DUP2 MSTORE SWAP1 PUSH1 0x1 ADD SWAP1 PUSH1 0x20 ADD DUP1 DUP4 GT PUSH2 0x5BA JUMPI DUP3 SWAP1 SUB PUSH1 0x1F AND DUP3 ADD SWAP2 JUMPDEST POP POP POP POP POP DUP2 MSTORE PUSH1 0x20 ADD PUSH1 0x2 DUP3 ADD DUP1 SLOAD PUSH2 0x5F0 SWAP1 PUSH2 0x162D JUMP JUMPDEST DUP1 PUSH1 0x1F ADD PUSH1 0x20 DUP1 SWAP2 DIV MUL PUSH1 0x20 ADD PUSH1 0x40 MLOAD SWAP1 DUP2 ADD PUSH1 0x40 MSTORE DUP1 SWAP3 SWAP2 SWAP1 DUP2 DUP2 MSTORE PUSH1 0x20 ADD DUP3 DUP1 SLOAD PUSH2 0x61C SWAP1 PUSH2 0x162D JUMP JUMPDEST DUP1 ISZERO PUSH2 0x669 JUMPI DUP1 PUSH1 0x1F LT PUSH2 0x63E JUMPI PUSH2 0x100 DUP1 DUP4 SLOAD DIV MUL DUP4 MSTORE SWAP2 PUSH1 0x20 ADD SWAP2 PUSH2 0x669 JUMP JUMPDEST DUP3 ADD SWAP2 SWAP1 PUSH1 0x0 MSTORE PUSH1 0x20 PUSH1 0x0 KECCAK256 SWAP1 JUMPDEST DUP2 SLOAD DUP2 MSTORE SWAP1 PUSH1 0x1 ADD SWAP1 PUSH1 0x20 ADD DUP1 DUP4 GT PUSH2 0x64C JUMPI DUP3 SWAP1 SUB PUSH1 0x1F AND DUP3 ADD SWAP2 JUMPDEST POP POP POP POP POP DUP2 MSTORE PUSH1 0x20 ADD PUSH1 0x3 DUP3 ADD SLOAD DUP2 MSTORE PUSH1 0x20 ADD PUSH1 0x4 DUP3 ADD SLOAD DUP2 MSTORE PUSH1 0x20 ADD PUSH1 0x5 DUP3 ADD SLOAD DUP2 MSTORE PUSH1 0x20 ADD PUSH1 0x6 DUP3 ADD SLOAD DUP2 MSTORE PUSH1 0x20 ADD PUSH1 0x7 DUP3 ADD PUSH1 0x0 SWAP1 SLOAD SWAP1 PUSH2 0x100 EXP SWAP1 DIV PUSH20 0xFFFFFFFFFFFFFFFFFFFFFFFFFFFFFFFFFFFFFFFF AND PUSH20 0xFFFFFFFFFFFFFFFFFFFFFFFFFFFFFFFFFFFFFFFF AND PUSH20 0xFFFFFFFFFFFFFFFFFFFFFFFFFFFFFFFFFFFFFFFF AND DUP2 MSTORE POP POP DUP3 DUP3 DUP2 MLOAD DUP2 LT PUSH2 0x703 JUMPI PUSH2 0x702 PUSH2 0x1737 JUMP JUMPDEST JUMPDEST PUSH1 0x20 MUL PUSH1 0x20 ADD ADD DUP2 SWAP1 MSTORE POP DUP1 DUP1 PUSH2 0x719 SWAP1 PUSH2 0x1690 JUMP JUMPDEST SWAP2 POP POP PUSH2 0x51B JUMP JUMPDEST POP DUP1 SWAP2 POP POP SWAP1 JUMP JUMPDEST PUSH1 0x60 PUSH1 0x0 PUSH1 0x4 SLOAD PUSH8 0xFFFFFFFFFFFFFFFF DUP2 GT ISZERO PUSH2 0x749 JUMPI PUSH2 0x748 PUSH2 0x1766 JUMP JUMPDEST JUMPDEST PUSH1 0x40 MLOAD SWAP1 DUP1 DUP3 MSTORE DUP1 PUSH1 0x20 MUL PUSH1 0x20 ADD DUP3 ADD PUSH1 0x40 MSTORE DUP1 ISZERO PUSH2 0x782 JUMPI DUP2 PUSH1 0x20 ADD JUMPDEST PUSH2 0x76F PUSH2 0xC84 JUMP JUMPDEST DUP2 MSTORE PUSH1 0x20 ADD SWAP1 PUSH1 0x1 SWAP1 SUB SWAP1 DUP2 PUSH2 0x767 JUMPI SWAP1 POP JUMPDEST POP SWAP1 POP PUSH1 0x0 DUP1 JUMPDEST PUSH1 0x4 SLOAD DUP2 LT ISZERO PUSH2 0x8AB JUMPI DUP5 PUSH1 0x2 DUP3 DUP2 SLOAD DUP2 LT PUSH2 0x7A8 JUMPI PUSH2 0x7A7 PUSH2 0x1737 JUMP JUMPDEST JUMPDEST SWAP1 PUSH1 0x0 MSTORE PUSH1 0x20 PUSH1 0x0 KECCAK256 SWAP1 PUSH1 0x5 MUL ADD PUSH1 0x1 ADD SLOAD EQ ISZERO PUSH2 0x898 JUMPI PUSH1 0x2 DUP2 DUP2 SLOAD DUP2 LT PUSH2 0x7D4 JUMPI PUSH2 0x7D3 PUSH2 0x1737 JUMP JUMPDEST JUMPDEST SWAP1 PUSH1 0x0 MSTORE PUSH1 0x20 PUSH1 0x0 KECCAK256 SWAP1 PUSH1 0x5 MUL ADD PUSH1 0x40 MLOAD DUP1 PUSH1 0xA0 ADD PUSH1 0x40 MSTORE SWAP1 DUP2 PUSH1 0x0 DUP3 ADD SLOAD DUP2 MSTORE PUSH1 0x20 ADD PUSH1 0x1 DUP3 ADD SLOAD DUP2 MSTORE PUSH1 0x20 ADD PUSH1 0x2 DUP3 ADD PUSH1 0x0 SWAP1 SLOAD SWAP1 PUSH2 0x100 EXP SWAP1 DIV PUSH20 0xFFFFFFFFFFFFFFFFFFFFFFFFFFFFFFFFFFFFFFFF AND PUSH20 0xFFFFFFFFFFFFFFFFFFFFFFFFFFFFFFFFFFFFFFFF AND PUSH20 0xFFFFFFFFFFFFFFFFFFFFFFFFFFFFFFFFFFFFFFFF AND DUP2 MSTORE PUSH1 0x20 ADD PUSH1 0x3 DUP3 ADD SLOAD DUP2 MSTORE PUSH1 0x20 ADD PUSH1 0x4 DUP3 ADD SLOAD DUP2 MSTORE POP POP DUP4 DUP4 DUP2 MLOAD DUP2 LT PUSH2 0x87E JUMPI PUSH2 0x87D PUSH2 0x1737 JUMP JUMPDEST JUMPDEST PUSH1 0x20 MUL PUSH1 0x20 ADD ADD DUP2 SWAP1 MSTORE POP DUP2 DUP1 PUSH2 0x894 SWAP1 PUSH2 0x1690 JUMP JUMPDEST SWAP3 POP POP JUMPDEST DUP1 DUP1 PUSH2 0x8A3 SWAP1 PUSH2 0x1690 JUMP JUMPDEST SWAP2 POP POP PUSH2 0x789 JUMP JUMPDEST POP DUP2 SWAP3 POP POP POP SWAP2 SWAP1 POP JUMP JUMPDEST PUSH1 0x0 DUP1 SLOAD SWAP1 PUSH2 0x100 EXP SWAP1 DIV PUSH20 0xFFFFFFFFFFFFFFFFFFFFFFFFFFFFFFFFFFFFFFFF AND DUP2 JUMP JUMPDEST CALLER PUSH20 0xFFFFFFFFFFFFFFFFFFFFFFFFFFFFFFFFFFFFFFFF AND PUSH1 0x0 DUP1 SLOAD SWAP1 PUSH2 0x100 EXP SWAP1 DIV PUSH20 0xFFFFFFFFFFFFFFFFFFFFFFFFFFFFFFFFFFFFFFFF AND PUSH20 0xFFFFFFFFFFFFFFFFFFFFFFFFFFFFFFFFFFFFFFFF AND EQ PUSH2 0x968 JUMPI PUSH1 0x40 MLOAD PUSH32 0x8C379A000000000000000000000000000000000000000000000000000000000 DUP2 MSTORE PUSH1 0x4 ADD PUSH2 0x95F SWAP1 PUSH2 0x13F0 JUMP JUMPDEST PUSH1 0x40 MLOAD DUP1 SWAP2 SUB SWAP1 REVERT JUMPDEST PUSH1 0x0 PUSH1 0x1 PUSH1 0x0 DUP4 DUP2 MSTORE PUSH1 0x20 ADD SWAP1 DUP2 MSTORE PUSH1 0x20 ADD PUSH1 0x0 KECCAK256 SWAP1 POP TIMESTAMP DUP2 PUSH1 0x4 ADD SLOAD LT PUSH2 0x9C5 JUMPI PUSH1 0x40 MLOAD PUSH32 0x8C379A000000000000000000000000000000000000000000000000000000000 DUP2 MSTORE PUSH1 0x4 ADD PUSH2 0x9BC SWAP1 PUSH2 0x1410 JUMP JUMPDEST PUSH1 0x40 MLOAD DUP1 SWAP2 SUB SWAP1 REVERT JUMPDEST DUP1 PUSH1 0x7 ADD PUSH1 0x0 SWAP1 SLOAD SWAP1 PUSH2 0x100 EXP SWAP1 DIV PUSH20 0xFFFFFFFFFFFFFFFFFFFFFFFFFFFFFFFFFFFFFFFF AND PUSH20 0xFFFFFFFFFFFFFFFFFFFFFFFFFFFFFFFFFFFFFFFF AND PUSH2 0x8FC DUP3 PUSH1 0x6 ADD SLOAD SWAP1 DUP2 ISZERO MUL SWAP1 PUSH1 0x40 MLOAD PUSH1 0x0 PUSH1 0x40 MLOAD DUP1 DUP4 SUB DUP2 DUP6 DUP9 DUP9 CALL SWAP4 POP POP POP POP ISZERO DUP1 ISZERO PUSH2 0xA33 JUMPI RETURNDATASIZE PUSH1 0x0 DUP1 RETURNDATACOPY RETURNDATASIZE PUSH1 0x0 REVERT JUMPDEST POP POP POP JUMP JUMPDEST CALLER PUSH20 0xFFFFFFFFFFFFFFFFFFFFFFFFFFFFFFFFFFFFFFFF AND PUSH1 0x0 DUP1 SLOAD SWAP1 PUSH2 0x100 EXP SWAP1 DIV PUSH20 0xFFFFFFFFFFFFFFFFFFFFFFFFFFFFFFFFFFFFFFFF AND PUSH20 0xFFFFFFFFFFFFFFFFFFFFFFFFFFFFFFFFFFFFFFFF AND EQ PUSH2 0xAC6 JUMPI PUSH1 0x40 MLOAD PUSH32 0x8C379A000000000000000000000000000000000000000000000000000000000 DUP2 MSTORE PUSH1 0x4 ADD PUSH2 0xABD SWAP1 PUSH2 0x13F0 JUMP JUMPDEST PUSH1 0x40 MLOAD DUP1 SWAP2 SUB SWAP1 REVERT JUMPDEST TIMESTAMP DUP5 GT PUSH2 0xB08 JUMPI PUSH1 0x40 MLOAD PUSH32 0x8C379A000000000000000000000000000000000000000000000000000000000 DUP2 MSTORE PUSH1 0x4 ADD PUSH2 0xAFF SWAP1 PUSH2 0x13B0 JUMP JUMPDEST PUSH1 0x40 MLOAD DUP1 SWAP2 SUB SWAP1 REVERT JUMPDEST DUP4 DUP4 GT PUSH2 0xB4A JUMPI PUSH1 0x40 MLOAD PUSH32 0x8C379A000000000000000000000000000000000000000000000000000000000 DUP2 MSTORE PUSH1 0x4 ADD PUSH2 0xB41 SWAP1 PUSH2 0x1390 JUMP JUMPDEST PUSH1 0x40 MLOAD DUP1 SWAP2 SUB SWAP1 REVERT JUMPDEST PUSH1 0x0 PUSH1 0x1 PUSH1 0x0 PUSH1 0x3 SLOAD DUP2 MSTORE PUSH1 0x20 ADD SWAP1 DUP2 MSTORE PUSH1 0x20 ADD PUSH1 0x0 KECCAK256 SWAP1 POP PUSH1 0x3 SLOAD DUP2 PUSH1 0x0 ADD DUP2 SWAP1 SSTORE POP DUP7 DUP2 PUSH1 0x1 ADD SWAP1 DUP1 MLOAD SWAP1 PUSH1 0x20 ADD SWAP1 PUSH2 0xB86 SWAP3 SWAP2 SWAP1 PUSH2 0xCC9 JUMP JUMPDEST POP DUP6 DUP2 PUSH1 0x2 ADD SWAP1 DUP1 MLOAD SWAP1 PUSH1 0x20 ADD SWAP1 PUSH2 0xB9F SWAP3 SWAP2 SWAP1 PUSH2 0xCC9 JUMP JUMPDEST POP DUP5 DUP2 PUSH1 0x3 ADD DUP2 SWAP1 SSTORE POP DUP4 DUP2 PUSH1 0x4 ADD DUP2 SWAP1 SSTORE POP DUP3 DUP2 PUSH1 0x5 ADD DUP2 SWAP1 SSTORE POP PUSH1 0x0 DUP2 PUSH1 0x6 ADD DUP2 SWAP1 SSTORE POP DUP2 DUP2 PUSH1 0x7 ADD PUSH1 0x0 PUSH2 0x100 EXP DUP2 SLOAD DUP2 PUSH20 0xFFFFFFFFFFFFFFFFFFFFFFFFFFFFFFFFFFFFFFFF MUL NOT AND SWAP1 DUP4 PUSH20 0xFFFFFFFFFFFFFFFFFFFFFFFFFFFFFFFFFFFFFFFF AND MUL OR SWAP1 SSTORE POP PUSH1 0x3 PUSH1 0x0 DUP2 SLOAD DUP1 SWAP3 SWAP2 SWAP1 PUSH2 0xC1B SWAP1 PUSH2 0x1690 JUMP JUMPDEST SWAP2 SWAP1 POP SSTORE POP POP POP POP POP POP POP POP JUMP JUMPDEST PUSH1 0x40 MLOAD DUP1 PUSH2 0x100 ADD PUSH1 0x40 MSTORE DUP1 PUSH1 0x0 DUP2 MSTORE PUSH1 0x20 ADD PUSH1 0x60 DUP2 MSTORE PUSH1 0x20 ADD PUSH1 0x60 DUP2 MSTORE PUSH1 0x20 ADD PUSH1 0x0 DUP2 MSTORE PUSH1 0x20 ADD PUSH1 0x0 DUP2 MSTORE PUSH1 0x20 ADD PUSH1 0x0 DUP2 MSTORE PUSH1 0x20 ADD PUSH1 0x0 DUP2 MSTORE PUSH1 0x20 ADD PUSH1 0x0 PUSH20 0xFFFFFFFFFFFFFFFFFFFFFFFFFFFFFFFFFFFFFFFF AND DUP2 MSTORE POP SWAP1 JUMP JUMPDEST PUSH1 0x40 MLOAD DUP1 PUSH1 0xA0 ADD PUSH1 0x40 MSTORE DUP1 PUSH1 0x0 DUP2 MSTORE PUSH1 0x20 ADD PUSH1 0x0 DUP2 MSTORE PUSH1 0x20 ADD PUSH1 0x0 PUSH20 0xFFFFFFFFFFFFFFFFFFFFFFFFFFFFFFFFFFFFFFFF AND DUP2 MSTORE PUSH1 0x20 ADD PUSH1 0x0 DUP2 MSTORE PUSH1 0x20 ADD PUSH1 0x0 DUP2 MSTORE POP SWAP1 JUMP JUMPDEST DUP3 DUP1 SLOAD PUSH2 0xCD5 SWAP1 PUSH2 0x162D JUMP JUMPDEST SWAP1 PUSH1 0x0 MSTORE PUSH1 0x20 PUSH1 0x0 KECCAK256 SWAP1 PUSH1 0x1F ADD PUSH1 0x20 SWAP1 DIV DUP2 ADD SWAP3 DUP3 PUSH2 0xCF7 JUMPI PUSH1 0x0 DUP6 SSTORE PUSH2 0xD3E JUMP JUMPDEST DUP3 PUSH1 0x1F LT PUSH2 0xD10 JUMPI DUP1 MLOAD PUSH1 0xFF NOT AND DUP4 DUP1 ADD OR DUP6 SSTORE PUSH2 0xD3E JUMP JUMPDEST DUP3 DUP1 ADD PUSH1 0x1 ADD DUP6 SSTORE DUP3 ISZERO PUSH2 0xD3E JUMPI SWAP2 DUP3 ADD JUMPDEST DUP3 DUP2 GT ISZERO PUSH2 0xD3D JUMPI DUP3 MLOAD DUP3 SSTORE SWAP2 PUSH1 0x20 ADD SWAP2 SWAP1 PUSH1 0x1 ADD SWAP1 PUSH2 0xD22 JUMP JUMPDEST JUMPDEST POP SWAP1 POP PUSH2 0xD4B SWAP2 SWAP1 PUSH2 0xD4F JUMP JUMPDEST POP SWAP1 JUMP JUMPDEST JUMPDEST DUP1 DUP3 GT ISZERO PUSH2 0xD68 JUMPI PUSH1 0x0 DUP2 PUSH1 0x0 SWAP1 SSTORE POP PUSH1 0x1 ADD PUSH2 0xD50 JUMP JUMPDEST POP SWAP1 JUMP JUMPDEST PUSH1 0x0 PUSH2 0xD7F PUSH2 0xD7A DUP5 PUSH2 0x1477 JUMP JUMPDEST PUSH2 0x1452 JUMP JUMPDEST SWAP1 POP DUP3 DUP2 MSTORE PUSH1 0x20 DUP2 ADD DUP5 DUP5 DUP5 ADD GT ISZERO PUSH2 0xD9B JUMPI PUSH2 0xD9A PUSH2 0x179A JUMP JUMPDEST JUMPDEST PUSH2 0xDA6 DUP5 DUP3 DUP6 PUSH2 0x15EB JUMP JUMPDEST POP SWAP4 SWAP3 POP POP POP JUMP JUMPDEST PUSH1 0x0 DUP2 CALLDATALOAD SWAP1 POP PUSH2 0xDBD DUP2 PUSH2 0x191F JUMP JUMPDEST SWAP3 SWAP2 POP POP JUMP JUMPDEST PUSH1 0x0 DUP3 PUSH1 0x1F DUP4 ADD SLT PUSH2 0xDD8 JUMPI PUSH2 0xDD7 PUSH2 0x1795 JUMP JUMPDEST JUMPDEST DUP2 CALLDATALOAD PUSH2 0xDE8 DUP5 DUP3 PUSH1 0x20 DUP7 ADD PUSH2 0xD6C JUMP JUMPDEST SWAP2 POP POP SWAP3 SWAP2 POP POP JUMP JUMPDEST PUSH1 0x0 DUP2 CALLDATALOAD SWAP1 POP PUSH2 0xE00 DUP2 PUSH2 0x1936 JUMP JUMPDEST SWAP3 SWAP2 POP POP JUMP JUMPDEST PUSH1 0x0 DUP1 PUSH1 0x0 DUP1 PUSH1 0x0 DUP1 PUSH1 0xC0 DUP8 DUP10 SUB SLT ISZERO PUSH2 0xE23 JUMPI PUSH2 0xE22 PUSH2 0x17A4 JUMP JUMPDEST JUMPDEST PUSH1 0x0 DUP8 ADD CALLDATALOAD PUSH8 0xFFFFFFFFFFFFFFFF DUP2 GT ISZERO PUSH2 0xE41 JUMPI PUSH2 0xE40 PUSH2 0x179F JUMP JUMPDEST JUMPDEST PUSH2 0xE4D DUP10 DUP3 DUP11 ADD PUSH2 0xDC3 JUMP JUMPDEST SWAP7 POP POP PUSH1 0x20 DUP8 ADD CALLDATALOAD PUSH8 0xFFFFFFFFFFFFFFFF DUP2 GT ISZERO PUSH2 0xE6E JUMPI PUSH2 0xE6D PUSH2 0x179F JUMP JUMPDEST JUMPDEST PUSH2 0xE7A DUP10 DUP3 DUP11 ADD PUSH2 0xDC3 JUMP JUMPDEST SWAP6 POP POP PUSH1 0x40 PUSH2 0xE8B DUP10 DUP3 DUP11 ADD PUSH2 0xDF1 JUMP JUMPDEST SWAP5 POP POP PUSH1 0x60 PUSH2 0xE9C DUP10 DUP3 DUP11 ADD PUSH2 0xDF1 JUMP JUMPDEST SWAP4 POP POP PUSH1 0x80 PUSH2 0xEAD DUP10 DUP3 DUP11 ADD PUSH2 0xDF1 JUMP JUMPDEST SWAP3 POP POP PUSH1 0xA0 PUSH2 0xEBE DUP10 DUP3 DUP11 ADD PUSH2 0xDAE JUMP JUMPDEST SWAP2 POP POP SWAP3 SWAP6 POP SWAP3 SWAP6 POP SWAP3 SWAP6 JUMP JUMPDEST PUSH1 0x0 PUSH1 0x20 DUP3 DUP5 SUB SLT ISZERO PUSH2 0xEE1 JUMPI PUSH2 0xEE0 PUSH2 0x17A4 JUMP JUMPDEST JUMPDEST PUSH1 0x0 PUSH2 0xEEF DUP5 DUP3 DUP6 ADD PUSH2 0xDF1 JUMP JUMPDEST SWAP2 POP POP SWAP3 SWAP2 POP POP JUMP JUMPDEST PUSH1 0x0 DUP1 PUSH1 0x40 DUP4 DUP6 SUB SLT ISZERO PUSH2 0xF0F JUMPI PUSH2 0xF0E PUSH2 0x17A4 JUMP JUMPDEST JUMPDEST PUSH1 0x0 PUSH2 0xF1D DUP6 DUP3 DUP7 ADD PUSH2 0xDF1 JUMP JUMPDEST SWAP3 POP POP PUSH1 0x20 PUSH2 0xF2E DUP6 DUP3 DUP7 ADD PUSH2 0xDF1 JUMP JUMPDEST SWAP2 POP POP SWAP3 POP SWAP3 SWAP1 POP JUMP JUMPDEST PUSH1 0x0 PUSH2 0xF44 DUP4 DUP4 PUSH2 0x114C JUMP JUMPDEST SWAP1 POP SWAP3 SWAP2 POP POP JUMP JUMPDEST PUSH1 0x0 PUSH2 0xF58 DUP4 DUP4 PUSH2 0x12BA JUMP JUMPDEST PUSH1 0xA0 DUP4 ADD SWAP1 POP SWAP3 SWAP2 POP POP JUMP JUMPDEST PUSH2 0xF6D DUP2 PUSH2 0x15AF JUMP JUMPDEST DUP3 MSTORE POP POP JUMP JUMPDEST PUSH2 0xF7C DUP2 PUSH2 0x159D JUMP JUMPDEST DUP3 MSTORE POP POP JUMP JUMPDEST PUSH2 0xF8B DUP2 PUSH2 0x159D JUMP JUMPDEST DUP3 MSTORE POP POP JUMP JUMPDEST PUSH1 0x0 PUSH2 0xF9C DUP3 PUSH2 0x14C8 JUMP JUMPDEST PUSH2 0xFA6 DUP2 DUP6 PUSH2 0x1503 JUMP JUMPDEST SWAP4 POP DUP4 PUSH1 0x20 DUP3 MUL DUP6 ADD PUSH2 0xFB8 DUP6 PUSH2 0x14A8 JUMP JUMPDEST DUP1 PUSH1 0x0 JUMPDEST DUP6 DUP2 LT ISZERO PUSH2 0xFF4 JUMPI DUP5 DUP5 SUB DUP10 MSTORE DUP2 MLOAD PUSH2 0xFD5 DUP6 DUP3 PUSH2 0xF38 JUMP JUMPDEST SWAP5 POP PUSH2 0xFE0 DUP4 PUSH2 0x14E9 JUMP JUMPDEST SWAP3 POP PUSH1 0x20 DUP11 ADD SWAP10 POP POP PUSH1 0x1 DUP2 ADD SWAP1 POP PUSH2 0xFBC JUMP JUMPDEST POP DUP3 SWAP8 POP DUP8 SWAP6 POP POP POP POP POP POP SWAP3 SWAP2 POP POP JUMP JUMPDEST PUSH1 0x0 PUSH2 0x1011 DUP3 PUSH2 0x14D3 JUMP JUMPDEST PUSH2 0x101B DUP2 DUP6 PUSH2 0x1514 JUMP JUMPDEST SWAP4 POP PUSH2 0x1026 DUP4 PUSH2 0x14B8 JUMP JUMPDEST DUP1 PUSH1 0x0 JUMPDEST DUP4 DUP2 LT ISZERO PUSH2 0x1057 JUMPI DUP2 MLOAD PUSH2 0x103E DUP9 DUP3 PUSH2 0xF4C JUMP JUMPDEST SWAP8 POP PUSH2 0x1049 DUP4 PUSH2 0x14F6 JUMP JUMPDEST SWAP3 POP POP PUSH1 0x1 DUP2 ADD SWAP1 POP PUSH2 0x102A JUMP JUMPDEST POP DUP6 SWAP4 POP POP POP POP SWAP3 SWAP2 POP POP JUMP JUMPDEST PUSH1 0x0 PUSH2 0x106F DUP3 PUSH2 0x14DE JUMP JUMPDEST PUSH2 0x1079 DUP2 DUP6 PUSH2 0x1525 JUMP JUMPDEST SWAP4 POP PUSH2 0x1089 DUP2 DUP6 PUSH1 0x20 DUP7 ADD PUSH2 0x15FA JUMP JUMPDEST PUSH2 0x1092 DUP2 PUSH2 0x17A9 JUMP JUMPDEST DUP5 ADD SWAP2 POP POP SWAP3 SWAP2 POP POP JUMP JUMPDEST PUSH1 0x0 PUSH2 0x10AA PUSH1 0x35 DUP4 PUSH2 0x1536 JUMP JUMPDEST SWAP2 POP PUSH2 0x10B5 DUP3 PUSH2 0x17BA JUMP JUMPDEST PUSH1 0x40 DUP3 ADD SWAP1 POP SWAP2 SWAP1 POP JUMP JUMPDEST PUSH1 0x0 PUSH2 0x10CD PUSH1 0x39 DUP4 PUSH2 0x1536 JUMP JUMPDEST SWAP2 POP PUSH2 0x10D8 DUP3 PUSH2 0x1809 JUMP JUMPDEST PUSH1 0x40 DUP3 ADD SWAP1 POP SWAP2 SWAP1 POP JUMP JUMPDEST PUSH1 0x0 PUSH2 0x10F0 PUSH1 0x6 DUP4 PUSH2 0x1536 JUMP JUMPDEST SWAP2 POP PUSH2 0x10FB DUP3 PUSH2 0x1858 JUMP JUMPDEST PUSH1 0x20 DUP3 ADD SWAP1 POP SWAP2 SWAP1 POP JUMP JUMPDEST PUSH1 0x0 PUSH2 0x1113 PUSH1 0x39 DUP4 PUSH2 0x1536 JUMP JUMPDEST SWAP2 POP PUSH2 0x111E DUP3 PUSH2 0x1881 JUMP JUMPDEST PUSH1 0x40 DUP3 ADD SWAP1 POP SWAP2 SWAP1 POP JUMP JUMPDEST PUSH1 0x0 PUSH2 0x1136 PUSH1 0x22 DUP4 PUSH2 0x1536 JUMP JUMPDEST SWAP2 POP PUSH2 0x1141 DUP3 PUSH2 0x18D0 JUMP JUMPDEST PUSH1 0x40 DUP3 ADD SWAP1 POP SWAP2 SWAP1 POP JUMP JUMPDEST PUSH1 0x0 PUSH2 0x100 DUP4 ADD PUSH1 0x0 DUP4 ADD MLOAD PUSH2 0x1165 PUSH1 0x0 DUP7 ADD DUP3 PUSH2 0x1322 JUMP JUMPDEST POP PUSH1 0x20 DUP4 ADD MLOAD DUP5 DUP3 SUB PUSH1 0x20 DUP7 ADD MSTORE PUSH2 0x117D DUP3 DUP3 PUSH2 0x1064 JUMP JUMPDEST SWAP2 POP POP PUSH1 0x40 DUP4 ADD MLOAD DUP5 DUP3 SUB PUSH1 0x40 DUP7 ADD MSTORE PUSH2 0x1197 DUP3 DUP3 PUSH2 0x1064 JUMP JUMPDEST SWAP2 POP POP PUSH1 0x60 DUP4 ADD MLOAD PUSH2 0x11AC PUSH1 0x60 DUP7 ADD DUP3 PUSH2 0x1322 JUMP JUMPDEST POP PUSH1 0x80 DUP4 ADD MLOAD PUSH2 0x11BF PUSH1 0x80 DUP7 ADD DUP3 PUSH2 0x1322 JUMP JUMPDEST POP PUSH1 0xA0 DUP4 ADD MLOAD PUSH2 0x11D2 PUSH1 0xA0 DUP7 ADD DUP3 PUSH2 0x1322 JUMP JUMPDEST POP PUSH1 0xC0 DUP4 ADD MLOAD PUSH2 0x11E5 PUSH1 0xC0 DUP7 ADD DUP3 PUSH2 0x1322 JUMP JUMPDEST POP PUSH1 0xE0 DUP4 ADD MLOAD PUSH2 0x11F8 PUSH1 0xE0 DUP7 ADD DUP3 PUSH2 0xF64 JUMP JUMPDEST POP DUP1 SWAP2 POP POP SWAP3 SWAP2 POP POP JUMP JUMPDEST PUSH1 0x0 PUSH2 0x100 DUP4 ADD PUSH1 0x0 DUP4 ADD MLOAD PUSH2 0x121C PUSH1 0x0 DUP7 ADD DUP3 PUSH2 0x1322 JUMP JUMPDEST POP PUSH1 0x20 DUP4 ADD MLOAD DUP5 DUP3 SUB PUSH1 0x20 DUP7 ADD MSTORE PUSH2 0x1234 DUP3 DUP3 PUSH2 0x1064 JUMP JUMPDEST SWAP2 POP POP PUSH1 0x40 DUP4 ADD MLOAD DUP5 DUP3 SUB PUSH1 0x40 DUP7 ADD MSTORE PUSH2 0x124E DUP3 DUP3 PUSH2 0x1064 JUMP JUMPDEST SWAP2 POP POP PUSH1 0x60 DUP4 ADD MLOAD PUSH2 0x1263 PUSH1 0x60 DUP7 ADD DUP3 PUSH2 0x1322 JUMP JUMPDEST POP PUSH1 0x80 DUP4 ADD MLOAD PUSH2 0x1276 PUSH1 0x80 DUP7 ADD DUP3 PUSH2 0x1322 JUMP JUMPDEST POP PUSH1 0xA0 DUP4 ADD MLOAD PUSH2 0x1289 PUSH1 0xA0 DUP7 ADD DUP3 PUSH2 0x1322 JUMP JUMPDEST POP PUSH1 0xC0 DUP4 ADD MLOAD PUSH2 0x129C PUSH1 0xC0 DUP7 ADD DUP3 PUSH2 0x1322 JUMP JUMPDEST POP PUSH1 0xE0 DUP4 ADD MLOAD PUSH2 0x12AF PUSH1 0xE0 DUP7 ADD DUP3 PUSH2 0xF64 JUMP JUMPDEST POP DUP1 SWAP2 POP POP SWAP3 SWAP2 POP POP JUMP JUMPDEST PUSH1 0xA0 DUP3 ADD PUSH1 0x0 DUP3 ADD MLOAD PUSH2 0x12D0 PUSH1 0x0 DUP6 ADD DUP3 PUSH2 0x1322 JUMP JUMPDEST POP PUSH1 0x20 DUP3 ADD MLOAD PUSH2 0x12E3 PUSH1 0x20 DUP6 ADD DUP3 PUSH2 0x1322 JUMP JUMPDEST POP PUSH1 0x40 DUP3 ADD MLOAD PUSH2 0x12F6 PUSH1 0x40 DUP6 ADD DUP3 PUSH2 0xF73 JUMP JUMPDEST POP PUSH1 0x60 DUP3 ADD MLOAD PUSH2 0x1309 PUSH1 0x60 DUP6 ADD DUP3 PUSH2 0x1322 JUMP JUMPDEST POP PUSH1 0x80 DUP3 ADD MLOAD PUSH2 0x131C PUSH1 0x80 DUP6 ADD DUP3 PUSH2 0x1322 JUMP JUMPDEST POP POP POP POP JUMP JUMPDEST PUSH2 0x132B DUP2 PUSH2 0x15E1 JUMP JUMPDEST DUP3 MSTORE POP POP JUMP JUMPDEST PUSH1 0x0 PUSH1 0x20 DUP3 ADD SWAP1 POP PUSH2 0x1346 PUSH1 0x0 DUP4 ADD DUP5 PUSH2 0xF82 JUMP JUMPDEST SWAP3 SWAP2 POP POP JUMP JUMPDEST PUSH1 0x0 PUSH1 0x20 DUP3 ADD SWAP1 POP DUP2 DUP2 SUB PUSH1 0x0 DUP4 ADD MSTORE PUSH2 0x1366 DUP2 DUP5 PUSH2 0xF91 JUMP JUMPDEST SWAP1 POP SWAP3 SWAP2 POP POP JUMP JUMPDEST PUSH1 0x0 PUSH1 0x20 DUP3 ADD SWAP1 POP DUP2 DUP2 SUB PUSH1 0x0 DUP4 ADD MSTORE PUSH2 0x1388 DUP2 DUP5 PUSH2 0x1006 JUMP JUMPDEST SWAP1 POP SWAP3 SWAP2 POP POP JUMP JUMPDEST PUSH1 0x0 PUSH1 0x20 DUP3 ADD SWAP1 POP DUP2 DUP2 SUB PUSH1 0x0 DUP4 ADD MSTORE PUSH2 0x13A9 DUP2 PUSH2 0x109D JUMP JUMPDEST SWAP1 POP SWAP2 SWAP1 POP JUMP JUMPDEST PUSH1 0x0 PUSH1 0x20 DUP3 ADD SWAP1 POP DUP2 DUP2 SUB PUSH1 0x0 DUP4 ADD MSTORE PUSH2 0x13C9 DUP2 PUSH2 0x10C0 JUMP JUMPDEST SWAP1 POP SWAP2 SWAP1 POP JUMP JUMPDEST PUSH1 0x0 PUSH1 0x20 DUP3 ADD SWAP1 POP DUP2 DUP2 SUB PUSH1 0x0 DUP4 ADD MSTORE PUSH2 0x13E9 DUP2 PUSH2 0x10E3 JUMP JUMPDEST SWAP1 POP SWAP2 SWAP1 POP JUMP JUMPDEST PUSH1 0x0 PUSH1 0x20 DUP3 ADD SWAP1 POP DUP2 DUP2 SUB PUSH1 0x0 DUP4 ADD MSTORE PUSH2 0x1409 DUP2 PUSH2 0x1106 JUMP JUMPDEST SWAP1 POP SWAP2 SWAP1 POP JUMP JUMPDEST PUSH1 0x0 PUSH1 0x20 DUP3 ADD SWAP1 POP DUP2 DUP2 SUB PUSH1 0x0 DUP4 ADD MSTORE PUSH2 0x1429 DUP2 PUSH2 0x1129 JUMP JUMPDEST SWAP1 POP SWAP2 SWAP1 POP JUMP JUMPDEST PUSH1 0x0 PUSH1 0x20 DUP3 ADD SWAP1 POP DUP2 DUP2 SUB PUSH1 0x0 DUP4 ADD MSTORE PUSH2 0x144A DUP2 DUP5 PUSH2 0x1203 JUMP JUMPDEST SWAP1 POP SWAP3 SWAP2 POP POP JUMP JUMPDEST PUSH1 0x0 PUSH2 0x145C PUSH2 0x146D JUMP JUMPDEST SWAP1 POP PUSH2 0x1468 DUP3 DUP3 PUSH2 0x165F JUMP JUMPDEST SWAP2 SWAP1 POP JUMP JUMPDEST PUSH1 0x0 PUSH1 0x40 MLOAD SWAP1 POP SWAP1 JUMP JUMPDEST PUSH1 0x0 PUSH8 0xFFFFFFFFFFFFFFFF DUP3 GT ISZERO PUSH2 0x1492 JUMPI PUSH2 0x1491 PUSH2 0x1766 JUMP JUMPDEST JUMPDEST PUSH2 0x149B DUP3 PUSH2 0x17A9 JUMP JUMPDEST SWAP1 POP PUSH1 0x20 DUP2 ADD SWAP1 POP SWAP2 SWAP1 POP JUMP JUMPDEST PUSH1 0x0 DUP2 SWAP1 POP PUSH1 0x20 DUP3 ADD SWAP1 POP SWAP2 SWAP1 POP JUMP JUMPDEST PUSH1 0x0 DUP2 SWAP1 POP PUSH1 0x20 DUP3 ADD SWAP1 POP SWAP2 SWAP1 POP JUMP JUMPDEST PUSH1 0x0 DUP2 MLOAD SWAP1 POP SWAP2 SWAP1 POP JUMP JUMPDEST PUSH1 0x0 DUP2 MLOAD SWAP1 POP SWAP2 SWAP1 POP JUMP JUMPDEST PUSH1 0x0 DUP2 MLOAD SWAP1 POP SWAP2 SWAP1 POP JUMP JUMPDEST PUSH1 0x0 PUSH1 0x20 DUP3 ADD SWAP1 POP SWAP2 SWAP1 POP JUMP JUMPDEST PUSH1 0x0 PUSH1 0x20 DUP3 ADD SWAP1 POP SWAP2 SWAP1 POP JUMP JUMPDEST PUSH1 0x0 DUP3 DUP3 MSTORE PUSH1 0x20 DUP3 ADD SWAP1 POP SWAP3 SWAP2 POP POP JUMP JUMPDEST PUSH1 0x0 DUP3 DUP3 MSTORE PUSH1 0x20 DUP3 ADD SWAP1 POP SWAP3 SWAP2 POP POP JUMP JUMPDEST PUSH1 0x0 DUP3 DUP3 MSTORE PUSH1 0x20 DUP3 ADD SWAP1 POP SWAP3 SWAP2 POP POP JUMP JUMPDEST PUSH1 0x0 DUP3 DUP3 MSTORE PUSH1 0x20 DUP3 ADD SWAP1 POP SWAP3 SWAP2 POP POP JUMP JUMPDEST PUSH1 0x0 PUSH2 0x1552 DUP3 PUSH2 0x15E1 JUMP JUMPDEST SWAP2 POP PUSH2 0x155D DUP4 PUSH2 0x15E1 JUMP JUMPDEST SWAP3 POP DUP3 PUSH32 0xFFFFFFFFFFFFFFFFFFFFFFFFFFFFFFFFFFFFFFFFFFFFFFFFFFFFFFFFFFFFFFFF SUB DUP3 GT ISZERO PUSH2 0x1592 JUMPI PUSH2 0x1591 PUSH2 0x16D9 JUMP JUMPDEST JUMPDEST DUP3 DUP3 ADD SWAP1 POP SWAP3 SWAP2 POP POP JUMP JUMPDEST PUSH1 0x0 PUSH2 0x15A8 DUP3 PUSH2 0x15C1 JUMP JUMPDEST SWAP1 POP SWAP2 SWAP1 POP JUMP JUMPDEST PUSH1 0x0 PUSH2 0x15BA DUP3 PUSH2 0x15C1 JUMP JUMPDEST SWAP1 POP SWAP2 SWAP1 POP JUMP JUMPDEST PUSH1 0x0 PUSH20 0xFFFFFFFFFFFFFFFFFFFFFFFFFFFFFFFFFFFFFFFF DUP3 AND SWAP1 POP SWAP2 SWAP1 POP JUMP JUMPDEST PUSH1 0x0 DUP2 SWAP1 POP SWAP2 SWAP1 POP JUMP JUMPDEST DUP3 DUP2 DUP4 CALLDATACOPY PUSH1 0x0 DUP4 DUP4 ADD MSTORE POP POP POP JUMP JUMPDEST PUSH1 0x0 JUMPDEST DUP4 DUP2 LT ISZERO PUSH2 0x1618 JUMPI DUP1 DUP3 ADD MLOAD DUP2 DUP5 ADD MSTORE PUSH1 0x20 DUP2 ADD SWAP1 POP PUSH2 0x15FD JUMP JUMPDEST DUP4 DUP2 GT ISZERO PUSH2 0x1627 JUMPI PUSH1 0x0 DUP5 DUP5 ADD MSTORE JUMPDEST POP POP POP POP JUMP JUMPDEST PUSH1 0x0 PUSH1 0x2 DUP3 DIV SWAP1 POP PUSH1 0x1 DUP3 AND DUP1 PUSH2 0x1645 JUMPI PUSH1 0x7F DUP3 AND SWAP2 POP JUMPDEST PUSH1 0x20 DUP3 LT DUP2 EQ ISZERO PUSH2 0x1659 JUMPI PUSH2 0x1658 PUSH2 0x1708 JUMP JUMPDEST JUMPDEST POP SWAP2 SWAP1 POP JUMP JUMPDEST PUSH2 0x1668 DUP3 PUSH2 0x17A9 JUMP JUMPDEST DUP2 ADD DUP2 DUP2 LT PUSH8 0xFFFFFFFFFFFFFFFF DUP3 GT OR ISZERO PUSH2 0x1687 JUMPI PUSH2 0x1686 PUSH2 0x1766 JUMP JUMPDEST JUMPDEST DUP1 PUSH1 0x40 MSTORE POP POP POP JUMP JUMPDEST PUSH1 0x0 PUSH2 0x169B DUP3 PUSH2 0x15E1 JUMP JUMPDEST SWAP2 POP PUSH32 0xFFFFFFFFFFFFFFFFFFFFFFFFFFFFFFFFFFFFFFFFFFFFFFFFFFFFFFFFFFFFFFFF DUP3 EQ ISZERO PUSH2 0x16CE JUMPI PUSH2 0x16CD PUSH2 0x16D9 JUMP JUMPDEST JUMPDEST PUSH1 0x1 DUP3 ADD SWAP1 POP SWAP2 SWAP1 POP JUMP JUMPDEST PUSH32 0x4E487B7100000000000000000000000000000000000000000000000000000000 PUSH1 0x0 MSTORE PUSH1 0x11 PUSH1 0x4 MSTORE PUSH1 0x24 PUSH1 0x0 REVERT JUMPDEST PUSH32 0x4E487B7100000000000000000000000000000000000000000000000000000000 PUSH1 0x0 MSTORE PUSH1 0x22 PUSH1 0x4 MSTORE PUSH1 0x24 PUSH1 0x0 REVERT JUMPDEST PUSH32 0x4E487B7100000000000000000000000000000000000000000000000000000000 PUSH1 0x0 MSTORE PUSH1 0x32 PUSH1 0x4 MSTORE PUSH1 0x24 PUSH1 0x0 REVERT JUMPDEST PUSH32 0x4E487B7100000000000000000000000000000000000000000000000000000000 PUSH1 0x0 MSTORE PUSH1 0x41 PUSH1 0x4 MSTORE PUSH1 0x24 PUSH1 0x0 REVERT JUMPDEST PUSH1 0x0 DUP1 REVERT JUMPDEST PUSH1 0x0 DUP1 REVERT JUMPDEST PUSH1 0x0 DUP1 REVERT JUMPDEST PUSH1 0x0 DUP1 REVERT JUMPDEST PUSH1 0x0 PUSH1 0x1F NOT PUSH1 0x1F DUP4 ADD AND SWAP1 POP SWAP2 SWAP1 POP JUMP JUMPDEST PUSH32 0x456E6420646174652D74696D652073686F756C64206265206772656174657220 PUSH1 0x0 DUP3 ADD MSTORE PUSH32 0x7468616E20737461727420646174652D74696D652E0000000000000000000000 PUSH1 0x20 DUP3 ADD MSTORE POP JUMP JUMPDEST PUSH32 0x537461727420646174652D74696D652073686F756C6420626520677265617465 PUSH1 0x0 DUP3 ADD MSTORE PUSH32 0x72207468616E2063757272656E7420646174652D74696D652E00000000000000 PUSH1 0x20 DUP3 ADD MSTORE POP JUMP JUMPDEST PUSH32 0x46756E64202E0000000000000000000000000000000000000000000000000000 PUSH1 0x0 DUP3 ADD MSTORE POP JUMP JUMPDEST PUSH32 0x4F6E6C79206D616E6167657220697320616C6C6F77656420746F20616C6C6F77 PUSH1 0x0 DUP3 ADD MSTORE PUSH32 0x656420746F2063616C6C20746869732066756E6374696F6E2E00000000000000 PUSH1 0x20 DUP3 ADD MSTORE POP JUMP JUMPDEST PUSH32 0x46756E6420656E642D6461746520686173206E6F742072656163686564207965 PUSH1 0x0 DUP3 ADD MSTORE PUSH32 0x742E000000000000000000000000000000000000000000000000000000000000 PUSH1 0x20 DUP3 ADD MSTORE POP JUMP JUMPDEST PUSH2 0x1928 DUP2 PUSH2 0x15AF JUMP JUMPDEST DUP2 EQ PUSH2 0x1933 JUMPI PUSH1 0x0 DUP1 REVERT JUMPDEST POP JUMP JUMPDEST PUSH2 0x193F DUP2 PUSH2 0x15E1 JUMP JUMPDEST DUP2 EQ PUSH2 0x194A JUMPI PUSH1 0x0 DUP1 REVERT JUMPDEST POP JUMP INVALID LOG2 PUSH5 0x6970667358 0x22 SLT KECCAK256 PUSH28 0xF990D3AA95F51709FCF041C61AD20336578D752CE86792439049CDB9 DUP6 0xAA 0xDD PUSH5 0x736F6C6343 STOP ADDMOD SMOD STOP CALLER "
				},
				"gasEstimates": {
					"creation": {
						"codeDepositCost": "1306200",
						"executionCost": "25629",
						"totalCost": "1331829"
					},
					"external": {
						"createFund(string,string,uint256,uint256,uint256,address)": "infinite",
						"createInvestment(uint256,uint256)": "infinite",
						"getAllFunds()": "infinite",
						"getAllInvestmentsForFund(uint256)": "infinite",
						"getFundById(uint256)": "infinite",
						"makePayment(uint256)": "infinite",
						"manager()": "2533"
					}
				},
				"methodIdentifiers": {
					"createFund(string,string,uint256,uint256,uint256,address)": "526ed285",
					"createInvestment(uint256,uint256)": "135a34a2",
					"getAllFunds()": "1c69b464",
					"getAllInvestmentsForFund(uint256)": "26ef2adf",
					"getFundById(uint256)": "149e685a",
					"makePayment(uint256)": "5114cb52",
					"manager()": "481c6a75"
				}
			},
			"storageLayout": {
				"storage": [
					{
						"astId": 3,
						"contract": "contracts/4_CrowdFunding.sol:CrowdFunding",
						"label": "manager",
						"offset": 0,
						"slot": "0",
						"type": "t_address"
					},
					{
						"astId": 36,
						"contract": "contracts/4_CrowdFunding.sol:CrowdFunding",
						"label": "funds",
						"offset": 0,
						"slot": "1",
						"type": "t_mapping(t_uint256,t_struct(Fund)20_storage)"
					},
					{
						"astId": 40,
						"contract": "contracts/4_CrowdFunding.sol:CrowdFunding",
						"label": "investments",
						"offset": 0,
						"slot": "2",
						"type": "t_array(t_struct(Investment)31_storage)dyn_storage"
					},
					{
						"astId": 42,
						"contract": "contracts/4_CrowdFunding.sol:CrowdFunding",
						"label": "fundCount",
						"offset": 0,
						"slot": "3",
						"type": "t_uint256"
					},
					{
						"astId": 44,
						"contract": "contracts/4_CrowdFunding.sol:CrowdFunding",
						"label": "investmentCount",
						"offset": 0,
						"slot": "4",
						"type": "t_uint256"
					}
				],
				"types": {
					"t_address": {
						"encoding": "inplace",
						"label": "address",
						"numberOfBytes": "20"
					},
					"t_address_payable": {
						"encoding": "inplace",
						"label": "address payable",
						"numberOfBytes": "20"
					},
					"t_array(t_struct(Investment)31_storage)dyn_storage": {
						"base": "t_struct(Investment)31_storage",
						"encoding": "dynamic_array",
						"label": "struct CrowdFunding.Investment[]",
						"numberOfBytes": "32"
					},
					"t_mapping(t_uint256,t_struct(Fund)20_storage)": {
						"encoding": "mapping",
						"key": "t_uint256",
						"label": "mapping(uint256 => struct CrowdFunding.Fund)",
						"numberOfBytes": "32",
						"value": "t_struct(Fund)20_storage"
					},
					"t_string_storage": {
						"encoding": "bytes",
						"label": "string",
						"numberOfBytes": "32"
					},
					"t_struct(Fund)20_storage": {
						"encoding": "inplace",
						"label": "struct CrowdFunding.Fund",
						"members": [
							{
								"astId": 5,
								"contract": "contracts/4_CrowdFunding.sol:CrowdFunding",
								"label": "id",
								"offset": 0,
								"slot": "0",
								"type": "t_uint256"
							},
							{
								"astId": 7,
								"contract": "contracts/4_CrowdFunding.sol:CrowdFunding",
								"label": "name",
								"offset": 0,
								"slot": "1",
								"type": "t_string_storage"
							},
							{
								"astId": 9,
								"contract": "contracts/4_CrowdFunding.sol:CrowdFunding",
								"label": "description",
								"offset": 0,
								"slot": "2",
								"type": "t_string_storage"
							},
							{
								"astId": 11,
								"contract": "contracts/4_CrowdFunding.sol:CrowdFunding",
								"label": "startDate",
								"offset": 0,
								"slot": "3",
								"type": "t_uint256"
							},
							{
								"astId": 13,
								"contract": "contracts/4_CrowdFunding.sol:CrowdFunding",
								"label": "endDate",
								"offset": 0,
								"slot": "4",
								"type": "t_uint256"
							},
							{
								"astId": 15,
								"contract": "contracts/4_CrowdFunding.sol:CrowdFunding",
								"label": "goalAmount",
								"offset": 0,
								"slot": "5",
								"type": "t_uint256"
							},
							{
								"astId": 17,
								"contract": "contracts/4_CrowdFunding.sol:CrowdFunding",
								"label": "currentAmount",
								"offset": 0,
								"slot": "6",
								"type": "t_uint256"
							},
							{
								"astId": 19,
								"contract": "contracts/4_CrowdFunding.sol:CrowdFunding",
								"label": "receiverAddress",
								"offset": 0,
								"slot": "7",
								"type": "t_address_payable"
							}
						],
						"numberOfBytes": "256"
					},
					"t_struct(Investment)31_storage": {
						"encoding": "inplace",
						"label": "struct CrowdFunding.Investment",
						"members": [
							{
								"astId": 22,
								"contract": "contracts/4_CrowdFunding.sol:CrowdFunding",
								"label": "id",
								"offset": 0,
								"slot": "0",
								"type": "t_uint256"
							},
							{
								"astId": 24,
								"contract": "contracts/4_CrowdFunding.sol:CrowdFunding",
								"label": "fundId",
								"offset": 0,
								"slot": "1",
								"type": "t_uint256"
							},
							{
								"astId": 26,
								"contract": "contracts/4_CrowdFunding.sol:CrowdFunding",
								"label": "investorAddress",
								"offset": 0,
								"slot": "2",
								"type": "t_address"
							},
							{
								"astId": 28,
								"contract": "contracts/4_CrowdFunding.sol:CrowdFunding",
								"label": "investorAmount",
								"offset": 0,
								"slot": "3",
								"type": "t_uint256"
							},
							{
								"astId": 30,
								"contract": "contracts/4_CrowdFunding.sol:CrowdFunding",
								"label": "investmentDate",
								"offset": 0,
								"slot": "4",
								"type": "t_uint256"
							}
						],
						"numberOfBytes": "160"
					},
					"t_uint256": {
						"encoding": "inplace",
						"label": "uint256",
						"numberOfBytes": "32"
					}
				}
			},
			"userdoc": {
				"kind": "user",
				"methods": {},
				"version": 1
			}
		}
	}
}