{
	"contracts/4_CrowdFunding.sol": {
		"CrowdFunding": {
			"abi": [
				{
					"inputs": [],
					"stateMutability": "nonpayable",
					"type": "constructor"
				},
				{
					"inputs": [
						{
							"internalType": "string",
							"name": "name",
							"type": "string"
						},
						{
							"internalType": "string",
							"name": "description",
							"type": "string"
						},
						{
							"internalType": "uint256",
							"name": "startDate",
							"type": "uint256"
						},
						{
							"internalType": "uint256",
							"name": "endDate",
							"type": "uint256"
						},
						{
							"internalType": "uint256",
							"name": "goalAmount",
							"type": "uint256"
						},
						{
							"internalType": "address payable",
							"name": "receiverAddress",
							"type": "address"
						}
					],
					"name": "createFund",
					"outputs": [],
					"stateMutability": "nonpayable",
					"type": "function"
				},
				{
					"inputs": [
						{
							"internalType": "uint256",
							"name": "fundId",
							"type": "uint256"
						}
					],
					"name": "createInvestment",
					"outputs": [],
					"stateMutability": "payable",
					"type": "function"
				},
				{
					"inputs": [],
					"name": "getAllFunds",
					"outputs": [
						{
							"components": [
								{
									"internalType": "uint256",
									"name": "id",
									"type": "uint256"
								},
								{
									"internalType": "string",
									"name": "name",
									"type": "string"
								},
								{
									"internalType": "string",
									"name": "description",
									"type": "string"
								},
								{
									"internalType": "uint256",
									"name": "startDate",
									"type": "uint256"
								},
								{
									"internalType": "uint256",
									"name": "endDate",
									"type": "uint256"
								},
								{
									"internalType": "uint256",
									"name": "goalAmount",
									"type": "uint256"
								},
								{
									"internalType": "uint256",
									"name": "currentAmount",
									"type": "uint256"
								},
								{
									"internalType": "bool",
									"name": "isActive",
									"type": "bool"
								},
								{
									"internalType": "address payable",
									"name": "receiverAddress",
									"type": "address"
								}
							],
							"internalType": "struct CrowdFunding.Fund[]",
							"name": "",
							"type": "tuple[]"
						}
					],
					"stateMutability": "view",
					"type": "function"
				},
				{
					"inputs": [
						{
							"internalType": "uint256",
							"name": "fundId",
							"type": "uint256"
						}
					],
					"name": "getAllInvestmentsForFund",
					"outputs": [
						{
							"components": [
								{
									"internalType": "uint256",
									"name": "id",
									"type": "uint256"
								},
								{
									"internalType": "uint256",
									"name": "fundId",
									"type": "uint256"
								},
								{
									"internalType": "address",
									"name": "investorAddress",
									"type": "address"
								},
								{
									"internalType": "uint256",
									"name": "investorAmount",
									"type": "uint256"
								},
								{
									"internalType": "uint256",
									"name": "investmentDate",
									"type": "uint256"
								}
							],
							"internalType": "struct CrowdFunding.Investment[]",
							"name": "",
							"type": "tuple[]"
						}
					],
					"stateMutability": "view",
					"type": "function"
				},
				{
					"inputs": [],
					"name": "getBalance",
					"outputs": [
						{
							"internalType": "uint256",
							"name": "",
							"type": "uint256"
						}
					],
					"stateMutability": "view",
					"type": "function"
				},
				{
					"inputs": [
						{
							"internalType": "uint256",
							"name": "fundId",
							"type": "uint256"
						}
					],
					"name": "getFundById",
					"outputs": [
						{
							"components": [
								{
									"internalType": "uint256",
									"name": "id",
									"type": "uint256"
								},
								{
									"internalType": "string",
									"name": "name",
									"type": "string"
								},
								{
									"internalType": "string",
									"name": "description",
									"type": "string"
								},
								{
									"internalType": "uint256",
									"name": "startDate",
									"type": "uint256"
								},
								{
									"internalType": "uint256",
									"name": "endDate",
									"type": "uint256"
								},
								{
									"internalType": "uint256",
									"name": "goalAmount",
									"type": "uint256"
								},
								{
									"internalType": "uint256",
									"name": "currentAmount",
									"type": "uint256"
								},
								{
									"internalType": "bool",
									"name": "isActive",
									"type": "bool"
								},
								{
									"internalType": "address payable",
									"name": "receiverAddress",
									"type": "address"
								}
							],
							"internalType": "struct CrowdFunding.Fund",
							"name": "",
							"type": "tuple"
						}
					],
					"stateMutability": "view",
					"type": "function"
				},
				{
					"inputs": [
						{
							"internalType": "uint256",
							"name": "fundId",
							"type": "uint256"
						}
					],
					"name": "makePayment",
					"outputs": [],
					"stateMutability": "payable",
					"type": "function"
				},
				{
					"inputs": [],
					"name": "manager",
					"outputs": [
						{
							"internalType": "address",
							"name": "",
							"type": "address"
						}
					],
					"stateMutability": "view",
					"type": "function"
				}
			],
			"devdoc": {
				"kind": "dev",
				"methods": {},
				"version": 1
			},
			"evm": {
				"assembly": "    /* \"contracts/4_CrowdFunding.sol\":69:4282  contract CrowdFunding {\r... */\n  mstore(0x40, 0x80)\n    /* \"contracts/4_CrowdFunding.sol\":791:844  constructor() {\r... */\n  callvalue\n  dup1\n  iszero\n  tag_1\n  jumpi\n  0x00\n  dup1\n  revert\ntag_1:\n  pop\n    /* \"contracts/4_CrowdFunding.sol\":826:836  msg.sender */\n  caller\n    /* \"contracts/4_CrowdFunding.sol\":816:823  manager */\n  0x00\n  dup1\n    /* \"contracts/4_CrowdFunding.sol\":816:836  manager = msg.sender */\n  0x0100\n  exp\n  dup2\n  sload\n  dup2\n  0xffffffffffffffffffffffffffffffffffffffff\n  mul\n  not\n  and\n  swap1\n  dup4\n  0xffffffffffffffffffffffffffffffffffffffff\n  and\n  mul\n  or\n  swap1\n  sstore\n  pop\n    /* \"contracts/4_CrowdFunding.sol\":69:4282  contract CrowdFunding {\r... */\n  dataSize(sub_0)\n  dup1\n  dataOffset(sub_0)\n  0x00\n  codecopy\n  0x00\n  return\nstop\n\nsub_0: assembly {\n        /* \"contracts/4_CrowdFunding.sol\":69:4282  contract CrowdFunding {\r... */\n      mstore(0x40, 0x80)\n      jumpi(tag_1, lt(calldatasize, 0x04))\n      shr(0xe0, calldataload(0x00))\n      dup1\n      0x481c6a75\n      gt\n      tag_10\n      jumpi\n      dup1\n      0x481c6a75\n      eq\n      tag_6\n      jumpi\n      dup1\n      0x5114cb52\n      eq\n      tag_7\n      jumpi\n      dup1\n      0x526ed285\n      eq\n      tag_8\n      jumpi\n      dup1\n      0x8dcd8915\n      eq\n      tag_9\n      jumpi\n      jump(tag_1)\n    tag_10:\n      dup1\n      0x12065fe0\n      eq\n      tag_2\n      jumpi\n      dup1\n      0x149e685a\n      eq\n      tag_3\n      jumpi\n      dup1\n      0x1c69b464\n      eq\n      tag_4\n      jumpi\n      dup1\n      0x26ef2adf\n      eq\n      tag_5\n      jumpi\n    tag_1:\n      0x00\n      dup1\n      revert\n        /* \"contracts/4_CrowdFunding.sol\":4143:4279  function getBalance() public view returns(uint){\r... */\n    tag_2:\n      callvalue\n      dup1\n      iszero\n      tag_11\n      jumpi\n      0x00\n      dup1\n      revert\n    tag_11:\n      pop\n      tag_12\n      tag_13\n      jump\t// in\n    tag_12:\n      mload(0x40)\n      tag_14\n      swap2\n      swap1\n      tag_15\n      jump\t// in\n    tag_14:\n      mload(0x40)\n      dup1\n      swap2\n      sub\n      swap1\n      return\n        /* \"contracts/4_CrowdFunding.sol\":2417:2527  function getFundById(uint256 fundId) public view returns (Fund memory) {\r... */\n    tag_3:\n      callvalue\n      dup1\n      iszero\n      tag_16\n      jumpi\n      0x00\n      dup1\n      revert\n    tag_16:\n      pop\n      tag_17\n      0x04\n      dup1\n      calldatasize\n      sub\n      dup2\n      add\n      swap1\n      tag_18\n      swap2\n      swap1\n      tag_19\n      jump\t// in\n    tag_18:\n      tag_20\n      jump\t// in\n    tag_17:\n      mload(0x40)\n      tag_21\n      swap2\n      swap1\n      tag_22\n      jump\t// in\n    tag_21:\n      mload(0x40)\n      dup1\n      swap2\n      sub\n      swap1\n      return\n        /* \"contracts/4_CrowdFunding.sol\":2130:2383  function getAllFunds() public view returns (Fund[] memory) {\r... */\n    tag_4:\n      callvalue\n      dup1\n      iszero\n      tag_23\n      jumpi\n      0x00\n      dup1\n      revert\n    tag_23:\n      pop\n      tag_24\n      tag_25\n      jump\t// in\n    tag_24:\n      mload(0x40)\n      tag_26\n      swap2\n      swap1\n      tag_27\n      jump\t// in\n    tag_26:\n      mload(0x40)\n      dup1\n      swap2\n      sub\n      swap1\n      return\n        /* \"contracts/4_CrowdFunding.sol\":3161:3629  function getAllInvestmentsForFund(uint256 fundId) public view returns (Investment[] memory)\r... */\n    tag_5:\n      callvalue\n      dup1\n      iszero\n      tag_28\n      jumpi\n      0x00\n      dup1\n      revert\n    tag_28:\n      pop\n      tag_29\n      0x04\n      dup1\n      calldatasize\n      sub\n      dup2\n      add\n      swap1\n      tag_30\n      swap2\n      swap1\n      tag_19\n      jump\t// in\n    tag_30:\n      tag_31\n      jump\t// in\n    tag_29:\n      mload(0x40)\n      tag_32\n      swap2\n      swap1\n      tag_33\n      jump\t// in\n    tag_32:\n      mload(0x40)\n      dup1\n      swap2\n      sub\n      swap1\n      return\n        /* \"contracts/4_CrowdFunding.sol\":594:616  address public manager */\n    tag_6:\n      callvalue\n      dup1\n      iszero\n      tag_34\n      jumpi\n      0x00\n      dup1\n      revert\n    tag_34:\n      pop\n      tag_35\n      tag_36\n      jump\t// in\n    tag_35:\n      mload(0x40)\n      tag_37\n      swap2\n      swap1\n      tag_38\n      jump\t// in\n    tag_37:\n      mload(0x40)\n      dup1\n      swap2\n      sub\n      swap1\n      return\n        /* \"contracts/4_CrowdFunding.sol\":3680:4134  function makePayment(uint256 fundId) public payable onlyManager {\r... */\n    tag_7:\n      tag_39\n      0x04\n      dup1\n      calldatasize\n      sub\n      dup2\n      add\n      swap1\n      tag_40\n      swap2\n      swap1\n      tag_19\n      jump\t// in\n    tag_40:\n      tag_41\n      jump\t// in\n    tag_39:\n      stop\n        /* \"contracts/4_CrowdFunding.sol\":1156:2099  function createFund(\r... */\n    tag_8:\n      callvalue\n      dup1\n      iszero\n      tag_42\n      jumpi\n      0x00\n      dup1\n      revert\n    tag_42:\n      pop\n      tag_43\n      0x04\n      dup1\n      calldatasize\n      sub\n      dup2\n      add\n      swap1\n      tag_44\n      swap2\n      swap1\n      tag_45\n      jump\t// in\n    tag_44:\n      tag_46\n      jump\t// in\n    tag_43:\n      stop\n        /* \"contracts/4_CrowdFunding.sol\":2568:3112  function createInvestment(uint256 fundId) public payable {\r... */\n    tag_9:\n      tag_47\n      0x04\n      dup1\n      calldatasize\n      sub\n      dup2\n      add\n      swap1\n      tag_48\n      swap2\n      swap1\n      tag_19\n      jump\t// in\n    tag_48:\n      tag_49\n      jump\t// in\n    tag_47:\n      stop\n        /* \"contracts/4_CrowdFunding.sol\":4143:4279  function getBalance() public view returns(uint){\r... */\n    tag_13:\n        /* \"contracts/4_CrowdFunding.sol\":4185:4189  uint */\n      0x00\n        /* \"contracts/4_CrowdFunding.sol\":4224:4231  manager */\n      dup1\n      0x00\n      swap1\n      sload\n      swap1\n      0x0100\n      exp\n      swap1\n      div\n      0xffffffffffffffffffffffffffffffffffffffff\n      and\n        /* \"contracts/4_CrowdFunding.sol\":4209:4231  msg.sender ==  manager */\n      0xffffffffffffffffffffffffffffffffffffffff\n      and\n        /* \"contracts/4_CrowdFunding.sol\":4209:4219  msg.sender */\n      caller\n        /* \"contracts/4_CrowdFunding.sol\":4209:4231  msg.sender ==  manager */\n      0xffffffffffffffffffffffffffffffffffffffff\n      and\n      eq\n        /* \"contracts/4_CrowdFunding.sol\":4201:4232  require(msg.sender ==  manager) */\n      tag_51\n      jumpi\n      0x00\n      dup1\n      revert\n    tag_51:\n        /* \"contracts/4_CrowdFunding.sol\":4250:4271  address(this).balance */\n      selfbalance\n        /* \"contracts/4_CrowdFunding.sol\":4243:4271  return address(this).balance */\n      swap1\n      pop\n        /* \"contracts/4_CrowdFunding.sol\":4143:4279  function getBalance() public view returns(uint){\r... */\n      swap1\n      jump\t// out\n        /* \"contracts/4_CrowdFunding.sol\":2417:2527  function getFundById(uint256 fundId) public view returns (Fund memory) {\r... */\n    tag_20:\n        /* \"contracts/4_CrowdFunding.sol\":2475:2486  Fund memory */\n      tag_52\n      tag_53\n      jump\t// in\n    tag_52:\n        /* \"contracts/4_CrowdFunding.sol\":2506:2511  funds */\n      0x01\n        /* \"contracts/4_CrowdFunding.sol\":2506:2519  funds[fundId] */\n      0x00\n        /* \"contracts/4_CrowdFunding.sol\":2512:2518  fundId */\n      dup4\n        /* \"contracts/4_CrowdFunding.sol\":2506:2519  funds[fundId] */\n      dup2\n      mstore\n      0x20\n      add\n      swap1\n      dup2\n      mstore\n      0x20\n      add\n      0x00\n      keccak256\n        /* \"contracts/4_CrowdFunding.sol\":2499:2519  return funds[fundId] */\n      mload(0x40)\n      dup1\n      0x0120\n      add\n      0x40\n      mstore\n      swap1\n      dup2\n      0x00\n      dup3\n      add\n      sload\n      dup2\n      mstore\n      0x20\n      add\n      0x01\n      dup3\n      add\n      dup1\n      sload\n      tag_55\n      swap1\n      tag_56\n      jump\t// in\n    tag_55:\n      dup1\n      0x1f\n      add\n      0x20\n      dup1\n      swap2\n      div\n      mul\n      0x20\n      add\n      mload(0x40)\n      swap1\n      dup2\n      add\n      0x40\n      mstore\n      dup1\n      swap3\n      swap2\n      swap1\n      dup2\n      dup2\n      mstore\n      0x20\n      add\n      dup3\n      dup1\n      sload\n      tag_57\n      swap1\n      tag_56\n      jump\t// in\n    tag_57:\n      dup1\n      iszero\n      tag_58\n      jumpi\n      dup1\n      0x1f\n      lt\n      tag_59\n      jumpi\n      0x0100\n      dup1\n      dup4\n      sload\n      div\n      mul\n      dup4\n      mstore\n      swap2\n      0x20\n      add\n      swap2\n      jump(tag_58)\n    tag_59:\n      dup3\n      add\n      swap2\n      swap1\n      0x00\n      mstore\n      keccak256(0x00, 0x20)\n      swap1\n    tag_60:\n      dup2\n      sload\n      dup2\n      mstore\n      swap1\n      0x01\n      add\n      swap1\n      0x20\n      add\n      dup1\n      dup4\n      gt\n      tag_60\n      jumpi\n      dup3\n      swap1\n      sub\n      0x1f\n      and\n      dup3\n      add\n      swap2\n    tag_58:\n      pop\n      pop\n      pop\n      pop\n      pop\n      dup2\n      mstore\n      0x20\n      add\n      0x02\n      dup3\n      add\n      dup1\n      sload\n      tag_61\n      swap1\n      tag_56\n      jump\t// in\n    tag_61:\n      dup1\n      0x1f\n      add\n      0x20\n      dup1\n      swap2\n      div\n      mul\n      0x20\n      add\n      mload(0x40)\n      swap1\n      dup2\n      add\n      0x40\n      mstore\n      dup1\n      swap3\n      swap2\n      swap1\n      dup2\n      dup2\n      mstore\n      0x20\n      add\n      dup3\n      dup1\n      sload\n      tag_62\n      swap1\n      tag_56\n      jump\t// in\n    tag_62:\n      dup1\n      iszero\n      tag_63\n      jumpi\n      dup1\n      0x1f\n      lt\n      tag_64\n      jumpi\n      0x0100\n      dup1\n      dup4\n      sload\n      div\n      mul\n      dup4\n      mstore\n      swap2\n      0x20\n      add\n      swap2\n      jump(tag_63)\n    tag_64:\n      dup3\n      add\n      swap2\n      swap1\n      0x00\n      mstore\n      keccak256(0x00, 0x20)\n      swap1\n    tag_65:\n      dup2\n      sload\n      dup2\n      mstore\n      swap1\n      0x01\n      add\n      swap1\n      0x20\n      add\n      dup1\n      dup4\n      gt\n      tag_65\n      jumpi\n      dup3\n      swap1\n      sub\n      0x1f\n      and\n      dup3\n      add\n      swap2\n    tag_63:\n      pop\n      pop\n      pop\n      pop\n      pop\n      dup2\n      mstore\n      0x20\n      add\n      0x03\n      dup3\n      add\n      sload\n      dup2\n      mstore\n      0x20\n      add\n      0x04\n      dup3\n      add\n      sload\n      dup2\n      mstore\n      0x20\n      add\n      0x05\n      dup3\n      add\n      sload\n      dup2\n      mstore\n      0x20\n      add\n      0x06\n      dup3\n      add\n      sload\n      dup2\n      mstore\n      0x20\n      add\n      0x07\n      dup3\n      add\n      0x00\n      swap1\n      sload\n      swap1\n      0x0100\n      exp\n      swap1\n      div\n      0xff\n      and\n      iszero\n      iszero\n      iszero\n      iszero\n      dup2\n      mstore\n      0x20\n      add\n      0x07\n      dup3\n      add\n      0x01\n      swap1\n      sload\n      swap1\n      0x0100\n      exp\n      swap1\n      div\n      0xffffffffffffffffffffffffffffffffffffffff\n      and\n      0xffffffffffffffffffffffffffffffffffffffff\n      and\n      0xffffffffffffffffffffffffffffffffffffffff\n      and\n      dup2\n      mstore\n      pop\n      pop\n      swap1\n      pop\n        /* \"contracts/4_CrowdFunding.sol\":2417:2527  function getFundById(uint256 fundId) public view returns (Fund memory) {\r... */\n      swap2\n      swap1\n      pop\n      jump\t// out\n        /* \"contracts/4_CrowdFunding.sol\":2130:2383  function getAllFunds() public view returns (Fund[] memory) {\r... */\n    tag_25:\n        /* \"contracts/4_CrowdFunding.sol\":2174:2187  Fund[] memory */\n      0x60\n        /* \"contracts/4_CrowdFunding.sol\":2200:2222  Fund[] memory fundList */\n      0x00\n        /* \"contracts/4_CrowdFunding.sol\":2236:2245  fundCount */\n      sload(0x03)\n        /* \"contracts/4_CrowdFunding.sol\":2225:2246  new Fund[](fundCount) */\n      0xffffffffffffffff\n      dup2\n      gt\n      iszero\n      tag_67\n      jumpi\n      tag_68\n      tag_69\n      jump\t// in\n    tag_68:\n    tag_67:\n      mload(0x40)\n      swap1\n      dup1\n      dup3\n      mstore\n      dup1\n      0x20\n      mul\n      0x20\n      add\n      dup3\n      add\n      0x40\n      mstore\n      dup1\n      iszero\n      tag_70\n      jumpi\n      dup2\n      0x20\n      add\n    tag_71:\n      tag_72\n      tag_53\n      jump\t// in\n    tag_72:\n      dup2\n      mstore\n      0x20\n      add\n      swap1\n      0x01\n      swap1\n      sub\n      swap1\n      dup2\n      tag_71\n      jumpi\n      swap1\n      pop\n    tag_70:\n      pop\n        /* \"contracts/4_CrowdFunding.sol\":2200:2246  Fund[] memory fundList = new Fund[](fundCount) */\n      swap1\n      pop\n        /* \"contracts/4_CrowdFunding.sol\":2264:2273  uint256 i */\n      0x00\n        /* \"contracts/4_CrowdFunding.sol\":2259:2348  for (uint256 i = 0; i < fundCount; i++) {\r... */\n    tag_73:\n        /* \"contracts/4_CrowdFunding.sol\":2283:2292  fundCount */\n      sload(0x03)\n        /* \"contracts/4_CrowdFunding.sol\":2279:2280  i */\n      dup2\n        /* \"contracts/4_CrowdFunding.sol\":2279:2292  i < fundCount */\n      lt\n        /* \"contracts/4_CrowdFunding.sol\":2259:2348  for (uint256 i = 0; i < fundCount; i++) {\r... */\n      iszero\n      tag_74\n      jumpi\n        /* \"contracts/4_CrowdFunding.sol\":2328:2333  funds */\n      0x01\n        /* \"contracts/4_CrowdFunding.sol\":2328:2336  funds[i] */\n      0x00\n        /* \"contracts/4_CrowdFunding.sol\":2334:2335  i */\n      dup3\n        /* \"contracts/4_CrowdFunding.sol\":2328:2336  funds[i] */\n      dup2\n      mstore\n      0x20\n      add\n      swap1\n      dup2\n      mstore\n      0x20\n      add\n      0x00\n      keccak256\n        /* \"contracts/4_CrowdFunding.sol\":2314:2336  fundList[i] = funds[i] */\n      mload(0x40)\n      dup1\n      0x0120\n      add\n      0x40\n      mstore\n      swap1\n      dup2\n      0x00\n      dup3\n      add\n      sload\n      dup2\n      mstore\n      0x20\n      add\n      0x01\n      dup3\n      add\n      dup1\n      sload\n      tag_76\n      swap1\n      tag_56\n      jump\t// in\n    tag_76:\n      dup1\n      0x1f\n      add\n      0x20\n      dup1\n      swap2\n      div\n      mul\n      0x20\n      add\n      mload(0x40)\n      swap1\n      dup2\n      add\n      0x40\n      mstore\n      dup1\n      swap3\n      swap2\n      swap1\n      dup2\n      dup2\n      mstore\n      0x20\n      add\n      dup3\n      dup1\n      sload\n      tag_77\n      swap1\n      tag_56\n      jump\t// in\n    tag_77:\n      dup1\n      iszero\n      tag_78\n      jumpi\n      dup1\n      0x1f\n      lt\n      tag_79\n      jumpi\n      0x0100\n      dup1\n      dup4\n      sload\n      div\n      mul\n      dup4\n      mstore\n      swap2\n      0x20\n      add\n      swap2\n      jump(tag_78)\n    tag_79:\n      dup3\n      add\n      swap2\n      swap1\n      0x00\n      mstore\n      keccak256(0x00, 0x20)\n      swap1\n    tag_80:\n      dup2\n      sload\n      dup2\n      mstore\n      swap1\n      0x01\n      add\n      swap1\n      0x20\n      add\n      dup1\n      dup4\n      gt\n      tag_80\n      jumpi\n      dup3\n      swap1\n      sub\n      0x1f\n      and\n      dup3\n      add\n      swap2\n    tag_78:\n      pop\n      pop\n      pop\n      pop\n      pop\n      dup2\n      mstore\n      0x20\n      add\n      0x02\n      dup3\n      add\n      dup1\n      sload\n      tag_81\n      swap1\n      tag_56\n      jump\t// in\n    tag_81:\n      dup1\n      0x1f\n      add\n      0x20\n      dup1\n      swap2\n      div\n      mul\n      0x20\n      add\n      mload(0x40)\n      swap1\n      dup2\n      add\n      0x40\n      mstore\n      dup1\n      swap3\n      swap2\n      swap1\n      dup2\n      dup2\n      mstore\n      0x20\n      add\n      dup3\n      dup1\n      sload\n      tag_82\n      swap1\n      tag_56\n      jump\t// in\n    tag_82:\n      dup1\n      iszero\n      tag_83\n      jumpi\n      dup1\n      0x1f\n      lt\n      tag_84\n      jumpi\n      0x0100\n      dup1\n      dup4\n      sload\n      div\n      mul\n      dup4\n      mstore\n      swap2\n      0x20\n      add\n      swap2\n      jump(tag_83)\n    tag_84:\n      dup3\n      add\n      swap2\n      swap1\n      0x00\n      mstore\n      keccak256(0x00, 0x20)\n      swap1\n    tag_85:\n      dup2\n      sload\n      dup2\n      mstore\n      swap1\n      0x01\n      add\n      swap1\n      0x20\n      add\n      dup1\n      dup4\n      gt\n      tag_85\n      jumpi\n      dup3\n      swap1\n      sub\n      0x1f\n      and\n      dup3\n      add\n      swap2\n    tag_83:\n      pop\n      pop\n      pop\n      pop\n      pop\n      dup2\n      mstore\n      0x20\n      add\n      0x03\n      dup3\n      add\n      sload\n      dup2\n      mstore\n      0x20\n      add\n      0x04\n      dup3\n      add\n      sload\n      dup2\n      mstore\n      0x20\n      add\n      0x05\n      dup3\n      add\n      sload\n      dup2\n      mstore\n      0x20\n      add\n      0x06\n      dup3\n      add\n      sload\n      dup2\n      mstore\n      0x20\n      add\n      0x07\n      dup3\n      add\n      0x00\n      swap1\n      sload\n      swap1\n      0x0100\n      exp\n      swap1\n      div\n      0xff\n      and\n      iszero\n      iszero\n      iszero\n      iszero\n      dup2\n      mstore\n      0x20\n      add\n      0x07\n      dup3\n      add\n      0x01\n      swap1\n      sload\n      swap1\n      0x0100\n      exp\n      swap1\n      div\n      0xffffffffffffffffffffffffffffffffffffffff\n      and\n      0xffffffffffffffffffffffffffffffffffffffff\n      and\n      0xffffffffffffffffffffffffffffffffffffffff\n      and\n      dup2\n      mstore\n      pop\n      pop\n        /* \"contracts/4_CrowdFunding.sol\":2314:2322  fundList */\n      dup3\n        /* \"contracts/4_CrowdFunding.sol\":2323:2324  i */\n      dup3\n        /* \"contracts/4_CrowdFunding.sol\":2314:2325  fundList[i] */\n      dup2\n      mload\n      dup2\n      lt\n      tag_86\n      jumpi\n      tag_87\n      tag_88\n      jump\t// in\n    tag_87:\n    tag_86:\n      0x20\n      mul\n      0x20\n      add\n      add\n        /* \"contracts/4_CrowdFunding.sol\":2314:2336  fundList[i] = funds[i] */\n      dup2\n      swap1\n      mstore\n      pop\n        /* \"contracts/4_CrowdFunding.sol\":2294:2297  i++ */\n      dup1\n      dup1\n      tag_89\n      swap1\n      tag_90\n      jump\t// in\n    tag_89:\n      swap2\n      pop\n      pop\n        /* \"contracts/4_CrowdFunding.sol\":2259:2348  for (uint256 i = 0; i < fundCount; i++) {\r... */\n      jump(tag_73)\n    tag_74:\n      pop\n        /* \"contracts/4_CrowdFunding.sol\":2367:2375  fundList */\n      dup1\n        /* \"contracts/4_CrowdFunding.sol\":2360:2375  return fundList */\n      swap2\n      pop\n      pop\n        /* \"contracts/4_CrowdFunding.sol\":2130:2383  function getAllFunds() public view returns (Fund[] memory) {\r... */\n      swap1\n      jump\t// out\n        /* \"contracts/4_CrowdFunding.sol\":3161:3629  function getAllInvestmentsForFund(uint256 fundId) public view returns (Investment[] memory)\r... */\n    tag_31:\n        /* \"contracts/4_CrowdFunding.sol\":3232:3251  Investment[] memory */\n      0x60\n        /* \"contracts/4_CrowdFunding.sol\":3269:3303  Investment[] memory investmentList */\n      0x00\n        /* \"contracts/4_CrowdFunding.sol\":3323:3338  investmentCount */\n      sload(0x04)\n        /* \"contracts/4_CrowdFunding.sol\":3306:3339  new Investment[](investmentCount) */\n      0xffffffffffffffff\n      dup2\n      gt\n      iszero\n      tag_92\n      jumpi\n      tag_93\n      tag_69\n      jump\t// in\n    tag_93:\n    tag_92:\n      mload(0x40)\n      swap1\n      dup1\n      dup3\n      mstore\n      dup1\n      0x20\n      mul\n      0x20\n      add\n      dup3\n      add\n      0x40\n      mstore\n      dup1\n      iszero\n      tag_94\n      jumpi\n      dup2\n      0x20\n      add\n    tag_95:\n      tag_96\n      tag_97\n      jump\t// in\n    tag_96:\n      dup2\n      mstore\n      0x20\n      add\n      swap1\n      0x01\n      swap1\n      sub\n      swap1\n      dup2\n      tag_95\n      jumpi\n      swap1\n      pop\n    tag_94:\n      pop\n        /* \"contracts/4_CrowdFunding.sol\":3269:3339  Investment[] memory investmentList = new Investment[](investmentCount) */\n      swap1\n      pop\n        /* \"contracts/4_CrowdFunding.sol\":3350:3363  uint256 count */\n      0x00\n        /* \"contracts/4_CrowdFunding.sol\":3385:3394  uint256 i */\n      dup1\n        /* \"contracts/4_CrowdFunding.sol\":3380:3588  for (uint256 i = 0; i < investmentCount; i++) {\r... */\n    tag_98:\n        /* \"contracts/4_CrowdFunding.sol\":3404:3419  investmentCount */\n      sload(0x04)\n        /* \"contracts/4_CrowdFunding.sol\":3400:3401  i */\n      dup2\n        /* \"contracts/4_CrowdFunding.sol\":3400:3419  i < investmentCount */\n      lt\n        /* \"contracts/4_CrowdFunding.sol\":3380:3588  for (uint256 i = 0; i < investmentCount; i++) {\r... */\n      iszero\n      tag_99\n      jumpi\n        /* \"contracts/4_CrowdFunding.sol\":3470:3476  fundId */\n      dup5\n        /* \"contracts/4_CrowdFunding.sol\":3445:3456  investments */\n      0x02\n        /* \"contracts/4_CrowdFunding.sol\":3457:3458  i */\n      dup3\n        /* \"contracts/4_CrowdFunding.sol\":3445:3459  investments[i] */\n      dup2\n      sload\n      dup2\n      lt\n      tag_101\n      jumpi\n      tag_102\n      tag_88\n      jump\t// in\n    tag_102:\n    tag_101:\n      swap1\n      0x00\n      mstore\n      keccak256(0x00, 0x20)\n      swap1\n      0x05\n      mul\n      add\n        /* \"contracts/4_CrowdFunding.sol\":3445:3466  investments[i].fundId */\n      0x01\n      add\n      sload\n        /* \"contracts/4_CrowdFunding.sol\":3445:3476  investments[i].fundId == fundId */\n      eq\n        /* \"contracts/4_CrowdFunding.sol\":3441:3577  if (investments[i].fundId == fundId) {\r... */\n      iszero\n      tag_104\n      jumpi\n        /* \"contracts/4_CrowdFunding.sol\":3521:3532  investments */\n      0x02\n        /* \"contracts/4_CrowdFunding.sol\":3533:3534  i */\n      dup2\n        /* \"contracts/4_CrowdFunding.sol\":3521:3535  investments[i] */\n      dup2\n      sload\n      dup2\n      lt\n      tag_105\n      jumpi\n      tag_106\n      tag_88\n      jump\t// in\n    tag_106:\n    tag_105:\n      swap1\n      0x00\n      mstore\n      keccak256(0x00, 0x20)\n      swap1\n      0x05\n      mul\n      add\n        /* \"contracts/4_CrowdFunding.sol\":3497:3535  investmentList[count] = investments[i] */\n      mload(0x40)\n      dup1\n      0xa0\n      add\n      0x40\n      mstore\n      swap1\n      dup2\n      0x00\n      dup3\n      add\n      sload\n      dup2\n      mstore\n      0x20\n      add\n      0x01\n      dup3\n      add\n      sload\n      dup2\n      mstore\n      0x20\n      add\n      0x02\n      dup3\n      add\n      0x00\n      swap1\n      sload\n      swap1\n      0x0100\n      exp\n      swap1\n      div\n      0xffffffffffffffffffffffffffffffffffffffff\n      and\n      0xffffffffffffffffffffffffffffffffffffffff\n      and\n      0xffffffffffffffffffffffffffffffffffffffff\n      and\n      dup2\n      mstore\n      0x20\n      add\n      0x03\n      dup3\n      add\n      sload\n      dup2\n      mstore\n      0x20\n      add\n      0x04\n      dup3\n      add\n      sload\n      dup2\n      mstore\n      pop\n      pop\n        /* \"contracts/4_CrowdFunding.sol\":3497:3511  investmentList */\n      dup4\n        /* \"contracts/4_CrowdFunding.sol\":3512:3517  count */\n      dup4\n        /* \"contracts/4_CrowdFunding.sol\":3497:3518  investmentList[count] */\n      dup2\n      mload\n      dup2\n      lt\n      tag_108\n      jumpi\n      tag_109\n      tag_88\n      jump\t// in\n    tag_109:\n    tag_108:\n      0x20\n      mul\n      0x20\n      add\n      add\n        /* \"contracts/4_CrowdFunding.sol\":3497:3535  investmentList[count] = investments[i] */\n      dup2\n      swap1\n      mstore\n      pop\n        /* \"contracts/4_CrowdFunding.sol\":3554:3561  count++ */\n      dup2\n      dup1\n      tag_110\n      swap1\n      tag_90\n      jump\t// in\n    tag_110:\n      swap3\n      pop\n      pop\n        /* \"contracts/4_CrowdFunding.sol\":3441:3577  if (investments[i].fundId == fundId) {\r... */\n    tag_104:\n        /* \"contracts/4_CrowdFunding.sol\":3421:3424  i++ */\n      dup1\n      dup1\n      tag_111\n      swap1\n      tag_90\n      jump\t// in\n    tag_111:\n      swap2\n      pop\n      pop\n        /* \"contracts/4_CrowdFunding.sol\":3380:3588  for (uint256 i = 0; i < investmentCount; i++) {\r... */\n      jump(tag_98)\n    tag_99:\n      pop\n        /* \"contracts/4_CrowdFunding.sol\":3607:3621  investmentList */\n      dup2\n        /* \"contracts/4_CrowdFunding.sol\":3600:3621  return investmentList */\n      swap3\n      pop\n      pop\n      pop\n        /* \"contracts/4_CrowdFunding.sol\":3161:3629  function getAllInvestmentsForFund(uint256 fundId) public view returns (Investment[] memory)\r... */\n      swap2\n      swap1\n      pop\n      jump\t// out\n        /* \"contracts/4_CrowdFunding.sol\":594:616  address public manager */\n    tag_36:\n      0x00\n      dup1\n      sload\n      swap1\n      0x0100\n      exp\n      swap1\n      div\n      0xffffffffffffffffffffffffffffffffffffffff\n      and\n      dup2\n      jump\t// out\n        /* \"contracts/4_CrowdFunding.sol\":3680:4134  function makePayment(uint256 fundId) public payable onlyManager {\r... */\n    tag_41:\n        /* \"contracts/4_CrowdFunding.sol\":968:978  msg.sender */\n      caller\n        /* \"contracts/4_CrowdFunding.sol\":957:978  manager == msg.sender */\n      0xffffffffffffffffffffffffffffffffffffffff\n      and\n        /* \"contracts/4_CrowdFunding.sol\":957:964  manager */\n      0x00\n      dup1\n      sload\n      swap1\n      0x0100\n      exp\n      swap1\n      div\n      0xffffffffffffffffffffffffffffffffffffffff\n      and\n        /* \"contracts/4_CrowdFunding.sol\":957:978  manager == msg.sender */\n      0xffffffffffffffffffffffffffffffffffffffff\n      and\n      eq\n        /* \"contracts/4_CrowdFunding.sol\":935:1063  require(\r... */\n      tag_113\n      jumpi\n      mload(0x40)\n      0x08c379a000000000000000000000000000000000000000000000000000000000\n      dup2\n      mstore\n      0x04\n      add\n      tag_114\n      swap1\n      tag_115\n      jump\t// in\n    tag_114:\n      mload(0x40)\n      dup1\n      swap2\n      sub\n      swap1\n      revert\n    tag_113:\n        /* \"contracts/4_CrowdFunding.sol\":3755:3772  Fund storage fund */\n      0x00\n        /* \"contracts/4_CrowdFunding.sol\":3775:3780  funds */\n      0x01\n        /* \"contracts/4_CrowdFunding.sol\":3775:3788  funds[fundId] */\n      0x00\n        /* \"contracts/4_CrowdFunding.sol\":3781:3787  fundId */\n      dup4\n        /* \"contracts/4_CrowdFunding.sol\":3775:3788  funds[fundId] */\n      dup2\n      mstore\n      0x20\n      add\n      swap1\n      dup2\n      mstore\n      0x20\n      add\n      0x00\n      keccak256\n        /* \"contracts/4_CrowdFunding.sol\":3755:3788  Fund storage fund = funds[fundId] */\n      swap1\n      pop\n        /* \"contracts/4_CrowdFunding.sol\":3807:3811  fund */\n      dup1\n        /* \"contracts/4_CrowdFunding.sol\":3807:3820  fund.isActive */\n      0x07\n      add\n      0x00\n      swap1\n      sload\n      swap1\n      0x0100\n      exp\n      swap1\n      div\n      0xff\n      and\n        /* \"contracts/4_CrowdFunding.sol\":3799:3840  require(fund.isActive, \"Fund is closed.\") */\n      tag_117\n      jumpi\n      mload(0x40)\n      0x08c379a000000000000000000000000000000000000000000000000000000000\n      dup2\n      mstore\n      0x04\n      add\n      tag_118\n      swap1\n      tag_119\n      jump\t// in\n    tag_118:\n      mload(0x40)\n      dup1\n      swap2\n      sub\n      swap1\n      revert\n    tag_117:\n        /* \"contracts/4_CrowdFunding.sol\":3895:3899  fund */\n      dup1\n        /* \"contracts/4_CrowdFunding.sol\":3895:3910  fund.goalAmount */\n      0x05\n      add\n      sload\n        /* \"contracts/4_CrowdFunding.sol\":3873:3877  fund */\n      dup2\n        /* \"contracts/4_CrowdFunding.sol\":3873:3891  fund.currentAmount */\n      0x06\n      add\n      sload\n        /* \"contracts/4_CrowdFunding.sol\":3873:3910  fund.currentAmount >= fund.goalAmount */\n      lt\n      iszero\n        /* \"contracts/4_CrowdFunding.sol\":3873:3961  fund.currentAmount >= fund.goalAmount ||\r... */\n      dup1\n      tag_120\n      jumpi\n      pop\n        /* \"contracts/4_CrowdFunding.sol\":3946:3961  block.timestamp */\n      timestamp\n        /* \"contracts/4_CrowdFunding.sol\":3931:3935  fund */\n      dup2\n        /* \"contracts/4_CrowdFunding.sol\":3931:3943  fund.endDate */\n      0x04\n      add\n      sload\n        /* \"contracts/4_CrowdFunding.sol\":3931:3961  fund.endDate < block.timestamp */\n      lt\n        /* \"contracts/4_CrowdFunding.sol\":3873:3961  fund.currentAmount >= fund.goalAmount ||\r... */\n    tag_120:\n        /* \"contracts/4_CrowdFunding.sol\":3851:4032  require(\r... */\n      tag_121\n      jumpi\n      mload(0x40)\n      0x08c379a000000000000000000000000000000000000000000000000000000000\n      dup2\n      mstore\n      0x04\n      add\n      tag_122\n      swap1\n      tag_123\n      jump\t// in\n    tag_122:\n      mload(0x40)\n      dup1\n      swap2\n      sub\n      swap1\n      revert\n    tag_121:\n        /* \"contracts/4_CrowdFunding.sol\":4045:4049  fund */\n      dup1\n        /* \"contracts/4_CrowdFunding.sol\":4045:4065  fund.receiverAddress */\n      0x07\n      add\n      0x01\n      swap1\n      sload\n      swap1\n      0x0100\n      exp\n      swap1\n      div\n      0xffffffffffffffffffffffffffffffffffffffff\n      and\n        /* \"contracts/4_CrowdFunding.sol\":4045:4074  fund.receiverAddress.transfer */\n      0xffffffffffffffffffffffffffffffffffffffff\n      and\n        /* \"contracts/4_CrowdFunding.sol\":4045:4094  fund.receiverAddress.transfer(fund.currentAmount) */\n      0x08fc\n        /* \"contracts/4_CrowdFunding.sol\":4075:4079  fund */\n      dup3\n        /* \"contracts/4_CrowdFunding.sol\":4075:4093  fund.currentAmount */\n      0x06\n      add\n      sload\n        /* \"contracts/4_CrowdFunding.sol\":4045:4094  fund.receiverAddress.transfer(fund.currentAmount) */\n      swap1\n      dup2\n      iszero\n      mul\n      swap1\n      mload(0x40)\n      0x00\n      mload(0x40)\n      dup1\n      dup4\n      sub\n      dup2\n      dup6\n      dup9\n      dup9\n      call\n      swap4\n      pop\n      pop\n      pop\n      pop\n      iszero\n      dup1\n      iszero\n      tag_125\n      jumpi\n      returndatasize\n      0x00\n      dup1\n      returndatacopy\n      revert(0x00, returndatasize)\n    tag_125:\n      pop\n        /* \"contracts/4_CrowdFunding.sol\":4121:4126  false */\n      0x00\n        /* \"contracts/4_CrowdFunding.sol\":4105:4109  fund */\n      dup2\n        /* \"contracts/4_CrowdFunding.sol\":4105:4118  fund.isActive */\n      0x07\n      add\n      0x00\n        /* \"contracts/4_CrowdFunding.sol\":4105:4126  fund.isActive = false */\n      0x0100\n      exp\n      dup2\n      sload\n      dup2\n      0xff\n      mul\n      not\n      and\n      swap1\n      dup4\n      iszero\n      iszero\n      mul\n      or\n      swap1\n      sstore\n      pop\n        /* \"contracts/4_CrowdFunding.sol\":3744:4134  {\r... */\n      pop\n        /* \"contracts/4_CrowdFunding.sol\":3680:4134  function makePayment(uint256 fundId) public payable onlyManager {\r... */\n      pop\n      jump\t// out\n        /* \"contracts/4_CrowdFunding.sol\":1156:2099  function createFund(\r... */\n    tag_46:\n        /* \"contracts/4_CrowdFunding.sol\":968:978  msg.sender */\n      caller\n        /* \"contracts/4_CrowdFunding.sol\":957:978  manager == msg.sender */\n      0xffffffffffffffffffffffffffffffffffffffff\n      and\n        /* \"contracts/4_CrowdFunding.sol\":957:964  manager */\n      0x00\n      dup1\n      sload\n      swap1\n      0x0100\n      exp\n      swap1\n      div\n      0xffffffffffffffffffffffffffffffffffffffff\n      and\n        /* \"contracts/4_CrowdFunding.sol\":957:978  manager == msg.sender */\n      0xffffffffffffffffffffffffffffffffffffffff\n      and\n      eq\n        /* \"contracts/4_CrowdFunding.sol\":935:1063  require(\r... */\n      tag_127\n      jumpi\n      mload(0x40)\n      0x08c379a000000000000000000000000000000000000000000000000000000000\n      dup2\n      mstore\n      0x04\n      add\n      tag_128\n      swap1\n      tag_115\n      jump\t// in\n    tag_128:\n      mload(0x40)\n      dup1\n      swap2\n      sub\n      swap1\n      revert\n    tag_127:\n        /* \"contracts/4_CrowdFunding.sol\":1437:1452  block.timestamp */\n      timestamp\n        /* \"contracts/4_CrowdFunding.sol\":1425:1434  startDate */\n      dup5\n        /* \"contracts/4_CrowdFunding.sol\":1425:1452  startDate > block.timestamp */\n      gt\n        /* \"contracts/4_CrowdFunding.sol\":1403:1537  require(\r... */\n      tag_130\n      jumpi\n      mload(0x40)\n      0x08c379a000000000000000000000000000000000000000000000000000000000\n      dup2\n      mstore\n      0x04\n      add\n      tag_131\n      swap1\n      tag_132\n      jump\t// in\n    tag_131:\n      mload(0x40)\n      dup1\n      swap2\n      sub\n      swap1\n      revert\n    tag_130:\n        /* \"contracts/4_CrowdFunding.sol\":1580:1589  startDate */\n      dup4\n        /* \"contracts/4_CrowdFunding.sol\":1570:1577  endDate */\n      dup4\n        /* \"contracts/4_CrowdFunding.sol\":1570:1589  endDate > startDate */\n      gt\n        /* \"contracts/4_CrowdFunding.sol\":1548:1670  require(\r... */\n      tag_133\n      jumpi\n      mload(0x40)\n      0x08c379a000000000000000000000000000000000000000000000000000000000\n      dup2\n      mstore\n      0x04\n      add\n      tag_134\n      swap1\n      tag_135\n      jump\t// in\n    tag_134:\n      mload(0x40)\n      dup1\n      swap2\n      sub\n      swap1\n      revert\n    tag_133:\n        /* \"contracts/4_CrowdFunding.sol\":1683:1703  Fund storage newFund */\n      0x00\n        /* \"contracts/4_CrowdFunding.sol\":1706:1711  funds */\n      0x01\n        /* \"contracts/4_CrowdFunding.sol\":1706:1722  funds[fundCount] */\n      0x00\n        /* \"contracts/4_CrowdFunding.sol\":1712:1721  fundCount */\n      sload(0x03)\n        /* \"contracts/4_CrowdFunding.sol\":1706:1722  funds[fundCount] */\n      dup2\n      mstore\n      0x20\n      add\n      swap1\n      dup2\n      mstore\n      0x20\n      add\n      0x00\n      keccak256\n        /* \"contracts/4_CrowdFunding.sol\":1683:1722  Fund storage newFund = funds[fundCount] */\n      swap1\n      pop\n        /* \"contracts/4_CrowdFunding.sol\":1746:1755  fundCount */\n      sload(0x03)\n        /* \"contracts/4_CrowdFunding.sol\":1733:1740  newFund */\n      dup2\n        /* \"contracts/4_CrowdFunding.sol\":1733:1743  newFund.id */\n      0x00\n      add\n        /* \"contracts/4_CrowdFunding.sol\":1733:1755  newFund.id = fundCount */\n      dup2\n      swap1\n      sstore\n      pop\n        /* \"contracts/4_CrowdFunding.sol\":1781:1785  name */\n      dup7\n        /* \"contracts/4_CrowdFunding.sol\":1766:1773  newFund */\n      dup2\n        /* \"contracts/4_CrowdFunding.sol\":1766:1778  newFund.name */\n      0x01\n      add\n        /* \"contracts/4_CrowdFunding.sol\":1766:1785  newFund.name = name */\n      swap1\n      dup1\n      mload\n      swap1\n      0x20\n      add\n      swap1\n      tag_136\n      swap3\n      swap2\n      swap1\n      tag_137\n      jump\t// in\n    tag_136:\n      pop\n        /* \"contracts/4_CrowdFunding.sol\":1818:1829  description */\n      dup6\n        /* \"contracts/4_CrowdFunding.sol\":1796:1803  newFund */\n      dup2\n        /* \"contracts/4_CrowdFunding.sol\":1796:1815  newFund.description */\n      0x02\n      add\n        /* \"contracts/4_CrowdFunding.sol\":1796:1829  newFund.description = description */\n      swap1\n      dup1\n      mload\n      swap1\n      0x20\n      add\n      swap1\n      tag_138\n      swap3\n      swap2\n      swap1\n      tag_137\n      jump\t// in\n    tag_138:\n      pop\n        /* \"contracts/4_CrowdFunding.sol\":1860:1869  startDate */\n      dup5\n        /* \"contracts/4_CrowdFunding.sol\":1840:1847  newFund */\n      dup2\n        /* \"contracts/4_CrowdFunding.sol\":1840:1857  newFund.startDate */\n      0x03\n      add\n        /* \"contracts/4_CrowdFunding.sol\":1840:1869  newFund.startDate = startDate */\n      dup2\n      swap1\n      sstore\n      pop\n        /* \"contracts/4_CrowdFunding.sol\":1898:1905  endDate */\n      dup4\n        /* \"contracts/4_CrowdFunding.sol\":1880:1887  newFund */\n      dup2\n        /* \"contracts/4_CrowdFunding.sol\":1880:1895  newFund.endDate */\n      0x04\n      add\n        /* \"contracts/4_CrowdFunding.sol\":1880:1905  newFund.endDate = endDate */\n      dup2\n      swap1\n      sstore\n      pop\n        /* \"contracts/4_CrowdFunding.sol\":1937:1947  goalAmount */\n      dup3\n        /* \"contracts/4_CrowdFunding.sol\":1916:1923  newFund */\n      dup2\n        /* \"contracts/4_CrowdFunding.sol\":1916:1934  newFund.goalAmount */\n      0x05\n      add\n        /* \"contracts/4_CrowdFunding.sol\":1916:1947  newFund.goalAmount = goalAmount */\n      dup2\n      swap1\n      sstore\n      pop\n        /* \"contracts/4_CrowdFunding.sol\":1982:1983  0 */\n      0x00\n        /* \"contracts/4_CrowdFunding.sol\":1958:1965  newFund */\n      dup2\n        /* \"contracts/4_CrowdFunding.sol\":1958:1979  newFund.currentAmount */\n      0x06\n      add\n        /* \"contracts/4_CrowdFunding.sol\":1958:1983  newFund.currentAmount = 0 */\n      dup2\n      swap1\n      sstore\n      pop\n        /* \"contracts/4_CrowdFunding.sol\":2020:2035  receiverAddress */\n      dup2\n        /* \"contracts/4_CrowdFunding.sol\":1994:2001  newFund */\n      dup2\n        /* \"contracts/4_CrowdFunding.sol\":1994:2017  newFund.receiverAddress */\n      0x07\n      add\n      0x01\n        /* \"contracts/4_CrowdFunding.sol\":1994:2035  newFund.receiverAddress = receiverAddress */\n      0x0100\n      exp\n      dup2\n      sload\n      dup2\n      0xffffffffffffffffffffffffffffffffffffffff\n      mul\n      not\n      and\n      swap1\n      dup4\n      0xffffffffffffffffffffffffffffffffffffffff\n      and\n      mul\n      or\n      swap1\n      sstore\n      pop\n        /* \"contracts/4_CrowdFunding.sol\":2065:2069  true */\n      0x01\n        /* \"contracts/4_CrowdFunding.sol\":2046:2053  newFund */\n      dup2\n        /* \"contracts/4_CrowdFunding.sol\":2046:2062  newFund.isActive */\n      0x07\n      add\n      0x00\n        /* \"contracts/4_CrowdFunding.sol\":2046:2069  newFund.isActive = true */\n      0x0100\n      exp\n      dup2\n      sload\n      dup2\n      0xff\n      mul\n      not\n      and\n      swap1\n      dup4\n      iszero\n      iszero\n      mul\n      or\n      swap1\n      sstore\n      pop\n        /* \"contracts/4_CrowdFunding.sol\":2080:2089  fundCount */\n      0x03\n      0x00\n        /* \"contracts/4_CrowdFunding.sol\":2080:2091  fundCount++ */\n      dup2\n      sload\n      dup1\n      swap3\n      swap2\n      swap1\n      tag_139\n      swap1\n      tag_90\n      jump\t// in\n    tag_139:\n      swap2\n      swap1\n      pop\n      sstore\n      pop\n        /* \"contracts/4_CrowdFunding.sol\":1392:2099  {\r... */\n      pop\n        /* \"contracts/4_CrowdFunding.sol\":1156:2099  function createFund(\r... */\n      pop\n      pop\n      pop\n      pop\n      pop\n      pop\n      jump\t// out\n        /* \"contracts/4_CrowdFunding.sol\":2568:3112  function createInvestment(uint256 fundId) public payable {\r... */\n    tag_49:\n        /* \"contracts/4_CrowdFunding.sol\":2636:2653  Fund storage fund */\n      0x00\n        /* \"contracts/4_CrowdFunding.sol\":2656:2661  funds */\n      0x01\n        /* \"contracts/4_CrowdFunding.sol\":2656:2669  funds[fundId] */\n      0x00\n        /* \"contracts/4_CrowdFunding.sol\":2662:2668  fundId */\n      dup4\n        /* \"contracts/4_CrowdFunding.sol\":2656:2669  funds[fundId] */\n      dup2\n      mstore\n      0x20\n      add\n      swap1\n      dup2\n      mstore\n      0x20\n      add\n      0x00\n      keccak256\n        /* \"contracts/4_CrowdFunding.sol\":2636:2669  Fund storage fund = funds[fundId] */\n      swap1\n      pop\n        /* \"contracts/4_CrowdFunding.sol\":2688:2692  fund */\n      dup1\n        /* \"contracts/4_CrowdFunding.sol\":2688:2701  fund.isActive */\n      0x07\n      add\n      0x00\n      swap1\n      sload\n      swap1\n      0x0100\n      exp\n      swap1\n      div\n      0xff\n      and\n        /* \"contracts/4_CrowdFunding.sol\":2680:2721  require(fund.isActive, \"Fund is closed.\") */\n      tag_141\n      jumpi\n      mload(0x40)\n      0x08c379a000000000000000000000000000000000000000000000000000000000\n      dup2\n      mstore\n      0x04\n      add\n      tag_142\n      swap1\n      tag_119\n      jump\t// in\n    tag_142:\n      mload(0x40)\n      dup1\n      swap2\n      sub\n      swap1\n      revert\n    tag_141:\n        /* \"contracts/4_CrowdFunding.sol\":2758:2773  block.timestamp */\n      timestamp\n        /* \"contracts/4_CrowdFunding.sol\":2740:2744  fund */\n      dup2\n        /* \"contracts/4_CrowdFunding.sol\":2740:2754  fund.startDate */\n      0x03\n      add\n      sload\n        /* \"contracts/4_CrowdFunding.sol\":2740:2773  fund.startDate <= block.timestamp */\n      gt\n      iszero\n        /* \"contracts/4_CrowdFunding.sol\":2732:2803  require(fund.startDate <= block.timestamp, \"Fund has not started yet.\") */\n      tag_143\n      jumpi\n      mload(0x40)\n      0x08c379a000000000000000000000000000000000000000000000000000000000\n      dup2\n      mstore\n      0x04\n      add\n      tag_144\n      swap1\n      tag_145\n      jump\t// in\n    tag_144:\n      mload(0x40)\n      dup1\n      swap2\n      sub\n      swap1\n      revert\n    tag_143:\n        /* \"contracts/4_CrowdFunding.sol\":2816:2827  investments */\n      0x02\n        /* \"contracts/4_CrowdFunding.sol\":2847:3022  Investment(\r... */\n      mload(0x40)\n      dup1\n      0xa0\n      add\n      0x40\n      mstore\n      dup1\n        /* \"contracts/4_CrowdFunding.sol\":2876:2891  investmentCount */\n      sload(0x04)\n        /* \"contracts/4_CrowdFunding.sol\":2847:3022  Investment(\r... */\n      dup2\n      mstore\n      0x20\n      add\n        /* \"contracts/4_CrowdFunding.sol\":2910:2916  fundId */\n      dup5\n        /* \"contracts/4_CrowdFunding.sol\":2847:3022  Investment(\r... */\n      dup2\n      mstore\n      0x20\n      add\n        /* \"contracts/4_CrowdFunding.sol\":2935:2945  msg.sender */\n      caller\n        /* \"contracts/4_CrowdFunding.sol\":2847:3022  Investment(\r... */\n      0xffffffffffffffffffffffffffffffffffffffff\n      and\n      dup2\n      mstore\n      0x20\n      add\n        /* \"contracts/4_CrowdFunding.sol\":2964:2973  msg.value */\n      callvalue\n        /* \"contracts/4_CrowdFunding.sol\":2847:3022  Investment(\r... */\n      dup2\n      mstore\n      0x20\n      add\n        /* \"contracts/4_CrowdFunding.sol\":2992:3007  block.timestamp */\n      timestamp\n        /* \"contracts/4_CrowdFunding.sol\":2847:3022  Investment(\r... */\n      dup2\n      mstore\n      pop\n        /* \"contracts/4_CrowdFunding.sol\":2816:3033  investments.push(\r... */\n      swap1\n      dup1\n      0x01\n      dup2\n      sload\n      add\n      dup1\n      dup3\n      sstore\n      dup1\n      swap2\n      pop\n      pop\n      0x01\n      swap1\n      sub\n      swap1\n      0x00\n      mstore\n      keccak256(0x00, 0x20)\n      swap1\n      0x05\n      mul\n      add\n      0x00\n      swap1\n      swap2\n      swap1\n      swap2\n      swap1\n      swap2\n      pop\n      0x00\n      dup3\n      add\n      mload\n      dup2\n      0x00\n      add\n      sstore\n      0x20\n      dup3\n      add\n      mload\n      dup2\n      0x01\n      add\n      sstore\n      0x40\n      dup3\n      add\n      mload\n      dup2\n      0x02\n      add\n      exp(0x0100, 0x00)\n      dup2\n      sload\n      dup2\n      0xffffffffffffffffffffffffffffffffffffffff\n      mul\n      not\n      and\n      swap1\n      dup4\n      0xffffffffffffffffffffffffffffffffffffffff\n      and\n      mul\n      or\n      swap1\n      sstore\n      pop\n      0x60\n      dup3\n      add\n      mload\n      dup2\n      0x03\n      add\n      sstore\n      0x80\n      dup3\n      add\n      mload\n      dup2\n      0x04\n      add\n      sstore\n      pop\n      pop\n        /* \"contracts/4_CrowdFunding.sol\":3044:3059  investmentCount */\n      0x04\n      0x00\n        /* \"contracts/4_CrowdFunding.sol\":3044:3061  investmentCount++ */\n      dup2\n      sload\n      dup1\n      swap3\n      swap2\n      swap1\n      tag_147\n      swap1\n      tag_90\n      jump\t// in\n    tag_147:\n      swap2\n      swap1\n      pop\n      sstore\n      pop\n        /* \"contracts/4_CrowdFunding.sol\":3095:3104  msg.value */\n      callvalue\n        /* \"contracts/4_CrowdFunding.sol\":3072:3076  fund */\n      dup2\n        /* \"contracts/4_CrowdFunding.sol\":3072:3090  fund.currentAmount */\n      0x06\n      add\n      0x00\n        /* \"contracts/4_CrowdFunding.sol\":3072:3104  fund.currentAmount +=  msg.value */\n      dup3\n      dup3\n      sload\n      tag_148\n      swap2\n      swap1\n      tag_149\n      jump\t// in\n    tag_148:\n      swap3\n      pop\n      pop\n      dup2\n      swap1\n      sstore\n      pop\n        /* \"contracts/4_CrowdFunding.sol\":2625:3112  {\r... */\n      pop\n        /* \"contracts/4_CrowdFunding.sol\":2568:3112  function createInvestment(uint256 fundId) public payable {\r... */\n      pop\n      jump\t// out\n    tag_53:\n      mload(0x40)\n      dup1\n      0x0120\n      add\n      0x40\n      mstore\n      dup1\n      0x00\n      dup2\n      mstore\n      0x20\n      add\n      0x60\n      dup2\n      mstore\n      0x20\n      add\n      0x60\n      dup2\n      mstore\n      0x20\n      add\n      0x00\n      dup2\n      mstore\n      0x20\n      add\n      0x00\n      dup2\n      mstore\n      0x20\n      add\n      0x00\n      dup2\n      mstore\n      0x20\n      add\n      0x00\n      dup2\n      mstore\n      0x20\n      add\n      iszero(iszero(0x00))\n      dup2\n      mstore\n      0x20\n      add\n      and(0xffffffffffffffffffffffffffffffffffffffff, 0x00)\n      dup2\n      mstore\n      pop\n      swap1\n      jump\t// out\n    tag_97:\n      mload(0x40)\n      dup1\n      0xa0\n      add\n      0x40\n      mstore\n      dup1\n      0x00\n      dup2\n      mstore\n      0x20\n      add\n      0x00\n      dup2\n      mstore\n      0x20\n      add\n      and(0xffffffffffffffffffffffffffffffffffffffff, 0x00)\n      dup2\n      mstore\n      0x20\n      add\n      0x00\n      dup2\n      mstore\n      0x20\n      add\n      0x00\n      dup2\n      mstore\n      pop\n      swap1\n      jump\t// out\n    tag_137:\n      dup3\n      dup1\n      sload\n      tag_150\n      swap1\n      tag_56\n      jump\t// in\n    tag_150:\n      swap1\n      0x00\n      mstore\n      keccak256(0x00, 0x20)\n      swap1\n      0x1f\n      add\n      0x20\n      swap1\n      div\n      dup2\n      add\n      swap3\n      dup3\n      tag_152\n      jumpi\n      0x00\n      dup6\n      sstore\n      jump(tag_151)\n    tag_152:\n      dup3\n      0x1f\n      lt\n      tag_153\n      jumpi\n      dup1\n      mload\n      not(0xff)\n      and\n      dup4\n      dup1\n      add\n      or\n      dup6\n      sstore\n      jump(tag_151)\n    tag_153:\n      dup3\n      dup1\n      add\n      0x01\n      add\n      dup6\n      sstore\n      dup3\n      iszero\n      tag_151\n      jumpi\n      swap2\n      dup3\n      add\n    tag_154:\n      dup3\n      dup2\n      gt\n      iszero\n      tag_155\n      jumpi\n      dup3\n      mload\n      dup3\n      sstore\n      swap2\n      0x20\n      add\n      swap2\n      swap1\n      0x01\n      add\n      swap1\n      jump(tag_154)\n    tag_155:\n    tag_151:\n      pop\n      swap1\n      pop\n      tag_156\n      swap2\n      swap1\n      tag_157\n      jump\t// in\n    tag_156:\n      pop\n      swap1\n      jump\t// out\n    tag_157:\n    tag_158:\n      dup1\n      dup3\n      gt\n      iszero\n      tag_159\n      jumpi\n      0x00\n      dup2\n      0x00\n      swap1\n      sstore\n      pop\n      0x01\n      add\n      jump(tag_158)\n    tag_159:\n      pop\n      swap1\n      jump\t// out\n        /* \"#utility.yul\":7:419   */\n    tag_161:\n        /* \"#utility.yul\":85:90   */\n      0x00\n        /* \"#utility.yul\":110:176   */\n      tag_163\n        /* \"#utility.yul\":126:175   */\n      tag_164\n        /* \"#utility.yul\":168:174   */\n      dup5\n        /* \"#utility.yul\":126:175   */\n      tag_165\n      jump\t// in\n    tag_164:\n        /* \"#utility.yul\":110:176   */\n      tag_166\n      jump\t// in\n    tag_163:\n        /* \"#utility.yul\":101:176   */\n      swap1\n      pop\n        /* \"#utility.yul\":199:205   */\n      dup3\n        /* \"#utility.yul\":192:197   */\n      dup2\n        /* \"#utility.yul\":185:206   */\n      mstore\n        /* \"#utility.yul\":237:241   */\n      0x20\n        /* \"#utility.yul\":230:235   */\n      dup2\n        /* \"#utility.yul\":226:242   */\n      add\n        /* \"#utility.yul\":275:278   */\n      dup5\n        /* \"#utility.yul\":266:272   */\n      dup5\n        /* \"#utility.yul\":261:264   */\n      dup5\n        /* \"#utility.yul\":257:273   */\n      add\n        /* \"#utility.yul\":254:279   */\n      gt\n        /* \"#utility.yul\":251:363   */\n      iszero\n      tag_167\n      jumpi\n        /* \"#utility.yul\":282:361   */\n      tag_168\n      tag_169\n      jump\t// in\n    tag_168:\n        /* \"#utility.yul\":251:363   */\n    tag_167:\n        /* \"#utility.yul\":372:413   */\n      tag_170\n        /* \"#utility.yul\":406:412   */\n      dup5\n        /* \"#utility.yul\":401:404   */\n      dup3\n        /* \"#utility.yul\":396:399   */\n      dup6\n        /* \"#utility.yul\":372:413   */\n      tag_171\n      jump\t// in\n    tag_170:\n        /* \"#utility.yul\":91:419   */\n      pop\n        /* \"#utility.yul\":7:419   */\n      swap4\n      swap3\n      pop\n      pop\n      pop\n      jump\t// out\n        /* \"#utility.yul\":425:580   */\n    tag_172:\n        /* \"#utility.yul\":479:484   */\n      0x00\n        /* \"#utility.yul\":517:523   */\n      dup2\n        /* \"#utility.yul\":504:524   */\n      calldataload\n        /* \"#utility.yul\":495:524   */\n      swap1\n      pop\n        /* \"#utility.yul\":533:574   */\n      tag_174\n        /* \"#utility.yul\":568:573   */\n      dup2\n        /* \"#utility.yul\":533:574   */\n      tag_175\n      jump\t// in\n    tag_174:\n        /* \"#utility.yul\":425:580   */\n      swap3\n      swap2\n      pop\n      pop\n      jump\t// out\n        /* \"#utility.yul\":600:940   */\n    tag_176:\n        /* \"#utility.yul\":656:661   */\n      0x00\n        /* \"#utility.yul\":705:708   */\n      dup3\n        /* \"#utility.yul\":698:702   */\n      0x1f\n        /* \"#utility.yul\":690:696   */\n      dup4\n        /* \"#utility.yul\":686:703   */\n      add\n        /* \"#utility.yul\":682:709   */\n      slt\n        /* \"#utility.yul\":672:794   */\n      tag_178\n      jumpi\n        /* \"#utility.yul\":713:792   */\n      tag_179\n      tag_180\n      jump\t// in\n    tag_179:\n        /* \"#utility.yul\":672:794   */\n    tag_178:\n        /* \"#utility.yul\":830:836   */\n      dup2\n        /* \"#utility.yul\":817:837   */\n      calldataload\n        /* \"#utility.yul\":855:934   */\n      tag_181\n        /* \"#utility.yul\":930:933   */\n      dup5\n        /* \"#utility.yul\":922:928   */\n      dup3\n        /* \"#utility.yul\":915:919   */\n      0x20\n        /* \"#utility.yul\":907:913   */\n      dup7\n        /* \"#utility.yul\":903:920   */\n      add\n        /* \"#utility.yul\":855:934   */\n      tag_161\n      jump\t// in\n    tag_181:\n        /* \"#utility.yul\":846:934   */\n      swap2\n      pop\n        /* \"#utility.yul\":662:940   */\n      pop\n        /* \"#utility.yul\":600:940   */\n      swap3\n      swap2\n      pop\n      pop\n      jump\t// out\n        /* \"#utility.yul\":946:1085   */\n    tag_182:\n        /* \"#utility.yul\":992:997   */\n      0x00\n        /* \"#utility.yul\":1030:1036   */\n      dup2\n        /* \"#utility.yul\":1017:1037   */\n      calldataload\n        /* \"#utility.yul\":1008:1037   */\n      swap1\n      pop\n        /* \"#utility.yul\":1046:1079   */\n      tag_184\n        /* \"#utility.yul\":1073:1078   */\n      dup2\n        /* \"#utility.yul\":1046:1079   */\n      tag_185\n      jump\t// in\n    tag_184:\n        /* \"#utility.yul\":946:1085   */\n      swap3\n      swap2\n      pop\n      pop\n      jump\t// out\n        /* \"#utility.yul\":1091:2524   */\n    tag_45:\n        /* \"#utility.yul\":1223:1229   */\n      0x00\n        /* \"#utility.yul\":1231:1237   */\n      dup1\n        /* \"#utility.yul\":1239:1245   */\n      0x00\n        /* \"#utility.yul\":1247:1253   */\n      dup1\n        /* \"#utility.yul\":1255:1261   */\n      0x00\n        /* \"#utility.yul\":1263:1269   */\n      dup1\n        /* \"#utility.yul\":1312:1315   */\n      0xc0\n        /* \"#utility.yul\":1300:1309   */\n      dup8\n        /* \"#utility.yul\":1291:1298   */\n      dup10\n        /* \"#utility.yul\":1287:1310   */\n      sub\n        /* \"#utility.yul\":1283:1316   */\n      slt\n        /* \"#utility.yul\":1280:1400   */\n      iszero\n      tag_187\n      jumpi\n        /* \"#utility.yul\":1319:1398   */\n      tag_188\n      tag_189\n      jump\t// in\n    tag_188:\n        /* \"#utility.yul\":1280:1400   */\n    tag_187:\n        /* \"#utility.yul\":1467:1468   */\n      0x00\n        /* \"#utility.yul\":1456:1465   */\n      dup8\n        /* \"#utility.yul\":1452:1469   */\n      add\n        /* \"#utility.yul\":1439:1470   */\n      calldataload\n        /* \"#utility.yul\":1497:1515   */\n      0xffffffffffffffff\n        /* \"#utility.yul\":1489:1495   */\n      dup2\n        /* \"#utility.yul\":1486:1516   */\n      gt\n        /* \"#utility.yul\":1483:1600   */\n      iszero\n      tag_190\n      jumpi\n        /* \"#utility.yul\":1519:1598   */\n      tag_191\n      tag_192\n      jump\t// in\n    tag_191:\n        /* \"#utility.yul\":1483:1600   */\n    tag_190:\n        /* \"#utility.yul\":1624:1687   */\n      tag_193\n        /* \"#utility.yul\":1679:1686   */\n      dup10\n        /* \"#utility.yul\":1670:1676   */\n      dup3\n        /* \"#utility.yul\":1659:1668   */\n      dup11\n        /* \"#utility.yul\":1655:1677   */\n      add\n        /* \"#utility.yul\":1624:1687   */\n      tag_176\n      jump\t// in\n    tag_193:\n        /* \"#utility.yul\":1614:1687   */\n      swap7\n      pop\n        /* \"#utility.yul\":1410:1697   */\n      pop\n        /* \"#utility.yul\":1764:1766   */\n      0x20\n        /* \"#utility.yul\":1753:1762   */\n      dup8\n        /* \"#utility.yul\":1749:1767   */\n      add\n        /* \"#utility.yul\":1736:1768   */\n      calldataload\n        /* \"#utility.yul\":1795:1813   */\n      0xffffffffffffffff\n        /* \"#utility.yul\":1787:1793   */\n      dup2\n        /* \"#utility.yul\":1784:1814   */\n      gt\n        /* \"#utility.yul\":1781:1898   */\n      iszero\n      tag_194\n      jumpi\n        /* \"#utility.yul\":1817:1896   */\n      tag_195\n      tag_192\n      jump\t// in\n    tag_195:\n        /* \"#utility.yul\":1781:1898   */\n    tag_194:\n        /* \"#utility.yul\":1922:1985   */\n      tag_196\n        /* \"#utility.yul\":1977:1984   */\n      dup10\n        /* \"#utility.yul\":1968:1974   */\n      dup3\n        /* \"#utility.yul\":1957:1966   */\n      dup11\n        /* \"#utility.yul\":1953:1975   */\n      add\n        /* \"#utility.yul\":1922:1985   */\n      tag_176\n      jump\t// in\n    tag_196:\n        /* \"#utility.yul\":1912:1985   */\n      swap6\n      pop\n        /* \"#utility.yul\":1707:1995   */\n      pop\n        /* \"#utility.yul\":2034:2036   */\n      0x40\n        /* \"#utility.yul\":2060:2113   */\n      tag_197\n        /* \"#utility.yul\":2105:2112   */\n      dup10\n        /* \"#utility.yul\":2096:2102   */\n      dup3\n        /* \"#utility.yul\":2085:2094   */\n      dup11\n        /* \"#utility.yul\":2081:2103   */\n      add\n        /* \"#utility.yul\":2060:2113   */\n      tag_182\n      jump\t// in\n    tag_197:\n        /* \"#utility.yul\":2050:2113   */\n      swap5\n      pop\n        /* \"#utility.yul\":2005:2123   */\n      pop\n        /* \"#utility.yul\":2162:2164   */\n      0x60\n        /* \"#utility.yul\":2188:2241   */\n      tag_198\n        /* \"#utility.yul\":2233:2240   */\n      dup10\n        /* \"#utility.yul\":2224:2230   */\n      dup3\n        /* \"#utility.yul\":2213:2222   */\n      dup11\n        /* \"#utility.yul\":2209:2231   */\n      add\n        /* \"#utility.yul\":2188:2241   */\n      tag_182\n      jump\t// in\n    tag_198:\n        /* \"#utility.yul\":2178:2241   */\n      swap4\n      pop\n        /* \"#utility.yul\":2133:2251   */\n      pop\n        /* \"#utility.yul\":2290:2293   */\n      0x80\n        /* \"#utility.yul\":2317:2370   */\n      tag_199\n        /* \"#utility.yul\":2362:2369   */\n      dup10\n        /* \"#utility.yul\":2353:2359   */\n      dup3\n        /* \"#utility.yul\":2342:2351   */\n      dup11\n        /* \"#utility.yul\":2338:2360   */\n      add\n        /* \"#utility.yul\":2317:2370   */\n      tag_182\n      jump\t// in\n    tag_199:\n        /* \"#utility.yul\":2307:2370   */\n      swap3\n      pop\n        /* \"#utility.yul\":2261:2380   */\n      pop\n        /* \"#utility.yul\":2419:2422   */\n      0xa0\n        /* \"#utility.yul\":2446:2507   */\n      tag_200\n        /* \"#utility.yul\":2499:2506   */\n      dup10\n        /* \"#utility.yul\":2490:2496   */\n      dup3\n        /* \"#utility.yul\":2479:2488   */\n      dup11\n        /* \"#utility.yul\":2475:2497   */\n      add\n        /* \"#utility.yul\":2446:2507   */\n      tag_172\n      jump\t// in\n    tag_200:\n        /* \"#utility.yul\":2436:2507   */\n      swap2\n      pop\n        /* \"#utility.yul\":2390:2517   */\n      pop\n        /* \"#utility.yul\":1091:2524   */\n      swap3\n      swap6\n      pop\n      swap3\n      swap6\n      pop\n      swap3\n      swap6\n      jump\t// out\n        /* \"#utility.yul\":2530:2859   */\n    tag_19:\n        /* \"#utility.yul\":2589:2595   */\n      0x00\n        /* \"#utility.yul\":2638:2640   */\n      0x20\n        /* \"#utility.yul\":2626:2635   */\n      dup3\n        /* \"#utility.yul\":2617:2624   */\n      dup5\n        /* \"#utility.yul\":2613:2636   */\n      sub\n        /* \"#utility.yul\":2609:2641   */\n      slt\n        /* \"#utility.yul\":2606:2725   */\n      iszero\n      tag_202\n      jumpi\n        /* \"#utility.yul\":2644:2723   */\n      tag_203\n      tag_189\n      jump\t// in\n    tag_203:\n        /* \"#utility.yul\":2606:2725   */\n    tag_202:\n        /* \"#utility.yul\":2764:2765   */\n      0x00\n        /* \"#utility.yul\":2789:2842   */\n      tag_204\n        /* \"#utility.yul\":2834:2841   */\n      dup5\n        /* \"#utility.yul\":2825:2831   */\n      dup3\n        /* \"#utility.yul\":2814:2823   */\n      dup6\n        /* \"#utility.yul\":2810:2832   */\n      add\n        /* \"#utility.yul\":2789:2842   */\n      tag_182\n      jump\t// in\n    tag_204:\n        /* \"#utility.yul\":2779:2842   */\n      swap2\n      pop\n        /* \"#utility.yul\":2735:2852   */\n      pop\n        /* \"#utility.yul\":2530:2859   */\n      swap3\n      swap2\n      pop\n      pop\n      jump\t// out\n        /* \"#utility.yul\":2865:3101   */\n    tag_205:\n        /* \"#utility.yul\":2974:2984   */\n      0x00\n        /* \"#utility.yul\":3009:3095   */\n      tag_207\n        /* \"#utility.yul\":3091:3094   */\n      dup4\n        /* \"#utility.yul\":3083:3089   */\n      dup4\n        /* \"#utility.yul\":3009:3095   */\n      tag_208\n      jump\t// in\n    tag_207:\n        /* \"#utility.yul\":2995:3095   */\n      swap1\n      pop\n        /* \"#utility.yul\":2865:3101   */\n      swap3\n      swap2\n      pop\n      pop\n      jump\t// out\n        /* \"#utility.yul\":3107:3390   */\n    tag_209:\n        /* \"#utility.yul\":3228:3238   */\n      0x00\n        /* \"#utility.yul\":3249:3347   */\n      tag_211\n        /* \"#utility.yul\":3343:3346   */\n      dup4\n        /* \"#utility.yul\":3335:3341   */\n      dup4\n        /* \"#utility.yul\":3249:3347   */\n      tag_212\n      jump\t// in\n    tag_211:\n        /* \"#utility.yul\":3379:3383   */\n      0xa0\n        /* \"#utility.yul\":3374:3377   */\n      dup4\n        /* \"#utility.yul\":3370:3384   */\n      add\n        /* \"#utility.yul\":3356:3384   */\n      swap1\n      pop\n        /* \"#utility.yul\":3107:3390   */\n      swap3\n      swap2\n      pop\n      pop\n      jump\t// out\n        /* \"#utility.yul\":3396:3528   */\n    tag_213:\n        /* \"#utility.yul\":3489:3521   */\n      tag_215\n        /* \"#utility.yul\":3515:3520   */\n      dup2\n        /* \"#utility.yul\":3489:3521   */\n      tag_216\n      jump\t// in\n    tag_215:\n        /* \"#utility.yul\":3484:3487   */\n      dup3\n        /* \"#utility.yul\":3477:3522   */\n      mstore\n        /* \"#utility.yul\":3396:3528   */\n      pop\n      pop\n      jump\t// out\n        /* \"#utility.yul\":3534:3642   */\n    tag_217:\n        /* \"#utility.yul\":3611:3635   */\n      tag_219\n        /* \"#utility.yul\":3629:3634   */\n      dup2\n        /* \"#utility.yul\":3611:3635   */\n      tag_220\n      jump\t// in\n    tag_219:\n        /* \"#utility.yul\":3606:3609   */\n      dup3\n        /* \"#utility.yul\":3599:3636   */\n      mstore\n        /* \"#utility.yul\":3534:3642   */\n      pop\n      pop\n      jump\t// out\n        /* \"#utility.yul\":3648:3766   */\n    tag_221:\n        /* \"#utility.yul\":3735:3759   */\n      tag_223\n        /* \"#utility.yul\":3753:3758   */\n      dup2\n        /* \"#utility.yul\":3735:3759   */\n      tag_220\n      jump\t// in\n    tag_223:\n        /* \"#utility.yul\":3730:3733   */\n      dup3\n        /* \"#utility.yul\":3723:3760   */\n      mstore\n        /* \"#utility.yul\":3648:3766   */\n      pop\n      pop\n      jump\t// out\n        /* \"#utility.yul\":3836:4907   */\n    tag_224:\n        /* \"#utility.yul\":3995:3998   */\n      0x00\n        /* \"#utility.yul\":4024:4098   */\n      tag_226\n        /* \"#utility.yul\":4092:4097   */\n      dup3\n        /* \"#utility.yul\":4024:4098   */\n      tag_227\n      jump\t// in\n    tag_226:\n        /* \"#utility.yul\":4114:4220   */\n      tag_228\n        /* \"#utility.yul\":4213:4219   */\n      dup2\n        /* \"#utility.yul\":4208:4211   */\n      dup6\n        /* \"#utility.yul\":4114:4220   */\n      tag_229\n      jump\t// in\n    tag_228:\n        /* \"#utility.yul\":4107:4220   */\n      swap4\n      pop\n        /* \"#utility.yul\":4246:4249   */\n      dup4\n        /* \"#utility.yul\":4291:4295   */\n      0x20\n        /* \"#utility.yul\":4283:4289   */\n      dup3\n        /* \"#utility.yul\":4279:4296   */\n      mul\n        /* \"#utility.yul\":4274:4277   */\n      dup6\n        /* \"#utility.yul\":4270:4297   */\n      add\n        /* \"#utility.yul\":4321:4397   */\n      tag_230\n        /* \"#utility.yul\":4391:4396   */\n      dup6\n        /* \"#utility.yul\":4321:4397   */\n      tag_231\n      jump\t// in\n    tag_230:\n        /* \"#utility.yul\":4420:4427   */\n      dup1\n        /* \"#utility.yul\":4451:4452   */\n      0x00\n        /* \"#utility.yul\":4436:4862   */\n    tag_232:\n        /* \"#utility.yul\":4461:4467   */\n      dup6\n        /* \"#utility.yul\":4458:4459   */\n      dup2\n        /* \"#utility.yul\":4455:4468   */\n      lt\n        /* \"#utility.yul\":4436:4862   */\n      iszero\n      tag_234\n      jumpi\n        /* \"#utility.yul\":4532:4541   */\n      dup5\n        /* \"#utility.yul\":4526:4530   */\n      dup5\n        /* \"#utility.yul\":4522:4542   */\n      sub\n        /* \"#utility.yul\":4517:4520   */\n      dup10\n        /* \"#utility.yul\":4510:4543   */\n      mstore\n        /* \"#utility.yul\":4583:4589   */\n      dup2\n        /* \"#utility.yul\":4577:4590   */\n      mload\n        /* \"#utility.yul\":4611:4715   */\n      tag_235\n        /* \"#utility.yul\":4710:4714   */\n      dup6\n        /* \"#utility.yul\":4695:4708   */\n      dup3\n        /* \"#utility.yul\":4611:4715   */\n      tag_205\n      jump\t// in\n    tag_235:\n        /* \"#utility.yul\":4603:4715   */\n      swap5\n      pop\n        /* \"#utility.yul\":4738:4818   */\n      tag_236\n        /* \"#utility.yul\":4811:4817   */\n      dup4\n        /* \"#utility.yul\":4738:4818   */\n      tag_237\n      jump\t// in\n    tag_236:\n        /* \"#utility.yul\":4728:4818   */\n      swap3\n      pop\n        /* \"#utility.yul\":4847:4851   */\n      0x20\n        /* \"#utility.yul\":4842:4845   */\n      dup11\n        /* \"#utility.yul\":4838:4852   */\n      add\n        /* \"#utility.yul\":4831:4852   */\n      swap10\n      pop\n        /* \"#utility.yul\":4496:4862   */\n      pop\n        /* \"#utility.yul\":4483:4484   */\n      0x01\n        /* \"#utility.yul\":4480:4481   */\n      dup2\n        /* \"#utility.yul\":4476:4485   */\n      add\n        /* \"#utility.yul\":4471:4485   */\n      swap1\n      pop\n        /* \"#utility.yul\":4436:4862   */\n      jump(tag_232)\n    tag_234:\n        /* \"#utility.yul\":4440:4454   */\n      pop\n        /* \"#utility.yul\":4878:4882   */\n      dup3\n        /* \"#utility.yul\":4871:4882   */\n      swap8\n      pop\n        /* \"#utility.yul\":4898:4901   */\n      dup8\n        /* \"#utility.yul\":4891:4901   */\n      swap6\n      pop\n        /* \"#utility.yul\":4000:4907   */\n      pop\n      pop\n      pop\n      pop\n      pop\n        /* \"#utility.yul\":3836:4907   */\n      swap3\n      swap2\n      pop\n      pop\n      jump\t// out\n        /* \"#utility.yul\":4989:5929   */\n    tag_238:\n        /* \"#utility.yul\":5160:5163   */\n      0x00\n        /* \"#utility.yul\":5189:5269   */\n      tag_240\n        /* \"#utility.yul\":5263:5268   */\n      dup3\n        /* \"#utility.yul\":5189:5269   */\n      tag_241\n      jump\t// in\n    tag_240:\n        /* \"#utility.yul\":5285:5397   */\n      tag_242\n        /* \"#utility.yul\":5390:5396   */\n      dup2\n        /* \"#utility.yul\":5385:5388   */\n      dup6\n        /* \"#utility.yul\":5285:5397   */\n      tag_243\n      jump\t// in\n    tag_242:\n        /* \"#utility.yul\":5278:5397   */\n      swap4\n      pop\n        /* \"#utility.yul\":5421:5503   */\n      tag_244\n        /* \"#utility.yul\":5497:5502   */\n      dup4\n        /* \"#utility.yul\":5421:5503   */\n      tag_245\n      jump\t// in\n    tag_244:\n        /* \"#utility.yul\":5526:5533   */\n      dup1\n        /* \"#utility.yul\":5557:5558   */\n      0x00\n        /* \"#utility.yul\":5542:5904   */\n    tag_246:\n        /* \"#utility.yul\":5567:5573   */\n      dup4\n        /* \"#utility.yul\":5564:5565   */\n      dup2\n        /* \"#utility.yul\":5561:5574   */\n      lt\n        /* \"#utility.yul\":5542:5904   */\n      iszero\n      tag_248\n      jumpi\n        /* \"#utility.yul\":5643:5649   */\n      dup2\n        /* \"#utility.yul\":5637:5650   */\n      mload\n        /* \"#utility.yul\":5670:5785   */\n      tag_249\n        /* \"#utility.yul\":5781:5784   */\n      dup9\n        /* \"#utility.yul\":5766:5779   */\n      dup3\n        /* \"#utility.yul\":5670:5785   */\n      tag_209\n      jump\t// in\n    tag_249:\n        /* \"#utility.yul\":5663:5785   */\n      swap8\n      pop\n        /* \"#utility.yul\":5808:5894   */\n      tag_250\n        /* \"#utility.yul\":5887:5893   */\n      dup4\n        /* \"#utility.yul\":5808:5894   */\n      tag_251\n      jump\t// in\n    tag_250:\n        /* \"#utility.yul\":5798:5894   */\n      swap3\n      pop\n        /* \"#utility.yul\":5602:5904   */\n      pop\n        /* \"#utility.yul\":5589:5590   */\n      0x01\n        /* \"#utility.yul\":5586:5587   */\n      dup2\n        /* \"#utility.yul\":5582:5591   */\n      add\n        /* \"#utility.yul\":5577:5591   */\n      swap1\n      pop\n        /* \"#utility.yul\":5542:5904   */\n      jump(tag_246)\n    tag_248:\n        /* \"#utility.yul\":5546:5560   */\n      pop\n        /* \"#utility.yul\":5920:5923   */\n      dup6\n        /* \"#utility.yul\":5913:5923   */\n      swap4\n      pop\n        /* \"#utility.yul\":5165:5929   */\n      pop\n      pop\n      pop\n        /* \"#utility.yul\":4989:5929   */\n      swap3\n      swap2\n      pop\n      pop\n      jump\t// out\n        /* \"#utility.yul\":5935:6034   */\n    tag_252:\n        /* \"#utility.yul\":6006:6027   */\n      tag_254\n        /* \"#utility.yul\":6021:6026   */\n      dup2\n        /* \"#utility.yul\":6006:6027   */\n      tag_255\n      jump\t// in\n    tag_254:\n        /* \"#utility.yul\":6001:6004   */\n      dup3\n        /* \"#utility.yul\":5994:6028   */\n      mstore\n        /* \"#utility.yul\":5935:6034   */\n      pop\n      pop\n      jump\t// out\n        /* \"#utility.yul\":6040:6384   */\n    tag_256:\n        /* \"#utility.yul\":6118:6121   */\n      0x00\n        /* \"#utility.yul\":6146:6185   */\n      tag_258\n        /* \"#utility.yul\":6179:6184   */\n      dup3\n        /* \"#utility.yul\":6146:6185   */\n      tag_259\n      jump\t// in\n    tag_258:\n        /* \"#utility.yul\":6201:6262   */\n      tag_260\n        /* \"#utility.yul\":6255:6261   */\n      dup2\n        /* \"#utility.yul\":6250:6253   */\n      dup6\n        /* \"#utility.yul\":6201:6262   */\n      tag_261\n      jump\t// in\n    tag_260:\n        /* \"#utility.yul\":6194:6262   */\n      swap4\n      pop\n        /* \"#utility.yul\":6271:6323   */\n      tag_262\n        /* \"#utility.yul\":6316:6322   */\n      dup2\n        /* \"#utility.yul\":6311:6314   */\n      dup6\n        /* \"#utility.yul\":6304:6308   */\n      0x20\n        /* \"#utility.yul\":6297:6302   */\n      dup7\n        /* \"#utility.yul\":6293:6309   */\n      add\n        /* \"#utility.yul\":6271:6323   */\n      tag_263\n      jump\t// in\n    tag_262:\n        /* \"#utility.yul\":6348:6377   */\n      tag_264\n        /* \"#utility.yul\":6370:6376   */\n      dup2\n        /* \"#utility.yul\":6348:6377   */\n      tag_265\n      jump\t// in\n    tag_264:\n        /* \"#utility.yul\":6343:6346   */\n      dup5\n        /* \"#utility.yul\":6339:6378   */\n      add\n        /* \"#utility.yul\":6332:6378   */\n      swap2\n      pop\n        /* \"#utility.yul\":6122:6384   */\n      pop\n        /* \"#utility.yul\":6040:6384   */\n      swap3\n      swap2\n      pop\n      pop\n      jump\t// out\n        /* \"#utility.yul\":6390:6756   */\n    tag_266:\n        /* \"#utility.yul\":6532:6535   */\n      0x00\n        /* \"#utility.yul\":6553:6620   */\n      tag_268\n        /* \"#utility.yul\":6617:6619   */\n      0x35\n        /* \"#utility.yul\":6612:6615   */\n      dup4\n        /* \"#utility.yul\":6553:6620   */\n      tag_269\n      jump\t// in\n    tag_268:\n        /* \"#utility.yul\":6546:6620   */\n      swap2\n      pop\n        /* \"#utility.yul\":6629:6722   */\n      tag_270\n        /* \"#utility.yul\":6718:6721   */\n      dup3\n        /* \"#utility.yul\":6629:6722   */\n      tag_271\n      jump\t// in\n    tag_270:\n        /* \"#utility.yul\":6747:6749   */\n      0x40\n        /* \"#utility.yul\":6742:6745   */\n      dup3\n        /* \"#utility.yul\":6738:6750   */\n      add\n        /* \"#utility.yul\":6731:6750   */\n      swap1\n      pop\n        /* \"#utility.yul\":6390:6756   */\n      swap2\n      swap1\n      pop\n      jump\t// out\n        /* \"#utility.yul\":6762:7128   */\n    tag_272:\n        /* \"#utility.yul\":6904:6907   */\n      0x00\n        /* \"#utility.yul\":6925:6992   */\n      tag_274\n        /* \"#utility.yul\":6989:6991   */\n      0x39\n        /* \"#utility.yul\":6984:6987   */\n      dup4\n        /* \"#utility.yul\":6925:6992   */\n      tag_269\n      jump\t// in\n    tag_274:\n        /* \"#utility.yul\":6918:6992   */\n      swap2\n      pop\n        /* \"#utility.yul\":7001:7094   */\n      tag_275\n        /* \"#utility.yul\":7090:7093   */\n      dup3\n        /* \"#utility.yul\":7001:7094   */\n      tag_276\n      jump\t// in\n    tag_275:\n        /* \"#utility.yul\":7119:7121   */\n      0x40\n        /* \"#utility.yul\":7114:7117   */\n      dup3\n        /* \"#utility.yul\":7110:7122   */\n      add\n        /* \"#utility.yul\":7103:7122   */\n      swap1\n      pop\n        /* \"#utility.yul\":6762:7128   */\n      swap2\n      swap1\n      pop\n      jump\t// out\n        /* \"#utility.yul\":7134:7500   */\n    tag_277:\n        /* \"#utility.yul\":7276:7279   */\n      0x00\n        /* \"#utility.yul\":7297:7364   */\n      tag_279\n        /* \"#utility.yul\":7361:7363   */\n      0x19\n        /* \"#utility.yul\":7356:7359   */\n      dup4\n        /* \"#utility.yul\":7297:7364   */\n      tag_269\n      jump\t// in\n    tag_279:\n        /* \"#utility.yul\":7290:7364   */\n      swap2\n      pop\n        /* \"#utility.yul\":7373:7466   */\n      tag_280\n        /* \"#utility.yul\":7462:7465   */\n      dup3\n        /* \"#utility.yul\":7373:7466   */\n      tag_281\n      jump\t// in\n    tag_280:\n        /* \"#utility.yul\":7491:7493   */\n      0x20\n        /* \"#utility.yul\":7486:7489   */\n      dup3\n        /* \"#utility.yul\":7482:7494   */\n      add\n        /* \"#utility.yul\":7475:7494   */\n      swap1\n      pop\n        /* \"#utility.yul\":7134:7500   */\n      swap2\n      swap1\n      pop\n      jump\t// out\n        /* \"#utility.yul\":7506:7872   */\n    tag_282:\n        /* \"#utility.yul\":7648:7651   */\n      0x00\n        /* \"#utility.yul\":7669:7736   */\n      tag_284\n        /* \"#utility.yul\":7733:7735   */\n      0x2b\n        /* \"#utility.yul\":7728:7731   */\n      dup4\n        /* \"#utility.yul\":7669:7736   */\n      tag_269\n      jump\t// in\n    tag_284:\n        /* \"#utility.yul\":7662:7736   */\n      swap2\n      pop\n        /* \"#utility.yul\":7745:7838   */\n      tag_285\n        /* \"#utility.yul\":7834:7837   */\n      dup3\n        /* \"#utility.yul\":7745:7838   */\n      tag_286\n      jump\t// in\n    tag_285:\n        /* \"#utility.yul\":7863:7865   */\n      0x40\n        /* \"#utility.yul\":7858:7861   */\n      dup3\n        /* \"#utility.yul\":7854:7866   */\n      add\n        /* \"#utility.yul\":7847:7866   */\n      swap1\n      pop\n        /* \"#utility.yul\":7506:7872   */\n      swap2\n      swap1\n      pop\n      jump\t// out\n        /* \"#utility.yul\":7878:8244   */\n    tag_287:\n        /* \"#utility.yul\":8020:8023   */\n      0x00\n        /* \"#utility.yul\":8041:8108   */\n      tag_289\n        /* \"#utility.yul\":8105:8107   */\n      0x0f\n        /* \"#utility.yul\":8100:8103   */\n      dup4\n        /* \"#utility.yul\":8041:8108   */\n      tag_269\n      jump\t// in\n    tag_289:\n        /* \"#utility.yul\":8034:8108   */\n      swap2\n      pop\n        /* \"#utility.yul\":8117:8210   */\n      tag_290\n        /* \"#utility.yul\":8206:8209   */\n      dup3\n        /* \"#utility.yul\":8117:8210   */\n      tag_291\n      jump\t// in\n    tag_290:\n        /* \"#utility.yul\":8235:8237   */\n      0x20\n        /* \"#utility.yul\":8230:8233   */\n      dup3\n        /* \"#utility.yul\":8226:8238   */\n      add\n        /* \"#utility.yul\":8219:8238   */\n      swap1\n      pop\n        /* \"#utility.yul\":7878:8244   */\n      swap2\n      swap1\n      pop\n      jump\t// out\n        /* \"#utility.yul\":8250:8616   */\n    tag_292:\n        /* \"#utility.yul\":8392:8395   */\n      0x00\n        /* \"#utility.yul\":8413:8480   */\n      tag_294\n        /* \"#utility.yul\":8477:8479   */\n      0x39\n        /* \"#utility.yul\":8472:8475   */\n      dup4\n        /* \"#utility.yul\":8413:8480   */\n      tag_269\n      jump\t// in\n    tag_294:\n        /* \"#utility.yul\":8406:8480   */\n      swap2\n      pop\n        /* \"#utility.yul\":8489:8582   */\n      tag_295\n        /* \"#utility.yul\":8578:8581   */\n      dup3\n        /* \"#utility.yul\":8489:8582   */\n      tag_296\n      jump\t// in\n    tag_295:\n        /* \"#utility.yul\":8607:8609   */\n      0x40\n        /* \"#utility.yul\":8602:8605   */\n      dup3\n        /* \"#utility.yul\":8598:8610   */\n      add\n        /* \"#utility.yul\":8591:8610   */\n      swap1\n      pop\n        /* \"#utility.yul\":8250:8616   */\n      swap2\n      swap1\n      pop\n      jump\t// out\n        /* \"#utility.yul\":8682:10616   */\n    tag_208:\n        /* \"#utility.yul\":8781:8784   */\n      0x00\n        /* \"#utility.yul\":8817:8823   */\n      0x0120\n        /* \"#utility.yul\":8812:8815   */\n      dup4\n        /* \"#utility.yul\":8808:8824   */\n      add\n        /* \"#utility.yul\":8904:8908   */\n      0x00\n        /* \"#utility.yul\":8897:8902   */\n      dup4\n        /* \"#utility.yul\":8893:8909   */\n      add\n        /* \"#utility.yul\":8887:8910   */\n      mload\n        /* \"#utility.yul\":8923:8986   */\n      tag_298\n        /* \"#utility.yul\":8980:8984   */\n      0x00\n        /* \"#utility.yul\":8975:8978   */\n      dup7\n        /* \"#utility.yul\":8971:8985   */\n      add\n        /* \"#utility.yul\":8957:8969   */\n      dup3\n        /* \"#utility.yul\":8923:8986   */\n      tag_299\n      jump\t// in\n    tag_298:\n        /* \"#utility.yul\":8834:8996   */\n      pop\n        /* \"#utility.yul\":9078:9082   */\n      0x20\n        /* \"#utility.yul\":9071:9076   */\n      dup4\n        /* \"#utility.yul\":9067:9083   */\n      add\n        /* \"#utility.yul\":9061:9084   */\n      mload\n        /* \"#utility.yul\":9131:9134   */\n      dup5\n        /* \"#utility.yul\":9125:9129   */\n      dup3\n        /* \"#utility.yul\":9121:9135   */\n      sub\n        /* \"#utility.yul\":9114:9118   */\n      0x20\n        /* \"#utility.yul\":9109:9112   */\n      dup7\n        /* \"#utility.yul\":9105:9119   */\n      add\n        /* \"#utility.yul\":9098:9136   */\n      mstore\n        /* \"#utility.yul\":9157:9230   */\n      tag_300\n        /* \"#utility.yul\":9225:9229   */\n      dup3\n        /* \"#utility.yul\":9211:9223   */\n      dup3\n        /* \"#utility.yul\":9157:9230   */\n      tag_256\n      jump\t// in\n    tag_300:\n        /* \"#utility.yul\":9149:9230   */\n      swap2\n      pop\n        /* \"#utility.yul\":9006:9241   */\n      pop\n        /* \"#utility.yul\":9330:9334   */\n      0x40\n        /* \"#utility.yul\":9323:9328   */\n      dup4\n        /* \"#utility.yul\":9319:9335   */\n      add\n        /* \"#utility.yul\":9313:9336   */\n      mload\n        /* \"#utility.yul\":9383:9386   */\n      dup5\n        /* \"#utility.yul\":9377:9381   */\n      dup3\n        /* \"#utility.yul\":9373:9387   */\n      sub\n        /* \"#utility.yul\":9366:9370   */\n      0x40\n        /* \"#utility.yul\":9361:9364   */\n      dup7\n        /* \"#utility.yul\":9357:9371   */\n      add\n        /* \"#utility.yul\":9350:9388   */\n      mstore\n        /* \"#utility.yul\":9409:9482   */\n      tag_301\n        /* \"#utility.yul\":9477:9481   */\n      dup3\n        /* \"#utility.yul\":9463:9475   */\n      dup3\n        /* \"#utility.yul\":9409:9482   */\n      tag_256\n      jump\t// in\n    tag_301:\n        /* \"#utility.yul\":9401:9482   */\n      swap2\n      pop\n        /* \"#utility.yul\":9251:9493   */\n      pop\n        /* \"#utility.yul\":9580:9584   */\n      0x60\n        /* \"#utility.yul\":9573:9578   */\n      dup4\n        /* \"#utility.yul\":9569:9585   */\n      add\n        /* \"#utility.yul\":9563:9586   */\n      mload\n        /* \"#utility.yul\":9599:9662   */\n      tag_302\n        /* \"#utility.yul\":9656:9660   */\n      0x60\n        /* \"#utility.yul\":9651:9654   */\n      dup7\n        /* \"#utility.yul\":9647:9661   */\n      add\n        /* \"#utility.yul\":9633:9645   */\n      dup3\n        /* \"#utility.yul\":9599:9662   */\n      tag_299\n      jump\t// in\n    tag_302:\n        /* \"#utility.yul\":9503:9672   */\n      pop\n        /* \"#utility.yul\":9757:9761   */\n      0x80\n        /* \"#utility.yul\":9750:9755   */\n      dup4\n        /* \"#utility.yul\":9746:9762   */\n      add\n        /* \"#utility.yul\":9740:9763   */\n      mload\n        /* \"#utility.yul\":9776:9839   */\n      tag_303\n        /* \"#utility.yul\":9833:9837   */\n      0x80\n        /* \"#utility.yul\":9828:9831   */\n      dup7\n        /* \"#utility.yul\":9824:9838   */\n      add\n        /* \"#utility.yul\":9810:9822   */\n      dup3\n        /* \"#utility.yul\":9776:9839   */\n      tag_299\n      jump\t// in\n    tag_303:\n        /* \"#utility.yul\":9682:9849   */\n      pop\n        /* \"#utility.yul\":9937:9941   */\n      0xa0\n        /* \"#utility.yul\":9930:9935   */\n      dup4\n        /* \"#utility.yul\":9926:9942   */\n      add\n        /* \"#utility.yul\":9920:9943   */\n      mload\n        /* \"#utility.yul\":9956:10019   */\n      tag_304\n        /* \"#utility.yul\":10013:10017   */\n      0xa0\n        /* \"#utility.yul\":10008:10011   */\n      dup7\n        /* \"#utility.yul\":10004:10018   */\n      add\n        /* \"#utility.yul\":9990:10002   */\n      dup3\n        /* \"#utility.yul\":9956:10019   */\n      tag_299\n      jump\t// in\n    tag_304:\n        /* \"#utility.yul\":9859:10029   */\n      pop\n        /* \"#utility.yul\":10120:10124   */\n      0xc0\n        /* \"#utility.yul\":10113:10118   */\n      dup4\n        /* \"#utility.yul\":10109:10125   */\n      add\n        /* \"#utility.yul\":10103:10126   */\n      mload\n        /* \"#utility.yul\":10139:10202   */\n      tag_305\n        /* \"#utility.yul\":10196:10200   */\n      0xc0\n        /* \"#utility.yul\":10191:10194   */\n      dup7\n        /* \"#utility.yul\":10187:10201   */\n      add\n        /* \"#utility.yul\":10173:10185   */\n      dup3\n        /* \"#utility.yul\":10139:10202   */\n      tag_299\n      jump\t// in\n    tag_305:\n        /* \"#utility.yul\":10039:10212   */\n      pop\n        /* \"#utility.yul\":10298:10302   */\n      0xe0\n        /* \"#utility.yul\":10291:10296   */\n      dup4\n        /* \"#utility.yul\":10287:10303   */\n      add\n        /* \"#utility.yul\":10281:10304   */\n      mload\n        /* \"#utility.yul\":10317:10374   */\n      tag_306\n        /* \"#utility.yul\":10368:10372   */\n      0xe0\n        /* \"#utility.yul\":10363:10366   */\n      dup7\n        /* \"#utility.yul\":10359:10373   */\n      add\n        /* \"#utility.yul\":10345:10357   */\n      dup3\n        /* \"#utility.yul\":10317:10374   */\n      tag_252\n      jump\t// in\n    tag_306:\n        /* \"#utility.yul\":10222:10384   */\n      pop\n        /* \"#utility.yul\":10477:10483   */\n      0x0100\n        /* \"#utility.yul\":10470:10475   */\n      dup4\n        /* \"#utility.yul\":10466:10484   */\n      add\n        /* \"#utility.yul\":10460:10485   */\n      mload\n        /* \"#utility.yul\":10498:10579   */\n      tag_307\n        /* \"#utility.yul\":10571:10577   */\n      0x0100\n        /* \"#utility.yul\":10566:10569   */\n      dup7\n        /* \"#utility.yul\":10562:10578   */\n      add\n        /* \"#utility.yul\":10548:10560   */\n      dup3\n        /* \"#utility.yul\":10498:10579   */\n      tag_213\n      jump\t// in\n    tag_307:\n        /* \"#utility.yul\":10394:10589   */\n      pop\n        /* \"#utility.yul\":10606:10610   */\n      dup1\n        /* \"#utility.yul\":10599:10610   */\n      swap2\n      pop\n        /* \"#utility.yul\":8786:10616   */\n      pop\n        /* \"#utility.yul\":8682:10616   */\n      swap3\n      swap2\n      pop\n      pop\n      jump\t// out\n        /* \"#utility.yul\":10682:12626   */\n    tag_308:\n        /* \"#utility.yul\":10791:10794   */\n      0x00\n        /* \"#utility.yul\":10827:10833   */\n      0x0120\n        /* \"#utility.yul\":10822:10825   */\n      dup4\n        /* \"#utility.yul\":10818:10834   */\n      add\n        /* \"#utility.yul\":10914:10918   */\n      0x00\n        /* \"#utility.yul\":10907:10912   */\n      dup4\n        /* \"#utility.yul\":10903:10919   */\n      add\n        /* \"#utility.yul\":10897:10920   */\n      mload\n        /* \"#utility.yul\":10933:10996   */\n      tag_310\n        /* \"#utility.yul\":10990:10994   */\n      0x00\n        /* \"#utility.yul\":10985:10988   */\n      dup7\n        /* \"#utility.yul\":10981:10995   */\n      add\n        /* \"#utility.yul\":10967:10979   */\n      dup3\n        /* \"#utility.yul\":10933:10996   */\n      tag_299\n      jump\t// in\n    tag_310:\n        /* \"#utility.yul\":10844:11006   */\n      pop\n        /* \"#utility.yul\":11088:11092   */\n      0x20\n        /* \"#utility.yul\":11081:11086   */\n      dup4\n        /* \"#utility.yul\":11077:11093   */\n      add\n        /* \"#utility.yul\":11071:11094   */\n      mload\n        /* \"#utility.yul\":11141:11144   */\n      dup5\n        /* \"#utility.yul\":11135:11139   */\n      dup3\n        /* \"#utility.yul\":11131:11145   */\n      sub\n        /* \"#utility.yul\":11124:11128   */\n      0x20\n        /* \"#utility.yul\":11119:11122   */\n      dup7\n        /* \"#utility.yul\":11115:11129   */\n      add\n        /* \"#utility.yul\":11108:11146   */\n      mstore\n        /* \"#utility.yul\":11167:11240   */\n      tag_311\n        /* \"#utility.yul\":11235:11239   */\n      dup3\n        /* \"#utility.yul\":11221:11233   */\n      dup3\n        /* \"#utility.yul\":11167:11240   */\n      tag_256\n      jump\t// in\n    tag_311:\n        /* \"#utility.yul\":11159:11240   */\n      swap2\n      pop\n        /* \"#utility.yul\":11016:11251   */\n      pop\n        /* \"#utility.yul\":11340:11344   */\n      0x40\n        /* \"#utility.yul\":11333:11338   */\n      dup4\n        /* \"#utility.yul\":11329:11345   */\n      add\n        /* \"#utility.yul\":11323:11346   */\n      mload\n        /* \"#utility.yul\":11393:11396   */\n      dup5\n        /* \"#utility.yul\":11387:11391   */\n      dup3\n        /* \"#utility.yul\":11383:11397   */\n      sub\n        /* \"#utility.yul\":11376:11380   */\n      0x40\n        /* \"#utility.yul\":11371:11374   */\n      dup7\n        /* \"#utility.yul\":11367:11381   */\n      add\n        /* \"#utility.yul\":11360:11398   */\n      mstore\n        /* \"#utility.yul\":11419:11492   */\n      tag_312\n        /* \"#utility.yul\":11487:11491   */\n      dup3\n        /* \"#utility.yul\":11473:11485   */\n      dup3\n        /* \"#utility.yul\":11419:11492   */\n      tag_256\n      jump\t// in\n    tag_312:\n        /* \"#utility.yul\":11411:11492   */\n      swap2\n      pop\n        /* \"#utility.yul\":11261:11503   */\n      pop\n        /* \"#utility.yul\":11590:11594   */\n      0x60\n        /* \"#utility.yul\":11583:11588   */\n      dup4\n        /* \"#utility.yul\":11579:11595   */\n      add\n        /* \"#utility.yul\":11573:11596   */\n      mload\n        /* \"#utility.yul\":11609:11672   */\n      tag_313\n        /* \"#utility.yul\":11666:11670   */\n      0x60\n        /* \"#utility.yul\":11661:11664   */\n      dup7\n        /* \"#utility.yul\":11657:11671   */\n      add\n        /* \"#utility.yul\":11643:11655   */\n      dup3\n        /* \"#utility.yul\":11609:11672   */\n      tag_299\n      jump\t// in\n    tag_313:\n        /* \"#utility.yul\":11513:11682   */\n      pop\n        /* \"#utility.yul\":11767:11771   */\n      0x80\n        /* \"#utility.yul\":11760:11765   */\n      dup4\n        /* \"#utility.yul\":11756:11772   */\n      add\n        /* \"#utility.yul\":11750:11773   */\n      mload\n        /* \"#utility.yul\":11786:11849   */\n      tag_314\n        /* \"#utility.yul\":11843:11847   */\n      0x80\n        /* \"#utility.yul\":11838:11841   */\n      dup7\n        /* \"#utility.yul\":11834:11848   */\n      add\n        /* \"#utility.yul\":11820:11832   */\n      dup3\n        /* \"#utility.yul\":11786:11849   */\n      tag_299\n      jump\t// in\n    tag_314:\n        /* \"#utility.yul\":11692:11859   */\n      pop\n        /* \"#utility.yul\":11947:11951   */\n      0xa0\n        /* \"#utility.yul\":11940:11945   */\n      dup4\n        /* \"#utility.yul\":11936:11952   */\n      add\n        /* \"#utility.yul\":11930:11953   */\n      mload\n        /* \"#utility.yul\":11966:12029   */\n      tag_315\n        /* \"#utility.yul\":12023:12027   */\n      0xa0\n        /* \"#utility.yul\":12018:12021   */\n      dup7\n        /* \"#utility.yul\":12014:12028   */\n      add\n        /* \"#utility.yul\":12000:12012   */\n      dup3\n        /* \"#utility.yul\":11966:12029   */\n      tag_299\n      jump\t// in\n    tag_315:\n        /* \"#utility.yul\":11869:12039   */\n      pop\n        /* \"#utility.yul\":12130:12134   */\n      0xc0\n        /* \"#utility.yul\":12123:12128   */\n      dup4\n        /* \"#utility.yul\":12119:12135   */\n      add\n        /* \"#utility.yul\":12113:12136   */\n      mload\n        /* \"#utility.yul\":12149:12212   */\n      tag_316\n        /* \"#utility.yul\":12206:12210   */\n      0xc0\n        /* \"#utility.yul\":12201:12204   */\n      dup7\n        /* \"#utility.yul\":12197:12211   */\n      add\n        /* \"#utility.yul\":12183:12195   */\n      dup3\n        /* \"#utility.yul\":12149:12212   */\n      tag_299\n      jump\t// in\n    tag_316:\n        /* \"#utility.yul\":12049:12222   */\n      pop\n        /* \"#utility.yul\":12308:12312   */\n      0xe0\n        /* \"#utility.yul\":12301:12306   */\n      dup4\n        /* \"#utility.yul\":12297:12313   */\n      add\n        /* \"#utility.yul\":12291:12314   */\n      mload\n        /* \"#utility.yul\":12327:12384   */\n      tag_317\n        /* \"#utility.yul\":12378:12382   */\n      0xe0\n        /* \"#utility.yul\":12373:12376   */\n      dup7\n        /* \"#utility.yul\":12369:12383   */\n      add\n        /* \"#utility.yul\":12355:12367   */\n      dup3\n        /* \"#utility.yul\":12327:12384   */\n      tag_252\n      jump\t// in\n    tag_317:\n        /* \"#utility.yul\":12232:12394   */\n      pop\n        /* \"#utility.yul\":12487:12493   */\n      0x0100\n        /* \"#utility.yul\":12480:12485   */\n      dup4\n        /* \"#utility.yul\":12476:12494   */\n      add\n        /* \"#utility.yul\":12470:12495   */\n      mload\n        /* \"#utility.yul\":12508:12589   */\n      tag_318\n        /* \"#utility.yul\":12581:12587   */\n      0x0100\n        /* \"#utility.yul\":12576:12579   */\n      dup7\n        /* \"#utility.yul\":12572:12588   */\n      add\n        /* \"#utility.yul\":12558:12570   */\n      dup3\n        /* \"#utility.yul\":12508:12589   */\n      tag_213\n      jump\t// in\n    tag_318:\n        /* \"#utility.yul\":12404:12599   */\n      pop\n        /* \"#utility.yul\":12616:12620   */\n      dup1\n        /* \"#utility.yul\":12609:12620   */\n      swap2\n      pop\n        /* \"#utility.yul\":10796:12626   */\n      pop\n        /* \"#utility.yul\":10682:12626   */\n      swap3\n      swap2\n      pop\n      pop\n      jump\t// out\n        /* \"#utility.yul\":12704:13756   */\n    tag_212:\n        /* \"#utility.yul\":12843:12847   */\n      0xa0\n        /* \"#utility.yul\":12838:12841   */\n      dup3\n        /* \"#utility.yul\":12834:12848   */\n      add\n        /* \"#utility.yul\":12928:12932   */\n      0x00\n        /* \"#utility.yul\":12921:12926   */\n      dup3\n        /* \"#utility.yul\":12917:12933   */\n      add\n        /* \"#utility.yul\":12911:12934   */\n      mload\n        /* \"#utility.yul\":12947:13010   */\n      tag_320\n        /* \"#utility.yul\":13004:13008   */\n      0x00\n        /* \"#utility.yul\":12999:13002   */\n      dup6\n        /* \"#utility.yul\":12995:13009   */\n      add\n        /* \"#utility.yul\":12981:12993   */\n      dup3\n        /* \"#utility.yul\":12947:13010   */\n      tag_299\n      jump\t// in\n    tag_320:\n        /* \"#utility.yul\":12858:13020   */\n      pop\n        /* \"#utility.yul\":13104:13108   */\n      0x20\n        /* \"#utility.yul\":13097:13102   */\n      dup3\n        /* \"#utility.yul\":13093:13109   */\n      add\n        /* \"#utility.yul\":13087:13110   */\n      mload\n        /* \"#utility.yul\":13123:13186   */\n      tag_321\n        /* \"#utility.yul\":13180:13184   */\n      0x20\n        /* \"#utility.yul\":13175:13178   */\n      dup6\n        /* \"#utility.yul\":13171:13185   */\n      add\n        /* \"#utility.yul\":13157:13169   */\n      dup3\n        /* \"#utility.yul\":13123:13186   */\n      tag_299\n      jump\t// in\n    tag_321:\n        /* \"#utility.yul\":13030:13196   */\n      pop\n        /* \"#utility.yul\":13289:13293   */\n      0x40\n        /* \"#utility.yul\":13282:13287   */\n      dup3\n        /* \"#utility.yul\":13278:13294   */\n      add\n        /* \"#utility.yul\":13272:13295   */\n      mload\n        /* \"#utility.yul\":13308:13371   */\n      tag_322\n        /* \"#utility.yul\":13365:13369   */\n      0x40\n        /* \"#utility.yul\":13360:13363   */\n      dup6\n        /* \"#utility.yul\":13356:13370   */\n      add\n        /* \"#utility.yul\":13342:13354   */\n      dup3\n        /* \"#utility.yul\":13308:13371   */\n      tag_217\n      jump\t// in\n    tag_322:\n        /* \"#utility.yul\":13206:13381   */\n      pop\n        /* \"#utility.yul\":13473:13477   */\n      0x60\n        /* \"#utility.yul\":13466:13471   */\n      dup3\n        /* \"#utility.yul\":13462:13478   */\n      add\n        /* \"#utility.yul\":13456:13479   */\n      mload\n        /* \"#utility.yul\":13492:13555   */\n      tag_323\n        /* \"#utility.yul\":13549:13553   */\n      0x60\n        /* \"#utility.yul\":13544:13547   */\n      dup6\n        /* \"#utility.yul\":13540:13554   */\n      add\n        /* \"#utility.yul\":13526:13538   */\n      dup3\n        /* \"#utility.yul\":13492:13555   */\n      tag_299\n      jump\t// in\n    tag_323:\n        /* \"#utility.yul\":13391:13565   */\n      pop\n        /* \"#utility.yul\":13657:13661   */\n      0x80\n        /* \"#utility.yul\":13650:13655   */\n      dup3\n        /* \"#utility.yul\":13646:13662   */\n      add\n        /* \"#utility.yul\":13640:13663   */\n      mload\n        /* \"#utility.yul\":13676:13739   */\n      tag_324\n        /* \"#utility.yul\":13733:13737   */\n      0x80\n        /* \"#utility.yul\":13728:13731   */\n      dup6\n        /* \"#utility.yul\":13724:13738   */\n      add\n        /* \"#utility.yul\":13710:13722   */\n      dup3\n        /* \"#utility.yul\":13676:13739   */\n      tag_299\n      jump\t// in\n    tag_324:\n        /* \"#utility.yul\":13575:13749   */\n      pop\n        /* \"#utility.yul\":12812:13756   */\n      pop\n        /* \"#utility.yul\":12704:13756   */\n      pop\n      pop\n      jump\t// out\n        /* \"#utility.yul\":13762:13870   */\n    tag_299:\n        /* \"#utility.yul\":13839:13863   */\n      tag_326\n        /* \"#utility.yul\":13857:13862   */\n      dup2\n        /* \"#utility.yul\":13839:13863   */\n      tag_327\n      jump\t// in\n    tag_326:\n        /* \"#utility.yul\":13834:13837   */\n      dup3\n        /* \"#utility.yul\":13827:13864   */\n      mstore\n        /* \"#utility.yul\":13762:13870   */\n      pop\n      pop\n      jump\t// out\n        /* \"#utility.yul\":13876:13994   */\n    tag_328:\n        /* \"#utility.yul\":13963:13987   */\n      tag_330\n        /* \"#utility.yul\":13981:13986   */\n      dup2\n        /* \"#utility.yul\":13963:13987   */\n      tag_327\n      jump\t// in\n    tag_330:\n        /* \"#utility.yul\":13958:13961   */\n      dup3\n        /* \"#utility.yul\":13951:13988   */\n      mstore\n        /* \"#utility.yul\":13876:13994   */\n      pop\n      pop\n      jump\t// out\n        /* \"#utility.yul\":14000:14222   */\n    tag_38:\n        /* \"#utility.yul\":14093:14097   */\n      0x00\n        /* \"#utility.yul\":14131:14133   */\n      0x20\n        /* \"#utility.yul\":14120:14129   */\n      dup3\n        /* \"#utility.yul\":14116:14134   */\n      add\n        /* \"#utility.yul\":14108:14134   */\n      swap1\n      pop\n        /* \"#utility.yul\":14144:14215   */\n      tag_332\n        /* \"#utility.yul\":14212:14213   */\n      0x00\n        /* \"#utility.yul\":14201:14210   */\n      dup4\n        /* \"#utility.yul\":14197:14214   */\n      add\n        /* \"#utility.yul\":14188:14194   */\n      dup5\n        /* \"#utility.yul\":14144:14215   */\n      tag_221\n      jump\t// in\n    tag_332:\n        /* \"#utility.yul\":14000:14222   */\n      swap3\n      swap2\n      pop\n      pop\n      jump\t// out\n        /* \"#utility.yul\":14228:14681   */\n    tag_27:\n        /* \"#utility.yul\":14411:14415   */\n      0x00\n        /* \"#utility.yul\":14449:14451   */\n      0x20\n        /* \"#utility.yul\":14438:14447   */\n      dup3\n        /* \"#utility.yul\":14434:14452   */\n      add\n        /* \"#utility.yul\":14426:14452   */\n      swap1\n      pop\n        /* \"#utility.yul\":14498:14507   */\n      dup2\n        /* \"#utility.yul\":14492:14496   */\n      dup2\n        /* \"#utility.yul\":14488:14508   */\n      sub\n        /* \"#utility.yul\":14484:14485   */\n      0x00\n        /* \"#utility.yul\":14473:14482   */\n      dup4\n        /* \"#utility.yul\":14469:14486   */\n      add\n        /* \"#utility.yul\":14462:14509   */\n      mstore\n        /* \"#utility.yul\":14526:14674   */\n      tag_334\n        /* \"#utility.yul\":14669:14673   */\n      dup2\n        /* \"#utility.yul\":14660:14666   */\n      dup5\n        /* \"#utility.yul\":14526:14674   */\n      tag_224\n      jump\t// in\n    tag_334:\n        /* \"#utility.yul\":14518:14674   */\n      swap1\n      pop\n        /* \"#utility.yul\":14228:14681   */\n      swap3\n      swap2\n      pop\n      pop\n      jump\t// out\n        /* \"#utility.yul\":14687:15164   */\n    tag_33:\n        /* \"#utility.yul\":14882:14886   */\n      0x00\n        /* \"#utility.yul\":14920:14922   */\n      0x20\n        /* \"#utility.yul\":14909:14918   */\n      dup3\n        /* \"#utility.yul\":14905:14923   */\n      add\n        /* \"#utility.yul\":14897:14923   */\n      swap1\n      pop\n        /* \"#utility.yul\":14969:14978   */\n      dup2\n        /* \"#utility.yul\":14963:14967   */\n      dup2\n        /* \"#utility.yul\":14959:14979   */\n      sub\n        /* \"#utility.yul\":14955:14956   */\n      0x00\n        /* \"#utility.yul\":14944:14953   */\n      dup4\n        /* \"#utility.yul\":14940:14957   */\n      add\n        /* \"#utility.yul\":14933:14980   */\n      mstore\n        /* \"#utility.yul\":14997:15157   */\n      tag_336\n        /* \"#utility.yul\":15152:15156   */\n      dup2\n        /* \"#utility.yul\":15143:15149   */\n      dup5\n        /* \"#utility.yul\":14997:15157   */\n      tag_238\n      jump\t// in\n    tag_336:\n        /* \"#utility.yul\":14989:15157   */\n      swap1\n      pop\n        /* \"#utility.yul\":14687:15164   */\n      swap3\n      swap2\n      pop\n      pop\n      jump\t// out\n        /* \"#utility.yul\":15170:15589   */\n    tag_135:\n        /* \"#utility.yul\":15336:15340   */\n      0x00\n        /* \"#utility.yul\":15374:15376   */\n      0x20\n        /* \"#utility.yul\":15363:15372   */\n      dup3\n        /* \"#utility.yul\":15359:15377   */\n      add\n        /* \"#utility.yul\":15351:15377   */\n      swap1\n      pop\n        /* \"#utility.yul\":15423:15432   */\n      dup2\n        /* \"#utility.yul\":15417:15421   */\n      dup2\n        /* \"#utility.yul\":15413:15433   */\n      sub\n        /* \"#utility.yul\":15409:15410   */\n      0x00\n        /* \"#utility.yul\":15398:15407   */\n      dup4\n        /* \"#utility.yul\":15394:15411   */\n      add\n        /* \"#utility.yul\":15387:15434   */\n      mstore\n        /* \"#utility.yul\":15451:15582   */\n      tag_338\n        /* \"#utility.yul\":15577:15581   */\n      dup2\n        /* \"#utility.yul\":15451:15582   */\n      tag_266\n      jump\t// in\n    tag_338:\n        /* \"#utility.yul\":15443:15582   */\n      swap1\n      pop\n        /* \"#utility.yul\":15170:15589   */\n      swap2\n      swap1\n      pop\n      jump\t// out\n        /* \"#utility.yul\":15595:16014   */\n    tag_132:\n        /* \"#utility.yul\":15761:15765   */\n      0x00\n        /* \"#utility.yul\":15799:15801   */\n      0x20\n        /* \"#utility.yul\":15788:15797   */\n      dup3\n        /* \"#utility.yul\":15784:15802   */\n      add\n        /* \"#utility.yul\":15776:15802   */\n      swap1\n      pop\n        /* \"#utility.yul\":15848:15857   */\n      dup2\n        /* \"#utility.yul\":15842:15846   */\n      dup2\n        /* \"#utility.yul\":15838:15858   */\n      sub\n        /* \"#utility.yul\":15834:15835   */\n      0x00\n        /* \"#utility.yul\":15823:15832   */\n      dup4\n        /* \"#utility.yul\":15819:15836   */\n      add\n        /* \"#utility.yul\":15812:15859   */\n      mstore\n        /* \"#utility.yul\":15876:16007   */\n      tag_340\n        /* \"#utility.yul\":16002:16006   */\n      dup2\n        /* \"#utility.yul\":15876:16007   */\n      tag_272\n      jump\t// in\n    tag_340:\n        /* \"#utility.yul\":15868:16007   */\n      swap1\n      pop\n        /* \"#utility.yul\":15595:16014   */\n      swap2\n      swap1\n      pop\n      jump\t// out\n        /* \"#utility.yul\":16020:16439   */\n    tag_145:\n        /* \"#utility.yul\":16186:16190   */\n      0x00\n        /* \"#utility.yul\":16224:16226   */\n      0x20\n        /* \"#utility.yul\":16213:16222   */\n      dup3\n        /* \"#utility.yul\":16209:16227   */\n      add\n        /* \"#utility.yul\":16201:16227   */\n      swap1\n      pop\n        /* \"#utility.yul\":16273:16282   */\n      dup2\n        /* \"#utility.yul\":16267:16271   */\n      dup2\n        /* \"#utility.yul\":16263:16283   */\n      sub\n        /* \"#utility.yul\":16259:16260   */\n      0x00\n        /* \"#utility.yul\":16248:16257   */\n      dup4\n        /* \"#utility.yul\":16244:16261   */\n      add\n        /* \"#utility.yul\":16237:16284   */\n      mstore\n        /* \"#utility.yul\":16301:16432   */\n      tag_342\n        /* \"#utility.yul\":16427:16431   */\n      dup2\n        /* \"#utility.yul\":16301:16432   */\n      tag_277\n      jump\t// in\n    tag_342:\n        /* \"#utility.yul\":16293:16432   */\n      swap1\n      pop\n        /* \"#utility.yul\":16020:16439   */\n      swap2\n      swap1\n      pop\n      jump\t// out\n        /* \"#utility.yul\":16445:16864   */\n    tag_123:\n        /* \"#utility.yul\":16611:16615   */\n      0x00\n        /* \"#utility.yul\":16649:16651   */\n      0x20\n        /* \"#utility.yul\":16638:16647   */\n      dup3\n        /* \"#utility.yul\":16634:16652   */\n      add\n        /* \"#utility.yul\":16626:16652   */\n      swap1\n      pop\n        /* \"#utility.yul\":16698:16707   */\n      dup2\n        /* \"#utility.yul\":16692:16696   */\n      dup2\n        /* \"#utility.yul\":16688:16708   */\n      sub\n        /* \"#utility.yul\":16684:16685   */\n      0x00\n        /* \"#utility.yul\":16673:16682   */\n      dup4\n        /* \"#utility.yul\":16669:16686   */\n      add\n        /* \"#utility.yul\":16662:16709   */\n      mstore\n        /* \"#utility.yul\":16726:16857   */\n      tag_344\n        /* \"#utility.yul\":16852:16856   */\n      dup2\n        /* \"#utility.yul\":16726:16857   */\n      tag_282\n      jump\t// in\n    tag_344:\n        /* \"#utility.yul\":16718:16857   */\n      swap1\n      pop\n        /* \"#utility.yul\":16445:16864   */\n      swap2\n      swap1\n      pop\n      jump\t// out\n        /* \"#utility.yul\":16870:17289   */\n    tag_119:\n        /* \"#utility.yul\":17036:17040   */\n      0x00\n        /* \"#utility.yul\":17074:17076   */\n      0x20\n        /* \"#utility.yul\":17063:17072   */\n      dup3\n        /* \"#utility.yul\":17059:17077   */\n      add\n        /* \"#utility.yul\":17051:17077   */\n      swap1\n      pop\n        /* \"#utility.yul\":17123:17132   */\n      dup2\n        /* \"#utility.yul\":17117:17121   */\n      dup2\n        /* \"#utility.yul\":17113:17133   */\n      sub\n        /* \"#utility.yul\":17109:17110   */\n      0x00\n        /* \"#utility.yul\":17098:17107   */\n      dup4\n        /* \"#utility.yul\":17094:17111   */\n      add\n        /* \"#utility.yul\":17087:17134   */\n      mstore\n        /* \"#utility.yul\":17151:17282   */\n      tag_346\n        /* \"#utility.yul\":17277:17281   */\n      dup2\n        /* \"#utility.yul\":17151:17282   */\n      tag_287\n      jump\t// in\n    tag_346:\n        /* \"#utility.yul\":17143:17282   */\n      swap1\n      pop\n        /* \"#utility.yul\":16870:17289   */\n      swap2\n      swap1\n      pop\n      jump\t// out\n        /* \"#utility.yul\":17295:17714   */\n    tag_115:\n        /* \"#utility.yul\":17461:17465   */\n      0x00\n        /* \"#utility.yul\":17499:17501   */\n      0x20\n        /* \"#utility.yul\":17488:17497   */\n      dup3\n        /* \"#utility.yul\":17484:17502   */\n      add\n        /* \"#utility.yul\":17476:17502   */\n      swap1\n      pop\n        /* \"#utility.yul\":17548:17557   */\n      dup2\n        /* \"#utility.yul\":17542:17546   */\n      dup2\n        /* \"#utility.yul\":17538:17558   */\n      sub\n        /* \"#utility.yul\":17534:17535   */\n      0x00\n        /* \"#utility.yul\":17523:17532   */\n      dup4\n        /* \"#utility.yul\":17519:17536   */\n      add\n        /* \"#utility.yul\":17512:17559   */\n      mstore\n        /* \"#utility.yul\":17576:17707   */\n      tag_348\n        /* \"#utility.yul\":17702:17706   */\n      dup2\n        /* \"#utility.yul\":17576:17707   */\n      tag_292\n      jump\t// in\n    tag_348:\n        /* \"#utility.yul\":17568:17707   */\n      swap1\n      pop\n        /* \"#utility.yul\":17295:17714   */\n      swap2\n      swap1\n      pop\n      jump\t// out\n        /* \"#utility.yul\":17720:18073   */\n    tag_22:\n        /* \"#utility.yul\":17853:17857   */\n      0x00\n        /* \"#utility.yul\":17891:17893   */\n      0x20\n        /* \"#utility.yul\":17880:17889   */\n      dup3\n        /* \"#utility.yul\":17876:17894   */\n      add\n        /* \"#utility.yul\":17868:17894   */\n      swap1\n      pop\n        /* \"#utility.yul\":17940:17949   */\n      dup2\n        /* \"#utility.yul\":17934:17938   */\n      dup2\n        /* \"#utility.yul\":17930:17950   */\n      sub\n        /* \"#utility.yul\":17926:17927   */\n      0x00\n        /* \"#utility.yul\":17915:17924   */\n      dup4\n        /* \"#utility.yul\":17911:17928   */\n      add\n        /* \"#utility.yul\":17904:17951   */\n      mstore\n        /* \"#utility.yul\":17968:18066   */\n      tag_350\n        /* \"#utility.yul\":18061:18065   */\n      dup2\n        /* \"#utility.yul\":18052:18058   */\n      dup5\n        /* \"#utility.yul\":17968:18066   */\n      tag_308\n      jump\t// in\n    tag_350:\n        /* \"#utility.yul\":17960:18066   */\n      swap1\n      pop\n        /* \"#utility.yul\":17720:18073   */\n      swap3\n      swap2\n      pop\n      pop\n      jump\t// out\n        /* \"#utility.yul\":18079:18301   */\n    tag_15:\n        /* \"#utility.yul\":18172:18176   */\n      0x00\n        /* \"#utility.yul\":18210:18212   */\n      0x20\n        /* \"#utility.yul\":18199:18208   */\n      dup3\n        /* \"#utility.yul\":18195:18213   */\n      add\n        /* \"#utility.yul\":18187:18213   */\n      swap1\n      pop\n        /* \"#utility.yul\":18223:18294   */\n      tag_352\n        /* \"#utility.yul\":18291:18292   */\n      0x00\n        /* \"#utility.yul\":18280:18289   */\n      dup4\n        /* \"#utility.yul\":18276:18293   */\n      add\n        /* \"#utility.yul\":18267:18273   */\n      dup5\n        /* \"#utility.yul\":18223:18294   */\n      tag_328\n      jump\t// in\n    tag_352:\n        /* \"#utility.yul\":18079:18301   */\n      swap3\n      swap2\n      pop\n      pop\n      jump\t// out\n        /* \"#utility.yul\":18307:18436   */\n    tag_166:\n        /* \"#utility.yul\":18341:18347   */\n      0x00\n        /* \"#utility.yul\":18368:18388   */\n      tag_354\n      tag_355\n      jump\t// in\n    tag_354:\n        /* \"#utility.yul\":18358:18388   */\n      swap1\n      pop\n        /* \"#utility.yul\":18397:18430   */\n      tag_356\n        /* \"#utility.yul\":18425:18429   */\n      dup3\n        /* \"#utility.yul\":18417:18423   */\n      dup3\n        /* \"#utility.yul\":18397:18430   */\n      tag_357\n      jump\t// in\n    tag_356:\n        /* \"#utility.yul\":18307:18436   */\n      swap2\n      swap1\n      pop\n      jump\t// out\n        /* \"#utility.yul\":18442:18517   */\n    tag_355:\n        /* \"#utility.yul\":18475:18481   */\n      0x00\n        /* \"#utility.yul\":18508:18510   */\n      0x40\n        /* \"#utility.yul\":18502:18511   */\n      mload\n        /* \"#utility.yul\":18492:18511   */\n      swap1\n      pop\n        /* \"#utility.yul\":18442:18517   */\n      swap1\n      jump\t// out\n        /* \"#utility.yul\":18523:18831   */\n    tag_165:\n        /* \"#utility.yul\":18585:18589   */\n      0x00\n        /* \"#utility.yul\":18675:18693   */\n      0xffffffffffffffff\n        /* \"#utility.yul\":18667:18673   */\n      dup3\n        /* \"#utility.yul\":18664:18694   */\n      gt\n        /* \"#utility.yul\":18661:18717   */\n      iszero\n      tag_360\n      jumpi\n        /* \"#utility.yul\":18697:18715   */\n      tag_361\n      tag_69\n      jump\t// in\n    tag_361:\n        /* \"#utility.yul\":18661:18717   */\n    tag_360:\n        /* \"#utility.yul\":18735:18764   */\n      tag_362\n        /* \"#utility.yul\":18757:18763   */\n      dup3\n        /* \"#utility.yul\":18735:18764   */\n      tag_265\n      jump\t// in\n    tag_362:\n        /* \"#utility.yul\":18727:18764   */\n      swap1\n      pop\n        /* \"#utility.yul\":18819:18823   */\n      0x20\n        /* \"#utility.yul\":18813:18817   */\n      dup2\n        /* \"#utility.yul\":18809:18824   */\n      add\n        /* \"#utility.yul\":18801:18824   */\n      swap1\n      pop\n        /* \"#utility.yul\":18523:18831   */\n      swap2\n      swap1\n      pop\n      jump\t// out\n        /* \"#utility.yul\":18837:18989   */\n    tag_231:\n        /* \"#utility.yul\":18924:18928   */\n      0x00\n        /* \"#utility.yul\":18947:18950   */\n      dup2\n        /* \"#utility.yul\":18939:18950   */\n      swap1\n      pop\n        /* \"#utility.yul\":18977:18981   */\n      0x20\n        /* \"#utility.yul\":18972:18975   */\n      dup3\n        /* \"#utility.yul\":18968:18982   */\n      add\n        /* \"#utility.yul\":18960:18982   */\n      swap1\n      pop\n        /* \"#utility.yul\":18837:18989   */\n      swap2\n      swap1\n      pop\n      jump\t// out\n        /* \"#utility.yul\":18995:19153   */\n    tag_245:\n        /* \"#utility.yul\":19088:19092   */\n      0x00\n        /* \"#utility.yul\":19111:19114   */\n      dup2\n        /* \"#utility.yul\":19103:19114   */\n      swap1\n      pop\n        /* \"#utility.yul\":19141:19145   */\n      0x20\n        /* \"#utility.yul\":19136:19139   */\n      dup3\n        /* \"#utility.yul\":19132:19146   */\n      add\n        /* \"#utility.yul\":19124:19146   */\n      swap1\n      pop\n        /* \"#utility.yul\":18995:19153   */\n      swap2\n      swap1\n      pop\n      jump\t// out\n        /* \"#utility.yul\":19159:19293   */\n    tag_227:\n        /* \"#utility.yul\":19246:19252   */\n      0x00\n        /* \"#utility.yul\":19280:19285   */\n      dup2\n        /* \"#utility.yul\":19274:19286   */\n      mload\n        /* \"#utility.yul\":19264:19286   */\n      swap1\n      pop\n        /* \"#utility.yul\":19159:19293   */\n      swap2\n      swap1\n      pop\n      jump\t// out\n        /* \"#utility.yul\":19299:19439   */\n    tag_241:\n        /* \"#utility.yul\":19392:19398   */\n      0x00\n        /* \"#utility.yul\":19426:19431   */\n      dup2\n        /* \"#utility.yul\":19420:19432   */\n      mload\n        /* \"#utility.yul\":19410:19432   */\n      swap1\n      pop\n        /* \"#utility.yul\":19299:19439   */\n      swap2\n      swap1\n      pop\n      jump\t// out\n        /* \"#utility.yul\":19445:19544   */\n    tag_259:\n        /* \"#utility.yul\":19497:19503   */\n      0x00\n        /* \"#utility.yul\":19531:19536   */\n      dup2\n        /* \"#utility.yul\":19525:19537   */\n      mload\n        /* \"#utility.yul\":19515:19537   */\n      swap1\n      pop\n        /* \"#utility.yul\":19445:19544   */\n      swap2\n      swap1\n      pop\n      jump\t// out\n        /* \"#utility.yul\":19550:19683   */\n    tag_237:\n        /* \"#utility.yul\":19640:19644   */\n      0x00\n        /* \"#utility.yul\":19672:19676   */\n      0x20\n        /* \"#utility.yul\":19667:19670   */\n      dup3\n        /* \"#utility.yul\":19663:19677   */\n      add\n        /* \"#utility.yul\":19655:19677   */\n      swap1\n      pop\n        /* \"#utility.yul\":19550:19683   */\n      swap2\n      swap1\n      pop\n      jump\t// out\n        /* \"#utility.yul\":19689:19828   */\n    tag_251:\n        /* \"#utility.yul\":19785:19789   */\n      0x00\n        /* \"#utility.yul\":19817:19821   */\n      0x20\n        /* \"#utility.yul\":19812:19815   */\n      dup3\n        /* \"#utility.yul\":19808:19822   */\n      add\n        /* \"#utility.yul\":19800:19822   */\n      swap1\n      pop\n        /* \"#utility.yul\":19689:19828   */\n      swap2\n      swap1\n      pop\n      jump\t// out\n        /* \"#utility.yul\":19834:20038   */\n    tag_229:\n        /* \"#utility.yul\":19953:19964   */\n      0x00\n        /* \"#utility.yul\":19987:19993   */\n      dup3\n        /* \"#utility.yul\":19982:19985   */\n      dup3\n        /* \"#utility.yul\":19975:19994   */\n      mstore\n        /* \"#utility.yul\":20027:20031   */\n      0x20\n        /* \"#utility.yul\":20022:20025   */\n      dup3\n        /* \"#utility.yul\":20018:20032   */\n      add\n        /* \"#utility.yul\":20003:20032   */\n      swap1\n      pop\n        /* \"#utility.yul\":19834:20038   */\n      swap3\n      swap2\n      pop\n      pop\n      jump\t// out\n        /* \"#utility.yul\":20044:20254   */\n    tag_243:\n        /* \"#utility.yul\":20169:20180   */\n      0x00\n        /* \"#utility.yul\":20203:20209   */\n      dup3\n        /* \"#utility.yul\":20198:20201   */\n      dup3\n        /* \"#utility.yul\":20191:20210   */\n      mstore\n        /* \"#utility.yul\":20243:20247   */\n      0x20\n        /* \"#utility.yul\":20238:20241   */\n      dup3\n        /* \"#utility.yul\":20234:20248   */\n      add\n        /* \"#utility.yul\":20219:20248   */\n      swap1\n      pop\n        /* \"#utility.yul\":20044:20254   */\n      swap3\n      swap2\n      pop\n      pop\n      jump\t// out\n        /* \"#utility.yul\":20260:20419   */\n    tag_261:\n        /* \"#utility.yul\":20334:20345   */\n      0x00\n        /* \"#utility.yul\":20368:20374   */\n      dup3\n        /* \"#utility.yul\":20363:20366   */\n      dup3\n        /* \"#utility.yul\":20356:20375   */\n      mstore\n        /* \"#utility.yul\":20408:20412   */\n      0x20\n        /* \"#utility.yul\":20403:20406   */\n      dup3\n        /* \"#utility.yul\":20399:20413   */\n      add\n        /* \"#utility.yul\":20384:20413   */\n      swap1\n      pop\n        /* \"#utility.yul\":20260:20419   */\n      swap3\n      swap2\n      pop\n      pop\n      jump\t// out\n        /* \"#utility.yul\":20425:20594   */\n    tag_269:\n        /* \"#utility.yul\":20509:20520   */\n      0x00\n        /* \"#utility.yul\":20543:20549   */\n      dup3\n        /* \"#utility.yul\":20538:20541   */\n      dup3\n        /* \"#utility.yul\":20531:20550   */\n      mstore\n        /* \"#utility.yul\":20583:20587   */\n      0x20\n        /* \"#utility.yul\":20578:20581   */\n      dup3\n        /* \"#utility.yul\":20574:20588   */\n      add\n        /* \"#utility.yul\":20559:20588   */\n      swap1\n      pop\n        /* \"#utility.yul\":20425:20594   */\n      swap3\n      swap2\n      pop\n      pop\n      jump\t// out\n        /* \"#utility.yul\":20600:20905   */\n    tag_149:\n        /* \"#utility.yul\":20640:20643   */\n      0x00\n        /* \"#utility.yul\":20659:20679   */\n      tag_375\n        /* \"#utility.yul\":20677:20678   */\n      dup3\n        /* \"#utility.yul\":20659:20679   */\n      tag_327\n      jump\t// in\n    tag_375:\n        /* \"#utility.yul\":20654:20679   */\n      swap2\n      pop\n        /* \"#utility.yul\":20693:20713   */\n      tag_376\n        /* \"#utility.yul\":20711:20712   */\n      dup4\n        /* \"#utility.yul\":20693:20713   */\n      tag_327\n      jump\t// in\n    tag_376:\n        /* \"#utility.yul\":20688:20713   */\n      swap3\n      pop\n        /* \"#utility.yul\":20847:20848   */\n      dup3\n        /* \"#utility.yul\":20779:20845   */\n      0xffffffffffffffffffffffffffffffffffffffffffffffffffffffffffffffff\n        /* \"#utility.yul\":20775:20849   */\n      sub\n        /* \"#utility.yul\":20772:20773   */\n      dup3\n        /* \"#utility.yul\":20769:20850   */\n      gt\n        /* \"#utility.yul\":20766:20873   */\n      iszero\n      tag_377\n      jumpi\n        /* \"#utility.yul\":20853:20871   */\n      tag_378\n      tag_379\n      jump\t// in\n    tag_378:\n        /* \"#utility.yul\":20766:20873   */\n    tag_377:\n        /* \"#utility.yul\":20897:20898   */\n      dup3\n        /* \"#utility.yul\":20894:20895   */\n      dup3\n        /* \"#utility.yul\":20890:20899   */\n      add\n        /* \"#utility.yul\":20883:20899   */\n      swap1\n      pop\n        /* \"#utility.yul\":20600:20905   */\n      swap3\n      swap2\n      pop\n      pop\n      jump\t// out\n        /* \"#utility.yul\":20911:21007   */\n    tag_220:\n        /* \"#utility.yul\":20948:20955   */\n      0x00\n        /* \"#utility.yul\":20977:21001   */\n      tag_381\n        /* \"#utility.yul\":20995:21000   */\n      dup3\n        /* \"#utility.yul\":20977:21001   */\n      tag_382\n      jump\t// in\n    tag_381:\n        /* \"#utility.yul\":20966:21001   */\n      swap1\n      pop\n        /* \"#utility.yul\":20911:21007   */\n      swap2\n      swap1\n      pop\n      jump\t// out\n        /* \"#utility.yul\":21013:21117   */\n    tag_216:\n        /* \"#utility.yul\":21058:21065   */\n      0x00\n        /* \"#utility.yul\":21087:21111   */\n      tag_384\n        /* \"#utility.yul\":21105:21110   */\n      dup3\n        /* \"#utility.yul\":21087:21111   */\n      tag_382\n      jump\t// in\n    tag_384:\n        /* \"#utility.yul\":21076:21111   */\n      swap1\n      pop\n        /* \"#utility.yul\":21013:21117   */\n      swap2\n      swap1\n      pop\n      jump\t// out\n        /* \"#utility.yul\":21123:21213   */\n    tag_255:\n        /* \"#utility.yul\":21157:21164   */\n      0x00\n        /* \"#utility.yul\":21200:21205   */\n      dup2\n        /* \"#utility.yul\":21193:21206   */\n      iszero\n        /* \"#utility.yul\":21186:21207   */\n      iszero\n        /* \"#utility.yul\":21175:21207   */\n      swap1\n      pop\n        /* \"#utility.yul\":21123:21213   */\n      swap2\n      swap1\n      pop\n      jump\t// out\n        /* \"#utility.yul\":21219:21345   */\n    tag_382:\n        /* \"#utility.yul\":21256:21263   */\n      0x00\n        /* \"#utility.yul\":21296:21338   */\n      0xffffffffffffffffffffffffffffffffffffffff\n        /* \"#utility.yul\":21289:21294   */\n      dup3\n        /* \"#utility.yul\":21285:21339   */\n      and\n        /* \"#utility.yul\":21274:21339   */\n      swap1\n      pop\n        /* \"#utility.yul\":21219:21345   */\n      swap2\n      swap1\n      pop\n      jump\t// out\n        /* \"#utility.yul\":21351:21428   */\n    tag_327:\n        /* \"#utility.yul\":21388:21395   */\n      0x00\n        /* \"#utility.yul\":21417:21422   */\n      dup2\n        /* \"#utility.yul\":21406:21422   */\n      swap1\n      pop\n        /* \"#utility.yul\":21351:21428   */\n      swap2\n      swap1\n      pop\n      jump\t// out\n        /* \"#utility.yul\":21434:21588   */\n    tag_171:\n        /* \"#utility.yul\":21518:21524   */\n      dup3\n        /* \"#utility.yul\":21513:21516   */\n      dup2\n        /* \"#utility.yul\":21508:21511   */\n      dup4\n        /* \"#utility.yul\":21495:21525   */\n      calldatacopy\n        /* \"#utility.yul\":21580:21581   */\n      0x00\n        /* \"#utility.yul\":21571:21577   */\n      dup4\n        /* \"#utility.yul\":21566:21569   */\n      dup4\n        /* \"#utility.yul\":21562:21578   */\n      add\n        /* \"#utility.yul\":21555:21582   */\n      mstore\n        /* \"#utility.yul\":21434:21588   */\n      pop\n      pop\n      pop\n      jump\t// out\n        /* \"#utility.yul\":21594:21901   */\n    tag_263:\n        /* \"#utility.yul\":21662:21663   */\n      0x00\n        /* \"#utility.yul\":21672:21785   */\n    tag_390:\n        /* \"#utility.yul\":21686:21692   */\n      dup4\n        /* \"#utility.yul\":21683:21684   */\n      dup2\n        /* \"#utility.yul\":21680:21693   */\n      lt\n        /* \"#utility.yul\":21672:21785   */\n      iszero\n      tag_392\n      jumpi\n        /* \"#utility.yul\":21771:21772   */\n      dup1\n        /* \"#utility.yul\":21766:21769   */\n      dup3\n        /* \"#utility.yul\":21762:21773   */\n      add\n        /* \"#utility.yul\":21756:21774   */\n      mload\n        /* \"#utility.yul\":21752:21753   */\n      dup2\n        /* \"#utility.yul\":21747:21750   */\n      dup5\n        /* \"#utility.yul\":21743:21754   */\n      add\n        /* \"#utility.yul\":21736:21775   */\n      mstore\n        /* \"#utility.yul\":21708:21710   */\n      0x20\n        /* \"#utility.yul\":21705:21706   */\n      dup2\n        /* \"#utility.yul\":21701:21711   */\n      add\n        /* \"#utility.yul\":21696:21711   */\n      swap1\n      pop\n        /* \"#utility.yul\":21672:21785   */\n      jump(tag_390)\n    tag_392:\n        /* \"#utility.yul\":21803:21809   */\n      dup4\n        /* \"#utility.yul\":21800:21801   */\n      dup2\n        /* \"#utility.yul\":21797:21810   */\n      gt\n        /* \"#utility.yul\":21794:21895   */\n      iszero\n      tag_393\n      jumpi\n        /* \"#utility.yul\":21883:21884   */\n      0x00\n        /* \"#utility.yul\":21874:21880   */\n      dup5\n        /* \"#utility.yul\":21869:21872   */\n      dup5\n        /* \"#utility.yul\":21865:21881   */\n      add\n        /* \"#utility.yul\":21858:21885   */\n      mstore\n        /* \"#utility.yul\":21794:21895   */\n    tag_393:\n        /* \"#utility.yul\":21643:21901   */\n      pop\n        /* \"#utility.yul\":21594:21901   */\n      pop\n      pop\n      pop\n      jump\t// out\n        /* \"#utility.yul\":21907:22227   */\n    tag_56:\n        /* \"#utility.yul\":21951:21957   */\n      0x00\n        /* \"#utility.yul\":21988:21989   */\n      0x02\n        /* \"#utility.yul\":21982:21986   */\n      dup3\n        /* \"#utility.yul\":21978:21990   */\n      div\n        /* \"#utility.yul\":21968:21990   */\n      swap1\n      pop\n        /* \"#utility.yul\":22035:22036   */\n      0x01\n        /* \"#utility.yul\":22029:22033   */\n      dup3\n        /* \"#utility.yul\":22025:22037   */\n      and\n        /* \"#utility.yul\":22056:22074   */\n      dup1\n        /* \"#utility.yul\":22046:22127   */\n      tag_395\n      jumpi\n        /* \"#utility.yul\":22112:22116   */\n      0x7f\n        /* \"#utility.yul\":22104:22110   */\n      dup3\n        /* \"#utility.yul\":22100:22117   */\n      and\n        /* \"#utility.yul\":22090:22117   */\n      swap2\n      pop\n        /* \"#utility.yul\":22046:22127   */\n    tag_395:\n        /* \"#utility.yul\":22174:22176   */\n      0x20\n        /* \"#utility.yul\":22166:22172   */\n      dup3\n        /* \"#utility.yul\":22163:22177   */\n      lt\n        /* \"#utility.yul\":22143:22161   */\n      dup2\n        /* \"#utility.yul\":22140:22178   */\n      eq\n        /* \"#utility.yul\":22137:22221   */\n      iszero\n      tag_396\n      jumpi\n        /* \"#utility.yul\":22193:22211   */\n      tag_397\n      tag_398\n      jump\t// in\n    tag_397:\n        /* \"#utility.yul\":22137:22221   */\n    tag_396:\n        /* \"#utility.yul\":21958:22227   */\n      pop\n        /* \"#utility.yul\":21907:22227   */\n      swap2\n      swap1\n      pop\n      jump\t// out\n        /* \"#utility.yul\":22233:22514   */\n    tag_357:\n        /* \"#utility.yul\":22316:22343   */\n      tag_400\n        /* \"#utility.yul\":22338:22342   */\n      dup3\n        /* \"#utility.yul\":22316:22343   */\n      tag_265\n      jump\t// in\n    tag_400:\n        /* \"#utility.yul\":22308:22314   */\n      dup2\n        /* \"#utility.yul\":22304:22344   */\n      add\n        /* \"#utility.yul\":22446:22452   */\n      dup2\n        /* \"#utility.yul\":22434:22444   */\n      dup2\n        /* \"#utility.yul\":22431:22453   */\n      lt\n        /* \"#utility.yul\":22410:22428   */\n      0xffffffffffffffff\n        /* \"#utility.yul\":22398:22408   */\n      dup3\n        /* \"#utility.yul\":22395:22429   */\n      gt\n        /* \"#utility.yul\":22392:22454   */\n      or\n        /* \"#utility.yul\":22389:22477   */\n      iszero\n      tag_401\n      jumpi\n        /* \"#utility.yul\":22457:22475   */\n      tag_402\n      tag_69\n      jump\t// in\n    tag_402:\n        /* \"#utility.yul\":22389:22477   */\n    tag_401:\n        /* \"#utility.yul\":22497:22507   */\n      dup1\n        /* \"#utility.yul\":22493:22495   */\n      0x40\n        /* \"#utility.yul\":22486:22508   */\n      mstore\n        /* \"#utility.yul\":22276:22514   */\n      pop\n        /* \"#utility.yul\":22233:22514   */\n      pop\n      pop\n      jump\t// out\n        /* \"#utility.yul\":22520:22753   */\n    tag_90:\n        /* \"#utility.yul\":22559:22562   */\n      0x00\n        /* \"#utility.yul\":22582:22606   */\n      tag_404\n        /* \"#utility.yul\":22600:22605   */\n      dup3\n        /* \"#utility.yul\":22582:22606   */\n      tag_327\n      jump\t// in\n    tag_404:\n        /* \"#utility.yul\":22573:22606   */\n      swap2\n      pop\n        /* \"#utility.yul\":22628:22694   */\n      0xffffffffffffffffffffffffffffffffffffffffffffffffffffffffffffffff\n        /* \"#utility.yul\":22621:22626   */\n      dup3\n        /* \"#utility.yul\":22618:22695   */\n      eq\n        /* \"#utility.yul\":22615:22718   */\n      iszero\n      tag_405\n      jumpi\n        /* \"#utility.yul\":22698:22716   */\n      tag_406\n      tag_379\n      jump\t// in\n    tag_406:\n        /* \"#utility.yul\":22615:22718   */\n    tag_405:\n        /* \"#utility.yul\":22745:22746   */\n      0x01\n        /* \"#utility.yul\":22738:22743   */\n      dup3\n        /* \"#utility.yul\":22734:22747   */\n      add\n        /* \"#utility.yul\":22727:22747   */\n      swap1\n      pop\n        /* \"#utility.yul\":22520:22753   */\n      swap2\n      swap1\n      pop\n      jump\t// out\n        /* \"#utility.yul\":22759:22939   */\n    tag_379:\n        /* \"#utility.yul\":22807:22884   */\n      0x4e487b7100000000000000000000000000000000000000000000000000000000\n        /* \"#utility.yul\":22804:22805   */\n      0x00\n        /* \"#utility.yul\":22797:22885   */\n      mstore\n        /* \"#utility.yul\":22904:22908   */\n      0x11\n        /* \"#utility.yul\":22901:22902   */\n      0x04\n        /* \"#utility.yul\":22894:22909   */\n      mstore\n        /* \"#utility.yul\":22928:22932   */\n      0x24\n        /* \"#utility.yul\":22925:22926   */\n      0x00\n        /* \"#utility.yul\":22918:22933   */\n      revert\n        /* \"#utility.yul\":22945:23125   */\n    tag_398:\n        /* \"#utility.yul\":22993:23070   */\n      0x4e487b7100000000000000000000000000000000000000000000000000000000\n        /* \"#utility.yul\":22990:22991   */\n      0x00\n        /* \"#utility.yul\":22983:23071   */\n      mstore\n        /* \"#utility.yul\":23090:23094   */\n      0x22\n        /* \"#utility.yul\":23087:23088   */\n      0x04\n        /* \"#utility.yul\":23080:23095   */\n      mstore\n        /* \"#utility.yul\":23114:23118   */\n      0x24\n        /* \"#utility.yul\":23111:23112   */\n      0x00\n        /* \"#utility.yul\":23104:23119   */\n      revert\n        /* \"#utility.yul\":23131:23311   */\n    tag_88:\n        /* \"#utility.yul\":23179:23256   */\n      0x4e487b7100000000000000000000000000000000000000000000000000000000\n        /* \"#utility.yul\":23176:23177   */\n      0x00\n        /* \"#utility.yul\":23169:23257   */\n      mstore\n        /* \"#utility.yul\":23276:23280   */\n      0x32\n        /* \"#utility.yul\":23273:23274   */\n      0x04\n        /* \"#utility.yul\":23266:23281   */\n      mstore\n        /* \"#utility.yul\":23300:23304   */\n      0x24\n        /* \"#utility.yul\":23297:23298   */\n      0x00\n        /* \"#utility.yul\":23290:23305   */\n      revert\n        /* \"#utility.yul\":23317:23497   */\n    tag_69:\n        /* \"#utility.yul\":23365:23442   */\n      0x4e487b7100000000000000000000000000000000000000000000000000000000\n        /* \"#utility.yul\":23362:23363   */\n      0x00\n        /* \"#utility.yul\":23355:23443   */\n      mstore\n        /* \"#utility.yul\":23462:23466   */\n      0x41\n        /* \"#utility.yul\":23459:23460   */\n      0x04\n        /* \"#utility.yul\":23452:23467   */\n      mstore\n        /* \"#utility.yul\":23486:23490   */\n      0x24\n        /* \"#utility.yul\":23483:23484   */\n      0x00\n        /* \"#utility.yul\":23476:23491   */\n      revert\n        /* \"#utility.yul\":23503:23620   */\n    tag_180:\n        /* \"#utility.yul\":23612:23613   */\n      0x00\n        /* \"#utility.yul\":23609:23610   */\n      dup1\n        /* \"#utility.yul\":23602:23614   */\n      revert\n        /* \"#utility.yul\":23626:23743   */\n    tag_169:\n        /* \"#utility.yul\":23735:23736   */\n      0x00\n        /* \"#utility.yul\":23732:23733   */\n      dup1\n        /* \"#utility.yul\":23725:23737   */\n      revert\n        /* \"#utility.yul\":23749:23866   */\n    tag_192:\n        /* \"#utility.yul\":23858:23859   */\n      0x00\n        /* \"#utility.yul\":23855:23856   */\n      dup1\n        /* \"#utility.yul\":23848:23860   */\n      revert\n        /* \"#utility.yul\":23872:23989   */\n    tag_189:\n        /* \"#utility.yul\":23981:23982   */\n      0x00\n        /* \"#utility.yul\":23978:23979   */\n      dup1\n        /* \"#utility.yul\":23971:23983   */\n      revert\n        /* \"#utility.yul\":23995:24097   */\n    tag_265:\n        /* \"#utility.yul\":24036:24042   */\n      0x00\n        /* \"#utility.yul\":24087:24089   */\n      0x1f\n        /* \"#utility.yul\":24083:24090   */\n      not\n        /* \"#utility.yul\":24078:24080   */\n      0x1f\n        /* \"#utility.yul\":24071:24076   */\n      dup4\n        /* \"#utility.yul\":24067:24081   */\n      add\n        /* \"#utility.yul\":24063:24091   */\n      and\n        /* \"#utility.yul\":24053:24091   */\n      swap1\n      pop\n        /* \"#utility.yul\":23995:24097   */\n      swap2\n      swap1\n      pop\n      jump\t// out\n        /* \"#utility.yul\":24103:24343   */\n    tag_271:\n        /* \"#utility.yul\":24243:24277   */\n      0x456e6420646174652d74696d652073686f756c64206265206772656174657220\n        /* \"#utility.yul\":24239:24240   */\n      0x00\n        /* \"#utility.yul\":24231:24237   */\n      dup3\n        /* \"#utility.yul\":24227:24241   */\n      add\n        /* \"#utility.yul\":24220:24278   */\n      mstore\n        /* \"#utility.yul\":24312:24335   */\n      0x7468616e20737461727420646174652d74696d652e0000000000000000000000\n        /* \"#utility.yul\":24307:24309   */\n      0x20\n        /* \"#utility.yul\":24299:24305   */\n      dup3\n        /* \"#utility.yul\":24295:24310   */\n      add\n        /* \"#utility.yul\":24288:24336   */\n      mstore\n        /* \"#utility.yul\":24103:24343   */\n      pop\n      jump\t// out\n        /* \"#utility.yul\":24349:24593   */\n    tag_276:\n        /* \"#utility.yul\":24489:24523   */\n      0x537461727420646174652d74696d652073686f756c6420626520677265617465\n        /* \"#utility.yul\":24485:24486   */\n      0x00\n        /* \"#utility.yul\":24477:24483   */\n      dup3\n        /* \"#utility.yul\":24473:24487   */\n      add\n        /* \"#utility.yul\":24466:24524   */\n      mstore\n        /* \"#utility.yul\":24558:24585   */\n      0x72207468616e2063757272656e7420646174652d74696d652e00000000000000\n        /* \"#utility.yul\":24553:24555   */\n      0x20\n        /* \"#utility.yul\":24545:24551   */\n      dup3\n        /* \"#utility.yul\":24541:24556   */\n      add\n        /* \"#utility.yul\":24534:24586   */\n      mstore\n        /* \"#utility.yul\":24349:24593   */\n      pop\n      jump\t// out\n        /* \"#utility.yul\":24599:24774   */\n    tag_281:\n        /* \"#utility.yul\":24739:24766   */\n      0x46756e6420686173206e6f742073746172746564207965742e00000000000000\n        /* \"#utility.yul\":24735:24736   */\n      0x00\n        /* \"#utility.yul\":24727:24733   */\n      dup3\n        /* \"#utility.yul\":24723:24737   */\n      add\n        /* \"#utility.yul\":24716:24767   */\n      mstore\n        /* \"#utility.yul\":24599:24774   */\n      pop\n      jump\t// out\n        /* \"#utility.yul\":24780:25010   */\n    tag_286:\n        /* \"#utility.yul\":24920:24954   */\n      0x46756e64206973206163746976652c2063616e6e6f74207472616e7366657220\n        /* \"#utility.yul\":24916:24917   */\n      0x00\n        /* \"#utility.yul\":24908:24914   */\n      dup3\n        /* \"#utility.yul\":24904:24918   */\n      add\n        /* \"#utility.yul\":24897:24955   */\n      mstore\n        /* \"#utility.yul\":24989:25002   */\n      0x616d6f756e74206e6f772e000000000000000000000000000000000000000000\n        /* \"#utility.yul\":24984:24986   */\n      0x20\n        /* \"#utility.yul\":24976:24982   */\n      dup3\n        /* \"#utility.yul\":24972:24987   */\n      add\n        /* \"#utility.yul\":24965:25003   */\n      mstore\n        /* \"#utility.yul\":24780:25010   */\n      pop\n      jump\t// out\n        /* \"#utility.yul\":25016:25181   */\n    tag_291:\n        /* \"#utility.yul\":25156:25173   */\n      0x46756e6420697320636c6f7365642e0000000000000000000000000000000000\n        /* \"#utility.yul\":25152:25153   */\n      0x00\n        /* \"#utility.yul\":25144:25150   */\n      dup3\n        /* \"#utility.yul\":25140:25154   */\n      add\n        /* \"#utility.yul\":25133:25174   */\n      mstore\n        /* \"#utility.yul\":25016:25181   */\n      pop\n      jump\t// out\n        /* \"#utility.yul\":25187:25431   */\n    tag_296:\n        /* \"#utility.yul\":25327:25361   */\n      0x4f6e6c79206d616e6167657220697320616c6c6f77656420746f20616c6c6f77\n        /* \"#utility.yul\":25323:25324   */\n      0x00\n        /* \"#utility.yul\":25315:25321   */\n      dup3\n        /* \"#utility.yul\":25311:25325   */\n      add\n        /* \"#utility.yul\":25304:25362   */\n      mstore\n        /* \"#utility.yul\":25396:25423   */\n      0x656420746f2063616c6c20746869732066756e6374696f6e2e00000000000000\n        /* \"#utility.yul\":25391:25393   */\n      0x20\n        /* \"#utility.yul\":25383:25389   */\n      dup3\n        /* \"#utility.yul\":25379:25394   */\n      add\n        /* \"#utility.yul\":25372:25424   */\n      mstore\n        /* \"#utility.yul\":25187:25431   */\n      pop\n      jump\t// out\n        /* \"#utility.yul\":25437:25575   */\n    tag_175:\n        /* \"#utility.yul\":25518:25550   */\n      tag_423\n        /* \"#utility.yul\":25544:25549   */\n      dup2\n        /* \"#utility.yul\":25518:25550   */\n      tag_216\n      jump\t// in\n    tag_423:\n        /* \"#utility.yul\":25511:25516   */\n      dup2\n        /* \"#utility.yul\":25508:25551   */\n      eq\n        /* \"#utility.yul\":25498:25569   */\n      tag_424\n      jumpi\n        /* \"#utility.yul\":25565:25566   */\n      0x00\n        /* \"#utility.yul\":25562:25563   */\n      dup1\n        /* \"#utility.yul\":25555:25567   */\n      revert\n        /* \"#utility.yul\":25498:25569   */\n    tag_424:\n        /* \"#utility.yul\":25437:25575   */\n      pop\n      jump\t// out\n        /* \"#utility.yul\":25581:25703   */\n    tag_185:\n        /* \"#utility.yul\":25654:25678   */\n      tag_426\n        /* \"#utility.yul\":25672:25677   */\n      dup2\n        /* \"#utility.yul\":25654:25678   */\n      tag_327\n      jump\t// in\n    tag_426:\n        /* \"#utility.yul\":25647:25652   */\n      dup2\n        /* \"#utility.yul\":25644:25679   */\n      eq\n        /* \"#utility.yul\":25634:25697   */\n      tag_427\n      jumpi\n        /* \"#utility.yul\":25693:25694   */\n      0x00\n        /* \"#utility.yul\":25690:25691   */\n      dup1\n        /* \"#utility.yul\":25683:25695   */\n      revert\n        /* \"#utility.yul\":25634:25697   */\n    tag_427:\n        /* \"#utility.yul\":25581:25703   */\n      pop\n      jump\t// out\n\n    auxdata: 0xa26469706673582212204afd1653d80d5533742127950f2e442e66b8c5ced74536f93f2916ce49ceb24364736f6c63430008070033\n}\n",
				"bytecode": {
					"linkReferences": {},
					"object": "608060405234801561001057600080fd5b50336000806101000a81548173ffffffffffffffffffffffffffffffffffffffff021916908373ffffffffffffffffffffffffffffffffffffffff160217905550611c17806100606000396000f3fe60806040526004361061007b5760003560e01c8063481c6a751161004e578063481c6a75146101505780635114cb521461017b578063526ed285146101975780638dcd8915146101c05761007b565b806312065fe014610080578063149e685a146100ab5780631c69b464146100e857806326ef2adf14610113575b600080fd5b34801561008c57600080fd5b506100956101dc565b6040516100a29190611696565b60405180910390f35b3480156100b757600080fd5b506100d260048036038101906100cd91906110c4565b61023d565b6040516100df9190611674565b60405180910390f35b3480156100f457600080fd5b506100fd610432565b60405161010a9190611570565b60405180910390f35b34801561011f57600080fd5b5061013a600480360381019061013591906110c4565b6106ba565b6040516101479190611592565b60405180910390f35b34801561015c57600080fd5b50610165610847565b6040516101729190611555565b60405180910390f35b610195600480360381019061019091906110c4565b61086b565b005b3480156101a357600080fd5b506101be60048036038101906101b99190610fff565b610a4a565b005b6101da60048036038101906101d591906110c4565b610c58565b005b60008060009054906101000a900473ffffffffffffffffffffffffffffffffffffffff1673ffffffffffffffffffffffffffffffffffffffff163373ffffffffffffffffffffffffffffffffffffffff161461023757600080fd5b47905090565b610245610e19565b60016000838152602001908152602001600020604051806101200160405290816000820154815260200160018201805461027e90611898565b80601f01602080910402602001604051908101604052809291908181526020018280546102aa90611898565b80156102f75780601f106102cc576101008083540402835291602001916102f7565b820191906000526020600020905b8154815290600101906020018083116102da57829003601f168201915b5050505050815260200160028201805461031090611898565b80601f016020809104026020016040519081016040528092919081815260200182805461033c90611898565b80156103895780601f1061035e57610100808354040283529160200191610389565b820191906000526020600020905b81548152906001019060200180831161036c57829003601f168201915b50505050508152602001600382015481526020016004820154815260200160058201548152602001600682015481526020016007820160009054906101000a900460ff161515151581526020016007820160019054906101000a900473ffffffffffffffffffffffffffffffffffffffff1673ffffffffffffffffffffffffffffffffffffffff1673ffffffffffffffffffffffffffffffffffffffff16815250509050919050565b6060600060035467ffffffffffffffff811115610452576104516119d1565b5b60405190808252806020026020018201604052801561048b57816020015b610478610e19565b8152602001906001900390816104705790505b50905060005b6003548110156106b2576001600082815260200190815260200160002060405180610120016040529081600082015481526020016001820180546104d490611898565b80601f016020809104026020016040519081016040528092919081815260200182805461050090611898565b801561054d5780601f106105225761010080835404028352916020019161054d565b820191906000526020600020905b81548152906001019060200180831161053057829003601f168201915b5050505050815260200160028201805461056690611898565b80601f016020809104026020016040519081016040528092919081815260200182805461059290611898565b80156105df5780601f106105b4576101008083540402835291602001916105df565b820191906000526020600020905b8154815290600101906020018083116105c257829003601f168201915b50505050508152602001600382015481526020016004820154815260200160058201548152602001600682015481526020016007820160009054906101000a900460ff161515151581526020016007820160019054906101000a900473ffffffffffffffffffffffffffffffffffffffff1673ffffffffffffffffffffffffffffffffffffffff1673ffffffffffffffffffffffffffffffffffffffff1681525050828281518110610694576106936119a2565b5b602002602001018190525080806106aa906118fb565b915050610491565b508091505090565b6060600060045467ffffffffffffffff8111156106da576106d96119d1565b5b60405190808252806020026020018201604052801561071357816020015b610700610e7d565b8152602001906001900390816106f85790505b5090506000805b60045481101561083c578460028281548110610739576107386119a2565b5b90600052602060002090600502016001015414156108295760028181548110610765576107646119a2565b5b90600052602060002090600502016040518060a001604052908160008201548152602001600182015481526020016002820160009054906101000a900473ffffffffffffffffffffffffffffffffffffffff1673ffffffffffffffffffffffffffffffffffffffff1673ffffffffffffffffffffffffffffffffffffffff1681526020016003820154815260200160048201548152505083838151811061080f5761080e6119a2565b5b60200260200101819052508180610825906118fb565b9250505b8080610834906118fb565b91505061071a565b508192505050919050565b60008054906101000a900473ffffffffffffffffffffffffffffffffffffffff1681565b3373ffffffffffffffffffffffffffffffffffffffff1660008054906101000a900473ffffffffffffffffffffffffffffffffffffffff1673ffffffffffffffffffffffffffffffffffffffff16146108f9576040517f08c379a00000000000000000000000000000000000000000000000000000000081526004016108f090611654565b60405180910390fd5b60006001600083815260200190815260200160002090508060070160009054906101000a900460ff16610961576040517f08c379a000000000000000000000000000000000000000000000000000000000815260040161095890611634565b60405180910390fd5b8060050154816006015410158061097b5750428160040154105b6109ba576040517f08c379a00000000000000000000000000000000000000000000000000000000081526004016109b190611614565b60405180910390fd5b8060070160019054906101000a900473ffffffffffffffffffffffffffffffffffffffff1673ffffffffffffffffffffffffffffffffffffffff166108fc82600601549081150290604051600060405180830381858888f19350505050158015610a28573d6000803e3d6000fd5b5060008160070160006101000a81548160ff0219169083151502179055505050565b3373ffffffffffffffffffffffffffffffffffffffff1660008054906101000a900473ffffffffffffffffffffffffffffffffffffffff1673ffffffffffffffffffffffffffffffffffffffff1614610ad8576040517f08c379a0000000000000000000000000000000000000000000000000000000008152600401610acf90611654565b60405180910390fd5b428411610b1a576040517f08c379a0000000000000000000000000000000000000000000000000000000008152600401610b11906115d4565b60405180910390fd5b838311610b5c576040517f08c379a0000000000000000000000000000000000000000000000000000000008152600401610b53906115b4565b60405180910390fd5b60006001600060035481526020019081526020016000209050600354816000018190555086816001019080519060200190610b98929190610ec2565b5085816002019080519060200190610bb1929190610ec2565b5084816003018190555083816004018190555082816005018190555060008160060181905550818160070160016101000a81548173ffffffffffffffffffffffffffffffffffffffff021916908373ffffffffffffffffffffffffffffffffffffffff16021790555060018160070160006101000a81548160ff02191690831515021790555060036000815480929190610c4a906118fb565b919050555050505050505050565b60006001600083815260200190815260200160002090508060070160009054906101000a900460ff16610cc0576040517f08c379a0000000000000000000000000000000000000000000000000000000008152600401610cb790611634565b60405180910390fd5b4281600301541115610d07576040517f08c379a0000000000000000000000000000000000000000000000000000000008152600401610cfe906115f4565b60405180910390fd5b60026040518060a0016040528060045481526020018481526020013373ffffffffffffffffffffffffffffffffffffffff168152602001348152602001428152509080600181540180825580915050600190039060005260206000209060050201600090919091909150600082015181600001556020820151816001015560408201518160020160006101000a81548173ffffffffffffffffffffffffffffffffffffffff021916908373ffffffffffffffffffffffffffffffffffffffff1602179055506060820151816003015560808201518160040155505060046000815480929190610df5906118fb565b919050555034816006016000828254610e0e91906117a6565b925050819055505050565b60405180610120016040528060008152602001606081526020016060815260200160008152602001600081526020016000815260200160008152602001600015158152602001600073ffffffffffffffffffffffffffffffffffffffff1681525090565b6040518060a001604052806000815260200160008152602001600073ffffffffffffffffffffffffffffffffffffffff16815260200160008152602001600081525090565b828054610ece90611898565b90600052602060002090601f016020900481019282610ef05760008555610f37565b82601f10610f0957805160ff1916838001178555610f37565b82800160010185558215610f37579182015b82811115610f36578251825591602001919060010190610f1b565b5b509050610f449190610f48565b5090565b5b80821115610f61576000816000905550600101610f49565b5090565b6000610f78610f73846116d6565b6116b1565b905082815260208101848484011115610f9457610f93611a05565b5b610f9f848285611856565b509392505050565b600081359050610fb681611bb3565b92915050565b600082601f830112610fd157610fd0611a00565b5b8135610fe1848260208601610f65565b91505092915050565b600081359050610ff981611bca565b92915050565b60008060008060008060c0878903121561101c5761101b611a0f565b5b600087013567ffffffffffffffff81111561103a57611039611a0a565b5b61104689828a01610fbc565b965050602087013567ffffffffffffffff81111561106757611066611a0a565b5b61107389828a01610fbc565b955050604061108489828a01610fea565b945050606061109589828a01610fea565b93505060806110a689828a01610fea565b92505060a06110b789828a01610fa7565b9150509295509295509295565b6000602082840312156110da576110d9611a0f565b5b60006110e884828501610fea565b91505092915050565b60006110fd8383611337565b905092915050565b600061111183836114cf565b60a08301905092915050565b6111268161180e565b82525050565b611135816117fc565b82525050565b611144816117fc565b82525050565b600061115582611727565b61115f8185611762565b93508360208202850161117185611707565b8060005b858110156111ad578484038952815161118e85826110f1565b945061119983611748565b925060208a01995050600181019050611175565b50829750879550505050505092915050565b60006111ca82611732565b6111d48185611773565b93506111df83611717565b8060005b838110156112105781516111f78882611105565b975061120283611755565b9250506001810190506111e3565b5085935050505092915050565b61122681611820565b82525050565b60006112378261173d565b6112418185611784565b9350611251818560208601611865565b61125a81611a14565b840191505092915050565b6000611272603583611795565b915061127d82611a25565b604082019050919050565b6000611295603983611795565b91506112a082611a74565b604082019050919050565b60006112b8601983611795565b91506112c382611ac3565b602082019050919050565b60006112db602b83611795565b91506112e682611aec565b604082019050919050565b60006112fe600f83611795565b915061130982611b3b565b602082019050919050565b6000611321603983611795565b915061132c82611b64565b604082019050919050565b6000610120830160008301516113506000860182611537565b5060208301518482036020860152611368828261122c565b91505060408301518482036040860152611382828261122c565b91505060608301516113976060860182611537565b5060808301516113aa6080860182611537565b5060a08301516113bd60a0860182611537565b5060c08301516113d060c0860182611537565b5060e08301516113e360e086018261121d565b506101008301516113f861010086018261111d565b508091505092915050565b60006101208301600083015161141c6000860182611537565b5060208301518482036020860152611434828261122c565b9150506040830151848203604086015261144e828261122c565b91505060608301516114636060860182611537565b5060808301516114766080860182611537565b5060a083015161148960a0860182611537565b5060c083015161149c60c0860182611537565b5060e08301516114af60e086018261121d565b506101008301516114c461010086018261111d565b508091505092915050565b60a0820160008201516114e56000850182611537565b5060208201516114f86020850182611537565b50604082015161150b604085018261112c565b50606082015161151e6060850182611537565b5060808201516115316080850182611537565b50505050565b6115408161184c565b82525050565b61154f8161184c565b82525050565b600060208201905061156a600083018461113b565b92915050565b6000602082019050818103600083015261158a818461114a565b905092915050565b600060208201905081810360008301526115ac81846111bf565b905092915050565b600060208201905081810360008301526115cd81611265565b9050919050565b600060208201905081810360008301526115ed81611288565b9050919050565b6000602082019050818103600083015261160d816112ab565b9050919050565b6000602082019050818103600083015261162d816112ce565b9050919050565b6000602082019050818103600083015261164d816112f1565b9050919050565b6000602082019050818103600083015261166d81611314565b9050919050565b6000602082019050818103600083015261168e8184611403565b905092915050565b60006020820190506116ab6000830184611546565b92915050565b60006116bb6116cc565b90506116c782826118ca565b919050565b6000604051905090565b600067ffffffffffffffff8211156116f1576116f06119d1565b5b6116fa82611a14565b9050602081019050919050565b6000819050602082019050919050565b6000819050602082019050919050565b600081519050919050565b600081519050919050565b600081519050919050565b6000602082019050919050565b6000602082019050919050565b600082825260208201905092915050565b600082825260208201905092915050565b600082825260208201905092915050565b600082825260208201905092915050565b60006117b18261184c565b91506117bc8361184c565b9250827fffffffffffffffffffffffffffffffffffffffffffffffffffffffffffffffff038211156117f1576117f0611944565b5b828201905092915050565b60006118078261182c565b9050919050565b60006118198261182c565b9050919050565b60008115159050919050565b600073ffffffffffffffffffffffffffffffffffffffff82169050919050565b6000819050919050565b82818337600083830152505050565b60005b83811015611883578082015181840152602081019050611868565b83811115611892576000848401525b50505050565b600060028204905060018216806118b057607f821691505b602082108114156118c4576118c3611973565b5b50919050565b6118d382611a14565b810181811067ffffffffffffffff821117156118f2576118f16119d1565b5b80604052505050565b60006119068261184c565b91507fffffffffffffffffffffffffffffffffffffffffffffffffffffffffffffffff82141561193957611938611944565b5b600182019050919050565b7f4e487b7100000000000000000000000000000000000000000000000000000000600052601160045260246000fd5b7f4e487b7100000000000000000000000000000000000000000000000000000000600052602260045260246000fd5b7f4e487b7100000000000000000000000000000000000000000000000000000000600052603260045260246000fd5b7f4e487b7100000000000000000000000000000000000000000000000000000000600052604160045260246000fd5b600080fd5b600080fd5b600080fd5b600080fd5b6000601f19601f8301169050919050565b7f456e6420646174652d74696d652073686f756c6420626520677265617465722060008201527f7468616e20737461727420646174652d74696d652e0000000000000000000000602082015250565b7f537461727420646174652d74696d652073686f756c642062652067726561746560008201527f72207468616e2063757272656e7420646174652d74696d652e00000000000000602082015250565b7f46756e6420686173206e6f742073746172746564207965742e00000000000000600082015250565b7f46756e64206973206163746976652c2063616e6e6f74207472616e736665722060008201527f616d6f756e74206e6f772e000000000000000000000000000000000000000000602082015250565b7f46756e6420697320636c6f7365642e0000000000000000000000000000000000600082015250565b7f4f6e6c79206d616e6167657220697320616c6c6f77656420746f20616c6c6f7760008201527f656420746f2063616c6c20746869732066756e6374696f6e2e00000000000000602082015250565b611bbc8161180e565b8114611bc757600080fd5b50565b611bd38161184c565b8114611bde57600080fd5b5056fea26469706673582212204afd1653d80d5533742127950f2e442e66b8c5ced74536f93f2916ce49ceb24364736f6c63430008070033",
					"opcodes": "PUSH1 0x80 PUSH1 0x40 MSTORE CALLVALUE DUP1 ISZERO PUSH2 0x10 JUMPI PUSH1 0x0 DUP1 REVERT JUMPDEST POP CALLER PUSH1 0x0 DUP1 PUSH2 0x100 EXP DUP2 SLOAD DUP2 PUSH20 0xFFFFFFFFFFFFFFFFFFFFFFFFFFFFFFFFFFFFFFFF MUL NOT AND SWAP1 DUP4 PUSH20 0xFFFFFFFFFFFFFFFFFFFFFFFFFFFFFFFFFFFFFFFF AND MUL OR SWAP1 SSTORE POP PUSH2 0x1C17 DUP1 PUSH2 0x60 PUSH1 0x0 CODECOPY PUSH1 0x0 RETURN INVALID PUSH1 0x80 PUSH1 0x40 MSTORE PUSH1 0x4 CALLDATASIZE LT PUSH2 0x7B JUMPI PUSH1 0x0 CALLDATALOAD PUSH1 0xE0 SHR DUP1 PUSH4 0x481C6A75 GT PUSH2 0x4E JUMPI DUP1 PUSH4 0x481C6A75 EQ PUSH2 0x150 JUMPI DUP1 PUSH4 0x5114CB52 EQ PUSH2 0x17B JUMPI DUP1 PUSH4 0x526ED285 EQ PUSH2 0x197 JUMPI DUP1 PUSH4 0x8DCD8915 EQ PUSH2 0x1C0 JUMPI PUSH2 0x7B JUMP JUMPDEST DUP1 PUSH4 0x12065FE0 EQ PUSH2 0x80 JUMPI DUP1 PUSH4 0x149E685A EQ PUSH2 0xAB JUMPI DUP1 PUSH4 0x1C69B464 EQ PUSH2 0xE8 JUMPI DUP1 PUSH4 0x26EF2ADF EQ PUSH2 0x113 JUMPI JUMPDEST PUSH1 0x0 DUP1 REVERT JUMPDEST CALLVALUE DUP1 ISZERO PUSH2 0x8C JUMPI PUSH1 0x0 DUP1 REVERT JUMPDEST POP PUSH2 0x95 PUSH2 0x1DC JUMP JUMPDEST PUSH1 0x40 MLOAD PUSH2 0xA2 SWAP2 SWAP1 PUSH2 0x1696 JUMP JUMPDEST PUSH1 0x40 MLOAD DUP1 SWAP2 SUB SWAP1 RETURN JUMPDEST CALLVALUE DUP1 ISZERO PUSH2 0xB7 JUMPI PUSH1 0x0 DUP1 REVERT JUMPDEST POP PUSH2 0xD2 PUSH1 0x4 DUP1 CALLDATASIZE SUB DUP2 ADD SWAP1 PUSH2 0xCD SWAP2 SWAP1 PUSH2 0x10C4 JUMP JUMPDEST PUSH2 0x23D JUMP JUMPDEST PUSH1 0x40 MLOAD PUSH2 0xDF SWAP2 SWAP1 PUSH2 0x1674 JUMP JUMPDEST PUSH1 0x40 MLOAD DUP1 SWAP2 SUB SWAP1 RETURN JUMPDEST CALLVALUE DUP1 ISZERO PUSH2 0xF4 JUMPI PUSH1 0x0 DUP1 REVERT JUMPDEST POP PUSH2 0xFD PUSH2 0x432 JUMP JUMPDEST PUSH1 0x40 MLOAD PUSH2 0x10A SWAP2 SWAP1 PUSH2 0x1570 JUMP JUMPDEST PUSH1 0x40 MLOAD DUP1 SWAP2 SUB SWAP1 RETURN JUMPDEST CALLVALUE DUP1 ISZERO PUSH2 0x11F JUMPI PUSH1 0x0 DUP1 REVERT JUMPDEST POP PUSH2 0x13A PUSH1 0x4 DUP1 CALLDATASIZE SUB DUP2 ADD SWAP1 PUSH2 0x135 SWAP2 SWAP1 PUSH2 0x10C4 JUMP JUMPDEST PUSH2 0x6BA JUMP JUMPDEST PUSH1 0x40 MLOAD PUSH2 0x147 SWAP2 SWAP1 PUSH2 0x1592 JUMP JUMPDEST PUSH1 0x40 MLOAD DUP1 SWAP2 SUB SWAP1 RETURN JUMPDEST CALLVALUE DUP1 ISZERO PUSH2 0x15C JUMPI PUSH1 0x0 DUP1 REVERT JUMPDEST POP PUSH2 0x165 PUSH2 0x847 JUMP JUMPDEST PUSH1 0x40 MLOAD PUSH2 0x172 SWAP2 SWAP1 PUSH2 0x1555 JUMP JUMPDEST PUSH1 0x40 MLOAD DUP1 SWAP2 SUB SWAP1 RETURN JUMPDEST PUSH2 0x195 PUSH1 0x4 DUP1 CALLDATASIZE SUB DUP2 ADD SWAP1 PUSH2 0x190 SWAP2 SWAP1 PUSH2 0x10C4 JUMP JUMPDEST PUSH2 0x86B JUMP JUMPDEST STOP JUMPDEST CALLVALUE DUP1 ISZERO PUSH2 0x1A3 JUMPI PUSH1 0x0 DUP1 REVERT JUMPDEST POP PUSH2 0x1BE PUSH1 0x4 DUP1 CALLDATASIZE SUB DUP2 ADD SWAP1 PUSH2 0x1B9 SWAP2 SWAP1 PUSH2 0xFFF JUMP JUMPDEST PUSH2 0xA4A JUMP JUMPDEST STOP JUMPDEST PUSH2 0x1DA PUSH1 0x4 DUP1 CALLDATASIZE SUB DUP2 ADD SWAP1 PUSH2 0x1D5 SWAP2 SWAP1 PUSH2 0x10C4 JUMP JUMPDEST PUSH2 0xC58 JUMP JUMPDEST STOP JUMPDEST PUSH1 0x0 DUP1 PUSH1 0x0 SWAP1 SLOAD SWAP1 PUSH2 0x100 EXP SWAP1 DIV PUSH20 0xFFFFFFFFFFFFFFFFFFFFFFFFFFFFFFFFFFFFFFFF AND PUSH20 0xFFFFFFFFFFFFFFFFFFFFFFFFFFFFFFFFFFFFFFFF AND CALLER PUSH20 0xFFFFFFFFFFFFFFFFFFFFFFFFFFFFFFFFFFFFFFFF AND EQ PUSH2 0x237 JUMPI PUSH1 0x0 DUP1 REVERT JUMPDEST SELFBALANCE SWAP1 POP SWAP1 JUMP JUMPDEST PUSH2 0x245 PUSH2 0xE19 JUMP JUMPDEST PUSH1 0x1 PUSH1 0x0 DUP4 DUP2 MSTORE PUSH1 0x20 ADD SWAP1 DUP2 MSTORE PUSH1 0x20 ADD PUSH1 0x0 KECCAK256 PUSH1 0x40 MLOAD DUP1 PUSH2 0x120 ADD PUSH1 0x40 MSTORE SWAP1 DUP2 PUSH1 0x0 DUP3 ADD SLOAD DUP2 MSTORE PUSH1 0x20 ADD PUSH1 0x1 DUP3 ADD DUP1 SLOAD PUSH2 0x27E SWAP1 PUSH2 0x1898 JUMP JUMPDEST DUP1 PUSH1 0x1F ADD PUSH1 0x20 DUP1 SWAP2 DIV MUL PUSH1 0x20 ADD PUSH1 0x40 MLOAD SWAP1 DUP2 ADD PUSH1 0x40 MSTORE DUP1 SWAP3 SWAP2 SWAP1 DUP2 DUP2 MSTORE PUSH1 0x20 ADD DUP3 DUP1 SLOAD PUSH2 0x2AA SWAP1 PUSH2 0x1898 JUMP JUMPDEST DUP1 ISZERO PUSH2 0x2F7 JUMPI DUP1 PUSH1 0x1F LT PUSH2 0x2CC JUMPI PUSH2 0x100 DUP1 DUP4 SLOAD DIV MUL DUP4 MSTORE SWAP2 PUSH1 0x20 ADD SWAP2 PUSH2 0x2F7 JUMP JUMPDEST DUP3 ADD SWAP2 SWAP1 PUSH1 0x0 MSTORE PUSH1 0x20 PUSH1 0x0 KECCAK256 SWAP1 JUMPDEST DUP2 SLOAD DUP2 MSTORE SWAP1 PUSH1 0x1 ADD SWAP1 PUSH1 0x20 ADD DUP1 DUP4 GT PUSH2 0x2DA JUMPI DUP3 SWAP1 SUB PUSH1 0x1F AND DUP3 ADD SWAP2 JUMPDEST POP POP POP POP POP DUP2 MSTORE PUSH1 0x20 ADD PUSH1 0x2 DUP3 ADD DUP1 SLOAD PUSH2 0x310 SWAP1 PUSH2 0x1898 JUMP JUMPDEST DUP1 PUSH1 0x1F ADD PUSH1 0x20 DUP1 SWAP2 DIV MUL PUSH1 0x20 ADD PUSH1 0x40 MLOAD SWAP1 DUP2 ADD PUSH1 0x40 MSTORE DUP1 SWAP3 SWAP2 SWAP1 DUP2 DUP2 MSTORE PUSH1 0x20 ADD DUP3 DUP1 SLOAD PUSH2 0x33C SWAP1 PUSH2 0x1898 JUMP JUMPDEST DUP1 ISZERO PUSH2 0x389 JUMPI DUP1 PUSH1 0x1F LT PUSH2 0x35E JUMPI PUSH2 0x100 DUP1 DUP4 SLOAD DIV MUL DUP4 MSTORE SWAP2 PUSH1 0x20 ADD SWAP2 PUSH2 0x389 JUMP JUMPDEST DUP3 ADD SWAP2 SWAP1 PUSH1 0x0 MSTORE PUSH1 0x20 PUSH1 0x0 KECCAK256 SWAP1 JUMPDEST DUP2 SLOAD DUP2 MSTORE SWAP1 PUSH1 0x1 ADD SWAP1 PUSH1 0x20 ADD DUP1 DUP4 GT PUSH2 0x36C JUMPI DUP3 SWAP1 SUB PUSH1 0x1F AND DUP3 ADD SWAP2 JUMPDEST POP POP POP POP POP DUP2 MSTORE PUSH1 0x20 ADD PUSH1 0x3 DUP3 ADD SLOAD DUP2 MSTORE PUSH1 0x20 ADD PUSH1 0x4 DUP3 ADD SLOAD DUP2 MSTORE PUSH1 0x20 ADD PUSH1 0x5 DUP3 ADD SLOAD DUP2 MSTORE PUSH1 0x20 ADD PUSH1 0x6 DUP3 ADD SLOAD DUP2 MSTORE PUSH1 0x20 ADD PUSH1 0x7 DUP3 ADD PUSH1 0x0 SWAP1 SLOAD SWAP1 PUSH2 0x100 EXP SWAP1 DIV PUSH1 0xFF AND ISZERO ISZERO ISZERO ISZERO DUP2 MSTORE PUSH1 0x20 ADD PUSH1 0x7 DUP3 ADD PUSH1 0x1 SWAP1 SLOAD SWAP1 PUSH2 0x100 EXP SWAP1 DIV PUSH20 0xFFFFFFFFFFFFFFFFFFFFFFFFFFFFFFFFFFFFFFFF AND PUSH20 0xFFFFFFFFFFFFFFFFFFFFFFFFFFFFFFFFFFFFFFFF AND PUSH20 0xFFFFFFFFFFFFFFFFFFFFFFFFFFFFFFFFFFFFFFFF AND DUP2 MSTORE POP POP SWAP1 POP SWAP2 SWAP1 POP JUMP JUMPDEST PUSH1 0x60 PUSH1 0x0 PUSH1 0x3 SLOAD PUSH8 0xFFFFFFFFFFFFFFFF DUP2 GT ISZERO PUSH2 0x452 JUMPI PUSH2 0x451 PUSH2 0x19D1 JUMP JUMPDEST JUMPDEST PUSH1 0x40 MLOAD SWAP1 DUP1 DUP3 MSTORE DUP1 PUSH1 0x20 MUL PUSH1 0x20 ADD DUP3 ADD PUSH1 0x40 MSTORE DUP1 ISZERO PUSH2 0x48B JUMPI DUP2 PUSH1 0x20 ADD JUMPDEST PUSH2 0x478 PUSH2 0xE19 JUMP JUMPDEST DUP2 MSTORE PUSH1 0x20 ADD SWAP1 PUSH1 0x1 SWAP1 SUB SWAP1 DUP2 PUSH2 0x470 JUMPI SWAP1 POP JUMPDEST POP SWAP1 POP PUSH1 0x0 JUMPDEST PUSH1 0x3 SLOAD DUP2 LT ISZERO PUSH2 0x6B2 JUMPI PUSH1 0x1 PUSH1 0x0 DUP3 DUP2 MSTORE PUSH1 0x20 ADD SWAP1 DUP2 MSTORE PUSH1 0x20 ADD PUSH1 0x0 KECCAK256 PUSH1 0x40 MLOAD DUP1 PUSH2 0x120 ADD PUSH1 0x40 MSTORE SWAP1 DUP2 PUSH1 0x0 DUP3 ADD SLOAD DUP2 MSTORE PUSH1 0x20 ADD PUSH1 0x1 DUP3 ADD DUP1 SLOAD PUSH2 0x4D4 SWAP1 PUSH2 0x1898 JUMP JUMPDEST DUP1 PUSH1 0x1F ADD PUSH1 0x20 DUP1 SWAP2 DIV MUL PUSH1 0x20 ADD PUSH1 0x40 MLOAD SWAP1 DUP2 ADD PUSH1 0x40 MSTORE DUP1 SWAP3 SWAP2 SWAP1 DUP2 DUP2 MSTORE PUSH1 0x20 ADD DUP3 DUP1 SLOAD PUSH2 0x500 SWAP1 PUSH2 0x1898 JUMP JUMPDEST DUP1 ISZERO PUSH2 0x54D JUMPI DUP1 PUSH1 0x1F LT PUSH2 0x522 JUMPI PUSH2 0x100 DUP1 DUP4 SLOAD DIV MUL DUP4 MSTORE SWAP2 PUSH1 0x20 ADD SWAP2 PUSH2 0x54D JUMP JUMPDEST DUP3 ADD SWAP2 SWAP1 PUSH1 0x0 MSTORE PUSH1 0x20 PUSH1 0x0 KECCAK256 SWAP1 JUMPDEST DUP2 SLOAD DUP2 MSTORE SWAP1 PUSH1 0x1 ADD SWAP1 PUSH1 0x20 ADD DUP1 DUP4 GT PUSH2 0x530 JUMPI DUP3 SWAP1 SUB PUSH1 0x1F AND DUP3 ADD SWAP2 JUMPDEST POP POP POP POP POP DUP2 MSTORE PUSH1 0x20 ADD PUSH1 0x2 DUP3 ADD DUP1 SLOAD PUSH2 0x566 SWAP1 PUSH2 0x1898 JUMP JUMPDEST DUP1 PUSH1 0x1F ADD PUSH1 0x20 DUP1 SWAP2 DIV MUL PUSH1 0x20 ADD PUSH1 0x40 MLOAD SWAP1 DUP2 ADD PUSH1 0x40 MSTORE DUP1 SWAP3 SWAP2 SWAP1 DUP2 DUP2 MSTORE PUSH1 0x20 ADD DUP3 DUP1 SLOAD PUSH2 0x592 SWAP1 PUSH2 0x1898 JUMP JUMPDEST DUP1 ISZERO PUSH2 0x5DF JUMPI DUP1 PUSH1 0x1F LT PUSH2 0x5B4 JUMPI PUSH2 0x100 DUP1 DUP4 SLOAD DIV MUL DUP4 MSTORE SWAP2 PUSH1 0x20 ADD SWAP2 PUSH2 0x5DF JUMP JUMPDEST DUP3 ADD SWAP2 SWAP1 PUSH1 0x0 MSTORE PUSH1 0x20 PUSH1 0x0 KECCAK256 SWAP1 JUMPDEST DUP2 SLOAD DUP2 MSTORE SWAP1 PUSH1 0x1 ADD SWAP1 PUSH1 0x20 ADD DUP1 DUP4 GT PUSH2 0x5C2 JUMPI DUP3 SWAP1 SUB PUSH1 0x1F AND DUP3 ADD SWAP2 JUMPDEST POP POP POP POP POP DUP2 MSTORE PUSH1 0x20 ADD PUSH1 0x3 DUP3 ADD SLOAD DUP2 MSTORE PUSH1 0x20 ADD PUSH1 0x4 DUP3 ADD SLOAD DUP2 MSTORE PUSH1 0x20 ADD PUSH1 0x5 DUP3 ADD SLOAD DUP2 MSTORE PUSH1 0x20 ADD PUSH1 0x6 DUP3 ADD SLOAD DUP2 MSTORE PUSH1 0x20 ADD PUSH1 0x7 DUP3 ADD PUSH1 0x0 SWAP1 SLOAD SWAP1 PUSH2 0x100 EXP SWAP1 DIV PUSH1 0xFF AND ISZERO ISZERO ISZERO ISZERO DUP2 MSTORE PUSH1 0x20 ADD PUSH1 0x7 DUP3 ADD PUSH1 0x1 SWAP1 SLOAD SWAP1 PUSH2 0x100 EXP SWAP1 DIV PUSH20 0xFFFFFFFFFFFFFFFFFFFFFFFFFFFFFFFFFFFFFFFF AND PUSH20 0xFFFFFFFFFFFFFFFFFFFFFFFFFFFFFFFFFFFFFFFF AND PUSH20 0xFFFFFFFFFFFFFFFFFFFFFFFFFFFFFFFFFFFFFFFF AND DUP2 MSTORE POP POP DUP3 DUP3 DUP2 MLOAD DUP2 LT PUSH2 0x694 JUMPI PUSH2 0x693 PUSH2 0x19A2 JUMP JUMPDEST JUMPDEST PUSH1 0x20 MUL PUSH1 0x20 ADD ADD DUP2 SWAP1 MSTORE POP DUP1 DUP1 PUSH2 0x6AA SWAP1 PUSH2 0x18FB JUMP JUMPDEST SWAP2 POP POP PUSH2 0x491 JUMP JUMPDEST POP DUP1 SWAP2 POP POP SWAP1 JUMP JUMPDEST PUSH1 0x60 PUSH1 0x0 PUSH1 0x4 SLOAD PUSH8 0xFFFFFFFFFFFFFFFF DUP2 GT ISZERO PUSH2 0x6DA JUMPI PUSH2 0x6D9 PUSH2 0x19D1 JUMP JUMPDEST JUMPDEST PUSH1 0x40 MLOAD SWAP1 DUP1 DUP3 MSTORE DUP1 PUSH1 0x20 MUL PUSH1 0x20 ADD DUP3 ADD PUSH1 0x40 MSTORE DUP1 ISZERO PUSH2 0x713 JUMPI DUP2 PUSH1 0x20 ADD JUMPDEST PUSH2 0x700 PUSH2 0xE7D JUMP JUMPDEST DUP2 MSTORE PUSH1 0x20 ADD SWAP1 PUSH1 0x1 SWAP1 SUB SWAP1 DUP2 PUSH2 0x6F8 JUMPI SWAP1 POP JUMPDEST POP SWAP1 POP PUSH1 0x0 DUP1 JUMPDEST PUSH1 0x4 SLOAD DUP2 LT ISZERO PUSH2 0x83C JUMPI DUP5 PUSH1 0x2 DUP3 DUP2 SLOAD DUP2 LT PUSH2 0x739 JUMPI PUSH2 0x738 PUSH2 0x19A2 JUMP JUMPDEST JUMPDEST SWAP1 PUSH1 0x0 MSTORE PUSH1 0x20 PUSH1 0x0 KECCAK256 SWAP1 PUSH1 0x5 MUL ADD PUSH1 0x1 ADD SLOAD EQ ISZERO PUSH2 0x829 JUMPI PUSH1 0x2 DUP2 DUP2 SLOAD DUP2 LT PUSH2 0x765 JUMPI PUSH2 0x764 PUSH2 0x19A2 JUMP JUMPDEST JUMPDEST SWAP1 PUSH1 0x0 MSTORE PUSH1 0x20 PUSH1 0x0 KECCAK256 SWAP1 PUSH1 0x5 MUL ADD PUSH1 0x40 MLOAD DUP1 PUSH1 0xA0 ADD PUSH1 0x40 MSTORE SWAP1 DUP2 PUSH1 0x0 DUP3 ADD SLOAD DUP2 MSTORE PUSH1 0x20 ADD PUSH1 0x1 DUP3 ADD SLOAD DUP2 MSTORE PUSH1 0x20 ADD PUSH1 0x2 DUP3 ADD PUSH1 0x0 SWAP1 SLOAD SWAP1 PUSH2 0x100 EXP SWAP1 DIV PUSH20 0xFFFFFFFFFFFFFFFFFFFFFFFFFFFFFFFFFFFFFFFF AND PUSH20 0xFFFFFFFFFFFFFFFFFFFFFFFFFFFFFFFFFFFFFFFF AND PUSH20 0xFFFFFFFFFFFFFFFFFFFFFFFFFFFFFFFFFFFFFFFF AND DUP2 MSTORE PUSH1 0x20 ADD PUSH1 0x3 DUP3 ADD SLOAD DUP2 MSTORE PUSH1 0x20 ADD PUSH1 0x4 DUP3 ADD SLOAD DUP2 MSTORE POP POP DUP4 DUP4 DUP2 MLOAD DUP2 LT PUSH2 0x80F JUMPI PUSH2 0x80E PUSH2 0x19A2 JUMP JUMPDEST JUMPDEST PUSH1 0x20 MUL PUSH1 0x20 ADD ADD DUP2 SWAP1 MSTORE POP DUP2 DUP1 PUSH2 0x825 SWAP1 PUSH2 0x18FB JUMP JUMPDEST SWAP3 POP POP JUMPDEST DUP1 DUP1 PUSH2 0x834 SWAP1 PUSH2 0x18FB JUMP JUMPDEST SWAP2 POP POP PUSH2 0x71A JUMP JUMPDEST POP DUP2 SWAP3 POP POP POP SWAP2 SWAP1 POP JUMP JUMPDEST PUSH1 0x0 DUP1 SLOAD SWAP1 PUSH2 0x100 EXP SWAP1 DIV PUSH20 0xFFFFFFFFFFFFFFFFFFFFFFFFFFFFFFFFFFFFFFFF AND DUP2 JUMP JUMPDEST CALLER PUSH20 0xFFFFFFFFFFFFFFFFFFFFFFFFFFFFFFFFFFFFFFFF AND PUSH1 0x0 DUP1 SLOAD SWAP1 PUSH2 0x100 EXP SWAP1 DIV PUSH20 0xFFFFFFFFFFFFFFFFFFFFFFFFFFFFFFFFFFFFFFFF AND PUSH20 0xFFFFFFFFFFFFFFFFFFFFFFFFFFFFFFFFFFFFFFFF AND EQ PUSH2 0x8F9 JUMPI PUSH1 0x40 MLOAD PUSH32 0x8C379A000000000000000000000000000000000000000000000000000000000 DUP2 MSTORE PUSH1 0x4 ADD PUSH2 0x8F0 SWAP1 PUSH2 0x1654 JUMP JUMPDEST PUSH1 0x40 MLOAD DUP1 SWAP2 SUB SWAP1 REVERT JUMPDEST PUSH1 0x0 PUSH1 0x1 PUSH1 0x0 DUP4 DUP2 MSTORE PUSH1 0x20 ADD SWAP1 DUP2 MSTORE PUSH1 0x20 ADD PUSH1 0x0 KECCAK256 SWAP1 POP DUP1 PUSH1 0x7 ADD PUSH1 0x0 SWAP1 SLOAD SWAP1 PUSH2 0x100 EXP SWAP1 DIV PUSH1 0xFF AND PUSH2 0x961 JUMPI PUSH1 0x40 MLOAD PUSH32 0x8C379A000000000000000000000000000000000000000000000000000000000 DUP2 MSTORE PUSH1 0x4 ADD PUSH2 0x958 SWAP1 PUSH2 0x1634 JUMP JUMPDEST PUSH1 0x40 MLOAD DUP1 SWAP2 SUB SWAP1 REVERT JUMPDEST DUP1 PUSH1 0x5 ADD SLOAD DUP2 PUSH1 0x6 ADD SLOAD LT ISZERO DUP1 PUSH2 0x97B JUMPI POP TIMESTAMP DUP2 PUSH1 0x4 ADD SLOAD LT JUMPDEST PUSH2 0x9BA JUMPI PUSH1 0x40 MLOAD PUSH32 0x8C379A000000000000000000000000000000000000000000000000000000000 DUP2 MSTORE PUSH1 0x4 ADD PUSH2 0x9B1 SWAP1 PUSH2 0x1614 JUMP JUMPDEST PUSH1 0x40 MLOAD DUP1 SWAP2 SUB SWAP1 REVERT JUMPDEST DUP1 PUSH1 0x7 ADD PUSH1 0x1 SWAP1 SLOAD SWAP1 PUSH2 0x100 EXP SWAP1 DIV PUSH20 0xFFFFFFFFFFFFFFFFFFFFFFFFFFFFFFFFFFFFFFFF AND PUSH20 0xFFFFFFFFFFFFFFFFFFFFFFFFFFFFFFFFFFFFFFFF AND PUSH2 0x8FC DUP3 PUSH1 0x6 ADD SLOAD SWAP1 DUP2 ISZERO MUL SWAP1 PUSH1 0x40 MLOAD PUSH1 0x0 PUSH1 0x40 MLOAD DUP1 DUP4 SUB DUP2 DUP6 DUP9 DUP9 CALL SWAP4 POP POP POP POP ISZERO DUP1 ISZERO PUSH2 0xA28 JUMPI RETURNDATASIZE PUSH1 0x0 DUP1 RETURNDATACOPY RETURNDATASIZE PUSH1 0x0 REVERT JUMPDEST POP PUSH1 0x0 DUP2 PUSH1 0x7 ADD PUSH1 0x0 PUSH2 0x100 EXP DUP2 SLOAD DUP2 PUSH1 0xFF MUL NOT AND SWAP1 DUP4 ISZERO ISZERO MUL OR SWAP1 SSTORE POP POP POP JUMP JUMPDEST CALLER PUSH20 0xFFFFFFFFFFFFFFFFFFFFFFFFFFFFFFFFFFFFFFFF AND PUSH1 0x0 DUP1 SLOAD SWAP1 PUSH2 0x100 EXP SWAP1 DIV PUSH20 0xFFFFFFFFFFFFFFFFFFFFFFFFFFFFFFFFFFFFFFFF AND PUSH20 0xFFFFFFFFFFFFFFFFFFFFFFFFFFFFFFFFFFFFFFFF AND EQ PUSH2 0xAD8 JUMPI PUSH1 0x40 MLOAD PUSH32 0x8C379A000000000000000000000000000000000000000000000000000000000 DUP2 MSTORE PUSH1 0x4 ADD PUSH2 0xACF SWAP1 PUSH2 0x1654 JUMP JUMPDEST PUSH1 0x40 MLOAD DUP1 SWAP2 SUB SWAP1 REVERT JUMPDEST TIMESTAMP DUP5 GT PUSH2 0xB1A JUMPI PUSH1 0x40 MLOAD PUSH32 0x8C379A000000000000000000000000000000000000000000000000000000000 DUP2 MSTORE PUSH1 0x4 ADD PUSH2 0xB11 SWAP1 PUSH2 0x15D4 JUMP JUMPDEST PUSH1 0x40 MLOAD DUP1 SWAP2 SUB SWAP1 REVERT JUMPDEST DUP4 DUP4 GT PUSH2 0xB5C JUMPI PUSH1 0x40 MLOAD PUSH32 0x8C379A000000000000000000000000000000000000000000000000000000000 DUP2 MSTORE PUSH1 0x4 ADD PUSH2 0xB53 SWAP1 PUSH2 0x15B4 JUMP JUMPDEST PUSH1 0x40 MLOAD DUP1 SWAP2 SUB SWAP1 REVERT JUMPDEST PUSH1 0x0 PUSH1 0x1 PUSH1 0x0 PUSH1 0x3 SLOAD DUP2 MSTORE PUSH1 0x20 ADD SWAP1 DUP2 MSTORE PUSH1 0x20 ADD PUSH1 0x0 KECCAK256 SWAP1 POP PUSH1 0x3 SLOAD DUP2 PUSH1 0x0 ADD DUP2 SWAP1 SSTORE POP DUP7 DUP2 PUSH1 0x1 ADD SWAP1 DUP1 MLOAD SWAP1 PUSH1 0x20 ADD SWAP1 PUSH2 0xB98 SWAP3 SWAP2 SWAP1 PUSH2 0xEC2 JUMP JUMPDEST POP DUP6 DUP2 PUSH1 0x2 ADD SWAP1 DUP1 MLOAD SWAP1 PUSH1 0x20 ADD SWAP1 PUSH2 0xBB1 SWAP3 SWAP2 SWAP1 PUSH2 0xEC2 JUMP JUMPDEST POP DUP5 DUP2 PUSH1 0x3 ADD DUP2 SWAP1 SSTORE POP DUP4 DUP2 PUSH1 0x4 ADD DUP2 SWAP1 SSTORE POP DUP3 DUP2 PUSH1 0x5 ADD DUP2 SWAP1 SSTORE POP PUSH1 0x0 DUP2 PUSH1 0x6 ADD DUP2 SWAP1 SSTORE POP DUP2 DUP2 PUSH1 0x7 ADD PUSH1 0x1 PUSH2 0x100 EXP DUP2 SLOAD DUP2 PUSH20 0xFFFFFFFFFFFFFFFFFFFFFFFFFFFFFFFFFFFFFFFF MUL NOT AND SWAP1 DUP4 PUSH20 0xFFFFFFFFFFFFFFFFFFFFFFFFFFFFFFFFFFFFFFFF AND MUL OR SWAP1 SSTORE POP PUSH1 0x1 DUP2 PUSH1 0x7 ADD PUSH1 0x0 PUSH2 0x100 EXP DUP2 SLOAD DUP2 PUSH1 0xFF MUL NOT AND SWAP1 DUP4 ISZERO ISZERO MUL OR SWAP1 SSTORE POP PUSH1 0x3 PUSH1 0x0 DUP2 SLOAD DUP1 SWAP3 SWAP2 SWAP1 PUSH2 0xC4A SWAP1 PUSH2 0x18FB JUMP JUMPDEST SWAP2 SWAP1 POP SSTORE POP POP POP POP POP POP POP POP JUMP JUMPDEST PUSH1 0x0 PUSH1 0x1 PUSH1 0x0 DUP4 DUP2 MSTORE PUSH1 0x20 ADD SWAP1 DUP2 MSTORE PUSH1 0x20 ADD PUSH1 0x0 KECCAK256 SWAP1 POP DUP1 PUSH1 0x7 ADD PUSH1 0x0 SWAP1 SLOAD SWAP1 PUSH2 0x100 EXP SWAP1 DIV PUSH1 0xFF AND PUSH2 0xCC0 JUMPI PUSH1 0x40 MLOAD PUSH32 0x8C379A000000000000000000000000000000000000000000000000000000000 DUP2 MSTORE PUSH1 0x4 ADD PUSH2 0xCB7 SWAP1 PUSH2 0x1634 JUMP JUMPDEST PUSH1 0x40 MLOAD DUP1 SWAP2 SUB SWAP1 REVERT JUMPDEST TIMESTAMP DUP2 PUSH1 0x3 ADD SLOAD GT ISZERO PUSH2 0xD07 JUMPI PUSH1 0x40 MLOAD PUSH32 0x8C379A000000000000000000000000000000000000000000000000000000000 DUP2 MSTORE PUSH1 0x4 ADD PUSH2 0xCFE SWAP1 PUSH2 0x15F4 JUMP JUMPDEST PUSH1 0x40 MLOAD DUP1 SWAP2 SUB SWAP1 REVERT JUMPDEST PUSH1 0x2 PUSH1 0x40 MLOAD DUP1 PUSH1 0xA0 ADD PUSH1 0x40 MSTORE DUP1 PUSH1 0x4 SLOAD DUP2 MSTORE PUSH1 0x20 ADD DUP5 DUP2 MSTORE PUSH1 0x20 ADD CALLER PUSH20 0xFFFFFFFFFFFFFFFFFFFFFFFFFFFFFFFFFFFFFFFF AND DUP2 MSTORE PUSH1 0x20 ADD CALLVALUE DUP2 MSTORE PUSH1 0x20 ADD TIMESTAMP DUP2 MSTORE POP SWAP1 DUP1 PUSH1 0x1 DUP2 SLOAD ADD DUP1 DUP3 SSTORE DUP1 SWAP2 POP POP PUSH1 0x1 SWAP1 SUB SWAP1 PUSH1 0x0 MSTORE PUSH1 0x20 PUSH1 0x0 KECCAK256 SWAP1 PUSH1 0x5 MUL ADD PUSH1 0x0 SWAP1 SWAP2 SWAP1 SWAP2 SWAP1 SWAP2 POP PUSH1 0x0 DUP3 ADD MLOAD DUP2 PUSH1 0x0 ADD SSTORE PUSH1 0x20 DUP3 ADD MLOAD DUP2 PUSH1 0x1 ADD SSTORE PUSH1 0x40 DUP3 ADD MLOAD DUP2 PUSH1 0x2 ADD PUSH1 0x0 PUSH2 0x100 EXP DUP2 SLOAD DUP2 PUSH20 0xFFFFFFFFFFFFFFFFFFFFFFFFFFFFFFFFFFFFFFFF MUL NOT AND SWAP1 DUP4 PUSH20 0xFFFFFFFFFFFFFFFFFFFFFFFFFFFFFFFFFFFFFFFF AND MUL OR SWAP1 SSTORE POP PUSH1 0x60 DUP3 ADD MLOAD DUP2 PUSH1 0x3 ADD SSTORE PUSH1 0x80 DUP3 ADD MLOAD DUP2 PUSH1 0x4 ADD SSTORE POP POP PUSH1 0x4 PUSH1 0x0 DUP2 SLOAD DUP1 SWAP3 SWAP2 SWAP1 PUSH2 0xDF5 SWAP1 PUSH2 0x18FB JUMP JUMPDEST SWAP2 SWAP1 POP SSTORE POP CALLVALUE DUP2 PUSH1 0x6 ADD PUSH1 0x0 DUP3 DUP3 SLOAD PUSH2 0xE0E SWAP2 SWAP1 PUSH2 0x17A6 JUMP JUMPDEST SWAP3 POP POP DUP2 SWAP1 SSTORE POP POP POP JUMP JUMPDEST PUSH1 0x40 MLOAD DUP1 PUSH2 0x120 ADD PUSH1 0x40 MSTORE DUP1 PUSH1 0x0 DUP2 MSTORE PUSH1 0x20 ADD PUSH1 0x60 DUP2 MSTORE PUSH1 0x20 ADD PUSH1 0x60 DUP2 MSTORE PUSH1 0x20 ADD PUSH1 0x0 DUP2 MSTORE PUSH1 0x20 ADD PUSH1 0x0 DUP2 MSTORE PUSH1 0x20 ADD PUSH1 0x0 DUP2 MSTORE PUSH1 0x20 ADD PUSH1 0x0 DUP2 MSTORE PUSH1 0x20 ADD PUSH1 0x0 ISZERO ISZERO DUP2 MSTORE PUSH1 0x20 ADD PUSH1 0x0 PUSH20 0xFFFFFFFFFFFFFFFFFFFFFFFFFFFFFFFFFFFFFFFF AND DUP2 MSTORE POP SWAP1 JUMP JUMPDEST PUSH1 0x40 MLOAD DUP1 PUSH1 0xA0 ADD PUSH1 0x40 MSTORE DUP1 PUSH1 0x0 DUP2 MSTORE PUSH1 0x20 ADD PUSH1 0x0 DUP2 MSTORE PUSH1 0x20 ADD PUSH1 0x0 PUSH20 0xFFFFFFFFFFFFFFFFFFFFFFFFFFFFFFFFFFFFFFFF AND DUP2 MSTORE PUSH1 0x20 ADD PUSH1 0x0 DUP2 MSTORE PUSH1 0x20 ADD PUSH1 0x0 DUP2 MSTORE POP SWAP1 JUMP JUMPDEST DUP3 DUP1 SLOAD PUSH2 0xECE SWAP1 PUSH2 0x1898 JUMP JUMPDEST SWAP1 PUSH1 0x0 MSTORE PUSH1 0x20 PUSH1 0x0 KECCAK256 SWAP1 PUSH1 0x1F ADD PUSH1 0x20 SWAP1 DIV DUP2 ADD SWAP3 DUP3 PUSH2 0xEF0 JUMPI PUSH1 0x0 DUP6 SSTORE PUSH2 0xF37 JUMP JUMPDEST DUP3 PUSH1 0x1F LT PUSH2 0xF09 JUMPI DUP1 MLOAD PUSH1 0xFF NOT AND DUP4 DUP1 ADD OR DUP6 SSTORE PUSH2 0xF37 JUMP JUMPDEST DUP3 DUP1 ADD PUSH1 0x1 ADD DUP6 SSTORE DUP3 ISZERO PUSH2 0xF37 JUMPI SWAP2 DUP3 ADD JUMPDEST DUP3 DUP2 GT ISZERO PUSH2 0xF36 JUMPI DUP3 MLOAD DUP3 SSTORE SWAP2 PUSH1 0x20 ADD SWAP2 SWAP1 PUSH1 0x1 ADD SWAP1 PUSH2 0xF1B JUMP JUMPDEST JUMPDEST POP SWAP1 POP PUSH2 0xF44 SWAP2 SWAP1 PUSH2 0xF48 JUMP JUMPDEST POP SWAP1 JUMP JUMPDEST JUMPDEST DUP1 DUP3 GT ISZERO PUSH2 0xF61 JUMPI PUSH1 0x0 DUP2 PUSH1 0x0 SWAP1 SSTORE POP PUSH1 0x1 ADD PUSH2 0xF49 JUMP JUMPDEST POP SWAP1 JUMP JUMPDEST PUSH1 0x0 PUSH2 0xF78 PUSH2 0xF73 DUP5 PUSH2 0x16D6 JUMP JUMPDEST PUSH2 0x16B1 JUMP JUMPDEST SWAP1 POP DUP3 DUP2 MSTORE PUSH1 0x20 DUP2 ADD DUP5 DUP5 DUP5 ADD GT ISZERO PUSH2 0xF94 JUMPI PUSH2 0xF93 PUSH2 0x1A05 JUMP JUMPDEST JUMPDEST PUSH2 0xF9F DUP5 DUP3 DUP6 PUSH2 0x1856 JUMP JUMPDEST POP SWAP4 SWAP3 POP POP POP JUMP JUMPDEST PUSH1 0x0 DUP2 CALLDATALOAD SWAP1 POP PUSH2 0xFB6 DUP2 PUSH2 0x1BB3 JUMP JUMPDEST SWAP3 SWAP2 POP POP JUMP JUMPDEST PUSH1 0x0 DUP3 PUSH1 0x1F DUP4 ADD SLT PUSH2 0xFD1 JUMPI PUSH2 0xFD0 PUSH2 0x1A00 JUMP JUMPDEST JUMPDEST DUP2 CALLDATALOAD PUSH2 0xFE1 DUP5 DUP3 PUSH1 0x20 DUP7 ADD PUSH2 0xF65 JUMP JUMPDEST SWAP2 POP POP SWAP3 SWAP2 POP POP JUMP JUMPDEST PUSH1 0x0 DUP2 CALLDATALOAD SWAP1 POP PUSH2 0xFF9 DUP2 PUSH2 0x1BCA JUMP JUMPDEST SWAP3 SWAP2 POP POP JUMP JUMPDEST PUSH1 0x0 DUP1 PUSH1 0x0 DUP1 PUSH1 0x0 DUP1 PUSH1 0xC0 DUP8 DUP10 SUB SLT ISZERO PUSH2 0x101C JUMPI PUSH2 0x101B PUSH2 0x1A0F JUMP JUMPDEST JUMPDEST PUSH1 0x0 DUP8 ADD CALLDATALOAD PUSH8 0xFFFFFFFFFFFFFFFF DUP2 GT ISZERO PUSH2 0x103A JUMPI PUSH2 0x1039 PUSH2 0x1A0A JUMP JUMPDEST JUMPDEST PUSH2 0x1046 DUP10 DUP3 DUP11 ADD PUSH2 0xFBC JUMP JUMPDEST SWAP7 POP POP PUSH1 0x20 DUP8 ADD CALLDATALOAD PUSH8 0xFFFFFFFFFFFFFFFF DUP2 GT ISZERO PUSH2 0x1067 JUMPI PUSH2 0x1066 PUSH2 0x1A0A JUMP JUMPDEST JUMPDEST PUSH2 0x1073 DUP10 DUP3 DUP11 ADD PUSH2 0xFBC JUMP JUMPDEST SWAP6 POP POP PUSH1 0x40 PUSH2 0x1084 DUP10 DUP3 DUP11 ADD PUSH2 0xFEA JUMP JUMPDEST SWAP5 POP POP PUSH1 0x60 PUSH2 0x1095 DUP10 DUP3 DUP11 ADD PUSH2 0xFEA JUMP JUMPDEST SWAP4 POP POP PUSH1 0x80 PUSH2 0x10A6 DUP10 DUP3 DUP11 ADD PUSH2 0xFEA JUMP JUMPDEST SWAP3 POP POP PUSH1 0xA0 PUSH2 0x10B7 DUP10 DUP3 DUP11 ADD PUSH2 0xFA7 JUMP JUMPDEST SWAP2 POP POP SWAP3 SWAP6 POP SWAP3 SWAP6 POP SWAP3 SWAP6 JUMP JUMPDEST PUSH1 0x0 PUSH1 0x20 DUP3 DUP5 SUB SLT ISZERO PUSH2 0x10DA JUMPI PUSH2 0x10D9 PUSH2 0x1A0F JUMP JUMPDEST JUMPDEST PUSH1 0x0 PUSH2 0x10E8 DUP5 DUP3 DUP6 ADD PUSH2 0xFEA JUMP JUMPDEST SWAP2 POP POP SWAP3 SWAP2 POP POP JUMP JUMPDEST PUSH1 0x0 PUSH2 0x10FD DUP4 DUP4 PUSH2 0x1337 JUMP JUMPDEST SWAP1 POP SWAP3 SWAP2 POP POP JUMP JUMPDEST PUSH1 0x0 PUSH2 0x1111 DUP4 DUP4 PUSH2 0x14CF JUMP JUMPDEST PUSH1 0xA0 DUP4 ADD SWAP1 POP SWAP3 SWAP2 POP POP JUMP JUMPDEST PUSH2 0x1126 DUP2 PUSH2 0x180E JUMP JUMPDEST DUP3 MSTORE POP POP JUMP JUMPDEST PUSH2 0x1135 DUP2 PUSH2 0x17FC JUMP JUMPDEST DUP3 MSTORE POP POP JUMP JUMPDEST PUSH2 0x1144 DUP2 PUSH2 0x17FC JUMP JUMPDEST DUP3 MSTORE POP POP JUMP JUMPDEST PUSH1 0x0 PUSH2 0x1155 DUP3 PUSH2 0x1727 JUMP JUMPDEST PUSH2 0x115F DUP2 DUP6 PUSH2 0x1762 JUMP JUMPDEST SWAP4 POP DUP4 PUSH1 0x20 DUP3 MUL DUP6 ADD PUSH2 0x1171 DUP6 PUSH2 0x1707 JUMP JUMPDEST DUP1 PUSH1 0x0 JUMPDEST DUP6 DUP2 LT ISZERO PUSH2 0x11AD JUMPI DUP5 DUP5 SUB DUP10 MSTORE DUP2 MLOAD PUSH2 0x118E DUP6 DUP3 PUSH2 0x10F1 JUMP JUMPDEST SWAP5 POP PUSH2 0x1199 DUP4 PUSH2 0x1748 JUMP JUMPDEST SWAP3 POP PUSH1 0x20 DUP11 ADD SWAP10 POP POP PUSH1 0x1 DUP2 ADD SWAP1 POP PUSH2 0x1175 JUMP JUMPDEST POP DUP3 SWAP8 POP DUP8 SWAP6 POP POP POP POP POP POP SWAP3 SWAP2 POP POP JUMP JUMPDEST PUSH1 0x0 PUSH2 0x11CA DUP3 PUSH2 0x1732 JUMP JUMPDEST PUSH2 0x11D4 DUP2 DUP6 PUSH2 0x1773 JUMP JUMPDEST SWAP4 POP PUSH2 0x11DF DUP4 PUSH2 0x1717 JUMP JUMPDEST DUP1 PUSH1 0x0 JUMPDEST DUP4 DUP2 LT ISZERO PUSH2 0x1210 JUMPI DUP2 MLOAD PUSH2 0x11F7 DUP9 DUP3 PUSH2 0x1105 JUMP JUMPDEST SWAP8 POP PUSH2 0x1202 DUP4 PUSH2 0x1755 JUMP JUMPDEST SWAP3 POP POP PUSH1 0x1 DUP2 ADD SWAP1 POP PUSH2 0x11E3 JUMP JUMPDEST POP DUP6 SWAP4 POP POP POP POP SWAP3 SWAP2 POP POP JUMP JUMPDEST PUSH2 0x1226 DUP2 PUSH2 0x1820 JUMP JUMPDEST DUP3 MSTORE POP POP JUMP JUMPDEST PUSH1 0x0 PUSH2 0x1237 DUP3 PUSH2 0x173D JUMP JUMPDEST PUSH2 0x1241 DUP2 DUP6 PUSH2 0x1784 JUMP JUMPDEST SWAP4 POP PUSH2 0x1251 DUP2 DUP6 PUSH1 0x20 DUP7 ADD PUSH2 0x1865 JUMP JUMPDEST PUSH2 0x125A DUP2 PUSH2 0x1A14 JUMP JUMPDEST DUP5 ADD SWAP2 POP POP SWAP3 SWAP2 POP POP JUMP JUMPDEST PUSH1 0x0 PUSH2 0x1272 PUSH1 0x35 DUP4 PUSH2 0x1795 JUMP JUMPDEST SWAP2 POP PUSH2 0x127D DUP3 PUSH2 0x1A25 JUMP JUMPDEST PUSH1 0x40 DUP3 ADD SWAP1 POP SWAP2 SWAP1 POP JUMP JUMPDEST PUSH1 0x0 PUSH2 0x1295 PUSH1 0x39 DUP4 PUSH2 0x1795 JUMP JUMPDEST SWAP2 POP PUSH2 0x12A0 DUP3 PUSH2 0x1A74 JUMP JUMPDEST PUSH1 0x40 DUP3 ADD SWAP1 POP SWAP2 SWAP1 POP JUMP JUMPDEST PUSH1 0x0 PUSH2 0x12B8 PUSH1 0x19 DUP4 PUSH2 0x1795 JUMP JUMPDEST SWAP2 POP PUSH2 0x12C3 DUP3 PUSH2 0x1AC3 JUMP JUMPDEST PUSH1 0x20 DUP3 ADD SWAP1 POP SWAP2 SWAP1 POP JUMP JUMPDEST PUSH1 0x0 PUSH2 0x12DB PUSH1 0x2B DUP4 PUSH2 0x1795 JUMP JUMPDEST SWAP2 POP PUSH2 0x12E6 DUP3 PUSH2 0x1AEC JUMP JUMPDEST PUSH1 0x40 DUP3 ADD SWAP1 POP SWAP2 SWAP1 POP JUMP JUMPDEST PUSH1 0x0 PUSH2 0x12FE PUSH1 0xF DUP4 PUSH2 0x1795 JUMP JUMPDEST SWAP2 POP PUSH2 0x1309 DUP3 PUSH2 0x1B3B JUMP JUMPDEST PUSH1 0x20 DUP3 ADD SWAP1 POP SWAP2 SWAP1 POP JUMP JUMPDEST PUSH1 0x0 PUSH2 0x1321 PUSH1 0x39 DUP4 PUSH2 0x1795 JUMP JUMPDEST SWAP2 POP PUSH2 0x132C DUP3 PUSH2 0x1B64 JUMP JUMPDEST PUSH1 0x40 DUP3 ADD SWAP1 POP SWAP2 SWAP1 POP JUMP JUMPDEST PUSH1 0x0 PUSH2 0x120 DUP4 ADD PUSH1 0x0 DUP4 ADD MLOAD PUSH2 0x1350 PUSH1 0x0 DUP7 ADD DUP3 PUSH2 0x1537 JUMP JUMPDEST POP PUSH1 0x20 DUP4 ADD MLOAD DUP5 DUP3 SUB PUSH1 0x20 DUP7 ADD MSTORE PUSH2 0x1368 DUP3 DUP3 PUSH2 0x122C JUMP JUMPDEST SWAP2 POP POP PUSH1 0x40 DUP4 ADD MLOAD DUP5 DUP3 SUB PUSH1 0x40 DUP7 ADD MSTORE PUSH2 0x1382 DUP3 DUP3 PUSH2 0x122C JUMP JUMPDEST SWAP2 POP POP PUSH1 0x60 DUP4 ADD MLOAD PUSH2 0x1397 PUSH1 0x60 DUP7 ADD DUP3 PUSH2 0x1537 JUMP JUMPDEST POP PUSH1 0x80 DUP4 ADD MLOAD PUSH2 0x13AA PUSH1 0x80 DUP7 ADD DUP3 PUSH2 0x1537 JUMP JUMPDEST POP PUSH1 0xA0 DUP4 ADD MLOAD PUSH2 0x13BD PUSH1 0xA0 DUP7 ADD DUP3 PUSH2 0x1537 JUMP JUMPDEST POP PUSH1 0xC0 DUP4 ADD MLOAD PUSH2 0x13D0 PUSH1 0xC0 DUP7 ADD DUP3 PUSH2 0x1537 JUMP JUMPDEST POP PUSH1 0xE0 DUP4 ADD MLOAD PUSH2 0x13E3 PUSH1 0xE0 DUP7 ADD DUP3 PUSH2 0x121D JUMP JUMPDEST POP PUSH2 0x100 DUP4 ADD MLOAD PUSH2 0x13F8 PUSH2 0x100 DUP7 ADD DUP3 PUSH2 0x111D JUMP JUMPDEST POP DUP1 SWAP2 POP POP SWAP3 SWAP2 POP POP JUMP JUMPDEST PUSH1 0x0 PUSH2 0x120 DUP4 ADD PUSH1 0x0 DUP4 ADD MLOAD PUSH2 0x141C PUSH1 0x0 DUP7 ADD DUP3 PUSH2 0x1537 JUMP JUMPDEST POP PUSH1 0x20 DUP4 ADD MLOAD DUP5 DUP3 SUB PUSH1 0x20 DUP7 ADD MSTORE PUSH2 0x1434 DUP3 DUP3 PUSH2 0x122C JUMP JUMPDEST SWAP2 POP POP PUSH1 0x40 DUP4 ADD MLOAD DUP5 DUP3 SUB PUSH1 0x40 DUP7 ADD MSTORE PUSH2 0x144E DUP3 DUP3 PUSH2 0x122C JUMP JUMPDEST SWAP2 POP POP PUSH1 0x60 DUP4 ADD MLOAD PUSH2 0x1463 PUSH1 0x60 DUP7 ADD DUP3 PUSH2 0x1537 JUMP JUMPDEST POP PUSH1 0x80 DUP4 ADD MLOAD PUSH2 0x1476 PUSH1 0x80 DUP7 ADD DUP3 PUSH2 0x1537 JUMP JUMPDEST POP PUSH1 0xA0 DUP4 ADD MLOAD PUSH2 0x1489 PUSH1 0xA0 DUP7 ADD DUP3 PUSH2 0x1537 JUMP JUMPDEST POP PUSH1 0xC0 DUP4 ADD MLOAD PUSH2 0x149C PUSH1 0xC0 DUP7 ADD DUP3 PUSH2 0x1537 JUMP JUMPDEST POP PUSH1 0xE0 DUP4 ADD MLOAD PUSH2 0x14AF PUSH1 0xE0 DUP7 ADD DUP3 PUSH2 0x121D JUMP JUMPDEST POP PUSH2 0x100 DUP4 ADD MLOAD PUSH2 0x14C4 PUSH2 0x100 DUP7 ADD DUP3 PUSH2 0x111D JUMP JUMPDEST POP DUP1 SWAP2 POP POP SWAP3 SWAP2 POP POP JUMP JUMPDEST PUSH1 0xA0 DUP3 ADD PUSH1 0x0 DUP3 ADD MLOAD PUSH2 0x14E5 PUSH1 0x0 DUP6 ADD DUP3 PUSH2 0x1537 JUMP JUMPDEST POP PUSH1 0x20 DUP3 ADD MLOAD PUSH2 0x14F8 PUSH1 0x20 DUP6 ADD DUP3 PUSH2 0x1537 JUMP JUMPDEST POP PUSH1 0x40 DUP3 ADD MLOAD PUSH2 0x150B PUSH1 0x40 DUP6 ADD DUP3 PUSH2 0x112C JUMP JUMPDEST POP PUSH1 0x60 DUP3 ADD MLOAD PUSH2 0x151E PUSH1 0x60 DUP6 ADD DUP3 PUSH2 0x1537 JUMP JUMPDEST POP PUSH1 0x80 DUP3 ADD MLOAD PUSH2 0x1531 PUSH1 0x80 DUP6 ADD DUP3 PUSH2 0x1537 JUMP JUMPDEST POP POP POP POP JUMP JUMPDEST PUSH2 0x1540 DUP2 PUSH2 0x184C JUMP JUMPDEST DUP3 MSTORE POP POP JUMP JUMPDEST PUSH2 0x154F DUP2 PUSH2 0x184C JUMP JUMPDEST DUP3 MSTORE POP POP JUMP JUMPDEST PUSH1 0x0 PUSH1 0x20 DUP3 ADD SWAP1 POP PUSH2 0x156A PUSH1 0x0 DUP4 ADD DUP5 PUSH2 0x113B JUMP JUMPDEST SWAP3 SWAP2 POP POP JUMP JUMPDEST PUSH1 0x0 PUSH1 0x20 DUP3 ADD SWAP1 POP DUP2 DUP2 SUB PUSH1 0x0 DUP4 ADD MSTORE PUSH2 0x158A DUP2 DUP5 PUSH2 0x114A JUMP JUMPDEST SWAP1 POP SWAP3 SWAP2 POP POP JUMP JUMPDEST PUSH1 0x0 PUSH1 0x20 DUP3 ADD SWAP1 POP DUP2 DUP2 SUB PUSH1 0x0 DUP4 ADD MSTORE PUSH2 0x15AC DUP2 DUP5 PUSH2 0x11BF JUMP JUMPDEST SWAP1 POP SWAP3 SWAP2 POP POP JUMP JUMPDEST PUSH1 0x0 PUSH1 0x20 DUP3 ADD SWAP1 POP DUP2 DUP2 SUB PUSH1 0x0 DUP4 ADD MSTORE PUSH2 0x15CD DUP2 PUSH2 0x1265 JUMP JUMPDEST SWAP1 POP SWAP2 SWAP1 POP JUMP JUMPDEST PUSH1 0x0 PUSH1 0x20 DUP3 ADD SWAP1 POP DUP2 DUP2 SUB PUSH1 0x0 DUP4 ADD MSTORE PUSH2 0x15ED DUP2 PUSH2 0x1288 JUMP JUMPDEST SWAP1 POP SWAP2 SWAP1 POP JUMP JUMPDEST PUSH1 0x0 PUSH1 0x20 DUP3 ADD SWAP1 POP DUP2 DUP2 SUB PUSH1 0x0 DUP4 ADD MSTORE PUSH2 0x160D DUP2 PUSH2 0x12AB JUMP JUMPDEST SWAP1 POP SWAP2 SWAP1 POP JUMP JUMPDEST PUSH1 0x0 PUSH1 0x20 DUP3 ADD SWAP1 POP DUP2 DUP2 SUB PUSH1 0x0 DUP4 ADD MSTORE PUSH2 0x162D DUP2 PUSH2 0x12CE JUMP JUMPDEST SWAP1 POP SWAP2 SWAP1 POP JUMP JUMPDEST PUSH1 0x0 PUSH1 0x20 DUP3 ADD SWAP1 POP DUP2 DUP2 SUB PUSH1 0x0 DUP4 ADD MSTORE PUSH2 0x164D DUP2 PUSH2 0x12F1 JUMP JUMPDEST SWAP1 POP SWAP2 SWAP1 POP JUMP JUMPDEST PUSH1 0x0 PUSH1 0x20 DUP3 ADD SWAP1 POP DUP2 DUP2 SUB PUSH1 0x0 DUP4 ADD MSTORE PUSH2 0x166D DUP2 PUSH2 0x1314 JUMP JUMPDEST SWAP1 POP SWAP2 SWAP1 POP JUMP JUMPDEST PUSH1 0x0 PUSH1 0x20 DUP3 ADD SWAP1 POP DUP2 DUP2 SUB PUSH1 0x0 DUP4 ADD MSTORE PUSH2 0x168E DUP2 DUP5 PUSH2 0x1403 JUMP JUMPDEST SWAP1 POP SWAP3 SWAP2 POP POP JUMP JUMPDEST PUSH1 0x0 PUSH1 0x20 DUP3 ADD SWAP1 POP PUSH2 0x16AB PUSH1 0x0 DUP4 ADD DUP5 PUSH2 0x1546 JUMP JUMPDEST SWAP3 SWAP2 POP POP JUMP JUMPDEST PUSH1 0x0 PUSH2 0x16BB PUSH2 0x16CC JUMP JUMPDEST SWAP1 POP PUSH2 0x16C7 DUP3 DUP3 PUSH2 0x18CA JUMP JUMPDEST SWAP2 SWAP1 POP JUMP JUMPDEST PUSH1 0x0 PUSH1 0x40 MLOAD SWAP1 POP SWAP1 JUMP JUMPDEST PUSH1 0x0 PUSH8 0xFFFFFFFFFFFFFFFF DUP3 GT ISZERO PUSH2 0x16F1 JUMPI PUSH2 0x16F0 PUSH2 0x19D1 JUMP JUMPDEST JUMPDEST PUSH2 0x16FA DUP3 PUSH2 0x1A14 JUMP JUMPDEST SWAP1 POP PUSH1 0x20 DUP2 ADD SWAP1 POP SWAP2 SWAP1 POP JUMP JUMPDEST PUSH1 0x0 DUP2 SWAP1 POP PUSH1 0x20 DUP3 ADD SWAP1 POP SWAP2 SWAP1 POP JUMP JUMPDEST PUSH1 0x0 DUP2 SWAP1 POP PUSH1 0x20 DUP3 ADD SWAP1 POP SWAP2 SWAP1 POP JUMP JUMPDEST PUSH1 0x0 DUP2 MLOAD SWAP1 POP SWAP2 SWAP1 POP JUMP JUMPDEST PUSH1 0x0 DUP2 MLOAD SWAP1 POP SWAP2 SWAP1 POP JUMP JUMPDEST PUSH1 0x0 DUP2 MLOAD SWAP1 POP SWAP2 SWAP1 POP JUMP JUMPDEST PUSH1 0x0 PUSH1 0x20 DUP3 ADD SWAP1 POP SWAP2 SWAP1 POP JUMP JUMPDEST PUSH1 0x0 PUSH1 0x20 DUP3 ADD SWAP1 POP SWAP2 SWAP1 POP JUMP JUMPDEST PUSH1 0x0 DUP3 DUP3 MSTORE PUSH1 0x20 DUP3 ADD SWAP1 POP SWAP3 SWAP2 POP POP JUMP JUMPDEST PUSH1 0x0 DUP3 DUP3 MSTORE PUSH1 0x20 DUP3 ADD SWAP1 POP SWAP3 SWAP2 POP POP JUMP JUMPDEST PUSH1 0x0 DUP3 DUP3 MSTORE PUSH1 0x20 DUP3 ADD SWAP1 POP SWAP3 SWAP2 POP POP JUMP JUMPDEST PUSH1 0x0 DUP3 DUP3 MSTORE PUSH1 0x20 DUP3 ADD SWAP1 POP SWAP3 SWAP2 POP POP JUMP JUMPDEST PUSH1 0x0 PUSH2 0x17B1 DUP3 PUSH2 0x184C JUMP JUMPDEST SWAP2 POP PUSH2 0x17BC DUP4 PUSH2 0x184C JUMP JUMPDEST SWAP3 POP DUP3 PUSH32 0xFFFFFFFFFFFFFFFFFFFFFFFFFFFFFFFFFFFFFFFFFFFFFFFFFFFFFFFFFFFFFFFF SUB DUP3 GT ISZERO PUSH2 0x17F1 JUMPI PUSH2 0x17F0 PUSH2 0x1944 JUMP JUMPDEST JUMPDEST DUP3 DUP3 ADD SWAP1 POP SWAP3 SWAP2 POP POP JUMP JUMPDEST PUSH1 0x0 PUSH2 0x1807 DUP3 PUSH2 0x182C JUMP JUMPDEST SWAP1 POP SWAP2 SWAP1 POP JUMP JUMPDEST PUSH1 0x0 PUSH2 0x1819 DUP3 PUSH2 0x182C JUMP JUMPDEST SWAP1 POP SWAP2 SWAP1 POP JUMP JUMPDEST PUSH1 0x0 DUP2 ISZERO ISZERO SWAP1 POP SWAP2 SWAP1 POP JUMP JUMPDEST PUSH1 0x0 PUSH20 0xFFFFFFFFFFFFFFFFFFFFFFFFFFFFFFFFFFFFFFFF DUP3 AND SWAP1 POP SWAP2 SWAP1 POP JUMP JUMPDEST PUSH1 0x0 DUP2 SWAP1 POP SWAP2 SWAP1 POP JUMP JUMPDEST DUP3 DUP2 DUP4 CALLDATACOPY PUSH1 0x0 DUP4 DUP4 ADD MSTORE POP POP POP JUMP JUMPDEST PUSH1 0x0 JUMPDEST DUP4 DUP2 LT ISZERO PUSH2 0x1883 JUMPI DUP1 DUP3 ADD MLOAD DUP2 DUP5 ADD MSTORE PUSH1 0x20 DUP2 ADD SWAP1 POP PUSH2 0x1868 JUMP JUMPDEST DUP4 DUP2 GT ISZERO PUSH2 0x1892 JUMPI PUSH1 0x0 DUP5 DUP5 ADD MSTORE JUMPDEST POP POP POP POP JUMP JUMPDEST PUSH1 0x0 PUSH1 0x2 DUP3 DIV SWAP1 POP PUSH1 0x1 DUP3 AND DUP1 PUSH2 0x18B0 JUMPI PUSH1 0x7F DUP3 AND SWAP2 POP JUMPDEST PUSH1 0x20 DUP3 LT DUP2 EQ ISZERO PUSH2 0x18C4 JUMPI PUSH2 0x18C3 PUSH2 0x1973 JUMP JUMPDEST JUMPDEST POP SWAP2 SWAP1 POP JUMP JUMPDEST PUSH2 0x18D3 DUP3 PUSH2 0x1A14 JUMP JUMPDEST DUP2 ADD DUP2 DUP2 LT PUSH8 0xFFFFFFFFFFFFFFFF DUP3 GT OR ISZERO PUSH2 0x18F2 JUMPI PUSH2 0x18F1 PUSH2 0x19D1 JUMP JUMPDEST JUMPDEST DUP1 PUSH1 0x40 MSTORE POP POP POP JUMP JUMPDEST PUSH1 0x0 PUSH2 0x1906 DUP3 PUSH2 0x184C JUMP JUMPDEST SWAP2 POP PUSH32 0xFFFFFFFFFFFFFFFFFFFFFFFFFFFFFFFFFFFFFFFFFFFFFFFFFFFFFFFFFFFFFFFF DUP3 EQ ISZERO PUSH2 0x1939 JUMPI PUSH2 0x1938 PUSH2 0x1944 JUMP JUMPDEST JUMPDEST PUSH1 0x1 DUP3 ADD SWAP1 POP SWAP2 SWAP1 POP JUMP JUMPDEST PUSH32 0x4E487B7100000000000000000000000000000000000000000000000000000000 PUSH1 0x0 MSTORE PUSH1 0x11 PUSH1 0x4 MSTORE PUSH1 0x24 PUSH1 0x0 REVERT JUMPDEST PUSH32 0x4E487B7100000000000000000000000000000000000000000000000000000000 PUSH1 0x0 MSTORE PUSH1 0x22 PUSH1 0x4 MSTORE PUSH1 0x24 PUSH1 0x0 REVERT JUMPDEST PUSH32 0x4E487B7100000000000000000000000000000000000000000000000000000000 PUSH1 0x0 MSTORE PUSH1 0x32 PUSH1 0x4 MSTORE PUSH1 0x24 PUSH1 0x0 REVERT JUMPDEST PUSH32 0x4E487B7100000000000000000000000000000000000000000000000000000000 PUSH1 0x0 MSTORE PUSH1 0x41 PUSH1 0x4 MSTORE PUSH1 0x24 PUSH1 0x0 REVERT JUMPDEST PUSH1 0x0 DUP1 REVERT JUMPDEST PUSH1 0x0 DUP1 REVERT JUMPDEST PUSH1 0x0 DUP1 REVERT JUMPDEST PUSH1 0x0 DUP1 REVERT JUMPDEST PUSH1 0x0 PUSH1 0x1F NOT PUSH1 0x1F DUP4 ADD AND SWAP1 POP SWAP2 SWAP1 POP JUMP JUMPDEST PUSH32 0x456E6420646174652D74696D652073686F756C64206265206772656174657220 PUSH1 0x0 DUP3 ADD MSTORE PUSH32 0x7468616E20737461727420646174652D74696D652E0000000000000000000000 PUSH1 0x20 DUP3 ADD MSTORE POP JUMP JUMPDEST PUSH32 0x537461727420646174652D74696D652073686F756C6420626520677265617465 PUSH1 0x0 DUP3 ADD MSTORE PUSH32 0x72207468616E2063757272656E7420646174652D74696D652E00000000000000 PUSH1 0x20 DUP3 ADD MSTORE POP JUMP JUMPDEST PUSH32 0x46756E6420686173206E6F742073746172746564207965742E00000000000000 PUSH1 0x0 DUP3 ADD MSTORE POP JUMP JUMPDEST PUSH32 0x46756E64206973206163746976652C2063616E6E6F74207472616E7366657220 PUSH1 0x0 DUP3 ADD MSTORE PUSH32 0x616D6F756E74206E6F772E000000000000000000000000000000000000000000 PUSH1 0x20 DUP3 ADD MSTORE POP JUMP JUMPDEST PUSH32 0x46756E6420697320636C6F7365642E0000000000000000000000000000000000 PUSH1 0x0 DUP3 ADD MSTORE POP JUMP JUMPDEST PUSH32 0x4F6E6C79206D616E6167657220697320616C6C6F77656420746F20616C6C6F77 PUSH1 0x0 DUP3 ADD MSTORE PUSH32 0x656420746F2063616C6C20746869732066756E6374696F6E2E00000000000000 PUSH1 0x20 DUP3 ADD MSTORE POP JUMP JUMPDEST PUSH2 0x1BBC DUP2 PUSH2 0x180E JUMP JUMPDEST DUP2 EQ PUSH2 0x1BC7 JUMPI PUSH1 0x0 DUP1 REVERT JUMPDEST POP JUMP JUMPDEST PUSH2 0x1BD3 DUP2 PUSH2 0x184C JUMP JUMPDEST DUP2 EQ PUSH2 0x1BDE JUMPI PUSH1 0x0 DUP1 REVERT JUMPDEST POP JUMP INVALID LOG2 PUSH5 0x6970667358 0x22 SLT KECCAK256 0x4A REVERT AND MSTORE8 0xD8 0xD SSTORE CALLER PUSH21 0x2127950F2E442E66B8C5CED74536F93F2916CE49CE 0xB2 NUMBER PUSH5 0x736F6C6343 STOP ADDMOD SMOD STOP CALLER "
				},
				"gasEstimates": {
					"creation": {
						"codeDepositCost": "1438200",
						"executionCost": "25765",
						"totalCost": "1463965"
					},
					"external": {
						"createFund(string,string,uint256,uint256,uint256,address)": "infinite",
						"createInvestment(uint256)": "infinite",
						"getAllFunds()": "infinite",
						"getAllInvestmentsForFund(uint256)": "infinite",
						"getBalance()": "2510",
						"getFundById(uint256)": "infinite",
						"makePayment(uint256)": "infinite",
						"manager()": "2511"
					}
				},
				"methodIdentifiers": {
					"createFund(string,string,uint256,uint256,uint256,address)": "526ed285",
					"createInvestment(uint256)": "8dcd8915",
					"getAllFunds()": "1c69b464",
					"getAllInvestmentsForFund(uint256)": "26ef2adf",
					"getBalance()": "12065fe0",
					"getFundById(uint256)": "149e685a",
					"makePayment(uint256)": "5114cb52",
					"manager()": "481c6a75"
				}
			},
			"storageLayout": {
				"storage": [
					{
						"astId": 33,
						"contract": "contracts/4_CrowdFunding.sol:CrowdFunding",
						"label": "manager",
						"offset": 0,
						"slot": "0",
						"type": "t_address"
					},
					{
						"astId": 38,
						"contract": "contracts/4_CrowdFunding.sol:CrowdFunding",
						"label": "funds",
						"offset": 0,
						"slot": "1",
						"type": "t_mapping(t_uint256,t_struct(Fund)20_storage)"
					},
					{
						"astId": 42,
						"contract": "contracts/4_CrowdFunding.sol:CrowdFunding",
						"label": "investments",
						"offset": 0,
						"slot": "2",
						"type": "t_array(t_struct(Investment)31_storage)dyn_storage"
					},
					{
						"astId": 44,
						"contract": "contracts/4_CrowdFunding.sol:CrowdFunding",
						"label": "fundCount",
						"offset": 0,
						"slot": "3",
						"type": "t_uint256"
					},
					{
						"astId": 46,
						"contract": "contracts/4_CrowdFunding.sol:CrowdFunding",
						"label": "investmentCount",
						"offset": 0,
						"slot": "4",
						"type": "t_uint256"
					}
				],
				"types": {
					"t_address": {
						"encoding": "inplace",
						"label": "address",
						"numberOfBytes": "20"
					},
					"t_address_payable": {
						"encoding": "inplace",
						"label": "address payable",
						"numberOfBytes": "20"
					},
					"t_array(t_struct(Investment)31_storage)dyn_storage": {
						"base": "t_struct(Investment)31_storage",
						"encoding": "dynamic_array",
						"label": "struct CrowdFunding.Investment[]",
						"numberOfBytes": "32"
					},
					"t_bool": {
						"encoding": "inplace",
						"label": "bool",
						"numberOfBytes": "1"
					},
					"t_mapping(t_uint256,t_struct(Fund)20_storage)": {
						"encoding": "mapping",
						"key": "t_uint256",
						"label": "mapping(uint256 => struct CrowdFunding.Fund)",
						"numberOfBytes": "32",
						"value": "t_struct(Fund)20_storage"
					},
					"t_string_storage": {
						"encoding": "bytes",
						"label": "string",
						"numberOfBytes": "32"
					},
					"t_struct(Fund)20_storage": {
						"encoding": "inplace",
						"label": "struct CrowdFunding.Fund",
						"members": [
							{
								"astId": 3,
								"contract": "contracts/4_CrowdFunding.sol:CrowdFunding",
								"label": "id",
								"offset": 0,
								"slot": "0",
								"type": "t_uint256"
							},
							{
								"astId": 5,
								"contract": "contracts/4_CrowdFunding.sol:CrowdFunding",
								"label": "name",
								"offset": 0,
								"slot": "1",
								"type": "t_string_storage"
							},
							{
								"astId": 7,
								"contract": "contracts/4_CrowdFunding.sol:CrowdFunding",
								"label": "description",
								"offset": 0,
								"slot": "2",
								"type": "t_string_storage"
							},
							{
								"astId": 9,
								"contract": "contracts/4_CrowdFunding.sol:CrowdFunding",
								"label": "startDate",
								"offset": 0,
								"slot": "3",
								"type": "t_uint256"
							},
							{
								"astId": 11,
								"contract": "contracts/4_CrowdFunding.sol:CrowdFunding",
								"label": "endDate",
								"offset": 0,
								"slot": "4",
								"type": "t_uint256"
							},
							{
								"astId": 13,
								"contract": "contracts/4_CrowdFunding.sol:CrowdFunding",
								"label": "goalAmount",
								"offset": 0,
								"slot": "5",
								"type": "t_uint256"
							},
							{
								"astId": 15,
								"contract": "contracts/4_CrowdFunding.sol:CrowdFunding",
								"label": "currentAmount",
								"offset": 0,
								"slot": "6",
								"type": "t_uint256"
							},
							{
								"astId": 17,
								"contract": "contracts/4_CrowdFunding.sol:CrowdFunding",
								"label": "isActive",
								"offset": 0,
								"slot": "7",
								"type": "t_bool"
							},
							{
								"astId": 19,
								"contract": "contracts/4_CrowdFunding.sol:CrowdFunding",
								"label": "receiverAddress",
								"offset": 1,
								"slot": "7",
								"type": "t_address_payable"
							}
						],
						"numberOfBytes": "256"
					},
					"t_struct(Investment)31_storage": {
						"encoding": "inplace",
						"label": "struct CrowdFunding.Investment",
						"members": [
							{
								"astId": 22,
								"contract": "contracts/4_CrowdFunding.sol:CrowdFunding",
								"label": "id",
								"offset": 0,
								"slot": "0",
								"type": "t_uint256"
							},
							{
								"astId": 24,
								"contract": "contracts/4_CrowdFunding.sol:CrowdFunding",
								"label": "fundId",
								"offset": 0,
								"slot": "1",
								"type": "t_uint256"
							},
							{
								"astId": 26,
								"contract": "contracts/4_CrowdFunding.sol:CrowdFunding",
								"label": "investorAddress",
								"offset": 0,
								"slot": "2",
								"type": "t_address"
							},
							{
								"astId": 28,
								"contract": "contracts/4_CrowdFunding.sol:CrowdFunding",
								"label": "investorAmount",
								"offset": 0,
								"slot": "3",
								"type": "t_uint256"
							},
							{
								"astId": 30,
								"contract": "contracts/4_CrowdFunding.sol:CrowdFunding",
								"label": "investmentDate",
								"offset": 0,
								"slot": "4",
								"type": "t_uint256"
							}
						],
						"numberOfBytes": "160"
					},
					"t_uint256": {
						"encoding": "inplace",
						"label": "uint256",
						"numberOfBytes": "32"
					}
				}
			},
			"userdoc": {
				"kind": "user",
				"methods": {},
				"version": 1
			}
		}
	}
}